{
  "contractName": "RaindropClient",
  "abi": [
    {
      "constant": true,
      "inputs": [],
      "name": "unofficialApplicationSignUpFee",
      "outputs": [
        {
          "name": "",
          "type": "uint256"
        }
      ],
      "payable": false,
      "stateMutability": "view",
      "type": "function"
    },
    {
      "constant": true,
      "inputs": [],
      "name": "hydroTokenAddress",
      "outputs": [
        {
          "name": "",
          "type": "address"
        }
      ],
      "payable": false,
      "stateMutability": "view",
      "type": "function"
    },
    {
      "constant": true,
      "inputs": [],
      "name": "unofficialUserSignUpFee",
      "outputs": [
        {
          "name": "",
          "type": "uint256"
        }
      ],
      "payable": false,
      "stateMutability": "view",
      "type": "function"
    },
    {
      "constant": true,
      "inputs": [],
      "name": "owner",
      "outputs": [
        {
          "name": "",
          "type": "address"
        }
      ],
      "payable": false,
      "stateMutability": "view",
      "type": "function"
    },
    {
      "constant": true,
      "inputs": [],
      "name": "hydroStakingMinimum",
      "outputs": [
        {
          "name": "",
          "type": "uint256"
        }
      ],
      "payable": false,
      "stateMutability": "view",
      "type": "function"
    },
    {
      "constant": false,
      "inputs": [
        {
          "name": "to",
          "type": "address"
        }
      ],
      "name": "withdrawEther",
      "outputs": [],
      "payable": false,
      "stateMutability": "nonpayable",
      "type": "function"
    },
    {
      "constant": false,
      "inputs": [
        {
          "name": "tokenAddress",
          "type": "address"
        },
        {
          "name": "to",
          "type": "address"
        }
      ],
      "name": "withdrawERC20Token",
      "outputs": [],
      "payable": false,
      "stateMutability": "nonpayable",
      "type": "function"
    },
    {
      "constant": false,
      "inputs": [
        {
          "name": "newOwner",
          "type": "address"
        }
      ],
      "name": "transferOwnership",
      "outputs": [],
      "payable": false,
      "stateMutability": "nonpayable",
      "type": "function"
    },
    {
      "anonymous": false,
      "inputs": [
        {
          "indexed": false,
          "name": "userName",
          "type": "string"
        },
        {
          "indexed": false,
          "name": "userAddress",
          "type": "address"
        },
        {
          "indexed": false,
          "name": "official",
          "type": "bool"
        }
      ],
      "name": "UserSignUp",
      "type": "event"
    },
    {
      "anonymous": false,
      "inputs": [
        {
          "indexed": false,
          "name": "userName",
          "type": "string"
        },
        {
          "indexed": false,
          "name": "userAddress",
          "type": "address"
        },
        {
          "indexed": false,
          "name": "official",
          "type": "bool"
        }
      ],
      "name": "UserDeleted",
      "type": "event"
    },
    {
      "anonymous": false,
      "inputs": [
        {
          "indexed": false,
          "name": "applicationName",
          "type": "string"
        },
        {
          "indexed": false,
          "name": "official",
          "type": "bool"
        }
      ],
      "name": "ApplicationSignUp",
      "type": "event"
    },
    {
      "anonymous": false,
      "inputs": [
        {
          "indexed": false,
          "name": "applicationName",
          "type": "string"
        },
        {
          "indexed": false,
          "name": "official",
          "type": "bool"
        }
      ],
      "name": "ApplicationDeleted",
      "type": "event"
    },
    {
      "anonymous": false,
      "inputs": [
        {
          "indexed": true,
          "name": "previousOwner",
          "type": "address"
        },
        {
          "indexed": true,
          "name": "newOwner",
          "type": "address"
        }
      ],
      "name": "OwnershipTransferred",
      "type": "event"
    },
    {
      "constant": false,
      "inputs": [
        {
          "name": "userName",
          "type": "string"
        },
        {
          "name": "userAddress",
          "type": "address"
        }
      ],
      "name": "officialUserSignUp",
      "outputs": [],
      "payable": false,
      "stateMutability": "nonpayable",
      "type": "function"
    },
    {
      "constant": false,
      "inputs": [
        {
          "name": "userName",
          "type": "string"
        }
      ],
      "name": "unofficialUserSignUp",
      "outputs": [],
      "payable": true,
      "stateMutability": "payable",
      "type": "function"
    },
    {
      "constant": false,
      "inputs": [
        {
          "name": "userName",
          "type": "string"
        },
        {
          "name": "v",
          "type": "uint8"
        },
        {
          "name": "r",
          "type": "bytes32"
        },
        {
          "name": "s",
          "type": "bytes32"
        }
      ],
      "name": "deleteUserForUser",
      "outputs": [],
      "payable": false,
      "stateMutability": "nonpayable",
      "type": "function"
    },
    {
      "constant": false,
      "inputs": [
        {
          "name": "userName",
          "type": "string"
        }
      ],
      "name": "deleteUser",
      "outputs": [],
      "payable": false,
      "stateMutability": "nonpayable",
      "type": "function"
    },
    {
      "constant": false,
      "inputs": [
        {
          "name": "applicationName",
          "type": "string"
        }
      ],
      "name": "officialApplicationSignUp",
      "outputs": [],
      "payable": false,
      "stateMutability": "nonpayable",
      "type": "function"
    },
    {
      "constant": false,
      "inputs": [
        {
          "name": "applicationName",
          "type": "string"
        }
      ],
      "name": "unofficialApplicationSignUp",
      "outputs": [],
      "payable": true,
      "stateMutability": "payable",
      "type": "function"
    },
    {
      "constant": false,
      "inputs": [
        {
          "name": "applicationName",
          "type": "string"
        },
        {
          "name": "official",
          "type": "bool"
        }
      ],
      "name": "deleteApplication",
      "outputs": [],
      "payable": false,
      "stateMutability": "nonpayable",
      "type": "function"
    },
    {
      "constant": false,
      "inputs": [
        {
          "name": "newFee",
          "type": "uint256"
        }
      ],
      "name": "setUnofficialUserSignUpFee",
      "outputs": [],
      "payable": false,
      "stateMutability": "nonpayable",
      "type": "function"
    },
    {
      "constant": false,
      "inputs": [
        {
          "name": "newFee",
          "type": "uint256"
        }
      ],
      "name": "setUnofficialApplicationSignUpFee",
      "outputs": [],
      "payable": false,
      "stateMutability": "nonpayable",
      "type": "function"
    },
    {
      "constant": false,
      "inputs": [
        {
          "name": "_hydroTokenAddress",
          "type": "address"
        }
      ],
      "name": "setHydroContractAddress",
      "outputs": [],
      "payable": false,
      "stateMutability": "nonpayable",
      "type": "function"
    },
    {
      "constant": false,
      "inputs": [
        {
          "name": "newMinimum",
          "type": "uint256"
        }
      ],
      "name": "setHydroStakingMinimum",
      "outputs": [],
      "payable": false,
      "stateMutability": "nonpayable",
      "type": "function"
    },
    {
      "constant": true,
      "inputs": [
        {
          "name": "userName",
          "type": "string"
        }
      ],
      "name": "userNameTaken",
      "outputs": [
        {
          "name": "taken",
          "type": "bool"
        }
      ],
      "payable": false,
      "stateMutability": "view",
      "type": "function"
    },
    {
      "constant": true,
      "inputs": [
        {
          "name": "applicationName",
          "type": "string"
        }
      ],
      "name": "applicationNameTaken",
      "outputs": [
        {
          "name": "officialTaken",
          "type": "bool"
        },
        {
          "name": "unofficialTaken",
          "type": "bool"
        }
      ],
      "payable": false,
      "stateMutability": "view",
      "type": "function"
    },
    {
      "constant": true,
      "inputs": [
        {
          "name": "userName",
          "type": "string"
        }
      ],
      "name": "getUserByName",
      "outputs": [
        {
          "name": "userAddress",
          "type": "address"
        },
        {
          "name": "official",
          "type": "bool"
        }
      ],
      "payable": false,
      "stateMutability": "view",
      "type": "function"
    },
    {
      "constant": true,
      "inputs": [
        {
          "name": "_address",
          "type": "address"
        },
        {
          "name": "messageHash",
          "type": "bytes32"
        },
        {
          "name": "v",
          "type": "uint8"
        },
        {
          "name": "r",
          "type": "bytes32"
        },
        {
          "name": "s",
          "type": "bytes32"
        }
      ],
      "name": "isSigned",
      "outputs": [
        {
          "name": "",
          "type": "bool"
        }
      ],
      "payable": false,
      "stateMutability": "pure",
      "type": "function"
    }
  ],
  "bytecode": "0x6060604052336000806101000a81548173ffffffffffffffffffffffffffffffffffffffff021916908373ffffffffffffffffffffffffffffffffffffffff16021790555061246d806100536000396000f300606060405260043610610133576000357c0100000000000000000000000000000000000000000000000000000000900463ffffffff1680631e41be58146101385780633a4c11b0146101a05780634bff5009146101c35780635f373c221461026b57806362d1dac2146102a457806362ee922b146102c757806375d7e4bd146102f05780637e90819a146103455780638577ffc11461039757806385903f67146103c05780638677ebe8146103e35780638da5cb5b146104675780639c049dd0146104bc578063a56024d8146104e5578063a56226ef14610568578063af933b57146105c5578063bf1c30f5146105fe578063cc2fd1201461067e578063ce203b83146106d0578063d35e656b1461074c578063d3695161146107c1578063ecfbe70c1461081e578063f2fde38b14610876575b600080fd5b341561014357600080fd5b61019e600480803590602001908201803590602001908080601f0160208091040260200160405190810160405280939291908181526020018383808284378201915050505050509190803515159060200190919050506108af565b005b34156101ab57600080fd5b6101c16004808035906020019091905050610aeb565b005b34156101ce57600080fd5b61021e600480803590602001908201803590602001908080601f01602080910402602001604051908101604052809392919081815260200183838082843782019150505050505091905050610b50565b604051808373ffffffffffffffffffffffffffffffffffffffff1673ffffffffffffffffffffffffffffffffffffffff168152602001821515151581526020019250505060405180910390f35b341561027657600080fd5b6102a2600480803573ffffffffffffffffffffffffffffffffffffffff16906020019091905050610c2e565b005b34156102af57600080fd5b6102c56004808035906020019091905050610ccd565b005b34156102d257600080fd5b6102da610d32565b6040518082815260200191505060405180910390f35b34156102fb57600080fd5b610303610d38565b604051808273ffffffffffffffffffffffffffffffffffffffff1673ffffffffffffffffffffffffffffffffffffffff16815260200191505060405180910390f35b610395600480803590602001908201803590602001908080601f01602080910402602001604051908101604052809392919081815260200183838082843782019150505050505091905050610d5e565b005b34156103a257600080fd5b6103aa611049565b6040518082815260200191505060405180910390f35b34156103cb57600080fd5b6103e1600480803590602001909190505061104f565b005b34156103ee57600080fd5b61044d600480803573ffffffffffffffffffffffffffffffffffffffff169060200190919080356000191690602001909190803560ff1690602001909190803560001916906020019091908035600019169060200190919050506110b4565b604051808215151515815260200191505060405180910390f35b341561047257600080fd5b61047a611169565b604051808273ffffffffffffffffffffffffffffffffffffffff1673ffffffffffffffffffffffffffffffffffffffff16815260200191505060405180910390f35b34156104c757600080fd5b6104cf61118e565b6040518082815260200191505060405180910390f35b34156104f057600080fd5b610566600480803590602001908201803590602001908080601f0160208091040260200160405190810160405280939291908181526020018383808284378201915050505050509190803560ff169060200190919080356000191690602001909190803560001916906020019091905050611194565b005b341561057357600080fd5b6105c3600480803590602001908201803590602001908080601f0160208091040260200160405190810160405280939291908181526020018383808284378201915050505050509190505061145b565b005b34156105d057600080fd5b6105fc600480803573ffffffffffffffffffffffffffffffffffffffff1690602001909190505061167e565b005b341561060957600080fd5b610659600480803590602001908201803590602001908080601f01602080910402602001604051908101604052809392919081815260200183838082843782019150505050505091905050611733565b6040518083151515158152602001821515151581526020019250505060405180910390f35b6106ce600480803590602001908201803590602001908080601f016020809104026020016040519081016040528093929190818152602001838380828437820191505050505050919050506117ff565b005b34156106db57600080fd5b61074a600480803590602001908201803590602001908080601f0160208091040260200160405190810160405280939291908181526020018383808284378201915050505050509190803573ffffffffffffffffffffffffffffffffffffffff1690602001909190505061182f565b005b341561075757600080fd5b6107a7600480803590602001908201803590602001908080601f0160208091040260200160405190810160405280939291908181526020018383808284378201915050505050509190505061189a565b604051808215151515815260200191505060405180910390f35b34156107cc57600080fd5b61081c600480803590602001908201803590602001908080601f01602080910402602001604051908101604052809392919081815260200183838082843782019150505050505091905050611936565b005b341561082957600080fd5b610874600480803573ffffffffffffffffffffffffffffffffffffffff1690602001909190803573ffffffffffffffffffffffffffffffffffffffff16906020019091905050611b8c565b005b341561088157600080fd5b6108ad600480803573ffffffffffffffffffffffffffffffffffffffff16906020019091905050611d5b565b005b60008060009054906101000a900473ffffffffffffffffffffffffffffffffffffffff1673ffffffffffffffffffffffffffffffffffffffff163373ffffffffffffffffffffffffffffffffffffffff1614151561090c57600080fd5b826040518082805190602001908083835b602083101515610942578051825260208201915060208101905060208303925061091d565b6001836020036101000a0380198251168184511680821785525050505050509050019150506040518091039020905061097b8183611eb0565b151561098657600080fd5b81156109e757600660008260001916600019168152602001908152602001600020600080820160006109b89190612340565b6001820160006101000a81549060ff02191690556001820160016101000a81549060ff02191690555050610a3e565b60076000826000191660001916815260200190815260200160002060008082016000610a139190612340565b6001820160006101000a81549060ff02191690556001820160016101000a81549060ff021916905550505b7f92ca2251377e1c47830f58093ae3da43d9aa7ef4d0e7f9d5e26c9b4853f3373f8383604051808060200183151515158152602001828103825284818151815260200191508051906020019080838360005b83811015610aab578082015181840152602081019050610a90565b50505050905090810190601f168015610ad85780820380516001836020036101000a031916815260200191505b50935050505060405180910390a1505050565b6000809054906101000a900473ffffffffffffffffffffffffffffffffffffffff1673ffffffffffffffffffffffffffffffffffffffff163373ffffffffffffffffffffffffffffffffffffffff16141515610b4657600080fd5b8060048190555050565b600080600080846040518082805190602001908083835b602083101515610b8c5780518252602082019150602081019050602083039250610b67565b6001836020036101000a03801982511681845116808217855250505050505090500191505060405180910390209150610bc482611f20565b1515610bcf57600080fd5b60056000836000191660001916815260200190815260200160002090508060010160009054906101000a900473ffffffffffffffffffffffffffffffffffffffff168160010160149054906101000a900460ff16935093505050915091565b6000809054906101000a900473ffffffffffffffffffffffffffffffffffffffff1673ffffffffffffffffffffffffffffffffffffffff163373ffffffffffffffffffffffffffffffffffffffff16141515610c8957600080fd5b80600360006101000a81548173ffffffffffffffffffffffffffffffffffffffff021916908373ffffffffffffffffffffffffffffffffffffffff16021790555050565b6000809054906101000a900473ffffffffffffffffffffffffffffffffffffffff1673ffffffffffffffffffffffffffffffffffffffff163373ffffffffffffffffffffffffffffffffffffffff16141515610d2857600080fd5b8060028190555050565b60025481565b600360009054906101000a900473ffffffffffffffffffffffffffffffffffffffff1681565b600080600060648451101515610d7357600080fd5b6002543410151515610d8457600080fd5b610d8d84611f55565b1515610d9857600080fd5b600360009054906101000a900473ffffffffffffffffffffffffffffffffffffffff1692508273ffffffffffffffffffffffffffffffffffffffff166370a08231336040518263ffffffff167c0100000000000000000000000000000000000000000000000000000000028152600401808273ffffffffffffffffffffffffffffffffffffffff1673ffffffffffffffffffffffffffffffffffffffff168152602001915050602060405180830381600087803b1515610e5757600080fd5b5af11515610e6457600080fd5b5050506040518051905091506004548210151515610e8157600080fd5b836040518082805190602001908083835b602083101515610eb75780518252602082019150602081019050602083039250610e92565b6001836020036101000a03801982511681845116808217855250505050505090500191505060405180910390209050610ef1816000611eb0565b151515610efd57600080fd5b606060405190810160405280858152602001600015158152602001600115158152506007600083600019166000191681526020019081526020016000206000820151816000019080519060200190610f56929190612388565b5060208201518160010160006101000a81548160ff02191690831515021790555060408201518160010160016101000a81548160ff0219169083151502179055509050507febe8c8e3e5b914d8d9eb09c996e0710b75be7b9647ac08f993395cd548296109846000604051808060200183151515158152602001828103825284818151815260200191508051906020019080838360005b83811015611008578082015181840152602081019050610fed565b50505050905090810190601f1680156110355780820380516001836020036101000a031916815260200191505b50935050505060405180910390a150505050565b60015481565b6000809054906101000a900473ffffffffffffffffffffffffffffffffffffffff1673ffffffffffffffffffffffffffffffffffffffff163373ffffffffffffffffffffffffffffffffffffffff161415156110aa57600080fd5b8060018190555050565b60008573ffffffffffffffffffffffffffffffffffffffff16600186868686604051600081526020016040526040518085600019166000191681526020018460ff1660ff1681526020018360001916600019168152602001826000191660001916815260200194505050505060206040516020810390808403906000865af1151561113e57600080fd5b50506020604051035173ffffffffffffffffffffffffffffffffffffffff1614905095945050505050565b6000809054906101000a900473ffffffffffffffffffffffffffffffffffffffff1681565b60045481565b6000806000809054906101000a900473ffffffffffffffffffffffffffffffffffffffff1673ffffffffffffffffffffffffffffffffffffffff163373ffffffffffffffffffffffffffffffffffffffff161415156111f257600080fd5b856040518082805190602001908083835b6020831015156112285780518252602082019150602081019050602083039250611203565b6001836020036101000a0380198251168184511680821785525050505050509050019150506040518091039020915061126082611f20565b151561126b57600080fd5b60056000836000191660001916815260200190815260200160002060010160009054906101000a900473ffffffffffffffffffffffffffffffffffffffff1690506112ee8160405180807f44656c6574650000000000000000000000000000000000000000000000000000815250600601905060405180910390208787876110b4565b15156112f957600080fd5b600560008360001916600019168152602001908152602001600020600080820160006113259190612340565b6001820160006101000a81549073ffffffffffffffffffffffffffffffffffffffff02191690556001820160146101000a81549060ff02191690556001820160156101000a81549060ff021916905550507fc31f8d9e1fbb18c1efa7e7e92461bcddc14cec28fcfb04c70a1f22be00cfcb9a8682600160405180806020018473ffffffffffffffffffffffffffffffffffffffff1673ffffffffffffffffffffffffffffffffffffffff16815260200183151515158152602001828103825285818151815260200191508051906020019080838360005b838110156114175780820151818401526020810190506113fc565b50505050905090810190601f1680156114445780820380516001836020036101000a031916815260200191505b5094505050505060405180910390a1505050505050565b60008060009054906101000a900473ffffffffffffffffffffffffffffffffffffffff1673ffffffffffffffffffffffffffffffffffffffff163373ffffffffffffffffffffffffffffffffffffffff161415156114b857600080fd5b816040518082805190602001908083835b6020831015156114ee57805182526020820191506020810190506020830392506114c9565b6001836020036101000a03801982511681845116808217855250505050505090500191505060405180910390209050611528816001611eb0565b15151561153457600080fd5b60606040519081016040528083815260200160011515815260200160011515815250600660008360001916600019168152602001908152602001600020600082015181600001908051906020019061158d929190612388565b5060208201518160010160006101000a81548160ff02191690831515021790555060408201518160010160016101000a81548160ff0219169083151502179055509050507febe8c8e3e5b914d8d9eb09c996e0710b75be7b9647ac08f993395cd548296109826001604051808060200183151515158152602001828103825284818151815260200191508051906020019080838360005b8381101561163f578082015181840152602081019050611624565b50505050905090810190601f16801561166c5780820380516001836020036101000a031916815260200191505b50935050505060405180910390a15050565b6000809054906101000a900473ffffffffffffffffffffffffffffffffffffffff1673ffffffffffffffffffffffffffffffffffffffff163373ffffffffffffffffffffffffffffffffffffffff161415156116d957600080fd5b8073ffffffffffffffffffffffffffffffffffffffff166108fc3073ffffffffffffffffffffffffffffffffffffffff16319081150290604051600060405180830381858888f19350505050151561173057600080fd5b50565b6000806000836040518082805190602001908083835b60208310151561176e5780518252602082019150602081019050602083039250611749565b6001836020036101000a0380198251168184511680821785525050505050509050019150506040518091039020905060066000826000191660001916815260200190815260200160002060010160019054906101000a900460ff1660076000836000191660001916815260200190815260200160002060010160019054906101000a900460ff169250925050915091565b6064815110151561180f57600080fd5b600154341015151561182057600080fd5b61182c813360006120e3565b50565b6000809054906101000a900473ffffffffffffffffffffffffffffffffffffffff1673ffffffffffffffffffffffffffffffffffffffff163373ffffffffffffffffffffffffffffffffffffffff1614151561188a57600080fd5b611896828260016120e3565b5050565b600080826040518082805190602001908083835b6020831015156118d357805182526020820191506020810190506020830392506118ae565b6001836020036101000a0380198251168184511680821785525050505050509050019150506040518091039020905060056000826000191660001916815260200190815260200160002060010160159054906101000a900460ff16915050919050565b600080826040518082805190602001908083835b60208310151561196f578051825260208201915060208101905060208303925061194a565b6001836020036101000a038019825116818451168082178552505050505050905001915050604051809103902091506119a782611f20565b15156119b257600080fd5b60056000836000191660001916815260200190815260200160002060010160009054906101000a900473ffffffffffffffffffffffffffffffffffffffff1690503373ffffffffffffffffffffffffffffffffffffffff168173ffffffffffffffffffffffffffffffffffffffff16141515611a2d57600080fd5b60056000836000191660001916815260200190815260200160002060008082016000611a599190612340565b6001820160006101000a81549073ffffffffffffffffffffffffffffffffffffffff02191690556001820160146101000a81549060ff02191690556001820160156101000a81549060ff021916905550507fc31f8d9e1fbb18c1efa7e7e92461bcddc14cec28fcfb04c70a1f22be00cfcb9a8382600160405180806020018473ffffffffffffffffffffffffffffffffffffffff1673ffffffffffffffffffffffffffffffffffffffff16815260200183151515158152602001828103825285818151815260200191508051906020019080838360005b83811015611b4b578082015181840152602081019050611b30565b50505050905090810190601f168015611b785780820380516001836020036101000a031916815260200191505b5094505050505060405180910390a1505050565b60008060009054906101000a900473ffffffffffffffffffffffffffffffffffffffff1673ffffffffffffffffffffffffffffffffffffffff163373ffffffffffffffffffffffffffffffffffffffff16141515611be957600080fd5b8290508073ffffffffffffffffffffffffffffffffffffffff1663a9059cbb838373ffffffffffffffffffffffffffffffffffffffff166370a08231306040518263ffffffff167c0100000000000000000000000000000000000000000000000000000000028152600401808273ffffffffffffffffffffffffffffffffffffffff1673ffffffffffffffffffffffffffffffffffffffff168152602001915050602060405180830381600087803b1515611ca357600080fd5b5af11515611cb057600080fd5b505050604051805190506040518363ffffffff167c0100000000000000000000000000000000000000000000000000000000028152600401808373ffffffffffffffffffffffffffffffffffffffff1673ffffffffffffffffffffffffffffffffffffffff16815260200182815260200192505050602060405180830381600087803b1515611d3e57600080fd5b5af11515611d4b57600080fd5b5050506040518051905050505050565b6000809054906101000a900473ffffffffffffffffffffffffffffffffffffffff1673ffffffffffffffffffffffffffffffffffffffff163373ffffffffffffffffffffffffffffffffffffffff16141515611db657600080fd5b600073ffffffffffffffffffffffffffffffffffffffff168173ffffffffffffffffffffffffffffffffffffffff1614151515611df257600080fd5b8073ffffffffffffffffffffffffffffffffffffffff166000809054906101000a900473ffffffffffffffffffffffffffffffffffffffff1673ffffffffffffffffffffffffffffffffffffffff167f8be0079c531659141344cd1fd0a4f28419497f9722a3daafe3b4186f6b6457e060405160405180910390a3806000806101000a81548173ffffffffffffffffffffffffffffffffffffffff021916908373ffffffffffffffffffffffffffffffffffffffff16021790555050565b60008115611eeb5760066000846000191660001916815260200190815260200160002060010160019054906101000a900460ff169050611f1a565b60076000846000191660001916815260200190815260200160002060010160019054906101000a900460ff1690505b92915050565b600060056000836000191660001916815260200190815260200160002060010160159054906101000a900460ff169050919050565b6000611f5f612408565b6000839150600090505b81518110156120d75760417f0100000000000000000000000000000000000000000000000000000000000000028282815181101515611fa457fe5b9060200101517f010000000000000000000000000000000000000000000000000000000000000090047f0100000000000000000000000000000000000000000000000000000000000000027effffffffffffffffffffffffffffffffffffffffffffffffffffffffffffff1916101580156120bc5750605a7f010000000000000000000000000000000000000000000000000000000000000002828281518110151561204c57fe5b9060200101517f010000000000000000000000000000000000000000000000000000000000000090047f0100000000000000000000000000000000000000000000000000000000000000027effffffffffffffffffffffffffffffffffffffffffffffffffffffffffffff191611155b156120ca57600092506120dc565b8080600101915050611f69565b600192505b5050919050565b6000836040518082805190602001908083835b60208310151561211b57805182526020820191506020810190506020830392506120f6565b6001836020036101000a0380198251168184511680821785525050505050509050019150506040518091039020905061215381611f20565b15151561215f57600080fd5b6080604051908101604052808581526020018473ffffffffffffffffffffffffffffffffffffffff16815260200183151581526020016001151581525060056000836000191660001916815260200190815260200160002060008201518160000190805190602001906121d3929190612388565b5060208201518160010160006101000a81548173ffffffffffffffffffffffffffffffffffffffff021916908373ffffffffffffffffffffffffffffffffffffffff16021790555060408201518160010160146101000a81548160ff02191690831515021790555060608201518160010160156101000a81548160ff0219169083151502179055509050507fb6f889e15c40ddbb8ddbfcaa7c4eed2e6fce0fad3645124374fc19350f9cffc084848460405180806020018473ffffffffffffffffffffffffffffffffffffffff1673ffffffffffffffffffffffffffffffffffffffff16815260200183151515158152602001828103825285818151815260200191508051906020019080838360005b838110156122fe5780820151818401526020810190506122e3565b50505050905090810190601f16801561232b5780820380516001836020036101000a031916815260200191505b5094505050505060405180910390a150505050565b50805460018160011615610100020316600290046000825580601f106123665750612385565b601f016020900490600052602060002090810190612384919061241c565b5b50565b828054600181600116156101000203166002900490600052602060002090601f016020900481019282601f106123c957805160ff19168380011785556123f7565b828001600101855582156123f7579182015b828111156123f65782518255916020019190600101906123db565b5b509050612404919061241c565b5090565b602060405190810160405280600081525090565b61243e91905b8082111561243a576000816000905550600101612422565b5090565b905600a165627a7a723058207578cab8c7d7042b8149156212956b294b80f373f7458c49c71139a0e1c964580029",
  "source": "pragma solidity ^0.4.21;\n\nimport \"./StringUtils.sol\";\nimport \"./Withdrawable.sol\";\n\n\ninterface HydroToken {\n    function balanceOf(address _owner) external returns (uint256 balance);\n}\n\n\ncontract RaindropClient is Withdrawable {\n    // Events for when a user signs up for Raindrop Client and when their account is deleted\n    event UserSignUp(string userName, address userAddress, bool official);\n    event UserDeleted(string userName, address userAddress, bool official);\n    // Events for when an application signs up for Raindrop Client and when their account is deleted\n    event ApplicationSignUp(string applicationName, bool official);\n    event ApplicationDeleted(string applicationName, bool official);\n\n    using StringUtils for string;\n\n    // Fees that unofficial users/applications must pay to sign up for Raindrop Client\n    uint public unofficialUserSignUpFee;\n    uint public unofficialApplicationSignUpFee;\n\n    address public hydroTokenAddress;\n    uint public hydroStakingMinimum;\n\n    // User accounts\n    struct User {\n        string userName;\n        address userAddress;\n        bool official;\n        bool _initialized;\n    }\n\n    // Application accounts\n    struct Application {\n        string applicationName;\n        bool official;\n        bool _initialized;\n    }\n\n    // Internally, users and applications are identified by the hash of their names\n    mapping (bytes32 => User) internal userDirectory;\n    mapping (bytes32 => Application) internal officialApplicationDirectory;\n    mapping (bytes32 => Application) internal unofficialApplicationDirectory;\n\n    // Allows the Hydro API to sign up official users with their app-generated address\n    function officialUserSignUp(string userName, address userAddress) public onlyOwner {\n        _userSignUp(userName, userAddress, true);\n    }\n\n    // Allows anyone to sign up as an unofficial user with their own address\n    function unofficialUserSignUp(string userName) public payable {\n        require(bytes(userName).length < 100);\n        require(msg.value >= unofficialUserSignUpFee);\n\n        return _userSignUp(userName, msg.sender, false);\n    }\n\n    // Allows the Hydro API to delete official users iff they've signed keccak256(\"Delete\") with their private key\n    function deleteUserForUser(string userName, uint8 v, bytes32 r, bytes32 s) public onlyOwner {\n        bytes32 userNameHash = keccak256(userName);\n        require(userNameHashTaken(userNameHash));\n        address userAddress = userDirectory[userNameHash].userAddress;\n        require(isSigned(userAddress, keccak256(\"Delete\"), v, r, s));\n\n        delete userDirectory[userNameHash];\n\n        emit UserDeleted(userName, userAddress, true);\n    }\n\n    // Allows unofficial users to delete their account\n    function deleteUser(string userName) public {\n        bytes32 userNameHash = keccak256(userName);\n        require(userNameHashTaken(userNameHash));\n        address userAddress = userDirectory[userNameHash].userAddress;\n        require(userAddress == msg.sender);\n\n        delete userDirectory[userNameHash];\n\n        emit UserDeleted(userName, userAddress, true);\n    }\n\n    // Allows the Hydro API to sign up official applications\n    function officialApplicationSignUp(string applicationName) public onlyOwner {\n        bytes32 applicationNameHash = keccak256(applicationName);\n        require(!applicationNameHashTaken(applicationNameHash, true));\n        officialApplicationDirectory[applicationNameHash] = Application(applicationName, true, true);\n\n        emit ApplicationSignUp(applicationName, true);\n    }\n\n    // Allows anyone to sign up as an unofficial application\n    function unofficialApplicationSignUp(string applicationName) public payable {\n        require(bytes(applicationName).length < 100);\n        require(msg.value >= unofficialApplicationSignUpFee);\n        require(applicationName.allLower());\n\n        HydroToken hydro = HydroToken(hydroTokenAddress);\n        uint256 hydroBalance = hydro.balanceOf(msg.sender);\n        require(hydroBalance >= hydroStakingMinimum);\n\n        bytes32 applicationNameHash = keccak256(applicationName);\n        require(!applicationNameHashTaken(applicationNameHash, false));\n        unofficialApplicationDirectory[applicationNameHash] = Application(applicationName, false, true);\n\n        emit ApplicationSignUp(applicationName, false);\n    }\n\n    // Allows the Hydro API to delete applications unilaterally\n    function deleteApplication(string applicationName, bool official) public onlyOwner {\n        bytes32 applicationNameHash = keccak256(applicationName);\n        require(applicationNameHashTaken(applicationNameHash, official));\n        if (official) {\n            delete officialApplicationDirectory[applicationNameHash];\n        } else {\n            delete unofficialApplicationDirectory[applicationNameHash];\n        }\n\n        emit ApplicationDeleted(applicationName, official);\n    }\n\n    // Allows the Hydro API to changes the unofficial user fee\n    function setUnofficialUserSignUpFee(uint newFee) public onlyOwner {\n        unofficialUserSignUpFee = newFee;\n    }\n\n    // Allows the Hydro API to changes the unofficial application fee\n    function setUnofficialApplicationSignUpFee(uint newFee) public onlyOwner {\n        unofficialApplicationSignUpFee = newFee;\n    }\n\n    // Allows the Hydro API to link to the Hydro token\n    function setHydroContractAddress(address _hydroTokenAddress) public onlyOwner {\n        hydroTokenAddress = _hydroTokenAddress;\n    }\n\n    // Allows the Hydro API to set a minimum hydro balance required to register unofficially\n    function setHydroStakingMinimum(uint newMinimum) public onlyOwner {\n        hydroStakingMinimum = newMinimum;\n    }\n\n    // Indicates whether a given user name has been claimed\n    function userNameTaken(string userName) public view returns (bool taken) {\n        bytes32 userNameHash = keccak256(userName);\n        return userDirectory[userNameHash]._initialized;\n    }\n\n    // Indicates whether a given application name has been claimed for official and unofficial applications\n    function applicationNameTaken(string applicationName)\n        public\n        view\n        returns (bool officialTaken, bool unofficialTaken)\n    {\n        bytes32 applicationNameHash = keccak256(applicationName);\n        return (\n            officialApplicationDirectory[applicationNameHash]._initialized,\n            unofficialApplicationDirectory[applicationNameHash]._initialized\n        );\n    }\n\n    // Returns user details by user name\n    function getUserByName(string userName) public view returns (address userAddress, bool official) {\n        bytes32 userNameHash = keccak256(userName);\n        require(userNameHashTaken(userNameHash));\n        User storage _user = userDirectory[userNameHash];\n\n        return (_user.userAddress, _user.official);\n    }\n\n    // Checks whether the provided (v, r, s) signature was created by the private key associated with _address\n    function isSigned(address _address, bytes32 messageHash, uint8 v, bytes32 r, bytes32 s) public pure returns (bool) {\n        return ecrecover(messageHash, v, r, s) == _address;\n    }\n\n    // Common internal logic for all user signups\n    function _userSignUp(string userName, address userAddress, bool official) internal {\n        bytes32 userNameHash = keccak256(userName);\n        require(!userNameHashTaken(userNameHash));\n        userDirectory[userNameHash] = User(userName, userAddress, official, true);\n\n        emit UserSignUp(userName, userAddress, official);\n    }\n\n    // Internal check for whether a user name has been taken\n    function userNameHashTaken(bytes32 userNameHash) internal view returns (bool) {\n        return userDirectory[userNameHash]._initialized;\n    }\n\n    // Internal check for whether an application name has been taken\n    function applicationNameHashTaken(bytes32 applicationNameHash, bool official) internal view returns (bool) {\n        if (official) {\n            return officialApplicationDirectory[applicationNameHash]._initialized;\n        } else {\n            return unofficialApplicationDirectory[applicationNameHash]._initialized;\n        }\n    }\n}\n",
  "sourcePath": "/Users/noahzinsmeister/Documents/github/smart-contracts/raindrop-client/contracts/RaindropClient.sol",
  "compiler": {
    "name": "solc",
    "version": "0.4.21+commit.dfe3193c.Emscripten.clang"
  },
  "schemaVersion": "2.0.0",
  "updatedAt": "2018-04-13T16:10:38.939Z"
}