{
  "contractName": "RaindropClient",
  "abi": [
    {
      "constant": true,
      "inputs": [],
      "name": "unofficialApplicationSignUpFee",
      "outputs": [
        {
          "name": "",
          "type": "uint256"
        }
      ],
      "payable": false,
      "stateMutability": "view",
      "type": "function"
    },
    {
      "constant": true,
      "inputs": [],
      "name": "unofficialUserSignUpFee",
      "outputs": [
        {
          "name": "",
          "type": "uint256"
        }
      ],
      "payable": false,
      "stateMutability": "view",
      "type": "function"
    },
    {
      "constant": true,
      "inputs": [],
      "name": "owner",
      "outputs": [
        {
          "name": "",
          "type": "address"
        }
      ],
      "payable": false,
      "stateMutability": "view",
      "type": "function"
    },
    {
      "constant": false,
      "inputs": [
        {
          "name": "to",
          "type": "address"
        }
      ],
      "name": "withdrawEther",
      "outputs": [],
      "payable": false,
      "stateMutability": "nonpayable",
      "type": "function"
    },
    {
      "constant": false,
      "inputs": [
        {
          "name": "tokenAddress",
          "type": "address"
        },
        {
          "name": "to",
          "type": "address"
        }
      ],
      "name": "withdrawERC20Token",
      "outputs": [],
      "payable": false,
      "stateMutability": "nonpayable",
      "type": "function"
    },
    {
      "constant": false,
      "inputs": [
        {
          "name": "newOwner",
          "type": "address"
        }
      ],
      "name": "transferOwnership",
      "outputs": [],
      "payable": false,
      "stateMutability": "nonpayable",
      "type": "function"
    },
    {
      "anonymous": false,
      "inputs": [
        {
          "indexed": false,
          "name": "userName",
          "type": "string"
        },
        {
          "indexed": false,
          "name": "userAddress",
          "type": "address"
        },
        {
          "indexed": false,
          "name": "official",
          "type": "bool"
        }
      ],
      "name": "UserSignUp",
      "type": "event"
    },
    {
      "anonymous": false,
      "inputs": [
        {
          "indexed": false,
          "name": "userName",
          "type": "string"
        },
        {
          "indexed": false,
          "name": "userAddress",
          "type": "address"
        },
        {
          "indexed": false,
          "name": "official",
          "type": "bool"
        }
      ],
      "name": "UserDeleted",
      "type": "event"
    },
    {
      "anonymous": false,
      "inputs": [
        {
          "indexed": false,
          "name": "applicationName",
          "type": "string"
        },
        {
          "indexed": false,
          "name": "official",
          "type": "bool"
        }
      ],
      "name": "ApplicationSignUp",
      "type": "event"
    },
    {
      "anonymous": false,
      "inputs": [
        {
          "indexed": false,
          "name": "applicationName",
          "type": "string"
        },
        {
          "indexed": false,
          "name": "official",
          "type": "bool"
        }
      ],
      "name": "ApplicationDeleted",
      "type": "event"
    },
    {
      "anonymous": false,
      "inputs": [
        {
          "indexed": true,
          "name": "previousOwner",
          "type": "address"
        },
        {
          "indexed": true,
          "name": "newOwner",
          "type": "address"
        }
      ],
      "name": "OwnershipTransferred",
      "type": "event"
    },
    {
      "constant": false,
      "inputs": [
        {
          "name": "userName",
          "type": "string"
        },
        {
          "name": "userAddress",
          "type": "address"
        }
      ],
      "name": "officialUserSignUp",
      "outputs": [],
      "payable": false,
      "stateMutability": "nonpayable",
      "type": "function"
    },
    {
      "constant": false,
      "inputs": [
        {
          "name": "userName",
          "type": "string"
        }
      ],
      "name": "unofficialUserSignUp",
      "outputs": [],
      "payable": true,
      "stateMutability": "payable",
      "type": "function"
    },
    {
      "constant": false,
      "inputs": [
        {
          "name": "userName",
          "type": "string"
        },
        {
          "name": "v",
          "type": "uint8"
        },
        {
          "name": "r",
          "type": "bytes32"
        },
        {
          "name": "s",
          "type": "bytes32"
        }
      ],
      "name": "deleteUserForUser",
      "outputs": [],
      "payable": false,
      "stateMutability": "nonpayable",
      "type": "function"
    },
    {
      "constant": false,
      "inputs": [
        {
          "name": "userName",
          "type": "string"
        }
      ],
      "name": "deleteUser",
      "outputs": [],
      "payable": false,
      "stateMutability": "nonpayable",
      "type": "function"
    },
    {
      "constant": false,
      "inputs": [
        {
          "name": "applicationName",
          "type": "string"
        }
      ],
      "name": "officialApplicationSignUp",
      "outputs": [],
      "payable": false,
      "stateMutability": "nonpayable",
      "type": "function"
    },
    {
      "constant": false,
      "inputs": [
        {
          "name": "applicationName",
          "type": "string"
        }
      ],
      "name": "unofficialApplicationSignUp",
      "outputs": [],
      "payable": true,
      "stateMutability": "payable",
      "type": "function"
    },
    {
      "constant": false,
      "inputs": [
        {
          "name": "applicationName",
          "type": "string"
        },
        {
          "name": "official",
          "type": "bool"
        }
      ],
      "name": "deleteApplication",
      "outputs": [],
      "payable": false,
      "stateMutability": "nonpayable",
      "type": "function"
    },
    {
      "constant": false,
      "inputs": [
        {
          "name": "newFee",
          "type": "uint256"
        }
      ],
      "name": "setUnofficialUserSignUpFee",
      "outputs": [],
      "payable": false,
      "stateMutability": "nonpayable",
      "type": "function"
    },
    {
      "constant": false,
      "inputs": [
        {
          "name": "newFee",
          "type": "uint256"
        }
      ],
      "name": "setUnofficialApplicationSignUpFee",
      "outputs": [],
      "payable": false,
      "stateMutability": "nonpayable",
      "type": "function"
    },
    {
      "constant": true,
      "inputs": [
        {
          "name": "userName",
          "type": "string"
        }
      ],
      "name": "userNameTaken",
      "outputs": [
        {
          "name": "taken",
          "type": "bool"
        }
      ],
      "payable": false,
      "stateMutability": "view",
      "type": "function"
    },
    {
      "constant": true,
      "inputs": [
        {
          "name": "applicationName",
          "type": "string"
        }
      ],
      "name": "applicationNameTaken",
      "outputs": [
        {
          "name": "officialTaken",
          "type": "bool"
        },
        {
          "name": "unofficialTaken",
          "type": "bool"
        }
      ],
      "payable": false,
      "stateMutability": "view",
      "type": "function"
    },
    {
      "constant": true,
      "inputs": [
        {
          "name": "userName",
          "type": "string"
        }
      ],
      "name": "getUserByName",
      "outputs": [
        {
          "name": "userAddress",
          "type": "address"
        },
        {
          "name": "official",
          "type": "bool"
        }
      ],
      "payable": false,
      "stateMutability": "view",
      "type": "function"
    },
    {
      "constant": true,
      "inputs": [
        {
          "name": "_address",
          "type": "address"
        },
        {
          "name": "messageHash",
          "type": "bytes32"
        },
        {
          "name": "v",
          "type": "uint8"
        },
        {
          "name": "r",
          "type": "bytes32"
        },
        {
          "name": "s",
          "type": "bytes32"
        }
      ],
      "name": "isSigned",
      "outputs": [
        {
          "name": "",
          "type": "bool"
        }
      ],
      "payable": false,
      "stateMutability": "pure",
      "type": "function"
    }
  ],
  "bytecode": "0x6060604052336000806101000a81548173ffffffffffffffffffffffffffffffffffffffff021916908373ffffffffffffffffffffffffffffffffffffffff160217905550612149806100536000396000f300606060405260043610610107576000357c0100000000000000000000000000000000000000000000000000000000900463ffffffff1680631e41be581461010c5780634bff50091461017457806362d1dac21461021c57806362ee922b1461023f5780637e90819a146102685780638577ffc1146102ba57806385903f67146102e35780638677ebe8146103065780638da5cb5b1461038a578063a56024d8146103df578063a56226ef14610462578063af933b57146104bf578063bf1c30f5146104f8578063cc2fd12014610578578063ce203b83146105ca578063d35e656b14610646578063d3695161146106bb578063ecfbe70c14610718578063f2fde38b14610770575b600080fd5b341561011757600080fd5b610172600480803590602001908201803590602001908080601f0160208091040260200160405190810160405280939291908181526020018383808284378201915050505050509190803515159060200190919050506107a9565b005b341561017f57600080fd5b6101cf600480803590602001908201803590602001908080601f016020809104026020016040519081016040528093929190818152602001838380828437820191505050505050919050506109e5565b604051808373ffffffffffffffffffffffffffffffffffffffff1673ffffffffffffffffffffffffffffffffffffffff168152602001821515151581526020019250505060405180910390f35b341561022757600080fd5b61023d6004808035906020019091905050610ac3565b005b341561024a57600080fd5b610252610b28565b6040518082815260200191505060405180910390f35b6102b8600480803590602001908201803590602001908080601f01602080910402602001604051908101604052809392919081815260200183838082843782019150505050505091905050610b2e565b005b34156102c557600080fd5b6102cd610d2b565b6040518082815260200191505060405180910390f35b34156102ee57600080fd5b6103046004808035906020019091905050610d31565b005b341561031157600080fd5b610370600480803573ffffffffffffffffffffffffffffffffffffffff169060200190919080356000191690602001909190803560ff169060200190919080356000191690602001909190803560001916906020019091905050610d96565b604051808215151515815260200191505060405180910390f35b341561039557600080fd5b61039d610e4b565b604051808273ffffffffffffffffffffffffffffffffffffffff1673ffffffffffffffffffffffffffffffffffffffff16815260200191505060405180910390f35b34156103ea57600080fd5b610460600480803590602001908201803590602001908080601f0160208091040260200160405190810160405280939291908181526020018383808284378201915050505050509190803560ff169060200190919080356000191690602001909190803560001916906020019091905050610e70565b005b341561046d57600080fd5b6104bd600480803590602001908201803590602001908080601f01602080910402602001604051908101604052809392919081815260200183838082843782019150505050505091905050611137565b005b34156104ca57600080fd5b6104f6600480803573ffffffffffffffffffffffffffffffffffffffff1690602001909190505061135a565b005b341561050357600080fd5b610553600480803590602001908201803590602001908080601f0160208091040260200160405190810160405280939291908181526020018383808284378201915050505050509190505061140f565b6040518083151515158152602001821515151581526020019250505060405180910390f35b6105c8600480803590602001908201803590602001908080601f016020809104026020016040519081016040528093929190818152602001838380828437820191505050505050919050506114db565b005b34156105d557600080fd5b610644600480803590602001908201803590602001908080601f0160208091040260200160405190810160405280939291908181526020018383808284378201915050505050509190803573ffffffffffffffffffffffffffffffffffffffff1690602001909190505061150b565b005b341561065157600080fd5b6106a1600480803590602001908201803590602001908080601f01602080910402602001604051908101604052809392919081815260200183838082843782019150505050505091905050611576565b604051808215151515815260200191505060405180910390f35b34156106c657600080fd5b610716600480803590602001908201803590602001908080601f01602080910402602001604051908101604052809392919081815260200183838082843782019150505050505091905050611612565b005b341561072357600080fd5b61076e600480803573ffffffffffffffffffffffffffffffffffffffff1690602001909190803573ffffffffffffffffffffffffffffffffffffffff16906020019091905050611868565b005b341561077b57600080fd5b6107a7600480803573ffffffffffffffffffffffffffffffffffffffff16906020019091905050611a37565b005b60008060009054906101000a900473ffffffffffffffffffffffffffffffffffffffff1673ffffffffffffffffffffffffffffffffffffffff163373ffffffffffffffffffffffffffffffffffffffff1614151561080657600080fd5b826040518082805190602001908083835b60208310151561083c5780518252602082019150602081019050602083039250610817565b6001836020036101000a038019825116818451168082178552505050505050905001915050604051809103902090506108758183611b8c565b151561088057600080fd5b81156108e157600460008260001916600019168152602001908152602001600020600080820160006108b2919061201c565b6001820160006101000a81549060ff02191690556001820160016101000a81549060ff02191690555050610938565b6005600082600019166000191681526020019081526020016000206000808201600061090d919061201c565b6001820160006101000a81549060ff02191690556001820160016101000a81549060ff021916905550505b7f92ca2251377e1c47830f58093ae3da43d9aa7ef4d0e7f9d5e26c9b4853f3373f8383604051808060200183151515158152602001828103825284818151815260200191508051906020019080838360005b838110156109a557808201518184015260208101905061098a565b50505050905090810190601f1680156109d25780820380516001836020036101000a031916815260200191505b50935050505060405180910390a1505050565b600080600080846040518082805190602001908083835b602083101515610a2157805182526020820191506020810190506020830392506109fc565b6001836020036101000a03801982511681845116808217855250505050505090500191505060405180910390209150610a5982611bfc565b1515610a6457600080fd5b60036000836000191660001916815260200190815260200160002090508060010160009054906101000a900473ffffffffffffffffffffffffffffffffffffffff168160010160149054906101000a900460ff16935093505050915091565b6000809054906101000a900473ffffffffffffffffffffffffffffffffffffffff1673ffffffffffffffffffffffffffffffffffffffff163373ffffffffffffffffffffffffffffffffffffffff16141515610b1e57600080fd5b8060028190555050565b60025481565b600060648251101515610b4057600080fd5b6002543410151515610b5157600080fd5b610b5a82611c31565b1515610b6557600080fd5b816040518082805190602001908083835b602083101515610b9b5780518252602082019150602081019050602083039250610b76565b6001836020036101000a03801982511681845116808217855250505050505090500191505060405180910390209050610bd5816000611b8c565b151515610be157600080fd5b606060405190810160405280838152602001600015158152602001600115158152506005600083600019166000191681526020019081526020016000206000820151816000019080519060200190610c3a929190612064565b5060208201518160010160006101000a81548160ff02191690831515021790555060408201518160010160016101000a81548160ff0219169083151502179055509050507febe8c8e3e5b914d8d9eb09c996e0710b75be7b9647ac08f993395cd548296109826000604051808060200183151515158152602001828103825284818151815260200191508051906020019080838360005b83811015610cec578082015181840152602081019050610cd1565b50505050905090810190601f168015610d195780820380516001836020036101000a031916815260200191505b50935050505060405180910390a15050565b60015481565b6000809054906101000a900473ffffffffffffffffffffffffffffffffffffffff1673ffffffffffffffffffffffffffffffffffffffff163373ffffffffffffffffffffffffffffffffffffffff16141515610d8c57600080fd5b8060018190555050565b60008573ffffffffffffffffffffffffffffffffffffffff16600186868686604051600081526020016040526040518085600019166000191681526020018460ff1660ff1681526020018360001916600019168152602001826000191660001916815260200194505050505060206040516020810390808403906000865af11515610e2057600080fd5b50506020604051035173ffffffffffffffffffffffffffffffffffffffff1614905095945050505050565b6000809054906101000a900473ffffffffffffffffffffffffffffffffffffffff1681565b6000806000809054906101000a900473ffffffffffffffffffffffffffffffffffffffff1673ffffffffffffffffffffffffffffffffffffffff163373ffffffffffffffffffffffffffffffffffffffff16141515610ece57600080fd5b856040518082805190602001908083835b602083101515610f045780518252602082019150602081019050602083039250610edf565b6001836020036101000a03801982511681845116808217855250505050505090500191505060405180910390209150610f3c82611bfc565b1515610f4757600080fd5b60036000836000191660001916815260200190815260200160002060010160009054906101000a900473ffffffffffffffffffffffffffffffffffffffff169050610fca8160405180807f44656c657465000000000000000000000000000000000000000000000000000081525060060190506040518091039020878787610d96565b1515610fd557600080fd5b60036000836000191660001916815260200190815260200160002060008082016000611001919061201c565b6001820160006101000a81549073ffffffffffffffffffffffffffffffffffffffff02191690556001820160146101000a81549060ff02191690556001820160156101000a81549060ff021916905550507fc31f8d9e1fbb18c1efa7e7e92461bcddc14cec28fcfb04c70a1f22be00cfcb9a8682600160405180806020018473ffffffffffffffffffffffffffffffffffffffff1673ffffffffffffffffffffffffffffffffffffffff16815260200183151515158152602001828103825285818151815260200191508051906020019080838360005b838110156110f35780820151818401526020810190506110d8565b50505050905090810190601f1680156111205780820380516001836020036101000a031916815260200191505b5094505050505060405180910390a1505050505050565b60008060009054906101000a900473ffffffffffffffffffffffffffffffffffffffff1673ffffffffffffffffffffffffffffffffffffffff163373ffffffffffffffffffffffffffffffffffffffff1614151561119457600080fd5b816040518082805190602001908083835b6020831015156111ca57805182526020820191506020810190506020830392506111a5565b6001836020036101000a03801982511681845116808217855250505050505090500191505060405180910390209050611204816001611b8c565b15151561121057600080fd5b606060405190810160405280838152602001600115158152602001600115158152506004600083600019166000191681526020019081526020016000206000820151816000019080519060200190611269929190612064565b5060208201518160010160006101000a81548160ff02191690831515021790555060408201518160010160016101000a81548160ff0219169083151502179055509050507febe8c8e3e5b914d8d9eb09c996e0710b75be7b9647ac08f993395cd548296109826001604051808060200183151515158152602001828103825284818151815260200191508051906020019080838360005b8381101561131b578082015181840152602081019050611300565b50505050905090810190601f1680156113485780820380516001836020036101000a031916815260200191505b50935050505060405180910390a15050565b6000809054906101000a900473ffffffffffffffffffffffffffffffffffffffff1673ffffffffffffffffffffffffffffffffffffffff163373ffffffffffffffffffffffffffffffffffffffff161415156113b557600080fd5b8073ffffffffffffffffffffffffffffffffffffffff166108fc3073ffffffffffffffffffffffffffffffffffffffff16319081150290604051600060405180830381858888f19350505050151561140c57600080fd5b50565b6000806000836040518082805190602001908083835b60208310151561144a5780518252602082019150602081019050602083039250611425565b6001836020036101000a0380198251168184511680821785525050505050509050019150506040518091039020905060046000826000191660001916815260200190815260200160002060010160019054906101000a900460ff1660056000836000191660001916815260200190815260200160002060010160019054906101000a900460ff169250925050915091565b606481511015156114eb57600080fd5b60015434101515156114fc57600080fd5b61150881336000611dbf565b50565b6000809054906101000a900473ffffffffffffffffffffffffffffffffffffffff1673ffffffffffffffffffffffffffffffffffffffff163373ffffffffffffffffffffffffffffffffffffffff1614151561156657600080fd5b61157282826001611dbf565b5050565b600080826040518082805190602001908083835b6020831015156115af578051825260208201915060208101905060208303925061158a565b6001836020036101000a0380198251168184511680821785525050505050509050019150506040518091039020905060036000826000191660001916815260200190815260200160002060010160159054906101000a900460ff16915050919050565b600080826040518082805190602001908083835b60208310151561164b5780518252602082019150602081019050602083039250611626565b6001836020036101000a0380198251168184511680821785525050505050509050019150506040518091039020915061168382611bfc565b151561168e57600080fd5b60036000836000191660001916815260200190815260200160002060010160009054906101000a900473ffffffffffffffffffffffffffffffffffffffff1690503373ffffffffffffffffffffffffffffffffffffffff168173ffffffffffffffffffffffffffffffffffffffff1614151561170957600080fd5b60036000836000191660001916815260200190815260200160002060008082016000611735919061201c565b6001820160006101000a81549073ffffffffffffffffffffffffffffffffffffffff02191690556001820160146101000a81549060ff02191690556001820160156101000a81549060ff021916905550507fc31f8d9e1fbb18c1efa7e7e92461bcddc14cec28fcfb04c70a1f22be00cfcb9a8382600160405180806020018473ffffffffffffffffffffffffffffffffffffffff1673ffffffffffffffffffffffffffffffffffffffff16815260200183151515158152602001828103825285818151815260200191508051906020019080838360005b8381101561182757808201518184015260208101905061180c565b50505050905090810190601f1680156118545780820380516001836020036101000a031916815260200191505b5094505050505060405180910390a1505050565b60008060009054906101000a900473ffffffffffffffffffffffffffffffffffffffff1673ffffffffffffffffffffffffffffffffffffffff163373ffffffffffffffffffffffffffffffffffffffff161415156118c557600080fd5b8290508073ffffffffffffffffffffffffffffffffffffffff1663a9059cbb838373ffffffffffffffffffffffffffffffffffffffff166370a08231306040518263ffffffff167c0100000000000000000000000000000000000000000000000000000000028152600401808273ffffffffffffffffffffffffffffffffffffffff1673ffffffffffffffffffffffffffffffffffffffff168152602001915050602060405180830381600087803b151561197f57600080fd5b5af1151561198c57600080fd5b505050604051805190506040518363ffffffff167c0100000000000000000000000000000000000000000000000000000000028152600401808373ffffffffffffffffffffffffffffffffffffffff1673ffffffffffffffffffffffffffffffffffffffff16815260200182815260200192505050602060405180830381600087803b1515611a1a57600080fd5b5af11515611a2757600080fd5b5050506040518051905050505050565b6000809054906101000a900473ffffffffffffffffffffffffffffffffffffffff1673ffffffffffffffffffffffffffffffffffffffff163373ffffffffffffffffffffffffffffffffffffffff16141515611a9257600080fd5b600073ffffffffffffffffffffffffffffffffffffffff168173ffffffffffffffffffffffffffffffffffffffff1614151515611ace57600080fd5b8073ffffffffffffffffffffffffffffffffffffffff166000809054906101000a900473ffffffffffffffffffffffffffffffffffffffff1673ffffffffffffffffffffffffffffffffffffffff167f8be0079c531659141344cd1fd0a4f28419497f9722a3daafe3b4186f6b6457e060405160405180910390a3806000806101000a81548173ffffffffffffffffffffffffffffffffffffffff021916908373ffffffffffffffffffffffffffffffffffffffff16021790555050565b60008115611bc75760046000846000191660001916815260200190815260200160002060010160019054906101000a900460ff169050611bf6565b60056000846000191660001916815260200190815260200160002060010160019054906101000a900460ff1690505b92915050565b600060036000836000191660001916815260200190815260200160002060010160159054906101000a900460ff169050919050565b6000611c3b6120e4565b6000839150600090505b8151811015611db35760417f0100000000000000000000000000000000000000000000000000000000000000028282815181101515611c8057fe5b9060200101517f010000000000000000000000000000000000000000000000000000000000000090047f0100000000000000000000000000000000000000000000000000000000000000027effffffffffffffffffffffffffffffffffffffffffffffffffffffffffffff191610158015611d985750605a7f0100000000000000000000000000000000000000000000000000000000000000028282815181101515611d2857fe5b9060200101517f010000000000000000000000000000000000000000000000000000000000000090047f0100000000000000000000000000000000000000000000000000000000000000027effffffffffffffffffffffffffffffffffffffffffffffffffffffffffffff191611155b15611da65760009250611db8565b8080600101915050611c45565b600192505b5050919050565b6000836040518082805190602001908083835b602083101515611df75780518252602082019150602081019050602083039250611dd2565b6001836020036101000a03801982511681845116808217855250505050505090500191505060405180910390209050611e2f81611bfc565b151515611e3b57600080fd5b6080604051908101604052808581526020018473ffffffffffffffffffffffffffffffffffffffff1681526020018315158152602001600115158152506003600083600019166000191681526020019081526020016000206000820151816000019080519060200190611eaf929190612064565b5060208201518160010160006101000a81548173ffffffffffffffffffffffffffffffffffffffff021916908373ffffffffffffffffffffffffffffffffffffffff16021790555060408201518160010160146101000a81548160ff02191690831515021790555060608201518160010160156101000a81548160ff0219169083151502179055509050507fb6f889e15c40ddbb8ddbfcaa7c4eed2e6fce0fad3645124374fc19350f9cffc084848460405180806020018473ffffffffffffffffffffffffffffffffffffffff1673ffffffffffffffffffffffffffffffffffffffff16815260200183151515158152602001828103825285818151815260200191508051906020019080838360005b83811015611fda578082015181840152602081019050611fbf565b50505050905090810190601f1680156120075780820380516001836020036101000a031916815260200191505b5094505050505060405180910390a150505050565b50805460018160011615610100020316600290046000825580601f106120425750612061565b601f01602090049060005260206000209081019061206091906120f8565b5b50565b828054600181600116156101000203166002900490600052602060002090601f016020900481019282601f106120a557805160ff19168380011785556120d3565b828001600101855582156120d3579182015b828111156120d25782518255916020019190600101906120b7565b5b5090506120e091906120f8565b5090565b602060405190810160405280600081525090565b61211a91905b808211156121165760008160009055506001016120fe565b5090565b905600a165627a7a72305820d1fec27d0740aad7b1f478cee40e777947e8bbf64e2d9f175c96c8cf0600cbb00029",
  "source": "pragma solidity ^0.4.21;\n\nimport \"./StringUtils.sol\";\nimport \"./Withdrawable.sol\";\n\n\ncontract RaindropClient is Withdrawable {\n    // Events for when a user signs up for Raindrop Client and when their account is deleted\n    event UserSignUp(string userName, address userAddress, bool official);\n    event UserDeleted(string userName, address userAddress, bool official);\n    // Events for when an application signs up for Raindrop Client and when their account is deleted\n    event ApplicationSignUp(string applicationName, bool official);\n    event ApplicationDeleted(string applicationName, bool official);\n\n    using StringUtils for string;\n\n    // Fees that unofficial users/applications must pay to sign up for Raindrop Client\n    uint public unofficialUserSignUpFee;\n    uint public unofficialApplicationSignUpFee;\n\n    // User accounts\n    struct User {\n        string userName;\n        address userAddress;\n        bool official;\n        bool _initialized;\n    }\n\n    // Application accounts\n    struct Application {\n        string applicationName;\n        bool official;\n        bool _initialized;\n    }\n\n    // Internally, users and applications are identified by the hash of their names\n    mapping (bytes32 => User) internal userDirectory;\n    mapping (bytes32 => Application) internal officialApplicationDirectory;\n    mapping (bytes32 => Application) internal unofficialApplicationDirectory;\n\n    // Allows the Hydro API to sign up official users with their app-generated address\n    function officialUserSignUp(string userName, address userAddress) public onlyOwner {\n        _userSignUp(userName, userAddress, true);\n    }\n\n    // Allows anyone to sign up as an unofficial user with their own address\n    function unofficialUserSignUp(string userName) public payable {\n        require(bytes(userName).length < 100);\n        require(msg.value >= unofficialUserSignUpFee);\n\n        return _userSignUp(userName, msg.sender, false);\n    }\n\n    // Allows the Hydro API to delete official users iff they've signed keccak256(\"Delete\") with their private key\n    function deleteUserForUser(string userName, uint8 v, bytes32 r, bytes32 s) public onlyOwner {\n        bytes32 userNameHash = keccak256(userName);\n        require(userNameHashTaken(userNameHash));\n        address userAddress = userDirectory[userNameHash].userAddress;\n        require(isSigned(userAddress, keccak256(\"Delete\"), v, r, s));\n\n        delete userDirectory[userNameHash];\n\n        emit UserDeleted(userName, userAddress, true);\n    }\n\n    // Allows unofficial users to delete their account\n    function deleteUser(string userName) public {\n        bytes32 userNameHash = keccak256(userName);\n        require(userNameHashTaken(userNameHash));\n        address userAddress = userDirectory[userNameHash].userAddress;\n        require(userAddress == msg.sender);\n\n        delete userDirectory[userNameHash];\n\n        emit UserDeleted(userName, userAddress, true);\n    }\n\n    // Allows the Hydro API to sign up official applications\n    function officialApplicationSignUp(string applicationName) public onlyOwner {\n        bytes32 applicationNameHash = keccak256(applicationName);\n        require(!applicationNameHashTaken(applicationNameHash, true));\n        officialApplicationDirectory[applicationNameHash] = Application(applicationName, true, true);\n\n        emit ApplicationSignUp(applicationName, true);\n    }\n\n    // Allows anyone to sign up as an unofficial application\n    function unofficialApplicationSignUp(string applicationName) public payable {\n        require(bytes(applicationName).length < 100);\n        require(msg.value >= unofficialApplicationSignUpFee);\n        require(applicationName.allLower());\n\n        bytes32 applicationNameHash = keccak256(applicationName);\n        require(!applicationNameHashTaken(applicationNameHash, false));\n        unofficialApplicationDirectory[applicationNameHash] = Application(applicationName, false, true);\n\n        emit ApplicationSignUp(applicationName, false);\n    }\n\n    // Allows the Hydro API to delete applications unilaterally\n    function deleteApplication(string applicationName, bool official) public onlyOwner {\n        bytes32 applicationNameHash = keccak256(applicationName);\n        require(applicationNameHashTaken(applicationNameHash, official));\n        if (official) {\n            delete officialApplicationDirectory[applicationNameHash];\n        } else {\n            delete unofficialApplicationDirectory[applicationNameHash];\n        }\n\n        emit ApplicationDeleted(applicationName, official);\n    }\n\n    // Allows the Hydro API to changes the unofficial user fee\n    function setUnofficialUserSignUpFee(uint newFee) public onlyOwner {\n        unofficialUserSignUpFee = newFee;\n    }\n\n    // Allows the Hydro API to changes the unofficial application fee\n    function setUnofficialApplicationSignUpFee(uint newFee) public onlyOwner {\n        unofficialApplicationSignUpFee = newFee;\n    }\n\n    // Indicates whether a given user name has been claimed\n    function userNameTaken(string userName) public view returns (bool taken) {\n        bytes32 userNameHash = keccak256(userName);\n        return userDirectory[userNameHash]._initialized;\n    }\n\n    // Indicates whether a given application name has been claimed for official and unofficial applications\n    function applicationNameTaken(string applicationName)\n        public\n        view\n        returns (bool officialTaken, bool unofficialTaken)\n    {\n        bytes32 applicationNameHash = keccak256(applicationName);\n        return (\n            officialApplicationDirectory[applicationNameHash]._initialized,\n            unofficialApplicationDirectory[applicationNameHash]._initialized\n        );\n    }\n\n    // Returns user details by user name\n    function getUserByName(string userName) public view returns (address userAddress, bool official) {\n        bytes32 userNameHash = keccak256(userName);\n        require(userNameHashTaken(userNameHash));\n        User storage _user = userDirectory[userNameHash];\n\n        return (_user.userAddress, _user.official);\n    }\n\n    // Checks whether the provided (v, r, s) signature was created by the private key associated with _address\n    function isSigned(address _address, bytes32 messageHash, uint8 v, bytes32 r, bytes32 s) public pure returns (bool) {\n        return ecrecover(messageHash, v, r, s) == _address;\n    }\n\n    // Common internal logic for all user signups\n    function _userSignUp(string userName, address userAddress, bool official) internal {\n        bytes32 userNameHash = keccak256(userName);\n        require(!userNameHashTaken(userNameHash));\n        userDirectory[userNameHash] = User(userName, userAddress, official, true);\n\n        emit UserSignUp(userName, userAddress, official);\n    }\n\n    // Internal check for whether a user name has been taken\n    function userNameHashTaken(bytes32 userNameHash) internal view returns (bool) {\n        return userDirectory[userNameHash]._initialized;\n    }\n\n    // Internal check for whether an application name has been taken\n    function applicationNameHashTaken(bytes32 applicationNameHash, bool official) internal view returns (bool) {\n        if (official) {\n            return officialApplicationDirectory[applicationNameHash]._initialized;\n        } else {\n            return unofficialApplicationDirectory[applicationNameHash]._initialized;\n        }\n    }\n}\n",
  "sourcePath": "/Users/noahzinsmeister/Documents/github/smart-contracts/raindrop-client/contracts/RaindropClient.sol",
  "compiler": {
    "name": "solc",
    "version": "0.4.21+commit.dfe3193c.Emscripten.clang"
  },
  "schemaVersion": "2.0.0",
  "updatedAt": "2018-04-02T14:02:28.531Z"
}