{
	"data": {
		"bytecode": {
			"linkReferences": {},
			"object": "6080604052620151806009553480156200001857600080fd5b506040516200522338038062005223833981810160405260408110156200003e57600080fd5b508051602090910151600080546001600160a01b03191633178082556040516001600160a01b039190911691907f8be0079c531659141344cd1fd0a4f28419497f9722a3daafe3b4186f6b6457e0908290a3620000a582826001600160e01b03620000ad16565b50506200012c565b620000c06001600160e01b036200011b16565b620000ca57600080fd5b600380546001600160a01b03199081166001600160a01b0394851617918290556004805492851692821692909217909155600580548216928416929092179182905560068054929093169116179055565b6000546001600160a01b0316331490565b6150e7806200013c6000396000f3fe608060405234801561001057600080fd5b50600436106102065760003560e01c80638da5cb5b1161011a578063a759ee6f116100ad578063edda78151161007c578063edda7815146111a0578063ef11f9da146111d2578063efd96fbf146111fe578063f2fde38b146112d9578063fe89e396146112ff57610206565b8063a759ee6f1461108d578063b02c43d014611095578063badcfbcf146110b2578063c94dbd33146110de57610206565b80639675932e116100e95780639675932e14610d135780639cd5421014610dcc5780639d10bb3214610e91578063a3e9ec7314610f4c57610206565b80638da5cb5b14610bfe5780638f32d59b14610c065780638f4ffcb114610c2257806390107afe14610ce557610206565b80635437b67c1161019d578063715018a61161016c578063715018a614610a2157806375d7e4bd14610a29578063856b414e14610a3157806385b118aa14610a5757806387d6203814610b3757610206565b80635437b67c146105ca5780635a967ea5146105d2578063659ab4c3146107265780636be4d9b0146108fe57610206565b806327a0b6d8116101d957806327a0b6d8146103d45780633b6da765146104195780633e63dcc11461043c57806349a79a501461050557610206565b806309164f9c1461020b57806312f1dbc81461023657806313954647146102655780631dfc99c4146103b0575b600080fd5b6102346004803603606081101561022157600080fd5b50803590602081013590604001356113c4565b005b6102536004803603602081101561024c57600080fd5b503561140a565b60408051918252519081900360200190f35b61033b600480360360e081101561027b57600080fd5b6001600160a01b0382351691602081013591810190606081016040820135600160201b8111156102aa57600080fd5b8201836020820111156102bc57600080fd5b803590602001918460018302840111600160201b831117156102dd57600080fd5b91908080601f016020809104026020016040519081016040528093929190818152602001838380828437600092019190915250929550506001600160a01b0383351693505060ff60208301351691604081013591506060013561141c565b6040805160208082528351818301528351919283929083019185019080838360005b8381101561037557818101518382015260200161035d565b50505050905090810190601f1680156103a25780820380516001836020036101000a031916815260200191505b509250505060405180910390f35b6103b86114e0565b604080516001600160a01b039092168252519081900360200190f35b610234600480360360a08110156103ea57600080fd5b506001600160a01b03813581169160208101359091169060ff60408201351690606081013590608001356114ef565b6102346004803603604081101561042f57600080fd5b5080359060200135611768565b610234600480360360a081101561045257600080fd5b8135916001600160a01b03602082013581169260408301359091169160608101359181019060a081016080820135600160201b81111561049157600080fd5b8201836020820111156104a357600080fd5b803590602001918460018302840111600160201b831117156104c457600080fd5b91908080601f0160208091040260200160405190810160405280939291908181526020018383808284376000920191909152509295506117f0945050505050565b610234600480360360c081101561051b57600080fd5b6001600160a01b038235169190810190604081016020820135600160201b81111561054557600080fd5b82018360208201111561055757600080fd5b803590602001918460208302840111600160201b8311171561057857600080fd5b9190808060200260200160405190810160405280939291908181526020018383602002808284376000920191909152509295505060ff833516935050506020810135906040810135906060013561194c565b610253611c67565b61025360048036036101008110156105e957600080fd5b6001600160a01b038235811692602081013590911691810190606081016040820135600160201b81111561061c57600080fd5b82018360208201111561062e57600080fd5b803590602001918460208302840111600160201b8311171561064f57600080fd5b9190808060200260200160405190810160405280939291908181526020018383602002808284376000920191909152509295949360208101935035915050600160201b81111561069e57600080fd5b8201836020820111156106b057600080fd5b803590602001918460018302840111600160201b831117156106d157600080fd5b91908080601f0160208091040260200160405190810160405280939291908181526020018383808284376000920191909152509295505060ff8335169350505060208101359060408101359060600135611c6d565b610234600480360361016081101561073d57600080fd5b6001600160a01b038235169190810190604081016020820135600160201b81111561076757600080fd5b82018360208201111561077957600080fd5b803590602001918460208302840111600160201b8311171561079a57600080fd5b9190808060200260200160405190810160405280939291908181526020018383602002808284376000920191909152509295949360208101935035915050600160201b8111156107e957600080fd5b8201836020820111156107fb57600080fd5b803590602001918460208302840111600160201b8311171561081c57600080fd5b919080806020026020016040519081016040528093929190818152602001838360200280828437600092019190915250506040805180820182529396959481810194935091506002908390839080828437600092019190915250506040805180820182529295949381810193925090600290839083908082843760009201919091525050604080518082018252929594938181019392509060029083908390808284376000920191909152505060408051808201825292959493818101939250906002908390839080828437600092019190915250919450611f589350505050565b6102346004803603604081101561091457600080fd5b810190602081018135600160201b81111561092e57600080fd5b82018360208201111561094057600080fd5b803590602001918460208302840111600160201b8311171561096157600080fd5b9190808060200260200160405190810160405280939291908181526020018383602002808284376000920191909152509295949360208101935035915050600160201b8111156109b057600080fd5b8201836020820111156109c257600080fd5b803590602001918460208302840111600160201b831117156109e357600080fd5b9190808060200260200160405190810160405280939291908181526020018383602002808284376000920191909152509295506120f9945050505050565b610234612180565b6103b86121db565b61023460048036036020811015610a4757600080fd5b50356001600160a01b03166121ea565b6102346004803603610120811015610a6e57600080fd5b6001600160a01b038235811692602081013590911691604082013515159160608101359181019060a081016080820135600160201b811115610aaf57600080fd5b820183602082011115610ac157600080fd5b803590602001918460018302840111600160201b83111715610ae257600080fd5b91908080601f0160208091040260200160405190810160405280939291908181526020018383808284376000920191909152509295505060ff833516935050506020810135906040810135906060013561222a565b610234600480360360a0811015610b4d57600080fd5b8135916001600160a01b0360208201351691604082013515159160608101359181019060a081016080820135600160201b811115610b8a57600080fd5b820183602082011115610b9c57600080fd5b803590602001918460018302840111600160201b83111715610bbd57600080fd5b91908080601f0160208091040260200160405190810160405280939291908181526020018383808284376000920191909152509295506122d6945050505050565b6103b86123a1565b610c0e6123b0565b604080519115158252519081900360200190f35b61023460048036036080811015610c3857600080fd5b6001600160a01b038235811692602081013592604082013590921691810190608081016060820135600160201b811115610c7157600080fd5b820183602082011115610c8357600080fd5b803590602001918460018302840111600160201b83111715610ca457600080fd5b91908080601f0160208091040260200160405190810160405280939291908181526020018383808284376000920191909152509295506123c1945050505050565b61023460048036036040811015610cfb57600080fd5b506001600160a01b0381358116916020013516612b8e565b61033b60048036036060811015610d2957600080fd5b6001600160a01b0382351691602081013591810190606081016040820135600160201b811115610d5857600080fd5b820183602082011115610d6a57600080fd5b803590602001918460018302840111600160201b83111715610d8b57600080fd5b91908080601f016020809104026020016040519081016040528093929190818152602001838380828437600092019190915250929550612bf0945050505050565b610234600480360360a0811015610de257600080fd5b8135916001600160a01b036020820135169160408201359160608101359181019060a081016080820135600160201b811115610e1d57600080fd5b820183602082011115610e2f57600080fd5b803590602001918460018302840111600160201b83111715610e5057600080fd5b91908080601f016020809104026020016040519081016040528093929190818152602001838380828437600092019190915250929550612c7e945050505050565b61023460048036036060811015610ea757600080fd5b6001600160a01b03823516916020810135151591810190606081016040820135600160201b811115610ed857600080fd5b820183602082011115610eea57600080fd5b803590602001918460018302840111600160201b83111715610f0b57600080fd5b91908080601f016020809104026020016040519081016040528093929190818152602001838380828437600092019190915250929550612dbf945050505050565b610234600480360360c0811015610f6257600080fd5b6001600160a01b038235169190810190604081016020820135600160201b811115610f8c57600080fd5b820183602082011115610f9e57600080fd5b803590602001918460208302840111600160201b83111715610fbf57600080fd5b9190808060200260200160405190810160405280939291908181526020018383602002808284376000920191909152509295949360208101935035915050600160201b81111561100e57600080fd5b82018360208201111561102057600080fd5b803590602001918460208302840111600160201b8311171561104157600080fd5b9190808060200260200160405190810160405280939291908181526020018383602002808284376000920191909152509295505060ff8335169350505060208101359060400135612e43565b6103b86130b0565b610253600480360360208110156110ab57600080fd5b50356130bf565b610234600480360360408110156110c857600080fd5b506001600160a01b0381351690602001356130d1565b610234600480360360808110156110f457600080fd5b6001600160a01b0382351691602081013515159160408201359190810190608081016060820135600160201b81111561112c57600080fd5b82018360208201111561113e57600080fd5b803590602001918460018302840111600160201b8311171561115f57600080fd5b91908080601f016020809104026020016040519081016040528093929190818152602001838380828437600092019190915250929550613154945050505050565b610234600480360360608110156111b657600080fd5b508035906001600160a01b0360208201351690604001356131d9565b610253600480360360408110156111e857600080fd5b50803590602001356001600160a01b031661321e565b610234600480360361010081101561121557600080fd5b6001600160a01b038235811692602081013590911691604082013515159190810190608081016060820135600160201b81111561125157600080fd5b82018360208201111561126357600080fd5b803590602001918460018302840111600160201b8311171561128457600080fd5b91908080601f0160208091040260200160405190810160405280939291908181526020018383808284376000920191909152509295505060ff833516935050506020810135906040810135906060013561323b565b610234600480360360208110156112ef57600080fd5b50356001600160a01b0316613338565b610234600480360360c081101561131557600080fd5b6001600160a01b038235169190810190604081016020820135600160201b81111561133f57600080fd5b82018360208201111561135157600080fd5b803590602001918460208302840111600160201b8311171561137257600080fd5b9190808060200260200160405190810160405280939291908181526020018383602002808284376000920191909152509295505060ff8335169350505060208101359060408101359060600135613355565b6113ce8382613625565b6113d98383836137e3565b5060405133907f3bd0280dc67bfc5c83998b5eddebb84cb266dd5fea7c8552e43f1c55110e966790600090a2505050565b600a6020526000908152604090205481565b60048054604080516305c62c2f60e01b81526001600160a01b0388811694820194909452905160609360009316916305c62c2f916024808301926020929190829003018186803b15801561146f57600080fd5b505afa158015611483573d6000803e3d6000fd5b505050506040513d602081101561149957600080fd5b50516000818152600a602052604090208054600181019091559091506114c687838c8c8c868c8c8c6139a4565b6114d2828a8c8b613bd9565b9a9950505050505050505050565b6007546001600160a01b031681565b60048054604080516305c62c2f60e01b81526001600160a01b03898116948201949094529051600093909216916305c62c2f91602480820192602092909190829003018186803b15801561154257600080fd5b505afa158015611556573d6000803e3d6000fd5b505050506040513d602081101561156c57600080fd5b50516000818152600a602090815260408083208054600181019091556004549151601960f81b9381018481526021820186905230606081901b602284015296975091956001600160a01b0390931694638677ebe8948d9490939192909189918e918a91603601602c614f358239602c810194909452506bffffffffffffffffffffffff19606092831b16604c840152818301526040805180840390920182526080830180825282516020938401206001600160e01b031960e08b901b169091526001600160a01b0397909716608484015260a483019690965260ff8d1660c483015260e482018c905261010482018b90529451610124808301969550909350908390030190508186803b15801561168257600080fd5b505afa158015611696573d6000803e3d6000fd5b505050506040513d60208110156116ac57600080fd5b50516116f4576040805162461bcd60e51b81526020600482015260126024820152712832b936b4b9b9b4b7b7103232b734b2b21760711b604482015290519081900360640190fd5b6004805460408051632501faa560e01b81529283018590526001600160a01b0389811660248501529051911691632501faa591604480830192600092919082900301818387803b15801561174757600080fd5b505af115801561175b573d6000803e3d6000fd5b5050505050505050505050565b60048054604080516305c62c2f60e01b81523393810193909352516117eb926001600160a01b03909216916305c62c2f916024808301926020929190829003018186803b1580156117b857600080fd5b505afa1580156117cc573d6000803e3d6000fd5b505050506040513d60208110156117e257600080fd5b505183836137e3565b505050565b6117fa8583613625565b611805858584613dfb565b6000849050806001600160a01b0316633aaaa8a033888787876040518663ffffffff1660e01b815260040180866001600160a01b03166001600160a01b03168152602001858152602001846001600160a01b03166001600160a01b0316815260200183815260200180602001828103825283818151815260200191508051906020019080838360005b838110156118a657818101518382015260200161188e565b50505050905090810190601f1680156118d35780820380516001836020036101000a031916815260200191505b509650505050505050600060405180830381600087803b1580156118f657600080fd5b505af115801561190a573d6000803e3d6000fd5b50506040516001600160a01b03871692503391507f4bf145994459e88b08345bbe483ca295ac2305df746c75740dd9d837344a9acf90600090a3505050505050565b808042101580156119605750600954810142105b6119ab576040805162461bcd60e51b81526020600482015260176024820152762a34b6b2b9ba30b6b81034b9903737ba103b30b634b21760491b604482015290519081900360640190fd5b60048054604080516305c62c2f60e01b81526001600160a01b038b8116948201949094529051600093909216916305c62c2f91602480820192602092909190829003018186803b1580156119fe57600080fd5b505afa158015611a12573d6000803e3d6000fd5b505050506040513d6020811015611a2857600080fd5b5051600454604051601960f81b6020820181815260006021840181905230606081901b60228601529596506001600160a01b0390941694638677ebe8948e94909288918f918c91603601603961504b8239603901848152602001838051906020019060200280838360005b83811015611aab578181015183820152602001611a93565b505050509050018281526020019650505050505050604051602081830303815290604052805190602001208989896040518663ffffffff1660e01b815260040180866001600160a01b03166001600160a01b031681526020018581526020018460ff1660ff1681526020018381526020018281526020019550505050505060206040518083038186803b158015611b4157600080fd5b505afa158015611b55573d6000803e3d6000fd5b505050506040513d6020811015611b6b57600080fd5b5051611bb3576040805162461bcd60e51b81526020600482015260126024820152712832b936b4b9b9b4b7b7103232b734b2b21760711b604482015290519081900360640190fd5b600480546040805163960b11f560e01b8152928301848152602484019182528a5160448501528a516001600160a01b039093169363960b11f59386938d939290916064909101906020808601910280838360005b83811015611c1f578181015183820152602001611c07565b505050509050019350505050600060405180830381600087803b158015611c4557600080fd5b505af1158015611c59573d6000803e3d6000fd5b505050505050505050505050565b60095481565b600060608751600101604051908082528060200260200182016040528015611c9f578160200160208202803883390190505b5090503081600081518110611cb057fe5b60200260200101906001600160a01b031690816001600160a01b03168152505060005b8851811015611d1f57888181518110611ce857fe5b6020026020010151828260010181518110611cff57fe5b6001600160a01b0390921660209283029190910190910152600101611cd3565b506004546040805160008082526020820190925290916001600160a01b0316906314fb5646908d908d9086908c8c8c8c6040518963ffffffff1660e01b815260040180896001600160a01b03166001600160a01b03168152602001886001600160a01b03166001600160a01b0316815260200180602001806020018760ff1660ff168152602001868152602001858152602001848152602001838103835289818151815260200191508051906020019060200280838360005b83811015611df0578181015183820152602001611dd8565b50505050905001838103825288818151815260200191508051906020019060200280838360005b83811015611e2f578181015183820152602001611e17565b505050509050019a5050505050505050505050602060405180830381600087803b158015611e5c57600080fd5b505af1158015611e70573d6000803e3d6000fd5b505050506040513d6020811015611e8657600080fd5b810190808051906020019092919050505090506114d281600760009054906101000a90046001600160a01b0316600160008e8d60405160200180836001600160a01b03166001600160a01b0316815260200180602001828103825283818151815260200191508051906020019080838360005b83811015611f11578181015183820152602001611ef9565b50505050905090810190601f168015611f3e5780820380516001836020036101000a031916815260200191505b509350505050604051602081830303815290604052613fd6565b8351835183518351611f72938b938b93919290919061194c565b611f9c87868660016020020151866001602002015186600160200201518660016020020151613355565b60048054604080516305c62c2f60e01b81526001600160a01b038b8116948201949094529051600093909216916305c62c2f91602480820192602092909190829003018186803b158015611fef57600080fd5b505afa158015612003573d6000803e3d6000fd5b505050506040513d602081101561201957600080fd5b5051604080516001600160a01b038b16918101919091526060808252895190820152885191925082917f9395986444296878f4ccc8a3e3a2d2d64a2988fb3cf2fd45fd7abe7449025626918a918a918d9181906020828101916080840191888101910280838360005b8381101561209a578181015183820152602001612082565b50505050905001838103825285818151815260200191508051906020019060200280838360005b838110156120d95781810151838201526020016120c1565b505050509050019550505050505060405180910390a25050505050505050565b60048054604080516305c62c2f60e01b815233938101939093525161217c926001600160a01b03909216916305c62c2f916024808301926020929190829003018186803b15801561214957600080fd5b505afa15801561215d573d6000803e3d6000fd5b505050506040513d602081101561217357600080fd5b5051838361437e565b5050565b6121886123b0565b61219157600080fd5b600080546040516001600160a01b03909116907f8be0079c531659141344cd1fd0a4f28419497f9722a3daafe3b4186f6b6457e0908390a3600080546001600160a01b0319169055565b6005546001600160a01b031681565b6121f26123b0565b6121fb57600080fd5b600780546001600160a01b03199081166001600160a01b03938416179182905560088054929093169116179055565b60048054604080516305c62c2f60e01b81526001600160a01b038d8116948201949094529051600093909216916305c62c2f91602480820192602092909190829003018186803b15801561227d57600080fd5b505afa158015612291573d6000803e3d6000fd5b505050506040513d60208110156122a757600080fd5b505190506122bd8a828b8b8b8b8b8b8b8b614586565b6122ca818a8a8a8a613fd6565b50505050505050505050565b60048054604080516329d4b4c560e11b8152928301889052336024840152516001600160a01b03909116916353a9698a916044808301926020929190829003018186803b15801561232657600080fd5b505afa15801561233a573d6000803e3d6000fd5b505050506040513d602081101561235057600080fd5b505161238d5760405162461bcd60e51b8152600401808060200182810382526033815260200180614ddf6033913960400191505060405180910390fd5b61239a8585858585613fd6565b5050505050565b6000546001600160a01b031690565b6000546001600160a01b0316331490565b336001600160a01b03831614612412576040805162461bcd60e51b815260206004820152601160248201527026b0b63337b936b2b21034b7383aba399760791b604482015290519081900360640190fd5b6005546001600160a01b0383811691161461245e5760405162461bcd60e51b815260040180806020018281038252602d815260200180614f61602d913960400191505060405180910390fd5b602081511161270257600654604080516323b872dd60e01b81526001600160a01b03878116600483015230602483015260448201879052915191909216916323b872dd9160648083019260209291908290030181600087803b1580156124c357600080fd5b505af11580156124d7573d6000803e3d6000fd5b505050506040513d60208110156124ed57600080fd5b505161252a5760405162461bcd60e51b8152600401808060200182810382526023815260200180614fcb6023913960400191505060405180910390fd5b60006020825110156125ba5760048054604080516305c62c2f60e01b81526001600160a01b0389811694820194909452905192909116916305c62c2f91602480820192602092909190829003018186803b15801561258757600080fd5b505afa15801561259b573d6000803e3d6000fd5b505050506040513d60208110156125b157600080fd5b50519050612684565b8180602001905160208110156125cf57600080fd5b50516004805460408051632dad769d60e11b8152928301849052519293506001600160a01b031691635b5aed3a91602480820192602092909190829003018186803b15801561261d57600080fd5b505afa158015612631573d6000803e3d6000fd5b505050506040513d602081101561264757600080fd5b50516126845760405162461bcd60e51b8152600401808060200182810382526021815260200180614dbe6021913960400191505060405180910390fd5b6000818152600160205260409020546126a3908563ffffffff61480116565b600160008381526020019081526020016000208190555080856001600160a01b03167fc03bd73422f0f423555852c3018d2296bec6c3fb71372de56d3ce8f5984d6812866040518082815260200191505060405180910390a350612b88565b60008060008060608580602001905160a081101561271f57600080fd5b8151602083015160408085015160608601516080870180519351959794969295919491939282019284600160201b82111561275957600080fd5b90830190602082018581111561276e57600080fd5b8251600160201b81118282018810171561278757600080fd5b82525081516020918201929091019080838360005b838110156127b457818101518382015260200161279c565b50505050905090810190601f1680156127e15780820380516001836020036101000a031916815260200191505b5060405250505094509450945094509450600660009054906101000a90046001600160a01b03166001600160a01b03166323b872dd8a858b6040518463ffffffff1660e01b815260040180846001600160a01b03166001600160a01b03168152602001836001600160a01b03166001600160a01b031681526020018281526020019350505050602060405180830381600087803b15801561288157600080fd5b505af1158015612895573d6000803e3d6000fd5b505050506040513d60208110156128ab57600080fd5b50516128e85760405162461bcd60e51b8152600401808060200182810382526023815260200180614fcb6023913960400191505060405180910390fd5b828515612a2a57806001600160a01b0316633c72e43986858c866040518563ffffffff1660e01b815260040180856001600160a01b03166001600160a01b0316815260200184815260200183815260200180602001828103825283818151815260200191508051906020019080838360005b8381101561297257818101518382015260200161295a565b50505050905090810190601f16801561299f5780820380516001836020036101000a031916815260200191505b5095505050505050600060405180830381600087803b1580156129c157600080fd5b505af11580156129d5573d6000803e3d6000fd5b5050505082846001600160a01b0316866001600160a01b03167fedb6770cb1ac0722d4ee53b473075a9d9d9ada0726d38bfc29d7cefb278a6b508c6040518082815260200191505060405180910390a46122ca565b6000839050816001600160a01b031663e5a1309287838d876040518563ffffffff1660e01b815260040180856001600160a01b03166001600160a01b03168152602001846001600160a01b03166001600160a01b0316815260200183815260200180602001828103825283818151815260200191508051906020019080838360005b83811015612ac4578181015183820152602001612aac565b50505050905090810190601f168015612af15780820380516001836020036101000a031916815260200191505b5095505050505050600060405180830381600087803b158015612b1357600080fd5b505af1158015612b27573d6000803e3d6000fd5b50505050836001600160a01b0316856001600160a01b0316876001600160a01b03167f0c00f14cabae1f33bca7bd1a7510da7d1188463c014549b4817ece9db32ce67d8d6040518082815260200191505060405180910390a4505050505050505b50505050565b612b966123b0565b612b9f57600080fd5b600380546001600160a01b03199081166001600160a01b0394851617918290556004805492851692821692909217909155600580548216928416929092179182905560068054929093169116179055565b60048054604080516305c62c2f60e01b8152339381019390935251606092612c76926001600160a01b0316916305c62c2f91602480820192602092909190829003018186803b158015612c4257600080fd5b505afa158015612c56573d6000803e3d6000fd5b505050506040513d6020811015612c6c57600080fd5b5051848685613bd9565b949350505050565b612c888583613625565b612c93858584613dfb565b6000849050806001600160a01b0316631c75edfe33888787876040518663ffffffff1660e01b815260040180866001600160a01b03166001600160a01b0316815260200185815260200184815260200183815260200180602001828103825283818151815260200191508051906020019080838360005b83811015612d22578181015183820152602001612d0a565b50505050905090810190601f168015612d4f5780820380516001836020036101000a031916815260200191505b509650505050505050600060405180830381600087803b158015612d7257600080fd5b505af1158015612d86573d6000803e3d6000fd5b50506040518692503391507f1dd3c359182056ab5063bcdbab2346601270459beb53cabcbd39ca79f050336890600090a3505050505050565b60048054604080516305c62c2f60e01b81523393810193909352516117eb926001600160a01b03909216916305c62c2f916024808301926020929190829003018186803b158015612e0f57600080fd5b505afa158015612e23573d6000803e3d6000fd5b505050506040513d6020811015612e3957600080fd5b505184848461481a565b60048054604080516305c62c2f60e01b81526001600160a01b038a8116948201949094529051600093909216916305c62c2f91602480820192602092909190829003018186803b158015612e9657600080fd5b505afa158015612eaa573d6000803e3d6000fd5b505050506040513d6020811015612ec057600080fd5b50516000818152600a602090815260408083208054600181019091556004549151601960f81b9381018481526021820186905230606081901b602284015296975091956001600160a01b0390931694638677ebe8948e9490939192909189918f918f918b9190603601602f6150848239602f01858152602001848051906020019060200280838360005b83811015612f62578181015183820152602001612f4a565b50505050905001838051906020019060200280838360005b83811015612f92578181015183820152602001612f7a565b50505050905001828152602001975050505050505050604051602081830303815290604052805190602001208888886040518663ffffffff1660e01b815260040180866001600160a01b03166001600160a01b031681526020018581526020018460ff1660ff1681526020018381526020018281526020019550505050505060206040518083038186803b15801561302957600080fd5b505afa15801561303d573d6000803e3d6000fd5b505050506040513d602081101561305357600080fd5b505161309b576040805162461bcd60e51b81526020600482015260126024820152712832b936b4b9b9b4b7b7103232b734b2b21760711b604482015290519081900360640190fd5b6130a682888861437e565b5050505050505050565b6003546001600160a01b031681565b60016020526000908152604090205481565b60048054604080516305c62c2f60e01b815233938101939093525161217c926001600160a01b03909216916305c62c2f916024808301926020929190829003018186803b15801561312157600080fd5b505afa158015613135573d6000803e3d6000fd5b505050506040513d602081101561314b57600080fd5b50518383613dfb565b60048054604080516305c62c2f60e01b8152339381019390935251612b88926001600160a01b03909216916305c62c2f916024808301926020929190829003018186803b1580156131a457600080fd5b505afa1580156131b8573d6000803e3d6000fd5b505050506040513d60208110156131ce57600080fd5b505185858585613fd6565b6131e38382613625565b6131ee838383613dfb565b60405133907f8262975dcca6e765bc0c030d671a00379895d3f60ab5f0033ca4aa088074646b90600090a2505050565b600260209081526000928352604080842090915290825290205481565b8080421015801561324f5750600954810142105b61329a576040805162461bcd60e51b81526020600482015260176024820152762a34b6b2b9ba30b6b81034b9903737ba103b30b634b21760491b604482015290519081900360640190fd5b60048054604080516305c62c2f60e01b81526001600160a01b038d8116948201949094529051600093909216916305c62c2f91602480820192602092909190829003018186803b1580156132ed57600080fd5b505afa158015613301573d6000803e3d6000fd5b505050506040513d602081101561331757600080fd5b5051905061332c8a828b8b8b8b8b8b8b614bab565b6122ca818a8a8a61481a565b6133406123b0565b61334957600080fd5b61335281614d09565b50565b808042101580156133695750600954810142105b6133b4576040805162461bcd60e51b81526020600482015260176024820152762a34b6b2b9ba30b6b81034b9903737ba103b30b634b21760491b604482015290519081900360640190fd5b60048054604080516305c62c2f60e01b81526001600160a01b038b8116948201949094529051600093909216916305c62c2f91602480820192602092909190829003018186803b15801561340757600080fd5b505afa15801561341b573d6000803e3d6000fd5b505050506040513d602081101561343157600080fd5b5051600454604051601960f81b6020820181815260006021840181905230606081901b60228601529596506001600160a01b0390941694638677ebe8948e94909288918f918c91603601603d614f8e8239603d01848152602001838051906020019060200280838360005b838110156134b457818101518382015260200161349c565b505050509050018281526020019650505050505050604051602081830303815290604052805190602001208989896040518663ffffffff1660e01b815260040180866001600160a01b03166001600160a01b031681526020018581526020018460ff1660ff1681526020018381526020018281526020019550505050505060206040518083038186803b15801561354a57600080fd5b505afa15801561355e573d6000803e3d6000fd5b505050506040513d602081101561357457600080fd5b50516135bc576040805162461bcd60e51b81526020600482015260126024820152712832b936b4b9b9b4b7b7103232b734b2b21760711b604482015290519081900360640190fd5b60048054604080516303649e1b60e11b8152928301848152602484019182528a5160448501528a516001600160a01b03909316936306c93c369386938d939290916064909101906020808601910280838360008315611c1f578181015183820152602001611c07565b600480546040805163352c737360e21b8152928301859052336024840152516001600160a01b039091169163d4b1cdcc916044808301926020929190829003018186803b15801561367557600080fd5b505afa158015613689573d6000803e3d6000fd5b505050506040513d602081101561369f57600080fd5b50516136dc5760405162461bcd60e51b815260040180806020018281038252602e815260200180614e12602e913960400191505060405180910390fd5b60008281526002602090815260408083203384529091529020548111156137985760008281526002602090815260408083203380855290835292819020548151908152918201849052805185927fe8197a2184c184c738bfd08f3ee78a377cde69118a3d580480d00a9208d6bdf392908290030190a36040805162461bcd60e51b8152602060048201526016602482015275496e73756666696369656e7420416c6c6f77616e636560501b604482015290519081900360640190fd5b60008281526002602090815260408083203384529091529020546137c2908263ffffffff614d7716565b60009283526002602090815260408085203386529091529092209190915550565b6004805460408051632dad769d60e11b815292830185905251600092859260019283926001600160a01b0390921691635b5aed3a916024808301926020929190829003018186803b15801561383757600080fd5b505afa15801561384b573d6000803e3d6000fd5b505050506040513d602081101561386157600080fd5b50511515146138b7576040805162461bcd60e51b815260206004820152601760248201527f5468652045494e20646f6573206e6f742065786973742e000000000000000000604482015290519081900360640190fd5b6000868152600160205260409020548411156139045760405162461bcd60e51b8152600401808060200182810382526036815260200180614fee6036913960400191505060405180910390fd5b600086815260016020526040902054613923908563ffffffff614d7716565b60008781526001602052604080822092909255868152205461394b908563ffffffff61480116565b600160008781526020019081526020016000208190555084867ffc1e758cdfd0000672c8f8e0557fdae32b207ab6040726e3e91a363ac1ea234a866040518082815260200191505060405180910390a350509392505050565b600460009054906101000a90046001600160a01b03166001600160a01b0316638677ebe88a601960f81b600060f81b308d8d8d8d8d60405160200180896001600160f81b0319166001600160f81b0319168152600101886001600160f81b0319166001600160f81b0319168152600101876001600160a01b03166001600160a01b031660601b8152601401807f4920617574686f72697a65207468697320616c6c6f7720616e642063616c6c2e815250602001868152602001856001600160a01b03166001600160a01b031660601b815260140184815260200183805190602001908083835b60208310613aa95780518252601f199092019160209182019101613a8a565b6001836020036101000a03801982511681845116808217855250505050505090500182815260200198505050505050505050604051602081830303815290604052805190602001208686866040518663ffffffff1660e01b815260040180866001600160a01b03166001600160a01b031681526020018581526020018460ff1660ff1681526020018381526020018281526020019550505050505060206040518083038186803b158015613b5c57600080fd5b505afa158015613b70573d6000803e3d6000fd5b505050506040513d6020811015613b8657600080fd5b5051613bce576040805162461bcd60e51b81526020600482015260126024820152712832b936b4b9b9b4b7b7103232b734b2b21760711b604482015290519081900360640190fd5b505050505050505050565b600480546040805163352c737360e21b81529283018790526001600160a01b0385811660248501529051606093919092169163d4b1cdcc91604480820192602092909190829003018186803b158015613c3157600080fd5b505afa158015613c45573d6000803e3d6000fd5b505050506040513d6020811015613c5b57600080fd5b5051613c985760405162461bcd60e51b8152600401808060200182810382526031815260200180614d8d6031913960400191505060405180910390fd5b8315613cf55760008581526002602090815260408083206001600160a01b0387168452909152902054613cd1908563ffffffff61480116565b60008681526002602090815260408083206001600160a01b03881684529091529020555b60006060846001600160a01b0316846040518082805190602001908083835b60208310613d335780518252601f199092019160209182019101613d14565b6001836020036101000a0380198251168184511680821785525050505050509050019150506000604051808303816000865af19150503d8060008114613d95576040519150601f19603f3d011682016040523d82523d6000602084013e613d9a565b606091505b509150915081613df1576040805162461bcd60e51b815260206004820152601860248201527f43616c6c20776173206e6f74207375636365737366756c2e0000000000000000604482015290519081900360640190fd5b9695505050505050565b6001600160a01b038216301415613e435760405162461bcd60e51b8152600401808060200182810382526037815260200180614e406037913960400191505060405180910390fd5b600083815260016020526040902054811115613e905760405162461bcd60e51b8152600401808060200182810382526036815260200180614fee6036913960400191505060405180910390fd5b600083815260016020526040902054613eaf908263ffffffff614d7716565b600084815260016020908152604080832093909355600654835163a9059cbb60e01b81526001600160a01b038781166004830152602482018790529451949091169363a9059cbb93604480840194938390030190829087803b158015613f1457600080fd5b505af1158015613f28573d6000803e3d6000fd5b505050506040513d6020811015613f3e57600080fd5b5051613f91576040805162461bcd60e51b815260206004820152601960248201527f5472616e736665722077617320756e7375636365737366756c00000000000000604482015290519081900360640190fd5b6040805182815290516001600160a01b0384169185917faaa7de357803e36044e97c4f0d438a72b371380bff06b41e9b921b8f61cb489e9181900360200190a3505050565b600480546040805163352c737360e21b81529283018890526001600160a01b038781166024850152905191169163d4b1cdcc916044808301926020929190829003018186803b15801561402857600080fd5b505afa15801561403c573d6000803e3d6000fd5b505050506040513d602081101561405257600080fd5b5051156140905760405162461bcd60e51b8152600401808060200182810382526027815260200180614f0e6027913960400191505060405180910390fd5b6040805160018082528183019092526060916020808301908038833901905050905084816000815181106140c057fe5b6001600160a01b039283166020918202929092018101919091526004805460408051624221f760e21b81529283018b815260248401918252865160448501528651929095169463010887dc948c948894929392606490910191858101910280838360005b8381101561413c578181015183820152602001614124565b505050509050019350505050600060405180830381600087803b15801561416257600080fd5b505af1158015614176573d6000803e3d6000fd5b5050505083156143765760008681526002602090815260408083206001600160a01b038916808552908352928190208690558051637179025160e01b8152905188939263717902519260048082019391829003018186803b1580156141da57600080fd5b505afa1580156141ee573d6000803e3d6000fd5b505050506040513d602081101561420457600080fd5b50511561433457604051630242febd60e61b815260048101888152602482018690526060604483019081528551606484015285516001600160a01b038516936390bfaf40938c938a938a9360840190602085019080838360005b8381101561427657818101518382015260200161425e565b50505050905090810190601f1680156142a35780820380516001836020036101000a031916815260200191505b50945050505050602060405180830381600087803b1580156142c457600080fd5b505af11580156142d8573d6000803e3d6000fd5b505050506040513d60208110156142ee57600080fd5b5051614334576040805162461bcd60e51b815260206004820152601060248201526f29b4b3b7103ab8103330b4b63ab9329760811b604482015290519081900360640190fd5b6040805185815290516001600160a01b0388169189917fa5a2dcb81990508894586bccd9070af644f5b33c720292251377ad26fc26b8809181900360200190a3505b505050505050565b80518251146143c8576040805162461bcd60e51b815260206004820152601160248201527026b0b63337b936b2b21034b7383aba399760791b604482015290519081900360640190fd5b60005b8251811015612b885760045483516001600160a01b039091169063d4b1cdcc9086908690859081106143f957fe5b60200260200101516040518363ffffffff1660e01b815260040180838152602001826001600160a01b03166001600160a01b031681526020019250505060206040518083038186803b15801561444e57600080fd5b505afa158015614462573d6000803e3d6000fd5b505050506040513d602081101561447857600080fd5b50516144b55760405162461bcd60e51b8152600401808060200182810382526023815260200180614e776023913960400191505060405180910390fd5b8181815181106144c157fe5b60200260200101516002600086815260200190815260200160002060008584815181106144ea57fe5b60200260200101516001600160a01b03166001600160a01b031681526020019081526020016000208190555082818151811061452257fe5b60200260200101516001600160a01b0316847ffb55528a8074c988c79fef57f3a73aebf780773d5152d785bbaf700c9e3532d384848151811061456157fe5b60200260200101516040518082815260200191505060405180910390a36001016143cb565b8080421015801561459a5750600954810142105b6145e5576040805162461bcd60e51b81526020600482015260176024820152762a34b6b2b9ba30b6b81034b9903737ba103b30b634b21760491b604482015290519081900360640190fd5b600460009054906101000a90046001600160a01b03166001600160a01b0316638677ebe88c601960f81b600060f81b308f8f8f8f8f8c604051602001808a6001600160f81b0319166001600160f81b0319168152600101896001600160f81b0319166001600160f81b0319168152600101886001600160a01b03166001600160a01b031660601b815260140180614ed760379139603701878152602001866001600160a01b03166001600160a01b031660601b8152601401851515151560f81b815260010184815260200183805190602001908083835b602083106146db5780518252601f1990920191602091820191016146bc565b6001836020036101000a0380198251168184511680821785525050505050509050018281526020019950505050505050505050604051602081830303815290604052805190602001208888886040518663ffffffff1660e01b815260040180866001600160a01b03166001600160a01b031681526020018581526020018460ff1660ff1681526020018381526020018281526020019550505050505060206040518083038186803b15801561478f57600080fd5b505afa1580156147a3573d6000803e3d6000fd5b505050506040513d60208110156147b957600080fd5b505161175b576040805162461bcd60e51b81526020600482015260126024820152712832b936b4b9b9b4b7b7103232b734b2b21760711b604482015290519081900360640190fd5b60008282018381101561481357600080fd5b9392505050565b600480546040805163352c737360e21b81529283018790526001600160a01b038681166024850152905191169163d4b1cdcc916044808301926020929190829003018186803b15801561486c57600080fd5b505afa158015614880573d6000803e3d6000fd5b505050506040513d602081101561489657600080fd5b50516148d35760405162461bcd60e51b81526004018080602001828103825260278152602001806150246027913960400191505060405180910390fd5b60008481526002602090815260408083206001600160a01b03871684529091528120558115614ac4576000839050806001600160a01b0316638f06492d6040518163ffffffff1660e01b815260040160206040518083038186803b15801561493a57600080fd5b505afa15801561494e573d6000803e3d6000fd5b505050506040513d602081101561496457600080fd5b505115614a8c57604080516348c1310d60e11b815260048101878152602482019283528451604483015284516001600160a01b03851693639182621a938a93889390929160640190602085019080838360005b838110156149cf5781810151838201526020016149b7565b50505050905090810190601f1680156149fc5780820380516001836020036101000a031916815260200191505b509350505050602060405180830381600087803b158015614a1c57600080fd5b505af1158015614a30573d6000803e3d6000fd5b505050506040513d6020811015614a4657600080fd5b5051614a8c576040805162461bcd60e51b815260206004820152601060248201526f2932b6b7bb30b6103330b4b63ab9329760811b604482015290519081900360640190fd5b6040516001600160a01b0385169086907fd1b5265e776cc74b7c19e1f79f0eb431189105741c07f3bb870f17ce3ba4aed890600090a3505b604080516001808252818301909252606091602080830190803883390190505090508381600081518110614af457fe5b6001600160a01b0392831660209182029290920181019190915260048054604080516302b937b360e51b81529283018a8152602484019182528651604485015286519290951694635726f660948b948894929392606490910191858101910280838360005b83811015614b71578181015183820152602001614b59565b505050509050019350505050600060405180830381600087803b158015614b9757600080fd5b505af1158015613bce573d6000803e3d6000fd5b600454604051601960f81b6020820181815260006021840181905230606081901b60228601526001600160a01b0390951694638677ebe8948f94938f918f918f918f918c91603601603d614e9a8239603d01868152602001856001600160a01b03166001600160a01b031660601b8152601401841515151560f81b815260010183805190602001908083835b60208310614c565780518252601f199092019160209182019101614c37565b6001836020036101000a03801982511681845116808217855250505050505090500182815260200198505050505050505050604051602081830303815290604052805190602001208787876040518663ffffffff1660e01b815260040180866001600160a01b03166001600160a01b031681526020018581526020018460ff1660ff1681526020018381526020018281526020019550505050505060206040518083038186803b158015613b5c57600080fd5b6001600160a01b038116614d1c57600080fd5b600080546040516001600160a01b03808516939216917f8be0079c531659141344cd1fd0a4f28419497f9722a3daafe3b4186f6b6457e091a3600080546001600160a01b0319166001600160a01b0392909216919091179055565b600082821115614d8657600080fd5b5090039056fe44657374696e6174696f6e20686173206e6f74206265656e207365742062792066726f6d20746f6b656e686f6c6465722e54686520726563697069656e742045494e20646f6573206e6f742065786973742e546865206d73672e73656e646572206973206e6f7420612050726f766964657220666f7220746865207061737365642045494e5265736f6c76657220686173206e6f74206265656e207365742062792066726f6d20746f6b656e686f6c6465722e43616e6e6f74207472616e7366657220746f2074686520536e6f77666c616b6520736d61727420636f6e747261637420697473656c662e4964656e7469747920686173206e6f74207365742074686973207265736f6c7665722e4920617574686f72697a652074686174207468657365205265736f6c766572732062652072656d6f7665642066726f6d206d79204964656e746974792e4920617574686f72697a6520746861742074686973207265736f6c76657220626520616464656420746f206d79204964656e746974792e4964656e746974792068617320616c7265616479207365742074686973207265736f6c7665722e4920617574686f72697a652074686973206368616e6765206f66205265636f7665727920416464726573732e53656e646572206973206e6f742074686520485944524f20746f6b656e20736d61727420636f6e74726163742e4920617574686f72697a6520746861742074686573652050726f7669646572732062652072656d6f7665642066726f6d206d79204964656e746974792e556e61626c6520746f207472616e7366657220746f6b656e206f776e6572736869702e43616e6e6f74207769746864726177206d6f7265207468616e207468652063757272656e74206465706f7369742062616c616e63652e4964656e7469747920686173206e6f7420796574207365742074686973207265736f6c7665722e4920617574686f72697a6520746861742074686573652050726f76696465727320626520616464656420746f206d79204964656e746974792e4920617574686f72697a652074686973206368616e676520696e205265736f6c76657220616c6c6f77616e6365732ea265627a7a72315820d0297f4690ce41b0d22d3d2534f958ab639a3d761b419591e9ae987158bbcb9564736f6c63430005100032",
			"opcodes": "PUSH1 0x80 PUSH1 0x40 MSTORE PUSH3 0x15180 PUSH1 0x9 SSTORE CALLVALUE DUP1 ISZERO PUSH3 0x18 JUMPI PUSH1 0x0 DUP1 REVERT JUMPDEST POP PUSH1 0x40 MLOAD PUSH3 0x5223 CODESIZE SUB DUP1 PUSH3 0x5223 DUP4 CODECOPY DUP2 DUP2 ADD PUSH1 0x40 MSTORE PUSH1 0x40 DUP2 LT ISZERO PUSH3 0x3E JUMPI PUSH1 0x0 DUP1 REVERT JUMPDEST POP DUP1 MLOAD PUSH1 0x20 SWAP1 SWAP2 ADD MLOAD PUSH1 0x0 DUP1 SLOAD PUSH1 0x1 PUSH1 0x1 PUSH1 0xA0 SHL SUB NOT AND CALLER OR DUP1 DUP3 SSTORE PUSH1 0x40 MLOAD PUSH1 0x1 PUSH1 0x1 PUSH1 0xA0 SHL SUB SWAP2 SWAP1 SWAP2 AND SWAP2 SWAP1 PUSH32 0x8BE0079C531659141344CD1FD0A4F28419497F9722A3DAAFE3B4186F6B6457E0 SWAP1 DUP3 SWAP1 LOG3 PUSH3 0xA5 DUP3 DUP3 PUSH1 0x1 PUSH1 0x1 PUSH1 0xE0 SHL SUB PUSH3 0xAD AND JUMP JUMPDEST POP POP PUSH3 0x12C JUMP JUMPDEST PUSH3 0xC0 PUSH1 0x1 PUSH1 0x1 PUSH1 0xE0 SHL SUB PUSH3 0x11B AND JUMP JUMPDEST PUSH3 0xCA JUMPI PUSH1 0x0 DUP1 REVERT JUMPDEST PUSH1 0x3 DUP1 SLOAD PUSH1 0x1 PUSH1 0x1 PUSH1 0xA0 SHL SUB NOT SWAP1 DUP2 AND PUSH1 0x1 PUSH1 0x1 PUSH1 0xA0 SHL SUB SWAP5 DUP6 AND OR SWAP2 DUP3 SWAP1 SSTORE PUSH1 0x4 DUP1 SLOAD SWAP3 DUP6 AND SWAP3 DUP3 AND SWAP3 SWAP1 SWAP3 OR SWAP1 SWAP2 SSTORE PUSH1 0x5 DUP1 SLOAD DUP3 AND SWAP3 DUP5 AND SWAP3 SWAP1 SWAP3 OR SWAP2 DUP3 SWAP1 SSTORE PUSH1 0x6 DUP1 SLOAD SWAP3 SWAP1 SWAP4 AND SWAP2 AND OR SWAP1 SSTORE JUMP JUMPDEST PUSH1 0x0 SLOAD PUSH1 0x1 PUSH1 0x1 PUSH1 0xA0 SHL SUB AND CALLER EQ SWAP1 JUMP JUMPDEST PUSH2 0x50E7 DUP1 PUSH3 0x13C PUSH1 0x0 CODECOPY PUSH1 0x0 RETURN INVALID PUSH1 0x80 PUSH1 0x40 MSTORE CALLVALUE DUP1 ISZERO PUSH2 0x10 JUMPI PUSH1 0x0 DUP1 REVERT JUMPDEST POP PUSH1 0x4 CALLDATASIZE LT PUSH2 0x206 JUMPI PUSH1 0x0 CALLDATALOAD PUSH1 0xE0 SHR DUP1 PUSH4 0x8DA5CB5B GT PUSH2 0x11A JUMPI DUP1 PUSH4 0xA759EE6F GT PUSH2 0xAD JUMPI DUP1 PUSH4 0xEDDA7815 GT PUSH2 0x7C JUMPI DUP1 PUSH4 0xEDDA7815 EQ PUSH2 0x11A0 JUMPI DUP1 PUSH4 0xEF11F9DA EQ PUSH2 0x11D2 JUMPI DUP1 PUSH4 0xEFD96FBF EQ PUSH2 0x11FE JUMPI DUP1 PUSH4 0xF2FDE38B EQ PUSH2 0x12D9 JUMPI DUP1 PUSH4 0xFE89E396 EQ PUSH2 0x12FF JUMPI PUSH2 0x206 JUMP JUMPDEST DUP1 PUSH4 0xA759EE6F EQ PUSH2 0x108D JUMPI DUP1 PUSH4 0xB02C43D0 EQ PUSH2 0x1095 JUMPI DUP1 PUSH4 0xBADCFBCF EQ PUSH2 0x10B2 JUMPI DUP1 PUSH4 0xC94DBD33 EQ PUSH2 0x10DE JUMPI PUSH2 0x206 JUMP JUMPDEST DUP1 PUSH4 0x9675932E GT PUSH2 0xE9 JUMPI DUP1 PUSH4 0x9675932E EQ PUSH2 0xD13 JUMPI DUP1 PUSH4 0x9CD54210 EQ PUSH2 0xDCC JUMPI DUP1 PUSH4 0x9D10BB32 EQ PUSH2 0xE91 JUMPI DUP1 PUSH4 0xA3E9EC73 EQ PUSH2 0xF4C JUMPI PUSH2 0x206 JUMP JUMPDEST DUP1 PUSH4 0x8DA5CB5B EQ PUSH2 0xBFE JUMPI DUP1 PUSH4 0x8F32D59B EQ PUSH2 0xC06 JUMPI DUP1 PUSH4 0x8F4FFCB1 EQ PUSH2 0xC22 JUMPI DUP1 PUSH4 0x90107AFE EQ PUSH2 0xCE5 JUMPI PUSH2 0x206 JUMP JUMPDEST DUP1 PUSH4 0x5437B67C GT PUSH2 0x19D JUMPI DUP1 PUSH4 0x715018A6 GT PUSH2 0x16C JUMPI DUP1 PUSH4 0x715018A6 EQ PUSH2 0xA21 JUMPI DUP1 PUSH4 0x75D7E4BD EQ PUSH2 0xA29 JUMPI DUP1 PUSH4 0x856B414E EQ PUSH2 0xA31 JUMPI DUP1 PUSH4 0x85B118AA EQ PUSH2 0xA57 JUMPI DUP1 PUSH4 0x87D62038 EQ PUSH2 0xB37 JUMPI PUSH2 0x206 JUMP JUMPDEST DUP1 PUSH4 0x5437B67C EQ PUSH2 0x5CA JUMPI DUP1 PUSH4 0x5A967EA5 EQ PUSH2 0x5D2 JUMPI DUP1 PUSH4 0x659AB4C3 EQ PUSH2 0x726 JUMPI DUP1 PUSH4 0x6BE4D9B0 EQ PUSH2 0x8FE JUMPI PUSH2 0x206 JUMP JUMPDEST DUP1 PUSH4 0x27A0B6D8 GT PUSH2 0x1D9 JUMPI DUP1 PUSH4 0x27A0B6D8 EQ PUSH2 0x3D4 JUMPI DUP1 PUSH4 0x3B6DA765 EQ PUSH2 0x419 JUMPI DUP1 PUSH4 0x3E63DCC1 EQ PUSH2 0x43C JUMPI DUP1 PUSH4 0x49A79A50 EQ PUSH2 0x505 JUMPI PUSH2 0x206 JUMP JUMPDEST DUP1 PUSH4 0x9164F9C EQ PUSH2 0x20B JUMPI DUP1 PUSH4 0x12F1DBC8 EQ PUSH2 0x236 JUMPI DUP1 PUSH4 0x13954647 EQ PUSH2 0x265 JUMPI DUP1 PUSH4 0x1DFC99C4 EQ PUSH2 0x3B0 JUMPI JUMPDEST PUSH1 0x0 DUP1 REVERT JUMPDEST PUSH2 0x234 PUSH1 0x4 DUP1 CALLDATASIZE SUB PUSH1 0x60 DUP2 LT ISZERO PUSH2 0x221 JUMPI PUSH1 0x0 DUP1 REVERT JUMPDEST POP DUP1 CALLDATALOAD SWAP1 PUSH1 0x20 DUP2 ADD CALLDATALOAD SWAP1 PUSH1 0x40 ADD CALLDATALOAD PUSH2 0x13C4 JUMP JUMPDEST STOP JUMPDEST PUSH2 0x253 PUSH1 0x4 DUP1 CALLDATASIZE SUB PUSH1 0x20 DUP2 LT ISZERO PUSH2 0x24C JUMPI PUSH1 0x0 DUP1 REVERT JUMPDEST POP CALLDATALOAD PUSH2 0x140A JUMP JUMPDEST PUSH1 0x40 DUP1 MLOAD SWAP2 DUP3 MSTORE MLOAD SWAP1 DUP2 SWAP1 SUB PUSH1 0x20 ADD SWAP1 RETURN JUMPDEST PUSH2 0x33B PUSH1 0x4 DUP1 CALLDATASIZE SUB PUSH1 0xE0 DUP2 LT ISZERO PUSH2 0x27B JUMPI PUSH1 0x0 DUP1 REVERT JUMPDEST PUSH1 0x1 PUSH1 0x1 PUSH1 0xA0 SHL SUB DUP3 CALLDATALOAD AND SWAP2 PUSH1 0x20 DUP2 ADD CALLDATALOAD SWAP2 DUP2 ADD SWAP1 PUSH1 0x60 DUP2 ADD PUSH1 0x40 DUP3 ADD CALLDATALOAD PUSH1 0x1 PUSH1 0x20 SHL DUP2 GT ISZERO PUSH2 0x2AA JUMPI PUSH1 0x0 DUP1 REVERT JUMPDEST DUP3 ADD DUP4 PUSH1 0x20 DUP3 ADD GT ISZERO PUSH2 0x2BC JUMPI PUSH1 0x0 DUP1 REVERT JUMPDEST DUP1 CALLDATALOAD SWAP1 PUSH1 0x20 ADD SWAP2 DUP5 PUSH1 0x1 DUP4 MUL DUP5 ADD GT PUSH1 0x1 PUSH1 0x20 SHL DUP4 GT OR ISZERO PUSH2 0x2DD JUMPI PUSH1 0x0 DUP1 REVERT JUMPDEST SWAP2 SWAP1 DUP1 DUP1 PUSH1 0x1F ADD PUSH1 0x20 DUP1 SWAP2 DIV MUL PUSH1 0x20 ADD PUSH1 0x40 MLOAD SWAP1 DUP2 ADD PUSH1 0x40 MSTORE DUP1 SWAP4 SWAP3 SWAP2 SWAP1 DUP2 DUP2 MSTORE PUSH1 0x20 ADD DUP4 DUP4 DUP1 DUP3 DUP5 CALLDATACOPY PUSH1 0x0 SWAP3 ADD SWAP2 SWAP1 SWAP2 MSTORE POP SWAP3 SWAP6 POP POP PUSH1 0x1 PUSH1 0x1 PUSH1 0xA0 SHL SUB DUP4 CALLDATALOAD AND SWAP4 POP POP PUSH1 0xFF PUSH1 0x20 DUP4 ADD CALLDATALOAD AND SWAP2 PUSH1 0x40 DUP2 ADD CALLDATALOAD SWAP2 POP PUSH1 0x60 ADD CALLDATALOAD PUSH2 0x141C JUMP JUMPDEST PUSH1 0x40 DUP1 MLOAD PUSH1 0x20 DUP1 DUP3 MSTORE DUP4 MLOAD DUP2 DUP4 ADD MSTORE DUP4 MLOAD SWAP2 SWAP3 DUP4 SWAP3 SWAP1 DUP4 ADD SWAP2 DUP6 ADD SWAP1 DUP1 DUP4 DUP4 PUSH1 0x0 JUMPDEST DUP4 DUP2 LT ISZERO PUSH2 0x375 JUMPI DUP2 DUP2 ADD MLOAD DUP4 DUP3 ADD MSTORE PUSH1 0x20 ADD PUSH2 0x35D JUMP JUMPDEST POP POP POP POP SWAP1 POP SWAP1 DUP2 ADD SWAP1 PUSH1 0x1F AND DUP1 ISZERO PUSH2 0x3A2 JUMPI DUP1 DUP3 SUB DUP1 MLOAD PUSH1 0x1 DUP4 PUSH1 0x20 SUB PUSH2 0x100 EXP SUB NOT AND DUP2 MSTORE PUSH1 0x20 ADD SWAP2 POP JUMPDEST POP SWAP3 POP POP POP PUSH1 0x40 MLOAD DUP1 SWAP2 SUB SWAP1 RETURN JUMPDEST PUSH2 0x3B8 PUSH2 0x14E0 JUMP JUMPDEST PUSH1 0x40 DUP1 MLOAD PUSH1 0x1 PUSH1 0x1 PUSH1 0xA0 SHL SUB SWAP1 SWAP3 AND DUP3 MSTORE MLOAD SWAP1 DUP2 SWAP1 SUB PUSH1 0x20 ADD SWAP1 RETURN JUMPDEST PUSH2 0x234 PUSH1 0x4 DUP1 CALLDATASIZE SUB PUSH1 0xA0 DUP2 LT ISZERO PUSH2 0x3EA JUMPI PUSH1 0x0 DUP1 REVERT JUMPDEST POP PUSH1 0x1 PUSH1 0x1 PUSH1 0xA0 SHL SUB DUP2 CALLDATALOAD DUP2 AND SWAP2 PUSH1 0x20 DUP2 ADD CALLDATALOAD SWAP1 SWAP2 AND SWAP1 PUSH1 0xFF PUSH1 0x40 DUP3 ADD CALLDATALOAD AND SWAP1 PUSH1 0x60 DUP2 ADD CALLDATALOAD SWAP1 PUSH1 0x80 ADD CALLDATALOAD PUSH2 0x14EF JUMP JUMPDEST PUSH2 0x234 PUSH1 0x4 DUP1 CALLDATASIZE SUB PUSH1 0x40 DUP2 LT ISZERO PUSH2 0x42F JUMPI PUSH1 0x0 DUP1 REVERT JUMPDEST POP DUP1 CALLDATALOAD SWAP1 PUSH1 0x20 ADD CALLDATALOAD PUSH2 0x1768 JUMP JUMPDEST PUSH2 0x234 PUSH1 0x4 DUP1 CALLDATASIZE SUB PUSH1 0xA0 DUP2 LT ISZERO PUSH2 0x452 JUMPI PUSH1 0x0 DUP1 REVERT JUMPDEST DUP2 CALLDATALOAD SWAP2 PUSH1 0x1 PUSH1 0x1 PUSH1 0xA0 SHL SUB PUSH1 0x20 DUP3 ADD CALLDATALOAD DUP2 AND SWAP3 PUSH1 0x40 DUP4 ADD CALLDATALOAD SWAP1 SWAP2 AND SWAP2 PUSH1 0x60 DUP2 ADD CALLDATALOAD SWAP2 DUP2 ADD SWAP1 PUSH1 0xA0 DUP2 ADD PUSH1 0x80 DUP3 ADD CALLDATALOAD PUSH1 0x1 PUSH1 0x20 SHL DUP2 GT ISZERO PUSH2 0x491 JUMPI PUSH1 0x0 DUP1 REVERT JUMPDEST DUP3 ADD DUP4 PUSH1 0x20 DUP3 ADD GT ISZERO PUSH2 0x4A3 JUMPI PUSH1 0x0 DUP1 REVERT JUMPDEST DUP1 CALLDATALOAD SWAP1 PUSH1 0x20 ADD SWAP2 DUP5 PUSH1 0x1 DUP4 MUL DUP5 ADD GT PUSH1 0x1 PUSH1 0x20 SHL DUP4 GT OR ISZERO PUSH2 0x4C4 JUMPI PUSH1 0x0 DUP1 REVERT JUMPDEST SWAP2 SWAP1 DUP1 DUP1 PUSH1 0x1F ADD PUSH1 0x20 DUP1 SWAP2 DIV MUL PUSH1 0x20 ADD PUSH1 0x40 MLOAD SWAP1 DUP2 ADD PUSH1 0x40 MSTORE DUP1 SWAP4 SWAP3 SWAP2 SWAP1 DUP2 DUP2 MSTORE PUSH1 0x20 ADD DUP4 DUP4 DUP1 DUP3 DUP5 CALLDATACOPY PUSH1 0x0 SWAP3 ADD SWAP2 SWAP1 SWAP2 MSTORE POP SWAP3 SWAP6 POP PUSH2 0x17F0 SWAP5 POP POP POP POP POP JUMP JUMPDEST PUSH2 0x234 PUSH1 0x4 DUP1 CALLDATASIZE SUB PUSH1 0xC0 DUP2 LT ISZERO PUSH2 0x51B JUMPI PUSH1 0x0 DUP1 REVERT JUMPDEST PUSH1 0x1 PUSH1 0x1 PUSH1 0xA0 SHL SUB DUP3 CALLDATALOAD AND SWAP2 SWAP1 DUP2 ADD SWAP1 PUSH1 0x40 DUP2 ADD PUSH1 0x20 DUP3 ADD CALLDATALOAD PUSH1 0x1 PUSH1 0x20 SHL DUP2 GT ISZERO PUSH2 0x545 JUMPI PUSH1 0x0 DUP1 REVERT JUMPDEST DUP3 ADD DUP4 PUSH1 0x20 DUP3 ADD GT ISZERO PUSH2 0x557 JUMPI PUSH1 0x0 DUP1 REVERT JUMPDEST DUP1 CALLDATALOAD SWAP1 PUSH1 0x20 ADD SWAP2 DUP5 PUSH1 0x20 DUP4 MUL DUP5 ADD GT PUSH1 0x1 PUSH1 0x20 SHL DUP4 GT OR ISZERO PUSH2 0x578 JUMPI PUSH1 0x0 DUP1 REVERT JUMPDEST SWAP2 SWAP1 DUP1 DUP1 PUSH1 0x20 MUL PUSH1 0x20 ADD PUSH1 0x40 MLOAD SWAP1 DUP2 ADD PUSH1 0x40 MSTORE DUP1 SWAP4 SWAP3 SWAP2 SWAP1 DUP2 DUP2 MSTORE PUSH1 0x20 ADD DUP4 DUP4 PUSH1 0x20 MUL DUP1 DUP3 DUP5 CALLDATACOPY PUSH1 0x0 SWAP3 ADD SWAP2 SWAP1 SWAP2 MSTORE POP SWAP3 SWAP6 POP POP PUSH1 0xFF DUP4 CALLDATALOAD AND SWAP4 POP POP POP PUSH1 0x20 DUP2 ADD CALLDATALOAD SWAP1 PUSH1 0x40 DUP2 ADD CALLDATALOAD SWAP1 PUSH1 0x60 ADD CALLDATALOAD PUSH2 0x194C JUMP JUMPDEST PUSH2 0x253 PUSH2 0x1C67 JUMP JUMPDEST PUSH2 0x253 PUSH1 0x4 DUP1 CALLDATASIZE SUB PUSH2 0x100 DUP2 LT ISZERO PUSH2 0x5E9 JUMPI PUSH1 0x0 DUP1 REVERT JUMPDEST PUSH1 0x1 PUSH1 0x1 PUSH1 0xA0 SHL SUB DUP3 CALLDATALOAD DUP2 AND SWAP3 PUSH1 0x20 DUP2 ADD CALLDATALOAD SWAP1 SWAP2 AND SWAP2 DUP2 ADD SWAP1 PUSH1 0x60 DUP2 ADD PUSH1 0x40 DUP3 ADD CALLDATALOAD PUSH1 0x1 PUSH1 0x20 SHL DUP2 GT ISZERO PUSH2 0x61C JUMPI PUSH1 0x0 DUP1 REVERT JUMPDEST DUP3 ADD DUP4 PUSH1 0x20 DUP3 ADD GT ISZERO PUSH2 0x62E JUMPI PUSH1 0x0 DUP1 REVERT JUMPDEST DUP1 CALLDATALOAD SWAP1 PUSH1 0x20 ADD SWAP2 DUP5 PUSH1 0x20 DUP4 MUL DUP5 ADD GT PUSH1 0x1 PUSH1 0x20 SHL DUP4 GT OR ISZERO PUSH2 0x64F JUMPI PUSH1 0x0 DUP1 REVERT JUMPDEST SWAP2 SWAP1 DUP1 DUP1 PUSH1 0x20 MUL PUSH1 0x20 ADD PUSH1 0x40 MLOAD SWAP1 DUP2 ADD PUSH1 0x40 MSTORE DUP1 SWAP4 SWAP3 SWAP2 SWAP1 DUP2 DUP2 MSTORE PUSH1 0x20 ADD DUP4 DUP4 PUSH1 0x20 MUL DUP1 DUP3 DUP5 CALLDATACOPY PUSH1 0x0 SWAP3 ADD SWAP2 SWAP1 SWAP2 MSTORE POP SWAP3 SWAP6 SWAP5 SWAP4 PUSH1 0x20 DUP2 ADD SWAP4 POP CALLDATALOAD SWAP2 POP POP PUSH1 0x1 PUSH1 0x20 SHL DUP2 GT ISZERO PUSH2 0x69E JUMPI PUSH1 0x0 DUP1 REVERT JUMPDEST DUP3 ADD DUP4 PUSH1 0x20 DUP3 ADD GT ISZERO PUSH2 0x6B0 JUMPI PUSH1 0x0 DUP1 REVERT JUMPDEST DUP1 CALLDATALOAD SWAP1 PUSH1 0x20 ADD SWAP2 DUP5 PUSH1 0x1 DUP4 MUL DUP5 ADD GT PUSH1 0x1 PUSH1 0x20 SHL DUP4 GT OR ISZERO PUSH2 0x6D1 JUMPI PUSH1 0x0 DUP1 REVERT JUMPDEST SWAP2 SWAP1 DUP1 DUP1 PUSH1 0x1F ADD PUSH1 0x20 DUP1 SWAP2 DIV MUL PUSH1 0x20 ADD PUSH1 0x40 MLOAD SWAP1 DUP2 ADD PUSH1 0x40 MSTORE DUP1 SWAP4 SWAP3 SWAP2 SWAP1 DUP2 DUP2 MSTORE PUSH1 0x20 ADD DUP4 DUP4 DUP1 DUP3 DUP5 CALLDATACOPY PUSH1 0x0 SWAP3 ADD SWAP2 SWAP1 SWAP2 MSTORE POP SWAP3 SWAP6 POP POP PUSH1 0xFF DUP4 CALLDATALOAD AND SWAP4 POP POP POP PUSH1 0x20 DUP2 ADD CALLDATALOAD SWAP1 PUSH1 0x40 DUP2 ADD CALLDATALOAD SWAP1 PUSH1 0x60 ADD CALLDATALOAD PUSH2 0x1C6D JUMP JUMPDEST PUSH2 0x234 PUSH1 0x4 DUP1 CALLDATASIZE SUB PUSH2 0x160 DUP2 LT ISZERO PUSH2 0x73D JUMPI PUSH1 0x0 DUP1 REVERT JUMPDEST PUSH1 0x1 PUSH1 0x1 PUSH1 0xA0 SHL SUB DUP3 CALLDATALOAD AND SWAP2 SWAP1 DUP2 ADD SWAP1 PUSH1 0x40 DUP2 ADD PUSH1 0x20 DUP3 ADD CALLDATALOAD PUSH1 0x1 PUSH1 0x20 SHL DUP2 GT ISZERO PUSH2 0x767 JUMPI PUSH1 0x0 DUP1 REVERT JUMPDEST DUP3 ADD DUP4 PUSH1 0x20 DUP3 ADD GT ISZERO PUSH2 0x779 JUMPI PUSH1 0x0 DUP1 REVERT JUMPDEST DUP1 CALLDATALOAD SWAP1 PUSH1 0x20 ADD SWAP2 DUP5 PUSH1 0x20 DUP4 MUL DUP5 ADD GT PUSH1 0x1 PUSH1 0x20 SHL DUP4 GT OR ISZERO PUSH2 0x79A JUMPI PUSH1 0x0 DUP1 REVERT JUMPDEST SWAP2 SWAP1 DUP1 DUP1 PUSH1 0x20 MUL PUSH1 0x20 ADD PUSH1 0x40 MLOAD SWAP1 DUP2 ADD PUSH1 0x40 MSTORE DUP1 SWAP4 SWAP3 SWAP2 SWAP1 DUP2 DUP2 MSTORE PUSH1 0x20 ADD DUP4 DUP4 PUSH1 0x20 MUL DUP1 DUP3 DUP5 CALLDATACOPY PUSH1 0x0 SWAP3 ADD SWAP2 SWAP1 SWAP2 MSTORE POP SWAP3 SWAP6 SWAP5 SWAP4 PUSH1 0x20 DUP2 ADD SWAP4 POP CALLDATALOAD SWAP2 POP POP PUSH1 0x1 PUSH1 0x20 SHL DUP2 GT ISZERO PUSH2 0x7E9 JUMPI PUSH1 0x0 DUP1 REVERT JUMPDEST DUP3 ADD DUP4 PUSH1 0x20 DUP3 ADD GT ISZERO PUSH2 0x7FB JUMPI PUSH1 0x0 DUP1 REVERT JUMPDEST DUP1 CALLDATALOAD SWAP1 PUSH1 0x20 ADD SWAP2 DUP5 PUSH1 0x20 DUP4 MUL DUP5 ADD GT PUSH1 0x1 PUSH1 0x20 SHL DUP4 GT OR ISZERO PUSH2 0x81C JUMPI PUSH1 0x0 DUP1 REVERT JUMPDEST SWAP2 SWAP1 DUP1 DUP1 PUSH1 0x20 MUL PUSH1 0x20 ADD PUSH1 0x40 MLOAD SWAP1 DUP2 ADD PUSH1 0x40 MSTORE DUP1 SWAP4 SWAP3 SWAP2 SWAP1 DUP2 DUP2 MSTORE PUSH1 0x20 ADD DUP4 DUP4 PUSH1 0x20 MUL DUP1 DUP3 DUP5 CALLDATACOPY PUSH1 0x0 SWAP3 ADD SWAP2 SWAP1 SWAP2 MSTORE POP POP PUSH1 0x40 DUP1 MLOAD DUP1 DUP3 ADD DUP3 MSTORE SWAP4 SWAP7 SWAP6 SWAP5 DUP2 DUP2 ADD SWAP5 SWAP4 POP SWAP2 POP PUSH1 0x2 SWAP1 DUP4 SWAP1 DUP4 SWAP1 DUP1 DUP3 DUP5 CALLDATACOPY PUSH1 0x0 SWAP3 ADD SWAP2 SWAP1 SWAP2 MSTORE POP POP PUSH1 0x40 DUP1 MLOAD DUP1 DUP3 ADD DUP3 MSTORE SWAP3 SWAP6 SWAP5 SWAP4 DUP2 DUP2 ADD SWAP4 SWAP3 POP SWAP1 PUSH1 0x2 SWAP1 DUP4 SWAP1 DUP4 SWAP1 DUP1 DUP3 DUP5 CALLDATACOPY PUSH1 0x0 SWAP3 ADD SWAP2 SWAP1 SWAP2 MSTORE POP POP PUSH1 0x40 DUP1 MLOAD DUP1 DUP3 ADD DUP3 MSTORE SWAP3 SWAP6 SWAP5 SWAP4 DUP2 DUP2 ADD SWAP4 SWAP3 POP SWAP1 PUSH1 0x2 SWAP1 DUP4 SWAP1 DUP4 SWAP1 DUP1 DUP3 DUP5 CALLDATACOPY PUSH1 0x0 SWAP3 ADD SWAP2 SWAP1 SWAP2 MSTORE POP POP PUSH1 0x40 DUP1 MLOAD DUP1 DUP3 ADD DUP3 MSTORE SWAP3 SWAP6 SWAP5 SWAP4 DUP2 DUP2 ADD SWAP4 SWAP3 POP SWAP1 PUSH1 0x2 SWAP1 DUP4 SWAP1 DUP4 SWAP1 DUP1 DUP3 DUP5 CALLDATACOPY PUSH1 0x0 SWAP3 ADD SWAP2 SWAP1 SWAP2 MSTORE POP SWAP2 SWAP5 POP PUSH2 0x1F58 SWAP4 POP POP POP POP JUMP JUMPDEST PUSH2 0x234 PUSH1 0x4 DUP1 CALLDATASIZE SUB PUSH1 0x40 DUP2 LT ISZERO PUSH2 0x914 JUMPI PUSH1 0x0 DUP1 REVERT JUMPDEST DUP2 ADD SWAP1 PUSH1 0x20 DUP2 ADD DUP2 CALLDATALOAD PUSH1 0x1 PUSH1 0x20 SHL DUP2 GT ISZERO PUSH2 0x92E JUMPI PUSH1 0x0 DUP1 REVERT JUMPDEST DUP3 ADD DUP4 PUSH1 0x20 DUP3 ADD GT ISZERO PUSH2 0x940 JUMPI PUSH1 0x0 DUP1 REVERT JUMPDEST DUP1 CALLDATALOAD SWAP1 PUSH1 0x20 ADD SWAP2 DUP5 PUSH1 0x20 DUP4 MUL DUP5 ADD GT PUSH1 0x1 PUSH1 0x20 SHL DUP4 GT OR ISZERO PUSH2 0x961 JUMPI PUSH1 0x0 DUP1 REVERT JUMPDEST SWAP2 SWAP1 DUP1 DUP1 PUSH1 0x20 MUL PUSH1 0x20 ADD PUSH1 0x40 MLOAD SWAP1 DUP2 ADD PUSH1 0x40 MSTORE DUP1 SWAP4 SWAP3 SWAP2 SWAP1 DUP2 DUP2 MSTORE PUSH1 0x20 ADD DUP4 DUP4 PUSH1 0x20 MUL DUP1 DUP3 DUP5 CALLDATACOPY PUSH1 0x0 SWAP3 ADD SWAP2 SWAP1 SWAP2 MSTORE POP SWAP3 SWAP6 SWAP5 SWAP4 PUSH1 0x20 DUP2 ADD SWAP4 POP CALLDATALOAD SWAP2 POP POP PUSH1 0x1 PUSH1 0x20 SHL DUP2 GT ISZERO PUSH2 0x9B0 JUMPI PUSH1 0x0 DUP1 REVERT JUMPDEST DUP3 ADD DUP4 PUSH1 0x20 DUP3 ADD GT ISZERO PUSH2 0x9C2 JUMPI PUSH1 0x0 DUP1 REVERT JUMPDEST DUP1 CALLDATALOAD SWAP1 PUSH1 0x20 ADD SWAP2 DUP5 PUSH1 0x20 DUP4 MUL DUP5 ADD GT PUSH1 0x1 PUSH1 0x20 SHL DUP4 GT OR ISZERO PUSH2 0x9E3 JUMPI PUSH1 0x0 DUP1 REVERT JUMPDEST SWAP2 SWAP1 DUP1 DUP1 PUSH1 0x20 MUL PUSH1 0x20 ADD PUSH1 0x40 MLOAD SWAP1 DUP2 ADD PUSH1 0x40 MSTORE DUP1 SWAP4 SWAP3 SWAP2 SWAP1 DUP2 DUP2 MSTORE PUSH1 0x20 ADD DUP4 DUP4 PUSH1 0x20 MUL DUP1 DUP3 DUP5 CALLDATACOPY PUSH1 0x0 SWAP3 ADD SWAP2 SWAP1 SWAP2 MSTORE POP SWAP3 SWAP6 POP PUSH2 0x20F9 SWAP5 POP POP POP POP POP JUMP JUMPDEST PUSH2 0x234 PUSH2 0x2180 JUMP JUMPDEST PUSH2 0x3B8 PUSH2 0x21DB JUMP JUMPDEST PUSH2 0x234 PUSH1 0x4 DUP1 CALLDATASIZE SUB PUSH1 0x20 DUP2 LT ISZERO PUSH2 0xA47 JUMPI PUSH1 0x0 DUP1 REVERT JUMPDEST POP CALLDATALOAD PUSH1 0x1 PUSH1 0x1 PUSH1 0xA0 SHL SUB AND PUSH2 0x21EA JUMP JUMPDEST PUSH2 0x234 PUSH1 0x4 DUP1 CALLDATASIZE SUB PUSH2 0x120 DUP2 LT ISZERO PUSH2 0xA6E JUMPI PUSH1 0x0 DUP1 REVERT JUMPDEST PUSH1 0x1 PUSH1 0x1 PUSH1 0xA0 SHL SUB DUP3 CALLDATALOAD DUP2 AND SWAP3 PUSH1 0x20 DUP2 ADD CALLDATALOAD SWAP1 SWAP2 AND SWAP2 PUSH1 0x40 DUP3 ADD CALLDATALOAD ISZERO ISZERO SWAP2 PUSH1 0x60 DUP2 ADD CALLDATALOAD SWAP2 DUP2 ADD SWAP1 PUSH1 0xA0 DUP2 ADD PUSH1 0x80 DUP3 ADD CALLDATALOAD PUSH1 0x1 PUSH1 0x20 SHL DUP2 GT ISZERO PUSH2 0xAAF JUMPI PUSH1 0x0 DUP1 REVERT JUMPDEST DUP3 ADD DUP4 PUSH1 0x20 DUP3 ADD GT ISZERO PUSH2 0xAC1 JUMPI PUSH1 0x0 DUP1 REVERT JUMPDEST DUP1 CALLDATALOAD SWAP1 PUSH1 0x20 ADD SWAP2 DUP5 PUSH1 0x1 DUP4 MUL DUP5 ADD GT PUSH1 0x1 PUSH1 0x20 SHL DUP4 GT OR ISZERO PUSH2 0xAE2 JUMPI PUSH1 0x0 DUP1 REVERT JUMPDEST SWAP2 SWAP1 DUP1 DUP1 PUSH1 0x1F ADD PUSH1 0x20 DUP1 SWAP2 DIV MUL PUSH1 0x20 ADD PUSH1 0x40 MLOAD SWAP1 DUP2 ADD PUSH1 0x40 MSTORE DUP1 SWAP4 SWAP3 SWAP2 SWAP1 DUP2 DUP2 MSTORE PUSH1 0x20 ADD DUP4 DUP4 DUP1 DUP3 DUP5 CALLDATACOPY PUSH1 0x0 SWAP3 ADD SWAP2 SWAP1 SWAP2 MSTORE POP SWAP3 SWAP6 POP POP PUSH1 0xFF DUP4 CALLDATALOAD AND SWAP4 POP POP POP PUSH1 0x20 DUP2 ADD CALLDATALOAD SWAP1 PUSH1 0x40 DUP2 ADD CALLDATALOAD SWAP1 PUSH1 0x60 ADD CALLDATALOAD PUSH2 0x222A JUMP JUMPDEST PUSH2 0x234 PUSH1 0x4 DUP1 CALLDATASIZE SUB PUSH1 0xA0 DUP2 LT ISZERO PUSH2 0xB4D JUMPI PUSH1 0x0 DUP1 REVERT JUMPDEST DUP2 CALLDATALOAD SWAP2 PUSH1 0x1 PUSH1 0x1 PUSH1 0xA0 SHL SUB PUSH1 0x20 DUP3 ADD CALLDATALOAD AND SWAP2 PUSH1 0x40 DUP3 ADD CALLDATALOAD ISZERO ISZERO SWAP2 PUSH1 0x60 DUP2 ADD CALLDATALOAD SWAP2 DUP2 ADD SWAP1 PUSH1 0xA0 DUP2 ADD PUSH1 0x80 DUP3 ADD CALLDATALOAD PUSH1 0x1 PUSH1 0x20 SHL DUP2 GT ISZERO PUSH2 0xB8A JUMPI PUSH1 0x0 DUP1 REVERT JUMPDEST DUP3 ADD DUP4 PUSH1 0x20 DUP3 ADD GT ISZERO PUSH2 0xB9C JUMPI PUSH1 0x0 DUP1 REVERT JUMPDEST DUP1 CALLDATALOAD SWAP1 PUSH1 0x20 ADD SWAP2 DUP5 PUSH1 0x1 DUP4 MUL DUP5 ADD GT PUSH1 0x1 PUSH1 0x20 SHL DUP4 GT OR ISZERO PUSH2 0xBBD JUMPI PUSH1 0x0 DUP1 REVERT JUMPDEST SWAP2 SWAP1 DUP1 DUP1 PUSH1 0x1F ADD PUSH1 0x20 DUP1 SWAP2 DIV MUL PUSH1 0x20 ADD PUSH1 0x40 MLOAD SWAP1 DUP2 ADD PUSH1 0x40 MSTORE DUP1 SWAP4 SWAP3 SWAP2 SWAP1 DUP2 DUP2 MSTORE PUSH1 0x20 ADD DUP4 DUP4 DUP1 DUP3 DUP5 CALLDATACOPY PUSH1 0x0 SWAP3 ADD SWAP2 SWAP1 SWAP2 MSTORE POP SWAP3 SWAP6 POP PUSH2 0x22D6 SWAP5 POP POP POP POP POP JUMP JUMPDEST PUSH2 0x3B8 PUSH2 0x23A1 JUMP JUMPDEST PUSH2 0xC0E PUSH2 0x23B0 JUMP JUMPDEST PUSH1 0x40 DUP1 MLOAD SWAP2 ISZERO ISZERO DUP3 MSTORE MLOAD SWAP1 DUP2 SWAP1 SUB PUSH1 0x20 ADD SWAP1 RETURN JUMPDEST PUSH2 0x234 PUSH1 0x4 DUP1 CALLDATASIZE SUB PUSH1 0x80 DUP2 LT ISZERO PUSH2 0xC38 JUMPI PUSH1 0x0 DUP1 REVERT JUMPDEST PUSH1 0x1 PUSH1 0x1 PUSH1 0xA0 SHL SUB DUP3 CALLDATALOAD DUP2 AND SWAP3 PUSH1 0x20 DUP2 ADD CALLDATALOAD SWAP3 PUSH1 0x40 DUP3 ADD CALLDATALOAD SWAP1 SWAP3 AND SWAP2 DUP2 ADD SWAP1 PUSH1 0x80 DUP2 ADD PUSH1 0x60 DUP3 ADD CALLDATALOAD PUSH1 0x1 PUSH1 0x20 SHL DUP2 GT ISZERO PUSH2 0xC71 JUMPI PUSH1 0x0 DUP1 REVERT JUMPDEST DUP3 ADD DUP4 PUSH1 0x20 DUP3 ADD GT ISZERO PUSH2 0xC83 JUMPI PUSH1 0x0 DUP1 REVERT JUMPDEST DUP1 CALLDATALOAD SWAP1 PUSH1 0x20 ADD SWAP2 DUP5 PUSH1 0x1 DUP4 MUL DUP5 ADD GT PUSH1 0x1 PUSH1 0x20 SHL DUP4 GT OR ISZERO PUSH2 0xCA4 JUMPI PUSH1 0x0 DUP1 REVERT JUMPDEST SWAP2 SWAP1 DUP1 DUP1 PUSH1 0x1F ADD PUSH1 0x20 DUP1 SWAP2 DIV MUL PUSH1 0x20 ADD PUSH1 0x40 MLOAD SWAP1 DUP2 ADD PUSH1 0x40 MSTORE DUP1 SWAP4 SWAP3 SWAP2 SWAP1 DUP2 DUP2 MSTORE PUSH1 0x20 ADD DUP4 DUP4 DUP1 DUP3 DUP5 CALLDATACOPY PUSH1 0x0 SWAP3 ADD SWAP2 SWAP1 SWAP2 MSTORE POP SWAP3 SWAP6 POP PUSH2 0x23C1 SWAP5 POP POP POP POP POP JUMP JUMPDEST PUSH2 0x234 PUSH1 0x4 DUP1 CALLDATASIZE SUB PUSH1 0x40 DUP2 LT ISZERO PUSH2 0xCFB JUMPI PUSH1 0x0 DUP1 REVERT JUMPDEST POP PUSH1 0x1 PUSH1 0x1 PUSH1 0xA0 SHL SUB DUP2 CALLDATALOAD DUP2 AND SWAP2 PUSH1 0x20 ADD CALLDATALOAD AND PUSH2 0x2B8E JUMP JUMPDEST PUSH2 0x33B PUSH1 0x4 DUP1 CALLDATASIZE SUB PUSH1 0x60 DUP2 LT ISZERO PUSH2 0xD29 JUMPI PUSH1 0x0 DUP1 REVERT JUMPDEST PUSH1 0x1 PUSH1 0x1 PUSH1 0xA0 SHL SUB DUP3 CALLDATALOAD AND SWAP2 PUSH1 0x20 DUP2 ADD CALLDATALOAD SWAP2 DUP2 ADD SWAP1 PUSH1 0x60 DUP2 ADD PUSH1 0x40 DUP3 ADD CALLDATALOAD PUSH1 0x1 PUSH1 0x20 SHL DUP2 GT ISZERO PUSH2 0xD58 JUMPI PUSH1 0x0 DUP1 REVERT JUMPDEST DUP3 ADD DUP4 PUSH1 0x20 DUP3 ADD GT ISZERO PUSH2 0xD6A JUMPI PUSH1 0x0 DUP1 REVERT JUMPDEST DUP1 CALLDATALOAD SWAP1 PUSH1 0x20 ADD SWAP2 DUP5 PUSH1 0x1 DUP4 MUL DUP5 ADD GT PUSH1 0x1 PUSH1 0x20 SHL DUP4 GT OR ISZERO PUSH2 0xD8B JUMPI PUSH1 0x0 DUP1 REVERT JUMPDEST SWAP2 SWAP1 DUP1 DUP1 PUSH1 0x1F ADD PUSH1 0x20 DUP1 SWAP2 DIV MUL PUSH1 0x20 ADD PUSH1 0x40 MLOAD SWAP1 DUP2 ADD PUSH1 0x40 MSTORE DUP1 SWAP4 SWAP3 SWAP2 SWAP1 DUP2 DUP2 MSTORE PUSH1 0x20 ADD DUP4 DUP4 DUP1 DUP3 DUP5 CALLDATACOPY PUSH1 0x0 SWAP3 ADD SWAP2 SWAP1 SWAP2 MSTORE POP SWAP3 SWAP6 POP PUSH2 0x2BF0 SWAP5 POP POP POP POP POP JUMP JUMPDEST PUSH2 0x234 PUSH1 0x4 DUP1 CALLDATASIZE SUB PUSH1 0xA0 DUP2 LT ISZERO PUSH2 0xDE2 JUMPI PUSH1 0x0 DUP1 REVERT JUMPDEST DUP2 CALLDATALOAD SWAP2 PUSH1 0x1 PUSH1 0x1 PUSH1 0xA0 SHL SUB PUSH1 0x20 DUP3 ADD CALLDATALOAD AND SWAP2 PUSH1 0x40 DUP3 ADD CALLDATALOAD SWAP2 PUSH1 0x60 DUP2 ADD CALLDATALOAD SWAP2 DUP2 ADD SWAP1 PUSH1 0xA0 DUP2 ADD PUSH1 0x80 DUP3 ADD CALLDATALOAD PUSH1 0x1 PUSH1 0x20 SHL DUP2 GT ISZERO PUSH2 0xE1D JUMPI PUSH1 0x0 DUP1 REVERT JUMPDEST DUP3 ADD DUP4 PUSH1 0x20 DUP3 ADD GT ISZERO PUSH2 0xE2F JUMPI PUSH1 0x0 DUP1 REVERT JUMPDEST DUP1 CALLDATALOAD SWAP1 PUSH1 0x20 ADD SWAP2 DUP5 PUSH1 0x1 DUP4 MUL DUP5 ADD GT PUSH1 0x1 PUSH1 0x20 SHL DUP4 GT OR ISZERO PUSH2 0xE50 JUMPI PUSH1 0x0 DUP1 REVERT JUMPDEST SWAP2 SWAP1 DUP1 DUP1 PUSH1 0x1F ADD PUSH1 0x20 DUP1 SWAP2 DIV MUL PUSH1 0x20 ADD PUSH1 0x40 MLOAD SWAP1 DUP2 ADD PUSH1 0x40 MSTORE DUP1 SWAP4 SWAP3 SWAP2 SWAP1 DUP2 DUP2 MSTORE PUSH1 0x20 ADD DUP4 DUP4 DUP1 DUP3 DUP5 CALLDATACOPY PUSH1 0x0 SWAP3 ADD SWAP2 SWAP1 SWAP2 MSTORE POP SWAP3 SWAP6 POP PUSH2 0x2C7E SWAP5 POP POP POP POP POP JUMP JUMPDEST PUSH2 0x234 PUSH1 0x4 DUP1 CALLDATASIZE SUB PUSH1 0x60 DUP2 LT ISZERO PUSH2 0xEA7 JUMPI PUSH1 0x0 DUP1 REVERT JUMPDEST PUSH1 0x1 PUSH1 0x1 PUSH1 0xA0 SHL SUB DUP3 CALLDATALOAD AND SWAP2 PUSH1 0x20 DUP2 ADD CALLDATALOAD ISZERO ISZERO SWAP2 DUP2 ADD SWAP1 PUSH1 0x60 DUP2 ADD PUSH1 0x40 DUP3 ADD CALLDATALOAD PUSH1 0x1 PUSH1 0x20 SHL DUP2 GT ISZERO PUSH2 0xED8 JUMPI PUSH1 0x0 DUP1 REVERT JUMPDEST DUP3 ADD DUP4 PUSH1 0x20 DUP3 ADD GT ISZERO PUSH2 0xEEA JUMPI PUSH1 0x0 DUP1 REVERT JUMPDEST DUP1 CALLDATALOAD SWAP1 PUSH1 0x20 ADD SWAP2 DUP5 PUSH1 0x1 DUP4 MUL DUP5 ADD GT PUSH1 0x1 PUSH1 0x20 SHL DUP4 GT OR ISZERO PUSH2 0xF0B JUMPI PUSH1 0x0 DUP1 REVERT JUMPDEST SWAP2 SWAP1 DUP1 DUP1 PUSH1 0x1F ADD PUSH1 0x20 DUP1 SWAP2 DIV MUL PUSH1 0x20 ADD PUSH1 0x40 MLOAD SWAP1 DUP2 ADD PUSH1 0x40 MSTORE DUP1 SWAP4 SWAP3 SWAP2 SWAP1 DUP2 DUP2 MSTORE PUSH1 0x20 ADD DUP4 DUP4 DUP1 DUP3 DUP5 CALLDATACOPY PUSH1 0x0 SWAP3 ADD SWAP2 SWAP1 SWAP2 MSTORE POP SWAP3 SWAP6 POP PUSH2 0x2DBF SWAP5 POP POP POP POP POP JUMP JUMPDEST PUSH2 0x234 PUSH1 0x4 DUP1 CALLDATASIZE SUB PUSH1 0xC0 DUP2 LT ISZERO PUSH2 0xF62 JUMPI PUSH1 0x0 DUP1 REVERT JUMPDEST PUSH1 0x1 PUSH1 0x1 PUSH1 0xA0 SHL SUB DUP3 CALLDATALOAD AND SWAP2 SWAP1 DUP2 ADD SWAP1 PUSH1 0x40 DUP2 ADD PUSH1 0x20 DUP3 ADD CALLDATALOAD PUSH1 0x1 PUSH1 0x20 SHL DUP2 GT ISZERO PUSH2 0xF8C JUMPI PUSH1 0x0 DUP1 REVERT JUMPDEST DUP3 ADD DUP4 PUSH1 0x20 DUP3 ADD GT ISZERO PUSH2 0xF9E JUMPI PUSH1 0x0 DUP1 REVERT JUMPDEST DUP1 CALLDATALOAD SWAP1 PUSH1 0x20 ADD SWAP2 DUP5 PUSH1 0x20 DUP4 MUL DUP5 ADD GT PUSH1 0x1 PUSH1 0x20 SHL DUP4 GT OR ISZERO PUSH2 0xFBF JUMPI PUSH1 0x0 DUP1 REVERT JUMPDEST SWAP2 SWAP1 DUP1 DUP1 PUSH1 0x20 MUL PUSH1 0x20 ADD PUSH1 0x40 MLOAD SWAP1 DUP2 ADD PUSH1 0x40 MSTORE DUP1 SWAP4 SWAP3 SWAP2 SWAP1 DUP2 DUP2 MSTORE PUSH1 0x20 ADD DUP4 DUP4 PUSH1 0x20 MUL DUP1 DUP3 DUP5 CALLDATACOPY PUSH1 0x0 SWAP3 ADD SWAP2 SWAP1 SWAP2 MSTORE POP SWAP3 SWAP6 SWAP5 SWAP4 PUSH1 0x20 DUP2 ADD SWAP4 POP CALLDATALOAD SWAP2 POP POP PUSH1 0x1 PUSH1 0x20 SHL DUP2 GT ISZERO PUSH2 0x100E JUMPI PUSH1 0x0 DUP1 REVERT JUMPDEST DUP3 ADD DUP4 PUSH1 0x20 DUP3 ADD GT ISZERO PUSH2 0x1020 JUMPI PUSH1 0x0 DUP1 REVERT JUMPDEST DUP1 CALLDATALOAD SWAP1 PUSH1 0x20 ADD SWAP2 DUP5 PUSH1 0x20 DUP4 MUL DUP5 ADD GT PUSH1 0x1 PUSH1 0x20 SHL DUP4 GT OR ISZERO PUSH2 0x1041 JUMPI PUSH1 0x0 DUP1 REVERT JUMPDEST SWAP2 SWAP1 DUP1 DUP1 PUSH1 0x20 MUL PUSH1 0x20 ADD PUSH1 0x40 MLOAD SWAP1 DUP2 ADD PUSH1 0x40 MSTORE DUP1 SWAP4 SWAP3 SWAP2 SWAP1 DUP2 DUP2 MSTORE PUSH1 0x20 ADD DUP4 DUP4 PUSH1 0x20 MUL DUP1 DUP3 DUP5 CALLDATACOPY PUSH1 0x0 SWAP3 ADD SWAP2 SWAP1 SWAP2 MSTORE POP SWAP3 SWAP6 POP POP PUSH1 0xFF DUP4 CALLDATALOAD AND SWAP4 POP POP POP PUSH1 0x20 DUP2 ADD CALLDATALOAD SWAP1 PUSH1 0x40 ADD CALLDATALOAD PUSH2 0x2E43 JUMP JUMPDEST PUSH2 0x3B8 PUSH2 0x30B0 JUMP JUMPDEST PUSH2 0x253 PUSH1 0x4 DUP1 CALLDATASIZE SUB PUSH1 0x20 DUP2 LT ISZERO PUSH2 0x10AB JUMPI PUSH1 0x0 DUP1 REVERT JUMPDEST POP CALLDATALOAD PUSH2 0x30BF JUMP JUMPDEST PUSH2 0x234 PUSH1 0x4 DUP1 CALLDATASIZE SUB PUSH1 0x40 DUP2 LT ISZERO PUSH2 0x10C8 JUMPI PUSH1 0x0 DUP1 REVERT JUMPDEST POP PUSH1 0x1 PUSH1 0x1 PUSH1 0xA0 SHL SUB DUP2 CALLDATALOAD AND SWAP1 PUSH1 0x20 ADD CALLDATALOAD PUSH2 0x30D1 JUMP JUMPDEST PUSH2 0x234 PUSH1 0x4 DUP1 CALLDATASIZE SUB PUSH1 0x80 DUP2 LT ISZERO PUSH2 0x10F4 JUMPI PUSH1 0x0 DUP1 REVERT JUMPDEST PUSH1 0x1 PUSH1 0x1 PUSH1 0xA0 SHL SUB DUP3 CALLDATALOAD AND SWAP2 PUSH1 0x20 DUP2 ADD CALLDATALOAD ISZERO ISZERO SWAP2 PUSH1 0x40 DUP3 ADD CALLDATALOAD SWAP2 SWAP1 DUP2 ADD SWAP1 PUSH1 0x80 DUP2 ADD PUSH1 0x60 DUP3 ADD CALLDATALOAD PUSH1 0x1 PUSH1 0x20 SHL DUP2 GT ISZERO PUSH2 0x112C JUMPI PUSH1 0x0 DUP1 REVERT JUMPDEST DUP3 ADD DUP4 PUSH1 0x20 DUP3 ADD GT ISZERO PUSH2 0x113E JUMPI PUSH1 0x0 DUP1 REVERT JUMPDEST DUP1 CALLDATALOAD SWAP1 PUSH1 0x20 ADD SWAP2 DUP5 PUSH1 0x1 DUP4 MUL DUP5 ADD GT PUSH1 0x1 PUSH1 0x20 SHL DUP4 GT OR ISZERO PUSH2 0x115F JUMPI PUSH1 0x0 DUP1 REVERT JUMPDEST SWAP2 SWAP1 DUP1 DUP1 PUSH1 0x1F ADD PUSH1 0x20 DUP1 SWAP2 DIV MUL PUSH1 0x20 ADD PUSH1 0x40 MLOAD SWAP1 DUP2 ADD PUSH1 0x40 MSTORE DUP1 SWAP4 SWAP3 SWAP2 SWAP1 DUP2 DUP2 MSTORE PUSH1 0x20 ADD DUP4 DUP4 DUP1 DUP3 DUP5 CALLDATACOPY PUSH1 0x0 SWAP3 ADD SWAP2 SWAP1 SWAP2 MSTORE POP SWAP3 SWAP6 POP PUSH2 0x3154 SWAP5 POP POP POP POP POP JUMP JUMPDEST PUSH2 0x234 PUSH1 0x4 DUP1 CALLDATASIZE SUB PUSH1 0x60 DUP2 LT ISZERO PUSH2 0x11B6 JUMPI PUSH1 0x0 DUP1 REVERT JUMPDEST POP DUP1 CALLDATALOAD SWAP1 PUSH1 0x1 PUSH1 0x1 PUSH1 0xA0 SHL SUB PUSH1 0x20 DUP3 ADD CALLDATALOAD AND SWAP1 PUSH1 0x40 ADD CALLDATALOAD PUSH2 0x31D9 JUMP JUMPDEST PUSH2 0x253 PUSH1 0x4 DUP1 CALLDATASIZE SUB PUSH1 0x40 DUP2 LT ISZERO PUSH2 0x11E8 JUMPI PUSH1 0x0 DUP1 REVERT JUMPDEST POP DUP1 CALLDATALOAD SWAP1 PUSH1 0x20 ADD CALLDATALOAD PUSH1 0x1 PUSH1 0x1 PUSH1 0xA0 SHL SUB AND PUSH2 0x321E JUMP JUMPDEST PUSH2 0x234 PUSH1 0x4 DUP1 CALLDATASIZE SUB PUSH2 0x100 DUP2 LT ISZERO PUSH2 0x1215 JUMPI PUSH1 0x0 DUP1 REVERT JUMPDEST PUSH1 0x1 PUSH1 0x1 PUSH1 0xA0 SHL SUB DUP3 CALLDATALOAD DUP2 AND SWAP3 PUSH1 0x20 DUP2 ADD CALLDATALOAD SWAP1 SWAP2 AND SWAP2 PUSH1 0x40 DUP3 ADD CALLDATALOAD ISZERO ISZERO SWAP2 SWAP1 DUP2 ADD SWAP1 PUSH1 0x80 DUP2 ADD PUSH1 0x60 DUP3 ADD CALLDATALOAD PUSH1 0x1 PUSH1 0x20 SHL DUP2 GT ISZERO PUSH2 0x1251 JUMPI PUSH1 0x0 DUP1 REVERT JUMPDEST DUP3 ADD DUP4 PUSH1 0x20 DUP3 ADD GT ISZERO PUSH2 0x1263 JUMPI PUSH1 0x0 DUP1 REVERT JUMPDEST DUP1 CALLDATALOAD SWAP1 PUSH1 0x20 ADD SWAP2 DUP5 PUSH1 0x1 DUP4 MUL DUP5 ADD GT PUSH1 0x1 PUSH1 0x20 SHL DUP4 GT OR ISZERO PUSH2 0x1284 JUMPI PUSH1 0x0 DUP1 REVERT JUMPDEST SWAP2 SWAP1 DUP1 DUP1 PUSH1 0x1F ADD PUSH1 0x20 DUP1 SWAP2 DIV MUL PUSH1 0x20 ADD PUSH1 0x40 MLOAD SWAP1 DUP2 ADD PUSH1 0x40 MSTORE DUP1 SWAP4 SWAP3 SWAP2 SWAP1 DUP2 DUP2 MSTORE PUSH1 0x20 ADD DUP4 DUP4 DUP1 DUP3 DUP5 CALLDATACOPY PUSH1 0x0 SWAP3 ADD SWAP2 SWAP1 SWAP2 MSTORE POP SWAP3 SWAP6 POP POP PUSH1 0xFF DUP4 CALLDATALOAD AND SWAP4 POP POP POP PUSH1 0x20 DUP2 ADD CALLDATALOAD SWAP1 PUSH1 0x40 DUP2 ADD CALLDATALOAD SWAP1 PUSH1 0x60 ADD CALLDATALOAD PUSH2 0x323B JUMP JUMPDEST PUSH2 0x234 PUSH1 0x4 DUP1 CALLDATASIZE SUB PUSH1 0x20 DUP2 LT ISZERO PUSH2 0x12EF JUMPI PUSH1 0x0 DUP1 REVERT JUMPDEST POP CALLDATALOAD PUSH1 0x1 PUSH1 0x1 PUSH1 0xA0 SHL SUB AND PUSH2 0x3338 JUMP JUMPDEST PUSH2 0x234 PUSH1 0x4 DUP1 CALLDATASIZE SUB PUSH1 0xC0 DUP2 LT ISZERO PUSH2 0x1315 JUMPI PUSH1 0x0 DUP1 REVERT JUMPDEST PUSH1 0x1 PUSH1 0x1 PUSH1 0xA0 SHL SUB DUP3 CALLDATALOAD AND SWAP2 SWAP1 DUP2 ADD SWAP1 PUSH1 0x40 DUP2 ADD PUSH1 0x20 DUP3 ADD CALLDATALOAD PUSH1 0x1 PUSH1 0x20 SHL DUP2 GT ISZERO PUSH2 0x133F JUMPI PUSH1 0x0 DUP1 REVERT JUMPDEST DUP3 ADD DUP4 PUSH1 0x20 DUP3 ADD GT ISZERO PUSH2 0x1351 JUMPI PUSH1 0x0 DUP1 REVERT JUMPDEST DUP1 CALLDATALOAD SWAP1 PUSH1 0x20 ADD SWAP2 DUP5 PUSH1 0x20 DUP4 MUL DUP5 ADD GT PUSH1 0x1 PUSH1 0x20 SHL DUP4 GT OR ISZERO PUSH2 0x1372 JUMPI PUSH1 0x0 DUP1 REVERT JUMPDEST SWAP2 SWAP1 DUP1 DUP1 PUSH1 0x20 MUL PUSH1 0x20 ADD PUSH1 0x40 MLOAD SWAP1 DUP2 ADD PUSH1 0x40 MSTORE DUP1 SWAP4 SWAP3 SWAP2 SWAP1 DUP2 DUP2 MSTORE PUSH1 0x20 ADD DUP4 DUP4 PUSH1 0x20 MUL DUP1 DUP3 DUP5 CALLDATACOPY PUSH1 0x0 SWAP3 ADD SWAP2 SWAP1 SWAP2 MSTORE POP SWAP3 SWAP6 POP POP PUSH1 0xFF DUP4 CALLDATALOAD AND SWAP4 POP POP POP PUSH1 0x20 DUP2 ADD CALLDATALOAD SWAP1 PUSH1 0x40 DUP2 ADD CALLDATALOAD SWAP1 PUSH1 0x60 ADD CALLDATALOAD PUSH2 0x3355 JUMP JUMPDEST PUSH2 0x13CE DUP4 DUP3 PUSH2 0x3625 JUMP JUMPDEST PUSH2 0x13D9 DUP4 DUP4 DUP4 PUSH2 0x37E3 JUMP JUMPDEST POP PUSH1 0x40 MLOAD CALLER SWAP1 PUSH32 0x3BD0280DC67BFC5C83998B5EDDEBB84CB266DD5FEA7C8552E43F1C55110E9667 SWAP1 PUSH1 0x0 SWAP1 LOG2 POP POP POP JUMP JUMPDEST PUSH1 0xA PUSH1 0x20 MSTORE PUSH1 0x0 SWAP1 DUP2 MSTORE PUSH1 0x40 SWAP1 KECCAK256 SLOAD DUP2 JUMP JUMPDEST PUSH1 0x4 DUP1 SLOAD PUSH1 0x40 DUP1 MLOAD PUSH4 0x5C62C2F PUSH1 0xE0 SHL DUP2 MSTORE PUSH1 0x1 PUSH1 0x1 PUSH1 0xA0 SHL SUB DUP9 DUP2 AND SWAP5 DUP3 ADD SWAP5 SWAP1 SWAP5 MSTORE SWAP1 MLOAD PUSH1 0x60 SWAP4 PUSH1 0x0 SWAP4 AND SWAP2 PUSH4 0x5C62C2F SWAP2 PUSH1 0x24 DUP1 DUP4 ADD SWAP3 PUSH1 0x20 SWAP3 SWAP2 SWAP1 DUP3 SWAP1 SUB ADD DUP2 DUP7 DUP1 EXTCODESIZE ISZERO DUP1 ISZERO PUSH2 0x146F JUMPI PUSH1 0x0 DUP1 REVERT JUMPDEST POP GAS STATICCALL ISZERO DUP1 ISZERO PUSH2 0x1483 JUMPI RETURNDATASIZE PUSH1 0x0 DUP1 RETURNDATACOPY RETURNDATASIZE PUSH1 0x0 REVERT JUMPDEST POP POP POP POP PUSH1 0x40 MLOAD RETURNDATASIZE PUSH1 0x20 DUP2 LT ISZERO PUSH2 0x1499 JUMPI PUSH1 0x0 DUP1 REVERT JUMPDEST POP MLOAD PUSH1 0x0 DUP2 DUP2 MSTORE PUSH1 0xA PUSH1 0x20 MSTORE PUSH1 0x40 SWAP1 KECCAK256 DUP1 SLOAD PUSH1 0x1 DUP2 ADD SWAP1 SWAP2 SSTORE SWAP1 SWAP2 POP PUSH2 0x14C6 DUP8 DUP4 DUP13 DUP13 DUP13 DUP7 DUP13 DUP13 DUP13 PUSH2 0x39A4 JUMP JUMPDEST PUSH2 0x14D2 DUP3 DUP11 DUP13 DUP12 PUSH2 0x3BD9 JUMP JUMPDEST SWAP11 SWAP10 POP POP POP POP POP POP POP POP POP POP JUMP JUMPDEST PUSH1 0x7 SLOAD PUSH1 0x1 PUSH1 0x1 PUSH1 0xA0 SHL SUB AND DUP2 JUMP JUMPDEST PUSH1 0x4 DUP1 SLOAD PUSH1 0x40 DUP1 MLOAD PUSH4 0x5C62C2F PUSH1 0xE0 SHL DUP2 MSTORE PUSH1 0x1 PUSH1 0x1 PUSH1 0xA0 SHL SUB DUP10 DUP2 AND SWAP5 DUP3 ADD SWAP5 SWAP1 SWAP5 MSTORE SWAP1 MLOAD PUSH1 0x0 SWAP4 SWAP1 SWAP3 AND SWAP2 PUSH4 0x5C62C2F SWAP2 PUSH1 0x24 DUP1 DUP3 ADD SWAP3 PUSH1 0x20 SWAP3 SWAP1 SWAP2 SWAP1 DUP3 SWAP1 SUB ADD DUP2 DUP7 DUP1 EXTCODESIZE ISZERO DUP1 ISZERO PUSH2 0x1542 JUMPI PUSH1 0x0 DUP1 REVERT JUMPDEST POP GAS STATICCALL ISZERO DUP1 ISZERO PUSH2 0x1556 JUMPI RETURNDATASIZE PUSH1 0x0 DUP1 RETURNDATACOPY RETURNDATASIZE PUSH1 0x0 REVERT JUMPDEST POP POP POP POP PUSH1 0x40 MLOAD RETURNDATASIZE PUSH1 0x20 DUP2 LT ISZERO PUSH2 0x156C JUMPI PUSH1 0x0 DUP1 REVERT JUMPDEST POP MLOAD PUSH1 0x0 DUP2 DUP2 MSTORE PUSH1 0xA PUSH1 0x20 SWAP1 DUP2 MSTORE PUSH1 0x40 DUP1 DUP4 KECCAK256 DUP1 SLOAD PUSH1 0x1 DUP2 ADD SWAP1 SWAP2 SSTORE PUSH1 0x4 SLOAD SWAP2 MLOAD PUSH1 0x19 PUSH1 0xF8 SHL SWAP4 DUP2 ADD DUP5 DUP2 MSTORE PUSH1 0x21 DUP3 ADD DUP7 SWAP1 MSTORE ADDRESS PUSH1 0x60 DUP2 SWAP1 SHL PUSH1 0x22 DUP5 ADD MSTORE SWAP7 SWAP8 POP SWAP2 SWAP6 PUSH1 0x1 PUSH1 0x1 PUSH1 0xA0 SHL SUB SWAP1 SWAP4 AND SWAP5 PUSH4 0x8677EBE8 SWAP5 DUP14 SWAP5 SWAP1 SWAP4 SWAP2 SWAP3 SWAP1 SWAP2 DUP10 SWAP2 DUP15 SWAP2 DUP11 SWAP2 PUSH1 0x36 ADD PUSH1 0x2C PUSH2 0x4F35 DUP3 CODECOPY PUSH1 0x2C DUP2 ADD SWAP5 SWAP1 SWAP5 MSTORE POP PUSH12 0xFFFFFFFFFFFFFFFFFFFFFFFF NOT PUSH1 0x60 SWAP3 DUP4 SHL AND PUSH1 0x4C DUP5 ADD MSTORE DUP2 DUP4 ADD MSTORE PUSH1 0x40 DUP1 MLOAD DUP1 DUP5 SUB SWAP1 SWAP3 ADD DUP3 MSTORE PUSH1 0x80 DUP4 ADD DUP1 DUP3 MSTORE DUP3 MLOAD PUSH1 0x20 SWAP4 DUP5 ADD KECCAK256 PUSH1 0x1 PUSH1 0x1 PUSH1 0xE0 SHL SUB NOT PUSH1 0xE0 DUP12 SWAP1 SHL AND SWAP1 SWAP2 MSTORE PUSH1 0x1 PUSH1 0x1 PUSH1 0xA0 SHL SUB SWAP8 SWAP1 SWAP8 AND PUSH1 0x84 DUP5 ADD MSTORE PUSH1 0xA4 DUP4 ADD SWAP7 SWAP1 SWAP7 MSTORE PUSH1 0xFF DUP14 AND PUSH1 0xC4 DUP4 ADD MSTORE PUSH1 0xE4 DUP3 ADD DUP13 SWAP1 MSTORE PUSH2 0x104 DUP3 ADD DUP12 SWAP1 MSTORE SWAP5 MLOAD PUSH2 0x124 DUP1 DUP4 ADD SWAP7 SWAP6 POP SWAP1 SWAP4 POP SWAP1 DUP4 SWAP1 SUB ADD SWAP1 POP DUP2 DUP7 DUP1 EXTCODESIZE ISZERO DUP1 ISZERO PUSH2 0x1682 JUMPI PUSH1 0x0 DUP1 REVERT JUMPDEST POP GAS STATICCALL ISZERO DUP1 ISZERO PUSH2 0x1696 JUMPI RETURNDATASIZE PUSH1 0x0 DUP1 RETURNDATACOPY RETURNDATASIZE PUSH1 0x0 REVERT JUMPDEST POP POP POP POP PUSH1 0x40 MLOAD RETURNDATASIZE PUSH1 0x20 DUP2 LT ISZERO PUSH2 0x16AC JUMPI PUSH1 0x0 DUP1 REVERT JUMPDEST POP MLOAD PUSH2 0x16F4 JUMPI PUSH1 0x40 DUP1 MLOAD PUSH3 0x461BCD PUSH1 0xE5 SHL DUP2 MSTORE PUSH1 0x20 PUSH1 0x4 DUP3 ADD MSTORE PUSH1 0x12 PUSH1 0x24 DUP3 ADD MSTORE PUSH18 0x2832B936B4B9B9B4B7B7103232B734B2B217 PUSH1 0x71 SHL PUSH1 0x44 DUP3 ADD MSTORE SWAP1 MLOAD SWAP1 DUP2 SWAP1 SUB PUSH1 0x64 ADD SWAP1 REVERT JUMPDEST PUSH1 0x4 DUP1 SLOAD PUSH1 0x40 DUP1 MLOAD PUSH4 0x2501FAA5 PUSH1 0xE0 SHL DUP2 MSTORE SWAP3 DUP4 ADD DUP6 SWAP1 MSTORE PUSH1 0x1 PUSH1 0x1 PUSH1 0xA0 SHL SUB DUP10 DUP2 AND PUSH1 0x24 DUP6 ADD MSTORE SWAP1 MLOAD SWAP2 AND SWAP2 PUSH4 0x2501FAA5 SWAP2 PUSH1 0x44 DUP1 DUP4 ADD SWAP3 PUSH1 0x0 SWAP3 SWAP2 SWAP1 DUP3 SWAP1 SUB ADD DUP2 DUP4 DUP8 DUP1 EXTCODESIZE ISZERO DUP1 ISZERO PUSH2 0x1747 JUMPI PUSH1 0x0 DUP1 REVERT JUMPDEST POP GAS CALL ISZERO DUP1 ISZERO PUSH2 0x175B JUMPI RETURNDATASIZE PUSH1 0x0 DUP1 RETURNDATACOPY RETURNDATASIZE PUSH1 0x0 REVERT JUMPDEST POP POP POP POP POP POP POP POP POP POP POP JUMP JUMPDEST PUSH1 0x4 DUP1 SLOAD PUSH1 0x40 DUP1 MLOAD PUSH4 0x5C62C2F PUSH1 0xE0 SHL DUP2 MSTORE CALLER SWAP4 DUP2 ADD SWAP4 SWAP1 SWAP4 MSTORE MLOAD PUSH2 0x17EB SWAP3 PUSH1 0x1 PUSH1 0x1 PUSH1 0xA0 SHL SUB SWAP1 SWAP3 AND SWAP2 PUSH4 0x5C62C2F SWAP2 PUSH1 0x24 DUP1 DUP4 ADD SWAP3 PUSH1 0x20 SWAP3 SWAP2 SWAP1 DUP3 SWAP1 SUB ADD DUP2 DUP7 DUP1 EXTCODESIZE ISZERO DUP1 ISZERO PUSH2 0x17B8 JUMPI PUSH1 0x0 DUP1 REVERT JUMPDEST POP GAS STATICCALL ISZERO DUP1 ISZERO PUSH2 0x17CC JUMPI RETURNDATASIZE PUSH1 0x0 DUP1 RETURNDATACOPY RETURNDATASIZE PUSH1 0x0 REVERT JUMPDEST POP POP POP POP PUSH1 0x40 MLOAD RETURNDATASIZE PUSH1 0x20 DUP2 LT ISZERO PUSH2 0x17E2 JUMPI PUSH1 0x0 DUP1 REVERT JUMPDEST POP MLOAD DUP4 DUP4 PUSH2 0x37E3 JUMP JUMPDEST POP POP POP JUMP JUMPDEST PUSH2 0x17FA DUP6 DUP4 PUSH2 0x3625 JUMP JUMPDEST PUSH2 0x1805 DUP6 DUP6 DUP5 PUSH2 0x3DFB JUMP JUMPDEST PUSH1 0x0 DUP5 SWAP1 POP DUP1 PUSH1 0x1 PUSH1 0x1 PUSH1 0xA0 SHL SUB AND PUSH4 0x3AAAA8A0 CALLER DUP9 DUP8 DUP8 DUP8 PUSH1 0x40 MLOAD DUP7 PUSH4 0xFFFFFFFF AND PUSH1 0xE0 SHL DUP2 MSTORE PUSH1 0x4 ADD DUP1 DUP7 PUSH1 0x1 PUSH1 0x1 PUSH1 0xA0 SHL SUB AND PUSH1 0x1 PUSH1 0x1 PUSH1 0xA0 SHL SUB AND DUP2 MSTORE PUSH1 0x20 ADD DUP6 DUP2 MSTORE PUSH1 0x20 ADD DUP5 PUSH1 0x1 PUSH1 0x1 PUSH1 0xA0 SHL SUB AND PUSH1 0x1 PUSH1 0x1 PUSH1 0xA0 SHL SUB AND DUP2 MSTORE PUSH1 0x20 ADD DUP4 DUP2 MSTORE PUSH1 0x20 ADD DUP1 PUSH1 0x20 ADD DUP3 DUP2 SUB DUP3 MSTORE DUP4 DUP2 DUP2 MLOAD DUP2 MSTORE PUSH1 0x20 ADD SWAP2 POP DUP1 MLOAD SWAP1 PUSH1 0x20 ADD SWAP1 DUP1 DUP4 DUP4 PUSH1 0x0 JUMPDEST DUP4 DUP2 LT ISZERO PUSH2 0x18A6 JUMPI DUP2 DUP2 ADD MLOAD DUP4 DUP3 ADD MSTORE PUSH1 0x20 ADD PUSH2 0x188E JUMP JUMPDEST POP POP POP POP SWAP1 POP SWAP1 DUP2 ADD SWAP1 PUSH1 0x1F AND DUP1 ISZERO PUSH2 0x18D3 JUMPI DUP1 DUP3 SUB DUP1 MLOAD PUSH1 0x1 DUP4 PUSH1 0x20 SUB PUSH2 0x100 EXP SUB NOT AND DUP2 MSTORE PUSH1 0x20 ADD SWAP2 POP JUMPDEST POP SWAP7 POP POP POP POP POP POP POP PUSH1 0x0 PUSH1 0x40 MLOAD DUP1 DUP4 SUB DUP2 PUSH1 0x0 DUP8 DUP1 EXTCODESIZE ISZERO DUP1 ISZERO PUSH2 0x18F6 JUMPI PUSH1 0x0 DUP1 REVERT JUMPDEST POP GAS CALL ISZERO DUP1 ISZERO PUSH2 0x190A JUMPI RETURNDATASIZE PUSH1 0x0 DUP1 RETURNDATACOPY RETURNDATASIZE PUSH1 0x0 REVERT JUMPDEST POP POP PUSH1 0x40 MLOAD PUSH1 0x1 PUSH1 0x1 PUSH1 0xA0 SHL SUB DUP8 AND SWAP3 POP CALLER SWAP2 POP PUSH32 0x4BF145994459E88B08345BBE483CA295AC2305DF746C75740DD9D837344A9ACF SWAP1 PUSH1 0x0 SWAP1 LOG3 POP POP POP POP POP POP JUMP JUMPDEST DUP1 DUP1 TIMESTAMP LT ISZERO DUP1 ISZERO PUSH2 0x1960 JUMPI POP PUSH1 0x9 SLOAD DUP2 ADD TIMESTAMP LT JUMPDEST PUSH2 0x19AB JUMPI PUSH1 0x40 DUP1 MLOAD PUSH3 0x461BCD PUSH1 0xE5 SHL DUP2 MSTORE PUSH1 0x20 PUSH1 0x4 DUP3 ADD MSTORE PUSH1 0x17 PUSH1 0x24 DUP3 ADD MSTORE PUSH23 0x2A34B6B2B9BA30B6B81034B9903737BA103B30B634B217 PUSH1 0x49 SHL PUSH1 0x44 DUP3 ADD MSTORE SWAP1 MLOAD SWAP1 DUP2 SWAP1 SUB PUSH1 0x64 ADD SWAP1 REVERT JUMPDEST PUSH1 0x4 DUP1 SLOAD PUSH1 0x40 DUP1 MLOAD PUSH4 0x5C62C2F PUSH1 0xE0 SHL DUP2 MSTORE PUSH1 0x1 PUSH1 0x1 PUSH1 0xA0 SHL SUB DUP12 DUP2 AND SWAP5 DUP3 ADD SWAP5 SWAP1 SWAP5 MSTORE SWAP1 MLOAD PUSH1 0x0 SWAP4 SWAP1 SWAP3 AND SWAP2 PUSH4 0x5C62C2F SWAP2 PUSH1 0x24 DUP1 DUP3 ADD SWAP3 PUSH1 0x20 SWAP3 SWAP1 SWAP2 SWAP1 DUP3 SWAP1 SUB ADD DUP2 DUP7 DUP1 EXTCODESIZE ISZERO DUP1 ISZERO PUSH2 0x19FE JUMPI PUSH1 0x0 DUP1 REVERT JUMPDEST POP GAS STATICCALL ISZERO DUP1 ISZERO PUSH2 0x1A12 JUMPI RETURNDATASIZE PUSH1 0x0 DUP1 RETURNDATACOPY RETURNDATASIZE PUSH1 0x0 REVERT JUMPDEST POP POP POP POP PUSH1 0x40 MLOAD RETURNDATASIZE PUSH1 0x20 DUP2 LT ISZERO PUSH2 0x1A28 JUMPI PUSH1 0x0 DUP1 REVERT JUMPDEST POP MLOAD PUSH1 0x4 SLOAD PUSH1 0x40 MLOAD PUSH1 0x19 PUSH1 0xF8 SHL PUSH1 0x20 DUP3 ADD DUP2 DUP2 MSTORE PUSH1 0x0 PUSH1 0x21 DUP5 ADD DUP2 SWAP1 MSTORE ADDRESS PUSH1 0x60 DUP2 SWAP1 SHL PUSH1 0x22 DUP7 ADD MSTORE SWAP6 SWAP7 POP PUSH1 0x1 PUSH1 0x1 PUSH1 0xA0 SHL SUB SWAP1 SWAP5 AND SWAP5 PUSH4 0x8677EBE8 SWAP5 DUP15 SWAP5 SWAP1 SWAP3 DUP9 SWAP2 DUP16 SWAP2 DUP13 SWAP2 PUSH1 0x36 ADD PUSH1 0x39 PUSH2 0x504B DUP3 CODECOPY PUSH1 0x39 ADD DUP5 DUP2 MSTORE PUSH1 0x20 ADD DUP4 DUP1 MLOAD SWAP1 PUSH1 0x20 ADD SWAP1 PUSH1 0x20 MUL DUP1 DUP4 DUP4 PUSH1 0x0 JUMPDEST DUP4 DUP2 LT ISZERO PUSH2 0x1AAB JUMPI DUP2 DUP2 ADD MLOAD DUP4 DUP3 ADD MSTORE PUSH1 0x20 ADD PUSH2 0x1A93 JUMP JUMPDEST POP POP POP POP SWAP1 POP ADD DUP3 DUP2 MSTORE PUSH1 0x20 ADD SWAP7 POP POP POP POP POP POP POP PUSH1 0x40 MLOAD PUSH1 0x20 DUP2 DUP4 SUB SUB DUP2 MSTORE SWAP1 PUSH1 0x40 MSTORE DUP1 MLOAD SWAP1 PUSH1 0x20 ADD KECCAK256 DUP10 DUP10 DUP10 PUSH1 0x40 MLOAD DUP7 PUSH4 0xFFFFFFFF AND PUSH1 0xE0 SHL DUP2 MSTORE PUSH1 0x4 ADD DUP1 DUP7 PUSH1 0x1 PUSH1 0x1 PUSH1 0xA0 SHL SUB AND PUSH1 0x1 PUSH1 0x1 PUSH1 0xA0 SHL SUB AND DUP2 MSTORE PUSH1 0x20 ADD DUP6 DUP2 MSTORE PUSH1 0x20 ADD DUP5 PUSH1 0xFF AND PUSH1 0xFF AND DUP2 MSTORE PUSH1 0x20 ADD DUP4 DUP2 MSTORE PUSH1 0x20 ADD DUP3 DUP2 MSTORE PUSH1 0x20 ADD SWAP6 POP POP POP POP POP POP PUSH1 0x20 PUSH1 0x40 MLOAD DUP1 DUP4 SUB DUP2 DUP7 DUP1 EXTCODESIZE ISZERO DUP1 ISZERO PUSH2 0x1B41 JUMPI PUSH1 0x0 DUP1 REVERT JUMPDEST POP GAS STATICCALL ISZERO DUP1 ISZERO PUSH2 0x1B55 JUMPI RETURNDATASIZE PUSH1 0x0 DUP1 RETURNDATACOPY RETURNDATASIZE PUSH1 0x0 REVERT JUMPDEST POP POP POP POP PUSH1 0x40 MLOAD RETURNDATASIZE PUSH1 0x20 DUP2 LT ISZERO PUSH2 0x1B6B JUMPI PUSH1 0x0 DUP1 REVERT JUMPDEST POP MLOAD PUSH2 0x1BB3 JUMPI PUSH1 0x40 DUP1 MLOAD PUSH3 0x461BCD PUSH1 0xE5 SHL DUP2 MSTORE PUSH1 0x20 PUSH1 0x4 DUP3 ADD MSTORE PUSH1 0x12 PUSH1 0x24 DUP3 ADD MSTORE PUSH18 0x2832B936B4B9B9B4B7B7103232B734B2B217 PUSH1 0x71 SHL PUSH1 0x44 DUP3 ADD MSTORE SWAP1 MLOAD SWAP1 DUP2 SWAP1 SUB PUSH1 0x64 ADD SWAP1 REVERT JUMPDEST PUSH1 0x4 DUP1 SLOAD PUSH1 0x40 DUP1 MLOAD PUSH4 0x960B11F5 PUSH1 0xE0 SHL DUP2 MSTORE SWAP3 DUP4 ADD DUP5 DUP2 MSTORE PUSH1 0x24 DUP5 ADD SWAP2 DUP3 MSTORE DUP11 MLOAD PUSH1 0x44 DUP6 ADD MSTORE DUP11 MLOAD PUSH1 0x1 PUSH1 0x1 PUSH1 0xA0 SHL SUB SWAP1 SWAP4 AND SWAP4 PUSH4 0x960B11F5 SWAP4 DUP7 SWAP4 DUP14 SWAP4 SWAP3 SWAP1 SWAP2 PUSH1 0x64 SWAP1 SWAP2 ADD SWAP1 PUSH1 0x20 DUP1 DUP7 ADD SWAP2 MUL DUP1 DUP4 DUP4 PUSH1 0x0 JUMPDEST DUP4 DUP2 LT ISZERO PUSH2 0x1C1F JUMPI DUP2 DUP2 ADD MLOAD DUP4 DUP3 ADD MSTORE PUSH1 0x20 ADD PUSH2 0x1C07 JUMP JUMPDEST POP POP POP POP SWAP1 POP ADD SWAP4 POP POP POP POP PUSH1 0x0 PUSH1 0x40 MLOAD DUP1 DUP4 SUB DUP2 PUSH1 0x0 DUP8 DUP1 EXTCODESIZE ISZERO DUP1 ISZERO PUSH2 0x1C45 JUMPI PUSH1 0x0 DUP1 REVERT JUMPDEST POP GAS CALL ISZERO DUP1 ISZERO PUSH2 0x1C59 JUMPI RETURNDATASIZE PUSH1 0x0 DUP1 RETURNDATACOPY RETURNDATASIZE PUSH1 0x0 REVERT JUMPDEST POP POP POP POP POP POP POP POP POP POP POP POP JUMP JUMPDEST PUSH1 0x9 SLOAD DUP2 JUMP JUMPDEST PUSH1 0x0 PUSH1 0x60 DUP8 MLOAD PUSH1 0x1 ADD PUSH1 0x40 MLOAD SWAP1 DUP1 DUP3 MSTORE DUP1 PUSH1 0x20 MUL PUSH1 0x20 ADD DUP3 ADD PUSH1 0x40 MSTORE DUP1 ISZERO PUSH2 0x1C9F JUMPI DUP2 PUSH1 0x20 ADD PUSH1 0x20 DUP3 MUL DUP1 CODESIZE DUP4 CODECOPY ADD SWAP1 POP JUMPDEST POP SWAP1 POP ADDRESS DUP2 PUSH1 0x0 DUP2 MLOAD DUP2 LT PUSH2 0x1CB0 JUMPI INVALID JUMPDEST PUSH1 0x20 MUL PUSH1 0x20 ADD ADD SWAP1 PUSH1 0x1 PUSH1 0x1 PUSH1 0xA0 SHL SUB AND SWAP1 DUP2 PUSH1 0x1 PUSH1 0x1 PUSH1 0xA0 SHL SUB AND DUP2 MSTORE POP POP PUSH1 0x0 JUMPDEST DUP9 MLOAD DUP2 LT ISZERO PUSH2 0x1D1F JUMPI DUP9 DUP2 DUP2 MLOAD DUP2 LT PUSH2 0x1CE8 JUMPI INVALID JUMPDEST PUSH1 0x20 MUL PUSH1 0x20 ADD ADD MLOAD DUP3 DUP3 PUSH1 0x1 ADD DUP2 MLOAD DUP2 LT PUSH2 0x1CFF JUMPI INVALID JUMPDEST PUSH1 0x1 PUSH1 0x1 PUSH1 0xA0 SHL SUB SWAP1 SWAP3 AND PUSH1 0x20 SWAP3 DUP4 MUL SWAP2 SWAP1 SWAP2 ADD SWAP1 SWAP2 ADD MSTORE PUSH1 0x1 ADD PUSH2 0x1CD3 JUMP JUMPDEST POP PUSH1 0x4 SLOAD PUSH1 0x40 DUP1 MLOAD PUSH1 0x0 DUP1 DUP3 MSTORE PUSH1 0x20 DUP3 ADD SWAP1 SWAP3 MSTORE SWAP1 SWAP2 PUSH1 0x1 PUSH1 0x1 PUSH1 0xA0 SHL SUB AND SWAP1 PUSH4 0x14FB5646 SWAP1 DUP14 SWAP1 DUP14 SWAP1 DUP7 SWAP1 DUP13 DUP13 DUP13 DUP13 PUSH1 0x40 MLOAD DUP10 PUSH4 0xFFFFFFFF AND PUSH1 0xE0 SHL DUP2 MSTORE PUSH1 0x4 ADD DUP1 DUP10 PUSH1 0x1 PUSH1 0x1 PUSH1 0xA0 SHL SUB AND PUSH1 0x1 PUSH1 0x1 PUSH1 0xA0 SHL SUB AND DUP2 MSTORE PUSH1 0x20 ADD DUP9 PUSH1 0x1 PUSH1 0x1 PUSH1 0xA0 SHL SUB AND PUSH1 0x1 PUSH1 0x1 PUSH1 0xA0 SHL SUB AND DUP2 MSTORE PUSH1 0x20 ADD DUP1 PUSH1 0x20 ADD DUP1 PUSH1 0x20 ADD DUP8 PUSH1 0xFF AND PUSH1 0xFF AND DUP2 MSTORE PUSH1 0x20 ADD DUP7 DUP2 MSTORE PUSH1 0x20 ADD DUP6 DUP2 MSTORE PUSH1 0x20 ADD DUP5 DUP2 MSTORE PUSH1 0x20 ADD DUP4 DUP2 SUB DUP4 MSTORE DUP10 DUP2 DUP2 MLOAD DUP2 MSTORE PUSH1 0x20 ADD SWAP2 POP DUP1 MLOAD SWAP1 PUSH1 0x20 ADD SWAP1 PUSH1 0x20 MUL DUP1 DUP4 DUP4 PUSH1 0x0 JUMPDEST DUP4 DUP2 LT ISZERO PUSH2 0x1DF0 JUMPI DUP2 DUP2 ADD MLOAD DUP4 DUP3 ADD MSTORE PUSH1 0x20 ADD PUSH2 0x1DD8 JUMP JUMPDEST POP POP POP POP SWAP1 POP ADD DUP4 DUP2 SUB DUP3 MSTORE DUP9 DUP2 DUP2 MLOAD DUP2 MSTORE PUSH1 0x20 ADD SWAP2 POP DUP1 MLOAD SWAP1 PUSH1 0x20 ADD SWAP1 PUSH1 0x20 MUL DUP1 DUP4 DUP4 PUSH1 0x0 JUMPDEST DUP4 DUP2 LT ISZERO PUSH2 0x1E2F JUMPI DUP2 DUP2 ADD MLOAD DUP4 DUP3 ADD MSTORE PUSH1 0x20 ADD PUSH2 0x1E17 JUMP JUMPDEST POP POP POP POP SWAP1 POP ADD SWAP11 POP POP POP POP POP POP POP POP POP POP POP PUSH1 0x20 PUSH1 0x40 MLOAD DUP1 DUP4 SUB DUP2 PUSH1 0x0 DUP8 DUP1 EXTCODESIZE ISZERO DUP1 ISZERO PUSH2 0x1E5C JUMPI PUSH1 0x0 DUP1 REVERT JUMPDEST POP GAS CALL ISZERO DUP1 ISZERO PUSH2 0x1E70 JUMPI RETURNDATASIZE PUSH1 0x0 DUP1 RETURNDATACOPY RETURNDATASIZE PUSH1 0x0 REVERT JUMPDEST POP POP POP POP PUSH1 0x40 MLOAD RETURNDATASIZE PUSH1 0x20 DUP2 LT ISZERO PUSH2 0x1E86 JUMPI PUSH1 0x0 DUP1 REVERT JUMPDEST DUP2 ADD SWAP1 DUP1 DUP1 MLOAD SWAP1 PUSH1 0x20 ADD SWAP1 SWAP3 SWAP2 SWAP1 POP POP POP SWAP1 POP PUSH2 0x14D2 DUP2 PUSH1 0x7 PUSH1 0x0 SWAP1 SLOAD SWAP1 PUSH2 0x100 EXP SWAP1 DIV PUSH1 0x1 PUSH1 0x1 PUSH1 0xA0 SHL SUB AND PUSH1 0x1 PUSH1 0x0 DUP15 DUP14 PUSH1 0x40 MLOAD PUSH1 0x20 ADD DUP1 DUP4 PUSH1 0x1 PUSH1 0x1 PUSH1 0xA0 SHL SUB AND PUSH1 0x1 PUSH1 0x1 PUSH1 0xA0 SHL SUB AND DUP2 MSTORE PUSH1 0x20 ADD DUP1 PUSH1 0x20 ADD DUP3 DUP2 SUB DUP3 MSTORE DUP4 DUP2 DUP2 MLOAD DUP2 MSTORE PUSH1 0x20 ADD SWAP2 POP DUP1 MLOAD SWAP1 PUSH1 0x20 ADD SWAP1 DUP1 DUP4 DUP4 PUSH1 0x0 JUMPDEST DUP4 DUP2 LT ISZERO PUSH2 0x1F11 JUMPI DUP2 DUP2 ADD MLOAD DUP4 DUP3 ADD MSTORE PUSH1 0x20 ADD PUSH2 0x1EF9 JUMP JUMPDEST POP POP POP POP SWAP1 POP SWAP1 DUP2 ADD SWAP1 PUSH1 0x1F AND DUP1 ISZERO PUSH2 0x1F3E JUMPI DUP1 DUP3 SUB DUP1 MLOAD PUSH1 0x1 DUP4 PUSH1 0x20 SUB PUSH2 0x100 EXP SUB NOT AND DUP2 MSTORE PUSH1 0x20 ADD SWAP2 POP JUMPDEST POP SWAP4 POP POP POP POP PUSH1 0x40 MLOAD PUSH1 0x20 DUP2 DUP4 SUB SUB DUP2 MSTORE SWAP1 PUSH1 0x40 MSTORE PUSH2 0x3FD6 JUMP JUMPDEST DUP4 MLOAD DUP4 MLOAD DUP4 MLOAD DUP4 MLOAD PUSH2 0x1F72 SWAP4 DUP12 SWAP4 DUP12 SWAP4 SWAP2 SWAP3 SWAP1 SWAP2 SWAP1 PUSH2 0x194C JUMP JUMPDEST PUSH2 0x1F9C DUP8 DUP7 DUP7 PUSH1 0x1 PUSH1 0x20 MUL ADD MLOAD DUP7 PUSH1 0x1 PUSH1 0x20 MUL ADD MLOAD DUP7 PUSH1 0x1 PUSH1 0x20 MUL ADD MLOAD DUP7 PUSH1 0x1 PUSH1 0x20 MUL ADD MLOAD PUSH2 0x3355 JUMP JUMPDEST PUSH1 0x4 DUP1 SLOAD PUSH1 0x40 DUP1 MLOAD PUSH4 0x5C62C2F PUSH1 0xE0 SHL DUP2 MSTORE PUSH1 0x1 PUSH1 0x1 PUSH1 0xA0 SHL SUB DUP12 DUP2 AND SWAP5 DUP3 ADD SWAP5 SWAP1 SWAP5 MSTORE SWAP1 MLOAD PUSH1 0x0 SWAP4 SWAP1 SWAP3 AND SWAP2 PUSH4 0x5C62C2F SWAP2 PUSH1 0x24 DUP1 DUP3 ADD SWAP3 PUSH1 0x20 SWAP3 SWAP1 SWAP2 SWAP1 DUP3 SWAP1 SUB ADD DUP2 DUP7 DUP1 EXTCODESIZE ISZERO DUP1 ISZERO PUSH2 0x1FEF JUMPI PUSH1 0x0 DUP1 REVERT JUMPDEST POP GAS STATICCALL ISZERO DUP1 ISZERO PUSH2 0x2003 JUMPI RETURNDATASIZE PUSH1 0x0 DUP1 RETURNDATACOPY RETURNDATASIZE PUSH1 0x0 REVERT JUMPDEST POP POP POP POP PUSH1 0x40 MLOAD RETURNDATASIZE PUSH1 0x20 DUP2 LT ISZERO PUSH2 0x2019 JUMPI PUSH1 0x0 DUP1 REVERT JUMPDEST POP MLOAD PUSH1 0x40 DUP1 MLOAD PUSH1 0x1 PUSH1 0x1 PUSH1 0xA0 SHL SUB DUP12 AND SWAP2 DUP2 ADD SWAP2 SWAP1 SWAP2 MSTORE PUSH1 0x60 DUP1 DUP3 MSTORE DUP10 MLOAD SWAP1 DUP3 ADD MSTORE DUP9 MLOAD SWAP2 SWAP3 POP DUP3 SWAP2 PUSH32 0x9395986444296878F4CCC8A3E3A2D2D64A2988FB3CF2FD45FD7ABE7449025626 SWAP2 DUP11 SWAP2 DUP11 SWAP2 DUP14 SWAP2 DUP2 SWAP1 PUSH1 0x20 DUP3 DUP2 ADD SWAP2 PUSH1 0x80 DUP5 ADD SWAP2 DUP9 DUP2 ADD SWAP2 MUL DUP1 DUP4 DUP4 PUSH1 0x0 JUMPDEST DUP4 DUP2 LT ISZERO PUSH2 0x209A JUMPI DUP2 DUP2 ADD MLOAD DUP4 DUP3 ADD MSTORE PUSH1 0x20 ADD PUSH2 0x2082 JUMP JUMPDEST POP POP POP POP SWAP1 POP ADD DUP4 DUP2 SUB DUP3 MSTORE DUP6 DUP2 DUP2 MLOAD DUP2 MSTORE PUSH1 0x20 ADD SWAP2 POP DUP1 MLOAD SWAP1 PUSH1 0x20 ADD SWAP1 PUSH1 0x20 MUL DUP1 DUP4 DUP4 PUSH1 0x0 JUMPDEST DUP4 DUP2 LT ISZERO PUSH2 0x20D9 JUMPI DUP2 DUP2 ADD MLOAD DUP4 DUP3 ADD MSTORE PUSH1 0x20 ADD PUSH2 0x20C1 JUMP JUMPDEST POP POP POP POP SWAP1 POP ADD SWAP6 POP POP POP POP POP POP PUSH1 0x40 MLOAD DUP1 SWAP2 SUB SWAP1 LOG2 POP POP POP POP POP POP POP POP JUMP JUMPDEST PUSH1 0x4 DUP1 SLOAD PUSH1 0x40 DUP1 MLOAD PUSH4 0x5C62C2F PUSH1 0xE0 SHL DUP2 MSTORE CALLER SWAP4 DUP2 ADD SWAP4 SWAP1 SWAP4 MSTORE MLOAD PUSH2 0x217C SWAP3 PUSH1 0x1 PUSH1 0x1 PUSH1 0xA0 SHL SUB SWAP1 SWAP3 AND SWAP2 PUSH4 0x5C62C2F SWAP2 PUSH1 0x24 DUP1 DUP4 ADD SWAP3 PUSH1 0x20 SWAP3 SWAP2 SWAP1 DUP3 SWAP1 SUB ADD DUP2 DUP7 DUP1 EXTCODESIZE ISZERO DUP1 ISZERO PUSH2 0x2149 JUMPI PUSH1 0x0 DUP1 REVERT JUMPDEST POP GAS STATICCALL ISZERO DUP1 ISZERO PUSH2 0x215D JUMPI RETURNDATASIZE PUSH1 0x0 DUP1 RETURNDATACOPY RETURNDATASIZE PUSH1 0x0 REVERT JUMPDEST POP POP POP POP PUSH1 0x40 MLOAD RETURNDATASIZE PUSH1 0x20 DUP2 LT ISZERO PUSH2 0x2173 JUMPI PUSH1 0x0 DUP1 REVERT JUMPDEST POP MLOAD DUP4 DUP4 PUSH2 0x437E JUMP JUMPDEST POP POP JUMP JUMPDEST PUSH2 0x2188 PUSH2 0x23B0 JUMP JUMPDEST PUSH2 0x2191 JUMPI PUSH1 0x0 DUP1 REVERT JUMPDEST PUSH1 0x0 DUP1 SLOAD PUSH1 0x40 MLOAD PUSH1 0x1 PUSH1 0x1 PUSH1 0xA0 SHL SUB SWAP1 SWAP2 AND SWAP1 PUSH32 0x8BE0079C531659141344CD1FD0A4F28419497F9722A3DAAFE3B4186F6B6457E0 SWAP1 DUP4 SWAP1 LOG3 PUSH1 0x0 DUP1 SLOAD PUSH1 0x1 PUSH1 0x1 PUSH1 0xA0 SHL SUB NOT AND SWAP1 SSTORE JUMP JUMPDEST PUSH1 0x5 SLOAD PUSH1 0x1 PUSH1 0x1 PUSH1 0xA0 SHL SUB AND DUP2 JUMP JUMPDEST PUSH2 0x21F2 PUSH2 0x23B0 JUMP JUMPDEST PUSH2 0x21FB JUMPI PUSH1 0x0 DUP1 REVERT JUMPDEST PUSH1 0x7 DUP1 SLOAD PUSH1 0x1 PUSH1 0x1 PUSH1 0xA0 SHL SUB NOT SWAP1 DUP2 AND PUSH1 0x1 PUSH1 0x1 PUSH1 0xA0 SHL SUB SWAP4 DUP5 AND OR SWAP2 DUP3 SWAP1 SSTORE PUSH1 0x8 DUP1 SLOAD SWAP3 SWAP1 SWAP4 AND SWAP2 AND OR SWAP1 SSTORE JUMP JUMPDEST PUSH1 0x4 DUP1 SLOAD PUSH1 0x40 DUP1 MLOAD PUSH4 0x5C62C2F PUSH1 0xE0 SHL DUP2 MSTORE PUSH1 0x1 PUSH1 0x1 PUSH1 0xA0 SHL SUB DUP14 DUP2 AND SWAP5 DUP3 ADD SWAP5 SWAP1 SWAP5 MSTORE SWAP1 MLOAD PUSH1 0x0 SWAP4 SWAP1 SWAP3 AND SWAP2 PUSH4 0x5C62C2F SWAP2 PUSH1 0x24 DUP1 DUP3 ADD SWAP3 PUSH1 0x20 SWAP3 SWAP1 SWAP2 SWAP1 DUP3 SWAP1 SUB ADD DUP2 DUP7 DUP1 EXTCODESIZE ISZERO DUP1 ISZERO PUSH2 0x227D JUMPI PUSH1 0x0 DUP1 REVERT JUMPDEST POP GAS STATICCALL ISZERO DUP1 ISZERO PUSH2 0x2291 JUMPI RETURNDATASIZE PUSH1 0x0 DUP1 RETURNDATACOPY RETURNDATASIZE PUSH1 0x0 REVERT JUMPDEST POP POP POP POP PUSH1 0x40 MLOAD RETURNDATASIZE PUSH1 0x20 DUP2 LT ISZERO PUSH2 0x22A7 JUMPI PUSH1 0x0 DUP1 REVERT JUMPDEST POP MLOAD SWAP1 POP PUSH2 0x22BD DUP11 DUP3 DUP12 DUP12 DUP12 DUP12 DUP12 DUP12 DUP12 DUP12 PUSH2 0x4586 JUMP JUMPDEST PUSH2 0x22CA DUP2 DUP11 DUP11 DUP11 DUP11 PUSH2 0x3FD6 JUMP JUMPDEST POP POP POP POP POP POP POP POP POP POP JUMP JUMPDEST PUSH1 0x4 DUP1 SLOAD PUSH1 0x40 DUP1 MLOAD PUSH4 0x29D4B4C5 PUSH1 0xE1 SHL DUP2 MSTORE SWAP3 DUP4 ADD DUP9 SWAP1 MSTORE CALLER PUSH1 0x24 DUP5 ADD MSTORE MLOAD PUSH1 0x1 PUSH1 0x1 PUSH1 0xA0 SHL SUB SWAP1 SWAP2 AND SWAP2 PUSH4 0x53A9698A SWAP2 PUSH1 0x44 DUP1 DUP4 ADD SWAP3 PUSH1 0x20 SWAP3 SWAP2 SWAP1 DUP3 SWAP1 SUB ADD DUP2 DUP7 DUP1 EXTCODESIZE ISZERO DUP1 ISZERO PUSH2 0x2326 JUMPI PUSH1 0x0 DUP1 REVERT JUMPDEST POP GAS STATICCALL ISZERO DUP1 ISZERO PUSH2 0x233A JUMPI RETURNDATASIZE PUSH1 0x0 DUP1 RETURNDATACOPY RETURNDATASIZE PUSH1 0x0 REVERT JUMPDEST POP POP POP POP PUSH1 0x40 MLOAD RETURNDATASIZE PUSH1 0x20 DUP2 LT ISZERO PUSH2 0x2350 JUMPI PUSH1 0x0 DUP1 REVERT JUMPDEST POP MLOAD PUSH2 0x238D JUMPI PUSH1 0x40 MLOAD PUSH3 0x461BCD PUSH1 0xE5 SHL DUP2 MSTORE PUSH1 0x4 ADD DUP1 DUP1 PUSH1 0x20 ADD DUP3 DUP2 SUB DUP3 MSTORE PUSH1 0x33 DUP2 MSTORE PUSH1 0x20 ADD DUP1 PUSH2 0x4DDF PUSH1 0x33 SWAP2 CODECOPY PUSH1 0x40 ADD SWAP2 POP POP PUSH1 0x40 MLOAD DUP1 SWAP2 SUB SWAP1 REVERT JUMPDEST PUSH2 0x239A DUP6 DUP6 DUP6 DUP6 DUP6 PUSH2 0x3FD6 JUMP JUMPDEST POP POP POP POP POP JUMP JUMPDEST PUSH1 0x0 SLOAD PUSH1 0x1 PUSH1 0x1 PUSH1 0xA0 SHL SUB AND SWAP1 JUMP JUMPDEST PUSH1 0x0 SLOAD PUSH1 0x1 PUSH1 0x1 PUSH1 0xA0 SHL SUB AND CALLER EQ SWAP1 JUMP JUMPDEST CALLER PUSH1 0x1 PUSH1 0x1 PUSH1 0xA0 SHL SUB DUP4 AND EQ PUSH2 0x2412 JUMPI PUSH1 0x40 DUP1 MLOAD PUSH3 0x461BCD PUSH1 0xE5 SHL DUP2 MSTORE PUSH1 0x20 PUSH1 0x4 DUP3 ADD MSTORE PUSH1 0x11 PUSH1 0x24 DUP3 ADD MSTORE PUSH17 0x26B0B63337B936B2B21034B7383ABA3997 PUSH1 0x79 SHL PUSH1 0x44 DUP3 ADD MSTORE SWAP1 MLOAD SWAP1 DUP2 SWAP1 SUB PUSH1 0x64 ADD SWAP1 REVERT JUMPDEST PUSH1 0x5 SLOAD PUSH1 0x1 PUSH1 0x1 PUSH1 0xA0 SHL SUB DUP4 DUP2 AND SWAP2 AND EQ PUSH2 0x245E JUMPI PUSH1 0x40 MLOAD PUSH3 0x461BCD PUSH1 0xE5 SHL DUP2 MSTORE PUSH1 0x4 ADD DUP1 DUP1 PUSH1 0x20 ADD DUP3 DUP2 SUB DUP3 MSTORE PUSH1 0x2D DUP2 MSTORE PUSH1 0x20 ADD DUP1 PUSH2 0x4F61 PUSH1 0x2D SWAP2 CODECOPY PUSH1 0x40 ADD SWAP2 POP POP PUSH1 0x40 MLOAD DUP1 SWAP2 SUB SWAP1 REVERT JUMPDEST PUSH1 0x20 DUP2 MLOAD GT PUSH2 0x2702 JUMPI PUSH1 0x6 SLOAD PUSH1 0x40 DUP1 MLOAD PUSH4 0x23B872DD PUSH1 0xE0 SHL DUP2 MSTORE PUSH1 0x1 PUSH1 0x1 PUSH1 0xA0 SHL SUB DUP8 DUP2 AND PUSH1 0x4 DUP4 ADD MSTORE ADDRESS PUSH1 0x24 DUP4 ADD MSTORE PUSH1 0x44 DUP3 ADD DUP8 SWAP1 MSTORE SWAP2 MLOAD SWAP2 SWAP1 SWAP3 AND SWAP2 PUSH4 0x23B872DD SWAP2 PUSH1 0x64 DUP1 DUP4 ADD SWAP3 PUSH1 0x20 SWAP3 SWAP2 SWAP1 DUP3 SWAP1 SUB ADD DUP2 PUSH1 0x0 DUP8 DUP1 EXTCODESIZE ISZERO DUP1 ISZERO PUSH2 0x24C3 JUMPI PUSH1 0x0 DUP1 REVERT JUMPDEST POP GAS CALL ISZERO DUP1 ISZERO PUSH2 0x24D7 JUMPI RETURNDATASIZE PUSH1 0x0 DUP1 RETURNDATACOPY RETURNDATASIZE PUSH1 0x0 REVERT JUMPDEST POP POP POP POP PUSH1 0x40 MLOAD RETURNDATASIZE PUSH1 0x20 DUP2 LT ISZERO PUSH2 0x24ED JUMPI PUSH1 0x0 DUP1 REVERT JUMPDEST POP MLOAD PUSH2 0x252A JUMPI PUSH1 0x40 MLOAD PUSH3 0x461BCD PUSH1 0xE5 SHL DUP2 MSTORE PUSH1 0x4 ADD DUP1 DUP1 PUSH1 0x20 ADD DUP3 DUP2 SUB DUP3 MSTORE PUSH1 0x23 DUP2 MSTORE PUSH1 0x20 ADD DUP1 PUSH2 0x4FCB PUSH1 0x23 SWAP2 CODECOPY PUSH1 0x40 ADD SWAP2 POP POP PUSH1 0x40 MLOAD DUP1 SWAP2 SUB SWAP1 REVERT JUMPDEST PUSH1 0x0 PUSH1 0x20 DUP3 MLOAD LT ISZERO PUSH2 0x25BA JUMPI PUSH1 0x4 DUP1 SLOAD PUSH1 0x40 DUP1 MLOAD PUSH4 0x5C62C2F PUSH1 0xE0 SHL DUP2 MSTORE PUSH1 0x1 PUSH1 0x1 PUSH1 0xA0 SHL SUB DUP10 DUP2 AND SWAP5 DUP3 ADD SWAP5 SWAP1 SWAP5 MSTORE SWAP1 MLOAD SWAP3 SWAP1 SWAP2 AND SWAP2 PUSH4 0x5C62C2F SWAP2 PUSH1 0x24 DUP1 DUP3 ADD SWAP3 PUSH1 0x20 SWAP3 SWAP1 SWAP2 SWAP1 DUP3 SWAP1 SUB ADD DUP2 DUP7 DUP1 EXTCODESIZE ISZERO DUP1 ISZERO PUSH2 0x2587 JUMPI PUSH1 0x0 DUP1 REVERT JUMPDEST POP GAS STATICCALL ISZERO DUP1 ISZERO PUSH2 0x259B JUMPI RETURNDATASIZE PUSH1 0x0 DUP1 RETURNDATACOPY RETURNDATASIZE PUSH1 0x0 REVERT JUMPDEST POP POP POP POP PUSH1 0x40 MLOAD RETURNDATASIZE PUSH1 0x20 DUP2 LT ISZERO PUSH2 0x25B1 JUMPI PUSH1 0x0 DUP1 REVERT JUMPDEST POP MLOAD SWAP1 POP PUSH2 0x2684 JUMP JUMPDEST DUP2 DUP1 PUSH1 0x20 ADD SWAP1 MLOAD PUSH1 0x20 DUP2 LT ISZERO PUSH2 0x25CF JUMPI PUSH1 0x0 DUP1 REVERT JUMPDEST POP MLOAD PUSH1 0x4 DUP1 SLOAD PUSH1 0x40 DUP1 MLOAD PUSH4 0x2DAD769D PUSH1 0xE1 SHL DUP2 MSTORE SWAP3 DUP4 ADD DUP5 SWAP1 MSTORE MLOAD SWAP3 SWAP4 POP PUSH1 0x1 PUSH1 0x1 PUSH1 0xA0 SHL SUB AND SWAP2 PUSH4 0x5B5AED3A SWAP2 PUSH1 0x24 DUP1 DUP3 ADD SWAP3 PUSH1 0x20 SWAP3 SWAP1 SWAP2 SWAP1 DUP3 SWAP1 SUB ADD DUP2 DUP7 DUP1 EXTCODESIZE ISZERO DUP1 ISZERO PUSH2 0x261D JUMPI PUSH1 0x0 DUP1 REVERT JUMPDEST POP GAS STATICCALL ISZERO DUP1 ISZERO PUSH2 0x2631 JUMPI RETURNDATASIZE PUSH1 0x0 DUP1 RETURNDATACOPY RETURNDATASIZE PUSH1 0x0 REVERT JUMPDEST POP POP POP POP PUSH1 0x40 MLOAD RETURNDATASIZE PUSH1 0x20 DUP2 LT ISZERO PUSH2 0x2647 JUMPI PUSH1 0x0 DUP1 REVERT JUMPDEST POP MLOAD PUSH2 0x2684 JUMPI PUSH1 0x40 MLOAD PUSH3 0x461BCD PUSH1 0xE5 SHL DUP2 MSTORE PUSH1 0x4 ADD DUP1 DUP1 PUSH1 0x20 ADD DUP3 DUP2 SUB DUP3 MSTORE PUSH1 0x21 DUP2 MSTORE PUSH1 0x20 ADD DUP1 PUSH2 0x4DBE PUSH1 0x21 SWAP2 CODECOPY PUSH1 0x40 ADD SWAP2 POP POP PUSH1 0x40 MLOAD DUP1 SWAP2 SUB SWAP1 REVERT JUMPDEST PUSH1 0x0 DUP2 DUP2 MSTORE PUSH1 0x1 PUSH1 0x20 MSTORE PUSH1 0x40 SWAP1 KECCAK256 SLOAD PUSH2 0x26A3 SWAP1 DUP6 PUSH4 0xFFFFFFFF PUSH2 0x4801 AND JUMP JUMPDEST PUSH1 0x1 PUSH1 0x0 DUP4 DUP2 MSTORE PUSH1 0x20 ADD SWAP1 DUP2 MSTORE PUSH1 0x20 ADD PUSH1 0x0 KECCAK256 DUP2 SWAP1 SSTORE POP DUP1 DUP6 PUSH1 0x1 PUSH1 0x1 PUSH1 0xA0 SHL SUB AND PUSH32 0xC03BD73422F0F423555852C3018D2296BEC6C3FB71372DE56D3CE8F5984D6812 DUP7 PUSH1 0x40 MLOAD DUP1 DUP3 DUP2 MSTORE PUSH1 0x20 ADD SWAP2 POP POP PUSH1 0x40 MLOAD DUP1 SWAP2 SUB SWAP1 LOG3 POP PUSH2 0x2B88 JUMP JUMPDEST PUSH1 0x0 DUP1 PUSH1 0x0 DUP1 PUSH1 0x60 DUP6 DUP1 PUSH1 0x20 ADD SWAP1 MLOAD PUSH1 0xA0 DUP2 LT ISZERO PUSH2 0x271F JUMPI PUSH1 0x0 DUP1 REVERT JUMPDEST DUP2 MLOAD PUSH1 0x20 DUP4 ADD MLOAD PUSH1 0x40 DUP1 DUP6 ADD MLOAD PUSH1 0x60 DUP7 ADD MLOAD PUSH1 0x80 DUP8 ADD DUP1 MLOAD SWAP4 MLOAD SWAP6 SWAP8 SWAP5 SWAP7 SWAP3 SWAP6 SWAP2 SWAP5 SWAP2 SWAP4 SWAP3 DUP3 ADD SWAP3 DUP5 PUSH1 0x1 PUSH1 0x20 SHL DUP3 GT ISZERO PUSH2 0x2759 JUMPI PUSH1 0x0 DUP1 REVERT JUMPDEST SWAP1 DUP4 ADD SWAP1 PUSH1 0x20 DUP3 ADD DUP6 DUP2 GT ISZERO PUSH2 0x276E JUMPI PUSH1 0x0 DUP1 REVERT JUMPDEST DUP3 MLOAD PUSH1 0x1 PUSH1 0x20 SHL DUP2 GT DUP3 DUP3 ADD DUP9 LT OR ISZERO PUSH2 0x2787 JUMPI PUSH1 0x0 DUP1 REVERT JUMPDEST DUP3 MSTORE POP DUP2 MLOAD PUSH1 0x20 SWAP2 DUP3 ADD SWAP3 SWAP1 SWAP2 ADD SWAP1 DUP1 DUP4 DUP4 PUSH1 0x0 JUMPDEST DUP4 DUP2 LT ISZERO PUSH2 0x27B4 JUMPI DUP2 DUP2 ADD MLOAD DUP4 DUP3 ADD MSTORE PUSH1 0x20 ADD PUSH2 0x279C JUMP JUMPDEST POP POP POP POP SWAP1 POP SWAP1 DUP2 ADD SWAP1 PUSH1 0x1F AND DUP1 ISZERO PUSH2 0x27E1 JUMPI DUP1 DUP3 SUB DUP1 MLOAD PUSH1 0x1 DUP4 PUSH1 0x20 SUB PUSH2 0x100 EXP SUB NOT AND DUP2 MSTORE PUSH1 0x20 ADD SWAP2 POP JUMPDEST POP PUSH1 0x40 MSTORE POP POP POP SWAP5 POP SWAP5 POP SWAP5 POP SWAP5 POP SWAP5 POP PUSH1 0x6 PUSH1 0x0 SWAP1 SLOAD SWAP1 PUSH2 0x100 EXP SWAP1 DIV PUSH1 0x1 PUSH1 0x1 PUSH1 0xA0 SHL SUB AND PUSH1 0x1 PUSH1 0x1 PUSH1 0xA0 SHL SUB AND PUSH4 0x23B872DD DUP11 DUP6 DUP12 PUSH1 0x40 MLOAD DUP5 PUSH4 0xFFFFFFFF AND PUSH1 0xE0 SHL DUP2 MSTORE PUSH1 0x4 ADD DUP1 DUP5 PUSH1 0x1 PUSH1 0x1 PUSH1 0xA0 SHL SUB AND PUSH1 0x1 PUSH1 0x1 PUSH1 0xA0 SHL SUB AND DUP2 MSTORE PUSH1 0x20 ADD DUP4 PUSH1 0x1 PUSH1 0x1 PUSH1 0xA0 SHL SUB AND PUSH1 0x1 PUSH1 0x1 PUSH1 0xA0 SHL SUB AND DUP2 MSTORE PUSH1 0x20 ADD DUP3 DUP2 MSTORE PUSH1 0x20 ADD SWAP4 POP POP POP POP PUSH1 0x20 PUSH1 0x40 MLOAD DUP1 DUP4 SUB DUP2 PUSH1 0x0 DUP8 DUP1 EXTCODESIZE ISZERO DUP1 ISZERO PUSH2 0x2881 JUMPI PUSH1 0x0 DUP1 REVERT JUMPDEST POP GAS CALL ISZERO DUP1 ISZERO PUSH2 0x2895 JUMPI RETURNDATASIZE PUSH1 0x0 DUP1 RETURNDATACOPY RETURNDATASIZE PUSH1 0x0 REVERT JUMPDEST POP POP POP POP PUSH1 0x40 MLOAD RETURNDATASIZE PUSH1 0x20 DUP2 LT ISZERO PUSH2 0x28AB JUMPI PUSH1 0x0 DUP1 REVERT JUMPDEST POP MLOAD PUSH2 0x28E8 JUMPI PUSH1 0x40 MLOAD PUSH3 0x461BCD PUSH1 0xE5 SHL DUP2 MSTORE PUSH1 0x4 ADD DUP1 DUP1 PUSH1 0x20 ADD DUP3 DUP2 SUB DUP3 MSTORE PUSH1 0x23 DUP2 MSTORE PUSH1 0x20 ADD DUP1 PUSH2 0x4FCB PUSH1 0x23 SWAP2 CODECOPY PUSH1 0x40 ADD SWAP2 POP POP PUSH1 0x40 MLOAD DUP1 SWAP2 SUB SWAP1 REVERT JUMPDEST DUP3 DUP6 ISZERO PUSH2 0x2A2A JUMPI DUP1 PUSH1 0x1 PUSH1 0x1 PUSH1 0xA0 SHL SUB AND PUSH4 0x3C72E439 DUP7 DUP6 DUP13 DUP7 PUSH1 0x40 MLOAD DUP6 PUSH4 0xFFFFFFFF AND PUSH1 0xE0 SHL DUP2 MSTORE PUSH1 0x4 ADD DUP1 DUP6 PUSH1 0x1 PUSH1 0x1 PUSH1 0xA0 SHL SUB AND PUSH1 0x1 PUSH1 0x1 PUSH1 0xA0 SHL SUB AND DUP2 MSTORE PUSH1 0x20 ADD DUP5 DUP2 MSTORE PUSH1 0x20 ADD DUP4 DUP2 MSTORE PUSH1 0x20 ADD DUP1 PUSH1 0x20 ADD DUP3 DUP2 SUB DUP3 MSTORE DUP4 DUP2 DUP2 MLOAD DUP2 MSTORE PUSH1 0x20 ADD SWAP2 POP DUP1 MLOAD SWAP1 PUSH1 0x20 ADD SWAP1 DUP1 DUP4 DUP4 PUSH1 0x0 JUMPDEST DUP4 DUP2 LT ISZERO PUSH2 0x2972 JUMPI DUP2 DUP2 ADD MLOAD DUP4 DUP3 ADD MSTORE PUSH1 0x20 ADD PUSH2 0x295A JUMP JUMPDEST POP POP POP POP SWAP1 POP SWAP1 DUP2 ADD SWAP1 PUSH1 0x1F AND DUP1 ISZERO PUSH2 0x299F JUMPI DUP1 DUP3 SUB DUP1 MLOAD PUSH1 0x1 DUP4 PUSH1 0x20 SUB PUSH2 0x100 EXP SUB NOT AND DUP2 MSTORE PUSH1 0x20 ADD SWAP2 POP JUMPDEST POP SWAP6 POP POP POP POP POP POP PUSH1 0x0 PUSH1 0x40 MLOAD DUP1 DUP4 SUB DUP2 PUSH1 0x0 DUP8 DUP1 EXTCODESIZE ISZERO DUP1 ISZERO PUSH2 0x29C1 JUMPI PUSH1 0x0 DUP1 REVERT JUMPDEST POP GAS CALL ISZERO DUP1 ISZERO PUSH2 0x29D5 JUMPI RETURNDATASIZE PUSH1 0x0 DUP1 RETURNDATACOPY RETURNDATASIZE PUSH1 0x0 REVERT JUMPDEST POP POP POP POP DUP3 DUP5 PUSH1 0x1 PUSH1 0x1 PUSH1 0xA0 SHL SUB AND DUP7 PUSH1 0x1 PUSH1 0x1 PUSH1 0xA0 SHL SUB AND PUSH32 0xEDB6770CB1AC0722D4EE53B473075A9D9D9ADA0726D38BFC29D7CEFB278A6B50 DUP13 PUSH1 0x40 MLOAD DUP1 DUP3 DUP2 MSTORE PUSH1 0x20 ADD SWAP2 POP POP PUSH1 0x40 MLOAD DUP1 SWAP2 SUB SWAP1 LOG4 PUSH2 0x22CA JUMP JUMPDEST PUSH1 0x0 DUP4 SWAP1 POP DUP2 PUSH1 0x1 PUSH1 0x1 PUSH1 0xA0 SHL SUB AND PUSH4 0xE5A13092 DUP8 DUP4 DUP14 DUP8 PUSH1 0x40 MLOAD DUP6 PUSH4 0xFFFFFFFF AND PUSH1 0xE0 SHL DUP2 MSTORE PUSH1 0x4 ADD DUP1 DUP6 PUSH1 0x1 PUSH1 0x1 PUSH1 0xA0 SHL SUB AND PUSH1 0x1 PUSH1 0x1 PUSH1 0xA0 SHL SUB AND DUP2 MSTORE PUSH1 0x20 ADD DUP5 PUSH1 0x1 PUSH1 0x1 PUSH1 0xA0 SHL SUB AND PUSH1 0x1 PUSH1 0x1 PUSH1 0xA0 SHL SUB AND DUP2 MSTORE PUSH1 0x20 ADD DUP4 DUP2 MSTORE PUSH1 0x20 ADD DUP1 PUSH1 0x20 ADD DUP3 DUP2 SUB DUP3 MSTORE DUP4 DUP2 DUP2 MLOAD DUP2 MSTORE PUSH1 0x20 ADD SWAP2 POP DUP1 MLOAD SWAP1 PUSH1 0x20 ADD SWAP1 DUP1 DUP4 DUP4 PUSH1 0x0 JUMPDEST DUP4 DUP2 LT ISZERO PUSH2 0x2AC4 JUMPI DUP2 DUP2 ADD MLOAD DUP4 DUP3 ADD MSTORE PUSH1 0x20 ADD PUSH2 0x2AAC JUMP JUMPDEST POP POP POP POP SWAP1 POP SWAP1 DUP2 ADD SWAP1 PUSH1 0x1F AND DUP1 ISZERO PUSH2 0x2AF1 JUMPI DUP1 DUP3 SUB DUP1 MLOAD PUSH1 0x1 DUP4 PUSH1 0x20 SUB PUSH2 0x100 EXP SUB NOT AND DUP2 MSTORE PUSH1 0x20 ADD SWAP2 POP JUMPDEST POP SWAP6 POP POP POP POP POP POP PUSH1 0x0 PUSH1 0x40 MLOAD DUP1 DUP4 SUB DUP2 PUSH1 0x0 DUP8 DUP1 EXTCODESIZE ISZERO DUP1 ISZERO PUSH2 0x2B13 JUMPI PUSH1 0x0 DUP1 REVERT JUMPDEST POP GAS CALL ISZERO DUP1 ISZERO PUSH2 0x2B27 JUMPI RETURNDATASIZE PUSH1 0x0 DUP1 RETURNDATACOPY RETURNDATASIZE PUSH1 0x0 REVERT JUMPDEST POP POP POP POP DUP4 PUSH1 0x1 PUSH1 0x1 PUSH1 0xA0 SHL SUB AND DUP6 PUSH1 0x1 PUSH1 0x1 PUSH1 0xA0 SHL SUB AND DUP8 PUSH1 0x1 PUSH1 0x1 PUSH1 0xA0 SHL SUB AND PUSH32 0xC00F14CABAE1F33BCA7BD1A7510DA7D1188463C014549B4817ECE9DB32CE67D DUP14 PUSH1 0x40 MLOAD DUP1 DUP3 DUP2 MSTORE PUSH1 0x20 ADD SWAP2 POP POP PUSH1 0x40 MLOAD DUP1 SWAP2 SUB SWAP1 LOG4 POP POP POP POP POP POP POP JUMPDEST POP POP POP POP JUMP JUMPDEST PUSH2 0x2B96 PUSH2 0x23B0 JUMP JUMPDEST PUSH2 0x2B9F JUMPI PUSH1 0x0 DUP1 REVERT JUMPDEST PUSH1 0x3 DUP1 SLOAD PUSH1 0x1 PUSH1 0x1 PUSH1 0xA0 SHL SUB NOT SWAP1 DUP2 AND PUSH1 0x1 PUSH1 0x1 PUSH1 0xA0 SHL SUB SWAP5 DUP6 AND OR SWAP2 DUP3 SWAP1 SSTORE PUSH1 0x4 DUP1 SLOAD SWAP3 DUP6 AND SWAP3 DUP3 AND SWAP3 SWAP1 SWAP3 OR SWAP1 SWAP2 SSTORE PUSH1 0x5 DUP1 SLOAD DUP3 AND SWAP3 DUP5 AND SWAP3 SWAP1 SWAP3 OR SWAP2 DUP3 SWAP1 SSTORE PUSH1 0x6 DUP1 SLOAD SWAP3 SWAP1 SWAP4 AND SWAP2 AND OR SWAP1 SSTORE JUMP JUMPDEST PUSH1 0x4 DUP1 SLOAD PUSH1 0x40 DUP1 MLOAD PUSH4 0x5C62C2F PUSH1 0xE0 SHL DUP2 MSTORE CALLER SWAP4 DUP2 ADD SWAP4 SWAP1 SWAP4 MSTORE MLOAD PUSH1 0x60 SWAP3 PUSH2 0x2C76 SWAP3 PUSH1 0x1 PUSH1 0x1 PUSH1 0xA0 SHL SUB AND SWAP2 PUSH4 0x5C62C2F SWAP2 PUSH1 0x24 DUP1 DUP3 ADD SWAP3 PUSH1 0x20 SWAP3 SWAP1 SWAP2 SWAP1 DUP3 SWAP1 SUB ADD DUP2 DUP7 DUP1 EXTCODESIZE ISZERO DUP1 ISZERO PUSH2 0x2C42 JUMPI PUSH1 0x0 DUP1 REVERT JUMPDEST POP GAS STATICCALL ISZERO DUP1 ISZERO PUSH2 0x2C56 JUMPI RETURNDATASIZE PUSH1 0x0 DUP1 RETURNDATACOPY RETURNDATASIZE PUSH1 0x0 REVERT JUMPDEST POP POP POP POP PUSH1 0x40 MLOAD RETURNDATASIZE PUSH1 0x20 DUP2 LT ISZERO PUSH2 0x2C6C JUMPI PUSH1 0x0 DUP1 REVERT JUMPDEST POP MLOAD DUP5 DUP7 DUP6 PUSH2 0x3BD9 JUMP JUMPDEST SWAP5 SWAP4 POP POP POP POP JUMP JUMPDEST PUSH2 0x2C88 DUP6 DUP4 PUSH2 0x3625 JUMP JUMPDEST PUSH2 0x2C93 DUP6 DUP6 DUP5 PUSH2 0x3DFB JUMP JUMPDEST PUSH1 0x0 DUP5 SWAP1 POP DUP1 PUSH1 0x1 PUSH1 0x1 PUSH1 0xA0 SHL SUB AND PUSH4 0x1C75EDFE CALLER DUP9 DUP8 DUP8 DUP8 PUSH1 0x40 MLOAD DUP7 PUSH4 0xFFFFFFFF AND PUSH1 0xE0 SHL DUP2 MSTORE PUSH1 0x4 ADD DUP1 DUP7 PUSH1 0x1 PUSH1 0x1 PUSH1 0xA0 SHL SUB AND PUSH1 0x1 PUSH1 0x1 PUSH1 0xA0 SHL SUB AND DUP2 MSTORE PUSH1 0x20 ADD DUP6 DUP2 MSTORE PUSH1 0x20 ADD DUP5 DUP2 MSTORE PUSH1 0x20 ADD DUP4 DUP2 MSTORE PUSH1 0x20 ADD DUP1 PUSH1 0x20 ADD DUP3 DUP2 SUB DUP3 MSTORE DUP4 DUP2 DUP2 MLOAD DUP2 MSTORE PUSH1 0x20 ADD SWAP2 POP DUP1 MLOAD SWAP1 PUSH1 0x20 ADD SWAP1 DUP1 DUP4 DUP4 PUSH1 0x0 JUMPDEST DUP4 DUP2 LT ISZERO PUSH2 0x2D22 JUMPI DUP2 DUP2 ADD MLOAD DUP4 DUP3 ADD MSTORE PUSH1 0x20 ADD PUSH2 0x2D0A JUMP JUMPDEST POP POP POP POP SWAP1 POP SWAP1 DUP2 ADD SWAP1 PUSH1 0x1F AND DUP1 ISZERO PUSH2 0x2D4F JUMPI DUP1 DUP3 SUB DUP1 MLOAD PUSH1 0x1 DUP4 PUSH1 0x20 SUB PUSH2 0x100 EXP SUB NOT AND DUP2 MSTORE PUSH1 0x20 ADD SWAP2 POP JUMPDEST POP SWAP7 POP POP POP POP POP POP POP PUSH1 0x0 PUSH1 0x40 MLOAD DUP1 DUP4 SUB DUP2 PUSH1 0x0 DUP8 DUP1 EXTCODESIZE ISZERO DUP1 ISZERO PUSH2 0x2D72 JUMPI PUSH1 0x0 DUP1 REVERT JUMPDEST POP GAS CALL ISZERO DUP1 ISZERO PUSH2 0x2D86 JUMPI RETURNDATASIZE PUSH1 0x0 DUP1 RETURNDATACOPY RETURNDATASIZE PUSH1 0x0 REVERT JUMPDEST POP POP PUSH1 0x40 MLOAD DUP7 SWAP3 POP CALLER SWAP2 POP PUSH32 0x1DD3C359182056AB5063BCDBAB2346601270459BEB53CABCBD39CA79F0503368 SWAP1 PUSH1 0x0 SWAP1 LOG3 POP POP POP POP POP POP JUMP JUMPDEST PUSH1 0x4 DUP1 SLOAD PUSH1 0x40 DUP1 MLOAD PUSH4 0x5C62C2F PUSH1 0xE0 SHL DUP2 MSTORE CALLER SWAP4 DUP2 ADD SWAP4 SWAP1 SWAP4 MSTORE MLOAD PUSH2 0x17EB SWAP3 PUSH1 0x1 PUSH1 0x1 PUSH1 0xA0 SHL SUB SWAP1 SWAP3 AND SWAP2 PUSH4 0x5C62C2F SWAP2 PUSH1 0x24 DUP1 DUP4 ADD SWAP3 PUSH1 0x20 SWAP3 SWAP2 SWAP1 DUP3 SWAP1 SUB ADD DUP2 DUP7 DUP1 EXTCODESIZE ISZERO DUP1 ISZERO PUSH2 0x2E0F JUMPI PUSH1 0x0 DUP1 REVERT JUMPDEST POP GAS STATICCALL ISZERO DUP1 ISZERO PUSH2 0x2E23 JUMPI RETURNDATASIZE PUSH1 0x0 DUP1 RETURNDATACOPY RETURNDATASIZE PUSH1 0x0 REVERT JUMPDEST POP POP POP POP PUSH1 0x40 MLOAD RETURNDATASIZE PUSH1 0x20 DUP2 LT ISZERO PUSH2 0x2E39 JUMPI PUSH1 0x0 DUP1 REVERT JUMPDEST POP MLOAD DUP5 DUP5 DUP5 PUSH2 0x481A JUMP JUMPDEST PUSH1 0x4 DUP1 SLOAD PUSH1 0x40 DUP1 MLOAD PUSH4 0x5C62C2F PUSH1 0xE0 SHL DUP2 MSTORE PUSH1 0x1 PUSH1 0x1 PUSH1 0xA0 SHL SUB DUP11 DUP2 AND SWAP5 DUP3 ADD SWAP5 SWAP1 SWAP5 MSTORE SWAP1 MLOAD PUSH1 0x0 SWAP4 SWAP1 SWAP3 AND SWAP2 PUSH4 0x5C62C2F SWAP2 PUSH1 0x24 DUP1 DUP3 ADD SWAP3 PUSH1 0x20 SWAP3 SWAP1 SWAP2 SWAP1 DUP3 SWAP1 SUB ADD DUP2 DUP7 DUP1 EXTCODESIZE ISZERO DUP1 ISZERO PUSH2 0x2E96 JUMPI PUSH1 0x0 DUP1 REVERT JUMPDEST POP GAS STATICCALL ISZERO DUP1 ISZERO PUSH2 0x2EAA JUMPI RETURNDATASIZE PUSH1 0x0 DUP1 RETURNDATACOPY RETURNDATASIZE PUSH1 0x0 REVERT JUMPDEST POP POP POP POP PUSH1 0x40 MLOAD RETURNDATASIZE PUSH1 0x20 DUP2 LT ISZERO PUSH2 0x2EC0 JUMPI PUSH1 0x0 DUP1 REVERT JUMPDEST POP MLOAD PUSH1 0x0 DUP2 DUP2 MSTORE PUSH1 0xA PUSH1 0x20 SWAP1 DUP2 MSTORE PUSH1 0x40 DUP1 DUP4 KECCAK256 DUP1 SLOAD PUSH1 0x1 DUP2 ADD SWAP1 SWAP2 SSTORE PUSH1 0x4 SLOAD SWAP2 MLOAD PUSH1 0x19 PUSH1 0xF8 SHL SWAP4 DUP2 ADD DUP5 DUP2 MSTORE PUSH1 0x21 DUP3 ADD DUP7 SWAP1 MSTORE ADDRESS PUSH1 0x60 DUP2 SWAP1 SHL PUSH1 0x22 DUP5 ADD MSTORE SWAP7 SWAP8 POP SWAP2 SWAP6 PUSH1 0x1 PUSH1 0x1 PUSH1 0xA0 SHL SUB SWAP1 SWAP4 AND SWAP5 PUSH4 0x8677EBE8 SWAP5 DUP15 SWAP5 SWAP1 SWAP4 SWAP2 SWAP3 SWAP1 SWAP2 DUP10 SWAP2 DUP16 SWAP2 DUP16 SWAP2 DUP12 SWAP2 SWAP1 PUSH1 0x36 ADD PUSH1 0x2F PUSH2 0x5084 DUP3 CODECOPY PUSH1 0x2F ADD DUP6 DUP2 MSTORE PUSH1 0x20 ADD DUP5 DUP1 MLOAD SWAP1 PUSH1 0x20 ADD SWAP1 PUSH1 0x20 MUL DUP1 DUP4 DUP4 PUSH1 0x0 JUMPDEST DUP4 DUP2 LT ISZERO PUSH2 0x2F62 JUMPI DUP2 DUP2 ADD MLOAD DUP4 DUP3 ADD MSTORE PUSH1 0x20 ADD PUSH2 0x2F4A JUMP JUMPDEST POP POP POP POP SWAP1 POP ADD DUP4 DUP1 MLOAD SWAP1 PUSH1 0x20 ADD SWAP1 PUSH1 0x20 MUL DUP1 DUP4 DUP4 PUSH1 0x0 JUMPDEST DUP4 DUP2 LT ISZERO PUSH2 0x2F92 JUMPI DUP2 DUP2 ADD MLOAD DUP4 DUP3 ADD MSTORE PUSH1 0x20 ADD PUSH2 0x2F7A JUMP JUMPDEST POP POP POP POP SWAP1 POP ADD DUP3 DUP2 MSTORE PUSH1 0x20 ADD SWAP8 POP POP POP POP POP POP POP POP PUSH1 0x40 MLOAD PUSH1 0x20 DUP2 DUP4 SUB SUB DUP2 MSTORE SWAP1 PUSH1 0x40 MSTORE DUP1 MLOAD SWAP1 PUSH1 0x20 ADD KECCAK256 DUP9 DUP9 DUP9 PUSH1 0x40 MLOAD DUP7 PUSH4 0xFFFFFFFF AND PUSH1 0xE0 SHL DUP2 MSTORE PUSH1 0x4 ADD DUP1 DUP7 PUSH1 0x1 PUSH1 0x1 PUSH1 0xA0 SHL SUB AND PUSH1 0x1 PUSH1 0x1 PUSH1 0xA0 SHL SUB AND DUP2 MSTORE PUSH1 0x20 ADD DUP6 DUP2 MSTORE PUSH1 0x20 ADD DUP5 PUSH1 0xFF AND PUSH1 0xFF AND DUP2 MSTORE PUSH1 0x20 ADD DUP4 DUP2 MSTORE PUSH1 0x20 ADD DUP3 DUP2 MSTORE PUSH1 0x20 ADD SWAP6 POP POP POP POP POP POP PUSH1 0x20 PUSH1 0x40 MLOAD DUP1 DUP4 SUB DUP2 DUP7 DUP1 EXTCODESIZE ISZERO DUP1 ISZERO PUSH2 0x3029 JUMPI PUSH1 0x0 DUP1 REVERT JUMPDEST POP GAS STATICCALL ISZERO DUP1 ISZERO PUSH2 0x303D JUMPI RETURNDATASIZE PUSH1 0x0 DUP1 RETURNDATACOPY RETURNDATASIZE PUSH1 0x0 REVERT JUMPDEST POP POP POP POP PUSH1 0x40 MLOAD RETURNDATASIZE PUSH1 0x20 DUP2 LT ISZERO PUSH2 0x3053 JUMPI PUSH1 0x0 DUP1 REVERT JUMPDEST POP MLOAD PUSH2 0x309B JUMPI PUSH1 0x40 DUP1 MLOAD PUSH3 0x461BCD PUSH1 0xE5 SHL DUP2 MSTORE PUSH1 0x20 PUSH1 0x4 DUP3 ADD MSTORE PUSH1 0x12 PUSH1 0x24 DUP3 ADD MSTORE PUSH18 0x2832B936B4B9B9B4B7B7103232B734B2B217 PUSH1 0x71 SHL PUSH1 0x44 DUP3 ADD MSTORE SWAP1 MLOAD SWAP1 DUP2 SWAP1 SUB PUSH1 0x64 ADD SWAP1 REVERT JUMPDEST PUSH2 0x30A6 DUP3 DUP9 DUP9 PUSH2 0x437E JUMP JUMPDEST POP POP POP POP POP POP POP POP JUMP JUMPDEST PUSH1 0x3 SLOAD PUSH1 0x1 PUSH1 0x1 PUSH1 0xA0 SHL SUB AND DUP2 JUMP JUMPDEST PUSH1 0x1 PUSH1 0x20 MSTORE PUSH1 0x0 SWAP1 DUP2 MSTORE PUSH1 0x40 SWAP1 KECCAK256 SLOAD DUP2 JUMP JUMPDEST PUSH1 0x4 DUP1 SLOAD PUSH1 0x40 DUP1 MLOAD PUSH4 0x5C62C2F PUSH1 0xE0 SHL DUP2 MSTORE CALLER SWAP4 DUP2 ADD SWAP4 SWAP1 SWAP4 MSTORE MLOAD PUSH2 0x217C SWAP3 PUSH1 0x1 PUSH1 0x1 PUSH1 0xA0 SHL SUB SWAP1 SWAP3 AND SWAP2 PUSH4 0x5C62C2F SWAP2 PUSH1 0x24 DUP1 DUP4 ADD SWAP3 PUSH1 0x20 SWAP3 SWAP2 SWAP1 DUP3 SWAP1 SUB ADD DUP2 DUP7 DUP1 EXTCODESIZE ISZERO DUP1 ISZERO PUSH2 0x3121 JUMPI PUSH1 0x0 DUP1 REVERT JUMPDEST POP GAS STATICCALL ISZERO DUP1 ISZERO PUSH2 0x3135 JUMPI RETURNDATASIZE PUSH1 0x0 DUP1 RETURNDATACOPY RETURNDATASIZE PUSH1 0x0 REVERT JUMPDEST POP POP POP POP PUSH1 0x40 MLOAD RETURNDATASIZE PUSH1 0x20 DUP2 LT ISZERO PUSH2 0x314B JUMPI PUSH1 0x0 DUP1 REVERT JUMPDEST POP MLOAD DUP4 DUP4 PUSH2 0x3DFB JUMP JUMPDEST PUSH1 0x4 DUP1 SLOAD PUSH1 0x40 DUP1 MLOAD PUSH4 0x5C62C2F PUSH1 0xE0 SHL DUP2 MSTORE CALLER SWAP4 DUP2 ADD SWAP4 SWAP1 SWAP4 MSTORE MLOAD PUSH2 0x2B88 SWAP3 PUSH1 0x1 PUSH1 0x1 PUSH1 0xA0 SHL SUB SWAP1 SWAP3 AND SWAP2 PUSH4 0x5C62C2F SWAP2 PUSH1 0x24 DUP1 DUP4 ADD SWAP3 PUSH1 0x20 SWAP3 SWAP2 SWAP1 DUP3 SWAP1 SUB ADD DUP2 DUP7 DUP1 EXTCODESIZE ISZERO DUP1 ISZERO PUSH2 0x31A4 JUMPI PUSH1 0x0 DUP1 REVERT JUMPDEST POP GAS STATICCALL ISZERO DUP1 ISZERO PUSH2 0x31B8 JUMPI RETURNDATASIZE PUSH1 0x0 DUP1 RETURNDATACOPY RETURNDATASIZE PUSH1 0x0 REVERT JUMPDEST POP POP POP POP PUSH1 0x40 MLOAD RETURNDATASIZE PUSH1 0x20 DUP2 LT ISZERO PUSH2 0x31CE JUMPI PUSH1 0x0 DUP1 REVERT JUMPDEST POP MLOAD DUP6 DUP6 DUP6 DUP6 PUSH2 0x3FD6 JUMP JUMPDEST PUSH2 0x31E3 DUP4 DUP3 PUSH2 0x3625 JUMP JUMPDEST PUSH2 0x31EE DUP4 DUP4 DUP4 PUSH2 0x3DFB JUMP JUMPDEST PUSH1 0x40 MLOAD CALLER SWAP1 PUSH32 0x8262975DCCA6E765BC0C030D671A00379895D3F60AB5F0033CA4AA088074646B SWAP1 PUSH1 0x0 SWAP1 LOG2 POP POP POP JUMP JUMPDEST PUSH1 0x2 PUSH1 0x20 SWAP1 DUP2 MSTORE PUSH1 0x0 SWAP3 DUP4 MSTORE PUSH1 0x40 DUP1 DUP5 KECCAK256 SWAP1 SWAP2 MSTORE SWAP1 DUP3 MSTORE SWAP1 KECCAK256 SLOAD DUP2 JUMP JUMPDEST DUP1 DUP1 TIMESTAMP LT ISZERO DUP1 ISZERO PUSH2 0x324F JUMPI POP PUSH1 0x9 SLOAD DUP2 ADD TIMESTAMP LT JUMPDEST PUSH2 0x329A JUMPI PUSH1 0x40 DUP1 MLOAD PUSH3 0x461BCD PUSH1 0xE5 SHL DUP2 MSTORE PUSH1 0x20 PUSH1 0x4 DUP3 ADD MSTORE PUSH1 0x17 PUSH1 0x24 DUP3 ADD MSTORE PUSH23 0x2A34B6B2B9BA30B6B81034B9903737BA103B30B634B217 PUSH1 0x49 SHL PUSH1 0x44 DUP3 ADD MSTORE SWAP1 MLOAD SWAP1 DUP2 SWAP1 SUB PUSH1 0x64 ADD SWAP1 REVERT JUMPDEST PUSH1 0x4 DUP1 SLOAD PUSH1 0x40 DUP1 MLOAD PUSH4 0x5C62C2F PUSH1 0xE0 SHL DUP2 MSTORE PUSH1 0x1 PUSH1 0x1 PUSH1 0xA0 SHL SUB DUP14 DUP2 AND SWAP5 DUP3 ADD SWAP5 SWAP1 SWAP5 MSTORE SWAP1 MLOAD PUSH1 0x0 SWAP4 SWAP1 SWAP3 AND SWAP2 PUSH4 0x5C62C2F SWAP2 PUSH1 0x24 DUP1 DUP3 ADD SWAP3 PUSH1 0x20 SWAP3 SWAP1 SWAP2 SWAP1 DUP3 SWAP1 SUB ADD DUP2 DUP7 DUP1 EXTCODESIZE ISZERO DUP1 ISZERO PUSH2 0x32ED JUMPI PUSH1 0x0 DUP1 REVERT JUMPDEST POP GAS STATICCALL ISZERO DUP1 ISZERO PUSH2 0x3301 JUMPI RETURNDATASIZE PUSH1 0x0 DUP1 RETURNDATACOPY RETURNDATASIZE PUSH1 0x0 REVERT JUMPDEST POP POP POP POP PUSH1 0x40 MLOAD RETURNDATASIZE PUSH1 0x20 DUP2 LT ISZERO PUSH2 0x3317 JUMPI PUSH1 0x0 DUP1 REVERT JUMPDEST POP MLOAD SWAP1 POP PUSH2 0x332C DUP11 DUP3 DUP12 DUP12 DUP12 DUP12 DUP12 DUP12 DUP12 PUSH2 0x4BAB JUMP JUMPDEST PUSH2 0x22CA DUP2 DUP11 DUP11 DUP11 PUSH2 0x481A JUMP JUMPDEST PUSH2 0x3340 PUSH2 0x23B0 JUMP JUMPDEST PUSH2 0x3349 JUMPI PUSH1 0x0 DUP1 REVERT JUMPDEST PUSH2 0x3352 DUP2 PUSH2 0x4D09 JUMP JUMPDEST POP JUMP JUMPDEST DUP1 DUP1 TIMESTAMP LT ISZERO DUP1 ISZERO PUSH2 0x3369 JUMPI POP PUSH1 0x9 SLOAD DUP2 ADD TIMESTAMP LT JUMPDEST PUSH2 0x33B4 JUMPI PUSH1 0x40 DUP1 MLOAD PUSH3 0x461BCD PUSH1 0xE5 SHL DUP2 MSTORE PUSH1 0x20 PUSH1 0x4 DUP3 ADD MSTORE PUSH1 0x17 PUSH1 0x24 DUP3 ADD MSTORE PUSH23 0x2A34B6B2B9BA30B6B81034B9903737BA103B30B634B217 PUSH1 0x49 SHL PUSH1 0x44 DUP3 ADD MSTORE SWAP1 MLOAD SWAP1 DUP2 SWAP1 SUB PUSH1 0x64 ADD SWAP1 REVERT JUMPDEST PUSH1 0x4 DUP1 SLOAD PUSH1 0x40 DUP1 MLOAD PUSH4 0x5C62C2F PUSH1 0xE0 SHL DUP2 MSTORE PUSH1 0x1 PUSH1 0x1 PUSH1 0xA0 SHL SUB DUP12 DUP2 AND SWAP5 DUP3 ADD SWAP5 SWAP1 SWAP5 MSTORE SWAP1 MLOAD PUSH1 0x0 SWAP4 SWAP1 SWAP3 AND SWAP2 PUSH4 0x5C62C2F SWAP2 PUSH1 0x24 DUP1 DUP3 ADD SWAP3 PUSH1 0x20 SWAP3 SWAP1 SWAP2 SWAP1 DUP3 SWAP1 SUB ADD DUP2 DUP7 DUP1 EXTCODESIZE ISZERO DUP1 ISZERO PUSH2 0x3407 JUMPI PUSH1 0x0 DUP1 REVERT JUMPDEST POP GAS STATICCALL ISZERO DUP1 ISZERO PUSH2 0x341B JUMPI RETURNDATASIZE PUSH1 0x0 DUP1 RETURNDATACOPY RETURNDATASIZE PUSH1 0x0 REVERT JUMPDEST POP POP POP POP PUSH1 0x40 MLOAD RETURNDATASIZE PUSH1 0x20 DUP2 LT ISZERO PUSH2 0x3431 JUMPI PUSH1 0x0 DUP1 REVERT JUMPDEST POP MLOAD PUSH1 0x4 SLOAD PUSH1 0x40 MLOAD PUSH1 0x19 PUSH1 0xF8 SHL PUSH1 0x20 DUP3 ADD DUP2 DUP2 MSTORE PUSH1 0x0 PUSH1 0x21 DUP5 ADD DUP2 SWAP1 MSTORE ADDRESS PUSH1 0x60 DUP2 SWAP1 SHL PUSH1 0x22 DUP7 ADD MSTORE SWAP6 SWAP7 POP PUSH1 0x1 PUSH1 0x1 PUSH1 0xA0 SHL SUB SWAP1 SWAP5 AND SWAP5 PUSH4 0x8677EBE8 SWAP5 DUP15 SWAP5 SWAP1 SWAP3 DUP9 SWAP2 DUP16 SWAP2 DUP13 SWAP2 PUSH1 0x36 ADD PUSH1 0x3D PUSH2 0x4F8E DUP3 CODECOPY PUSH1 0x3D ADD DUP5 DUP2 MSTORE PUSH1 0x20 ADD DUP4 DUP1 MLOAD SWAP1 PUSH1 0x20 ADD SWAP1 PUSH1 0x20 MUL DUP1 DUP4 DUP4 PUSH1 0x0 JUMPDEST DUP4 DUP2 LT ISZERO PUSH2 0x34B4 JUMPI DUP2 DUP2 ADD MLOAD DUP4 DUP3 ADD MSTORE PUSH1 0x20 ADD PUSH2 0x349C JUMP JUMPDEST POP POP POP POP SWAP1 POP ADD DUP3 DUP2 MSTORE PUSH1 0x20 ADD SWAP7 POP POP POP POP POP POP POP PUSH1 0x40 MLOAD PUSH1 0x20 DUP2 DUP4 SUB SUB DUP2 MSTORE SWAP1 PUSH1 0x40 MSTORE DUP1 MLOAD SWAP1 PUSH1 0x20 ADD KECCAK256 DUP10 DUP10 DUP10 PUSH1 0x40 MLOAD DUP7 PUSH4 0xFFFFFFFF AND PUSH1 0xE0 SHL DUP2 MSTORE PUSH1 0x4 ADD DUP1 DUP7 PUSH1 0x1 PUSH1 0x1 PUSH1 0xA0 SHL SUB AND PUSH1 0x1 PUSH1 0x1 PUSH1 0xA0 SHL SUB AND DUP2 MSTORE PUSH1 0x20 ADD DUP6 DUP2 MSTORE PUSH1 0x20 ADD DUP5 PUSH1 0xFF AND PUSH1 0xFF AND DUP2 MSTORE PUSH1 0x20 ADD DUP4 DUP2 MSTORE PUSH1 0x20 ADD DUP3 DUP2 MSTORE PUSH1 0x20 ADD SWAP6 POP POP POP POP POP POP PUSH1 0x20 PUSH1 0x40 MLOAD DUP1 DUP4 SUB DUP2 DUP7 DUP1 EXTCODESIZE ISZERO DUP1 ISZERO PUSH2 0x354A JUMPI PUSH1 0x0 DUP1 REVERT JUMPDEST POP GAS STATICCALL ISZERO DUP1 ISZERO PUSH2 0x355E JUMPI RETURNDATASIZE PUSH1 0x0 DUP1 RETURNDATACOPY RETURNDATASIZE PUSH1 0x0 REVERT JUMPDEST POP POP POP POP PUSH1 0x40 MLOAD RETURNDATASIZE PUSH1 0x20 DUP2 LT ISZERO PUSH2 0x3574 JUMPI PUSH1 0x0 DUP1 REVERT JUMPDEST POP MLOAD PUSH2 0x35BC JUMPI PUSH1 0x40 DUP1 MLOAD PUSH3 0x461BCD PUSH1 0xE5 SHL DUP2 MSTORE PUSH1 0x20 PUSH1 0x4 DUP3 ADD MSTORE PUSH1 0x12 PUSH1 0x24 DUP3 ADD MSTORE PUSH18 0x2832B936B4B9B9B4B7B7103232B734B2B217 PUSH1 0x71 SHL PUSH1 0x44 DUP3 ADD MSTORE SWAP1 MLOAD SWAP1 DUP2 SWAP1 SUB PUSH1 0x64 ADD SWAP1 REVERT JUMPDEST PUSH1 0x4 DUP1 SLOAD PUSH1 0x40 DUP1 MLOAD PUSH4 0x3649E1B PUSH1 0xE1 SHL DUP2 MSTORE SWAP3 DUP4 ADD DUP5 DUP2 MSTORE PUSH1 0x24 DUP5 ADD SWAP2 DUP3 MSTORE DUP11 MLOAD PUSH1 0x44 DUP6 ADD MSTORE DUP11 MLOAD PUSH1 0x1 PUSH1 0x1 PUSH1 0xA0 SHL SUB SWAP1 SWAP4 AND SWAP4 PUSH4 0x6C93C36 SWAP4 DUP7 SWAP4 DUP14 SWAP4 SWAP3 SWAP1 SWAP2 PUSH1 0x64 SWAP1 SWAP2 ADD SWAP1 PUSH1 0x20 DUP1 DUP7 ADD SWAP2 MUL DUP1 DUP4 DUP4 PUSH1 0x0 DUP4 ISZERO PUSH2 0x1C1F JUMPI DUP2 DUP2 ADD MLOAD DUP4 DUP3 ADD MSTORE PUSH1 0x20 ADD PUSH2 0x1C07 JUMP JUMPDEST PUSH1 0x4 DUP1 SLOAD PUSH1 0x40 DUP1 MLOAD PUSH4 0x352C7373 PUSH1 0xE2 SHL DUP2 MSTORE SWAP3 DUP4 ADD DUP6 SWAP1 MSTORE CALLER PUSH1 0x24 DUP5 ADD MSTORE MLOAD PUSH1 0x1 PUSH1 0x1 PUSH1 0xA0 SHL SUB SWAP1 SWAP2 AND SWAP2 PUSH4 0xD4B1CDCC SWAP2 PUSH1 0x44 DUP1 DUP4 ADD SWAP3 PUSH1 0x20 SWAP3 SWAP2 SWAP1 DUP3 SWAP1 SUB ADD DUP2 DUP7 DUP1 EXTCODESIZE ISZERO DUP1 ISZERO PUSH2 0x3675 JUMPI PUSH1 0x0 DUP1 REVERT JUMPDEST POP GAS STATICCALL ISZERO DUP1 ISZERO PUSH2 0x3689 JUMPI RETURNDATASIZE PUSH1 0x0 DUP1 RETURNDATACOPY RETURNDATASIZE PUSH1 0x0 REVERT JUMPDEST POP POP POP POP PUSH1 0x40 MLOAD RETURNDATASIZE PUSH1 0x20 DUP2 LT ISZERO PUSH2 0x369F JUMPI PUSH1 0x0 DUP1 REVERT JUMPDEST POP MLOAD PUSH2 0x36DC JUMPI PUSH1 0x40 MLOAD PUSH3 0x461BCD PUSH1 0xE5 SHL DUP2 MSTORE PUSH1 0x4 ADD DUP1 DUP1 PUSH1 0x20 ADD DUP3 DUP2 SUB DUP3 MSTORE PUSH1 0x2E DUP2 MSTORE PUSH1 0x20 ADD DUP1 PUSH2 0x4E12 PUSH1 0x2E SWAP2 CODECOPY PUSH1 0x40 ADD SWAP2 POP POP PUSH1 0x40 MLOAD DUP1 SWAP2 SUB SWAP1 REVERT JUMPDEST PUSH1 0x0 DUP3 DUP2 MSTORE PUSH1 0x2 PUSH1 0x20 SWAP1 DUP2 MSTORE PUSH1 0x40 DUP1 DUP4 KECCAK256 CALLER DUP5 MSTORE SWAP1 SWAP2 MSTORE SWAP1 KECCAK256 SLOAD DUP2 GT ISZERO PUSH2 0x3798 JUMPI PUSH1 0x0 DUP3 DUP2 MSTORE PUSH1 0x2 PUSH1 0x20 SWAP1 DUP2 MSTORE PUSH1 0x40 DUP1 DUP4 KECCAK256 CALLER DUP1 DUP6 MSTORE SWAP1 DUP4 MSTORE SWAP3 DUP2 SWAP1 KECCAK256 SLOAD DUP2 MLOAD SWAP1 DUP2 MSTORE SWAP2 DUP3 ADD DUP5 SWAP1 MSTORE DUP1 MLOAD DUP6 SWAP3 PUSH32 0xE8197A2184C184C738BFD08F3EE78A377CDE69118A3D580480D00A9208D6BDF3 SWAP3 SWAP1 DUP3 SWAP1 SUB ADD SWAP1 LOG3 PUSH1 0x40 DUP1 MLOAD PUSH3 0x461BCD PUSH1 0xE5 SHL DUP2 MSTORE PUSH1 0x20 PUSH1 0x4 DUP3 ADD MSTORE PUSH1 0x16 PUSH1 0x24 DUP3 ADD MSTORE PUSH22 0x496E73756666696369656E7420416C6C6F77616E6365 PUSH1 0x50 SHL PUSH1 0x44 DUP3 ADD MSTORE SWAP1 MLOAD SWAP1 DUP2 SWAP1 SUB PUSH1 0x64 ADD SWAP1 REVERT JUMPDEST PUSH1 0x0 DUP3 DUP2 MSTORE PUSH1 0x2 PUSH1 0x20 SWAP1 DUP2 MSTORE PUSH1 0x40 DUP1 DUP4 KECCAK256 CALLER DUP5 MSTORE SWAP1 SWAP2 MSTORE SWAP1 KECCAK256 SLOAD PUSH2 0x37C2 SWAP1 DUP3 PUSH4 0xFFFFFFFF PUSH2 0x4D77 AND JUMP JUMPDEST PUSH1 0x0 SWAP3 DUP4 MSTORE PUSH1 0x2 PUSH1 0x20 SWAP1 DUP2 MSTORE PUSH1 0x40 DUP1 DUP6 KECCAK256 CALLER DUP7 MSTORE SWAP1 SWAP2 MSTORE SWAP1 SWAP3 KECCAK256 SWAP2 SWAP1 SWAP2 SSTORE POP JUMP JUMPDEST PUSH1 0x4 DUP1 SLOAD PUSH1 0x40 DUP1 MLOAD PUSH4 0x2DAD769D PUSH1 0xE1 SHL DUP2 MSTORE SWAP3 DUP4 ADD DUP6 SWAP1 MSTORE MLOAD PUSH1 0x0 SWAP3 DUP6 SWAP3 PUSH1 0x1 SWAP3 DUP4 SWAP3 PUSH1 0x1 PUSH1 0x1 PUSH1 0xA0 SHL SUB SWAP1 SWAP3 AND SWAP2 PUSH4 0x5B5AED3A SWAP2 PUSH1 0x24 DUP1 DUP4 ADD SWAP3 PUSH1 0x20 SWAP3 SWAP2 SWAP1 DUP3 SWAP1 SUB ADD DUP2 DUP7 DUP1 EXTCODESIZE ISZERO DUP1 ISZERO PUSH2 0x3837 JUMPI PUSH1 0x0 DUP1 REVERT JUMPDEST POP GAS STATICCALL ISZERO DUP1 ISZERO PUSH2 0x384B JUMPI RETURNDATASIZE PUSH1 0x0 DUP1 RETURNDATACOPY RETURNDATASIZE PUSH1 0x0 REVERT JUMPDEST POP POP POP POP PUSH1 0x40 MLOAD RETURNDATASIZE PUSH1 0x20 DUP2 LT ISZERO PUSH2 0x3861 JUMPI PUSH1 0x0 DUP1 REVERT JUMPDEST POP MLOAD ISZERO ISZERO EQ PUSH2 0x38B7 JUMPI PUSH1 0x40 DUP1 MLOAD PUSH3 0x461BCD PUSH1 0xE5 SHL DUP2 MSTORE PUSH1 0x20 PUSH1 0x4 DUP3 ADD MSTORE PUSH1 0x17 PUSH1 0x24 DUP3 ADD MSTORE PUSH32 0x5468652045494E20646F6573206E6F742065786973742E000000000000000000 PUSH1 0x44 DUP3 ADD MSTORE SWAP1 MLOAD SWAP1 DUP2 SWAP1 SUB PUSH1 0x64 ADD SWAP1 REVERT JUMPDEST PUSH1 0x0 DUP7 DUP2 MSTORE PUSH1 0x1 PUSH1 0x20 MSTORE PUSH1 0x40 SWAP1 KECCAK256 SLOAD DUP5 GT ISZERO PUSH2 0x3904 JUMPI PUSH1 0x40 MLOAD PUSH3 0x461BCD PUSH1 0xE5 SHL DUP2 MSTORE PUSH1 0x4 ADD DUP1 DUP1 PUSH1 0x20 ADD DUP3 DUP2 SUB DUP3 MSTORE PUSH1 0x36 DUP2 MSTORE PUSH1 0x20 ADD DUP1 PUSH2 0x4FEE PUSH1 0x36 SWAP2 CODECOPY PUSH1 0x40 ADD SWAP2 POP POP PUSH1 0x40 MLOAD DUP1 SWAP2 SUB SWAP1 REVERT JUMPDEST PUSH1 0x0 DUP7 DUP2 MSTORE PUSH1 0x1 PUSH1 0x20 MSTORE PUSH1 0x40 SWAP1 KECCAK256 SLOAD PUSH2 0x3923 SWAP1 DUP6 PUSH4 0xFFFFFFFF PUSH2 0x4D77 AND JUMP JUMPDEST PUSH1 0x0 DUP8 DUP2 MSTORE PUSH1 0x1 PUSH1 0x20 MSTORE PUSH1 0x40 DUP1 DUP3 KECCAK256 SWAP3 SWAP1 SWAP3 SSTORE DUP7 DUP2 MSTORE KECCAK256 SLOAD PUSH2 0x394B SWAP1 DUP6 PUSH4 0xFFFFFFFF PUSH2 0x4801 AND JUMP JUMPDEST PUSH1 0x1 PUSH1 0x0 DUP8 DUP2 MSTORE PUSH1 0x20 ADD SWAP1 DUP2 MSTORE PUSH1 0x20 ADD PUSH1 0x0 KECCAK256 DUP2 SWAP1 SSTORE POP DUP5 DUP7 PUSH32 0xFC1E758CDFD0000672C8F8E0557FDAE32B207AB6040726E3E91A363AC1EA234A DUP7 PUSH1 0x40 MLOAD DUP1 DUP3 DUP2 MSTORE PUSH1 0x20 ADD SWAP2 POP POP PUSH1 0x40 MLOAD DUP1 SWAP2 SUB SWAP1 LOG3 POP POP SWAP4 SWAP3 POP POP POP JUMP JUMPDEST PUSH1 0x4 PUSH1 0x0 SWAP1 SLOAD SWAP1 PUSH2 0x100 EXP SWAP1 DIV PUSH1 0x1 PUSH1 0x1 PUSH1 0xA0 SHL SUB AND PUSH1 0x1 PUSH1 0x1 PUSH1 0xA0 SHL SUB AND PUSH4 0x8677EBE8 DUP11 PUSH1 0x19 PUSH1 0xF8 SHL PUSH1 0x0 PUSH1 0xF8 SHL ADDRESS DUP14 DUP14 DUP14 DUP14 DUP14 PUSH1 0x40 MLOAD PUSH1 0x20 ADD DUP1 DUP10 PUSH1 0x1 PUSH1 0x1 PUSH1 0xF8 SHL SUB NOT AND PUSH1 0x1 PUSH1 0x1 PUSH1 0xF8 SHL SUB NOT AND DUP2 MSTORE PUSH1 0x1 ADD DUP9 PUSH1 0x1 PUSH1 0x1 PUSH1 0xF8 SHL SUB NOT AND PUSH1 0x1 PUSH1 0x1 PUSH1 0xF8 SHL SUB NOT AND DUP2 MSTORE PUSH1 0x1 ADD DUP8 PUSH1 0x1 PUSH1 0x1 PUSH1 0xA0 SHL SUB AND PUSH1 0x1 PUSH1 0x1 PUSH1 0xA0 SHL SUB AND PUSH1 0x60 SHL DUP2 MSTORE PUSH1 0x14 ADD DUP1 PUSH32 0x4920617574686F72697A65207468697320616C6C6F7720616E642063616C6C2E DUP2 MSTORE POP PUSH1 0x20 ADD DUP7 DUP2 MSTORE PUSH1 0x20 ADD DUP6 PUSH1 0x1 PUSH1 0x1 PUSH1 0xA0 SHL SUB AND PUSH1 0x1 PUSH1 0x1 PUSH1 0xA0 SHL SUB AND PUSH1 0x60 SHL DUP2 MSTORE PUSH1 0x14 ADD DUP5 DUP2 MSTORE PUSH1 0x20 ADD DUP4 DUP1 MLOAD SWAP1 PUSH1 0x20 ADD SWAP1 DUP1 DUP4 DUP4 JUMPDEST PUSH1 0x20 DUP4 LT PUSH2 0x3AA9 JUMPI DUP1 MLOAD DUP3 MSTORE PUSH1 0x1F NOT SWAP1 SWAP3 ADD SWAP2 PUSH1 0x20 SWAP2 DUP3 ADD SWAP2 ADD PUSH2 0x3A8A JUMP JUMPDEST PUSH1 0x1 DUP4 PUSH1 0x20 SUB PUSH2 0x100 EXP SUB DUP1 NOT DUP3 MLOAD AND DUP2 DUP5 MLOAD AND DUP1 DUP3 OR DUP6 MSTORE POP POP POP POP POP POP SWAP1 POP ADD DUP3 DUP2 MSTORE PUSH1 0x20 ADD SWAP9 POP POP POP POP POP POP POP POP POP PUSH1 0x40 MLOAD PUSH1 0x20 DUP2 DUP4 SUB SUB DUP2 MSTORE SWAP1 PUSH1 0x40 MSTORE DUP1 MLOAD SWAP1 PUSH1 0x20 ADD KECCAK256 DUP7 DUP7 DUP7 PUSH1 0x40 MLOAD DUP7 PUSH4 0xFFFFFFFF AND PUSH1 0xE0 SHL DUP2 MSTORE PUSH1 0x4 ADD DUP1 DUP7 PUSH1 0x1 PUSH1 0x1 PUSH1 0xA0 SHL SUB AND PUSH1 0x1 PUSH1 0x1 PUSH1 0xA0 SHL SUB AND DUP2 MSTORE PUSH1 0x20 ADD DUP6 DUP2 MSTORE PUSH1 0x20 ADD DUP5 PUSH1 0xFF AND PUSH1 0xFF AND DUP2 MSTORE PUSH1 0x20 ADD DUP4 DUP2 MSTORE PUSH1 0x20 ADD DUP3 DUP2 MSTORE PUSH1 0x20 ADD SWAP6 POP POP POP POP POP POP PUSH1 0x20 PUSH1 0x40 MLOAD DUP1 DUP4 SUB DUP2 DUP7 DUP1 EXTCODESIZE ISZERO DUP1 ISZERO PUSH2 0x3B5C JUMPI PUSH1 0x0 DUP1 REVERT JUMPDEST POP GAS STATICCALL ISZERO DUP1 ISZERO PUSH2 0x3B70 JUMPI RETURNDATASIZE PUSH1 0x0 DUP1 RETURNDATACOPY RETURNDATASIZE PUSH1 0x0 REVERT JUMPDEST POP POP POP POP PUSH1 0x40 MLOAD RETURNDATASIZE PUSH1 0x20 DUP2 LT ISZERO PUSH2 0x3B86 JUMPI PUSH1 0x0 DUP1 REVERT JUMPDEST POP MLOAD PUSH2 0x3BCE JUMPI PUSH1 0x40 DUP1 MLOAD PUSH3 0x461BCD PUSH1 0xE5 SHL DUP2 MSTORE PUSH1 0x20 PUSH1 0x4 DUP3 ADD MSTORE PUSH1 0x12 PUSH1 0x24 DUP3 ADD MSTORE PUSH18 0x2832B936B4B9B9B4B7B7103232B734B2B217 PUSH1 0x71 SHL PUSH1 0x44 DUP3 ADD MSTORE SWAP1 MLOAD SWAP1 DUP2 SWAP1 SUB PUSH1 0x64 ADD SWAP1 REVERT JUMPDEST POP POP POP POP POP POP POP POP POP JUMP JUMPDEST PUSH1 0x4 DUP1 SLOAD PUSH1 0x40 DUP1 MLOAD PUSH4 0x352C7373 PUSH1 0xE2 SHL DUP2 MSTORE SWAP3 DUP4 ADD DUP8 SWAP1 MSTORE PUSH1 0x1 PUSH1 0x1 PUSH1 0xA0 SHL SUB DUP6 DUP2 AND PUSH1 0x24 DUP6 ADD MSTORE SWAP1 MLOAD PUSH1 0x60 SWAP4 SWAP2 SWAP1 SWAP3 AND SWAP2 PUSH4 0xD4B1CDCC SWAP2 PUSH1 0x44 DUP1 DUP3 ADD SWAP3 PUSH1 0x20 SWAP3 SWAP1 SWAP2 SWAP1 DUP3 SWAP1 SUB ADD DUP2 DUP7 DUP1 EXTCODESIZE ISZERO DUP1 ISZERO PUSH2 0x3C31 JUMPI PUSH1 0x0 DUP1 REVERT JUMPDEST POP GAS STATICCALL ISZERO DUP1 ISZERO PUSH2 0x3C45 JUMPI RETURNDATASIZE PUSH1 0x0 DUP1 RETURNDATACOPY RETURNDATASIZE PUSH1 0x0 REVERT JUMPDEST POP POP POP POP PUSH1 0x40 MLOAD RETURNDATASIZE PUSH1 0x20 DUP2 LT ISZERO PUSH2 0x3C5B JUMPI PUSH1 0x0 DUP1 REVERT JUMPDEST POP MLOAD PUSH2 0x3C98 JUMPI PUSH1 0x40 MLOAD PUSH3 0x461BCD PUSH1 0xE5 SHL DUP2 MSTORE PUSH1 0x4 ADD DUP1 DUP1 PUSH1 0x20 ADD DUP3 DUP2 SUB DUP3 MSTORE PUSH1 0x31 DUP2 MSTORE PUSH1 0x20 ADD DUP1 PUSH2 0x4D8D PUSH1 0x31 SWAP2 CODECOPY PUSH1 0x40 ADD SWAP2 POP POP PUSH1 0x40 MLOAD DUP1 SWAP2 SUB SWAP1 REVERT JUMPDEST DUP4 ISZERO PUSH2 0x3CF5 JUMPI PUSH1 0x0 DUP6 DUP2 MSTORE PUSH1 0x2 PUSH1 0x20 SWAP1 DUP2 MSTORE PUSH1 0x40 DUP1 DUP4 KECCAK256 PUSH1 0x1 PUSH1 0x1 PUSH1 0xA0 SHL SUB DUP8 AND DUP5 MSTORE SWAP1 SWAP2 MSTORE SWAP1 KECCAK256 SLOAD PUSH2 0x3CD1 SWAP1 DUP6 PUSH4 0xFFFFFFFF PUSH2 0x4801 AND JUMP JUMPDEST PUSH1 0x0 DUP7 DUP2 MSTORE PUSH1 0x2 PUSH1 0x20 SWAP1 DUP2 MSTORE PUSH1 0x40 DUP1 DUP4 KECCAK256 PUSH1 0x1 PUSH1 0x1 PUSH1 0xA0 SHL SUB DUP9 AND DUP5 MSTORE SWAP1 SWAP2 MSTORE SWAP1 KECCAK256 SSTORE JUMPDEST PUSH1 0x0 PUSH1 0x60 DUP5 PUSH1 0x1 PUSH1 0x1 PUSH1 0xA0 SHL SUB AND DUP5 PUSH1 0x40 MLOAD DUP1 DUP3 DUP1 MLOAD SWAP1 PUSH1 0x20 ADD SWAP1 DUP1 DUP4 DUP4 JUMPDEST PUSH1 0x20 DUP4 LT PUSH2 0x3D33 JUMPI DUP1 MLOAD DUP3 MSTORE PUSH1 0x1F NOT SWAP1 SWAP3 ADD SWAP2 PUSH1 0x20 SWAP2 DUP3 ADD SWAP2 ADD PUSH2 0x3D14 JUMP JUMPDEST PUSH1 0x1 DUP4 PUSH1 0x20 SUB PUSH2 0x100 EXP SUB DUP1 NOT DUP3 MLOAD AND DUP2 DUP5 MLOAD AND DUP1 DUP3 OR DUP6 MSTORE POP POP POP POP POP POP SWAP1 POP ADD SWAP2 POP POP PUSH1 0x0 PUSH1 0x40 MLOAD DUP1 DUP4 SUB DUP2 PUSH1 0x0 DUP7 GAS CALL SWAP2 POP POP RETURNDATASIZE DUP1 PUSH1 0x0 DUP2 EQ PUSH2 0x3D95 JUMPI PUSH1 0x40 MLOAD SWAP2 POP PUSH1 0x1F NOT PUSH1 0x3F RETURNDATASIZE ADD AND DUP3 ADD PUSH1 0x40 MSTORE RETURNDATASIZE DUP3 MSTORE RETURNDATASIZE PUSH1 0x0 PUSH1 0x20 DUP5 ADD RETURNDATACOPY PUSH2 0x3D9A JUMP JUMPDEST PUSH1 0x60 SWAP2 POP JUMPDEST POP SWAP2 POP SWAP2 POP DUP2 PUSH2 0x3DF1 JUMPI PUSH1 0x40 DUP1 MLOAD PUSH3 0x461BCD PUSH1 0xE5 SHL DUP2 MSTORE PUSH1 0x20 PUSH1 0x4 DUP3 ADD MSTORE PUSH1 0x18 PUSH1 0x24 DUP3 ADD MSTORE PUSH32 0x43616C6C20776173206E6F74207375636365737366756C2E0000000000000000 PUSH1 0x44 DUP3 ADD MSTORE SWAP1 MLOAD SWAP1 DUP2 SWAP1 SUB PUSH1 0x64 ADD SWAP1 REVERT JUMPDEST SWAP7 SWAP6 POP POP POP POP POP POP JUMP JUMPDEST PUSH1 0x1 PUSH1 0x1 PUSH1 0xA0 SHL SUB DUP3 AND ADDRESS EQ ISZERO PUSH2 0x3E43 JUMPI PUSH1 0x40 MLOAD PUSH3 0x461BCD PUSH1 0xE5 SHL DUP2 MSTORE PUSH1 0x4 ADD DUP1 DUP1 PUSH1 0x20 ADD DUP3 DUP2 SUB DUP3 MSTORE PUSH1 0x37 DUP2 MSTORE PUSH1 0x20 ADD DUP1 PUSH2 0x4E40 PUSH1 0x37 SWAP2 CODECOPY PUSH1 0x40 ADD SWAP2 POP POP PUSH1 0x40 MLOAD DUP1 SWAP2 SUB SWAP1 REVERT JUMPDEST PUSH1 0x0 DUP4 DUP2 MSTORE PUSH1 0x1 PUSH1 0x20 MSTORE PUSH1 0x40 SWAP1 KECCAK256 SLOAD DUP2 GT ISZERO PUSH2 0x3E90 JUMPI PUSH1 0x40 MLOAD PUSH3 0x461BCD PUSH1 0xE5 SHL DUP2 MSTORE PUSH1 0x4 ADD DUP1 DUP1 PUSH1 0x20 ADD DUP3 DUP2 SUB DUP3 MSTORE PUSH1 0x36 DUP2 MSTORE PUSH1 0x20 ADD DUP1 PUSH2 0x4FEE PUSH1 0x36 SWAP2 CODECOPY PUSH1 0x40 ADD SWAP2 POP POP PUSH1 0x40 MLOAD DUP1 SWAP2 SUB SWAP1 REVERT JUMPDEST PUSH1 0x0 DUP4 DUP2 MSTORE PUSH1 0x1 PUSH1 0x20 MSTORE PUSH1 0x40 SWAP1 KECCAK256 SLOAD PUSH2 0x3EAF SWAP1 DUP3 PUSH4 0xFFFFFFFF PUSH2 0x4D77 AND JUMP JUMPDEST PUSH1 0x0 DUP5 DUP2 MSTORE PUSH1 0x1 PUSH1 0x20 SWAP1 DUP2 MSTORE PUSH1 0x40 DUP1 DUP4 KECCAK256 SWAP4 SWAP1 SWAP4 SSTORE PUSH1 0x6 SLOAD DUP4 MLOAD PUSH4 0xA9059CBB PUSH1 0xE0 SHL DUP2 MSTORE PUSH1 0x1 PUSH1 0x1 PUSH1 0xA0 SHL SUB DUP8 DUP2 AND PUSH1 0x4 DUP4 ADD MSTORE PUSH1 0x24 DUP3 ADD DUP8 SWAP1 MSTORE SWAP5 MLOAD SWAP5 SWAP1 SWAP2 AND SWAP4 PUSH4 0xA9059CBB SWAP4 PUSH1 0x44 DUP1 DUP5 ADD SWAP5 SWAP4 DUP4 SWAP1 SUB ADD SWAP1 DUP3 SWAP1 DUP8 DUP1 EXTCODESIZE ISZERO DUP1 ISZERO PUSH2 0x3F14 JUMPI PUSH1 0x0 DUP1 REVERT JUMPDEST POP GAS CALL ISZERO DUP1 ISZERO PUSH2 0x3F28 JUMPI RETURNDATASIZE PUSH1 0x0 DUP1 RETURNDATACOPY RETURNDATASIZE PUSH1 0x0 REVERT JUMPDEST POP POP POP POP PUSH1 0x40 MLOAD RETURNDATASIZE PUSH1 0x20 DUP2 LT ISZERO PUSH2 0x3F3E JUMPI PUSH1 0x0 DUP1 REVERT JUMPDEST POP MLOAD PUSH2 0x3F91 JUMPI PUSH1 0x40 DUP1 MLOAD PUSH3 0x461BCD PUSH1 0xE5 SHL DUP2 MSTORE PUSH1 0x20 PUSH1 0x4 DUP3 ADD MSTORE PUSH1 0x19 PUSH1 0x24 DUP3 ADD MSTORE PUSH32 0x5472616E736665722077617320756E7375636365737366756C00000000000000 PUSH1 0x44 DUP3 ADD MSTORE SWAP1 MLOAD SWAP1 DUP2 SWAP1 SUB PUSH1 0x64 ADD SWAP1 REVERT JUMPDEST PUSH1 0x40 DUP1 MLOAD DUP3 DUP2 MSTORE SWAP1 MLOAD PUSH1 0x1 PUSH1 0x1 PUSH1 0xA0 SHL SUB DUP5 AND SWAP2 DUP6 SWAP2 PUSH32 0xAAA7DE357803E36044E97C4F0D438A72B371380BFF06B41E9B921B8F61CB489E SWAP2 DUP2 SWAP1 SUB PUSH1 0x20 ADD SWAP1 LOG3 POP POP POP JUMP JUMPDEST PUSH1 0x4 DUP1 SLOAD PUSH1 0x40 DUP1 MLOAD PUSH4 0x352C7373 PUSH1 0xE2 SHL DUP2 MSTORE SWAP3 DUP4 ADD DUP9 SWAP1 MSTORE PUSH1 0x1 PUSH1 0x1 PUSH1 0xA0 SHL SUB DUP8 DUP2 AND PUSH1 0x24 DUP6 ADD MSTORE SWAP1 MLOAD SWAP2 AND SWAP2 PUSH4 0xD4B1CDCC SWAP2 PUSH1 0x44 DUP1 DUP4 ADD SWAP3 PUSH1 0x20 SWAP3 SWAP2 SWAP1 DUP3 SWAP1 SUB ADD DUP2 DUP7 DUP1 EXTCODESIZE ISZERO DUP1 ISZERO PUSH2 0x4028 JUMPI PUSH1 0x0 DUP1 REVERT JUMPDEST POP GAS STATICCALL ISZERO DUP1 ISZERO PUSH2 0x403C JUMPI RETURNDATASIZE PUSH1 0x0 DUP1 RETURNDATACOPY RETURNDATASIZE PUSH1 0x0 REVERT JUMPDEST POP POP POP POP PUSH1 0x40 MLOAD RETURNDATASIZE PUSH1 0x20 DUP2 LT ISZERO PUSH2 0x4052 JUMPI PUSH1 0x0 DUP1 REVERT JUMPDEST POP MLOAD ISZERO PUSH2 0x4090 JUMPI PUSH1 0x40 MLOAD PUSH3 0x461BCD PUSH1 0xE5 SHL DUP2 MSTORE PUSH1 0x4 ADD DUP1 DUP1 PUSH1 0x20 ADD DUP3 DUP2 SUB DUP3 MSTORE PUSH1 0x27 DUP2 MSTORE PUSH1 0x20 ADD DUP1 PUSH2 0x4F0E PUSH1 0x27 SWAP2 CODECOPY PUSH1 0x40 ADD SWAP2 POP POP PUSH1 0x40 MLOAD DUP1 SWAP2 SUB SWAP1 REVERT JUMPDEST PUSH1 0x40 DUP1 MLOAD PUSH1 0x1 DUP1 DUP3 MSTORE DUP2 DUP4 ADD SWAP1 SWAP3 MSTORE PUSH1 0x60 SWAP2 PUSH1 0x20 DUP1 DUP4 ADD SWAP1 DUP1 CODESIZE DUP4 CODECOPY ADD SWAP1 POP POP SWAP1 POP DUP5 DUP2 PUSH1 0x0 DUP2 MLOAD DUP2 LT PUSH2 0x40C0 JUMPI INVALID JUMPDEST PUSH1 0x1 PUSH1 0x1 PUSH1 0xA0 SHL SUB SWAP3 DUP4 AND PUSH1 0x20 SWAP2 DUP3 MUL SWAP3 SWAP1 SWAP3 ADD DUP2 ADD SWAP2 SWAP1 SWAP2 MSTORE PUSH1 0x4 DUP1 SLOAD PUSH1 0x40 DUP1 MLOAD PUSH3 0x4221F7 PUSH1 0xE2 SHL DUP2 MSTORE SWAP3 DUP4 ADD DUP12 DUP2 MSTORE PUSH1 0x24 DUP5 ADD SWAP2 DUP3 MSTORE DUP7 MLOAD PUSH1 0x44 DUP6 ADD MSTORE DUP7 MLOAD SWAP3 SWAP1 SWAP6 AND SWAP5 PUSH4 0x10887DC SWAP5 DUP13 SWAP5 DUP9 SWAP5 SWAP3 SWAP4 SWAP3 PUSH1 0x64 SWAP1 SWAP2 ADD SWAP2 DUP6 DUP2 ADD SWAP2 MUL DUP1 DUP4 DUP4 PUSH1 0x0 JUMPDEST DUP4 DUP2 LT ISZERO PUSH2 0x413C JUMPI DUP2 DUP2 ADD MLOAD DUP4 DUP3 ADD MSTORE PUSH1 0x20 ADD PUSH2 0x4124 JUMP JUMPDEST POP POP POP POP SWAP1 POP ADD SWAP4 POP POP POP POP PUSH1 0x0 PUSH1 0x40 MLOAD DUP1 DUP4 SUB DUP2 PUSH1 0x0 DUP8 DUP1 EXTCODESIZE ISZERO DUP1 ISZERO PUSH2 0x4162 JUMPI PUSH1 0x0 DUP1 REVERT JUMPDEST POP GAS CALL ISZERO DUP1 ISZERO PUSH2 0x4176 JUMPI RETURNDATASIZE PUSH1 0x0 DUP1 RETURNDATACOPY RETURNDATASIZE PUSH1 0x0 REVERT JUMPDEST POP POP POP POP DUP4 ISZERO PUSH2 0x4376 JUMPI PUSH1 0x0 DUP7 DUP2 MSTORE PUSH1 0x2 PUSH1 0x20 SWAP1 DUP2 MSTORE PUSH1 0x40 DUP1 DUP4 KECCAK256 PUSH1 0x1 PUSH1 0x1 PUSH1 0xA0 SHL SUB DUP10 AND DUP1 DUP6 MSTORE SWAP1 DUP4 MSTORE SWAP3 DUP2 SWAP1 KECCAK256 DUP7 SWAP1 SSTORE DUP1 MLOAD PUSH4 0x71790251 PUSH1 0xE0 SHL DUP2 MSTORE SWAP1 MLOAD DUP9 SWAP4 SWAP3 PUSH4 0x71790251 SWAP3 PUSH1 0x4 DUP1 DUP3 ADD SWAP4 SWAP2 DUP3 SWAP1 SUB ADD DUP2 DUP7 DUP1 EXTCODESIZE ISZERO DUP1 ISZERO PUSH2 0x41DA JUMPI PUSH1 0x0 DUP1 REVERT JUMPDEST POP GAS STATICCALL ISZERO DUP1 ISZERO PUSH2 0x41EE JUMPI RETURNDATASIZE PUSH1 0x0 DUP1 RETURNDATACOPY RETURNDATASIZE PUSH1 0x0 REVERT JUMPDEST POP POP POP POP PUSH1 0x40 MLOAD RETURNDATASIZE PUSH1 0x20 DUP2 LT ISZERO PUSH2 0x4204 JUMPI PUSH1 0x0 DUP1 REVERT JUMPDEST POP MLOAD ISZERO PUSH2 0x4334 JUMPI PUSH1 0x40 MLOAD PUSH4 0x242FEBD PUSH1 0xE6 SHL DUP2 MSTORE PUSH1 0x4 DUP2 ADD DUP9 DUP2 MSTORE PUSH1 0x24 DUP3 ADD DUP7 SWAP1 MSTORE PUSH1 0x60 PUSH1 0x44 DUP4 ADD SWAP1 DUP2 MSTORE DUP6 MLOAD PUSH1 0x64 DUP5 ADD MSTORE DUP6 MLOAD PUSH1 0x1 PUSH1 0x1 PUSH1 0xA0 SHL SUB DUP6 AND SWAP4 PUSH4 0x90BFAF40 SWAP4 DUP13 SWAP4 DUP11 SWAP4 DUP11 SWAP4 PUSH1 0x84 ADD SWAP1 PUSH1 0x20 DUP6 ADD SWAP1 DUP1 DUP4 DUP4 PUSH1 0x0 JUMPDEST DUP4 DUP2 LT ISZERO PUSH2 0x4276 JUMPI DUP2 DUP2 ADD MLOAD DUP4 DUP3 ADD MSTORE PUSH1 0x20 ADD PUSH2 0x425E JUMP JUMPDEST POP POP POP POP SWAP1 POP SWAP1 DUP2 ADD SWAP1 PUSH1 0x1F AND DUP1 ISZERO PUSH2 0x42A3 JUMPI DUP1 DUP3 SUB DUP1 MLOAD PUSH1 0x1 DUP4 PUSH1 0x20 SUB PUSH2 0x100 EXP SUB NOT AND DUP2 MSTORE PUSH1 0x20 ADD SWAP2 POP JUMPDEST POP SWAP5 POP POP POP POP POP PUSH1 0x20 PUSH1 0x40 MLOAD DUP1 DUP4 SUB DUP2 PUSH1 0x0 DUP8 DUP1 EXTCODESIZE ISZERO DUP1 ISZERO PUSH2 0x42C4 JUMPI PUSH1 0x0 DUP1 REVERT JUMPDEST POP GAS CALL ISZERO DUP1 ISZERO PUSH2 0x42D8 JUMPI RETURNDATASIZE PUSH1 0x0 DUP1 RETURNDATACOPY RETURNDATASIZE PUSH1 0x0 REVERT JUMPDEST POP POP POP POP PUSH1 0x40 MLOAD RETURNDATASIZE PUSH1 0x20 DUP2 LT ISZERO PUSH2 0x42EE JUMPI PUSH1 0x0 DUP1 REVERT JUMPDEST POP MLOAD PUSH2 0x4334 JUMPI PUSH1 0x40 DUP1 MLOAD PUSH3 0x461BCD PUSH1 0xE5 SHL DUP2 MSTORE PUSH1 0x20 PUSH1 0x4 DUP3 ADD MSTORE PUSH1 0x10 PUSH1 0x24 DUP3 ADD MSTORE PUSH16 0x29B4B3B7103AB8103330B4B63AB93297 PUSH1 0x81 SHL PUSH1 0x44 DUP3 ADD MSTORE SWAP1 MLOAD SWAP1 DUP2 SWAP1 SUB PUSH1 0x64 ADD SWAP1 REVERT JUMPDEST PUSH1 0x40 DUP1 MLOAD DUP6 DUP2 MSTORE SWAP1 MLOAD PUSH1 0x1 PUSH1 0x1 PUSH1 0xA0 SHL SUB DUP9 AND SWAP2 DUP10 SWAP2 PUSH32 0xA5A2DCB81990508894586BCCD9070AF644F5B33C720292251377AD26FC26B880 SWAP2 DUP2 SWAP1 SUB PUSH1 0x20 ADD SWAP1 LOG3 POP JUMPDEST POP POP POP POP POP POP JUMP JUMPDEST DUP1 MLOAD DUP3 MLOAD EQ PUSH2 0x43C8 JUMPI PUSH1 0x40 DUP1 MLOAD PUSH3 0x461BCD PUSH1 0xE5 SHL DUP2 MSTORE PUSH1 0x20 PUSH1 0x4 DUP3 ADD MSTORE PUSH1 0x11 PUSH1 0x24 DUP3 ADD MSTORE PUSH17 0x26B0B63337B936B2B21034B7383ABA3997 PUSH1 0x79 SHL PUSH1 0x44 DUP3 ADD MSTORE SWAP1 MLOAD SWAP1 DUP2 SWAP1 SUB PUSH1 0x64 ADD SWAP1 REVERT JUMPDEST PUSH1 0x0 JUMPDEST DUP3 MLOAD DUP2 LT ISZERO PUSH2 0x2B88 JUMPI PUSH1 0x4 SLOAD DUP4 MLOAD PUSH1 0x1 PUSH1 0x1 PUSH1 0xA0 SHL SUB SWAP1 SWAP2 AND SWAP1 PUSH4 0xD4B1CDCC SWAP1 DUP7 SWAP1 DUP7 SWAP1 DUP6 SWAP1 DUP2 LT PUSH2 0x43F9 JUMPI INVALID JUMPDEST PUSH1 0x20 MUL PUSH1 0x20 ADD ADD MLOAD PUSH1 0x40 MLOAD DUP4 PUSH4 0xFFFFFFFF AND PUSH1 0xE0 SHL DUP2 MSTORE PUSH1 0x4 ADD DUP1 DUP4 DUP2 MSTORE PUSH1 0x20 ADD DUP3 PUSH1 0x1 PUSH1 0x1 PUSH1 0xA0 SHL SUB AND PUSH1 0x1 PUSH1 0x1 PUSH1 0xA0 SHL SUB AND DUP2 MSTORE PUSH1 0x20 ADD SWAP3 POP POP POP PUSH1 0x20 PUSH1 0x40 MLOAD DUP1 DUP4 SUB DUP2 DUP7 DUP1 EXTCODESIZE ISZERO DUP1 ISZERO PUSH2 0x444E JUMPI PUSH1 0x0 DUP1 REVERT JUMPDEST POP GAS STATICCALL ISZERO DUP1 ISZERO PUSH2 0x4462 JUMPI RETURNDATASIZE PUSH1 0x0 DUP1 RETURNDATACOPY RETURNDATASIZE PUSH1 0x0 REVERT JUMPDEST POP POP POP POP PUSH1 0x40 MLOAD RETURNDATASIZE PUSH1 0x20 DUP2 LT ISZERO PUSH2 0x4478 JUMPI PUSH1 0x0 DUP1 REVERT JUMPDEST POP MLOAD PUSH2 0x44B5 JUMPI PUSH1 0x40 MLOAD PUSH3 0x461BCD PUSH1 0xE5 SHL DUP2 MSTORE PUSH1 0x4 ADD DUP1 DUP1 PUSH1 0x20 ADD DUP3 DUP2 SUB DUP3 MSTORE PUSH1 0x23 DUP2 MSTORE PUSH1 0x20 ADD DUP1 PUSH2 0x4E77 PUSH1 0x23 SWAP2 CODECOPY PUSH1 0x40 ADD SWAP2 POP POP PUSH1 0x40 MLOAD DUP1 SWAP2 SUB SWAP1 REVERT JUMPDEST DUP2 DUP2 DUP2 MLOAD DUP2 LT PUSH2 0x44C1 JUMPI INVALID JUMPDEST PUSH1 0x20 MUL PUSH1 0x20 ADD ADD MLOAD PUSH1 0x2 PUSH1 0x0 DUP7 DUP2 MSTORE PUSH1 0x20 ADD SWAP1 DUP2 MSTORE PUSH1 0x20 ADD PUSH1 0x0 KECCAK256 PUSH1 0x0 DUP6 DUP5 DUP2 MLOAD DUP2 LT PUSH2 0x44EA JUMPI INVALID JUMPDEST PUSH1 0x20 MUL PUSH1 0x20 ADD ADD MLOAD PUSH1 0x1 PUSH1 0x1 PUSH1 0xA0 SHL SUB AND PUSH1 0x1 PUSH1 0x1 PUSH1 0xA0 SHL SUB AND DUP2 MSTORE PUSH1 0x20 ADD SWAP1 DUP2 MSTORE PUSH1 0x20 ADD PUSH1 0x0 KECCAK256 DUP2 SWAP1 SSTORE POP DUP3 DUP2 DUP2 MLOAD DUP2 LT PUSH2 0x4522 JUMPI INVALID JUMPDEST PUSH1 0x20 MUL PUSH1 0x20 ADD ADD MLOAD PUSH1 0x1 PUSH1 0x1 PUSH1 0xA0 SHL SUB AND DUP5 PUSH32 0xFB55528A8074C988C79FEF57F3A73AEBF780773D5152D785BBAF700C9E3532D3 DUP5 DUP5 DUP2 MLOAD DUP2 LT PUSH2 0x4561 JUMPI INVALID JUMPDEST PUSH1 0x20 MUL PUSH1 0x20 ADD ADD MLOAD PUSH1 0x40 MLOAD DUP1 DUP3 DUP2 MSTORE PUSH1 0x20 ADD SWAP2 POP POP PUSH1 0x40 MLOAD DUP1 SWAP2 SUB SWAP1 LOG3 PUSH1 0x1 ADD PUSH2 0x43CB JUMP JUMPDEST DUP1 DUP1 TIMESTAMP LT ISZERO DUP1 ISZERO PUSH2 0x459A JUMPI POP PUSH1 0x9 SLOAD DUP2 ADD TIMESTAMP LT JUMPDEST PUSH2 0x45E5 JUMPI PUSH1 0x40 DUP1 MLOAD PUSH3 0x461BCD PUSH1 0xE5 SHL DUP2 MSTORE PUSH1 0x20 PUSH1 0x4 DUP3 ADD MSTORE PUSH1 0x17 PUSH1 0x24 DUP3 ADD MSTORE PUSH23 0x2A34B6B2B9BA30B6B81034B9903737BA103B30B634B217 PUSH1 0x49 SHL PUSH1 0x44 DUP3 ADD MSTORE SWAP1 MLOAD SWAP1 DUP2 SWAP1 SUB PUSH1 0x64 ADD SWAP1 REVERT JUMPDEST PUSH1 0x4 PUSH1 0x0 SWAP1 SLOAD SWAP1 PUSH2 0x100 EXP SWAP1 DIV PUSH1 0x1 PUSH1 0x1 PUSH1 0xA0 SHL SUB AND PUSH1 0x1 PUSH1 0x1 PUSH1 0xA0 SHL SUB AND PUSH4 0x8677EBE8 DUP13 PUSH1 0x19 PUSH1 0xF8 SHL PUSH1 0x0 PUSH1 0xF8 SHL ADDRESS DUP16 DUP16 DUP16 DUP16 DUP16 DUP13 PUSH1 0x40 MLOAD PUSH1 0x20 ADD DUP1 DUP11 PUSH1 0x1 PUSH1 0x1 PUSH1 0xF8 SHL SUB NOT AND PUSH1 0x1 PUSH1 0x1 PUSH1 0xF8 SHL SUB NOT AND DUP2 MSTORE PUSH1 0x1 ADD DUP10 PUSH1 0x1 PUSH1 0x1 PUSH1 0xF8 SHL SUB NOT AND PUSH1 0x1 PUSH1 0x1 PUSH1 0xF8 SHL SUB NOT AND DUP2 MSTORE PUSH1 0x1 ADD DUP9 PUSH1 0x1 PUSH1 0x1 PUSH1 0xA0 SHL SUB AND PUSH1 0x1 PUSH1 0x1 PUSH1 0xA0 SHL SUB AND PUSH1 0x60 SHL DUP2 MSTORE PUSH1 0x14 ADD DUP1 PUSH2 0x4ED7 PUSH1 0x37 SWAP2 CODECOPY PUSH1 0x37 ADD DUP8 DUP2 MSTORE PUSH1 0x20 ADD DUP7 PUSH1 0x1 PUSH1 0x1 PUSH1 0xA0 SHL SUB AND PUSH1 0x1 PUSH1 0x1 PUSH1 0xA0 SHL SUB AND PUSH1 0x60 SHL DUP2 MSTORE PUSH1 0x14 ADD DUP6 ISZERO ISZERO ISZERO ISZERO PUSH1 0xF8 SHL DUP2 MSTORE PUSH1 0x1 ADD DUP5 DUP2 MSTORE PUSH1 0x20 ADD DUP4 DUP1 MLOAD SWAP1 PUSH1 0x20 ADD SWAP1 DUP1 DUP4 DUP4 JUMPDEST PUSH1 0x20 DUP4 LT PUSH2 0x46DB JUMPI DUP1 MLOAD DUP3 MSTORE PUSH1 0x1F NOT SWAP1 SWAP3 ADD SWAP2 PUSH1 0x20 SWAP2 DUP3 ADD SWAP2 ADD PUSH2 0x46BC JUMP JUMPDEST PUSH1 0x1 DUP4 PUSH1 0x20 SUB PUSH2 0x100 EXP SUB DUP1 NOT DUP3 MLOAD AND DUP2 DUP5 MLOAD AND DUP1 DUP3 OR DUP6 MSTORE POP POP POP POP POP POP SWAP1 POP ADD DUP3 DUP2 MSTORE PUSH1 0x20 ADD SWAP10 POP POP POP POP POP POP POP POP POP POP PUSH1 0x40 MLOAD PUSH1 0x20 DUP2 DUP4 SUB SUB DUP2 MSTORE SWAP1 PUSH1 0x40 MSTORE DUP1 MLOAD SWAP1 PUSH1 0x20 ADD KECCAK256 DUP9 DUP9 DUP9 PUSH1 0x40 MLOAD DUP7 PUSH4 0xFFFFFFFF AND PUSH1 0xE0 SHL DUP2 MSTORE PUSH1 0x4 ADD DUP1 DUP7 PUSH1 0x1 PUSH1 0x1 PUSH1 0xA0 SHL SUB AND PUSH1 0x1 PUSH1 0x1 PUSH1 0xA0 SHL SUB AND DUP2 MSTORE PUSH1 0x20 ADD DUP6 DUP2 MSTORE PUSH1 0x20 ADD DUP5 PUSH1 0xFF AND PUSH1 0xFF AND DUP2 MSTORE PUSH1 0x20 ADD DUP4 DUP2 MSTORE PUSH1 0x20 ADD DUP3 DUP2 MSTORE PUSH1 0x20 ADD SWAP6 POP POP POP POP POP POP PUSH1 0x20 PUSH1 0x40 MLOAD DUP1 DUP4 SUB DUP2 DUP7 DUP1 EXTCODESIZE ISZERO DUP1 ISZERO PUSH2 0x478F JUMPI PUSH1 0x0 DUP1 REVERT JUMPDEST POP GAS STATICCALL ISZERO DUP1 ISZERO PUSH2 0x47A3 JUMPI RETURNDATASIZE PUSH1 0x0 DUP1 RETURNDATACOPY RETURNDATASIZE PUSH1 0x0 REVERT JUMPDEST POP POP POP POP PUSH1 0x40 MLOAD RETURNDATASIZE PUSH1 0x20 DUP2 LT ISZERO PUSH2 0x47B9 JUMPI PUSH1 0x0 DUP1 REVERT JUMPDEST POP MLOAD PUSH2 0x175B JUMPI PUSH1 0x40 DUP1 MLOAD PUSH3 0x461BCD PUSH1 0xE5 SHL DUP2 MSTORE PUSH1 0x20 PUSH1 0x4 DUP3 ADD MSTORE PUSH1 0x12 PUSH1 0x24 DUP3 ADD MSTORE PUSH18 0x2832B936B4B9B9B4B7B7103232B734B2B217 PUSH1 0x71 SHL PUSH1 0x44 DUP3 ADD MSTORE SWAP1 MLOAD SWAP1 DUP2 SWAP1 SUB PUSH1 0x64 ADD SWAP1 REVERT JUMPDEST PUSH1 0x0 DUP3 DUP3 ADD DUP4 DUP2 LT ISZERO PUSH2 0x4813 JUMPI PUSH1 0x0 DUP1 REVERT JUMPDEST SWAP4 SWAP3 POP POP POP JUMP JUMPDEST PUSH1 0x4 DUP1 SLOAD PUSH1 0x40 DUP1 MLOAD PUSH4 0x352C7373 PUSH1 0xE2 SHL DUP2 MSTORE SWAP3 DUP4 ADD DUP8 SWAP1 MSTORE PUSH1 0x1 PUSH1 0x1 PUSH1 0xA0 SHL SUB DUP7 DUP2 AND PUSH1 0x24 DUP6 ADD MSTORE SWAP1 MLOAD SWAP2 AND SWAP2 PUSH4 0xD4B1CDCC SWAP2 PUSH1 0x44 DUP1 DUP4 ADD SWAP3 PUSH1 0x20 SWAP3 SWAP2 SWAP1 DUP3 SWAP1 SUB ADD DUP2 DUP7 DUP1 EXTCODESIZE ISZERO DUP1 ISZERO PUSH2 0x486C JUMPI PUSH1 0x0 DUP1 REVERT JUMPDEST POP GAS STATICCALL ISZERO DUP1 ISZERO PUSH2 0x4880 JUMPI RETURNDATASIZE PUSH1 0x0 DUP1 RETURNDATACOPY RETURNDATASIZE PUSH1 0x0 REVERT JUMPDEST POP POP POP POP PUSH1 0x40 MLOAD RETURNDATASIZE PUSH1 0x20 DUP2 LT ISZERO PUSH2 0x4896 JUMPI PUSH1 0x0 DUP1 REVERT JUMPDEST POP MLOAD PUSH2 0x48D3 JUMPI PUSH1 0x40 MLOAD PUSH3 0x461BCD PUSH1 0xE5 SHL DUP2 MSTORE PUSH1 0x4 ADD DUP1 DUP1 PUSH1 0x20 ADD DUP3 DUP2 SUB DUP3 MSTORE PUSH1 0x27 DUP2 MSTORE PUSH1 0x20 ADD DUP1 PUSH2 0x5024 PUSH1 0x27 SWAP2 CODECOPY PUSH1 0x40 ADD SWAP2 POP POP PUSH1 0x40 MLOAD DUP1 SWAP2 SUB SWAP1 REVERT JUMPDEST PUSH1 0x0 DUP5 DUP2 MSTORE PUSH1 0x2 PUSH1 0x20 SWAP1 DUP2 MSTORE PUSH1 0x40 DUP1 DUP4 KECCAK256 PUSH1 0x1 PUSH1 0x1 PUSH1 0xA0 SHL SUB DUP8 AND DUP5 MSTORE SWAP1 SWAP2 MSTORE DUP2 KECCAK256 SSTORE DUP2 ISZERO PUSH2 0x4AC4 JUMPI PUSH1 0x0 DUP4 SWAP1 POP DUP1 PUSH1 0x1 PUSH1 0x1 PUSH1 0xA0 SHL SUB AND PUSH4 0x8F06492D PUSH1 0x40 MLOAD DUP2 PUSH4 0xFFFFFFFF AND PUSH1 0xE0 SHL DUP2 MSTORE PUSH1 0x4 ADD PUSH1 0x20 PUSH1 0x40 MLOAD DUP1 DUP4 SUB DUP2 DUP7 DUP1 EXTCODESIZE ISZERO DUP1 ISZERO PUSH2 0x493A JUMPI PUSH1 0x0 DUP1 REVERT JUMPDEST POP GAS STATICCALL ISZERO DUP1 ISZERO PUSH2 0x494E JUMPI RETURNDATASIZE PUSH1 0x0 DUP1 RETURNDATACOPY RETURNDATASIZE PUSH1 0x0 REVERT JUMPDEST POP POP POP POP PUSH1 0x40 MLOAD RETURNDATASIZE PUSH1 0x20 DUP2 LT ISZERO PUSH2 0x4964 JUMPI PUSH1 0x0 DUP1 REVERT JUMPDEST POP MLOAD ISZERO PUSH2 0x4A8C JUMPI PUSH1 0x40 DUP1 MLOAD PUSH4 0x48C1310D PUSH1 0xE1 SHL DUP2 MSTORE PUSH1 0x4 DUP2 ADD DUP8 DUP2 MSTORE PUSH1 0x24 DUP3 ADD SWAP3 DUP4 MSTORE DUP5 MLOAD PUSH1 0x44 DUP4 ADD MSTORE DUP5 MLOAD PUSH1 0x1 PUSH1 0x1 PUSH1 0xA0 SHL SUB DUP6 AND SWAP4 PUSH4 0x9182621A SWAP4 DUP11 SWAP4 DUP9 SWAP4 SWAP1 SWAP3 SWAP2 PUSH1 0x64 ADD SWAP1 PUSH1 0x20 DUP6 ADD SWAP1 DUP1 DUP4 DUP4 PUSH1 0x0 JUMPDEST DUP4 DUP2 LT ISZERO PUSH2 0x49CF JUMPI DUP2 DUP2 ADD MLOAD DUP4 DUP3 ADD MSTORE PUSH1 0x20 ADD PUSH2 0x49B7 JUMP JUMPDEST POP POP POP POP SWAP1 POP SWAP1 DUP2 ADD SWAP1 PUSH1 0x1F AND DUP1 ISZERO PUSH2 0x49FC JUMPI DUP1 DUP3 SUB DUP1 MLOAD PUSH1 0x1 DUP4 PUSH1 0x20 SUB PUSH2 0x100 EXP SUB NOT AND DUP2 MSTORE PUSH1 0x20 ADD SWAP2 POP JUMPDEST POP SWAP4 POP POP POP POP PUSH1 0x20 PUSH1 0x40 MLOAD DUP1 DUP4 SUB DUP2 PUSH1 0x0 DUP8 DUP1 EXTCODESIZE ISZERO DUP1 ISZERO PUSH2 0x4A1C JUMPI PUSH1 0x0 DUP1 REVERT JUMPDEST POP GAS CALL ISZERO DUP1 ISZERO PUSH2 0x4A30 JUMPI RETURNDATASIZE PUSH1 0x0 DUP1 RETURNDATACOPY RETURNDATASIZE PUSH1 0x0 REVERT JUMPDEST POP POP POP POP PUSH1 0x40 MLOAD RETURNDATASIZE PUSH1 0x20 DUP2 LT ISZERO PUSH2 0x4A46 JUMPI PUSH1 0x0 DUP1 REVERT JUMPDEST POP MLOAD PUSH2 0x4A8C JUMPI PUSH1 0x40 DUP1 MLOAD PUSH3 0x461BCD PUSH1 0xE5 SHL DUP2 MSTORE PUSH1 0x20 PUSH1 0x4 DUP3 ADD MSTORE PUSH1 0x10 PUSH1 0x24 DUP3 ADD MSTORE PUSH16 0x2932B6B7BB30B6103330B4B63AB93297 PUSH1 0x81 SHL PUSH1 0x44 DUP3 ADD MSTORE SWAP1 MLOAD SWAP1 DUP2 SWAP1 SUB PUSH1 0x64 ADD SWAP1 REVERT JUMPDEST PUSH1 0x40 MLOAD PUSH1 0x1 PUSH1 0x1 PUSH1 0xA0 SHL SUB DUP6 AND SWAP1 DUP7 SWAP1 PUSH32 0xD1B5265E776CC74B7C19E1F79F0EB431189105741C07F3BB870F17CE3BA4AED8 SWAP1 PUSH1 0x0 SWAP1 LOG3 POP JUMPDEST PUSH1 0x40 DUP1 MLOAD PUSH1 0x1 DUP1 DUP3 MSTORE DUP2 DUP4 ADD SWAP1 SWAP3 MSTORE PUSH1 0x60 SWAP2 PUSH1 0x20 DUP1 DUP4 ADD SWAP1 DUP1 CODESIZE DUP4 CODECOPY ADD SWAP1 POP POP SWAP1 POP DUP4 DUP2 PUSH1 0x0 DUP2 MLOAD DUP2 LT PUSH2 0x4AF4 JUMPI INVALID JUMPDEST PUSH1 0x1 PUSH1 0x1 PUSH1 0xA0 SHL SUB SWAP3 DUP4 AND PUSH1 0x20 SWAP2 DUP3 MUL SWAP3 SWAP1 SWAP3 ADD DUP2 ADD SWAP2 SWAP1 SWAP2 MSTORE PUSH1 0x4 DUP1 SLOAD PUSH1 0x40 DUP1 MLOAD PUSH4 0x2B937B3 PUSH1 0xE5 SHL DUP2 MSTORE SWAP3 DUP4 ADD DUP11 DUP2 MSTORE PUSH1 0x24 DUP5 ADD SWAP2 DUP3 MSTORE DUP7 MLOAD PUSH1 0x44 DUP6 ADD MSTORE DUP7 MLOAD SWAP3 SWAP1 SWAP6 AND SWAP5 PUSH4 0x5726F660 SWAP5 DUP12 SWAP5 DUP9 SWAP5 SWAP3 SWAP4 SWAP3 PUSH1 0x64 SWAP1 SWAP2 ADD SWAP2 DUP6 DUP2 ADD SWAP2 MUL DUP1 DUP4 DUP4 PUSH1 0x0 JUMPDEST DUP4 DUP2 LT ISZERO PUSH2 0x4B71 JUMPI DUP2 DUP2 ADD MLOAD DUP4 DUP3 ADD MSTORE PUSH1 0x20 ADD PUSH2 0x4B59 JUMP JUMPDEST POP POP POP POP SWAP1 POP ADD SWAP4 POP POP POP POP PUSH1 0x0 PUSH1 0x40 MLOAD DUP1 DUP4 SUB DUP2 PUSH1 0x0 DUP8 DUP1 EXTCODESIZE ISZERO DUP1 ISZERO PUSH2 0x4B97 JUMPI PUSH1 0x0 DUP1 REVERT JUMPDEST POP GAS CALL ISZERO DUP1 ISZERO PUSH2 0x3BCE JUMPI RETURNDATASIZE PUSH1 0x0 DUP1 RETURNDATACOPY RETURNDATASIZE PUSH1 0x0 REVERT JUMPDEST PUSH1 0x4 SLOAD PUSH1 0x40 MLOAD PUSH1 0x19 PUSH1 0xF8 SHL PUSH1 0x20 DUP3 ADD DUP2 DUP2 MSTORE PUSH1 0x0 PUSH1 0x21 DUP5 ADD DUP2 SWAP1 MSTORE ADDRESS PUSH1 0x60 DUP2 SWAP1 SHL PUSH1 0x22 DUP7 ADD MSTORE PUSH1 0x1 PUSH1 0x1 PUSH1 0xA0 SHL SUB SWAP1 SWAP6 AND SWAP5 PUSH4 0x8677EBE8 SWAP5 DUP16 SWAP5 SWAP4 DUP16 SWAP2 DUP16 SWAP2 DUP16 SWAP2 DUP16 SWAP2 DUP13 SWAP2 PUSH1 0x36 ADD PUSH1 0x3D PUSH2 0x4E9A DUP3 CODECOPY PUSH1 0x3D ADD DUP7 DUP2 MSTORE PUSH1 0x20 ADD DUP6 PUSH1 0x1 PUSH1 0x1 PUSH1 0xA0 SHL SUB AND PUSH1 0x1 PUSH1 0x1 PUSH1 0xA0 SHL SUB AND PUSH1 0x60 SHL DUP2 MSTORE PUSH1 0x14 ADD DUP5 ISZERO ISZERO ISZERO ISZERO PUSH1 0xF8 SHL DUP2 MSTORE PUSH1 0x1 ADD DUP4 DUP1 MLOAD SWAP1 PUSH1 0x20 ADD SWAP1 DUP1 DUP4 DUP4 JUMPDEST PUSH1 0x20 DUP4 LT PUSH2 0x4C56 JUMPI DUP1 MLOAD DUP3 MSTORE PUSH1 0x1F NOT SWAP1 SWAP3 ADD SWAP2 PUSH1 0x20 SWAP2 DUP3 ADD SWAP2 ADD PUSH2 0x4C37 JUMP JUMPDEST PUSH1 0x1 DUP4 PUSH1 0x20 SUB PUSH2 0x100 EXP SUB DUP1 NOT DUP3 MLOAD AND DUP2 DUP5 MLOAD AND DUP1 DUP3 OR DUP6 MSTORE POP POP POP POP POP POP SWAP1 POP ADD DUP3 DUP2 MSTORE PUSH1 0x20 ADD SWAP9 POP POP POP POP POP POP POP POP POP PUSH1 0x40 MLOAD PUSH1 0x20 DUP2 DUP4 SUB SUB DUP2 MSTORE SWAP1 PUSH1 0x40 MSTORE DUP1 MLOAD SWAP1 PUSH1 0x20 ADD KECCAK256 DUP8 DUP8 DUP8 PUSH1 0x40 MLOAD DUP7 PUSH4 0xFFFFFFFF AND PUSH1 0xE0 SHL DUP2 MSTORE PUSH1 0x4 ADD DUP1 DUP7 PUSH1 0x1 PUSH1 0x1 PUSH1 0xA0 SHL SUB AND PUSH1 0x1 PUSH1 0x1 PUSH1 0xA0 SHL SUB AND DUP2 MSTORE PUSH1 0x20 ADD DUP6 DUP2 MSTORE PUSH1 0x20 ADD DUP5 PUSH1 0xFF AND PUSH1 0xFF AND DUP2 MSTORE PUSH1 0x20 ADD DUP4 DUP2 MSTORE PUSH1 0x20 ADD DUP3 DUP2 MSTORE PUSH1 0x20 ADD SWAP6 POP POP POP POP POP POP PUSH1 0x20 PUSH1 0x40 MLOAD DUP1 DUP4 SUB DUP2 DUP7 DUP1 EXTCODESIZE ISZERO DUP1 ISZERO PUSH2 0x3B5C JUMPI PUSH1 0x0 DUP1 REVERT JUMPDEST PUSH1 0x1 PUSH1 0x1 PUSH1 0xA0 SHL SUB DUP2 AND PUSH2 0x4D1C JUMPI PUSH1 0x0 DUP1 REVERT JUMPDEST PUSH1 0x0 DUP1 SLOAD PUSH1 0x40 MLOAD PUSH1 0x1 PUSH1 0x1 PUSH1 0xA0 SHL SUB DUP1 DUP6 AND SWAP4 SWAP3 AND SWAP2 PUSH32 0x8BE0079C531659141344CD1FD0A4F28419497F9722A3DAAFE3B4186F6B6457E0 SWAP2 LOG3 PUSH1 0x0 DUP1 SLOAD PUSH1 0x1 PUSH1 0x1 PUSH1 0xA0 SHL SUB NOT AND PUSH1 0x1 PUSH1 0x1 PUSH1 0xA0 SHL SUB SWAP3 SWAP1 SWAP3 AND SWAP2 SWAP1 SWAP2 OR SWAP1 SSTORE JUMP JUMPDEST PUSH1 0x0 DUP3 DUP3 GT ISZERO PUSH2 0x4D86 JUMPI PUSH1 0x0 DUP1 REVERT JUMPDEST POP SWAP1 SUB SWAP1 JUMP INVALID DIFFICULTY PUSH6 0x7374696E6174 PUSH10 0x6F6E20686173206E6F74 KECCAK256 PUSH3 0x65656E KECCAK256 PUSH20 0x65742062792066726F6D20746F6B656E686F6C64 PUSH6 0x722E54686520 PUSH19 0x6563697069656E742045494E20646F6573206E PUSH16 0x742065786973742E546865206D73672E PUSH20 0x656E646572206973206E6F7420612050726F7669 PUSH5 0x657220666F PUSH19 0x20746865207061737365642045494E5265736F PUSH13 0x76657220686173206E6F742062 PUSH6 0x656E20736574 KECCAK256 PUSH3 0x792066 PUSH19 0x6F6D20746F6B656E686F6C6465722E43616E6E PUSH16 0x74207472616E7366657220746F207468 PUSH6 0x20536E6F7766 PUSH13 0x616B6520736D61727420636F6E PUSH21 0x7261637420697473656C662E4964656E7469747920 PUSH9 0x6173206E6F74207365 PUSH21 0x2074686973207265736F6C7665722E492061757468 PUSH16 0x72697A65207468617420746865736520 MSTORE PUSH6 0x736F6C766572 PUSH20 0x2062652072656D6F7665642066726F6D206D7920 0x49 PUSH5 0x656E746974 PUSH26 0x2E4920617574686F72697A652074686174207468697320726573 PUSH16 0x6C76657220626520616464656420746F KECCAK256 PUSH14 0x79204964656E746974792E496465 PUSH15 0x746974792068617320616C72656164 PUSH26 0x207365742074686973207265736F6C7665722E4920617574686F PUSH19 0x697A652074686973206368616E6765206F6620 MSTORE PUSH6 0x636F76657279 KECCAK256 COINBASE PUSH5 0x6472657373 0x2E MSTORE8 PUSH6 0x6E6465722069 PUSH20 0x206E6F742074686520485944524F20746F6B656E KECCAK256 PUSH20 0x6D61727420636F6E74726163742E492061757468 PUSH16 0x72697A65207468617420746865736520 POP PUSH19 0x6F7669646572732062652072656D6F76656420 PUSH7 0x726F6D206D7920 0x49 PUSH5 0x656E746974 PUSH26 0x2E556E61626C6520746F207472616E7366657220746F6B656E20 PUSH16 0x776E6572736869702E43616E6E6F7420 PUSH24 0x69746864726177206D6F7265207468616E20746865206375 PUSH19 0x72656E74206465706F7369742062616C616E63 PUSH6 0x2E4964656E74 PUSH10 0x747920686173206E6F74 KECCAK256 PUSH26 0x6574207365742074686973207265736F6C7665722E4920617574 PUSH9 0x6F72697A6520746861 PUSH21 0x2074686573652050726F7669646572732062652061 PUSH5 0x6465642074 PUSH16 0x206D79204964656E746974792E492061 PUSH22 0x74686F72697A652074686973206368616E676520696E KECCAK256 MSTORE PUSH6 0x736F6C766572 KECCAK256 PUSH2 0x6C6C PUSH16 0x77616E6365732EA265627A7A72315820 0xD0 0x29 PUSH32 0x4690CE41B0D22D3D2534F958AB639A3D761B419591E9AE987158BBCB9564736F PUSH13 0x63430005100032000000000000 "
		},
		"gasEstimates": {
			"creation": {
				"codeDepositCost": "4142200",
				"executionCost": "infinite",
				"totalCost": "infinite"
			},
			"external": {
				"addProvidersFor(address,address[],uint8,bytes32,bytes32,uint256)": "infinite",
				"addResolver(address,bool,uint256,bytes)": "infinite",
				"addResolverAsProvider(uint256,address,bool,uint256,bytes)": "infinite",
				"addResolverFor(address,address,bool,uint256,bytes,uint8,bytes32,bytes32,uint256)": "infinite",
				"allowAndCall(address,uint256,bytes)": "infinite",
				"allowAndCallDelegated(address,uint256,bytes,address,uint8,bytes32,bytes32)": "infinite",
				"changeResolverAllowances(address[],uint256[])": "infinite",
				"changeResolverAllowancesDelegated(address,address[],uint256[],uint8,bytes32,bytes32)": "infinite",
				"clientRaindropAddress()": "1150",
				"createIdentityDelegated(address,address,address[],string,uint8,bytes32,bytes32,uint256)": "infinite",
				"deposits(uint256)": "1173",
				"hydroTokenAddress()": "1104",
				"identityRegistryAddress()": "1082",
				"isOwner()": "1095",
				"owner()": "1083",
				"receiveApproval(address,uint256,address,bytes)": "infinite",
				"removeProvidersFor(address,address[],uint8,bytes32,bytes32,uint256)": "infinite",
				"removeResolver(address,bool,bytes)": "infinite",
				"removeResolverFor(address,address,bool,bytes,uint8,bytes32,bytes32,uint256)": "infinite",
				"renounceOwnership()": "24237",
				"resolverAllowances(uint256,address)": "1277",
				"setAddresses(address,address)": "84587",
				"setClientRaindropAddress(address)": "42859",
				"signatureNonce(uint256)": "1175",
				"signatureTimeout()": "1044",
				"transferOwnership(address)": "24468",
				"transferSnowflakeBalance(uint256,uint256)": "infinite",
				"transferSnowflakeBalanceFrom(uint256,uint256,uint256)": "infinite",
				"transferSnowflakeBalanceFromVia(uint256,address,uint256,uint256,bytes)": "infinite",
				"triggerRecoveryAddressChangeFor(address,address,uint8,bytes32,bytes32)": "infinite",
				"upgradeProvidersFor(address,address[],address[],uint8[2],bytes32[2],bytes32[2],uint256[2])": "infinite",
				"withdrawSnowflakeBalance(address,uint256)": "infinite",
				"withdrawSnowflakeBalanceFrom(uint256,address,uint256)": "infinite",
				"withdrawSnowflakeBalanceFromVia(uint256,address,address,uint256,bytes)": "infinite"
			},
			"internal": {
				"_addResolver(uint256,address,bool,uint256,bytes memory)": "infinite",
				"_transfer(uint256,uint256,uint256)": "infinite",
				"_withdraw(uint256,address,uint256)": "infinite",
				"allowAndCall(uint256,uint256,address,bytes memory)": "infinite",
				"changeResolverAllowances(uint256,address[] memory,uint256[] memory)": "infinite",
				"handleAllowance(uint256,uint256)": "infinite",
				"removeResolver(uint256,address,bool,bytes memory)": "infinite",
				"validateAddResolverForSignature(address,uint256,address,bool,uint256,bytes memory,uint8,bytes32,bytes32,uint256)": "infinite",
				"validateAllowAndCallDelegatedSignature(address,uint256,address,uint256,bytes memory,uint256,uint8,bytes32,bytes32)": "infinite",
				"validateRemoveResolverForSignature(address,uint256,address,bool,bytes memory,uint8,bytes32,bytes32,uint256)": "infinite"
			}
		},
		"methodIdentifiers": {
			"addProvidersFor(address,address[],uint8,bytes32,bytes32,uint256)": "49a79a50",
			"addResolver(address,bool,uint256,bytes)": "c94dbd33",
			"addResolverAsProvider(uint256,address,bool,uint256,bytes)": "87d62038",
			"addResolverFor(address,address,bool,uint256,bytes,uint8,bytes32,bytes32,uint256)": "85b118aa",
			"allowAndCall(address,uint256,bytes)": "9675932e",
			"allowAndCallDelegated(address,uint256,bytes,address,uint8,bytes32,bytes32)": "13954647",
			"changeResolverAllowances(address[],uint256[])": "6be4d9b0",
			"changeResolverAllowancesDelegated(address,address[],uint256[],uint8,bytes32,bytes32)": "a3e9ec73",
			"clientRaindropAddress()": "1dfc99c4",
			"createIdentityDelegated(address,address,address[],string,uint8,bytes32,bytes32,uint256)": "5a967ea5",
			"deposits(uint256)": "b02c43d0",
			"hydroTokenAddress()": "75d7e4bd",
			"identityRegistryAddress()": "a759ee6f",
			"isOwner()": "8f32d59b",
			"owner()": "8da5cb5b",
			"receiveApproval(address,uint256,address,bytes)": "8f4ffcb1",
			"removeProvidersFor(address,address[],uint8,bytes32,bytes32,uint256)": "fe89e396",
			"removeResolver(address,bool,bytes)": "9d10bb32",
			"removeResolverFor(address,address,bool,bytes,uint8,bytes32,bytes32,uint256)": "efd96fbf",
			"renounceOwnership()": "715018a6",
			"resolverAllowances(uint256,address)": "ef11f9da",
			"setAddresses(address,address)": "90107afe",
			"setClientRaindropAddress(address)": "856b414e",
			"signatureNonce(uint256)": "12f1dbc8",
			"signatureTimeout()": "5437b67c",
			"transferOwnership(address)": "f2fde38b",
			"transferSnowflakeBalance(uint256,uint256)": "3b6da765",
			"transferSnowflakeBalanceFrom(uint256,uint256,uint256)": "09164f9c",
			"transferSnowflakeBalanceFromVia(uint256,address,uint256,uint256,bytes)": "9cd54210",
			"triggerRecoveryAddressChangeFor(address,address,uint8,bytes32,bytes32)": "27a0b6d8",
			"upgradeProvidersFor(address,address[],address[],uint8[2],bytes32[2],bytes32[2],uint256[2])": "659ab4c3",
			"withdrawSnowflakeBalance(address,uint256)": "badcfbcf",
			"withdrawSnowflakeBalanceFrom(uint256,address,uint256)": "edda7815",
			"withdrawSnowflakeBalanceFromVia(uint256,address,address,uint256,bytes)": "3e63dcc1"
		}
	},
	"abi": [
		{
			"inputs": [
				{
					"internalType": "address",
					"name": "_identityRegistryAddress",
					"type": "address"
				},
				{
					"internalType": "address",
					"name": "_hydroTokenAddress",
					"type": "address"
				}
			],
			"payable": false,
			"stateMutability": "nonpayable",
			"type": "constructor"
		},
		{
			"anonymous": false,
			"inputs": [
				{
					"indexed": true,
					"internalType": "address",
					"name": "previousOwner",
					"type": "address"
				},
				{
					"indexed": true,
					"internalType": "address",
					"name": "newOwner",
					"type": "address"
				}
			],
			"name": "OwnershipTransferred",
			"type": "event"
		},
		{
			"anonymous": false,
			"inputs": [
				{
					"indexed": true,
					"internalType": "address",
					"name": "from",
					"type": "address"
				},
				{
					"indexed": true,
					"internalType": "uint256",
					"name": "einTo",
					"type": "uint256"
				},
				{
					"indexed": false,
					"internalType": "uint256",
					"name": "amount",
					"type": "uint256"
				}
			],
			"name": "SnowflakeDeposit",
			"type": "event"
		},
		{
			"anonymous": false,
			"inputs": [
				{
					"indexed": true,
					"internalType": "uint256",
					"name": "ein",
					"type": "uint256"
				},
				{
					"indexed": true,
					"internalType": "address",
					"name": "resolver",
					"type": "address"
				},
				{
					"indexed": false,
					"internalType": "uint256",
					"name": "currentAllowance",
					"type": "uint256"
				},
				{
					"indexed": false,
					"internalType": "uint256",
					"name": "requestedWithdraw",
					"type": "uint256"
				}
			],
			"name": "SnowflakeInsufficientAllowance",
			"type": "event"
		},
		{
			"anonymous": false,
			"inputs": [
				{
					"indexed": true,
					"internalType": "uint256",
					"name": "ein",
					"type": "uint256"
				},
				{
					"indexed": false,
					"internalType": "address[]",
					"name": "newProviders",
					"type": "address[]"
				},
				{
					"indexed": false,
					"internalType": "address[]",
					"name": "oldProviders",
					"type": "address[]"
				},
				{
					"indexed": false,
					"internalType": "address",
					"name": "approvingAddress",
					"type": "address"
				}
			],
			"name": "SnowflakeProvidersUpgraded",
			"type": "event"
		},
		{
			"anonymous": false,
			"inputs": [
				{
					"indexed": true,
					"internalType": "uint256",
					"name": "ein",
					"type": "uint256"
				},
				{
					"indexed": true,
					"internalType": "address",
					"name": "resolver",
					"type": "address"
				},
				{
					"indexed": false,
					"internalType": "uint256",
					"name": "withdrawAllowance",
					"type": "uint256"
				}
			],
			"name": "SnowflakeResolverAdded",
			"type": "event"
		},
		{
			"anonymous": false,
			"inputs": [
				{
					"indexed": true,
					"internalType": "uint256",
					"name": "ein",
					"type": "uint256"
				},
				{
					"indexed": true,
					"internalType": "address",
					"name": "resolver",
					"type": "address"
				},
				{
					"indexed": false,
					"internalType": "uint256",
					"name": "withdrawAllowance",
					"type": "uint256"
				}
			],
			"name": "SnowflakeResolverAllowanceChanged",
			"type": "event"
		},
		{
			"anonymous": false,
			"inputs": [
				{
					"indexed": true,
					"internalType": "uint256",
					"name": "ein",
					"type": "uint256"
				},
				{
					"indexed": true,
					"internalType": "address",
					"name": "resolver",
					"type": "address"
				}
			],
			"name": "SnowflakeResolverRemoved",
			"type": "event"
		},
		{
			"anonymous": false,
			"inputs": [
				{
					"indexed": true,
					"internalType": "uint256",
					"name": "einFrom",
					"type": "uint256"
				},
				{
					"indexed": true,
					"internalType": "uint256",
					"name": "einTo",
					"type": "uint256"
				},
				{
					"indexed": false,
					"internalType": "uint256",
					"name": "amount",
					"type": "uint256"
				}
			],
			"name": "SnowflakeTransfer",
			"type": "event"
		},
		{
			"anonymous": false,
			"inputs": [
				{
					"indexed": true,
					"internalType": "address",
					"name": "resolverFrom",
					"type": "address"
				}
			],
			"name": "SnowflakeTransferFrom",
			"type": "event"
		},
		{
			"anonymous": false,
			"inputs": [
				{
					"indexed": true,
					"internalType": "address",
					"name": "resolverFrom",
					"type": "address"
				},
				{
					"indexed": true,
					"internalType": "uint256",
					"name": "einTo",
					"type": "uint256"
				}
			],
			"name": "SnowflakeTransferFromVia",
			"type": "event"
		},
		{
			"anonymous": false,
			"inputs": [
				{
					"indexed": true,
					"internalType": "address",
					"name": "resolverFrom",
					"type": "address"
				},
				{
					"indexed": true,
					"internalType": "address",
					"name": "via",
					"type": "address"
				},
				{
					"indexed": true,
					"internalType": "uint256",
					"name": "einTo",
					"type": "uint256"
				},
				{
					"indexed": false,
					"internalType": "uint256",
					"name": "amount",
					"type": "uint256"
				}
			],
			"name": "SnowflakeTransferToVia",
			"type": "event"
		},
		{
			"anonymous": false,
			"inputs": [
				{
					"indexed": true,
					"internalType": "uint256",
					"name": "einFrom",
					"type": "uint256"
				},
				{
					"indexed": true,
					"internalType": "address",
					"name": "to",
					"type": "address"
				},
				{
					"indexed": false,
					"internalType": "uint256",
					"name": "amount",
					"type": "uint256"
				}
			],
			"name": "SnowflakeWithdraw",
			"type": "event"
		},
		{
			"anonymous": false,
			"inputs": [
				{
					"indexed": true,
					"internalType": "address",
					"name": "resolverFrom",
					"type": "address"
				}
			],
			"name": "SnowflakeWithdrawFrom",
			"type": "event"
		},
		{
			"anonymous": false,
			"inputs": [
				{
					"indexed": true,
					"internalType": "address",
					"name": "resolverFrom",
					"type": "address"
				},
				{
					"indexed": true,
					"internalType": "address",
					"name": "to",
					"type": "address"
				}
			],
			"name": "SnowflakeWithdrawFromVia",
			"type": "event"
		},
		{
			"anonymous": false,
			"inputs": [
				{
					"indexed": true,
					"internalType": "address",
					"name": "resolverFrom",
					"type": "address"
				},
				{
					"indexed": true,
					"internalType": "address",
					"name": "via",
					"type": "address"
				},
				{
					"indexed": true,
					"internalType": "address",
					"name": "to",
					"type": "address"
				},
				{
					"indexed": false,
					"internalType": "uint256",
					"name": "amount",
					"type": "uint256"
				}
			],
			"name": "SnowflakeWithdrawToVia",
			"type": "event"
		},
		{
			"constant": false,
			"inputs": [
				{
					"internalType": "address",
					"name": "approvingAddress",
					"type": "address"
				},
				{
					"internalType": "address[]",
					"name": "providers",
					"type": "address[]"
				},
				{
					"internalType": "uint8",
					"name": "v",
					"type": "uint8"
				},
				{
					"internalType": "bytes32",
					"name": "r",
					"type": "bytes32"
				},
				{
					"internalType": "bytes32",
					"name": "s",
					"type": "bytes32"
				},
				{
					"internalType": "uint256",
					"name": "timestamp",
					"type": "uint256"
				}
			],
			"name": "addProvidersFor",
			"outputs": [],
			"payable": false,
			"stateMutability": "nonpayable",
			"type": "function"
		},
		{
			"constant": false,
			"inputs": [
				{
					"internalType": "address",
					"name": "resolver",
					"type": "address"
				},
				{
					"internalType": "bool",
					"name": "isSnowflake",
					"type": "bool"
				},
				{
					"internalType": "uint256",
					"name": "withdrawAllowance",
					"type": "uint256"
				},
				{
					"internalType": "bytes",
					"name": "extraData",
					"type": "bytes"
				}
			],
			"name": "addResolver",
			"outputs": [],
			"payable": false,
			"stateMutability": "nonpayable",
			"type": "function"
		},
		{
			"constant": false,
			"inputs": [
				{
					"internalType": "uint256",
					"name": "ein",
					"type": "uint256"
				},
				{
					"internalType": "address",
					"name": "resolver",
					"type": "address"
				},
				{
					"internalType": "bool",
					"name": "isSnowflake",
					"type": "bool"
				},
				{
					"internalType": "uint256",
					"name": "withdrawAllowance",
					"type": "uint256"
				},
				{
					"internalType": "bytes",
					"name": "extraData",
					"type": "bytes"
				}
			],
			"name": "addResolverAsProvider",
			"outputs": [],
			"payable": false,
			"stateMutability": "nonpayable",
			"type": "function"
		},
		{
			"constant": false,
			"inputs": [
				{
					"internalType": "address",
					"name": "approvingAddress",
					"type": "address"
				},
				{
					"internalType": "address",
					"name": "resolver",
					"type": "address"
				},
				{
					"internalType": "bool",
					"name": "isSnowflake",
					"type": "bool"
				},
				{
					"internalType": "uint256",
					"name": "withdrawAllowance",
					"type": "uint256"
				},
				{
					"internalType": "bytes",
					"name": "extraData",
					"type": "bytes"
				},
				{
					"internalType": "uint8",
					"name": "v",
					"type": "uint8"
				},
				{
					"internalType": "bytes32",
					"name": "r",
					"type": "bytes32"
				},
				{
					"internalType": "bytes32",
					"name": "s",
					"type": "bytes32"
				},
				{
					"internalType": "uint256",
					"name": "timestamp",
					"type": "uint256"
				}
			],
			"name": "addResolverFor",
			"outputs": [],
			"payable": false,
			"stateMutability": "nonpayable",
			"type": "function"
		},
		{
			"constant": false,
			"inputs": [
				{
					"internalType": "address",
					"name": "destination",
					"type": "address"
				},
				{
					"internalType": "uint256",
					"name": "amount",
					"type": "uint256"
				},
				{
					"internalType": "bytes",
					"name": "data",
					"type": "bytes"
				}
			],
			"name": "allowAndCall",
			"outputs": [
				{
					"internalType": "bytes",
					"name": "returnData",
					"type": "bytes"
				}
			],
			"payable": false,
			"stateMutability": "nonpayable",
			"type": "function"
		},
		{
			"constant": false,
			"inputs": [
				{
					"internalType": "address",
					"name": "destination",
					"type": "address"
				},
				{
					"internalType": "uint256",
					"name": "amount",
					"type": "uint256"
				},
				{
					"internalType": "bytes",
					"name": "data",
					"type": "bytes"
				},
				{
					"internalType": "address",
					"name": "approvingAddress",
					"type": "address"
				},
				{
					"internalType": "uint8",
					"name": "v",
					"type": "uint8"
				},
				{
					"internalType": "bytes32",
					"name": "r",
					"type": "bytes32"
				},
				{
					"internalType": "bytes32",
					"name": "s",
					"type": "bytes32"
				}
			],
			"name": "allowAndCallDelegated",
			"outputs": [
				{
					"internalType": "bytes",
					"name": "returnData",
					"type": "bytes"
				}
			],
			"payable": false,
			"stateMutability": "nonpayable",
			"type": "function"
		},
		{
			"constant": false,
			"inputs": [
				{
					"internalType": "address[]",
					"name": "resolvers",
					"type": "address[]"
				},
				{
					"internalType": "uint256[]",
					"name": "withdrawAllowances",
					"type": "uint256[]"
				}
			],
			"name": "changeResolverAllowances",
			"outputs": [],
			"payable": false,
			"stateMutability": "nonpayable",
			"type": "function"
		},
		{
			"constant": false,
			"inputs": [
				{
					"internalType": "address",
					"name": "approvingAddress",
					"type": "address"
				},
				{
					"internalType": "address[]",
					"name": "resolvers",
					"type": "address[]"
				},
				{
					"internalType": "uint256[]",
					"name": "withdrawAllowances",
					"type": "uint256[]"
				},
				{
					"internalType": "uint8",
					"name": "v",
					"type": "uint8"
				},
				{
					"internalType": "bytes32",
					"name": "r",
					"type": "bytes32"
				},
				{
					"internalType": "bytes32",
					"name": "s",
					"type": "bytes32"
				}
			],
			"name": "changeResolverAllowancesDelegated",
			"outputs": [],
			"payable": false,
			"stateMutability": "nonpayable",
			"type": "function"
		},
		{
			"constant": true,
			"inputs": [],
			"name": "clientRaindropAddress",
			"outputs": [
				{
					"internalType": "address",
					"name": "",
					"type": "address"
				}
			],
			"payable": false,
			"stateMutability": "view",
			"type": "function"
		},
		{
			"constant": false,
			"inputs": [
				{
					"internalType": "address",
					"name": "recoveryAddress",
					"type": "address"
				},
				{
					"internalType": "address",
					"name": "associatedAddress",
					"type": "address"
				},
				{
					"internalType": "address[]",
					"name": "providers",
					"type": "address[]"
				},
				{
					"internalType": "string",
					"name": "casedHydroId",
					"type": "string"
				},
				{
					"internalType": "uint8",
					"name": "v",
					"type": "uint8"
				},
				{
					"internalType": "bytes32",
					"name": "r",
					"type": "bytes32"
				},
				{
					"internalType": "bytes32",
					"name": "s",
					"type": "bytes32"
				},
				{
					"internalType": "uint256",
					"name": "timestamp",
					"type": "uint256"
				}
			],
			"name": "createIdentityDelegated",
			"outputs": [
				{
					"internalType": "uint256",
					"name": "ein",
					"type": "uint256"
				}
			],
			"payable": false,
			"stateMutability": "nonpayable",
			"type": "function"
		},
		{
			"constant": true,
			"inputs": [
				{
					"internalType": "uint256",
					"name": "",
					"type": "uint256"
				}
			],
			"name": "deposits",
			"outputs": [
				{
					"internalType": "uint256",
					"name": "",
					"type": "uint256"
				}
			],
			"payable": false,
			"stateMutability": "view",
			"type": "function"
		},
		{
			"constant": true,
			"inputs": [],
			"name": "hydroTokenAddress",
			"outputs": [
				{
					"internalType": "address",
					"name": "",
					"type": "address"
				}
			],
			"payable": false,
			"stateMutability": "view",
			"type": "function"
		},
		{
			"constant": true,
			"inputs": [],
			"name": "identityRegistryAddress",
			"outputs": [
				{
					"internalType": "address",
					"name": "",
					"type": "address"
				}
			],
			"payable": false,
			"stateMutability": "view",
			"type": "function"
		},
		{
			"constant": true,
			"inputs": [],
			"name": "isOwner",
			"outputs": [
				{
					"internalType": "bool",
					"name": "",
					"type": "bool"
				}
			],
			"payable": false,
			"stateMutability": "view",
			"type": "function"
		},
		{
			"constant": true,
			"inputs": [],
			"name": "owner",
			"outputs": [
				{
					"internalType": "address",
					"name": "",
					"type": "address"
				}
			],
			"payable": false,
			"stateMutability": "view",
			"type": "function"
		},
		{
			"constant": false,
			"inputs": [
				{
					"internalType": "address",
					"name": "sender",
					"type": "address"
				},
				{
					"internalType": "uint256",
					"name": "amount",
					"type": "uint256"
				},
				{
					"internalType": "address",
					"name": "_tokenAddress",
					"type": "address"
				},
				{
					"internalType": "bytes",
					"name": "_bytes",
					"type": "bytes"
				}
			],
			"name": "receiveApproval",
			"outputs": [],
			"payable": false,
			"stateMutability": "nonpayable",
			"type": "function"
		},
		{
			"constant": false,
			"inputs": [
				{
					"internalType": "address",
					"name": "approvingAddress",
					"type": "address"
				},
				{
					"internalType": "address[]",
					"name": "providers",
					"type": "address[]"
				},
				{
					"internalType": "uint8",
					"name": "v",
					"type": "uint8"
				},
				{
					"internalType": "bytes32",
					"name": "r",
					"type": "bytes32"
				},
				{
					"internalType": "bytes32",
					"name": "s",
					"type": "bytes32"
				},
				{
					"internalType": "uint256",
					"name": "timestamp",
					"type": "uint256"
				}
			],
			"name": "removeProvidersFor",
			"outputs": [],
			"payable": false,
			"stateMutability": "nonpayable",
			"type": "function"
		},
		{
			"constant": false,
			"inputs": [
				{
					"internalType": "address",
					"name": "resolver",
					"type": "address"
				},
				{
					"internalType": "bool",
					"name": "isSnowflake",
					"type": "bool"
				},
				{
					"internalType": "bytes",
					"name": "extraData",
					"type": "bytes"
				}
			],
			"name": "removeResolver",
			"outputs": [],
			"payable": false,
			"stateMutability": "nonpayable",
			"type": "function"
		},
		{
			"constant": false,
			"inputs": [
				{
					"internalType": "address",
					"name": "approvingAddress",
					"type": "address"
				},
				{
					"internalType": "address",
					"name": "resolver",
					"type": "address"
				},
				{
					"internalType": "bool",
					"name": "isSnowflake",
					"type": "bool"
				},
				{
					"internalType": "bytes",
					"name": "extraData",
					"type": "bytes"
				},
				{
					"internalType": "uint8",
					"name": "v",
					"type": "uint8"
				},
				{
					"internalType": "bytes32",
					"name": "r",
					"type": "bytes32"
				},
				{
					"internalType": "bytes32",
					"name": "s",
					"type": "bytes32"
				},
				{
					"internalType": "uint256",
					"name": "timestamp",
					"type": "uint256"
				}
			],
			"name": "removeResolverFor",
			"outputs": [],
			"payable": false,
			"stateMutability": "nonpayable",
			"type": "function"
		},
		{
			"constant": false,
			"inputs": [],
			"name": "renounceOwnership",
			"outputs": [],
			"payable": false,
			"stateMutability": "nonpayable",
			"type": "function"
		},
		{
			"constant": true,
			"inputs": [
				{
					"internalType": "uint256",
					"name": "",
					"type": "uint256"
				},
				{
					"internalType": "address",
					"name": "",
					"type": "address"
				}
			],
			"name": "resolverAllowances",
			"outputs": [
				{
					"internalType": "uint256",
					"name": "",
					"type": "uint256"
				}
			],
			"payable": false,
			"stateMutability": "view",
			"type": "function"
		},
		{
			"constant": false,
			"inputs": [
				{
					"internalType": "address",
					"name": "_identityRegistryAddress",
					"type": "address"
				},
				{
					"internalType": "address",
					"name": "_hydroTokenAddress",
					"type": "address"
				}
			],
			"name": "setAddresses",
			"outputs": [],
			"payable": false,
			"stateMutability": "nonpayable",
			"type": "function"
		},
		{
			"constant": false,
			"inputs": [
				{
					"internalType": "address",
					"name": "_clientRaindropAddress",
					"type": "address"
				}
			],
			"name": "setClientRaindropAddress",
			"outputs": [],
			"payable": false,
			"stateMutability": "nonpayable",
			"type": "function"
		},
		{
			"constant": true,
			"inputs": [
				{
					"internalType": "uint256",
					"name": "",
					"type": "uint256"
				}
			],
			"name": "signatureNonce",
			"outputs": [
				{
					"internalType": "uint256",
					"name": "",
					"type": "uint256"
				}
			],
			"payable": false,
			"stateMutability": "view",
			"type": "function"
		},
		{
			"constant": true,
			"inputs": [],
			"name": "signatureTimeout",
			"outputs": [
				{
					"internalType": "uint256",
					"name": "",
					"type": "uint256"
				}
			],
			"payable": false,
			"stateMutability": "view",
			"type": "function"
		},
		{
			"constant": false,
			"inputs": [
				{
					"internalType": "address",
					"name": "newOwner",
					"type": "address"
				}
			],
			"name": "transferOwnership",
			"outputs": [],
			"payable": false,
			"stateMutability": "nonpayable",
			"type": "function"
		},
		{
			"constant": false,
			"inputs": [
				{
					"internalType": "uint256",
					"name": "einTo",
					"type": "uint256"
				},
				{
					"internalType": "uint256",
					"name": "amount",
					"type": "uint256"
				}
			],
			"name": "transferSnowflakeBalance",
			"outputs": [],
			"payable": false,
			"stateMutability": "nonpayable",
			"type": "function"
		},
		{
			"constant": false,
			"inputs": [
				{
					"internalType": "uint256",
					"name": "einFrom",
					"type": "uint256"
				},
				{
					"internalType": "uint256",
					"name": "einTo",
					"type": "uint256"
				},
				{
					"internalType": "uint256",
					"name": "amount",
					"type": "uint256"
				}
			],
			"name": "transferSnowflakeBalanceFrom",
			"outputs": [],
			"payable": false,
			"stateMutability": "nonpayable",
			"type": "function"
		},
		{
			"constant": false,
			"inputs": [
				{
					"internalType": "uint256",
					"name": "einFrom",
					"type": "uint256"
				},
				{
					"internalType": "address",
					"name": "via",
					"type": "address"
				},
				{
					"internalType": "uint256",
					"name": "einTo",
					"type": "uint256"
				},
				{
					"internalType": "uint256",
					"name": "amount",
					"type": "uint256"
				},
				{
					"internalType": "bytes",
					"name": "_bytes",
					"type": "bytes"
				}
			],
			"name": "transferSnowflakeBalanceFromVia",
			"outputs": [],
			"payable": false,
			"stateMutability": "nonpayable",
			"type": "function"
		},
		{
			"constant": false,
			"inputs": [
				{
					"internalType": "address",
					"name": "approvingAddress",
					"type": "address"
				},
				{
					"internalType": "address",
					"name": "newRecoveryAddress",
					"type": "address"
				},
				{
					"internalType": "uint8",
					"name": "v",
					"type": "uint8"
				},
				{
					"internalType": "bytes32",
					"name": "r",
					"type": "bytes32"
				},
				{
					"internalType": "bytes32",
					"name": "s",
					"type": "bytes32"
				}
			],
			"name": "triggerRecoveryAddressChangeFor",
			"outputs": [],
			"payable": false,
			"stateMutability": "nonpayable",
			"type": "function"
		},
		{
			"constant": false,
			"inputs": [
				{
					"internalType": "address",
					"name": "approvingAddress",
					"type": "address"
				},
				{
					"internalType": "address[]",
					"name": "newProviders",
					"type": "address[]"
				},
				{
					"internalType": "address[]",
					"name": "oldProviders",
					"type": "address[]"
				},
				{
					"internalType": "uint8[2]",
					"name": "v",
					"type": "uint8[2]"
				},
				{
					"internalType": "bytes32[2]",
					"name": "r",
					"type": "bytes32[2]"
				},
				{
					"internalType": "bytes32[2]",
					"name": "s",
					"type": "bytes32[2]"
				},
				{
					"internalType": "uint256[2]",
					"name": "timestamp",
					"type": "uint256[2]"
				}
			],
			"name": "upgradeProvidersFor",
			"outputs": [],
			"payable": false,
			"stateMutability": "nonpayable",
			"type": "function"
		},
		{
			"constant": false,
			"inputs": [
				{
					"internalType": "address",
					"name": "to",
					"type": "address"
				},
				{
					"internalType": "uint256",
					"name": "amount",
					"type": "uint256"
				}
			],
			"name": "withdrawSnowflakeBalance",
			"outputs": [],
			"payable": false,
			"stateMutability": "nonpayable",
			"type": "function"
		},
		{
			"constant": false,
			"inputs": [
				{
					"internalType": "uint256",
					"name": "einFrom",
					"type": "uint256"
				},
				{
					"internalType": "address",
					"name": "to",
					"type": "address"
				},
				{
					"internalType": "uint256",
					"name": "amount",
					"type": "uint256"
				}
			],
			"name": "withdrawSnowflakeBalanceFrom",
			"outputs": [],
			"payable": false,
			"stateMutability": "nonpayable",
			"type": "function"
		},
		{
			"constant": false,
			"inputs": [
				{
					"internalType": "uint256",
					"name": "einFrom",
					"type": "uint256"
				},
				{
					"internalType": "address",
					"name": "via",
					"type": "address"
				},
				{
					"internalType": "address payable",
					"name": "to",
					"type": "address"
				},
				{
					"internalType": "uint256",
					"name": "amount",
					"type": "uint256"
				},
				{
					"internalType": "bytes",
					"name": "_bytes",
					"type": "bytes"
				}
			],
			"name": "withdrawSnowflakeBalanceFromVia",
			"outputs": [],
			"payable": false,
			"stateMutability": "nonpayable",
			"type": "function"
		}
	]
}