{
	"data": {
		"bytecode": {
			"linkReferences": {},
			"object": "60806040523480156200001157600080fd5b5060405160808062002f40833981018060405260808110156200003357600080fd5b50805160208083015160408085015160609586015182518084018452600f81527f436c69656e74205261696e64726f700000000000000000000000000000000000818701528351608081018552604481527f412072656769737472792074686174206c696e6b732045494e7320746f204879968101969096527f64726f49447320746f20706f77657220436c69656e74205261696e64726f7020868501527f4d46412e000000000000000000000000000000000000000000000000000000009786019790975260008054600160a060020a03191633178082559351969794969295919493919288926001928392600160a060020a0392909216917f8be0079c531659141344cd1fd0a4f28419497f9722a3daafe3b4186f6b6457e0908290a3845162000167906001906020880190620005fa565b5083516200017d906002906020870190620005fa565b50620001928364010000000062000237810204565b6003805491151575010000000000000000000000000000000000000000000260a860020a60ff0219931515740100000000000000000000000000000000000000000260a060020a60ff021990931692909217929092161790555062000204915085905064010000000062000237810204565b6200021883640100000000620003ba810204565b6200022d8282640100000000620003fb810204565b505050506200069c565b6200024a640100000000620005a7810204565b15156200025657600080fd5b6200026f816401000000006200252c620005b982021704565b600081905080600160a060020a03166375d7e4bd6040518163ffffffff167c0100000000000000000000000000000000000000000000000000000000028152600401602060405180830381600087803b158015620002cc57600080fd5b505af1158015620002e1573d6000803e3d6000fd5b505050506040513d6020811015620002f857600080fd5b505160048054600160a060020a031916600160a060020a03928316178155604080517fa759ee6f00000000000000000000000000000000000000000000000000000000815290519284169263a759ee6f928281019260209291908290030181600087803b1580156200036957600080fd5b505af11580156200037e573d6000803e3d6000fd5b505050506040513d60208110156200039557600080fd5b505160058054600160a060020a031916600160a060020a039092169190911790555050565b620003cd640100000000620005a7810204565b1515620003d957600080fd5b60068054600160a060020a031916600160a060020a0392909216919091179055565b6200040e640100000000620005a7810204565b15156200041a57600080fd5b692f0eadc32162377800008211156200049457604080517f08c379a000000000000000000000000000000000000000000000000000000000815260206004820152601260248201527f5374616b6520697320746f6f20686967682e0000000000000000000000000000604482015290519081900360640190fd5b600781905560048054604080517f18160ddd0000000000000000000000000000000000000000000000000000000081529051606493600160a060020a03909316926318160ddd92808201926020929091829003018186803b158015620004f957600080fd5b505afa1580156200050e573d6000803e3d6000fd5b505050506040513d60208110156200052557600080fd5b50518115156200053157fe5b04811115620005a157604080517f08c379a000000000000000000000000000000000000000000000000000000000815260206004820152601260248201527f5374616b6520697320746f6f20686967682e0000000000000000000000000000604482015290519081900360640190fd5b60085550565b600054600160a060020a031633145b90565b620005cc640100000000620005a7810204565b1515620005d857600080fd5b60038054600160a060020a031916600160a060020a0392909216919091179055565b828054600181600116156101000203166002900490600052602060002090601f016020900481019282601f106200063d57805160ff19168380011785556200066d565b828001600101855582156200066d579182015b828111156200066d57825182559160200191906001019062000650565b506200067b9291506200067f565b5090565b620005b691905b808211156200067b576000815560010162000686565b61289480620006ac6000396000f3fe6080604052600436106101245763ffffffff60e060020a6000350416631328fd8f811461012957806330289c611461027457806333a9711d1461032657806352b7493b1461034d578063715018a614610362578063717902511461037957806376acf1b6146103a25780637c9348261461042c57806388cdab941461045f5780638da5cb5b146104745780638f06492d146104a55780638f32d59b146104ba57806390bfaf40146104cf5780639182621a1461058e578063996df2ad14610648578063a76c74b214610706578063aad9afbb146107b9578063b531ff121461086c578063b93a89f71461092f578063bb3f9cdd146109ad578063c979b05a146109dd578063e2a3b18b14610a10578063f2fde38b14610ac3578063f9f451b814610af6575b600080fd5b34801561013557600080fd5b506101dc6004803603602081101561014c57600080fd5b81019060208101813564010000000081111561016757600080fd5b82018360208201111561017957600080fd5b8035906020019184600183028401116401000000008311171561019b57600080fd5b91908080601f016020809104026020016040519081016040528093929190818152602001838380828437600092019190915250929550610b0b945050505050565b6040518084815260200183600160a060020a0316600160a060020a0316815260200180602001828103825283818151815260200191508051906020019080838360005b8381101561023757818101518382015260200161021f565b50505050905090810190601f1680156102645780820380516001836020036101000a031916815260200191505b5094505050505060405180910390f35b34801561028057600080fd5b506102a76004803603602081101561029757600080fd5b5035600160a060020a0316610c49565b6040518083815260200180602001828103825283818151815260200191508051906020019080838360005b838110156102ea5781810151838201526020016102d2565b50505050905090810190601f1680156103175780820380516001836020036101000a031916815260200191505b50935050505060405180910390f35b34801561033257600080fd5b5061033b610d12565b60408051918252519081900360200190f35b34801561035957600080fd5b5061033b610d18565b34801561036e57600080fd5b50610377610d1e565b005b34801561038557600080fd5b5061038e610d7b565b604080519115158252519081900360200190f35b3480156103ae57600080fd5b506103b7610d9c565b6040805160208082528351818301528351919283929083019185019080838360005b838110156103f15781810151838201526020016103d9565b50505050905090810190601f16801561041e5780820380516001836020036101000a031916815260200191505b509250505060405180910390f35b34801561043857600080fd5b506103776004803603602081101561044f57600080fd5b5035600160a060020a0316610e27565b34801561046b57600080fd5b506103b7610e5c565b34801561048057600080fd5b50610489610eb6565b60408051600160a060020a039092168252519081900360200190f35b3480156104b157600080fd5b5061038e610ec6565b3480156104c657600080fd5b5061038e610ee8565b3480156104db57600080fd5b5061038e600480360360608110156104f257600080fd5b81359160208101359181019060608101604082013564010000000081111561051957600080fd5b82018360208201111561052b57600080fd5b8035906020019184600183028401116401000000008311171561054d57600080fd5b91908080601f016020809104026020016040519081016040528093929190818152602001838380828437600092019190915250929550610ef9945050505050565b34801561059a57600080fd5b5061038e600480360360408110156105b157600080fd5b813591908101906040810160208201356401000000008111156105d357600080fd5b8201836020820111156105e557600080fd5b8035906020019184600183028401116401000000008311171561060757600080fd5b91908080601f016020809104026020016040519081016040528093929190818152602001838380828437600092019190915250929550611241945050505050565b34801561065457600080fd5b506103776004803603604081101561066b57600080fd5b81019060208101813564010000000081111561068657600080fd5b82018360208201111561069857600080fd5b803590602001918460018302840111640100000000831117156106ba57600080fd5b91908080601f01602080910402602001604051908101604052809392919081815260200183838082843760009201919091525092955050509035600160a060020a031691506114519050565b34801561071257600080fd5b5061038e6004803603602081101561072957600080fd5b81019060208101813564010000000081111561074457600080fd5b82018360208201111561075657600080fd5b8035906020019184600183028401116401000000008311171561077857600080fd5b91908080601f016020809104026020016040519081016040528093929190818152602001838380828437600092019190915250929550611724945050505050565b3480156107c557600080fd5b5061038e600480360360208110156107dc57600080fd5b8101906020810181356401000000008111156107f757600080fd5b82018360208201111561080957600080fd5b8035906020019184600183028401116401000000008311171561082b57600080fd5b91908080601f0160208091040260200160405190810160405280939291908181526020018383808284376000920191909152509295506117ac945050505050565b34801561087857600080fd5b506103776004803603604081101561088f57600080fd5b600160a060020a0382351691908101906040810160208201356401000000008111156108ba57600080fd5b8201836020820111156108cc57600080fd5b803590602001918460018302840111640100000000831117156108ee57600080fd5b91908080601f01602080910402602001604051908101604052809392919081815260200183838082843760009201919091525092955061182c945050505050565b34801561093b57600080fd5b506109596004803603602081101561095257600080fd5b50356119d7565b6040518083600160a060020a0316600160a060020a031681526020018060200182810382528381815181526020019150805190602001908083836000838110156102ea5781810151838201526020016102d2565b3480156109b957600080fd5b50610377600480360360408110156109d057600080fd5b5080359060200135611a6a565b3480156109e957600080fd5b5061037760048036036020811015610a0057600080fd5b5035600160a060020a0316611bd6565b348015610a1c57600080fd5b5061038e60048036036020811015610a3357600080fd5b810190602081018135640100000000811115610a4e57600080fd5b820183602082011115610a6057600080fd5b80359060200191846001830284011164010000000083111715610a8257600080fd5b91908080601f016020809104026020016040519081016040528093929190818152602001838380828437600092019190915250929550611d1e945050505050565b348015610acf57600080fd5b5061037760048036036020811015610ae657600080fd5b5035600160a060020a0316611d9e565b348015610b0257600080fd5b50610489611dbd565b60008060606000610b90610b1e86611dcc565b6040516020018082805190602001908083835b60208310610b505780518252601f199092019160209182019101610b31565b6001836020036101000a03801982511681845116808217855250505050505090500191505060405160208183030381529060405280519060200120611e51565b80546001808301546002808501805460408051602061010097841615979097026000190190921693909304601f81018690048602820186019093528281529596509394600160a060020a039092169392839190830182828015610c345780601f10610c0957610100808354040283529160200191610c34565b820191906000526020600020905b815481529060010190602001808311610c1757829003601f168201915b50505050509050935093509350509193909250565b600160a060020a0381166000908152600b60205260408120546060908290610c7090611e51565b8054600280830180546040805160206001841615610100026000190190931694909404601f810183900483028501830190915280845294955092939092839190830182828015610d015780601f10610cd657610100808354040283529160200191610d01565b820191906000526020600020905b815481529060010190602001808311610ce457829003601f168201915b505050505090509250925050915091565b60075481565b60085481565b610d26610ee8565b1515610d3157600080fd5b60008054604051600160a060020a03909116907f8be0079c531659141344cd1fd0a4f28419497f9722a3daafe3b4186f6b6457e0908390a360008054600160a060020a0319169055565b60035474010000000000000000000000000000000000000000900460ff1681565b6002805460408051602060018416156101000260001901909316849004601f81018490048402820184019092528181529291830182828015610e1f5780601f10610df457610100808354040283529160200191610e1f565b820191906000526020600020905b815481529060010190602001808311610e0257829003601f168201915b505050505081565b610e2f610ee8565b1515610e3a57600080fd5b60068054600160a060020a031916600160a060020a0392909216919091179055565b60018054604080516020600284861615610100026000190190941693909304601f81018490048402820184019092528181529291830182828015610e1f5780601f10610df457610100808354040283529160200191610e1f565b600054600160a060020a03165b90565b6003547501000000000000000000000000000000000000000000900460ff1681565b600054600160a060020a0316331490565b600354600090600160a060020a03163314610f84576040805160e560020a62461bcd02815260206004820152602160248201527f446964206e6f74206f726967696e6174652066726f6d20536e6f77666c616b6560448201527f2e00000000000000000000000000000000000000000000000000000000000000606482015290519081900360840190fd5b60085460048054604080517f70a082310000000000000000000000000000000000000000000000000000000081523293810184905290519293928392600160a060020a0316916370a08231916024808301926020929190829003018186803b158015610fef57600080fd5b505afa158015611003573d6000803e3d6000fd5b505050506040513d602081101561101957600080fd5b50511015611097576040805160e560020a62461bcd02815260206004820152602260248201527f496e73756666696369656e74207374616b656420485944524f2062616c616e6360448201527f652e000000000000000000000000000000000000000000000000000000000000606482015290519081900360840190fd5b600060608580602001905160408110156110b057600080fd5b8151602083018051919392830192916401000000008111156110d157600080fd5b820160208101848111156110e457600080fd5b81516401000000008111828201871017156110fe57600080fd5b505092919050505091509150600560009054906101000a9004600160a060020a0316600160a060020a03166353a9698a89336040518363ffffffff1660e060020a0281526004018083815260200182600160a060020a0316600160a060020a031681526020019250505060206040518083038186803b15801561118057600080fd5b505afa158015611194573d6000803e3d6000fd5b505050506040513d60208110156111aa57600080fd5b50511515611228576040805160e560020a62461bcd02815260206004820152602f60248201527f536e6f77666c616b65206973206e6f7420612050726f766964657220666f722060448201527f746865207061737365642045494e2e0000000000000000000000000000000000606482015290519081900360840190fd5b611233888284611ec4565b506001979650505050505050565b600354600090600160a060020a031633146112cc576040805160e560020a62461bcd02815260206004820152602160248201527f446964206e6f74206f726967696e6174652066726f6d20536e6f77666c616b6560448201527f2e00000000000000000000000000000000000000000000000000000000000000606482015290519081900360840190fd5b6000838152600a60205260409020546112e4816124f0565b15156112ec57fe5b6000818152600960209081526040918290206001808201548451600160a060020a03909116938101849052848152600292830180546000199381161561010002939093019092169290920493820184905287937fdc4955845bee1c570feb327eb524548814e95acb6f1d1e6f60d55eead530339d9391929081906060820190859080156113ba5780601f1061138f576101008083540402835291602001916113ba565b820191906000526020600020905b81548152906001019060200180831161139d57829003601f168201915b5050935050505060405180910390a260008181526009602081815260408084206001810154600160a060020a03168552600b8352818520859055888552600a835290842084905584845291905261141691600290910190612779565b600090815260096020526040902060018082018054600160a060020a03191690556003909101805461ff001916610100179055905092915050565b6006546040517fd35e656b000000000000000000000000000000000000000000000000000000008152602060048201818152855160248401528551600094600160a060020a03169363d35e656b938893928392604401918501908083838b5b838110156114c85781810151838201526020016114b0565b50505050905090810190601f1680156114f55780820380516001836020036101000a031916815260200191505b509250505060206040518083038186803b15801561151257600080fd5b505afa158015611526573d6000803e3d6000fd5b505050506040513d602081101561153c57600080fd5b50519050801561171f576006546040517f4bff5009000000000000000000000000000000000000000000000000000000008152602060048201818152865160248401528651600094600160a060020a031693634bff5009938993928392604401918501908083838b5b838110156115bd5781810151838201526020016115a5565b50505050905090810190601f1680156115ea5780820380516001836020036101000a031916815260200191505b509250505060006040518083038186803b15801561160757600080fd5b505afa15801561161b573d6000803e3d6000fd5b505050506040513d6000823e601f3d908101601f19168201604090815281101561164457600080fd5b81019080805164010000000081111561165c57600080fd5b8201602081018481111561166f57600080fd5b815164010000000081118282018710171561168957600080fd5b5050506020015192505050600160a060020a038381169082161461171d576040805160e560020a62461bcd02815260206004820152603460248201527f5468697320487964726f20494420697320616c726561647920636c61696d656460448201527f20627920616e6f7468657220616464726573732e000000000000000000000000606482015290519081900360840190fd5b505b505050565b60006117a461173283611dcc565b6040516020018082805190602001908083835b602083106117645780518252601f199092019160209182019101611745565b6001836020036101000a038019825116818451168082178552505050505050905001915050604051602081830303815290604052805190602001206124f0565b90505b919050565b60006117a46117ba83611dcc565b6040516020018082805190602001908083835b602083106117ec5780518252601f1990920191602091820191016117cd565b6001836020036101000a03801982511681845116808217855250505050505090500191505060405160208183030381529060405280519060200120612513565b60075460048054604080517f70a082310000000000000000000000000000000000000000000000000000000081523393810184905290519293928392600160a060020a0316916370a08231916024808301926020929190829003018186803b15801561189757600080fd5b505afa1580156118ab573d6000803e3d6000fd5b505050506040513d60208110156118c157600080fd5b5051101561193f576040805160e560020a62461bcd02815260206004820152602260248201527f496e73756666696369656e74207374616b656420485944524f2062616c616e6360448201527f652e000000000000000000000000000000000000000000000000000000000000606482015290519081900360840190fd5b600554604080517f05c62c2f000000000000000000000000000000000000000000000000000000008152336004820152905161171d92600160a060020a0316916305c62c2f916024808301926020929190829003018186803b1580156119a457600080fd5b505afa1580156119b8573d6000803e3d6000fd5b505050506040513d60208110156119ce57600080fd5b50518486611ec4565b6000818152600a602052604081205460609082906119f490611e51565b6001818101546002808401805460408051602061010097841615979097026000190190921693909304601f8101869004860282018601909352828152949550600160a060020a03909216939192839190830182828015610d015780601f10610cd657610100808354040283529160200191610d01565b611a72610ee8565b1515611a7d57600080fd5b692f0eadc3216237780000821115611adf576040805160e560020a62461bcd02815260206004820152601260248201527f5374616b6520697320746f6f20686967682e0000000000000000000000000000604482015290519081900360640190fd5b600781905560048054604080517f18160ddd0000000000000000000000000000000000000000000000000000000081529051606493600160a060020a03909316926318160ddd92808201926020929091829003018186803b158015611b4357600080fd5b505afa158015611b57573d6000803e3d6000fd5b505050506040513d6020811015611b6d57600080fd5b5051811515611b7857fe5b04811115611bd0576040805160e560020a62461bcd02815260206004820152601260248201527f5374616b6520697320746f6f20686967682e0000000000000000000000000000604482015290519081900360640190fd5b60085550565b611bde610ee8565b1515611be957600080fd5b611bf28161252c565b600081905080600160a060020a03166375d7e4bd6040518163ffffffff1660e060020a028152600401602060405180830381600087803b158015611c3557600080fd5b505af1158015611c49573d6000803e3d6000fd5b505050506040513d6020811015611c5f57600080fd5b505160048054600160a060020a031916600160a060020a03928316178155604080517fa759ee6f00000000000000000000000000000000000000000000000000000000815290519284169263a759ee6f928281019260209291908290030181600087803b158015611ccf57600080fd5b505af1158015611ce3573d6000803e3d6000fd5b505050506040513d6020811015611cf957600080fd5b505160058054600160a060020a031916600160a060020a039092169190911790555050565b60006117a4611d2c83611dcc565b6040516020018082805190602001908083835b60208310611d5e5780518252601f199092019160209182019101611d3f565b6001836020036101000a03801982511681845116808217855250505050505090500191505060405160208183030381529060405280519060200120612561565b611da6610ee8565b1515611db157600080fd5b611dba8161257e565b50565b600354600160a060020a031681565b60608160005b8151811015611e4a57611e048282815181101515611dec57fe5b90602001015160f860020a900460f860020a026125ee565b8282815181101515611e1257fe5b9060200101907effffffffffffffffffffffffffffffffffffffffffffffffffffffffffffff1916908160001a905350600101611dd2565b5092915050565b6000611e5c826124f0565b1515611eb2576040805160e560020a62461bcd02815260206004820152601660248201527f487964726f4944206973206e6f74206163746976652e00000000000000000000604482015290519081900360640190fd5b50600090815260096020526040902090565b60028251118015611ed6575060218251105b1515611f2c576040805160e560020a62461bcd02815260206004820152601b60248201527f487964726f49442068617320696e76616c6964206c656e6774682e0000000000604482015290519081900360640190fd5b600554604080517fd4b1cdcc000000000000000000000000000000000000000000000000000000008152600481018690523060248201529051600160a060020a039092169163d4b1cdcc91604480820192602092909190829003018186803b158015611f9757600080fd5b505afa158015611fab573d6000803e3d6000fd5b505050506040513d6020811015611fc157600080fd5b5051151561203f576040805160e560020a62461bcd02815260206004820152602960248201527f546865207061737365642045494e20686173206e6f742073657420746869732060448201527f7265736f6c7665722e0000000000000000000000000000000000000000000000606482015290519081900360840190fd5b600554604080517fa687662d00000000000000000000000000000000000000000000000000000000815260048101869052600160a060020a0384811660248301529151919092169163a687662d916044808301926020929190829003018186803b1580156120ac57600080fd5b505afa1580156120c0573d6000803e3d6000fd5b505050506040513d60208110156120d657600080fd5b50511515612154576040805160e560020a62461bcd02815260206004820152603f60248201527f546865207061737365642061646472657373206973206e6f74206173736f636960448201527f617465642077697468207468652063616c6c696e67204964656e746974792e00606482015290519081900360840190fd5b61215e8282611451565b600061218161217c612177612172866126a5565b6126ca565b6126f0565b611dcc565b6040516020018082805190602001908083835b602083106121b35780518252601f199092019160209182019101612194565b6001836020036101000a0380198251168184511680821785525050505050509050019150506040516020818303038152906040528051906020012090506121f981612513565b151561224f576040805160e560020a62461bcd02815260206004820152601760248201527f487964726f494420697320756e617661696c61626c652e000000000000000000604482015290519081900360640190fd5b6000848152600a6020526040902054156122d9576040805160e560020a62461bcd02815260206004820152602360248201527f45494e20697320616c7265616479206d617070656420746f206120487964726f60448201527f49442e0000000000000000000000000000000000000000000000000000000000606482015290519081900360840190fd5b600160a060020a0382166000908152600b60205260409020541561236d576040805160e560020a62461bcd02815260206004820152602760248201527f4164647265737320697320616c7265616479206d617070656420746f2061204860448201527f7964726f49442e00000000000000000000000000000000000000000000000000606482015290519081900360840190fd5b6040805160a081018252858152600160a060020a03848116602080840191825283850188815260016060860181905260006080870181905288815260098452969096208551815592519583018054600160a060020a0319169690941695909517909255925180519293926123e792600285019201906127bd565b506060828101516003909201805460809094015115156101000261ff001993151560ff1990951694909417929092169290921790556000858152600a60209081526040808320859055600160a060020a038616808452600b8352818420869055815180840191909152818152875191810191909152865188947f2036b1dad46d67484fb64d7b2041768b0c1d63e534f4b59a6fb46c1b08493df49489948994938493840192918701918190849084905b838110156124af578181015183820152602001612497565b50505050905090810190601f1680156124dc5780820380516001836020036101000a031916815260200191505b50935050505060405180910390a250505050565b60006124fb82612513565b1580156117a4575061250c82612561565b1592915050565b60009081526009602052604090206003015460ff161590565b612534610ee8565b151561253f57600080fd5b60038054600160a060020a031916600160a060020a0392909216919091179055565b600090815260096020526040902060030154610100900460ff1690565b600160a060020a038116151561259357600080fd5b60008054604051600160a060020a03808516939216917f8be0079c531659141344cd1fd0a4f28419497f9722a3daafe3b4186f6b6457e091a360008054600160a060020a031916600160a060020a0392909216919091179055565b60007f41000000000000000000000000000000000000000000000000000000000000007fff0000000000000000000000000000000000000000000000000000000000000083161080159061268457507f5a000000000000000000000000000000000000000000000000000000000000007fff00000000000000000000000000000000000000000000000000000000000000831611155b156126a1578160f860020a900460200160f860020a0290506117a7565b5090565b6126ad612837565b506040805180820190915281518152602082810190820152919050565b6126d2612837565b50604080518082019091528151815260208083015190820152919050565b60608082600001516040519080825280601f01601f191660200182016040528015612722576020820181803883390190505b5090506000602082019050611e4a81856020015186600001515b6020811061275b578151835260209283019290910190601f190161273c565b905182516020929092036101000a6000190180199091169116179052565b50805460018160011615610100020316600290046000825580601f1061279f5750611dba565b601f016020900490600052602060002090810190611dba919061284e565b828054600181600116156101000203166002900490600052602060002090601f016020900481019282601f106127fe57805160ff191683800117855561282b565b8280016001018555821561282b579182015b8281111561282b578251825591602001919060010190612810565b506126a192915061284e565b604080518082019091526000808252602082015290565b610ec391905b808211156126a1576000815560010161285456fea165627a7a7230582008fd7f09eeea980b4a66fbd8359def26a42a104aa27fc1afc41046b1b9999d070029",
			"opcodes": "PUSH1 0x80 PUSH1 0x40 MSTORE CALLVALUE DUP1 ISZERO PUSH3 0x11 JUMPI PUSH1 0x0 DUP1 REVERT JUMPDEST POP PUSH1 0x40 MLOAD PUSH1 0x80 DUP1 PUSH3 0x2F40 DUP4 CODECOPY DUP2 ADD DUP1 PUSH1 0x40 MSTORE PUSH1 0x80 DUP2 LT ISZERO PUSH3 0x33 JUMPI PUSH1 0x0 DUP1 REVERT JUMPDEST POP DUP1 MLOAD PUSH1 0x20 DUP1 DUP4 ADD MLOAD PUSH1 0x40 DUP1 DUP6 ADD MLOAD PUSH1 0x60 SWAP6 DUP7 ADD MLOAD DUP3 MLOAD DUP1 DUP5 ADD DUP5 MSTORE PUSH1 0xF DUP2 MSTORE PUSH32 0x436C69656E74205261696E64726F700000000000000000000000000000000000 DUP2 DUP8 ADD MSTORE DUP4 MLOAD PUSH1 0x80 DUP2 ADD DUP6 MSTORE PUSH1 0x44 DUP2 MSTORE PUSH32 0x412072656769737472792074686174206C696E6B732045494E7320746F204879 SWAP7 DUP2 ADD SWAP7 SWAP1 SWAP7 MSTORE PUSH32 0x64726F49447320746F20706F77657220436C69656E74205261696E64726F7020 DUP7 DUP6 ADD MSTORE PUSH32 0x4D46412E00000000000000000000000000000000000000000000000000000000 SWAP8 DUP7 ADD SWAP8 SWAP1 SWAP8 MSTORE PUSH1 0x0 DUP1 SLOAD PUSH1 0x1 PUSH1 0xA0 PUSH1 0x2 EXP SUB NOT AND CALLER OR DUP1 DUP3 SSTORE SWAP4 MLOAD SWAP7 SWAP8 SWAP5 SWAP7 SWAP3 SWAP6 SWAP2 SWAP5 SWAP4 SWAP2 SWAP3 DUP9 SWAP3 PUSH1 0x1 SWAP3 DUP4 SWAP3 PUSH1 0x1 PUSH1 0xA0 PUSH1 0x2 EXP SUB SWAP3 SWAP1 SWAP3 AND SWAP2 PUSH32 0x8BE0079C531659141344CD1FD0A4F28419497F9722A3DAAFE3B4186F6B6457E0 SWAP1 DUP3 SWAP1 LOG3 DUP5 MLOAD PUSH3 0x167 SWAP1 PUSH1 0x1 SWAP1 PUSH1 0x20 DUP9 ADD SWAP1 PUSH3 0x5FA JUMP JUMPDEST POP DUP4 MLOAD PUSH3 0x17D SWAP1 PUSH1 0x2 SWAP1 PUSH1 0x20 DUP8 ADD SWAP1 PUSH3 0x5FA JUMP JUMPDEST POP PUSH3 0x192 DUP4 PUSH5 0x100000000 PUSH3 0x237 DUP2 MUL DIV JUMP JUMPDEST PUSH1 0x3 DUP1 SLOAD SWAP2 ISZERO ISZERO PUSH22 0x1000000000000000000000000000000000000000000 MUL PUSH1 0xA8 PUSH1 0x2 EXP PUSH1 0xFF MUL NOT SWAP4 ISZERO ISZERO PUSH21 0x10000000000000000000000000000000000000000 MUL PUSH1 0xA0 PUSH1 0x2 EXP PUSH1 0xFF MUL NOT SWAP1 SWAP4 AND SWAP3 SWAP1 SWAP3 OR SWAP3 SWAP1 SWAP3 AND OR SWAP1 SSTORE POP PUSH3 0x204 SWAP2 POP DUP6 SWAP1 POP PUSH5 0x100000000 PUSH3 0x237 DUP2 MUL DIV JUMP JUMPDEST PUSH3 0x218 DUP4 PUSH5 0x100000000 PUSH3 0x3BA DUP2 MUL DIV JUMP JUMPDEST PUSH3 0x22D DUP3 DUP3 PUSH5 0x100000000 PUSH3 0x3FB DUP2 MUL DIV JUMP JUMPDEST POP POP POP POP PUSH3 0x69C JUMP JUMPDEST PUSH3 0x24A PUSH5 0x100000000 PUSH3 0x5A7 DUP2 MUL DIV JUMP JUMPDEST ISZERO ISZERO PUSH3 0x256 JUMPI PUSH1 0x0 DUP1 REVERT JUMPDEST PUSH3 0x26F DUP2 PUSH5 0x100000000 PUSH3 0x252C PUSH3 0x5B9 DUP3 MUL OR DIV JUMP JUMPDEST PUSH1 0x0 DUP2 SWAP1 POP DUP1 PUSH1 0x1 PUSH1 0xA0 PUSH1 0x2 EXP SUB AND PUSH4 0x75D7E4BD PUSH1 0x40 MLOAD DUP2 PUSH4 0xFFFFFFFF AND PUSH29 0x100000000000000000000000000000000000000000000000000000000 MUL DUP2 MSTORE PUSH1 0x4 ADD PUSH1 0x20 PUSH1 0x40 MLOAD DUP1 DUP4 SUB DUP2 PUSH1 0x0 DUP8 DUP1 EXTCODESIZE ISZERO DUP1 ISZERO PUSH3 0x2CC JUMPI PUSH1 0x0 DUP1 REVERT JUMPDEST POP GAS CALL ISZERO DUP1 ISZERO PUSH3 0x2E1 JUMPI RETURNDATASIZE PUSH1 0x0 DUP1 RETURNDATACOPY RETURNDATASIZE PUSH1 0x0 REVERT JUMPDEST POP POP POP POP PUSH1 0x40 MLOAD RETURNDATASIZE PUSH1 0x20 DUP2 LT ISZERO PUSH3 0x2F8 JUMPI PUSH1 0x0 DUP1 REVERT JUMPDEST POP MLOAD PUSH1 0x4 DUP1 SLOAD PUSH1 0x1 PUSH1 0xA0 PUSH1 0x2 EXP SUB NOT AND PUSH1 0x1 PUSH1 0xA0 PUSH1 0x2 EXP SUB SWAP3 DUP4 AND OR DUP2 SSTORE PUSH1 0x40 DUP1 MLOAD PUSH32 0xA759EE6F00000000000000000000000000000000000000000000000000000000 DUP2 MSTORE SWAP1 MLOAD SWAP3 DUP5 AND SWAP3 PUSH4 0xA759EE6F SWAP3 DUP3 DUP2 ADD SWAP3 PUSH1 0x20 SWAP3 SWAP2 SWAP1 DUP3 SWAP1 SUB ADD DUP2 PUSH1 0x0 DUP8 DUP1 EXTCODESIZE ISZERO DUP1 ISZERO PUSH3 0x369 JUMPI PUSH1 0x0 DUP1 REVERT JUMPDEST POP GAS CALL ISZERO DUP1 ISZERO PUSH3 0x37E JUMPI RETURNDATASIZE PUSH1 0x0 DUP1 RETURNDATACOPY RETURNDATASIZE PUSH1 0x0 REVERT JUMPDEST POP POP POP POP PUSH1 0x40 MLOAD RETURNDATASIZE PUSH1 0x20 DUP2 LT ISZERO PUSH3 0x395 JUMPI PUSH1 0x0 DUP1 REVERT JUMPDEST POP MLOAD PUSH1 0x5 DUP1 SLOAD PUSH1 0x1 PUSH1 0xA0 PUSH1 0x2 EXP SUB NOT AND PUSH1 0x1 PUSH1 0xA0 PUSH1 0x2 EXP SUB SWAP1 SWAP3 AND SWAP2 SWAP1 SWAP2 OR SWAP1 SSTORE POP POP JUMP JUMPDEST PUSH3 0x3CD PUSH5 0x100000000 PUSH3 0x5A7 DUP2 MUL DIV JUMP JUMPDEST ISZERO ISZERO PUSH3 0x3D9 JUMPI PUSH1 0x0 DUP1 REVERT JUMPDEST PUSH1 0x6 DUP1 SLOAD PUSH1 0x1 PUSH1 0xA0 PUSH1 0x2 EXP SUB NOT AND PUSH1 0x1 PUSH1 0xA0 PUSH1 0x2 EXP SUB SWAP3 SWAP1 SWAP3 AND SWAP2 SWAP1 SWAP2 OR SWAP1 SSTORE JUMP JUMPDEST PUSH3 0x40E PUSH5 0x100000000 PUSH3 0x5A7 DUP2 MUL DIV JUMP JUMPDEST ISZERO ISZERO PUSH3 0x41A JUMPI PUSH1 0x0 DUP1 REVERT JUMPDEST PUSH10 0x2F0EADC3216237780000 DUP3 GT ISZERO PUSH3 0x494 JUMPI PUSH1 0x40 DUP1 MLOAD PUSH32 0x8C379A000000000000000000000000000000000000000000000000000000000 DUP2 MSTORE PUSH1 0x20 PUSH1 0x4 DUP3 ADD MSTORE PUSH1 0x12 PUSH1 0x24 DUP3 ADD MSTORE PUSH32 0x5374616B6520697320746F6F20686967682E0000000000000000000000000000 PUSH1 0x44 DUP3 ADD MSTORE SWAP1 MLOAD SWAP1 DUP2 SWAP1 SUB PUSH1 0x64 ADD SWAP1 REVERT JUMPDEST PUSH1 0x7 DUP2 SWAP1 SSTORE PUSH1 0x4 DUP1 SLOAD PUSH1 0x40 DUP1 MLOAD PUSH32 0x18160DDD00000000000000000000000000000000000000000000000000000000 DUP2 MSTORE SWAP1 MLOAD PUSH1 0x64 SWAP4 PUSH1 0x1 PUSH1 0xA0 PUSH1 0x2 EXP SUB SWAP1 SWAP4 AND SWAP3 PUSH4 0x18160DDD SWAP3 DUP1 DUP3 ADD SWAP3 PUSH1 0x20 SWAP3 SWAP1 SWAP2 DUP3 SWAP1 SUB ADD DUP2 DUP7 DUP1 EXTCODESIZE ISZERO DUP1 ISZERO PUSH3 0x4F9 JUMPI PUSH1 0x0 DUP1 REVERT JUMPDEST POP GAS STATICCALL ISZERO DUP1 ISZERO PUSH3 0x50E JUMPI RETURNDATASIZE PUSH1 0x0 DUP1 RETURNDATACOPY RETURNDATASIZE PUSH1 0x0 REVERT JUMPDEST POP POP POP POP PUSH1 0x40 MLOAD RETURNDATASIZE PUSH1 0x20 DUP2 LT ISZERO PUSH3 0x525 JUMPI PUSH1 0x0 DUP1 REVERT JUMPDEST POP MLOAD DUP2 ISZERO ISZERO PUSH3 0x531 JUMPI INVALID JUMPDEST DIV DUP2 GT ISZERO PUSH3 0x5A1 JUMPI PUSH1 0x40 DUP1 MLOAD PUSH32 0x8C379A000000000000000000000000000000000000000000000000000000000 DUP2 MSTORE PUSH1 0x20 PUSH1 0x4 DUP3 ADD MSTORE PUSH1 0x12 PUSH1 0x24 DUP3 ADD MSTORE PUSH32 0x5374616B6520697320746F6F20686967682E0000000000000000000000000000 PUSH1 0x44 DUP3 ADD MSTORE SWAP1 MLOAD SWAP1 DUP2 SWAP1 SUB PUSH1 0x64 ADD SWAP1 REVERT JUMPDEST PUSH1 0x8 SSTORE POP JUMP JUMPDEST PUSH1 0x0 SLOAD PUSH1 0x1 PUSH1 0xA0 PUSH1 0x2 EXP SUB AND CALLER EQ JUMPDEST SWAP1 JUMP JUMPDEST PUSH3 0x5CC PUSH5 0x100000000 PUSH3 0x5A7 DUP2 MUL DIV JUMP JUMPDEST ISZERO ISZERO PUSH3 0x5D8 JUMPI PUSH1 0x0 DUP1 REVERT JUMPDEST PUSH1 0x3 DUP1 SLOAD PUSH1 0x1 PUSH1 0xA0 PUSH1 0x2 EXP SUB NOT AND PUSH1 0x1 PUSH1 0xA0 PUSH1 0x2 EXP SUB SWAP3 SWAP1 SWAP3 AND SWAP2 SWAP1 SWAP2 OR SWAP1 SSTORE JUMP JUMPDEST DUP3 DUP1 SLOAD PUSH1 0x1 DUP2 PUSH1 0x1 AND ISZERO PUSH2 0x100 MUL SUB AND PUSH1 0x2 SWAP1 DIV SWAP1 PUSH1 0x0 MSTORE PUSH1 0x20 PUSH1 0x0 KECCAK256 SWAP1 PUSH1 0x1F ADD PUSH1 0x20 SWAP1 DIV DUP2 ADD SWAP3 DUP3 PUSH1 0x1F LT PUSH3 0x63D JUMPI DUP1 MLOAD PUSH1 0xFF NOT AND DUP4 DUP1 ADD OR DUP6 SSTORE PUSH3 0x66D JUMP JUMPDEST DUP3 DUP1 ADD PUSH1 0x1 ADD DUP6 SSTORE DUP3 ISZERO PUSH3 0x66D JUMPI SWAP2 DUP3 ADD JUMPDEST DUP3 DUP2 GT ISZERO PUSH3 0x66D JUMPI DUP3 MLOAD DUP3 SSTORE SWAP2 PUSH1 0x20 ADD SWAP2 SWAP1 PUSH1 0x1 ADD SWAP1 PUSH3 0x650 JUMP JUMPDEST POP PUSH3 0x67B SWAP3 SWAP2 POP PUSH3 0x67F JUMP JUMPDEST POP SWAP1 JUMP JUMPDEST PUSH3 0x5B6 SWAP2 SWAP1 JUMPDEST DUP1 DUP3 GT ISZERO PUSH3 0x67B JUMPI PUSH1 0x0 DUP2 SSTORE PUSH1 0x1 ADD PUSH3 0x686 JUMP JUMPDEST PUSH2 0x2894 DUP1 PUSH3 0x6AC PUSH1 0x0 CODECOPY PUSH1 0x0 RETURN INVALID PUSH1 0x80 PUSH1 0x40 MSTORE PUSH1 0x4 CALLDATASIZE LT PUSH2 0x124 JUMPI PUSH4 0xFFFFFFFF PUSH1 0xE0 PUSH1 0x2 EXP PUSH1 0x0 CALLDATALOAD DIV AND PUSH4 0x1328FD8F DUP2 EQ PUSH2 0x129 JUMPI DUP1 PUSH4 0x30289C61 EQ PUSH2 0x274 JUMPI DUP1 PUSH4 0x33A9711D EQ PUSH2 0x326 JUMPI DUP1 PUSH4 0x52B7493B EQ PUSH2 0x34D JUMPI DUP1 PUSH4 0x715018A6 EQ PUSH2 0x362 JUMPI DUP1 PUSH4 0x71790251 EQ PUSH2 0x379 JUMPI DUP1 PUSH4 0x76ACF1B6 EQ PUSH2 0x3A2 JUMPI DUP1 PUSH4 0x7C934826 EQ PUSH2 0x42C JUMPI DUP1 PUSH4 0x88CDAB94 EQ PUSH2 0x45F JUMPI DUP1 PUSH4 0x8DA5CB5B EQ PUSH2 0x474 JUMPI DUP1 PUSH4 0x8F06492D EQ PUSH2 0x4A5 JUMPI DUP1 PUSH4 0x8F32D59B EQ PUSH2 0x4BA JUMPI DUP1 PUSH4 0x90BFAF40 EQ PUSH2 0x4CF JUMPI DUP1 PUSH4 0x9182621A EQ PUSH2 0x58E JUMPI DUP1 PUSH4 0x996DF2AD EQ PUSH2 0x648 JUMPI DUP1 PUSH4 0xA76C74B2 EQ PUSH2 0x706 JUMPI DUP1 PUSH4 0xAAD9AFBB EQ PUSH2 0x7B9 JUMPI DUP1 PUSH4 0xB531FF12 EQ PUSH2 0x86C JUMPI DUP1 PUSH4 0xB93A89F7 EQ PUSH2 0x92F JUMPI DUP1 PUSH4 0xBB3F9CDD EQ PUSH2 0x9AD JUMPI DUP1 PUSH4 0xC979B05A EQ PUSH2 0x9DD JUMPI DUP1 PUSH4 0xE2A3B18B EQ PUSH2 0xA10 JUMPI DUP1 PUSH4 0xF2FDE38B EQ PUSH2 0xAC3 JUMPI DUP1 PUSH4 0xF9F451B8 EQ PUSH2 0xAF6 JUMPI JUMPDEST PUSH1 0x0 DUP1 REVERT JUMPDEST CALLVALUE DUP1 ISZERO PUSH2 0x135 JUMPI PUSH1 0x0 DUP1 REVERT JUMPDEST POP PUSH2 0x1DC PUSH1 0x4 DUP1 CALLDATASIZE SUB PUSH1 0x20 DUP2 LT ISZERO PUSH2 0x14C JUMPI PUSH1 0x0 DUP1 REVERT JUMPDEST DUP2 ADD SWAP1 PUSH1 0x20 DUP2 ADD DUP2 CALLDATALOAD PUSH5 0x100000000 DUP2 GT ISZERO PUSH2 0x167 JUMPI PUSH1 0x0 DUP1 REVERT JUMPDEST DUP3 ADD DUP4 PUSH1 0x20 DUP3 ADD GT ISZERO PUSH2 0x179 JUMPI PUSH1 0x0 DUP1 REVERT JUMPDEST DUP1 CALLDATALOAD SWAP1 PUSH1 0x20 ADD SWAP2 DUP5 PUSH1 0x1 DUP4 MUL DUP5 ADD GT PUSH5 0x100000000 DUP4 GT OR ISZERO PUSH2 0x19B JUMPI PUSH1 0x0 DUP1 REVERT JUMPDEST SWAP2 SWAP1 DUP1 DUP1 PUSH1 0x1F ADD PUSH1 0x20 DUP1 SWAP2 DIV MUL PUSH1 0x20 ADD PUSH1 0x40 MLOAD SWAP1 DUP2 ADD PUSH1 0x40 MSTORE DUP1 SWAP4 SWAP3 SWAP2 SWAP1 DUP2 DUP2 MSTORE PUSH1 0x20 ADD DUP4 DUP4 DUP1 DUP3 DUP5 CALLDATACOPY PUSH1 0x0 SWAP3 ADD SWAP2 SWAP1 SWAP2 MSTORE POP SWAP3 SWAP6 POP PUSH2 0xB0B SWAP5 POP POP POP POP POP JUMP JUMPDEST PUSH1 0x40 MLOAD DUP1 DUP5 DUP2 MSTORE PUSH1 0x20 ADD DUP4 PUSH1 0x1 PUSH1 0xA0 PUSH1 0x2 EXP SUB AND PUSH1 0x1 PUSH1 0xA0 PUSH1 0x2 EXP SUB AND DUP2 MSTORE PUSH1 0x20 ADD DUP1 PUSH1 0x20 ADD DUP3 DUP2 SUB DUP3 MSTORE DUP4 DUP2 DUP2 MLOAD DUP2 MSTORE PUSH1 0x20 ADD SWAP2 POP DUP1 MLOAD SWAP1 PUSH1 0x20 ADD SWAP1 DUP1 DUP4 DUP4 PUSH1 0x0 JUMPDEST DUP4 DUP2 LT ISZERO PUSH2 0x237 JUMPI DUP2 DUP2 ADD MLOAD DUP4 DUP3 ADD MSTORE PUSH1 0x20 ADD PUSH2 0x21F JUMP JUMPDEST POP POP POP POP SWAP1 POP SWAP1 DUP2 ADD SWAP1 PUSH1 0x1F AND DUP1 ISZERO PUSH2 0x264 JUMPI DUP1 DUP3 SUB DUP1 MLOAD PUSH1 0x1 DUP4 PUSH1 0x20 SUB PUSH2 0x100 EXP SUB NOT AND DUP2 MSTORE PUSH1 0x20 ADD SWAP2 POP JUMPDEST POP SWAP5 POP POP POP POP POP PUSH1 0x40 MLOAD DUP1 SWAP2 SUB SWAP1 RETURN JUMPDEST CALLVALUE DUP1 ISZERO PUSH2 0x280 JUMPI PUSH1 0x0 DUP1 REVERT JUMPDEST POP PUSH2 0x2A7 PUSH1 0x4 DUP1 CALLDATASIZE SUB PUSH1 0x20 DUP2 LT ISZERO PUSH2 0x297 JUMPI PUSH1 0x0 DUP1 REVERT JUMPDEST POP CALLDATALOAD PUSH1 0x1 PUSH1 0xA0 PUSH1 0x2 EXP SUB AND PUSH2 0xC49 JUMP JUMPDEST PUSH1 0x40 MLOAD DUP1 DUP4 DUP2 MSTORE PUSH1 0x20 ADD DUP1 PUSH1 0x20 ADD DUP3 DUP2 SUB DUP3 MSTORE DUP4 DUP2 DUP2 MLOAD DUP2 MSTORE PUSH1 0x20 ADD SWAP2 POP DUP1 MLOAD SWAP1 PUSH1 0x20 ADD SWAP1 DUP1 DUP4 DUP4 PUSH1 0x0 JUMPDEST DUP4 DUP2 LT ISZERO PUSH2 0x2EA JUMPI DUP2 DUP2 ADD MLOAD DUP4 DUP3 ADD MSTORE PUSH1 0x20 ADD PUSH2 0x2D2 JUMP JUMPDEST POP POP POP POP SWAP1 POP SWAP1 DUP2 ADD SWAP1 PUSH1 0x1F AND DUP1 ISZERO PUSH2 0x317 JUMPI DUP1 DUP3 SUB DUP1 MLOAD PUSH1 0x1 DUP4 PUSH1 0x20 SUB PUSH2 0x100 EXP SUB NOT AND DUP2 MSTORE PUSH1 0x20 ADD SWAP2 POP JUMPDEST POP SWAP4 POP POP POP POP PUSH1 0x40 MLOAD DUP1 SWAP2 SUB SWAP1 RETURN JUMPDEST CALLVALUE DUP1 ISZERO PUSH2 0x332 JUMPI PUSH1 0x0 DUP1 REVERT JUMPDEST POP PUSH2 0x33B PUSH2 0xD12 JUMP JUMPDEST PUSH1 0x40 DUP1 MLOAD SWAP2 DUP3 MSTORE MLOAD SWAP1 DUP2 SWAP1 SUB PUSH1 0x20 ADD SWAP1 RETURN JUMPDEST CALLVALUE DUP1 ISZERO PUSH2 0x359 JUMPI PUSH1 0x0 DUP1 REVERT JUMPDEST POP PUSH2 0x33B PUSH2 0xD18 JUMP JUMPDEST CALLVALUE DUP1 ISZERO PUSH2 0x36E JUMPI PUSH1 0x0 DUP1 REVERT JUMPDEST POP PUSH2 0x377 PUSH2 0xD1E JUMP JUMPDEST STOP JUMPDEST CALLVALUE DUP1 ISZERO PUSH2 0x385 JUMPI PUSH1 0x0 DUP1 REVERT JUMPDEST POP PUSH2 0x38E PUSH2 0xD7B JUMP JUMPDEST PUSH1 0x40 DUP1 MLOAD SWAP2 ISZERO ISZERO DUP3 MSTORE MLOAD SWAP1 DUP2 SWAP1 SUB PUSH1 0x20 ADD SWAP1 RETURN JUMPDEST CALLVALUE DUP1 ISZERO PUSH2 0x3AE JUMPI PUSH1 0x0 DUP1 REVERT JUMPDEST POP PUSH2 0x3B7 PUSH2 0xD9C JUMP JUMPDEST PUSH1 0x40 DUP1 MLOAD PUSH1 0x20 DUP1 DUP3 MSTORE DUP4 MLOAD DUP2 DUP4 ADD MSTORE DUP4 MLOAD SWAP2 SWAP3 DUP4 SWAP3 SWAP1 DUP4 ADD SWAP2 DUP6 ADD SWAP1 DUP1 DUP4 DUP4 PUSH1 0x0 JUMPDEST DUP4 DUP2 LT ISZERO PUSH2 0x3F1 JUMPI DUP2 DUP2 ADD MLOAD DUP4 DUP3 ADD MSTORE PUSH1 0x20 ADD PUSH2 0x3D9 JUMP JUMPDEST POP POP POP POP SWAP1 POP SWAP1 DUP2 ADD SWAP1 PUSH1 0x1F AND DUP1 ISZERO PUSH2 0x41E JUMPI DUP1 DUP3 SUB DUP1 MLOAD PUSH1 0x1 DUP4 PUSH1 0x20 SUB PUSH2 0x100 EXP SUB NOT AND DUP2 MSTORE PUSH1 0x20 ADD SWAP2 POP JUMPDEST POP SWAP3 POP POP POP PUSH1 0x40 MLOAD DUP1 SWAP2 SUB SWAP1 RETURN JUMPDEST CALLVALUE DUP1 ISZERO PUSH2 0x438 JUMPI PUSH1 0x0 DUP1 REVERT JUMPDEST POP PUSH2 0x377 PUSH1 0x4 DUP1 CALLDATASIZE SUB PUSH1 0x20 DUP2 LT ISZERO PUSH2 0x44F JUMPI PUSH1 0x0 DUP1 REVERT JUMPDEST POP CALLDATALOAD PUSH1 0x1 PUSH1 0xA0 PUSH1 0x2 EXP SUB AND PUSH2 0xE27 JUMP JUMPDEST CALLVALUE DUP1 ISZERO PUSH2 0x46B JUMPI PUSH1 0x0 DUP1 REVERT JUMPDEST POP PUSH2 0x3B7 PUSH2 0xE5C JUMP JUMPDEST CALLVALUE DUP1 ISZERO PUSH2 0x480 JUMPI PUSH1 0x0 DUP1 REVERT JUMPDEST POP PUSH2 0x489 PUSH2 0xEB6 JUMP JUMPDEST PUSH1 0x40 DUP1 MLOAD PUSH1 0x1 PUSH1 0xA0 PUSH1 0x2 EXP SUB SWAP1 SWAP3 AND DUP3 MSTORE MLOAD SWAP1 DUP2 SWAP1 SUB PUSH1 0x20 ADD SWAP1 RETURN JUMPDEST CALLVALUE DUP1 ISZERO PUSH2 0x4B1 JUMPI PUSH1 0x0 DUP1 REVERT JUMPDEST POP PUSH2 0x38E PUSH2 0xEC6 JUMP JUMPDEST CALLVALUE DUP1 ISZERO PUSH2 0x4C6 JUMPI PUSH1 0x0 DUP1 REVERT JUMPDEST POP PUSH2 0x38E PUSH2 0xEE8 JUMP JUMPDEST CALLVALUE DUP1 ISZERO PUSH2 0x4DB JUMPI PUSH1 0x0 DUP1 REVERT JUMPDEST POP PUSH2 0x38E PUSH1 0x4 DUP1 CALLDATASIZE SUB PUSH1 0x60 DUP2 LT ISZERO PUSH2 0x4F2 JUMPI PUSH1 0x0 DUP1 REVERT JUMPDEST DUP2 CALLDATALOAD SWAP2 PUSH1 0x20 DUP2 ADD CALLDATALOAD SWAP2 DUP2 ADD SWAP1 PUSH1 0x60 DUP2 ADD PUSH1 0x40 DUP3 ADD CALLDATALOAD PUSH5 0x100000000 DUP2 GT ISZERO PUSH2 0x519 JUMPI PUSH1 0x0 DUP1 REVERT JUMPDEST DUP3 ADD DUP4 PUSH1 0x20 DUP3 ADD GT ISZERO PUSH2 0x52B JUMPI PUSH1 0x0 DUP1 REVERT JUMPDEST DUP1 CALLDATALOAD SWAP1 PUSH1 0x20 ADD SWAP2 DUP5 PUSH1 0x1 DUP4 MUL DUP5 ADD GT PUSH5 0x100000000 DUP4 GT OR ISZERO PUSH2 0x54D JUMPI PUSH1 0x0 DUP1 REVERT JUMPDEST SWAP2 SWAP1 DUP1 DUP1 PUSH1 0x1F ADD PUSH1 0x20 DUP1 SWAP2 DIV MUL PUSH1 0x20 ADD PUSH1 0x40 MLOAD SWAP1 DUP2 ADD PUSH1 0x40 MSTORE DUP1 SWAP4 SWAP3 SWAP2 SWAP1 DUP2 DUP2 MSTORE PUSH1 0x20 ADD DUP4 DUP4 DUP1 DUP3 DUP5 CALLDATACOPY PUSH1 0x0 SWAP3 ADD SWAP2 SWAP1 SWAP2 MSTORE POP SWAP3 SWAP6 POP PUSH2 0xEF9 SWAP5 POP POP POP POP POP JUMP JUMPDEST CALLVALUE DUP1 ISZERO PUSH2 0x59A JUMPI PUSH1 0x0 DUP1 REVERT JUMPDEST POP PUSH2 0x38E PUSH1 0x4 DUP1 CALLDATASIZE SUB PUSH1 0x40 DUP2 LT ISZERO PUSH2 0x5B1 JUMPI PUSH1 0x0 DUP1 REVERT JUMPDEST DUP2 CALLDATALOAD SWAP2 SWAP1 DUP2 ADD SWAP1 PUSH1 0x40 DUP2 ADD PUSH1 0x20 DUP3 ADD CALLDATALOAD PUSH5 0x100000000 DUP2 GT ISZERO PUSH2 0x5D3 JUMPI PUSH1 0x0 DUP1 REVERT JUMPDEST DUP3 ADD DUP4 PUSH1 0x20 DUP3 ADD GT ISZERO PUSH2 0x5E5 JUMPI PUSH1 0x0 DUP1 REVERT JUMPDEST DUP1 CALLDATALOAD SWAP1 PUSH1 0x20 ADD SWAP2 DUP5 PUSH1 0x1 DUP4 MUL DUP5 ADD GT PUSH5 0x100000000 DUP4 GT OR ISZERO PUSH2 0x607 JUMPI PUSH1 0x0 DUP1 REVERT JUMPDEST SWAP2 SWAP1 DUP1 DUP1 PUSH1 0x1F ADD PUSH1 0x20 DUP1 SWAP2 DIV MUL PUSH1 0x20 ADD PUSH1 0x40 MLOAD SWAP1 DUP2 ADD PUSH1 0x40 MSTORE DUP1 SWAP4 SWAP3 SWAP2 SWAP1 DUP2 DUP2 MSTORE PUSH1 0x20 ADD DUP4 DUP4 DUP1 DUP3 DUP5 CALLDATACOPY PUSH1 0x0 SWAP3 ADD SWAP2 SWAP1 SWAP2 MSTORE POP SWAP3 SWAP6 POP PUSH2 0x1241 SWAP5 POP POP POP POP POP JUMP JUMPDEST CALLVALUE DUP1 ISZERO PUSH2 0x654 JUMPI PUSH1 0x0 DUP1 REVERT JUMPDEST POP PUSH2 0x377 PUSH1 0x4 DUP1 CALLDATASIZE SUB PUSH1 0x40 DUP2 LT ISZERO PUSH2 0x66B JUMPI PUSH1 0x0 DUP1 REVERT JUMPDEST DUP2 ADD SWAP1 PUSH1 0x20 DUP2 ADD DUP2 CALLDATALOAD PUSH5 0x100000000 DUP2 GT ISZERO PUSH2 0x686 JUMPI PUSH1 0x0 DUP1 REVERT JUMPDEST DUP3 ADD DUP4 PUSH1 0x20 DUP3 ADD GT ISZERO PUSH2 0x698 JUMPI PUSH1 0x0 DUP1 REVERT JUMPDEST DUP1 CALLDATALOAD SWAP1 PUSH1 0x20 ADD SWAP2 DUP5 PUSH1 0x1 DUP4 MUL DUP5 ADD GT PUSH5 0x100000000 DUP4 GT OR ISZERO PUSH2 0x6BA JUMPI PUSH1 0x0 DUP1 REVERT JUMPDEST SWAP2 SWAP1 DUP1 DUP1 PUSH1 0x1F ADD PUSH1 0x20 DUP1 SWAP2 DIV MUL PUSH1 0x20 ADD PUSH1 0x40 MLOAD SWAP1 DUP2 ADD PUSH1 0x40 MSTORE DUP1 SWAP4 SWAP3 SWAP2 SWAP1 DUP2 DUP2 MSTORE PUSH1 0x20 ADD DUP4 DUP4 DUP1 DUP3 DUP5 CALLDATACOPY PUSH1 0x0 SWAP3 ADD SWAP2 SWAP1 SWAP2 MSTORE POP SWAP3 SWAP6 POP POP POP SWAP1 CALLDATALOAD PUSH1 0x1 PUSH1 0xA0 PUSH1 0x2 EXP SUB AND SWAP2 POP PUSH2 0x1451 SWAP1 POP JUMP JUMPDEST CALLVALUE DUP1 ISZERO PUSH2 0x712 JUMPI PUSH1 0x0 DUP1 REVERT JUMPDEST POP PUSH2 0x38E PUSH1 0x4 DUP1 CALLDATASIZE SUB PUSH1 0x20 DUP2 LT ISZERO PUSH2 0x729 JUMPI PUSH1 0x0 DUP1 REVERT JUMPDEST DUP2 ADD SWAP1 PUSH1 0x20 DUP2 ADD DUP2 CALLDATALOAD PUSH5 0x100000000 DUP2 GT ISZERO PUSH2 0x744 JUMPI PUSH1 0x0 DUP1 REVERT JUMPDEST DUP3 ADD DUP4 PUSH1 0x20 DUP3 ADD GT ISZERO PUSH2 0x756 JUMPI PUSH1 0x0 DUP1 REVERT JUMPDEST DUP1 CALLDATALOAD SWAP1 PUSH1 0x20 ADD SWAP2 DUP5 PUSH1 0x1 DUP4 MUL DUP5 ADD GT PUSH5 0x100000000 DUP4 GT OR ISZERO PUSH2 0x778 JUMPI PUSH1 0x0 DUP1 REVERT JUMPDEST SWAP2 SWAP1 DUP1 DUP1 PUSH1 0x1F ADD PUSH1 0x20 DUP1 SWAP2 DIV MUL PUSH1 0x20 ADD PUSH1 0x40 MLOAD SWAP1 DUP2 ADD PUSH1 0x40 MSTORE DUP1 SWAP4 SWAP3 SWAP2 SWAP1 DUP2 DUP2 MSTORE PUSH1 0x20 ADD DUP4 DUP4 DUP1 DUP3 DUP5 CALLDATACOPY PUSH1 0x0 SWAP3 ADD SWAP2 SWAP1 SWAP2 MSTORE POP SWAP3 SWAP6 POP PUSH2 0x1724 SWAP5 POP POP POP POP POP JUMP JUMPDEST CALLVALUE DUP1 ISZERO PUSH2 0x7C5 JUMPI PUSH1 0x0 DUP1 REVERT JUMPDEST POP PUSH2 0x38E PUSH1 0x4 DUP1 CALLDATASIZE SUB PUSH1 0x20 DUP2 LT ISZERO PUSH2 0x7DC JUMPI PUSH1 0x0 DUP1 REVERT JUMPDEST DUP2 ADD SWAP1 PUSH1 0x20 DUP2 ADD DUP2 CALLDATALOAD PUSH5 0x100000000 DUP2 GT ISZERO PUSH2 0x7F7 JUMPI PUSH1 0x0 DUP1 REVERT JUMPDEST DUP3 ADD DUP4 PUSH1 0x20 DUP3 ADD GT ISZERO PUSH2 0x809 JUMPI PUSH1 0x0 DUP1 REVERT JUMPDEST DUP1 CALLDATALOAD SWAP1 PUSH1 0x20 ADD SWAP2 DUP5 PUSH1 0x1 DUP4 MUL DUP5 ADD GT PUSH5 0x100000000 DUP4 GT OR ISZERO PUSH2 0x82B JUMPI PUSH1 0x0 DUP1 REVERT JUMPDEST SWAP2 SWAP1 DUP1 DUP1 PUSH1 0x1F ADD PUSH1 0x20 DUP1 SWAP2 DIV MUL PUSH1 0x20 ADD PUSH1 0x40 MLOAD SWAP1 DUP2 ADD PUSH1 0x40 MSTORE DUP1 SWAP4 SWAP3 SWAP2 SWAP1 DUP2 DUP2 MSTORE PUSH1 0x20 ADD DUP4 DUP4 DUP1 DUP3 DUP5 CALLDATACOPY PUSH1 0x0 SWAP3 ADD SWAP2 SWAP1 SWAP2 MSTORE POP SWAP3 SWAP6 POP PUSH2 0x17AC SWAP5 POP POP POP POP POP JUMP JUMPDEST CALLVALUE DUP1 ISZERO PUSH2 0x878 JUMPI PUSH1 0x0 DUP1 REVERT JUMPDEST POP PUSH2 0x377 PUSH1 0x4 DUP1 CALLDATASIZE SUB PUSH1 0x40 DUP2 LT ISZERO PUSH2 0x88F JUMPI PUSH1 0x0 DUP1 REVERT JUMPDEST PUSH1 0x1 PUSH1 0xA0 PUSH1 0x2 EXP SUB DUP3 CALLDATALOAD AND SWAP2 SWAP1 DUP2 ADD SWAP1 PUSH1 0x40 DUP2 ADD PUSH1 0x20 DUP3 ADD CALLDATALOAD PUSH5 0x100000000 DUP2 GT ISZERO PUSH2 0x8BA JUMPI PUSH1 0x0 DUP1 REVERT JUMPDEST DUP3 ADD DUP4 PUSH1 0x20 DUP3 ADD GT ISZERO PUSH2 0x8CC JUMPI PUSH1 0x0 DUP1 REVERT JUMPDEST DUP1 CALLDATALOAD SWAP1 PUSH1 0x20 ADD SWAP2 DUP5 PUSH1 0x1 DUP4 MUL DUP5 ADD GT PUSH5 0x100000000 DUP4 GT OR ISZERO PUSH2 0x8EE JUMPI PUSH1 0x0 DUP1 REVERT JUMPDEST SWAP2 SWAP1 DUP1 DUP1 PUSH1 0x1F ADD PUSH1 0x20 DUP1 SWAP2 DIV MUL PUSH1 0x20 ADD PUSH1 0x40 MLOAD SWAP1 DUP2 ADD PUSH1 0x40 MSTORE DUP1 SWAP4 SWAP3 SWAP2 SWAP1 DUP2 DUP2 MSTORE PUSH1 0x20 ADD DUP4 DUP4 DUP1 DUP3 DUP5 CALLDATACOPY PUSH1 0x0 SWAP3 ADD SWAP2 SWAP1 SWAP2 MSTORE POP SWAP3 SWAP6 POP PUSH2 0x182C SWAP5 POP POP POP POP POP JUMP JUMPDEST CALLVALUE DUP1 ISZERO PUSH2 0x93B JUMPI PUSH1 0x0 DUP1 REVERT JUMPDEST POP PUSH2 0x959 PUSH1 0x4 DUP1 CALLDATASIZE SUB PUSH1 0x20 DUP2 LT ISZERO PUSH2 0x952 JUMPI PUSH1 0x0 DUP1 REVERT JUMPDEST POP CALLDATALOAD PUSH2 0x19D7 JUMP JUMPDEST PUSH1 0x40 MLOAD DUP1 DUP4 PUSH1 0x1 PUSH1 0xA0 PUSH1 0x2 EXP SUB AND PUSH1 0x1 PUSH1 0xA0 PUSH1 0x2 EXP SUB AND DUP2 MSTORE PUSH1 0x20 ADD DUP1 PUSH1 0x20 ADD DUP3 DUP2 SUB DUP3 MSTORE DUP4 DUP2 DUP2 MLOAD DUP2 MSTORE PUSH1 0x20 ADD SWAP2 POP DUP1 MLOAD SWAP1 PUSH1 0x20 ADD SWAP1 DUP1 DUP4 DUP4 PUSH1 0x0 DUP4 DUP2 LT ISZERO PUSH2 0x2EA JUMPI DUP2 DUP2 ADD MLOAD DUP4 DUP3 ADD MSTORE PUSH1 0x20 ADD PUSH2 0x2D2 JUMP JUMPDEST CALLVALUE DUP1 ISZERO PUSH2 0x9B9 JUMPI PUSH1 0x0 DUP1 REVERT JUMPDEST POP PUSH2 0x377 PUSH1 0x4 DUP1 CALLDATASIZE SUB PUSH1 0x40 DUP2 LT ISZERO PUSH2 0x9D0 JUMPI PUSH1 0x0 DUP1 REVERT JUMPDEST POP DUP1 CALLDATALOAD SWAP1 PUSH1 0x20 ADD CALLDATALOAD PUSH2 0x1A6A JUMP JUMPDEST CALLVALUE DUP1 ISZERO PUSH2 0x9E9 JUMPI PUSH1 0x0 DUP1 REVERT JUMPDEST POP PUSH2 0x377 PUSH1 0x4 DUP1 CALLDATASIZE SUB PUSH1 0x20 DUP2 LT ISZERO PUSH2 0xA00 JUMPI PUSH1 0x0 DUP1 REVERT JUMPDEST POP CALLDATALOAD PUSH1 0x1 PUSH1 0xA0 PUSH1 0x2 EXP SUB AND PUSH2 0x1BD6 JUMP JUMPDEST CALLVALUE DUP1 ISZERO PUSH2 0xA1C JUMPI PUSH1 0x0 DUP1 REVERT JUMPDEST POP PUSH2 0x38E PUSH1 0x4 DUP1 CALLDATASIZE SUB PUSH1 0x20 DUP2 LT ISZERO PUSH2 0xA33 JUMPI PUSH1 0x0 DUP1 REVERT JUMPDEST DUP2 ADD SWAP1 PUSH1 0x20 DUP2 ADD DUP2 CALLDATALOAD PUSH5 0x100000000 DUP2 GT ISZERO PUSH2 0xA4E JUMPI PUSH1 0x0 DUP1 REVERT JUMPDEST DUP3 ADD DUP4 PUSH1 0x20 DUP3 ADD GT ISZERO PUSH2 0xA60 JUMPI PUSH1 0x0 DUP1 REVERT JUMPDEST DUP1 CALLDATALOAD SWAP1 PUSH1 0x20 ADD SWAP2 DUP5 PUSH1 0x1 DUP4 MUL DUP5 ADD GT PUSH5 0x100000000 DUP4 GT OR ISZERO PUSH2 0xA82 JUMPI PUSH1 0x0 DUP1 REVERT JUMPDEST SWAP2 SWAP1 DUP1 DUP1 PUSH1 0x1F ADD PUSH1 0x20 DUP1 SWAP2 DIV MUL PUSH1 0x20 ADD PUSH1 0x40 MLOAD SWAP1 DUP2 ADD PUSH1 0x40 MSTORE DUP1 SWAP4 SWAP3 SWAP2 SWAP1 DUP2 DUP2 MSTORE PUSH1 0x20 ADD DUP4 DUP4 DUP1 DUP3 DUP5 CALLDATACOPY PUSH1 0x0 SWAP3 ADD SWAP2 SWAP1 SWAP2 MSTORE POP SWAP3 SWAP6 POP PUSH2 0x1D1E SWAP5 POP POP POP POP POP JUMP JUMPDEST CALLVALUE DUP1 ISZERO PUSH2 0xACF JUMPI PUSH1 0x0 DUP1 REVERT JUMPDEST POP PUSH2 0x377 PUSH1 0x4 DUP1 CALLDATASIZE SUB PUSH1 0x20 DUP2 LT ISZERO PUSH2 0xAE6 JUMPI PUSH1 0x0 DUP1 REVERT JUMPDEST POP CALLDATALOAD PUSH1 0x1 PUSH1 0xA0 PUSH1 0x2 EXP SUB AND PUSH2 0x1D9E JUMP JUMPDEST CALLVALUE DUP1 ISZERO PUSH2 0xB02 JUMPI PUSH1 0x0 DUP1 REVERT JUMPDEST POP PUSH2 0x489 PUSH2 0x1DBD JUMP JUMPDEST PUSH1 0x0 DUP1 PUSH1 0x60 PUSH1 0x0 PUSH2 0xB90 PUSH2 0xB1E DUP7 PUSH2 0x1DCC JUMP JUMPDEST PUSH1 0x40 MLOAD PUSH1 0x20 ADD DUP1 DUP3 DUP1 MLOAD SWAP1 PUSH1 0x20 ADD SWAP1 DUP1 DUP4 DUP4 JUMPDEST PUSH1 0x20 DUP4 LT PUSH2 0xB50 JUMPI DUP1 MLOAD DUP3 MSTORE PUSH1 0x1F NOT SWAP1 SWAP3 ADD SWAP2 PUSH1 0x20 SWAP2 DUP3 ADD SWAP2 ADD PUSH2 0xB31 JUMP JUMPDEST PUSH1 0x1 DUP4 PUSH1 0x20 SUB PUSH2 0x100 EXP SUB DUP1 NOT DUP3 MLOAD AND DUP2 DUP5 MLOAD AND DUP1 DUP3 OR DUP6 MSTORE POP POP POP POP POP POP SWAP1 POP ADD SWAP2 POP POP PUSH1 0x40 MLOAD PUSH1 0x20 DUP2 DUP4 SUB SUB DUP2 MSTORE SWAP1 PUSH1 0x40 MSTORE DUP1 MLOAD SWAP1 PUSH1 0x20 ADD KECCAK256 PUSH2 0x1E51 JUMP JUMPDEST DUP1 SLOAD PUSH1 0x1 DUP1 DUP4 ADD SLOAD PUSH1 0x2 DUP1 DUP6 ADD DUP1 SLOAD PUSH1 0x40 DUP1 MLOAD PUSH1 0x20 PUSH2 0x100 SWAP8 DUP5 AND ISZERO SWAP8 SWAP1 SWAP8 MUL PUSH1 0x0 NOT ADD SWAP1 SWAP3 AND SWAP4 SWAP1 SWAP4 DIV PUSH1 0x1F DUP2 ADD DUP7 SWAP1 DIV DUP7 MUL DUP3 ADD DUP7 ADD SWAP1 SWAP4 MSTORE DUP3 DUP2 MSTORE SWAP6 SWAP7 POP SWAP4 SWAP5 PUSH1 0x1 PUSH1 0xA0 PUSH1 0x2 EXP SUB SWAP1 SWAP3 AND SWAP4 SWAP3 DUP4 SWAP2 SWAP1 DUP4 ADD DUP3 DUP3 DUP1 ISZERO PUSH2 0xC34 JUMPI DUP1 PUSH1 0x1F LT PUSH2 0xC09 JUMPI PUSH2 0x100 DUP1 DUP4 SLOAD DIV MUL DUP4 MSTORE SWAP2 PUSH1 0x20 ADD SWAP2 PUSH2 0xC34 JUMP JUMPDEST DUP3 ADD SWAP2 SWAP1 PUSH1 0x0 MSTORE PUSH1 0x20 PUSH1 0x0 KECCAK256 SWAP1 JUMPDEST DUP2 SLOAD DUP2 MSTORE SWAP1 PUSH1 0x1 ADD SWAP1 PUSH1 0x20 ADD DUP1 DUP4 GT PUSH2 0xC17 JUMPI DUP3 SWAP1 SUB PUSH1 0x1F AND DUP3 ADD SWAP2 JUMPDEST POP POP POP POP POP SWAP1 POP SWAP4 POP SWAP4 POP SWAP4 POP POP SWAP2 SWAP4 SWAP1 SWAP3 POP JUMP JUMPDEST PUSH1 0x1 PUSH1 0xA0 PUSH1 0x2 EXP SUB DUP2 AND PUSH1 0x0 SWAP1 DUP2 MSTORE PUSH1 0xB PUSH1 0x20 MSTORE PUSH1 0x40 DUP2 KECCAK256 SLOAD PUSH1 0x60 SWAP1 DUP3 SWAP1 PUSH2 0xC70 SWAP1 PUSH2 0x1E51 JUMP JUMPDEST DUP1 SLOAD PUSH1 0x2 DUP1 DUP4 ADD DUP1 SLOAD PUSH1 0x40 DUP1 MLOAD PUSH1 0x20 PUSH1 0x1 DUP5 AND ISZERO PUSH2 0x100 MUL PUSH1 0x0 NOT ADD SWAP1 SWAP4 AND SWAP5 SWAP1 SWAP5 DIV PUSH1 0x1F DUP2 ADD DUP4 SWAP1 DIV DUP4 MUL DUP6 ADD DUP4 ADD SWAP1 SWAP2 MSTORE DUP1 DUP5 MSTORE SWAP5 SWAP6 POP SWAP3 SWAP4 SWAP1 SWAP3 DUP4 SWAP2 SWAP1 DUP4 ADD DUP3 DUP3 DUP1 ISZERO PUSH2 0xD01 JUMPI DUP1 PUSH1 0x1F LT PUSH2 0xCD6 JUMPI PUSH2 0x100 DUP1 DUP4 SLOAD DIV MUL DUP4 MSTORE SWAP2 PUSH1 0x20 ADD SWAP2 PUSH2 0xD01 JUMP JUMPDEST DUP3 ADD SWAP2 SWAP1 PUSH1 0x0 MSTORE PUSH1 0x20 PUSH1 0x0 KECCAK256 SWAP1 JUMPDEST DUP2 SLOAD DUP2 MSTORE SWAP1 PUSH1 0x1 ADD SWAP1 PUSH1 0x20 ADD DUP1 DUP4 GT PUSH2 0xCE4 JUMPI DUP3 SWAP1 SUB PUSH1 0x1F AND DUP3 ADD SWAP2 JUMPDEST POP POP POP POP POP SWAP1 POP SWAP3 POP SWAP3 POP POP SWAP2 POP SWAP2 JUMP JUMPDEST PUSH1 0x7 SLOAD DUP2 JUMP JUMPDEST PUSH1 0x8 SLOAD DUP2 JUMP JUMPDEST PUSH2 0xD26 PUSH2 0xEE8 JUMP JUMPDEST ISZERO ISZERO PUSH2 0xD31 JUMPI PUSH1 0x0 DUP1 REVERT JUMPDEST PUSH1 0x0 DUP1 SLOAD PUSH1 0x40 MLOAD PUSH1 0x1 PUSH1 0xA0 PUSH1 0x2 EXP SUB SWAP1 SWAP2 AND SWAP1 PUSH32 0x8BE0079C531659141344CD1FD0A4F28419497F9722A3DAAFE3B4186F6B6457E0 SWAP1 DUP4 SWAP1 LOG3 PUSH1 0x0 DUP1 SLOAD PUSH1 0x1 PUSH1 0xA0 PUSH1 0x2 EXP SUB NOT AND SWAP1 SSTORE JUMP JUMPDEST PUSH1 0x3 SLOAD PUSH21 0x10000000000000000000000000000000000000000 SWAP1 DIV PUSH1 0xFF AND DUP2 JUMP JUMPDEST PUSH1 0x2 DUP1 SLOAD PUSH1 0x40 DUP1 MLOAD PUSH1 0x20 PUSH1 0x1 DUP5 AND ISZERO PUSH2 0x100 MUL PUSH1 0x0 NOT ADD SWAP1 SWAP4 AND DUP5 SWAP1 DIV PUSH1 0x1F DUP2 ADD DUP5 SWAP1 DIV DUP5 MUL DUP3 ADD DUP5 ADD SWAP1 SWAP3 MSTORE DUP2 DUP2 MSTORE SWAP3 SWAP2 DUP4 ADD DUP3 DUP3 DUP1 ISZERO PUSH2 0xE1F JUMPI DUP1 PUSH1 0x1F LT PUSH2 0xDF4 JUMPI PUSH2 0x100 DUP1 DUP4 SLOAD DIV MUL DUP4 MSTORE SWAP2 PUSH1 0x20 ADD SWAP2 PUSH2 0xE1F JUMP JUMPDEST DUP3 ADD SWAP2 SWAP1 PUSH1 0x0 MSTORE PUSH1 0x20 PUSH1 0x0 KECCAK256 SWAP1 JUMPDEST DUP2 SLOAD DUP2 MSTORE SWAP1 PUSH1 0x1 ADD SWAP1 PUSH1 0x20 ADD DUP1 DUP4 GT PUSH2 0xE02 JUMPI DUP3 SWAP1 SUB PUSH1 0x1F AND DUP3 ADD SWAP2 JUMPDEST POP POP POP POP POP DUP2 JUMP JUMPDEST PUSH2 0xE2F PUSH2 0xEE8 JUMP JUMPDEST ISZERO ISZERO PUSH2 0xE3A JUMPI PUSH1 0x0 DUP1 REVERT JUMPDEST PUSH1 0x6 DUP1 SLOAD PUSH1 0x1 PUSH1 0xA0 PUSH1 0x2 EXP SUB NOT AND PUSH1 0x1 PUSH1 0xA0 PUSH1 0x2 EXP SUB SWAP3 SWAP1 SWAP3 AND SWAP2 SWAP1 SWAP2 OR SWAP1 SSTORE JUMP JUMPDEST PUSH1 0x1 DUP1 SLOAD PUSH1 0x40 DUP1 MLOAD PUSH1 0x20 PUSH1 0x2 DUP5 DUP7 AND ISZERO PUSH2 0x100 MUL PUSH1 0x0 NOT ADD SWAP1 SWAP5 AND SWAP4 SWAP1 SWAP4 DIV PUSH1 0x1F DUP2 ADD DUP5 SWAP1 DIV DUP5 MUL DUP3 ADD DUP5 ADD SWAP1 SWAP3 MSTORE DUP2 DUP2 MSTORE SWAP3 SWAP2 DUP4 ADD DUP3 DUP3 DUP1 ISZERO PUSH2 0xE1F JUMPI DUP1 PUSH1 0x1F LT PUSH2 0xDF4 JUMPI PUSH2 0x100 DUP1 DUP4 SLOAD DIV MUL DUP4 MSTORE SWAP2 PUSH1 0x20 ADD SWAP2 PUSH2 0xE1F JUMP JUMPDEST PUSH1 0x0 SLOAD PUSH1 0x1 PUSH1 0xA0 PUSH1 0x2 EXP SUB AND JUMPDEST SWAP1 JUMP JUMPDEST PUSH1 0x3 SLOAD PUSH22 0x1000000000000000000000000000000000000000000 SWAP1 DIV PUSH1 0xFF AND DUP2 JUMP JUMPDEST PUSH1 0x0 SLOAD PUSH1 0x1 PUSH1 0xA0 PUSH1 0x2 EXP SUB AND CALLER EQ SWAP1 JUMP JUMPDEST PUSH1 0x3 SLOAD PUSH1 0x0 SWAP1 PUSH1 0x1 PUSH1 0xA0 PUSH1 0x2 EXP SUB AND CALLER EQ PUSH2 0xF84 JUMPI PUSH1 0x40 DUP1 MLOAD PUSH1 0xE5 PUSH1 0x2 EXP PUSH3 0x461BCD MUL DUP2 MSTORE PUSH1 0x20 PUSH1 0x4 DUP3 ADD MSTORE PUSH1 0x21 PUSH1 0x24 DUP3 ADD MSTORE PUSH32 0x446964206E6F74206F726967696E6174652066726F6D20536E6F77666C616B65 PUSH1 0x44 DUP3 ADD MSTORE PUSH32 0x2E00000000000000000000000000000000000000000000000000000000000000 PUSH1 0x64 DUP3 ADD MSTORE SWAP1 MLOAD SWAP1 DUP2 SWAP1 SUB PUSH1 0x84 ADD SWAP1 REVERT JUMPDEST PUSH1 0x8 SLOAD PUSH1 0x4 DUP1 SLOAD PUSH1 0x40 DUP1 MLOAD PUSH32 0x70A0823100000000000000000000000000000000000000000000000000000000 DUP2 MSTORE ORIGIN SWAP4 DUP2 ADD DUP5 SWAP1 MSTORE SWAP1 MLOAD SWAP3 SWAP4 SWAP3 DUP4 SWAP3 PUSH1 0x1 PUSH1 0xA0 PUSH1 0x2 EXP SUB AND SWAP2 PUSH4 0x70A08231 SWAP2 PUSH1 0x24 DUP1 DUP4 ADD SWAP3 PUSH1 0x20 SWAP3 SWAP2 SWAP1 DUP3 SWAP1 SUB ADD DUP2 DUP7 DUP1 EXTCODESIZE ISZERO DUP1 ISZERO PUSH2 0xFEF JUMPI PUSH1 0x0 DUP1 REVERT JUMPDEST POP GAS STATICCALL ISZERO DUP1 ISZERO PUSH2 0x1003 JUMPI RETURNDATASIZE PUSH1 0x0 DUP1 RETURNDATACOPY RETURNDATASIZE PUSH1 0x0 REVERT JUMPDEST POP POP POP POP PUSH1 0x40 MLOAD RETURNDATASIZE PUSH1 0x20 DUP2 LT ISZERO PUSH2 0x1019 JUMPI PUSH1 0x0 DUP1 REVERT JUMPDEST POP MLOAD LT ISZERO PUSH2 0x1097 JUMPI PUSH1 0x40 DUP1 MLOAD PUSH1 0xE5 PUSH1 0x2 EXP PUSH3 0x461BCD MUL DUP2 MSTORE PUSH1 0x20 PUSH1 0x4 DUP3 ADD MSTORE PUSH1 0x22 PUSH1 0x24 DUP3 ADD MSTORE PUSH32 0x496E73756666696369656E74207374616B656420485944524F2062616C616E63 PUSH1 0x44 DUP3 ADD MSTORE PUSH32 0x652E000000000000000000000000000000000000000000000000000000000000 PUSH1 0x64 DUP3 ADD MSTORE SWAP1 MLOAD SWAP1 DUP2 SWAP1 SUB PUSH1 0x84 ADD SWAP1 REVERT JUMPDEST PUSH1 0x0 PUSH1 0x60 DUP6 DUP1 PUSH1 0x20 ADD SWAP1 MLOAD PUSH1 0x40 DUP2 LT ISZERO PUSH2 0x10B0 JUMPI PUSH1 0x0 DUP1 REVERT JUMPDEST DUP2 MLOAD PUSH1 0x20 DUP4 ADD DUP1 MLOAD SWAP2 SWAP4 SWAP3 DUP4 ADD SWAP3 SWAP2 PUSH5 0x100000000 DUP2 GT ISZERO PUSH2 0x10D1 JUMPI PUSH1 0x0 DUP1 REVERT JUMPDEST DUP3 ADD PUSH1 0x20 DUP2 ADD DUP5 DUP2 GT ISZERO PUSH2 0x10E4 JUMPI PUSH1 0x0 DUP1 REVERT JUMPDEST DUP2 MLOAD PUSH5 0x100000000 DUP2 GT DUP3 DUP3 ADD DUP8 LT OR ISZERO PUSH2 0x10FE JUMPI PUSH1 0x0 DUP1 REVERT JUMPDEST POP POP SWAP3 SWAP2 SWAP1 POP POP POP SWAP2 POP SWAP2 POP PUSH1 0x5 PUSH1 0x0 SWAP1 SLOAD SWAP1 PUSH2 0x100 EXP SWAP1 DIV PUSH1 0x1 PUSH1 0xA0 PUSH1 0x2 EXP SUB AND PUSH1 0x1 PUSH1 0xA0 PUSH1 0x2 EXP SUB AND PUSH4 0x53A9698A DUP10 CALLER PUSH1 0x40 MLOAD DUP4 PUSH4 0xFFFFFFFF AND PUSH1 0xE0 PUSH1 0x2 EXP MUL DUP2 MSTORE PUSH1 0x4 ADD DUP1 DUP4 DUP2 MSTORE PUSH1 0x20 ADD DUP3 PUSH1 0x1 PUSH1 0xA0 PUSH1 0x2 EXP SUB AND PUSH1 0x1 PUSH1 0xA0 PUSH1 0x2 EXP SUB AND DUP2 MSTORE PUSH1 0x20 ADD SWAP3 POP POP POP PUSH1 0x20 PUSH1 0x40 MLOAD DUP1 DUP4 SUB DUP2 DUP7 DUP1 EXTCODESIZE ISZERO DUP1 ISZERO PUSH2 0x1180 JUMPI PUSH1 0x0 DUP1 REVERT JUMPDEST POP GAS STATICCALL ISZERO DUP1 ISZERO PUSH2 0x1194 JUMPI RETURNDATASIZE PUSH1 0x0 DUP1 RETURNDATACOPY RETURNDATASIZE PUSH1 0x0 REVERT JUMPDEST POP POP POP POP PUSH1 0x40 MLOAD RETURNDATASIZE PUSH1 0x20 DUP2 LT ISZERO PUSH2 0x11AA JUMPI PUSH1 0x0 DUP1 REVERT JUMPDEST POP MLOAD ISZERO ISZERO PUSH2 0x1228 JUMPI PUSH1 0x40 DUP1 MLOAD PUSH1 0xE5 PUSH1 0x2 EXP PUSH3 0x461BCD MUL DUP2 MSTORE PUSH1 0x20 PUSH1 0x4 DUP3 ADD MSTORE PUSH1 0x2F PUSH1 0x24 DUP3 ADD MSTORE PUSH32 0x536E6F77666C616B65206973206E6F7420612050726F766964657220666F7220 PUSH1 0x44 DUP3 ADD MSTORE PUSH32 0x746865207061737365642045494E2E0000000000000000000000000000000000 PUSH1 0x64 DUP3 ADD MSTORE SWAP1 MLOAD SWAP1 DUP2 SWAP1 SUB PUSH1 0x84 ADD SWAP1 REVERT JUMPDEST PUSH2 0x1233 DUP9 DUP3 DUP5 PUSH2 0x1EC4 JUMP JUMPDEST POP PUSH1 0x1 SWAP8 SWAP7 POP POP POP POP POP POP POP JUMP JUMPDEST PUSH1 0x3 SLOAD PUSH1 0x0 SWAP1 PUSH1 0x1 PUSH1 0xA0 PUSH1 0x2 EXP SUB AND CALLER EQ PUSH2 0x12CC JUMPI PUSH1 0x40 DUP1 MLOAD PUSH1 0xE5 PUSH1 0x2 EXP PUSH3 0x461BCD MUL DUP2 MSTORE PUSH1 0x20 PUSH1 0x4 DUP3 ADD MSTORE PUSH1 0x21 PUSH1 0x24 DUP3 ADD MSTORE PUSH32 0x446964206E6F74206F726967696E6174652066726F6D20536E6F77666C616B65 PUSH1 0x44 DUP3 ADD MSTORE PUSH32 0x2E00000000000000000000000000000000000000000000000000000000000000 PUSH1 0x64 DUP3 ADD MSTORE SWAP1 MLOAD SWAP1 DUP2 SWAP1 SUB PUSH1 0x84 ADD SWAP1 REVERT JUMPDEST PUSH1 0x0 DUP4 DUP2 MSTORE PUSH1 0xA PUSH1 0x20 MSTORE PUSH1 0x40 SWAP1 KECCAK256 SLOAD PUSH2 0x12E4 DUP2 PUSH2 0x24F0 JUMP JUMPDEST ISZERO ISZERO PUSH2 0x12EC JUMPI INVALID JUMPDEST PUSH1 0x0 DUP2 DUP2 MSTORE PUSH1 0x9 PUSH1 0x20 SWAP1 DUP2 MSTORE PUSH1 0x40 SWAP2 DUP3 SWAP1 KECCAK256 PUSH1 0x1 DUP1 DUP3 ADD SLOAD DUP5 MLOAD PUSH1 0x1 PUSH1 0xA0 PUSH1 0x2 EXP SUB SWAP1 SWAP2 AND SWAP4 DUP2 ADD DUP5 SWAP1 MSTORE DUP5 DUP2 MSTORE PUSH1 0x2 SWAP3 DUP4 ADD DUP1 SLOAD PUSH1 0x0 NOT SWAP4 DUP2 AND ISZERO PUSH2 0x100 MUL SWAP4 SWAP1 SWAP4 ADD SWAP1 SWAP3 AND SWAP3 SWAP1 SWAP3 DIV SWAP4 DUP3 ADD DUP5 SWAP1 MSTORE DUP8 SWAP4 PUSH32 0xDC4955845BEE1C570FEB327EB524548814E95ACB6F1D1E6F60D55EEAD530339D SWAP4 SWAP2 SWAP3 SWAP1 DUP2 SWAP1 PUSH1 0x60 DUP3 ADD SWAP1 DUP6 SWAP1 DUP1 ISZERO PUSH2 0x13BA JUMPI DUP1 PUSH1 0x1F LT PUSH2 0x138F JUMPI PUSH2 0x100 DUP1 DUP4 SLOAD DIV MUL DUP4 MSTORE SWAP2 PUSH1 0x20 ADD SWAP2 PUSH2 0x13BA JUMP JUMPDEST DUP3 ADD SWAP2 SWAP1 PUSH1 0x0 MSTORE PUSH1 0x20 PUSH1 0x0 KECCAK256 SWAP1 JUMPDEST DUP2 SLOAD DUP2 MSTORE SWAP1 PUSH1 0x1 ADD SWAP1 PUSH1 0x20 ADD DUP1 DUP4 GT PUSH2 0x139D JUMPI DUP3 SWAP1 SUB PUSH1 0x1F AND DUP3 ADD SWAP2 JUMPDEST POP POP SWAP4 POP POP POP POP PUSH1 0x40 MLOAD DUP1 SWAP2 SUB SWAP1 LOG2 PUSH1 0x0 DUP2 DUP2 MSTORE PUSH1 0x9 PUSH1 0x20 DUP2 DUP2 MSTORE PUSH1 0x40 DUP1 DUP5 KECCAK256 PUSH1 0x1 DUP2 ADD SLOAD PUSH1 0x1 PUSH1 0xA0 PUSH1 0x2 EXP SUB AND DUP6 MSTORE PUSH1 0xB DUP4 MSTORE DUP2 DUP6 KECCAK256 DUP6 SWAP1 SSTORE DUP9 DUP6 MSTORE PUSH1 0xA DUP4 MSTORE SWAP1 DUP5 KECCAK256 DUP5 SWAP1 SSTORE DUP5 DUP5 MSTORE SWAP2 SWAP1 MSTORE PUSH2 0x1416 SWAP2 PUSH1 0x2 SWAP1 SWAP2 ADD SWAP1 PUSH2 0x2779 JUMP JUMPDEST PUSH1 0x0 SWAP1 DUP2 MSTORE PUSH1 0x9 PUSH1 0x20 MSTORE PUSH1 0x40 SWAP1 KECCAK256 PUSH1 0x1 DUP1 DUP3 ADD DUP1 SLOAD PUSH1 0x1 PUSH1 0xA0 PUSH1 0x2 EXP SUB NOT AND SWAP1 SSTORE PUSH1 0x3 SWAP1 SWAP2 ADD DUP1 SLOAD PUSH2 0xFF00 NOT AND PUSH2 0x100 OR SWAP1 SSTORE SWAP1 POP SWAP3 SWAP2 POP POP JUMP JUMPDEST PUSH1 0x6 SLOAD PUSH1 0x40 MLOAD PUSH32 0xD35E656B00000000000000000000000000000000000000000000000000000000 DUP2 MSTORE PUSH1 0x20 PUSH1 0x4 DUP3 ADD DUP2 DUP2 MSTORE DUP6 MLOAD PUSH1 0x24 DUP5 ADD MSTORE DUP6 MLOAD PUSH1 0x0 SWAP5 PUSH1 0x1 PUSH1 0xA0 PUSH1 0x2 EXP SUB AND SWAP4 PUSH4 0xD35E656B SWAP4 DUP9 SWAP4 SWAP3 DUP4 SWAP3 PUSH1 0x44 ADD SWAP2 DUP6 ADD SWAP1 DUP1 DUP4 DUP4 DUP12 JUMPDEST DUP4 DUP2 LT ISZERO PUSH2 0x14C8 JUMPI DUP2 DUP2 ADD MLOAD DUP4 DUP3 ADD MSTORE PUSH1 0x20 ADD PUSH2 0x14B0 JUMP JUMPDEST POP POP POP POP SWAP1 POP SWAP1 DUP2 ADD SWAP1 PUSH1 0x1F AND DUP1 ISZERO PUSH2 0x14F5 JUMPI DUP1 DUP3 SUB DUP1 MLOAD PUSH1 0x1 DUP4 PUSH1 0x20 SUB PUSH2 0x100 EXP SUB NOT AND DUP2 MSTORE PUSH1 0x20 ADD SWAP2 POP JUMPDEST POP SWAP3 POP POP POP PUSH1 0x20 PUSH1 0x40 MLOAD DUP1 DUP4 SUB DUP2 DUP7 DUP1 EXTCODESIZE ISZERO DUP1 ISZERO PUSH2 0x1512 JUMPI PUSH1 0x0 DUP1 REVERT JUMPDEST POP GAS STATICCALL ISZERO DUP1 ISZERO PUSH2 0x1526 JUMPI RETURNDATASIZE PUSH1 0x0 DUP1 RETURNDATACOPY RETURNDATASIZE PUSH1 0x0 REVERT JUMPDEST POP POP POP POP PUSH1 0x40 MLOAD RETURNDATASIZE PUSH1 0x20 DUP2 LT ISZERO PUSH2 0x153C JUMPI PUSH1 0x0 DUP1 REVERT JUMPDEST POP MLOAD SWAP1 POP DUP1 ISZERO PUSH2 0x171F JUMPI PUSH1 0x6 SLOAD PUSH1 0x40 MLOAD PUSH32 0x4BFF500900000000000000000000000000000000000000000000000000000000 DUP2 MSTORE PUSH1 0x20 PUSH1 0x4 DUP3 ADD DUP2 DUP2 MSTORE DUP7 MLOAD PUSH1 0x24 DUP5 ADD MSTORE DUP7 MLOAD PUSH1 0x0 SWAP5 PUSH1 0x1 PUSH1 0xA0 PUSH1 0x2 EXP SUB AND SWAP4 PUSH4 0x4BFF5009 SWAP4 DUP10 SWAP4 SWAP3 DUP4 SWAP3 PUSH1 0x44 ADD SWAP2 DUP6 ADD SWAP1 DUP1 DUP4 DUP4 DUP12 JUMPDEST DUP4 DUP2 LT ISZERO PUSH2 0x15BD JUMPI DUP2 DUP2 ADD MLOAD DUP4 DUP3 ADD MSTORE PUSH1 0x20 ADD PUSH2 0x15A5 JUMP JUMPDEST POP POP POP POP SWAP1 POP SWAP1 DUP2 ADD SWAP1 PUSH1 0x1F AND DUP1 ISZERO PUSH2 0x15EA JUMPI DUP1 DUP3 SUB DUP1 MLOAD PUSH1 0x1 DUP4 PUSH1 0x20 SUB PUSH2 0x100 EXP SUB NOT AND DUP2 MSTORE PUSH1 0x20 ADD SWAP2 POP JUMPDEST POP SWAP3 POP POP POP PUSH1 0x0 PUSH1 0x40 MLOAD DUP1 DUP4 SUB DUP2 DUP7 DUP1 EXTCODESIZE ISZERO DUP1 ISZERO PUSH2 0x1607 JUMPI PUSH1 0x0 DUP1 REVERT JUMPDEST POP GAS STATICCALL ISZERO DUP1 ISZERO PUSH2 0x161B JUMPI RETURNDATASIZE PUSH1 0x0 DUP1 RETURNDATACOPY RETURNDATASIZE PUSH1 0x0 REVERT JUMPDEST POP POP POP POP PUSH1 0x40 MLOAD RETURNDATASIZE PUSH1 0x0 DUP3 RETURNDATACOPY PUSH1 0x1F RETURNDATASIZE SWAP1 DUP2 ADD PUSH1 0x1F NOT AND DUP3 ADD PUSH1 0x40 SWAP1 DUP2 MSTORE DUP2 LT ISZERO PUSH2 0x1644 JUMPI PUSH1 0x0 DUP1 REVERT JUMPDEST DUP2 ADD SWAP1 DUP1 DUP1 MLOAD PUSH5 0x100000000 DUP2 GT ISZERO PUSH2 0x165C JUMPI PUSH1 0x0 DUP1 REVERT JUMPDEST DUP3 ADD PUSH1 0x20 DUP2 ADD DUP5 DUP2 GT ISZERO PUSH2 0x166F JUMPI PUSH1 0x0 DUP1 REVERT JUMPDEST DUP2 MLOAD PUSH5 0x100000000 DUP2 GT DUP3 DUP3 ADD DUP8 LT OR ISZERO PUSH2 0x1689 JUMPI PUSH1 0x0 DUP1 REVERT JUMPDEST POP POP POP PUSH1 0x20 ADD MLOAD SWAP3 POP POP POP PUSH1 0x1 PUSH1 0xA0 PUSH1 0x2 EXP SUB DUP4 DUP2 AND SWAP1 DUP3 AND EQ PUSH2 0x171D JUMPI PUSH1 0x40 DUP1 MLOAD PUSH1 0xE5 PUSH1 0x2 EXP PUSH3 0x461BCD MUL DUP2 MSTORE PUSH1 0x20 PUSH1 0x4 DUP3 ADD MSTORE PUSH1 0x34 PUSH1 0x24 DUP3 ADD MSTORE PUSH32 0x5468697320487964726F20494420697320616C726561647920636C61696D6564 PUSH1 0x44 DUP3 ADD MSTORE PUSH32 0x20627920616E6F7468657220616464726573732E000000000000000000000000 PUSH1 0x64 DUP3 ADD MSTORE SWAP1 MLOAD SWAP1 DUP2 SWAP1 SUB PUSH1 0x84 ADD SWAP1 REVERT JUMPDEST POP JUMPDEST POP POP POP JUMP JUMPDEST PUSH1 0x0 PUSH2 0x17A4 PUSH2 0x1732 DUP4 PUSH2 0x1DCC JUMP JUMPDEST PUSH1 0x40 MLOAD PUSH1 0x20 ADD DUP1 DUP3 DUP1 MLOAD SWAP1 PUSH1 0x20 ADD SWAP1 DUP1 DUP4 DUP4 JUMPDEST PUSH1 0x20 DUP4 LT PUSH2 0x1764 JUMPI DUP1 MLOAD DUP3 MSTORE PUSH1 0x1F NOT SWAP1 SWAP3 ADD SWAP2 PUSH1 0x20 SWAP2 DUP3 ADD SWAP2 ADD PUSH2 0x1745 JUMP JUMPDEST PUSH1 0x1 DUP4 PUSH1 0x20 SUB PUSH2 0x100 EXP SUB DUP1 NOT DUP3 MLOAD AND DUP2 DUP5 MLOAD AND DUP1 DUP3 OR DUP6 MSTORE POP POP POP POP POP POP SWAP1 POP ADD SWAP2 POP POP PUSH1 0x40 MLOAD PUSH1 0x20 DUP2 DUP4 SUB SUB DUP2 MSTORE SWAP1 PUSH1 0x40 MSTORE DUP1 MLOAD SWAP1 PUSH1 0x20 ADD KECCAK256 PUSH2 0x24F0 JUMP JUMPDEST SWAP1 POP JUMPDEST SWAP2 SWAP1 POP JUMP JUMPDEST PUSH1 0x0 PUSH2 0x17A4 PUSH2 0x17BA DUP4 PUSH2 0x1DCC JUMP JUMPDEST PUSH1 0x40 MLOAD PUSH1 0x20 ADD DUP1 DUP3 DUP1 MLOAD SWAP1 PUSH1 0x20 ADD SWAP1 DUP1 DUP4 DUP4 JUMPDEST PUSH1 0x20 DUP4 LT PUSH2 0x17EC JUMPI DUP1 MLOAD DUP3 MSTORE PUSH1 0x1F NOT SWAP1 SWAP3 ADD SWAP2 PUSH1 0x20 SWAP2 DUP3 ADD SWAP2 ADD PUSH2 0x17CD JUMP JUMPDEST PUSH1 0x1 DUP4 PUSH1 0x20 SUB PUSH2 0x100 EXP SUB DUP1 NOT DUP3 MLOAD AND DUP2 DUP5 MLOAD AND DUP1 DUP3 OR DUP6 MSTORE POP POP POP POP POP POP SWAP1 POP ADD SWAP2 POP POP PUSH1 0x40 MLOAD PUSH1 0x20 DUP2 DUP4 SUB SUB DUP2 MSTORE SWAP1 PUSH1 0x40 MSTORE DUP1 MLOAD SWAP1 PUSH1 0x20 ADD KECCAK256 PUSH2 0x2513 JUMP JUMPDEST PUSH1 0x7 SLOAD PUSH1 0x4 DUP1 SLOAD PUSH1 0x40 DUP1 MLOAD PUSH32 0x70A0823100000000000000000000000000000000000000000000000000000000 DUP2 MSTORE CALLER SWAP4 DUP2 ADD DUP5 SWAP1 MSTORE SWAP1 MLOAD SWAP3 SWAP4 SWAP3 DUP4 SWAP3 PUSH1 0x1 PUSH1 0xA0 PUSH1 0x2 EXP SUB AND SWAP2 PUSH4 0x70A08231 SWAP2 PUSH1 0x24 DUP1 DUP4 ADD SWAP3 PUSH1 0x20 SWAP3 SWAP2 SWAP1 DUP3 SWAP1 SUB ADD DUP2 DUP7 DUP1 EXTCODESIZE ISZERO DUP1 ISZERO PUSH2 0x1897 JUMPI PUSH1 0x0 DUP1 REVERT JUMPDEST POP GAS STATICCALL ISZERO DUP1 ISZERO PUSH2 0x18AB JUMPI RETURNDATASIZE PUSH1 0x0 DUP1 RETURNDATACOPY RETURNDATASIZE PUSH1 0x0 REVERT JUMPDEST POP POP POP POP PUSH1 0x40 MLOAD RETURNDATASIZE PUSH1 0x20 DUP2 LT ISZERO PUSH2 0x18C1 JUMPI PUSH1 0x0 DUP1 REVERT JUMPDEST POP MLOAD LT ISZERO PUSH2 0x193F JUMPI PUSH1 0x40 DUP1 MLOAD PUSH1 0xE5 PUSH1 0x2 EXP PUSH3 0x461BCD MUL DUP2 MSTORE PUSH1 0x20 PUSH1 0x4 DUP3 ADD MSTORE PUSH1 0x22 PUSH1 0x24 DUP3 ADD MSTORE PUSH32 0x496E73756666696369656E74207374616B656420485944524F2062616C616E63 PUSH1 0x44 DUP3 ADD MSTORE PUSH32 0x652E000000000000000000000000000000000000000000000000000000000000 PUSH1 0x64 DUP3 ADD MSTORE SWAP1 MLOAD SWAP1 DUP2 SWAP1 SUB PUSH1 0x84 ADD SWAP1 REVERT JUMPDEST PUSH1 0x5 SLOAD PUSH1 0x40 DUP1 MLOAD PUSH32 0x5C62C2F00000000000000000000000000000000000000000000000000000000 DUP2 MSTORE CALLER PUSH1 0x4 DUP3 ADD MSTORE SWAP1 MLOAD PUSH2 0x171D SWAP3 PUSH1 0x1 PUSH1 0xA0 PUSH1 0x2 EXP SUB AND SWAP2 PUSH4 0x5C62C2F SWAP2 PUSH1 0x24 DUP1 DUP4 ADD SWAP3 PUSH1 0x20 SWAP3 SWAP2 SWAP1 DUP3 SWAP1 SUB ADD DUP2 DUP7 DUP1 EXTCODESIZE ISZERO DUP1 ISZERO PUSH2 0x19A4 JUMPI PUSH1 0x0 DUP1 REVERT JUMPDEST POP GAS STATICCALL ISZERO DUP1 ISZERO PUSH2 0x19B8 JUMPI RETURNDATASIZE PUSH1 0x0 DUP1 RETURNDATACOPY RETURNDATASIZE PUSH1 0x0 REVERT JUMPDEST POP POP POP POP PUSH1 0x40 MLOAD RETURNDATASIZE PUSH1 0x20 DUP2 LT ISZERO PUSH2 0x19CE JUMPI PUSH1 0x0 DUP1 REVERT JUMPDEST POP MLOAD DUP5 DUP7 PUSH2 0x1EC4 JUMP JUMPDEST PUSH1 0x0 DUP2 DUP2 MSTORE PUSH1 0xA PUSH1 0x20 MSTORE PUSH1 0x40 DUP2 KECCAK256 SLOAD PUSH1 0x60 SWAP1 DUP3 SWAP1 PUSH2 0x19F4 SWAP1 PUSH2 0x1E51 JUMP JUMPDEST PUSH1 0x1 DUP2 DUP2 ADD SLOAD PUSH1 0x2 DUP1 DUP5 ADD DUP1 SLOAD PUSH1 0x40 DUP1 MLOAD PUSH1 0x20 PUSH2 0x100 SWAP8 DUP5 AND ISZERO SWAP8 SWAP1 SWAP8 MUL PUSH1 0x0 NOT ADD SWAP1 SWAP3 AND SWAP4 SWAP1 SWAP4 DIV PUSH1 0x1F DUP2 ADD DUP7 SWAP1 DIV DUP7 MUL DUP3 ADD DUP7 ADD SWAP1 SWAP4 MSTORE DUP3 DUP2 MSTORE SWAP5 SWAP6 POP PUSH1 0x1 PUSH1 0xA0 PUSH1 0x2 EXP SUB SWAP1 SWAP3 AND SWAP4 SWAP2 SWAP3 DUP4 SWAP2 SWAP1 DUP4 ADD DUP3 DUP3 DUP1 ISZERO PUSH2 0xD01 JUMPI DUP1 PUSH1 0x1F LT PUSH2 0xCD6 JUMPI PUSH2 0x100 DUP1 DUP4 SLOAD DIV MUL DUP4 MSTORE SWAP2 PUSH1 0x20 ADD SWAP2 PUSH2 0xD01 JUMP JUMPDEST PUSH2 0x1A72 PUSH2 0xEE8 JUMP JUMPDEST ISZERO ISZERO PUSH2 0x1A7D JUMPI PUSH1 0x0 DUP1 REVERT JUMPDEST PUSH10 0x2F0EADC3216237780000 DUP3 GT ISZERO PUSH2 0x1ADF JUMPI PUSH1 0x40 DUP1 MLOAD PUSH1 0xE5 PUSH1 0x2 EXP PUSH3 0x461BCD MUL DUP2 MSTORE PUSH1 0x20 PUSH1 0x4 DUP3 ADD MSTORE PUSH1 0x12 PUSH1 0x24 DUP3 ADD MSTORE PUSH32 0x5374616B6520697320746F6F20686967682E0000000000000000000000000000 PUSH1 0x44 DUP3 ADD MSTORE SWAP1 MLOAD SWAP1 DUP2 SWAP1 SUB PUSH1 0x64 ADD SWAP1 REVERT JUMPDEST PUSH1 0x7 DUP2 SWAP1 SSTORE PUSH1 0x4 DUP1 SLOAD PUSH1 0x40 DUP1 MLOAD PUSH32 0x18160DDD00000000000000000000000000000000000000000000000000000000 DUP2 MSTORE SWAP1 MLOAD PUSH1 0x64 SWAP4 PUSH1 0x1 PUSH1 0xA0 PUSH1 0x2 EXP SUB SWAP1 SWAP4 AND SWAP3 PUSH4 0x18160DDD SWAP3 DUP1 DUP3 ADD SWAP3 PUSH1 0x20 SWAP3 SWAP1 SWAP2 DUP3 SWAP1 SUB ADD DUP2 DUP7 DUP1 EXTCODESIZE ISZERO DUP1 ISZERO PUSH2 0x1B43 JUMPI PUSH1 0x0 DUP1 REVERT JUMPDEST POP GAS STATICCALL ISZERO DUP1 ISZERO PUSH2 0x1B57 JUMPI RETURNDATASIZE PUSH1 0x0 DUP1 RETURNDATACOPY RETURNDATASIZE PUSH1 0x0 REVERT JUMPDEST POP POP POP POP PUSH1 0x40 MLOAD RETURNDATASIZE PUSH1 0x20 DUP2 LT ISZERO PUSH2 0x1B6D JUMPI PUSH1 0x0 DUP1 REVERT JUMPDEST POP MLOAD DUP2 ISZERO ISZERO PUSH2 0x1B78 JUMPI INVALID JUMPDEST DIV DUP2 GT ISZERO PUSH2 0x1BD0 JUMPI PUSH1 0x40 DUP1 MLOAD PUSH1 0xE5 PUSH1 0x2 EXP PUSH3 0x461BCD MUL DUP2 MSTORE PUSH1 0x20 PUSH1 0x4 DUP3 ADD MSTORE PUSH1 0x12 PUSH1 0x24 DUP3 ADD MSTORE PUSH32 0x5374616B6520697320746F6F20686967682E0000000000000000000000000000 PUSH1 0x44 DUP3 ADD MSTORE SWAP1 MLOAD SWAP1 DUP2 SWAP1 SUB PUSH1 0x64 ADD SWAP1 REVERT JUMPDEST PUSH1 0x8 SSTORE POP JUMP JUMPDEST PUSH2 0x1BDE PUSH2 0xEE8 JUMP JUMPDEST ISZERO ISZERO PUSH2 0x1BE9 JUMPI PUSH1 0x0 DUP1 REVERT JUMPDEST PUSH2 0x1BF2 DUP2 PUSH2 0x252C JUMP JUMPDEST PUSH1 0x0 DUP2 SWAP1 POP DUP1 PUSH1 0x1 PUSH1 0xA0 PUSH1 0x2 EXP SUB AND PUSH4 0x75D7E4BD PUSH1 0x40 MLOAD DUP2 PUSH4 0xFFFFFFFF AND PUSH1 0xE0 PUSH1 0x2 EXP MUL DUP2 MSTORE PUSH1 0x4 ADD PUSH1 0x20 PUSH1 0x40 MLOAD DUP1 DUP4 SUB DUP2 PUSH1 0x0 DUP8 DUP1 EXTCODESIZE ISZERO DUP1 ISZERO PUSH2 0x1C35 JUMPI PUSH1 0x0 DUP1 REVERT JUMPDEST POP GAS CALL ISZERO DUP1 ISZERO PUSH2 0x1C49 JUMPI RETURNDATASIZE PUSH1 0x0 DUP1 RETURNDATACOPY RETURNDATASIZE PUSH1 0x0 REVERT JUMPDEST POP POP POP POP PUSH1 0x40 MLOAD RETURNDATASIZE PUSH1 0x20 DUP2 LT ISZERO PUSH2 0x1C5F JUMPI PUSH1 0x0 DUP1 REVERT JUMPDEST POP MLOAD PUSH1 0x4 DUP1 SLOAD PUSH1 0x1 PUSH1 0xA0 PUSH1 0x2 EXP SUB NOT AND PUSH1 0x1 PUSH1 0xA0 PUSH1 0x2 EXP SUB SWAP3 DUP4 AND OR DUP2 SSTORE PUSH1 0x40 DUP1 MLOAD PUSH32 0xA759EE6F00000000000000000000000000000000000000000000000000000000 DUP2 MSTORE SWAP1 MLOAD SWAP3 DUP5 AND SWAP3 PUSH4 0xA759EE6F SWAP3 DUP3 DUP2 ADD SWAP3 PUSH1 0x20 SWAP3 SWAP2 SWAP1 DUP3 SWAP1 SUB ADD DUP2 PUSH1 0x0 DUP8 DUP1 EXTCODESIZE ISZERO DUP1 ISZERO PUSH2 0x1CCF JUMPI PUSH1 0x0 DUP1 REVERT JUMPDEST POP GAS CALL ISZERO DUP1 ISZERO PUSH2 0x1CE3 JUMPI RETURNDATASIZE PUSH1 0x0 DUP1 RETURNDATACOPY RETURNDATASIZE PUSH1 0x0 REVERT JUMPDEST POP POP POP POP PUSH1 0x40 MLOAD RETURNDATASIZE PUSH1 0x20 DUP2 LT ISZERO PUSH2 0x1CF9 JUMPI PUSH1 0x0 DUP1 REVERT JUMPDEST POP MLOAD PUSH1 0x5 DUP1 SLOAD PUSH1 0x1 PUSH1 0xA0 PUSH1 0x2 EXP SUB NOT AND PUSH1 0x1 PUSH1 0xA0 PUSH1 0x2 EXP SUB SWAP1 SWAP3 AND SWAP2 SWAP1 SWAP2 OR SWAP1 SSTORE POP POP JUMP JUMPDEST PUSH1 0x0 PUSH2 0x17A4 PUSH2 0x1D2C DUP4 PUSH2 0x1DCC JUMP JUMPDEST PUSH1 0x40 MLOAD PUSH1 0x20 ADD DUP1 DUP3 DUP1 MLOAD SWAP1 PUSH1 0x20 ADD SWAP1 DUP1 DUP4 DUP4 JUMPDEST PUSH1 0x20 DUP4 LT PUSH2 0x1D5E JUMPI DUP1 MLOAD DUP3 MSTORE PUSH1 0x1F NOT SWAP1 SWAP3 ADD SWAP2 PUSH1 0x20 SWAP2 DUP3 ADD SWAP2 ADD PUSH2 0x1D3F JUMP JUMPDEST PUSH1 0x1 DUP4 PUSH1 0x20 SUB PUSH2 0x100 EXP SUB DUP1 NOT DUP3 MLOAD AND DUP2 DUP5 MLOAD AND DUP1 DUP3 OR DUP6 MSTORE POP POP POP POP POP POP SWAP1 POP ADD SWAP2 POP POP PUSH1 0x40 MLOAD PUSH1 0x20 DUP2 DUP4 SUB SUB DUP2 MSTORE SWAP1 PUSH1 0x40 MSTORE DUP1 MLOAD SWAP1 PUSH1 0x20 ADD KECCAK256 PUSH2 0x2561 JUMP JUMPDEST PUSH2 0x1DA6 PUSH2 0xEE8 JUMP JUMPDEST ISZERO ISZERO PUSH2 0x1DB1 JUMPI PUSH1 0x0 DUP1 REVERT JUMPDEST PUSH2 0x1DBA DUP2 PUSH2 0x257E JUMP JUMPDEST POP JUMP JUMPDEST PUSH1 0x3 SLOAD PUSH1 0x1 PUSH1 0xA0 PUSH1 0x2 EXP SUB AND DUP2 JUMP JUMPDEST PUSH1 0x60 DUP2 PUSH1 0x0 JUMPDEST DUP2 MLOAD DUP2 LT ISZERO PUSH2 0x1E4A JUMPI PUSH2 0x1E04 DUP3 DUP3 DUP2 MLOAD DUP2 LT ISZERO ISZERO PUSH2 0x1DEC JUMPI INVALID JUMPDEST SWAP1 PUSH1 0x20 ADD ADD MLOAD PUSH1 0xF8 PUSH1 0x2 EXP SWAP1 DIV PUSH1 0xF8 PUSH1 0x2 EXP MUL PUSH2 0x25EE JUMP JUMPDEST DUP3 DUP3 DUP2 MLOAD DUP2 LT ISZERO ISZERO PUSH2 0x1E12 JUMPI INVALID JUMPDEST SWAP1 PUSH1 0x20 ADD ADD SWAP1 PUSH31 0xFFFFFFFFFFFFFFFFFFFFFFFFFFFFFFFFFFFFFFFFFFFFFFFFFFFFFFFFFFFFFF NOT AND SWAP1 DUP2 PUSH1 0x0 BYTE SWAP1 MSTORE8 POP PUSH1 0x1 ADD PUSH2 0x1DD2 JUMP JUMPDEST POP SWAP3 SWAP2 POP POP JUMP JUMPDEST PUSH1 0x0 PUSH2 0x1E5C DUP3 PUSH2 0x24F0 JUMP JUMPDEST ISZERO ISZERO PUSH2 0x1EB2 JUMPI PUSH1 0x40 DUP1 MLOAD PUSH1 0xE5 PUSH1 0x2 EXP PUSH3 0x461BCD MUL DUP2 MSTORE PUSH1 0x20 PUSH1 0x4 DUP3 ADD MSTORE PUSH1 0x16 PUSH1 0x24 DUP3 ADD MSTORE PUSH32 0x487964726F4944206973206E6F74206163746976652E00000000000000000000 PUSH1 0x44 DUP3 ADD MSTORE SWAP1 MLOAD SWAP1 DUP2 SWAP1 SUB PUSH1 0x64 ADD SWAP1 REVERT JUMPDEST POP PUSH1 0x0 SWAP1 DUP2 MSTORE PUSH1 0x9 PUSH1 0x20 MSTORE PUSH1 0x40 SWAP1 KECCAK256 SWAP1 JUMP JUMPDEST PUSH1 0x2 DUP3 MLOAD GT DUP1 ISZERO PUSH2 0x1ED6 JUMPI POP PUSH1 0x21 DUP3 MLOAD LT JUMPDEST ISZERO ISZERO PUSH2 0x1F2C JUMPI PUSH1 0x40 DUP1 MLOAD PUSH1 0xE5 PUSH1 0x2 EXP PUSH3 0x461BCD MUL DUP2 MSTORE PUSH1 0x20 PUSH1 0x4 DUP3 ADD MSTORE PUSH1 0x1B PUSH1 0x24 DUP3 ADD MSTORE PUSH32 0x487964726F49442068617320696E76616C6964206C656E6774682E0000000000 PUSH1 0x44 DUP3 ADD MSTORE SWAP1 MLOAD SWAP1 DUP2 SWAP1 SUB PUSH1 0x64 ADD SWAP1 REVERT JUMPDEST PUSH1 0x5 SLOAD PUSH1 0x40 DUP1 MLOAD PUSH32 0xD4B1CDCC00000000000000000000000000000000000000000000000000000000 DUP2 MSTORE PUSH1 0x4 DUP2 ADD DUP7 SWAP1 MSTORE ADDRESS PUSH1 0x24 DUP3 ADD MSTORE SWAP1 MLOAD PUSH1 0x1 PUSH1 0xA0 PUSH1 0x2 EXP SUB SWAP1 SWAP3 AND SWAP2 PUSH4 0xD4B1CDCC SWAP2 PUSH1 0x44 DUP1 DUP3 ADD SWAP3 PUSH1 0x20 SWAP3 SWAP1 SWAP2 SWAP1 DUP3 SWAP1 SUB ADD DUP2 DUP7 DUP1 EXTCODESIZE ISZERO DUP1 ISZERO PUSH2 0x1F97 JUMPI PUSH1 0x0 DUP1 REVERT JUMPDEST POP GAS STATICCALL ISZERO DUP1 ISZERO PUSH2 0x1FAB JUMPI RETURNDATASIZE PUSH1 0x0 DUP1 RETURNDATACOPY RETURNDATASIZE PUSH1 0x0 REVERT JUMPDEST POP POP POP POP PUSH1 0x40 MLOAD RETURNDATASIZE PUSH1 0x20 DUP2 LT ISZERO PUSH2 0x1FC1 JUMPI PUSH1 0x0 DUP1 REVERT JUMPDEST POP MLOAD ISZERO ISZERO PUSH2 0x203F JUMPI PUSH1 0x40 DUP1 MLOAD PUSH1 0xE5 PUSH1 0x2 EXP PUSH3 0x461BCD MUL DUP2 MSTORE PUSH1 0x20 PUSH1 0x4 DUP3 ADD MSTORE PUSH1 0x29 PUSH1 0x24 DUP3 ADD MSTORE PUSH32 0x546865207061737365642045494E20686173206E6F7420736574207468697320 PUSH1 0x44 DUP3 ADD MSTORE PUSH32 0x7265736F6C7665722E0000000000000000000000000000000000000000000000 PUSH1 0x64 DUP3 ADD MSTORE SWAP1 MLOAD SWAP1 DUP2 SWAP1 SUB PUSH1 0x84 ADD SWAP1 REVERT JUMPDEST PUSH1 0x5 SLOAD PUSH1 0x40 DUP1 MLOAD PUSH32 0xA687662D00000000000000000000000000000000000000000000000000000000 DUP2 MSTORE PUSH1 0x4 DUP2 ADD DUP7 SWAP1 MSTORE PUSH1 0x1 PUSH1 0xA0 PUSH1 0x2 EXP SUB DUP5 DUP2 AND PUSH1 0x24 DUP4 ADD MSTORE SWAP2 MLOAD SWAP2 SWAP1 SWAP3 AND SWAP2 PUSH4 0xA687662D SWAP2 PUSH1 0x44 DUP1 DUP4 ADD SWAP3 PUSH1 0x20 SWAP3 SWAP2 SWAP1 DUP3 SWAP1 SUB ADD DUP2 DUP7 DUP1 EXTCODESIZE ISZERO DUP1 ISZERO PUSH2 0x20AC JUMPI PUSH1 0x0 DUP1 REVERT JUMPDEST POP GAS STATICCALL ISZERO DUP1 ISZERO PUSH2 0x20C0 JUMPI RETURNDATASIZE PUSH1 0x0 DUP1 RETURNDATACOPY RETURNDATASIZE PUSH1 0x0 REVERT JUMPDEST POP POP POP POP PUSH1 0x40 MLOAD RETURNDATASIZE PUSH1 0x20 DUP2 LT ISZERO PUSH2 0x20D6 JUMPI PUSH1 0x0 DUP1 REVERT JUMPDEST POP MLOAD ISZERO ISZERO PUSH2 0x2154 JUMPI PUSH1 0x40 DUP1 MLOAD PUSH1 0xE5 PUSH1 0x2 EXP PUSH3 0x461BCD MUL DUP2 MSTORE PUSH1 0x20 PUSH1 0x4 DUP3 ADD MSTORE PUSH1 0x3F PUSH1 0x24 DUP3 ADD MSTORE PUSH32 0x546865207061737365642061646472657373206973206E6F74206173736F6369 PUSH1 0x44 DUP3 ADD MSTORE PUSH32 0x617465642077697468207468652063616C6C696E67204964656E746974792E00 PUSH1 0x64 DUP3 ADD MSTORE SWAP1 MLOAD SWAP1 DUP2 SWAP1 SUB PUSH1 0x84 ADD SWAP1 REVERT JUMPDEST PUSH2 0x215E DUP3 DUP3 PUSH2 0x1451 JUMP JUMPDEST PUSH1 0x0 PUSH2 0x2181 PUSH2 0x217C PUSH2 0x2177 PUSH2 0x2172 DUP7 PUSH2 0x26A5 JUMP JUMPDEST PUSH2 0x26CA JUMP JUMPDEST PUSH2 0x26F0 JUMP JUMPDEST PUSH2 0x1DCC JUMP JUMPDEST PUSH1 0x40 MLOAD PUSH1 0x20 ADD DUP1 DUP3 DUP1 MLOAD SWAP1 PUSH1 0x20 ADD SWAP1 DUP1 DUP4 DUP4 JUMPDEST PUSH1 0x20 DUP4 LT PUSH2 0x21B3 JUMPI DUP1 MLOAD DUP3 MSTORE PUSH1 0x1F NOT SWAP1 SWAP3 ADD SWAP2 PUSH1 0x20 SWAP2 DUP3 ADD SWAP2 ADD PUSH2 0x2194 JUMP JUMPDEST PUSH1 0x1 DUP4 PUSH1 0x20 SUB PUSH2 0x100 EXP SUB DUP1 NOT DUP3 MLOAD AND DUP2 DUP5 MLOAD AND DUP1 DUP3 OR DUP6 MSTORE POP POP POP POP POP POP SWAP1 POP ADD SWAP2 POP POP PUSH1 0x40 MLOAD PUSH1 0x20 DUP2 DUP4 SUB SUB DUP2 MSTORE SWAP1 PUSH1 0x40 MSTORE DUP1 MLOAD SWAP1 PUSH1 0x20 ADD KECCAK256 SWAP1 POP PUSH2 0x21F9 DUP2 PUSH2 0x2513 JUMP JUMPDEST ISZERO ISZERO PUSH2 0x224F JUMPI PUSH1 0x40 DUP1 MLOAD PUSH1 0xE5 PUSH1 0x2 EXP PUSH3 0x461BCD MUL DUP2 MSTORE PUSH1 0x20 PUSH1 0x4 DUP3 ADD MSTORE PUSH1 0x17 PUSH1 0x24 DUP3 ADD MSTORE PUSH32 0x487964726F494420697320756E617661696C61626C652E000000000000000000 PUSH1 0x44 DUP3 ADD MSTORE SWAP1 MLOAD SWAP1 DUP2 SWAP1 SUB PUSH1 0x64 ADD SWAP1 REVERT JUMPDEST PUSH1 0x0 DUP5 DUP2 MSTORE PUSH1 0xA PUSH1 0x20 MSTORE PUSH1 0x40 SWAP1 KECCAK256 SLOAD ISZERO PUSH2 0x22D9 JUMPI PUSH1 0x40 DUP1 MLOAD PUSH1 0xE5 PUSH1 0x2 EXP PUSH3 0x461BCD MUL DUP2 MSTORE PUSH1 0x20 PUSH1 0x4 DUP3 ADD MSTORE PUSH1 0x23 PUSH1 0x24 DUP3 ADD MSTORE PUSH32 0x45494E20697320616C7265616479206D617070656420746F206120487964726F PUSH1 0x44 DUP3 ADD MSTORE PUSH32 0x49442E0000000000000000000000000000000000000000000000000000000000 PUSH1 0x64 DUP3 ADD MSTORE SWAP1 MLOAD SWAP1 DUP2 SWAP1 SUB PUSH1 0x84 ADD SWAP1 REVERT JUMPDEST PUSH1 0x1 PUSH1 0xA0 PUSH1 0x2 EXP SUB DUP3 AND PUSH1 0x0 SWAP1 DUP2 MSTORE PUSH1 0xB PUSH1 0x20 MSTORE PUSH1 0x40 SWAP1 KECCAK256 SLOAD ISZERO PUSH2 0x236D JUMPI PUSH1 0x40 DUP1 MLOAD PUSH1 0xE5 PUSH1 0x2 EXP PUSH3 0x461BCD MUL DUP2 MSTORE PUSH1 0x20 PUSH1 0x4 DUP3 ADD MSTORE PUSH1 0x27 PUSH1 0x24 DUP3 ADD MSTORE PUSH32 0x4164647265737320697320616C7265616479206D617070656420746F20612048 PUSH1 0x44 DUP3 ADD MSTORE PUSH32 0x7964726F49442E00000000000000000000000000000000000000000000000000 PUSH1 0x64 DUP3 ADD MSTORE SWAP1 MLOAD SWAP1 DUP2 SWAP1 SUB PUSH1 0x84 ADD SWAP1 REVERT JUMPDEST PUSH1 0x40 DUP1 MLOAD PUSH1 0xA0 DUP2 ADD DUP3 MSTORE DUP6 DUP2 MSTORE PUSH1 0x1 PUSH1 0xA0 PUSH1 0x2 EXP SUB DUP5 DUP2 AND PUSH1 0x20 DUP1 DUP5 ADD SWAP2 DUP3 MSTORE DUP4 DUP6 ADD DUP9 DUP2 MSTORE PUSH1 0x1 PUSH1 0x60 DUP7 ADD DUP2 SWAP1 MSTORE PUSH1 0x0 PUSH1 0x80 DUP8 ADD DUP2 SWAP1 MSTORE DUP9 DUP2 MSTORE PUSH1 0x9 DUP5 MSTORE SWAP7 SWAP1 SWAP7 KECCAK256 DUP6 MLOAD DUP2 SSTORE SWAP3 MLOAD SWAP6 DUP4 ADD DUP1 SLOAD PUSH1 0x1 PUSH1 0xA0 PUSH1 0x2 EXP SUB NOT AND SWAP7 SWAP1 SWAP5 AND SWAP6 SWAP1 SWAP6 OR SWAP1 SWAP3 SSTORE SWAP3 MLOAD DUP1 MLOAD SWAP3 SWAP4 SWAP3 PUSH2 0x23E7 SWAP3 PUSH1 0x2 DUP6 ADD SWAP3 ADD SWAP1 PUSH2 0x27BD JUMP JUMPDEST POP PUSH1 0x60 DUP3 DUP2 ADD MLOAD PUSH1 0x3 SWAP1 SWAP3 ADD DUP1 SLOAD PUSH1 0x80 SWAP1 SWAP5 ADD MLOAD ISZERO ISZERO PUSH2 0x100 MUL PUSH2 0xFF00 NOT SWAP4 ISZERO ISZERO PUSH1 0xFF NOT SWAP1 SWAP6 AND SWAP5 SWAP1 SWAP5 OR SWAP3 SWAP1 SWAP3 AND SWAP3 SWAP1 SWAP3 OR SWAP1 SSTORE PUSH1 0x0 DUP6 DUP2 MSTORE PUSH1 0xA PUSH1 0x20 SWAP1 DUP2 MSTORE PUSH1 0x40 DUP1 DUP4 KECCAK256 DUP6 SWAP1 SSTORE PUSH1 0x1 PUSH1 0xA0 PUSH1 0x2 EXP SUB DUP7 AND DUP1 DUP5 MSTORE PUSH1 0xB DUP4 MSTORE DUP2 DUP5 KECCAK256 DUP7 SWAP1 SSTORE DUP2 MLOAD DUP1 DUP5 ADD SWAP2 SWAP1 SWAP2 MSTORE DUP2 DUP2 MSTORE DUP8 MLOAD SWAP2 DUP2 ADD SWAP2 SWAP1 SWAP2 MSTORE DUP7 MLOAD DUP9 SWAP5 PUSH32 0x2036B1DAD46D67484FB64D7B2041768B0C1D63E534F4B59A6FB46C1B08493DF4 SWAP5 DUP10 SWAP5 DUP10 SWAP5 SWAP4 DUP5 SWAP4 DUP5 ADD SWAP3 SWAP2 DUP8 ADD SWAP2 DUP2 SWAP1 DUP5 SWAP1 DUP5 SWAP1 JUMPDEST DUP4 DUP2 LT ISZERO PUSH2 0x24AF JUMPI DUP2 DUP2 ADD MLOAD DUP4 DUP3 ADD MSTORE PUSH1 0x20 ADD PUSH2 0x2497 JUMP JUMPDEST POP POP POP POP SWAP1 POP SWAP1 DUP2 ADD SWAP1 PUSH1 0x1F AND DUP1 ISZERO PUSH2 0x24DC JUMPI DUP1 DUP3 SUB DUP1 MLOAD PUSH1 0x1 DUP4 PUSH1 0x20 SUB PUSH2 0x100 EXP SUB NOT AND DUP2 MSTORE PUSH1 0x20 ADD SWAP2 POP JUMPDEST POP SWAP4 POP POP POP POP PUSH1 0x40 MLOAD DUP1 SWAP2 SUB SWAP1 LOG2 POP POP POP POP JUMP JUMPDEST PUSH1 0x0 PUSH2 0x24FB DUP3 PUSH2 0x2513 JUMP JUMPDEST ISZERO DUP1 ISZERO PUSH2 0x17A4 JUMPI POP PUSH2 0x250C DUP3 PUSH2 0x2561 JUMP JUMPDEST ISZERO SWAP3 SWAP2 POP POP JUMP JUMPDEST PUSH1 0x0 SWAP1 DUP2 MSTORE PUSH1 0x9 PUSH1 0x20 MSTORE PUSH1 0x40 SWAP1 KECCAK256 PUSH1 0x3 ADD SLOAD PUSH1 0xFF AND ISZERO SWAP1 JUMP JUMPDEST PUSH2 0x2534 PUSH2 0xEE8 JUMP JUMPDEST ISZERO ISZERO PUSH2 0x253F JUMPI PUSH1 0x0 DUP1 REVERT JUMPDEST PUSH1 0x3 DUP1 SLOAD PUSH1 0x1 PUSH1 0xA0 PUSH1 0x2 EXP SUB NOT AND PUSH1 0x1 PUSH1 0xA0 PUSH1 0x2 EXP SUB SWAP3 SWAP1 SWAP3 AND SWAP2 SWAP1 SWAP2 OR SWAP1 SSTORE JUMP JUMPDEST PUSH1 0x0 SWAP1 DUP2 MSTORE PUSH1 0x9 PUSH1 0x20 MSTORE PUSH1 0x40 SWAP1 KECCAK256 PUSH1 0x3 ADD SLOAD PUSH2 0x100 SWAP1 DIV PUSH1 0xFF AND SWAP1 JUMP JUMPDEST PUSH1 0x1 PUSH1 0xA0 PUSH1 0x2 EXP SUB DUP2 AND ISZERO ISZERO PUSH2 0x2593 JUMPI PUSH1 0x0 DUP1 REVERT JUMPDEST PUSH1 0x0 DUP1 SLOAD PUSH1 0x40 MLOAD PUSH1 0x1 PUSH1 0xA0 PUSH1 0x2 EXP SUB DUP1 DUP6 AND SWAP4 SWAP3 AND SWAP2 PUSH32 0x8BE0079C531659141344CD1FD0A4F28419497F9722A3DAAFE3B4186F6B6457E0 SWAP2 LOG3 PUSH1 0x0 DUP1 SLOAD PUSH1 0x1 PUSH1 0xA0 PUSH1 0x2 EXP SUB NOT AND PUSH1 0x1 PUSH1 0xA0 PUSH1 0x2 EXP SUB SWAP3 SWAP1 SWAP3 AND SWAP2 SWAP1 SWAP2 OR SWAP1 SSTORE JUMP JUMPDEST PUSH1 0x0 PUSH32 0x4100000000000000000000000000000000000000000000000000000000000000 PUSH32 0xFF00000000000000000000000000000000000000000000000000000000000000 DUP4 AND LT DUP1 ISZERO SWAP1 PUSH2 0x2684 JUMPI POP PUSH32 0x5A00000000000000000000000000000000000000000000000000000000000000 PUSH32 0xFF00000000000000000000000000000000000000000000000000000000000000 DUP4 AND GT ISZERO JUMPDEST ISZERO PUSH2 0x26A1 JUMPI DUP2 PUSH1 0xF8 PUSH1 0x2 EXP SWAP1 DIV PUSH1 0x20 ADD PUSH1 0xF8 PUSH1 0x2 EXP MUL SWAP1 POP PUSH2 0x17A7 JUMP JUMPDEST POP SWAP1 JUMP JUMPDEST PUSH2 0x26AD PUSH2 0x2837 JUMP JUMPDEST POP PUSH1 0x40 DUP1 MLOAD DUP1 DUP3 ADD SWAP1 SWAP2 MSTORE DUP2 MLOAD DUP2 MSTORE PUSH1 0x20 DUP3 DUP2 ADD SWAP1 DUP3 ADD MSTORE SWAP2 SWAP1 POP JUMP JUMPDEST PUSH2 0x26D2 PUSH2 0x2837 JUMP JUMPDEST POP PUSH1 0x40 DUP1 MLOAD DUP1 DUP3 ADD SWAP1 SWAP2 MSTORE DUP2 MLOAD DUP2 MSTORE PUSH1 0x20 DUP1 DUP4 ADD MLOAD SWAP1 DUP3 ADD MSTORE SWAP2 SWAP1 POP JUMP JUMPDEST PUSH1 0x60 DUP1 DUP3 PUSH1 0x0 ADD MLOAD PUSH1 0x40 MLOAD SWAP1 DUP1 DUP3 MSTORE DUP1 PUSH1 0x1F ADD PUSH1 0x1F NOT AND PUSH1 0x20 ADD DUP3 ADD PUSH1 0x40 MSTORE DUP1 ISZERO PUSH2 0x2722 JUMPI PUSH1 0x20 DUP3 ADD DUP2 DUP1 CODESIZE DUP4 CODECOPY ADD SWAP1 POP JUMPDEST POP SWAP1 POP PUSH1 0x0 PUSH1 0x20 DUP3 ADD SWAP1 POP PUSH2 0x1E4A DUP2 DUP6 PUSH1 0x20 ADD MLOAD DUP7 PUSH1 0x0 ADD MLOAD JUMPDEST PUSH1 0x20 DUP2 LT PUSH2 0x275B JUMPI DUP2 MLOAD DUP4 MSTORE PUSH1 0x20 SWAP3 DUP4 ADD SWAP3 SWAP1 SWAP2 ADD SWAP1 PUSH1 0x1F NOT ADD PUSH2 0x273C JUMP JUMPDEST SWAP1 MLOAD DUP3 MLOAD PUSH1 0x20 SWAP3 SWAP1 SWAP3 SUB PUSH2 0x100 EXP PUSH1 0x0 NOT ADD DUP1 NOT SWAP1 SWAP2 AND SWAP2 AND OR SWAP1 MSTORE JUMP JUMPDEST POP DUP1 SLOAD PUSH1 0x1 DUP2 PUSH1 0x1 AND ISZERO PUSH2 0x100 MUL SUB AND PUSH1 0x2 SWAP1 DIV PUSH1 0x0 DUP3 SSTORE DUP1 PUSH1 0x1F LT PUSH2 0x279F JUMPI POP PUSH2 0x1DBA JUMP JUMPDEST PUSH1 0x1F ADD PUSH1 0x20 SWAP1 DIV SWAP1 PUSH1 0x0 MSTORE PUSH1 0x20 PUSH1 0x0 KECCAK256 SWAP1 DUP2 ADD SWAP1 PUSH2 0x1DBA SWAP2 SWAP1 PUSH2 0x284E JUMP JUMPDEST DUP3 DUP1 SLOAD PUSH1 0x1 DUP2 PUSH1 0x1 AND ISZERO PUSH2 0x100 MUL SUB AND PUSH1 0x2 SWAP1 DIV SWAP1 PUSH1 0x0 MSTORE PUSH1 0x20 PUSH1 0x0 KECCAK256 SWAP1 PUSH1 0x1F ADD PUSH1 0x20 SWAP1 DIV DUP2 ADD SWAP3 DUP3 PUSH1 0x1F LT PUSH2 0x27FE JUMPI DUP1 MLOAD PUSH1 0xFF NOT AND DUP4 DUP1 ADD OR DUP6 SSTORE PUSH2 0x282B JUMP JUMPDEST DUP3 DUP1 ADD PUSH1 0x1 ADD DUP6 SSTORE DUP3 ISZERO PUSH2 0x282B JUMPI SWAP2 DUP3 ADD JUMPDEST DUP3 DUP2 GT ISZERO PUSH2 0x282B JUMPI DUP3 MLOAD DUP3 SSTORE SWAP2 PUSH1 0x20 ADD SWAP2 SWAP1 PUSH1 0x1 ADD SWAP1 PUSH2 0x2810 JUMP JUMPDEST POP PUSH2 0x26A1 SWAP3 SWAP2 POP PUSH2 0x284E JUMP JUMPDEST PUSH1 0x40 DUP1 MLOAD DUP1 DUP3 ADD SWAP1 SWAP2 MSTORE PUSH1 0x0 DUP1 DUP3 MSTORE PUSH1 0x20 DUP3 ADD MSTORE SWAP1 JUMP JUMPDEST PUSH2 0xEC3 SWAP2 SWAP1 JUMPDEST DUP1 DUP3 GT ISZERO PUSH2 0x26A1 JUMPI PUSH1 0x0 DUP2 SSTORE PUSH1 0x1 ADD PUSH2 0x2854 JUMP INVALID LOG1 PUSH6 0x627A7A723058 KECCAK256 ADDMOD REVERT PUSH32 0x9EEEA980B4A66FBD8359DEF26A42A104AA27FC1AFC41046B1B9999D07002900 "
		},
		"gasEstimates": {
			"creation": {
				"codeDepositCost": "2077600",
				"executionCost": "infinite",
				"totalCost": "infinite"
			},
			"external": {
				"callOnAddition()": "580",
				"callOnRemoval()": "690",
				"checkForOldHydroID(string,address)": "infinite",
				"getDetails(address)": "infinite",
				"getDetails(string)": "infinite",
				"getDetails(uint256)": "infinite",
				"hydroIDActive(string)": "infinite",
				"hydroIDAvailable(string)": "infinite",
				"hydroIDDestroyed(string)": "infinite",
				"hydroStakeDelegatedUser()": "513",
				"hydroStakeUser()": "491",
				"isOwner()": "775",
				"onAddition(uint256,uint256,bytes)": "infinite",
				"onRemoval(uint256,bytes)": "infinite",
				"owner()": "799",
				"renounceOwnership()": "22706",
				"setOldClientRaindropAddress(address)": "21177",
				"setSnowflakeAddress(address)": "infinite",
				"setStakes(uint256,uint256)": "infinite",
				"signUp(address,string)": "infinite",
				"snowflakeAddress()": "1106",
				"snowflakeDescription()": "infinite",
				"snowflakeName()": "infinite",
				"transferOwnership(address)": "23445"
			},
			"internal": {
				"_signUp(uint256,string memory,address)": "infinite",
				"getDetails(bytes32)": "infinite",
				"hydroIDAvailable(bytes32)": "302",
				"hydroIDDestroyed(bytes32)": "310",
				"uncasedHydroIDHashActive(bytes32)": "691"
			}
		},
		"methodIdentifiers": {
			"callOnAddition()": "71790251",
			"callOnRemoval()": "8f06492d",
			"checkForOldHydroID(string,address)": "996df2ad",
			"getDetails(address)": "30289c61",
			"getDetails(string)": "1328fd8f",
			"getDetails(uint256)": "b93a89f7",
			"hydroIDActive(string)": "a76c74b2",
			"hydroIDAvailable(string)": "aad9afbb",
			"hydroIDDestroyed(string)": "e2a3b18b",
			"hydroStakeDelegatedUser()": "52b7493b",
			"hydroStakeUser()": "33a9711d",
			"isOwner()": "8f32d59b",
			"onAddition(uint256,uint256,bytes)": "90bfaf40",
			"onRemoval(uint256,bytes)": "9182621a",
			"owner()": "8da5cb5b",
			"renounceOwnership()": "715018a6",
			"setOldClientRaindropAddress(address)": "7c934826",
			"setSnowflakeAddress(address)": "c979b05a",
			"setStakes(uint256,uint256)": "bb3f9cdd",
			"signUp(address,string)": "b531ff12",
			"snowflakeAddress()": "f9f451b8",
			"snowflakeDescription()": "76acf1b6",
			"snowflakeName()": "88cdab94",
			"transferOwnership(address)": "f2fde38b"
		}
	},
	"abi": [
		{
			"constant": true,
			"inputs": [
				{
					"name": "uncasedHydroID",
					"type": "string"
				}
			],
			"name": "getDetails",
			"outputs": [
				{
					"name": "ein",
					"type": "uint256"
				},
				{
					"name": "_address",
					"type": "address"
				},
				{
					"name": "casedHydroID",
					"type": "string"
				}
			],
			"payable": false,
			"stateMutability": "view",
			"type": "function"
		},
		{
			"constant": true,
			"inputs": [
				{
					"name": "_address",
					"type": "address"
				}
			],
			"name": "getDetails",
			"outputs": [
				{
					"name": "ein",
					"type": "uint256"
				},
				{
					"name": "casedHydroID",
					"type": "string"
				}
			],
			"payable": false,
			"stateMutability": "view",
			"type": "function"
		},
		{
			"constant": true,
			"inputs": [],
			"name": "hydroStakeUser",
			"outputs": [
				{
					"name": "",
					"type": "uint256"
				}
			],
			"payable": false,
			"stateMutability": "view",
			"type": "function"
		},
		{
			"constant": true,
			"inputs": [],
			"name": "hydroStakeDelegatedUser",
			"outputs": [
				{
					"name": "",
					"type": "uint256"
				}
			],
			"payable": false,
			"stateMutability": "view",
			"type": "function"
		},
		{
			"constant": false,
			"inputs": [],
			"name": "renounceOwnership",
			"outputs": [],
			"payable": false,
			"stateMutability": "nonpayable",
			"type": "function"
		},
		{
			"constant": true,
			"inputs": [],
			"name": "callOnAddition",
			"outputs": [
				{
					"name": "",
					"type": "bool"
				}
			],
			"payable": false,
			"stateMutability": "view",
			"type": "function"
		},
		{
			"constant": true,
			"inputs": [],
			"name": "snowflakeDescription",
			"outputs": [
				{
					"name": "",
					"type": "string"
				}
			],
			"payable": false,
			"stateMutability": "view",
			"type": "function"
		},
		{
			"constant": false,
			"inputs": [
				{
					"name": "oldClientRaindropAddress",
					"type": "address"
				}
			],
			"name": "setOldClientRaindropAddress",
			"outputs": [],
			"payable": false,
			"stateMutability": "nonpayable",
			"type": "function"
		},
		{
			"constant": true,
			"inputs": [],
			"name": "snowflakeName",
			"outputs": [
				{
					"name": "",
					"type": "string"
				}
			],
			"payable": false,
			"stateMutability": "view",
			"type": "function"
		},
		{
			"constant": true,
			"inputs": [],
			"name": "owner",
			"outputs": [
				{
					"name": "",
					"type": "address"
				}
			],
			"payable": false,
			"stateMutability": "view",
			"type": "function"
		},
		{
			"constant": true,
			"inputs": [],
			"name": "callOnRemoval",
			"outputs": [
				{
					"name": "",
					"type": "bool"
				}
			],
			"payable": false,
			"stateMutability": "view",
			"type": "function"
		},
		{
			"constant": true,
			"inputs": [],
			"name": "isOwner",
			"outputs": [
				{
					"name": "",
					"type": "bool"
				}
			],
			"payable": false,
			"stateMutability": "view",
			"type": "function"
		},
		{
			"constant": false,
			"inputs": [
				{
					"name": "ein",
					"type": "uint256"
				},
				{
					"name": "",
					"type": "uint256"
				},
				{
					"name": "extraData",
					"type": "bytes"
				}
			],
			"name": "onAddition",
			"outputs": [
				{
					"name": "",
					"type": "bool"
				}
			],
			"payable": false,
			"stateMutability": "nonpayable",
			"type": "function"
		},
		{
			"constant": false,
			"inputs": [
				{
					"name": "ein",
					"type": "uint256"
				},
				{
					"name": "",
					"type": "bytes"
				}
			],
			"name": "onRemoval",
			"outputs": [
				{
					"name": "",
					"type": "bool"
				}
			],
			"payable": false,
			"stateMutability": "nonpayable",
			"type": "function"
		},
		{
			"constant": true,
			"inputs": [
				{
					"name": "casedHydroID",
					"type": "string"
				},
				{
					"name": "_address",
					"type": "address"
				}
			],
			"name": "checkForOldHydroID",
			"outputs": [],
			"payable": false,
			"stateMutability": "view",
			"type": "function"
		},
		{
			"constant": true,
			"inputs": [
				{
					"name": "uncasedHydroID",
					"type": "string"
				}
			],
			"name": "hydroIDActive",
			"outputs": [
				{
					"name": "active",
					"type": "bool"
				}
			],
			"payable": false,
			"stateMutability": "view",
			"type": "function"
		},
		{
			"constant": true,
			"inputs": [
				{
					"name": "uncasedHydroID",
					"type": "string"
				}
			],
			"name": "hydroIDAvailable",
			"outputs": [
				{
					"name": "available",
					"type": "bool"
				}
			],
			"payable": false,
			"stateMutability": "view",
			"type": "function"
		},
		{
			"constant": false,
			"inputs": [
				{
					"name": "_address",
					"type": "address"
				},
				{
					"name": "casedHydroId",
					"type": "string"
				}
			],
			"name": "signUp",
			"outputs": [],
			"payable": false,
			"stateMutability": "nonpayable",
			"type": "function"
		},
		{
			"constant": true,
			"inputs": [
				{
					"name": "ein",
					"type": "uint256"
				}
			],
			"name": "getDetails",
			"outputs": [
				{
					"name": "_address",
					"type": "address"
				},
				{
					"name": "casedHydroID",
					"type": "string"
				}
			],
			"payable": false,
			"stateMutability": "view",
			"type": "function"
		},
		{
			"constant": false,
			"inputs": [
				{
					"name": "_hydroStakeUser",
					"type": "uint256"
				},
				{
					"name": "_hydroStakeDelegatedUser",
					"type": "uint256"
				}
			],
			"name": "setStakes",
			"outputs": [],
			"payable": false,
			"stateMutability": "nonpayable",
			"type": "function"
		},
		{
			"constant": false,
			"inputs": [
				{
					"name": "snowflakeAddress",
					"type": "address"
				}
			],
			"name": "setSnowflakeAddress",
			"outputs": [],
			"payable": false,
			"stateMutability": "nonpayable",
			"type": "function"
		},
		{
			"constant": true,
			"inputs": [
				{
					"name": "uncasedHydroID",
					"type": "string"
				}
			],
			"name": "hydroIDDestroyed",
			"outputs": [
				{
					"name": "destroyed",
					"type": "bool"
				}
			],
			"payable": false,
			"stateMutability": "view",
			"type": "function"
		},
		{
			"constant": false,
			"inputs": [
				{
					"name": "newOwner",
					"type": "address"
				}
			],
			"name": "transferOwnership",
			"outputs": [],
			"payable": false,
			"stateMutability": "nonpayable",
			"type": "function"
		},
		{
			"constant": true,
			"inputs": [],
			"name": "snowflakeAddress",
			"outputs": [
				{
					"name": "",
					"type": "address"
				}
			],
			"payable": false,
			"stateMutability": "view",
			"type": "function"
		},
		{
			"inputs": [
				{
					"name": "snowflakeAddress",
					"type": "address"
				},
				{
					"name": "oldClientRaindropAddress",
					"type": "address"
				},
				{
					"name": "_hydroStakeUser",
					"type": "uint256"
				},
				{
					"name": "_hydroStakeDelegatedUser",
					"type": "uint256"
				}
			],
			"payable": false,
			"stateMutability": "nonpayable",
			"type": "constructor"
		},
		{
			"anonymous": false,
			"inputs": [
				{
					"indexed": true,
					"name": "ein",
					"type": "uint256"
				},
				{
					"indexed": false,
					"name": "hydroID",
					"type": "string"
				},
				{
					"indexed": false,
					"name": "userAddress",
					"type": "address"
				}
			],
			"name": "HydroIDClaimed",
			"type": "event"
		},
		{
			"anonymous": false,
			"inputs": [
				{
					"indexed": true,
					"name": "ein",
					"type": "uint256"
				},
				{
					"indexed": false,
					"name": "hydroID",
					"type": "string"
				},
				{
					"indexed": false,
					"name": "userAddress",
					"type": "address"
				}
			],
			"name": "HydroIDDestroyed",
			"type": "event"
		},
		{
			"anonymous": false,
			"inputs": [
				{
					"indexed": true,
					"name": "previousOwner",
					"type": "address"
				},
				{
					"indexed": true,
					"name": "newOwner",
					"type": "address"
				}
			],
			"name": "OwnershipTransferred",
			"type": "event"
		}
	]
}