{
  "contractName": "AddressOwnership",
  "abi": [
    {
      "constant": true,
      "inputs": [],
      "name": "owner",
      "outputs": [
        {
          "name": "",
          "type": "address"
        }
      ],
      "payable": false,
      "stateMutability": "view",
      "type": "function"
    },
    {
      "constant": false,
      "inputs": [
        {
          "name": "_address",
          "type": "address"
        }
      ],
      "name": "setSnowflakeAddress",
      "outputs": [],
      "payable": false,
      "stateMutability": "nonpayable",
      "type": "function"
    },
    {
      "constant": true,
      "inputs": [
        {
          "name": "",
          "type": "bytes32"
        }
      ],
      "name": "initiatedClaims",
      "outputs": [
        {
          "name": "",
          "type": "uint256"
        }
      ],
      "payable": false,
      "stateMutability": "view",
      "type": "function"
    },
    {
      "constant": false,
      "inputs": [
        {
          "name": "newOwner",
          "type": "address"
        }
      ],
      "name": "transferOwnership",
      "outputs": [],
      "payable": false,
      "stateMutability": "nonpayable",
      "type": "function"
    },
    {
      "inputs": [],
      "payable": false,
      "stateMutability": "nonpayable",
      "type": "constructor"
    },
    {
      "anonymous": false,
      "inputs": [
        {
          "indexed": true,
          "name": "previousOwner",
          "type": "address"
        },
        {
          "indexed": true,
          "name": "newOwner",
          "type": "address"
        }
      ],
      "name": "OwnershipTransferred",
      "type": "event"
    },
    {
      "constant": false,
      "inputs": [
        {
          "name": "_blockLag",
          "type": "uint256"
        }
      ],
      "name": "setBlockLag",
      "outputs": [],
      "payable": false,
      "stateMutability": "nonpayable",
      "type": "function"
    },
    {
      "constant": true,
      "inputs": [
        {
          "name": "tokenId",
          "type": "uint256"
        }
      ],
      "name": "ownedAddresses",
      "outputs": [
        {
          "name": "",
          "type": "address[]"
        }
      ],
      "payable": false,
      "stateMutability": "view",
      "type": "function"
    },
    {
      "constant": true,
      "inputs": [
        {
          "name": "tokenId",
          "type": "uint256"
        },
        {
          "name": "_address",
          "type": "address"
        }
      ],
      "name": "ownsAddress",
      "outputs": [
        {
          "name": "",
          "type": "bool"
        }
      ],
      "payable": false,
      "stateMutability": "view",
      "type": "function"
    },
    {
      "constant": false,
      "inputs": [
        {
          "name": "sealedHash",
          "type": "bytes32"
        }
      ],
      "name": "initiateClaim",
      "outputs": [],
      "payable": false,
      "stateMutability": "nonpayable",
      "type": "function"
    },
    {
      "constant": false,
      "inputs": [
        {
          "name": "_address",
          "type": "address"
        },
        {
          "name": "v",
          "type": "uint8"
        },
        {
          "name": "r",
          "type": "bytes32"
        },
        {
          "name": "s",
          "type": "bytes32"
        },
        {
          "name": "_secret",
          "type": "bytes32"
        }
      ],
      "name": "finalizeClaim",
      "outputs": [
        {
          "name": "success",
          "type": "bool"
        }
      ],
      "payable": false,
      "stateMutability": "nonpayable",
      "type": "function"
    },
    {
      "constant": false,
      "inputs": [
        {
          "name": "_address",
          "type": "address"
        }
      ],
      "name": "unclaimAddress",
      "outputs": [],
      "payable": false,
      "stateMutability": "nonpayable",
      "type": "function"
    },
    {
      "constant": true,
      "inputs": [
        {
          "name": "_address",
          "type": "address"
        },
        {
          "name": "messageHash",
          "type": "bytes32"
        },
        {
          "name": "v",
          "type": "uint8"
        },
        {
          "name": "r",
          "type": "bytes32"
        },
        {
          "name": "s",
          "type": "bytes32"
        }
      ],
      "name": "isSigned",
      "outputs": [
        {
          "name": "",
          "type": "bool"
        }
      ],
      "payable": false,
      "stateMutability": "pure",
      "type": "function"
    }
  ],
  "bytecode": "0x608060405234801561001057600080fd5b5060008054600160a060020a031916331790556014600455610dee806100376000396000f3006080604052600436106100ae5763ffffffff7c01000000000000000000000000000000000000000000000000000000006000350416631292ee8681146100b357806324c71607146100eb5780632a4c7c6d1461011b5780638677ebe8146101355780638904b90f146101655780638da5cb5b146101cd578063c979b05a146101fe578063ce602ec91461021f578063d674e5dc14610240578063d7ad282d1461026a578063f2fde38b14610282575b600080fd5b3480156100bf57600080fd5b506100d7600435600160a060020a03602435166102a3565b604080519115158252519081900360200190f35b3480156100f757600080fd5b506100d7600160a060020a036004351660ff6024351660443560643560843561035c565b34801561012757600080fd5b5061013360043561064f565b005b34801561014157600080fd5b506100d7600160a060020a036004351660243560ff6044351660643560843561079e565b34801561017157600080fd5b5061017d6004356107ca565b60408051602080825283518183015283519192839290830191858101910280838360005b838110156101b95781810151838201526020016101a1565b505050509050019250505060405180910390f35b3480156101d957600080fd5b506101e2610976565b60408051600160a060020a039092168252519081900360200190f35b34801561020a57600080fd5b50610133600160a060020a0360043516610985565b34801561022b57600080fd5b50610133600160a060020a03600435166109cb565b34801561024c57600080fd5b50610258600435610b07565b60408051918252519081900360200190f35b34801561027657600080fd5b50610133600435610b19565b34801561028e57600080fd5b50610133600160a060020a0360043516610b35565b600082815260066020908152604080832081517fee8a71a00000000000000000000000000000000000000000000000000000000081526004810191909152600160a060020a0385166024820152905173__addressSet____________________________9263ee8a71a09260448082019391829003018186803b15801561032957600080fd5b505af415801561033d573d6000803e3d6000fd5b505050506040513d602081101561035357600080fd5b50519392505050565b600354604080517ff15376860000000000000000000000000000000000000000000000000000000081523360048201529051600092600160a060020a0316918391829182918291869163f15376869160248082019260209290919082900301818787803b1580156103cc57600080fd5b505af11580156103e0573d6000803e3d6000fd5b505050506040513d60208110156103f657600080fd5b81019080805190602001909291905050509350868b60405160200180807f4c696e6b204164647265737320746f20536e6f77666c616b6500000000000000815250601901836000191660001916815260200182600160a060020a0316600160a060020a03166c01000000000000000000000000028152601401925050506040516020818303038152906040526040518082805190602001908083835b602083106104b15780518252601f199092019160209182019101610492565b6001836020036101000a038019825116818451168082178552505050505050905001915050604051809103902090506104ed8b828c8c8c61079e565b9150811561063c57600081815260056020526040902054841461059757604080517f08c379a000000000000000000000000000000000000000000000000000000000815260206004820152603160248201527f4e6f20636c61696d2077617320696e6974696174656420666f7220746869732060448201527f7365616c6564207369676e61747572652e000000000000000000000000000000606482015290519081900360840190fd5b60008481526006602052604080822081517fe843cfc10000000000000000000000000000000000000000000000000000000081526004810191909152600160a060020a038e166024820152905173__addressSet____________________________9263e843cfc19260448082019391829003018186803b15801561061b57600080fd5b505af415801561062f573d6000803e3d6000fd5b5050505060019550610641565b600095505b505050505095945050505050565b6000818152600560205260408120548190156106f257604080517f08c379a000000000000000000000000000000000000000000000000000000000815260206004820152603160248201527f54686973207365616c6564207369676e61747572652068617320616c7265616460448201527f79206265656e207375626d69747465642e000000000000000000000000000000606482015290519081900360840190fd5b600354604080517ff15376860000000000000000000000000000000000000000000000000000000081523360048201529051600160a060020a039092169350839163f1537686916024808201926020929091908290030181600087803b15801561075b57600080fd5b505af115801561076f573d6000803e3d6000fd5b505050506040513d602081101561078557600080fd5b5051600093845260056020526040909320929092555050565b60006107ad8686868686610bc9565b806107c057506107c08686868686610c4e565b9695505050505050565b606060016006600084815260200190815260200160002073__addressSet____________________________6343cf70d790916040518263ffffffff167c01000000000000000000000000000000000000000000000000000000000281526004018082815260200191505060206040518083038186803b15801561084d57600080fd5b505af4158015610861573d6000803e3d6000fd5b505050506040513d602081101561087757600080fd5b5051101561090c57604080517f08c379a000000000000000000000000000000000000000000000000000000000815260206004820152603660248201527f5468697320746f6b656e20686173206e6f742070726f766564206f776e65727360448201527f686970206f76657220616e792061646472657373657300000000000000000000606482015290519081900360840190fd5b6000828152600660209081526040918290208054835181840281018401909452808452909183018282801561096a57602002820191906000526020600020905b8154600160a060020a0316815260019091019060200180831161094c575b50505050509050919050565b600054600160a060020a031681565b600054600160a060020a0316331461099c57600080fd5b6003805473ffffffffffffffffffffffffffffffffffffffff1916600160a060020a0392909216919091179055565b600354604080517ff15376860000000000000000000000000000000000000000000000000000000081523360048201529051600160a060020a0390921691600091839163f15376869160248082019260209290919082900301818787803b158015610a3557600080fd5b505af1158015610a49573d6000803e3d6000fd5b505050506040513d6020811015610a5f57600080fd5b505160008181526006602052604080822081517fb65fd2940000000000000000000000000000000000000000000000000000000081526004810191909152600160a060020a0387166024820152905192935073__addressSet____________________________9263b65fd29492604480840193919291829003018186803b158015610aea57600080fd5b505af4158015610afe573d6000803e3d6000fd5b50505050505050565b60056020526000908152604090205481565b600054600160a060020a03163314610b3057600080fd5b600455565b600054600160a060020a03163314610b4c57600080fd5b600160a060020a0381161515610b6157600080fd5b60008054604051600160a060020a03808516939216917f8be0079c531659141344cd1fd0a4f28419497f9722a3daafe3b4186f6b6457e091a36000805473ffffffffffffffffffffffffffffffffffffffff1916600160a060020a0392909216919091179055565b604080516000808252602080830180855288905260ff871683850152606083018690526080830185905292519092600160a060020a0389169260019260a08083019392601f19830192908190039091019087865af1158015610c2f573d6000803e3d6000fd5b50505060206040510351600160a060020a031614905095945050505050565b604080518082018252601c8082527f19457468657265756d205369676e6564204d6573736167653a0a33320000000060208084019182529351600094859385938b939092019182918083835b60208310610cb95780518252601f199092019160209182019101610c9a565b51815160209384036101000a600019018019909216911617905292019384525060408051808503815293820190819052835193945092839250908401908083835b60208310610d195780518252601f199092019160209182019101610cfa565b51815160209384036101000a600019018019909216911617905260408051929094018290038220600080845283830180875282905260ff8e1684870152606084018d9052608084018c90529451909750600160a060020a038f1696506001955060a080840195929450601f198201938290030191865af1158015610da1573d6000803e3d6000fd5b50505060206040510351600160a060020a03161492505050959450505050505600a165627a7a72305820a5925c86cea11d88a8d8749a5c9cb8551754d125761e28dad33c379f9bb166bf0029",
  "source": "pragma solidity ^0.4.24;\n\nimport \"./SnowflakeResolver.sol\";\nimport \"../libraries/addressSet.sol\";\n\n\ncontract Snowflake {\n    function getTokenId(address _address) public view returns (uint tokenId);\n}\n\n\ncontract AddressOwnership is SnowflakeResolver {\n    using addressSet for addressSet._addressSet;\n\n    uint blockLag;\n    mapping (bytes32 => uint) public initiatedClaims;\n    mapping (uint => addressSet._addressSet) internal snowflakeToOwnedAddresses;\n\n    constructor () public {\n        blockLag = 20;\n    }\n\n    function setBlockLag(uint _blockLag) public onlyOwner {\n        blockLag = _blockLag;\n    }\n\n    function ownedAddresses(uint tokenId) public view returns (address[]) {\n        require(\n            snowflakeToOwnedAddresses[tokenId].length() >= 1, \"This token has not proved ownership over any addresses\"\n        );\n        return snowflakeToOwnedAddresses[tokenId].members;\n    }\n\n    function ownsAddress(uint tokenId, address _address) public view returns (bool) {\n        return snowflakeToOwnedAddresses[tokenId].contains(_address);\n    }\n\n    // to claim an address, users need to send a transaction from their snowflake address that includes the address\n    // they'd like to claim, as well as a signature from that address of:\n    // keccak256(abi.encodePacked(\"Link Address to Snowflake\", blockhash(block.number), where block.number is any of the\n    // last blockLag blocks\n\n    function initiateClaim(bytes32 sealedHash) public {\n        require(initiatedClaims[sealedHash] == 0, \"This sealed signature has already been submitted.\");\n\n        Snowflake snowflake = Snowflake(snowflakeAddress);\n        uint tokenId = snowflake.getTokenId(msg.sender);\n\n        initiatedClaims[sealedHash] = tokenId;\n    }\n\n    function finalizeClaim(address _address, uint8 v, bytes32 r, bytes32 s, bytes32 _secret) public returns (bool success) {\n        Snowflake snowflake = Snowflake(snowflakeAddress);\n        uint tokenId = snowflake.getTokenId(msg.sender);\n\n        uint i;\n        bool signed;\n        bytes32 claimedSealedBid = keccak256(abi.encodePacked(\"Link Address to Snowflake\", _secret, _address));\n        signed = isSigned(_address, claimedSealedBid, v, r, s);\n        if (signed) {\n            require(initiatedClaims[claimedSealedBid] == tokenId, \"No claim was initiated for this sealed signature.\");\n            snowflakeToOwnedAddresses[tokenId].insert(_address);\n            return true;\n        } else {\n            return false;\n        }\n    }\n\n    function unclaimAddress(address _address) public {\n        Snowflake snowflake = Snowflake(snowflakeAddress);\n        uint tokenId = snowflake.getTokenId(msg.sender);\n        snowflakeToOwnedAddresses[tokenId].remove(_address);\n    }\n\n    // Checks whether the provided (v, r, s) signature was created by the private key associated with _address\n    function isSigned(address _address, bytes32 messageHash, uint8 v, bytes32 r, bytes32 s) public pure returns (bool) {\n        return (_isSigned(_address, messageHash, v, r, s) || _isSignedPrefixed(_address, messageHash, v, r, s));\n    }\n\n    // Checks unprefixed signatures\n    function _isSigned(address _address, bytes32 messageHash, uint8 v, bytes32 r, bytes32 s)\n        internal\n        pure\n        returns (bool)\n    {\n        return ecrecover(messageHash, v, r, s) == _address;\n    }\n\n    // Checks prefixed signatures (e.g. those created with web3.eth.sign)\n    function _isSignedPrefixed(address _address, bytes32 messageHash, uint8 v, bytes32 r, bytes32 s)\n        internal\n        pure\n        returns (bool)\n    {\n        bytes memory prefix = \"\\x19Ethereum Signed Message:\\n32\";\n        bytes32 prefixedMessageHash = keccak256(abi.encodePacked(prefix, messageHash));\n\n        return ecrecover(prefixedMessageHash, v, r, s) == _address;\n    }\n}\n",
  "sourcePath": "/Users/andychorlian/Documents/GitHub/smart-contracts/snowflake-poc/contracts/resolvers/AddressOwnership.sol",
  "compiler": {
    "name": "solc",
    "version": "0.4.24+commit.e67f0147.Emscripten.clang"
  },
  "schemaVersion": "2.0.0",
  "updatedAt": "2018-06-13T14:22:50.505Z"
}