{
  "contractName": "AddressOwnership",
  "abi": [
    {
      "constant": true,
      "inputs": [],
      "name": "owner",
      "outputs": [
        {
          "name": "",
          "type": "address"
        }
      ],
      "payable": false,
      "stateMutability": "view",
      "type": "function"
    },
    {
      "constant": false,
      "inputs": [
        {
          "name": "_address",
          "type": "address"
        }
      ],
      "name": "setSnowflakeAddress",
      "outputs": [],
      "payable": false,
      "stateMutability": "nonpayable",
      "type": "function"
    },
    {
      "constant": true,
      "inputs": [
        {
          "name": "",
          "type": "bytes32"
        }
      ],
      "name": "initiatedClaims",
      "outputs": [
        {
          "name": "",
          "type": "uint256"
        }
      ],
      "payable": false,
      "stateMutability": "view",
      "type": "function"
    },
    {
      "constant": false,
      "inputs": [
        {
          "name": "newOwner",
          "type": "address"
        }
      ],
      "name": "transferOwnership",
      "outputs": [],
      "payable": false,
      "stateMutability": "nonpayable",
      "type": "function"
    },
    {
      "inputs": [],
      "payable": false,
      "stateMutability": "nonpayable",
      "type": "constructor"
    },
    {
      "anonymous": false,
      "inputs": [
        {
          "indexed": true,
          "name": "previousOwner",
          "type": "address"
        },
        {
          "indexed": true,
          "name": "newOwner",
          "type": "address"
        }
      ],
      "name": "OwnershipTransferred",
      "type": "event"
    },
    {
      "constant": false,
      "inputs": [
        {
          "name": "_blockLag",
          "type": "uint256"
        }
      ],
      "name": "setBlockLag",
      "outputs": [],
      "payable": false,
      "stateMutability": "nonpayable",
      "type": "function"
    },
    {
      "constant": true,
      "inputs": [
        {
          "name": "tokenId",
          "type": "uint256"
        }
      ],
      "name": "ownedAddresses",
      "outputs": [
        {
          "name": "",
          "type": "address[]"
        }
      ],
      "payable": false,
      "stateMutability": "view",
      "type": "function"
    },
    {
      "constant": true,
      "inputs": [
        {
          "name": "tokenId",
          "type": "uint256"
        },
        {
          "name": "_address",
          "type": "address"
        }
      ],
      "name": "ownsAddress",
      "outputs": [
        {
          "name": "",
          "type": "bool"
        }
      ],
      "payable": false,
      "stateMutability": "view",
      "type": "function"
    },
    {
      "constant": false,
      "inputs": [
        {
          "name": "sealedSignature",
          "type": "bytes32"
        }
      ],
      "name": "initiateClaim",
      "outputs": [],
      "payable": false,
      "stateMutability": "nonpayable",
      "type": "function"
    },
    {
      "constant": false,
      "inputs": [
        {
          "name": "_address",
          "type": "address"
        },
        {
          "name": "v",
          "type": "uint8"
        },
        {
          "name": "r",
          "type": "bytes32"
        },
        {
          "name": "s",
          "type": "bytes32"
        }
      ],
      "name": "finalizeClaim",
      "outputs": [
        {
          "name": "success",
          "type": "bool"
        }
      ],
      "payable": false,
      "stateMutability": "nonpayable",
      "type": "function"
    },
    {
      "constant": false,
      "inputs": [
        {
          "name": "_address",
          "type": "address"
        }
      ],
      "name": "unclaimAddress",
      "outputs": [],
      "payable": false,
      "stateMutability": "nonpayable",
      "type": "function"
    },
    {
      "constant": true,
      "inputs": [
        {
          "name": "_address",
          "type": "address"
        },
        {
          "name": "messageHash",
          "type": "bytes32"
        },
        {
          "name": "v",
          "type": "uint8"
        },
        {
          "name": "r",
          "type": "bytes32"
        },
        {
          "name": "s",
          "type": "bytes32"
        }
      ],
      "name": "isSigned",
      "outputs": [
        {
          "name": "",
          "type": "bool"
        }
      ],
      "payable": false,
      "stateMutability": "pure",
      "type": "function"
    }
  ],
  "bytecode": "0x608060405234801561001057600080fd5b5060008054600160a060020a031916331790556014600455610e7f806100376000396000f3006080604052600436106100ae5763ffffffff7c01000000000000000000000000000000000000000000000000000000006000350416631292ee8681146100b35780632a4c7c6d146100eb57806384e9ef00146101055780638677ebe8146101325780638904b90f146101625780638da5cb5b146101ca578063c979b05a146101fb578063ce602ec91461021c578063d674e5dc1461023d578063d7ad282d14610267578063f2fde38b1461027f575b600080fd5b3480156100bf57600080fd5b506100d7600435600160a060020a03602435166102a0565b604080519115158252519081900360200190f35b3480156100f757600080fd5b50610103600435610359565b005b34801561011157600080fd5b506100d7600160a060020a036004351660ff602435166044356064356104a8565b34801561013e57600080fd5b506100d7600160a060020a036004351660243560ff6044351660643560843561082f565b34801561016e57600080fd5b5061017a60043561085b565b60408051602080825283518183015283519192839290830191858101910280838360005b838110156101b657818101518382015260200161019e565b505050509050019250505060405180910390f35b3480156101d657600080fd5b506101df610a07565b60408051600160a060020a039092168252519081900360200190f35b34801561020757600080fd5b50610103600160a060020a0360043516610a16565b34801561022857600080fd5b50610103600160a060020a0360043516610a5c565b34801561024957600080fd5b50610255600435610b98565b60408051918252519081900360200190f35b34801561027357600080fd5b50610103600435610baa565b34801561028b57600080fd5b50610103600160a060020a0360043516610bc6565b600082815260066020908152604080832081517fee8a71a00000000000000000000000000000000000000000000000000000000081526004810191909152600160a060020a0385166024820152905173__addressSet____________________________9263ee8a71a09260448082019391829003018186803b15801561032657600080fd5b505af415801561033a573d6000803e3d6000fd5b505050506040513d602081101561035057600080fd5b50519392505050565b6000818152600560205260408120548190156103fc57604080517f08c379a000000000000000000000000000000000000000000000000000000000815260206004820152603160248201527f54686973207365616c6564207369676e61747572652068617320616c7265616460448201527f79206265656e207375626d69747465642e000000000000000000000000000000606482015290519081900360840190fd5b600354604080517ff15376860000000000000000000000000000000000000000000000000000000081523360048201529051600160a060020a039092169350839163f1537686916024808201926020929091908290030181600087803b15801561046557600080fd5b505af1158015610479573d6000803e3d6000fd5b505050506040513d602081101561048f57600080fd5b5051600093845260056020526040909320929092555050565b600354604080517ff15376860000000000000000000000000000000000000000000000000000000081523360048201529051600092600160a060020a03169183918291829182918291879163f153768691602480830192602092919082900301818787803b15801561051957600080fd5b505af115801561052d573d6000803e3d6000fd5b505050506040513d602081101561054357600080fd5b5051604080516c01000000000000000000000000600160a060020a038f16026020828101919091527f010000000000000000000000000000000000000000000000000000000000000060ff8f16026034830152603582018d905260558083018d9052835180840390910181526075909201928390528151939850909282918401908083835b602083106105e75780518252601f1990920191602091820191016105c8565b51815160209384036101000a6000190180199092169116179052604080519290940182900390912060008181526005909252929020549197505087149150610692905057604080517f08c379a000000000000000000000000000000000000000000000000000000000815260206004820152601360248201527f5468697320746f6b656e20686173206e6f742e00000000000000000000000000604482015290519081900360640190fd5b811580156106a1575060045483105b15610771578260010192508243034060405160200180807f4c696e6b204164647265737320746f20536e6f77666c616b650000000000000081525060190182600019166000191681526020019150506040516020818303038152906040526040518082805190602001908083835b6020831061072e5780518252601f19909201916020918201910161070f565b6001836020036101000a0380198251168184511680821785525050505050509050019150506040518091039020905061076a8b828c8c8c61082f565b9150610692565b811561081c5760008581526006602052604080822081517fe843cfc10000000000000000000000000000000000000000000000000000000081526004810191909152600160a060020a038e166024820152905173__addressSet____________________________9263e843cfc19260448082019391829003018186803b1580156107fb57600080fd5b505af415801561080f573d6000803e3d6000fd5b5050505060019650610821565b600096505b505050505050949350505050565b600061083e8686868686610c5a565b8061085157506108518686868686610cdf565b9695505050505050565b606060016006600084815260200190815260200160002073__addressSet____________________________6343cf70d790916040518263ffffffff167c01000000000000000000000000000000000000000000000000000000000281526004018082815260200191505060206040518083038186803b1580156108de57600080fd5b505af41580156108f2573d6000803e3d6000fd5b505050506040513d602081101561090857600080fd5b5051101561099d57604080517f08c379a000000000000000000000000000000000000000000000000000000000815260206004820152603660248201527f5468697320746f6b656e20686173206e6f742070726f766564206f776e65727360448201527f686970206f76657220616e792061646472657373657300000000000000000000606482015290519081900360840190fd5b600082815260066020908152604091829020805483518184028101840190945280845290918301828280156109fb57602002820191906000526020600020905b8154600160a060020a031681526001909101906020018083116109dd575b50505050509050919050565b600054600160a060020a031681565b600054600160a060020a03163314610a2d57600080fd5b6003805473ffffffffffffffffffffffffffffffffffffffff1916600160a060020a0392909216919091179055565b600354604080517ff15376860000000000000000000000000000000000000000000000000000000081523360048201529051600160a060020a0390921691600091839163f15376869160248082019260209290919082900301818787803b158015610ac657600080fd5b505af1158015610ada573d6000803e3d6000fd5b505050506040513d6020811015610af057600080fd5b505160008181526006602052604080822081517fb65fd2940000000000000000000000000000000000000000000000000000000081526004810191909152600160a060020a0387166024820152905192935073__addressSet____________________________9263b65fd29492604480840193919291829003018186803b158015610b7b57600080fd5b505af4158015610b8f573d6000803e3d6000fd5b50505050505050565b60056020526000908152604090205481565b600054600160a060020a03163314610bc157600080fd5b600455565b600054600160a060020a03163314610bdd57600080fd5b600160a060020a0381161515610bf257600080fd5b60008054604051600160a060020a03808516939216917f8be0079c531659141344cd1fd0a4f28419497f9722a3daafe3b4186f6b6457e091a36000805473ffffffffffffffffffffffffffffffffffffffff1916600160a060020a0392909216919091179055565b604080516000808252602080830180855288905260ff871683850152606083018690526080830185905292519092600160a060020a0389169260019260a08083019392601f19830192908190039091019087865af1158015610cc0573d6000803e3d6000fd5b50505060206040510351600160a060020a031614905095945050505050565b604080518082018252601c8082527f19457468657265756d205369676e6564204d6573736167653a0a33320000000060208084019182529351600094859385938b939092019182918083835b60208310610d4a5780518252601f199092019160209182019101610d2b565b51815160209384036101000a600019018019909216911617905292019384525060408051808503815293820190819052835193945092839250908401908083835b60208310610daa5780518252601f199092019160209182019101610d8b565b51815160209384036101000a600019018019909216911617905260408051929094018290038220600080845283830180875282905260ff8e1684870152606084018d9052608084018c90529451909750600160a060020a038f1696506001955060a080840195929450601f198201938290030191865af1158015610e32573d6000803e3d6000fd5b50505060206040510351600160a060020a03161492505050959450505050505600a165627a7a72305820c6f5ba0c68e9e2fd0bb5a62d87eb743f37fb4175dc2a3b19944ad29ee8a1f4f10029",
  "source": "pragma solidity ^0.4.24;\n\nimport \"./SnowflakeResolver.sol\";\nimport \"../libraries/addressSet.sol\";\n\n\ncontract Snowflake {\n    function getTokenId(address _address) public view returns (uint tokenId);\n}\n\n\ncontract AddressOwnership is SnowflakeResolver {\n    using addressSet for addressSet._addressSet;\n\n    uint blockLag;\n    mapping (bytes32 => uint) public initiatedClaims;\n    mapping (uint => addressSet._addressSet) internal snowflakeToOwnedAddresses;\n\n    constructor () public {\n        blockLag = 20;\n    }\n\n    function setBlockLag(uint _blockLag) public onlyOwner {\n        blockLag = _blockLag;\n    }\n\n    function ownedAddresses(uint tokenId) public view returns (address[]) {\n        require(\n            snowflakeToOwnedAddresses[tokenId].length() >= 1, \"This token has not proved ownership over any addresses\"\n        );\n        return snowflakeToOwnedAddresses[tokenId].members;\n    }\n\n    function ownsAddress(uint tokenId, address _address) public view returns (bool) {\n        return snowflakeToOwnedAddresses[tokenId].contains(_address);\n    }\n\n    // to claim an address, users need to send a transaction from their snowflake address that includes the address\n    // they'd like to claim, as well as a signature from that address of:\n    // keccak256(abi.encodePacked(\"Link Address to Snowflake\", blockhash(block.number), where block.number is any of the\n    // last blockLag blocks\n\n    function initiateClaim(bytes32 sealedSignature) public {\n        require(initiatedClaims[sealedSignature] == 0, \"This sealed signature has already been submitted.\");\n\n        Snowflake snowflake = Snowflake(snowflakeAddress);\n        uint tokenId = snowflake.getTokenId(msg.sender);\n\n        initiatedClaims[sealedSignature] = tokenId;\n    }\n\n    function finalizeClaim(address _address, uint8 v, bytes32 r, bytes32 s) public returns (bool success) {\n        Snowflake snowflake = Snowflake(snowflakeAddress);\n        uint tokenId = snowflake.getTokenId(msg.sender);\n\n        bytes32 claimedSealedBid = keccak256(abi.encodePacked(_address, v, r, s));\n\n        require(initiatedClaims[claimedSealedBid] == tokenId, \"This token has not.\");\n        uint i;\n        bool signed;\n        bytes32 challengeMessage;\n        while(!signed && (i < blockLag)) {\n            challengeMessage = keccak256(abi.encodePacked(\"Link Address to Snowflake\", blockhash(block.number - ++i)));\n            signed = isSigned(_address, challengeMessage, v, r, s);\n        }\n        if (signed) {\n            snowflakeToOwnedAddresses[tokenId].insert(_address);\n            return true;\n        } else {\n            return false;\n        }\n    }\n\n    function unclaimAddress(address _address) public {\n        Snowflake snowflake = Snowflake(snowflakeAddress);\n        uint tokenId = snowflake.getTokenId(msg.sender);\n        snowflakeToOwnedAddresses[tokenId].remove(_address);\n    }\n\n    // Checks whether the provided (v, r, s) signature was created by the private key associated with _address\n    function isSigned(address _address, bytes32 messageHash, uint8 v, bytes32 r, bytes32 s) public pure returns (bool) {\n        return (_isSigned(_address, messageHash, v, r, s) || _isSignedPrefixed(_address, messageHash, v, r, s));\n    }\n\n    // Checks unprefixed signatures\n    function _isSigned(address _address, bytes32 messageHash, uint8 v, bytes32 r, bytes32 s)\n        internal\n        pure\n        returns (bool)\n    {\n        return ecrecover(messageHash, v, r, s) == _address;\n    }\n\n    // Checks prefixed signatures (e.g. those created with web3.eth.sign)\n    function _isSignedPrefixed(address _address, bytes32 messageHash, uint8 v, bytes32 r, bytes32 s)\n        internal\n        pure\n        returns (bool)\n    {\n        bytes memory prefix = \"\\x19Ethereum Signed Message:\\n32\";\n        bytes32 prefixedMessageHash = keccak256(abi.encodePacked(prefix, messageHash));\n\n        return ecrecover(prefixedMessageHash, v, r, s) == _address;\n    }\n}\n",
  "sourcePath": "/Users/andychorlian/Documents/GitHub/smart-contracts/snowflake-poc/contracts/resolvers/AddressOwnership.sol",
  "compiler": {
    "name": "solc",
    "version": "0.4.24+commit.e67f0147.Emscripten.clang"
  },
  "schemaVersion": "2.0.0",
  "updatedAt": "2018-06-12T17:59:24.226Z"
}