{
  "contractName": "AddressOwnership",
  "abi": [
    {
      "constant": true,
      "inputs": [],
      "name": "owner",
      "outputs": [
        {
          "name": "",
          "type": "address"
        }
      ],
      "payable": false,
      "stateMutability": "view",
      "type": "function"
    },
    {
      "constant": false,
      "inputs": [
        {
          "name": "_address",
          "type": "address"
        }
      ],
      "name": "setSnowflakeAddress",
      "outputs": [],
      "payable": false,
      "stateMutability": "nonpayable",
      "type": "function"
    },
    {
      "constant": false,
      "inputs": [
        {
          "name": "newOwner",
          "type": "address"
        }
      ],
      "name": "transferOwnership",
      "outputs": [],
      "payable": false,
      "stateMutability": "nonpayable",
      "type": "function"
    },
    {
      "inputs": [],
      "payable": false,
      "stateMutability": "nonpayable",
      "type": "constructor"
    },
    {
      "anonymous": false,
      "inputs": [
        {
          "indexed": true,
          "name": "previousOwner",
          "type": "address"
        },
        {
          "indexed": true,
          "name": "newOwner",
          "type": "address"
        }
      ],
      "name": "OwnershipTransferred",
      "type": "event"
    },
    {
      "constant": false,
      "inputs": [
        {
          "name": "_blockLag",
          "type": "uint256"
        }
      ],
      "name": "setBlockLag",
      "outputs": [],
      "payable": false,
      "stateMutability": "nonpayable",
      "type": "function"
    },
    {
      "constant": true,
      "inputs": [
        {
          "name": "tokenId",
          "type": "uint256"
        }
      ],
      "name": "ownedAddresses",
      "outputs": [
        {
          "name": "",
          "type": "address[]"
        }
      ],
      "payable": false,
      "stateMutability": "view",
      "type": "function"
    },
    {
      "constant": true,
      "inputs": [
        {
          "name": "tokenId",
          "type": "uint256"
        },
        {
          "name": "_address",
          "type": "address"
        }
      ],
      "name": "ownsAddress",
      "outputs": [
        {
          "name": "",
          "type": "bool"
        }
      ],
      "payable": false,
      "stateMutability": "view",
      "type": "function"
    },
    {
      "constant": false,
      "inputs": [
        {
          "name": "_address",
          "type": "address"
        },
        {
          "name": "v",
          "type": "uint8"
        },
        {
          "name": "r",
          "type": "bytes32"
        },
        {
          "name": "s",
          "type": "bytes32"
        }
      ],
      "name": "claimAddress",
      "outputs": [
        {
          "name": "success",
          "type": "bool"
        }
      ],
      "payable": false,
      "stateMutability": "nonpayable",
      "type": "function"
    },
    {
      "constant": false,
      "inputs": [
        {
          "name": "_address",
          "type": "address"
        }
      ],
      "name": "unclaimAddress",
      "outputs": [],
      "payable": false,
      "stateMutability": "nonpayable",
      "type": "function"
    },
    {
      "constant": true,
      "inputs": [
        {
          "name": "_address",
          "type": "address"
        },
        {
          "name": "messageHash",
          "type": "bytes32"
        },
        {
          "name": "v",
          "type": "uint8"
        },
        {
          "name": "r",
          "type": "bytes32"
        },
        {
          "name": "s",
          "type": "bytes32"
        }
      ],
      "name": "isSigned",
      "outputs": [
        {
          "name": "",
          "type": "bool"
        }
      ],
      "payable": false,
      "stateMutability": "pure",
      "type": "function"
    }
  ],
  "bytecode": "0x608060405234801561001057600080fd5b5060008054600160a060020a031916331790556014600455610b7a806100376000396000f3006080604052600436106100985763ffffffff7c01000000000000000000000000000000000000000000000000000000006000350416631292ee86811461009d5780638677ebe8146100d55780638904b90f146101055780638da5cb5b1461016d578063c979b05a1461019e578063ce602ec9146101c1578063d7ad282d146101e2578063d9544ecf146101fa578063f2fde38b14610227575b600080fd5b3480156100a957600080fd5b506100c1600435600160a060020a0360243516610248565b604080519115158252519081900360200190f35b3480156100e157600080fd5b506100c1600160a060020a036004351660243560ff60443516606435608435610301565b34801561011157600080fd5b5061011d60043561032d565b60408051602080825283518183015283519192839290830191858101910280838360005b83811015610159578181015183820152602001610141565b505050509050019250505060405180910390f35b34801561017957600080fd5b506101826104d9565b60408051600160a060020a039092168252519081900360200190f35b3480156101aa57600080fd5b506101bf600160a060020a03600435166104e8565b005b3480156101cd57600080fd5b506101bf600160a060020a036004351661052e565b3480156101ee57600080fd5b506101bf60043561066a565b34801561020657600080fd5b506100c1600160a060020a036004351660ff60243516604435606435610686565b34801561023357600080fd5b506101bf600160a060020a03600435166108c1565b600082815260056020908152604080832081517fee8a71a00000000000000000000000000000000000000000000000000000000081526004810191909152600160a060020a0385166024820152905173__addressSet____________________________9263ee8a71a09260448082019391829003018186803b1580156102ce57600080fd5b505af41580156102e2573d6000803e3d6000fd5b505050506040513d60208110156102f857600080fd5b50519392505050565b60006103108686868686610955565b80610323575061032386868686866109da565b9695505050505050565b606060016005600084815260200190815260200160002073__addressSet____________________________6343cf70d790916040518263ffffffff167c01000000000000000000000000000000000000000000000000000000000281526004018082815260200191505060206040518083038186803b1580156103b057600080fd5b505af41580156103c4573d6000803e3d6000fd5b505050506040513d60208110156103da57600080fd5b5051101561046f57604080517f08c379a000000000000000000000000000000000000000000000000000000000815260206004820152603660248201527f5468697320746f6b656e20686173206e6f742070726f766564206f776e65727360448201527f686970206f76657220616e792061646472657373657300000000000000000000606482015290519081900360840190fd5b600082815260056020908152604091829020805483518184028101840190945280845290918301828280156104cd57602002820191906000526020600020905b8154600160a060020a031681526001909101906020018083116104af575b50505050509050919050565b600054600160a060020a031681565b600054600160a060020a031633146104ff57600080fd5b6003805473ffffffffffffffffffffffffffffffffffffffff1916600160a060020a0392909216919091179055565b600354604080517f0ce5aeef0000000000000000000000000000000000000000000000000000000081523360048201529051600160a060020a03909216916000918391630ce5aeef9160248082019260209290919082900301818787803b15801561059857600080fd5b505af11580156105ac573d6000803e3d6000fd5b505050506040513d60208110156105c257600080fd5b505160008181526005602052604080822081517fb65fd2940000000000000000000000000000000000000000000000000000000081526004810191909152600160a060020a0387166024820152905192935073__addressSet____________________________9263b65fd29492604480840193919291829003018186803b15801561064d57600080fd5b505af4158015610661573d6000803e3d6000fd5b50505050505050565b600054600160a060020a0316331461068157600080fd5b600455565b600354604080517f0ce5aeef0000000000000000000000000000000000000000000000000000000081523360048201529051600092600160a060020a03169183918291829182918691630ce5aeef9160248082019260209290919082900301818787803b1580156106f657600080fd5b505af115801561070a573d6000803e3d6000fd5b505050506040513d602081101561072057600080fd5b505193505b81158015610734575060045483105b15610804578260010192508243034060405160200180807f4c696e6b204164647265737320746f20536e6f77666c616b650000000000000081525060190182600019166000191681526020019150506040516020818303038152906040526040518082805190602001908083835b602083106107c15780518252601f1990920191602091820191016107a2565b6001836020036101000a038019825116818451168082178552505050505050905001915050604051809103902090506107fd8a828b8b8b610301565b9150610725565b81156108af5760008481526005602052604080822081517fe843cfc10000000000000000000000000000000000000000000000000000000081526004810191909152600160a060020a038d166024820152905173__addressSet____________________________9263e843cfc19260448082019391829003018186803b15801561088e57600080fd5b505af41580156108a2573d6000803e3d6000fd5b50505050600195506108b4565b600095505b5050505050949350505050565b600054600160a060020a031633146108d857600080fd5b600160a060020a03811615156108ed57600080fd5b60008054604051600160a060020a03808516939216917f8be0079c531659141344cd1fd0a4f28419497f9722a3daafe3b4186f6b6457e091a36000805473ffffffffffffffffffffffffffffffffffffffff1916600160a060020a0392909216919091179055565b604080516000808252602080830180855288905260ff871683850152606083018690526080830185905292519092600160a060020a0389169260019260a08083019392601f19830192908190039091019087865af11580156109bb573d6000803e3d6000fd5b50505060206040510351600160a060020a031614905095945050505050565b604080518082018252601c8082527f19457468657265756d205369676e6564204d6573736167653a0a33320000000060208084019182529351600094859385938b939092019182918083835b60208310610a455780518252601f199092019160209182019101610a26565b51815160209384036101000a600019018019909216911617905292019384525060408051808503815293820190819052835193945092839250908401908083835b60208310610aa55780518252601f199092019160209182019101610a86565b51815160209384036101000a600019018019909216911617905260408051929094018290038220600080845283830180875282905260ff8e1684870152606084018d9052608084018c90529451909750600160a060020a038f1696506001955060a080840195929450601f198201938290030191865af1158015610b2d573d6000803e3d6000fd5b50505060206040510351600160a060020a03161492505050959450505050505600a165627a7a723058207044565619592569333232617aa6beff0ab8d23b4b8afef4265f35b46aaabecf0029",
  "source": "pragma solidity ^0.4.23;\n\nimport \"./SnowflakeResolver.sol\";\nimport \"../libraries/addressSet.sol\";\n\n\ncontract Snowflake {\n    function ownerToToken(address) public view returns(uint256);\n}\n\n\ncontract AddressOwnership is SnowflakeResolver {\n    using addressSet for addressSet._addressSet;\n\n    uint blockLag;\n    mapping (uint => addressSet._addressSet) internal snowflakeToOwnedAddresses;\n\n    constructor () public {\n        blockLag = 20;\n    }\n\n    function setBlockLag(uint _blockLag) public onlyOwner {\n        blockLag = _blockLag;\n    }\n\n    function ownedAddresses(uint tokenId) public view returns (address[]) {\n        require(\n            snowflakeToOwnedAddresses[tokenId].length() >= 1, \"This token has not proved ownership over any addresses\"\n        );\n        return snowflakeToOwnedAddresses[tokenId].members;\n    }\n\n    function ownsAddress(uint tokenId, address _address) public view returns (bool) {\n        return snowflakeToOwnedAddresses[tokenId].contains(_address);\n    }\n\n    // to claim an address, users need to send a transaction from their snowflake address that includes the address\n    // they'd like to claim, as well as a signature from that address of:\n    // keccak256(abi.encodePacked(\"Link Address to Snowflake\", blockhash(block.number), where block.number is any of the\n    // last blockLag blocks\n    function claimAddress(address _address, uint8 v, bytes32 r, bytes32 s) public returns (bool success) {\n        Snowflake snowflake = Snowflake(snowflakeAddress);\n        uint tokenId = snowflake.ownerToToken(msg.sender);\n\n        uint i;\n        bool signed;\n        bytes32 challengeMessage;\n        while(!signed && (i < blockLag)) {\n            challengeMessage = keccak256(abi.encodePacked(\"Link Address to Snowflake\", blockhash(block.number - ++i)));\n            signed = isSigned(_address, challengeMessage, v, r, s);\n        }\n        if (signed) {\n            snowflakeToOwnedAddresses[tokenId].insert(_address);\n            return true;\n        } else {\n            return false;\n        }\n    }\n\n    function unclaimAddress(address _address) public {\n        Snowflake snowflake = Snowflake(snowflakeAddress);\n        uint tokenId = snowflake.ownerToToken(msg.sender);\n        snowflakeToOwnedAddresses[tokenId].remove(_address);\n    }\n\n    // Checks whether the provided (v, r, s) signature was created by the private key associated with _address\n    function isSigned(address _address, bytes32 messageHash, uint8 v, bytes32 r, bytes32 s) public pure returns (bool) {\n        return (_isSigned(_address, messageHash, v, r, s) || _isSignedPrefixed(_address, messageHash, v, r, s));\n    }\n\n    // Checks unprefixed signatures\n    function _isSigned(address _address, bytes32 messageHash, uint8 v, bytes32 r, bytes32 s)\n        internal\n        pure\n        returns (bool)\n    {\n        return ecrecover(messageHash, v, r, s) == _address;\n    }\n\n    // Checks prefixed signatures (e.g. those created with web3.eth.sign)\n    function _isSignedPrefixed(address _address, bytes32 messageHash, uint8 v, bytes32 r, bytes32 s)\n        internal\n        pure\n        returns (bool)\n    {\n        bytes memory prefix = \"\\x19Ethereum Signed Message:\\n32\";\n        bytes32 prefixedMessageHash = keccak256(abi.encodePacked(prefix, messageHash));\n\n        return ecrecover(prefixedMessageHash, v, r, s) == _address;\n    }\n}\n",
  "sourcePath": "/Users/noahzinsmeister/Documents/github/smart-contracts/snowflake-poc/contracts/resolvers/AddressOwnership.sol",
  "compiler": {
    "name": "solc",
    "version": "0.4.24+commit.e67f0147.Emscripten.clang"
  },
  "schemaVersion": "2.0.0",
  "updatedAt": "2018-06-06T14:30:58.307Z"
}