{
  "contractName": "ClientRaindrop",
  "abi": [
    {
      "constant": true,
      "inputs": [],
      "name": "minimumHydroStakeUser",
      "outputs": [
        {
          "name": "",
          "type": "uint256"
        }
      ],
      "payable": false,
      "stateMutability": "view",
      "type": "function"
    },
    {
      "constant": true,
      "inputs": [],
      "name": "hydroTokenAddress",
      "outputs": [
        {
          "name": "",
          "type": "address"
        }
      ],
      "payable": false,
      "stateMutability": "view",
      "type": "function"
    },
    {
      "constant": true,
      "inputs": [],
      "name": "owner",
      "outputs": [
        {
          "name": "",
          "type": "address"
        }
      ],
      "payable": false,
      "stateMutability": "view",
      "type": "function"
    },
    {
      "constant": false,
      "inputs": [
        {
          "name": "to",
          "type": "address"
        }
      ],
      "name": "withdrawEther",
      "outputs": [],
      "payable": false,
      "stateMutability": "nonpayable",
      "type": "function"
    },
    {
      "constant": true,
      "inputs": [],
      "name": "minimumHydroStakeDelegatedUser",
      "outputs": [
        {
          "name": "",
          "type": "uint256"
        }
      ],
      "payable": false,
      "stateMutability": "view",
      "type": "function"
    },
    {
      "constant": false,
      "inputs": [
        {
          "name": "tokenAddress",
          "type": "address"
        },
        {
          "name": "to",
          "type": "address"
        }
      ],
      "name": "withdrawERC20Token",
      "outputs": [],
      "payable": false,
      "stateMutability": "nonpayable",
      "type": "function"
    },
    {
      "constant": false,
      "inputs": [
        {
          "name": "newOwner",
          "type": "address"
        }
      ],
      "name": "transferOwnership",
      "outputs": [],
      "payable": false,
      "stateMutability": "nonpayable",
      "type": "function"
    },
    {
      "anonymous": false,
      "inputs": [
        {
          "indexed": false,
          "name": "casedUserName",
          "type": "string"
        },
        {
          "indexed": false,
          "name": "userAddress",
          "type": "address"
        }
      ],
      "name": "UserSignUp",
      "type": "event"
    },
    {
      "anonymous": false,
      "inputs": [
        {
          "indexed": false,
          "name": "casedUserName",
          "type": "string"
        }
      ],
      "name": "UserDeleted",
      "type": "event"
    },
    {
      "anonymous": false,
      "inputs": [
        {
          "indexed": true,
          "name": "previousOwner",
          "type": "address"
        },
        {
          "indexed": true,
          "name": "newOwner",
          "type": "address"
        }
      ],
      "name": "OwnershipTransferred",
      "type": "event"
    },
    {
      "constant": false,
      "inputs": [
        {
          "name": "casedUserName",
          "type": "string"
        },
        {
          "name": "userAddress",
          "type": "address"
        },
        {
          "name": "v",
          "type": "uint8"
        },
        {
          "name": "r",
          "type": "bytes32"
        },
        {
          "name": "s",
          "type": "bytes32"
        }
      ],
      "name": "signUpDelegatedUser",
      "outputs": [],
      "payable": false,
      "stateMutability": "nonpayable",
      "type": "function"
    },
    {
      "constant": false,
      "inputs": [
        {
          "name": "casedUserName",
          "type": "string"
        }
      ],
      "name": "signUpUser",
      "outputs": [],
      "payable": false,
      "stateMutability": "nonpayable",
      "type": "function"
    },
    {
      "constant": false,
      "inputs": [],
      "name": "deleteUser",
      "outputs": [],
      "payable": false,
      "stateMutability": "nonpayable",
      "type": "function"
    },
    {
      "constant": false,
      "inputs": [
        {
          "name": "_hydroTokenAddress",
          "type": "address"
        }
      ],
      "name": "setHydroTokenAddress",
      "outputs": [],
      "payable": false,
      "stateMutability": "nonpayable",
      "type": "function"
    },
    {
      "constant": false,
      "inputs": [
        {
          "name": "newMinimumHydroStakeUser",
          "type": "uint256"
        },
        {
          "name": "newMinimumHydroStakeDelegatedUser",
          "type": "uint256"
        }
      ],
      "name": "setMinimumHydroStakes",
      "outputs": [],
      "payable": false,
      "stateMutability": "nonpayable",
      "type": "function"
    },
    {
      "constant": true,
      "inputs": [
        {
          "name": "userName",
          "type": "string"
        }
      ],
      "name": "userNameTaken",
      "outputs": [
        {
          "name": "taken",
          "type": "bool"
        }
      ],
      "payable": false,
      "stateMutability": "view",
      "type": "function"
    },
    {
      "constant": true,
      "inputs": [
        {
          "name": "userName",
          "type": "string"
        }
      ],
      "name": "getUserByName",
      "outputs": [
        {
          "name": "casedUserName",
          "type": "string"
        },
        {
          "name": "userAddress",
          "type": "address"
        }
      ],
      "payable": false,
      "stateMutability": "view",
      "type": "function"
    },
    {
      "constant": true,
      "inputs": [
        {
          "name": "_address",
          "type": "address"
        }
      ],
      "name": "getUserByAddress",
      "outputs": [
        {
          "name": "casedUserName",
          "type": "string"
        }
      ],
      "payable": false,
      "stateMutability": "view",
      "type": "function"
    },
    {
      "constant": true,
      "inputs": [
        {
          "name": "_address",
          "type": "address"
        },
        {
          "name": "messageHash",
          "type": "bytes32"
        },
        {
          "name": "v",
          "type": "uint8"
        },
        {
          "name": "r",
          "type": "bytes32"
        },
        {
          "name": "s",
          "type": "bytes32"
        }
      ],
      "name": "isSigned",
      "outputs": [
        {
          "name": "",
          "type": "bool"
        }
      ],
      "payable": false,
      "stateMutability": "pure",
      "type": "function"
    }
  ],
  "bytecode": "0x608060405260008054600160a060020a03191633179055611b2d806100256000396000f3006080604052600436106100cc5763ffffffff60e060020a600035041663026ff05e81146100d15780632b45bcf9146100e85780632e5df0fe1461010f57806345004310146101855780634bff5009146101de57806369c212f6146102c857806375d7e4bd1461035e57806385ba9a991461038f5780638677ebe8146103aa5780638da5cb5b146103ee578063af933b5714610403578063ba75d0de14610424578063bed7437f14610439578063d35e656b1461045a578063ecfbe70c146104b3578063f2fde38b146104da575b600080fd5b3480156100dd57600080fd5b506100e66104fb565b005b3480156100f457600080fd5b506100fd610714565b60408051918252519081900360200190f35b34801561011b57600080fd5b506040805160206004803580820135601f81018490048402850184019095528484526100e694369492936024939284019190819084018382808284375094975050508335600160a060020a03169450505050602081013560ff16906040810135906060013561071a565b34801561019157600080fd5b506040805160206004803580820135601f81018490048402850184019095528484526100e69436949293602493928401919081908401838280828437509497506109449650505050505050565b3480156101ea57600080fd5b506040805160206004803580820135601f8101849004840285018401909552848452610237943694929360249392840191908190840183828082843750949750610a469650505050505050565b604051808060200183600160a060020a0316600160a060020a03168152602001828103825284818151815260200191508051906020019080838360005b8381101561028c578181015183820152602001610274565b50505050905090810190601f1680156102b95780820380516001836020036101000a031916815260200191505b50935050505060405180910390f35b3480156102d457600080fd5b506102e9600160a060020a0360043516610c30565b6040805160208082528351818301528351919283929083019185019080838360005b8381101561032357818101518382015260200161030b565b50505050905090810190601f1680156103505780820380516001836020036101000a031916815260200191505b509250505060405180910390f35b34801561036a57600080fd5b50610373610d4b565b60408051600160a060020a039092168252519081900360200190f35b34801561039b57600080fd5b506100e6600435602435610d5a565b3480156103b657600080fd5b506103da600160a060020a036004351660243560ff60443516606435608435610eba565b604080519115158252519081900360200190f35b3480156103fa57600080fd5b50610373610ee6565b34801561040f57600080fd5b506100e6600160a060020a0360043516610ef5565b34801561043057600080fd5b506100fd610f46565b34801561044557600080fd5b506100e6600160a060020a0360043516610f4c565b34801561046657600080fd5b506040805160206004803580820135601f81018490048402850184019095528484526103da943694929360249392840191908190840183828082843750949750610f929650505050505050565b3480156104bf57600080fd5b506100e6600160a060020a0360043581169060243516611072565b3480156104e657600080fd5b506100e6600160a060020a03600435166111a2565b33600090815260056020526040902054606061051682611236565b1515610592576040805160e560020a62461bcd02815260206004820152602b60248201527f4e6f2075736572206173736f6369617465642077697468207468652073656e6460448201527f657220616464726573732e000000000000000000000000000000000000000000606482015290519081900360840190fd5b60008281526004602090815260409182902080548351601f6002610100600185161502600019019093169290920491820184900484028101840190945280845290918301828280156106255780601f106105fa57610100808354040283529160200191610625565b820191906000526020600020905b81548152906001019060200180831161060857829003601f168201915b5050336000908152600560209081526040808320839055888352600490915281209495509250610659915083905082611a0c565b50600101805473ffffffffffffffffffffffffffffffffffffffff1916905560408051602080825283518183015283517f28f7ad4961343bc792aec8e7886fc38c6847f9cd253ec14a633ff3bed8370883938593928392918301919085019080838360005b838110156106d65781810151838201526020016106be565b50505050905090810190601f1680156107035780820380516001836020036101000a031916815260200191505b509250505060405180910390a15050565b60025481565b600354600154604080517f70a0823100000000000000000000000000000000000000000000000000000000815233600482018190529151919392600160a060020a031691839183916370a08231916024808201926020929091908290030181600087803b15801561078a57600080fd5b505af115801561079e573d6000803e3d6000fd5b505050506040513d60208110156107b457600080fd5b5051101561080c576040805160e560020a62461bcd02815260206004820152601b60248201527f496e73756666696369656e7420485944524f2062616c616e63652e0000000000604482015290519081900360640190fd5b6108da8760405160200180807f437265617465205261696e64726f70436c69656e7420487964726f204163636f81526020017f756e74000000000000000000000000000000000000000000000000000000000081525060230190506040516020818303038152906040526040518082805190602001908083835b602083106108a55780518252601f199092019160209182019101610886565b6001836020036101000a0380198251168184511680821785525050505050509050019150506040518091039020888888610eba565b1515610930576040805160e560020a62461bcd02815260206004820152601260248201527f5065726d697373696f6e2064656e6965642e0000000000000000000000000000604482015290519081900360640190fd5b61093a8888611259565b5050505050505050565b600254600154604080517f70a0823100000000000000000000000000000000000000000000000000000000815233600482018190529151919392600160a060020a031691839183916370a08231916024808201926020929091908290030181600087803b1580156109b457600080fd5b505af11580156109c8573d6000803e3d6000fd5b505050506040513d60208110156109de57600080fd5b50511015610a36576040805160e560020a62461bcd02815260206004820152601b60248201527f496e73756666696369656e7420485944524f2062616c616e63652e0000000000604482015290519081900360640190fd5b610a408433611259565b50505050565b6060600080610a54846115f4565b6040516020018082805190602001908083835b60208310610a865780518252601f199092019160209182019101610a67565b6001836020036101000a0380198251168184511680821785525050505050509050019150506040516020818303038152906040526040518082805190602001908083835b60208310610ae95780518252601f199092019160209182019101610aca565b6001836020036101000a03801982511681845116808217855250505050505090500191505060405180910390209050610b2181611236565b1515610b77576040805160e560020a62461bcd02815260206004820152601460248201527f5573657220646f6573206e6f742065786973742e000000000000000000000000604482015290519081900360640190fd5b60008181526004602090815260409182902060018082015482548551601f6002948316156101000260001901909216939093049081018590048502830185019095528482529193600160a060020a039092169290918491830182828015610c1f5780601f10610bf457610100808354040283529160200191610c1f565b820191906000526020600020905b815481529060010190602001808311610c0257829003601f168201915b505050505091509250925050915091565b600160a060020a038116600090815260056020526040902054606090610c5581611236565b1515610cab576040805160e560020a62461bcd02815260206004820152601460248201527f5573657220646f6573206e6f742065786973742e000000000000000000000000604482015290519081900360640190fd5b60008181526004602090815260409182902080548351601f600261010060018516150260001901909316929092049182018490048402810184019094528084529091830182828015610d3e5780601f10610d1357610100808354040283529160200191610d3e565b820191906000526020600020905b815481529060010190602001808311610d2157829003601f168201915b5050505050915050919050565b600154600160a060020a031681565b60008054600160a060020a03163314610d7257600080fd5b50600154600160a060020a0316692f0eadc3216237780000831115610de1576040805160e560020a62461bcd02815260206004820152601260248201527f5374616b6520697320746f6f20686967682e0000000000000000000000000000604482015290519081900360640190fd5b606481600160a060020a03166318160ddd6040518163ffffffff1660e060020a028152600401602060405180830381600087803b158015610e2157600080fd5b505af1158015610e35573d6000803e3d6000fd5b505050506040513d6020811015610e4b57600080fd5b5051811515610e5657fe5b04821115610eae576040805160e560020a62461bcd02815260206004820152601260248201527f5374616b6520697320746f6f20686967682e0000000000000000000000000000604482015290519081900360640190fd5b50600291909155600355565b6000610ec98686868686611679565b80610edc5750610edc86868686866116fe565b9695505050505050565b600054600160a060020a031681565b600054600160a060020a03163314610f0c57600080fd5b604051600160a060020a03821690303180156108fc02916000818181858888f19350505050158015610f42573d6000803e3d6000fd5b5050565b60035481565b600054600160a060020a03163314610f6357600080fd5b6001805473ffffffffffffffffffffffffffffffffffffffff1916600160a060020a0392909216919091179055565b600080610f9e836115f4565b6040516020018082805190602001908083835b60208310610fd05780518252601f199092019160209182019101610fb1565b6001836020036101000a0380198251168184511680821785525050505050509050019150506040516020818303038152906040526040518082805190602001908083835b602083106110335780518252601f199092019160209182019101611014565b6001836020036101000a0380198251168184511680821785525050505050509050019150506040518091039020905061106b81611236565b9392505050565b60008054600160a060020a0316331461108a57600080fd5b50604080517f70a0823100000000000000000000000000000000000000000000000000000000815230600482015290518391600160a060020a0383169163a9059cbb91859184916370a082319160248083019260209291908290030181600087803b1580156110f857600080fd5b505af115801561110c573d6000803e3d6000fd5b505050506040513d602081101561112257600080fd5b50516040805160e060020a63ffffffff8616028152600160a060020a03909316600484015260248301919091525160448083019260209291908290030181600087803b15801561117157600080fd5b505af1158015611185573d6000803e3d6000fd5b505050506040513d602081101561119b57600080fd5b5050505050565b600054600160a060020a031633146111b957600080fd5b600160a060020a03811615156111ce57600080fd5b60008054604051600160a060020a03808516939216917f8be0079c531659141344cd1fd0a4f28419497f9722a3daafe3b4186f6b6457e091a36000805473ffffffffffffffffffffffffffffffffffffffff1916600160a060020a0392909216919091179055565b600081815260046020526040902060010154600160a060020a031615155b919050565b600160a060020a03811660009081526005602052604081205461127b90611236565b156112d0576040805160e560020a62461bcd02815260206004820152601b60248201527f4164647265737320616c726561647920726567697374657265642e0000000000604482015290519081900360640190fd5b8251601f11611329576040805160e560020a62461bcd02815260206004820152601260248201527f557365726e616d6520746f6f206c6f6e672e0000000000000000000000000000604482015290519081900360640190fd5b8251600310611382576040805160e560020a62461bcd02815260206004820152601360248201527f557365726e616d6520746f6f2073686f72742e00000000000000000000000000604482015290519081900360640190fd5b6113a361139e61139961139486611872565b611898565b6118be565b6115f4565b6040516020018082805190602001908083835b602083106113d55780518252601f1990920191602091820191016113b6565b6001836020036101000a0380198251168184511680821785525050505050509050019150506040516020818303038152906040526040518082805190602001908083835b602083106114385780518252601f199092019160209182019101611419565b6001836020036101000a0380198251168184511680821785525050505050509050019150506040518091039020905061147081611236565b156114c5576040805160e560020a62461bcd02815260206004820152600f60248201527f557365726e616d652074616b656e2e0000000000000000000000000000000000604482015290519081900360640190fd5b604080518082018252848152600160a060020a0384166020808301919091526000848152600482529290922081518051929391926115069284920190611a53565b50602091820151600191909101805473ffffffffffffffffffffffffffffffffffffffff1916600160a060020a039283161790558316600081815260058352604080822085905580518085019390935280835286519083015285517fbfba570579dd015aeb3054b92f73b1704ea3990bff6ef0ad798dcc17ddf12e51938793879390928392606084019290870191908190849084905b838110156115b457818101518382015260200161159c565b50505050905090810190601f1680156115e15780820380516001836020036101000a031916815260200191505b50935050505060405180910390a1505050565b60608160005b81518110156116725761162c828281518110151561161457fe5b90602001015160f860020a900460f860020a02611911565b828281518110151561163a57fe5b9060200101907effffffffffffffffffffffffffffffffffffffffffffffffffffffffffffff1916908160001a9053506001016115fa565b5092915050565b604080516000808252602080830180855288905260ff871683850152606083018690526080830185905292519092600160a060020a0389169260019260a08083019392601f19830192908190039091019087865af11580156116df573d6000803e3d6000fd5b50505060206040510351600160a060020a031614905095945050505050565b604080518082018252601c8082527f19457468657265756d205369676e6564204d6573736167653a0a33320000000060208084019182529351600094859385938b939092019182918083835b602083106117695780518252601f19909201916020918201910161174a565b51815160209384036101000a600019018019909216911617905292019384525060408051808503815293820190819052835193945092839250908401908083835b602083106117c95780518252601f1990920191602091820191016117aa565b51815160209384036101000a600019018019909216911617905260408051929094018290038220600080845283830180875282905260ff8e1684870152606084018d9052608084018c90529451909750600160a060020a038f1696506001955060a080840195929450601f198201938290030191865af1158015611851573d6000803e3d6000fd5b50505060206040510351600160a060020a0316149250505095945050505050565b61187a611acd565b50604080518082019091528151815260209182019181019190915290565b6118a0611acd565b50604080518082019091528151815260208083015190820152919050565b606080600083600001516040519080825280601f01601f1916602001820160405280156118f5578160200160208202803883390190505b50915060208201905061167281856020015186600001516119c8565b60007f41000000000000000000000000000000000000000000000000000000000000007fff000000000000000000000000000000000000000000000000000000000000008316108015906119a757507f5a000000000000000000000000000000000000000000000000000000000000007fff00000000000000000000000000000000000000000000000000000000000000831611155b156119c4578160f860020a900460200160f860020a029050611254565b5090565b60005b602082106119ed578251845260209384019390920191601f19909101906119cb565b50905182516020929092036101000a6000190180199091169116179052565b50805460018160011615610100020316600290046000825580601f10611a325750611a50565b601f016020900490600052602060002090810190611a509190611ae4565b50565b828054600181600116156101000203166002900490600052602060002090601f016020900481019282601f10611a9457805160ff1916838001178555611ac1565b82800160010185558215611ac1579182015b82811115611ac1578251825591602001919060010190611aa6565b506119c4929150611ae4565b604080518082019091526000808252602082015290565b611afe91905b808211156119c45760008155600101611aea565b905600a165627a7a72305820539362f7a4b4bc0a8beb48e1628f3e91b9e9d2157d2dfe492df5a0226853874a0029",
  "source": "pragma solidity ^0.4.23;\n\nimport \"./Withdrawable.sol\";\nimport \"./libraries/StringUtils.sol\";\n\n\ncontract ClientRaindrop is Withdrawable {\n    // attach the StringUtils library\n    using StringUtils for string;\n    using StringUtils for StringUtils.slice;\n    // Events for when a user signs up for Raindrop Client and when their account is deleted\n    event UserSignUp(string casedUserName, address userAddress);\n    event UserDeleted(string casedUserName);\n\n    // Variables allowing this contract to interact with the Hydro token\n    address public hydroTokenAddress;\n    uint public minimumHydroStakeUser;\n    uint public minimumHydroStakeDelegatedUser;\n\n    // User account template\n    struct User {\n        string casedUserName;\n        address userAddress;\n    }\n\n    // Mapping from hashed uncased names to users (primary User directory)\n    mapping (bytes32 => User) internal userDirectory;\n    // Mapping from addresses to hashed uncased names (secondary directory for account recovery based on address)\n    mapping (address => bytes32) internal addressDirectory;\n\n    // Requires an address to have a minimum number of Hydro\n    modifier requireStake(address _address, uint stake) {\n        ERC20Basic hydro = ERC20Basic(hydroTokenAddress);\n        require(hydro.balanceOf(_address) >= stake, \"Insufficient HYDRO balance.\");\n        _;\n    }\n\n    // Allows applications to sign up users on their behalf iff users signed their permission\n    function signUpDelegatedUser(string casedUserName, address userAddress, uint8 v, bytes32 r, bytes32 s)\n        public\n        requireStake(msg.sender, minimumHydroStakeDelegatedUser)\n    {\n        require(\n            isSigned(userAddress, keccak256(abi.encodePacked(\"Create RaindropClient Hydro Account\")), v, r, s),\n            \"Permission denied.\"\n        );\n        _userSignUp(casedUserName, userAddress);\n    }\n\n    // Allows users to sign up with their own address\n    function signUpUser(string casedUserName) public requireStake(msg.sender, minimumHydroStakeUser) {\n        return _userSignUp(casedUserName, msg.sender);\n    }\n\n    // Allows users to delete their accounts\n    function deleteUser() public {\n        bytes32 uncasedUserNameHash = addressDirectory[msg.sender];\n        require(initialized(uncasedUserNameHash), \"No user associated with the sender address.\");\n\n        string memory casedUserName = userDirectory[uncasedUserNameHash].casedUserName;\n\n        delete addressDirectory[msg.sender];\n        delete userDirectory[uncasedUserNameHash];\n\n        emit UserDeleted(casedUserName);\n    }\n\n    // Allows the Hydro API to link to the Hydro token\n    function setHydroTokenAddress(address _hydroTokenAddress) public onlyOwner {\n        hydroTokenAddress = _hydroTokenAddress;\n    }\n\n    // Allows the Hydro API to set minimum hydro balances required for sign ups\n    function setMinimumHydroStakes(uint newMinimumHydroStakeUser, uint newMinimumHydroStakeDelegatedUser)\n        public onlyOwner\n    {\n        ERC20Basic hydro = ERC20Basic(hydroTokenAddress);\n        // <= the airdrop amount\n        require(newMinimumHydroStakeUser <= (222222 * 10**18), \"Stake is too high.\");\n        // <= 1% of total supply\n        require(newMinimumHydroStakeDelegatedUser <= (hydro.totalSupply() / 100), \"Stake is too high.\");\n        minimumHydroStakeUser = newMinimumHydroStakeUser;\n        minimumHydroStakeDelegatedUser = newMinimumHydroStakeDelegatedUser;\n    }\n\n    // Returns a bool indicating whether a given userName has been claimed (either exactly or as any case-variant)\n    function userNameTaken(string userName) public view returns (bool taken) {\n        bytes32 uncasedUserNameHash = keccak256(abi.encodePacked(userName.lower()));\n        return initialized(uncasedUserNameHash);\n    }\n\n    // Returns user details (including cased username) by any cased/uncased user name that maps to a particular user\n    function getUserByName(string userName) public view returns (string casedUserName, address userAddress) {\n        bytes32 uncasedUserNameHash = keccak256(abi.encodePacked(userName.lower()));\n        require(initialized(uncasedUserNameHash), \"User does not exist.\");\n\n        return (userDirectory[uncasedUserNameHash].casedUserName, userDirectory[uncasedUserNameHash].userAddress);\n    }\n\n    // Returns user details by user address\n    function getUserByAddress(address _address) public view returns (string casedUserName) {\n        bytes32 uncasedUserNameHash = addressDirectory[_address];\n        require(initialized(uncasedUserNameHash), \"User does not exist.\");\n\n        return userDirectory[uncasedUserNameHash].casedUserName;\n    }\n\n    // Checks whether the provided (v, r, s) signature was created by the private key associated with _address\n    function isSigned(address _address, bytes32 messageHash, uint8 v, bytes32 r, bytes32 s) public pure returns (bool) {\n        return (_isSigned(_address, messageHash, v, r, s) || _isSignedPrefixed(_address, messageHash, v, r, s));\n    }\n\n    // Checks unprefixed signatures\n    function _isSigned(address _address, bytes32 messageHash, uint8 v, bytes32 r, bytes32 s)\n        internal\n        pure\n        returns (bool)\n    {\n        return ecrecover(messageHash, v, r, s) == _address;\n    }\n\n    // Checks prefixed signatures (e.g. those created with web3.eth.sign)\n    function _isSignedPrefixed(address _address, bytes32 messageHash, uint8 v, bytes32 r, bytes32 s)\n        internal\n        pure\n        returns (bool)\n    {\n        bytes memory prefix = \"\\x19Ethereum Signed Message:\\n32\";\n        bytes32 prefixedMessageHash = keccak256(abi.encodePacked(prefix, messageHash));\n\n        return ecrecover(prefixedMessageHash, v, r, s) == _address;\n    }\n\n    // Common internal logic for all user signups\n    function _userSignUp(string casedUserName, address userAddress) internal {\n        require(!initialized(addressDirectory[userAddress]), \"Address already registered.\");\n\n        require(bytes(casedUserName).length < 31, \"Username too long.\");\n        require(bytes(casedUserName).length > 3, \"Username too short.\");\n\n        bytes32 uncasedUserNameHash = keccak256(abi.encodePacked(casedUserName.toSlice().copy().toString().lower()));\n        require(!initialized(uncasedUserNameHash), \"Username taken.\");\n\n        userDirectory[uncasedUserNameHash] = User(casedUserName, userAddress);\n        addressDirectory[userAddress] = uncasedUserNameHash;\n\n        emit UserSignUp(casedUserName, userAddress);\n    }\n\n    function initialized(bytes32 uncasedUserNameHash) internal view returns (bool) {\n        return userDirectory[uncasedUserNameHash].userAddress != 0x0; // a sufficient initialization check\n    }\n}\n",
  "sourcePath": "/Users/noahzinsmeister/Documents/github/smart-contracts/snowflake-poc/contracts/_testing/ClientRaindrop.sol",
  "compiler": {
    "name": "solc",
    "version": "0.4.24+commit.e67f0147.Emscripten.clang"
  },
  "schemaVersion": "2.0.0",
  "updatedAt": "2018-06-04T21:18:07.015Z"
}