{
  "contractName": "HydroReputation",
  "abi": [
    {
      "constant": true,
      "inputs": [],
      "name": "owner",
      "outputs": [
        {
          "name": "",
          "type": "address"
        }
      ],
      "payable": false,
      "stateMutability": "view",
      "type": "function"
    },
    {
      "constant": false,
      "inputs": [
        {
          "name": "_address",
          "type": "address"
        }
      ],
      "name": "setSnowflakeAddress",
      "outputs": [],
      "payable": false,
      "stateMutability": "nonpayable",
      "type": "function"
    },
    {
      "constant": true,
      "inputs": [
        {
          "name": "",
          "type": "address"
        },
        {
          "name": "",
          "type": "uint256"
        }
      ],
      "name": "addedReputationsList",
      "outputs": [
        {
          "name": "",
          "type": "string"
        }
      ],
      "payable": false,
      "stateMutability": "view",
      "type": "function"
    },
    {
      "constant": false,
      "inputs": [
        {
          "name": "newOwner",
          "type": "address"
        }
      ],
      "name": "transferOwnership",
      "outputs": [],
      "payable": false,
      "stateMutability": "nonpayable",
      "type": "function"
    },
    {
      "anonymous": false,
      "inputs": [
        {
          "indexed": true,
          "name": "previousOwner",
          "type": "address"
        },
        {
          "indexed": true,
          "name": "newOwner",
          "type": "address"
        }
      ],
      "name": "OwnershipTransferred",
      "type": "event"
    },
    {
      "constant": false,
      "inputs": [],
      "name": "joinHydroReputation",
      "outputs": [],
      "payable": false,
      "stateMutability": "nonpayable",
      "type": "function"
    },
    {
      "constant": false,
      "inputs": [
        {
          "name": "_field",
          "type": "string"
        }
      ],
      "name": "addReputationField",
      "outputs": [],
      "payable": false,
      "stateMutability": "nonpayable",
      "type": "function"
    },
    {
      "constant": false,
      "inputs": [
        {
          "name": "_user",
          "type": "address"
        },
        {
          "name": "_field",
          "type": "string"
        }
      ],
      "name": "attestToReputation",
      "outputs": [],
      "payable": false,
      "stateMutability": "nonpayable",
      "type": "function"
    },
    {
      "constant": true,
      "inputs": [
        {
          "name": "_user",
          "type": "address"
        },
        {
          "name": "_field",
          "type": "string"
        }
      ],
      "name": "getReputation",
      "outputs": [
        {
          "name": "",
          "type": "uint256"
        }
      ],
      "payable": false,
      "stateMutability": "view",
      "type": "function"
    },
    {
      "constant": true,
      "inputs": [
        {
          "name": "_user",
          "type": "address"
        },
        {
          "name": "_field",
          "type": "string"
        }
      ],
      "name": "alreadyAttested",
      "outputs": [
        {
          "name": "",
          "type": "bool"
        }
      ],
      "payable": false,
      "stateMutability": "view",
      "type": "function"
    },
    {
      "constant": true,
      "inputs": [
        {
          "name": "_user",
          "type": "address"
        },
        {
          "name": "_field",
          "type": "string"
        }
      ],
      "name": "addedRepLookup",
      "outputs": [
        {
          "name": "",
          "type": "uint256"
        }
      ],
      "payable": false,
      "stateMutability": "view",
      "type": "function"
    }
  ],
  "bytecode": "0x608060405260008054600160a060020a03191633179055611314806100256000396000f3006080604052600436106100a35763ffffffff7c01000000000000000000000000000000000000000000000000000000006000350416633279af3c81146100a857806341046c1c146101215780634c4f34731461019c5780635f53a354146101b35780638da5cb5b1461021a578063c6ad6cf21461024b578063c979b05a146102a4578063d5fc6484146102c5578063ea05eeb91461035e578063f2fde38b146103c5575b600080fd5b3480156100b457600080fd5b5060408051602060046024803582810135601f810185900485028601850190965285855261010f958335600160a060020a03169536956044949193909101919081908401838280828437509497506103e69650505050505050565b60408051918252519081900360200190f35b34801561012d57600080fd5b5060408051602060046024803582810135601f8101859004850286018501909652858552610188958335600160a060020a03169536956044949193909101919081908401838280828437509497506106049650505050505050565b604080519115158252519081900360200190f35b3480156101a857600080fd5b506101b16106c8565b005b3480156101bf57600080fd5b5060408051602060046024803582810135601f81018590048502860185019096528585526101b1958335600160a060020a03169536956044949193909101919081908401838280828437509497506107729650505050505050565b34801561022657600080fd5b5061022f610b88565b60408051600160a060020a039092168252519081900360200190f35b34801561025757600080fd5b506040805160206004803580820135601f81018490048402850184019095528484526101b1943694929360249392840191908190840183828082843750949750610b979650505050505050565b3480156102b057600080fd5b506101b1600160a060020a0360043516610f8c565b3480156102d157600080fd5b506102e9600160a060020a0360043516602435610fd2565b6040805160208082528351818301528351919283929083019185019080838360005b8381101561032357818101518382015260200161030b565b50505050905090810190601f1680156103505780820380516001836020036101000a031916815260200191505b509250505060405180910390f35b34801561036a57600080fd5b5060408051602060046024803582810135601f810185900485028601850190965285855261010f958335600160a060020a03169536956044949193909101919081908401838280828437509497506110889650505050505050565b3480156103d157600080fd5b506101b1600160a060020a0360043516611108565b600160a060020a0382166000908152600460205260408120548190151561047d576040805160e560020a62461bcd02815260206004820152602a60248201527f5468652075736572206d757374206a6f696e207468652072657075746174696f60448201527f6e2070726f6772616d2e00000000000000000000000000000000000000000000606482015290519081900360840190fd5b600160a060020a0384166000908152600660209081526040808320905186519192879282918401908083835b602083106104c85780518252601f1990920191602091820191016104a9565b51815160209384036101000a60001901801990921691161790529201948552506040519384900301909220549290921191506105509050576040805160e560020a62461bcd02815260206004820152601e60248201527f54686973206669656c6420686173206e6f74206265656e2061646465642e0000604482015290519081900360640190fd5b6004600085600160a060020a0316600160a060020a03168152602001908152602001600020600201836040518082805190602001908083835b602083106105a85780518252601f199092019160209182019101610589565b51815160209384036101000a600019018019909216911617905292019485525060405193849003019092206001015460078054919450925083915081106105eb57fe5b6000918252602090912060029091020154949350505050565b600060076004600085600160a060020a0316600160a060020a03168152602001908152602001600020600201836040518082805190602001908083835b602083106106605780518252601f199092019160209182019101610641565b51815160209384036101000a600019018019909216911617905292019485525060405193849003019092206001015483549092508210905061069e57fe5b600091825260208083203384526002929092029091016001019052604090205460ff169392505050565b600354604080517f0ce5aeef0000000000000000000000000000000000000000000000000000000081523360048201529051600160a060020a03909216916000918391630ce5aeef9160248082019260209290919082900301818787803b15801561073257600080fd5b505af1158015610746573d6000803e3d6000fd5b505050506040513d602081101561075c57600080fd5b5051336000908152600460205260409020555050565b3360009081526004602052604081205481901515610800576040805160e560020a62461bcd02815260206004820152602560248201527f596f75206d757374206a6f696e207468652072657075746174696f6e2070726f60448201527f6772616d2e000000000000000000000000000000000000000000000000000000606482015290519081900360840190fd5b600160a060020a0384166000908152600460205260409020541515610895576040805160e560020a62461bcd02815260206004820152602a60248201527f5468652075736572206d757374206a6f696e207468652072657075746174696f60448201527f6e2070726f6772616d2e00000000000000000000000000000000000000000000606482015290519081900360840190fd5b600160a060020a0384166000908152600660209081526040808320905186519192879282918401908083835b602083106108e05780518252601f1990920191602091820191016108c1565b51815160209384036101000a60001901801990921691161790529201948552506040519384900301909220549290921191506109689050576040805160e560020a62461bcd02815260206004820152601e60248201527f54686973206669656c6420686173206e6f74206265656e2061646465642e0000604482015290519081900360640190fd5b60076004600086600160a060020a0316600160a060020a03168152602001908152602001600020600201846040518082805190602001908083835b602083106109c25780518252601f1990920191602091820191016109a3565b51815160209384036101000a6000190180199092169116179052920194855250604051938490030190922060010154835490925082109050610a0057fe5b600091825260208083203384526001600290930201919091019052604090205460ff1615610a2d57600080fd5b60016006600086600160a060020a0316600160a060020a03168152602001908152602001600020846040518082805190602001908083835b60208310610a845780518252601f199092019160209182019101610a65565b51815160209384036101000a60001901801990921691161790529201948552506040805194859003820190942054600160a060020a038a16600090815260049092529390206001018054949093039550919285925082109050610ae357fe5b9060005260206000209060020201600101549050600781815481101515610b0657fe5b6000918252602080832060029092029091018054600181810183559184529190922001805473ffffffffffffffffffffffffffffffffffffffff1916331790556007805483908110610b5457fe5b60009182526020808320338452600292909202909101600101905260409020805460ff191691151591909117905550505050565b600054600160a060020a031681565b6000610ba161119c565b336000908152600460205260408120541515610c2d576040805160e560020a62461bcd02815260206004820152602560248201527f596f75206d757374206a6f696e207468652072657075746174696f6e2070726f60448201527f6772616d2e000000000000000000000000000000000000000000000000000000606482015290519081900360840190fd5b336000908152600660209081526040918290209151865187928291908401908083835b60208310610c6f5780518252601f199092019160209182019101610c50565b51815160209384036101000a6000190180199092169116179052920194855250604051938490030190922054159150610cf49050576040805160e560020a62461bcd02815260206004820152601e60248201527f54686973206669656c6420686173206e6f74206265656e2061646465642e0000604482015290519081900360640190fd5b33600090815260056020908152604082208054600181018083559184529282902087519193610d2993910191908801906111ae565b509250826006600033600160a060020a0316600160a060020a03168152602001908152602001600020856040518082805190602001908083835b60208310610d825780518252601f199092019160209182019101610d63565b51815160001960209485036101000a019081169019919091161790529201948552506040519384900381019093209390935550600780546001818101808455600093909352865180519195509293879360029093027fa66cc928b5edb82af9bd49922954155ab7b0942694bea4ce44661d9a8736c6880192610e0a928492919091019061122c565b505033600090815260046020908152604080832081518083019092528a8252959094038482018190526001958601805496870180825590845292829020855180519298509396600202019350610e6392849201906111ae565b506020918201516001909101553360009081526004825260409081902090518751889450600290920192849282918401908083835b60208310610eb75780518252601f199092019160209182019101610e98565b51815160209384036101000a60001901801990921691161790529201948552506040519384900381019093208451610ef895919491909101925090506111ae565b50806004600033600160a060020a0316600160a060020a03168152602001908152602001600020600201856040518082805190602001908083835b60208310610f525780518252601f199092019160209182019101610f33565b51815160209384036101000a6000190180199092169116179052920194855250604051938490030190922060010192909255505050505050565b600054600160a060020a03163314610fa357600080fd5b6003805473ffffffffffffffffffffffffffffffffffffffff1916600160a060020a0392909216919091179055565b600560205281600052604060002081815481101515610fed57fe5b600091825260209182902001805460408051601f600260001961010060018716150201909416939093049283018590048502810185019091528181529450909250908301828280156110805780601f1061105557610100808354040283529160200191611080565b820191906000526020600020905b81548152906001019060200180831161106357829003601f168201915b505050505081565b600160a060020a0382166000908152600660209081526040808320905184519192859282918401908083835b602083106110d35780518252601f1990920191602091820191016110b4565b51815160209384036101000a600019018019909216911617905292019485525060405193849003019092205495945050505050565b600054600160a060020a0316331461111f57600080fd5b600160a060020a038116151561113457600080fd5b60008054604051600160a060020a03808516939216917f8be0079c531659141344cd1fd0a4f28419497f9722a3daafe3b4186f6b6457e091a36000805473ffffffffffffffffffffffffffffffffffffffff1916600160a060020a0392909216919091179055565b60408051602081019091526060815290565b828054600181600116156101000203166002900490600052602060002090601f016020900481019282601f106111ef57805160ff191683800117855561121c565b8280016001018555821561121c579182015b8281111561121c578251825591602001919060010190611201565b5061122892915061129a565b5090565b82805482825590600052602060002090810192821561128e579160200282015b8281111561128e578251825473ffffffffffffffffffffffffffffffffffffffff1916600160a060020a0390911617825560209092019160019091019061124c565b506112289291506112b7565b6112b491905b8082111561122857600081556001016112a0565b90565b6112b491905b8082111561122857805473ffffffffffffffffffffffffffffffffffffffff191681556001016112bd5600a165627a7a7230582080fef98698e3b3ad93e4645091fe50c6b4cfefa959354d95e0a213296ee268860029",
  "source": "pragma solidity ^0.4.23;\n\nimport \"./SnowflakeResolver.sol\";\n\n\ncontract Snowflake {\n    function ownerToToken(address _sender) public view returns(uint256);\n}\n\n\ncontract HydroReputation is SnowflakeResolver {\n    struct AddressGroup {\n        address[] addressList;\n        mapping (address => bool) addressLookup;\n    }\n\n    mapping (address => Reputation) internal reputationList;\n    mapping (address => string[]) public addedReputationsList;\n    mapping (address => mapping(string => uint)) internal addedReputationsLookup;\n\n    AddressGroup[] internal addresses;\n\n    struct Reputation {\n        uint256 identityTokenId;\n        ReputationField[] reputationFieldsList;\n        mapping(string => ReputationField) reputationFieldsLookup;\n    }\n\n    struct ReputationField {\n        string fieldName;\n        uint256 addressGroupIndex;\n    }\n\n    function joinHydroReputation() public {\n        Snowflake snowflake = Snowflake(snowflakeAddress);\n        uint256 tokenId = snowflake.ownerToToken(msg.sender);\n        reputationList[msg.sender].identityTokenId = tokenId;\n    }\n\n    function addReputationField(string _field) public {\n        require(reputationList[msg.sender].identityTokenId != 0, \"You must join the reputation program.\");\n        require(addedReputationsLookup[msg.sender][_field] == 0, \"This field has not been added.\");\n\n        uint256 id = addedReputationsList[msg.sender].push(_field);\n        addedReputationsLookup[msg.sender][_field] = id;\n        AddressGroup memory group;\n        uint256 addressListId = addresses.push(group) - 1;\n        reputationList[msg.sender].reputationFieldsList.push(ReputationField(_field, addressListId));\n        reputationList[msg.sender].reputationFieldsLookup[_field].fieldName = _field;\n        reputationList[msg.sender].reputationFieldsLookup[_field].addressGroupIndex = addressListId;\n    }\n\n    function attestToReputation(address _user, string _field) public {\n        require(reputationList[msg.sender].identityTokenId != 0, \"You must join the reputation program.\");\n        require(reputationList[_user].identityTokenId != 0, \"The user must join the reputation program.\");\n        require(addedReputationsLookup[_user][_field] > 0, \"This field has not been added.\");\n\n        require(\n            !addresses[reputationList[_user].reputationFieldsLookup[_field].addressGroupIndex].addressLookup[msg.sender]\n        );\n\n        uint256 id = addedReputationsLookup[_user][_field] - 1;\n        uint addressId = reputationList[_user].reputationFieldsList[id].addressGroupIndex;\n        addresses[addressId].addressList.push(msg.sender);\n        addresses[addressId].addressLookup[msg.sender] = true;\n    }\n\n    function getReputation(address _user, string _field) public view returns(uint) {\n        require(reputationList[_user].identityTokenId != 0, \"The user must join the reputation program.\");\n        require(addedReputationsLookup[_user][_field] > 0, \"This field has not been added.\");\n        uint addressId = reputationList[_user].reputationFieldsLookup[_field].addressGroupIndex;\n        return addresses[addressId].addressList.length;\n    }\n\n    function alreadyAttested(address _user, string _field) public view returns(bool) {\n        return addresses[reputationList[_user]\n            .reputationFieldsLookup[_field].addressGroupIndex].addressLookup[msg.sender];\n    }\n\n    function addedRepLookup(address _user, string _field) public view returns(uint) {\n        return addedReputationsLookup[_user][_field];\n    }\n\n}\n",
  "sourcePath": "/Users/noahzinsmeister/Documents/github/smart-contracts/snowflake-poc/contracts/resolvers/HydroReputation.sol",
  "compiler": {
    "name": "solc",
    "version": "0.4.24+commit.e67f0147.Emscripten.clang"
  },
  "schemaVersion": "2.0.0",
  "updatedAt": "2018-06-06T20:00:08.210Z"
}