{
  "contractName": "HydroRepuation",
  "abi": [
    {
      "constant": true,
      "inputs": [],
      "name": "owner",
      "outputs": [
        {
          "name": "",
          "type": "address"
        }
      ],
      "payable": false,
      "stateMutability": "view",
      "type": "function"
    },
    {
      "constant": false,
      "inputs": [
        {
          "name": "newOwner",
          "type": "address"
        }
      ],
      "name": "transferOwnership",
      "outputs": [],
      "payable": false,
      "stateMutability": "nonpayable",
      "type": "function"
    },
    {
      "anonymous": false,
      "inputs": [
        {
          "indexed": true,
          "name": "previousOwner",
          "type": "address"
        },
        {
          "indexed": true,
          "name": "newOwner",
          "type": "address"
        }
      ],
      "name": "OwnershipTransferred",
      "type": "event"
    },
    {
      "constant": false,
      "inputs": [
        {
          "name": "_address",
          "type": "address"
        }
      ],
      "name": "setSnowflakeAddress",
      "outputs": [],
      "payable": false,
      "stateMutability": "nonpayable",
      "type": "function"
    },
    {
      "constant": false,
      "inputs": [],
      "name": "joinHydroRepuation",
      "outputs": [],
      "payable": false,
      "stateMutability": "nonpayable",
      "type": "function"
    },
    {
      "constant": false,
      "inputs": [
        {
          "name": "_field",
          "type": "string"
        }
      ],
      "name": "addReputationField",
      "outputs": [],
      "payable": false,
      "stateMutability": "nonpayable",
      "type": "function"
    },
    {
      "constant": false,
      "inputs": [
        {
          "name": "_user",
          "type": "address"
        },
        {
          "name": "_field",
          "type": "string"
        }
      ],
      "name": "attestToReputation",
      "outputs": [],
      "payable": false,
      "stateMutability": "nonpayable",
      "type": "function"
    },
    {
      "constant": true,
      "inputs": [
        {
          "name": "_user",
          "type": "address"
        },
        {
          "name": "_field",
          "type": "string"
        }
      ],
      "name": "getReputation",
      "outputs": [
        {
          "name": "",
          "type": "uint256"
        }
      ],
      "payable": false,
      "stateMutability": "view",
      "type": "function"
    },
    {
      "constant": true,
      "inputs": [
        {
          "name": "_user",
          "type": "address"
        },
        {
          "name": "_field",
          "type": "string"
        }
      ],
      "name": "alreadyAttested",
      "outputs": [
        {
          "name": "",
          "type": "bool"
        }
      ],
      "payable": false,
      "stateMutability": "view",
      "type": "function"
    },
    {
      "constant": true,
      "inputs": [
        {
          "name": "_user",
          "type": "address"
        },
        {
          "name": "_field",
          "type": "string"
        }
      ],
      "name": "addedRepLookup",
      "outputs": [
        {
          "name": "",
          "type": "uint256"
        }
      ],
      "payable": false,
      "stateMutability": "view",
      "type": "function"
    }
  ],
  "bytecode": "0x608060405260018054600160a060020a03199081169091556000805490911633179055610f5b806100316000396000f3006080604052600436106100985763ffffffff7c01000000000000000000000000000000000000000000000000000000006000350416633279af3c811461009d57806341046c1c146101165780635301c716146101915780635f53a354146101a85780638da5cb5b1461020f578063c6ad6cf214610240578063c979b05a14610299578063ea05eeb9146102ba578063f2fde38b14610321575b600080fd5b3480156100a957600080fd5b5060408051602060046024803582810135601f8101859004850286018501909652858552610104958335600160a060020a03169536956044949193909101919081908401838280828437509497506103429650505050505050565b60408051918252519081900360200190f35b34801561012257600080fd5b5060408051602060046024803582810135601f810185900485028601850190965285855261017d958335600160a060020a03169536956044949193909101919081908401838280828437509497506104b29650505050505050565b604080519115158252519081900360200190f35b34801561019d57600080fd5b506101a6610576565b005b3480156101b457600080fd5b5060408051602060046024803582810135601f81018590048502860185019096528585526101a6958335600160a060020a03169536956044949193909101919081908401838280828437509497506106209650505050505050565b34801561021b57600080fd5b50610224610921565b60408051600160a060020a039092168252519081900360200190f35b34801561024c57600080fd5b506040805160206004803580820135601f81018490048402850184019095528484526101a69436949293602493928401919081908401838280828437509497506109309650505050505050565b3480156102a557600080fd5b506101a6600160a060020a0360043516610c89565b3480156102c657600080fd5b5060408051602060046024803582810135601f8101859004850286018501909652858552610104958335600160a060020a0316953695604494919390910191908190840183828082843750949750610ccf9650505050505050565b34801561032d57600080fd5b506101a6600160a060020a0360043516610d4f565b60008060006004600086600160a060020a0316600160a060020a03168152602001908152602001600020846040518082805190602001908083835b6020831061039c5780518252601f19909201916020918201910161037d565b51815160209384036101000a60001901801990921691161790529201948552506040519384900301909220549290921191506103fe9050576040805160e560020a62461bcd028152602060048201526000602482015290519081900360640190fd5b6002600085600160a060020a0316600160a060020a03168152602001908152602001600020600201836040518082805190602001908083835b602083106104565780518252601f199092019160209182019101610437565b51815160209384036101000a6000190180199092169116179052920194855250604051938490030190922060010154600580549194509250839150811061049957fe5b6000918252602090912060029091020154949350505050565b600060056002600085600160a060020a0316600160a060020a03168152602001908152602001600020600201836040518082805190602001908083835b6020831061050e5780518252601f1990920191602091820191016104ef565b51815160209384036101000a600019018019909216911617905292019485525060405193849003019092206001015483549092508210905061054c57fe5b600091825260208083203384526002929092029091016001019052604090205460ff169392505050565b600154604080517f0ce5aeef0000000000000000000000000000000000000000000000000000000081523360048201529051600160a060020a03909216916000918391630ce5aeef9160248082019260209290919082900301818787803b1580156105e057600080fd5b505af11580156105f4573d6000803e3d6000fd5b505050506040513d602081101561060a57600080fd5b5051336000908152600260205260409020555050565b60008060006004600086600160a060020a0316600160a060020a03168152602001908152602001600020846040518082805190602001908083835b6020831061067a5780518252601f19909201916020918201910161065b565b51815160209384036101000a60001901801990921691161790529201948552506040519384900301909220549290921191506106dc9050576040805160e560020a62461bcd028152602060048201526000602482015290519081900360640190fd5b60056002600086600160a060020a0316600160a060020a03168152602001908152602001600020600201846040518082805190602001908083835b602083106107365780518252601f199092019160209182019101610717565b51815160209384036101000a600019018019909216911617905292019485525060405193849003019092206001015483549092508210905061077457fe5b600091825260208083203384526001600290930201919091019052604090205460ff16156107c6576040805160e560020a62461bcd028152602060048201526000602482015290519081900360640190fd5b60016004600086600160a060020a0316600160a060020a03168152602001908152602001600020846040518082805190602001908083835b6020831061081d5780518252601f1990920191602091820191016107fe565b51815160209384036101000a60001901801990921691161790529201948552506040805194859003820190942054600160a060020a038a1660009081526002909252939020600101805494909303955091928592508210905061087c57fe5b906000526020600020906002020160010154905060058181548110151561089f57fe5b6000918252602080832060029092029091018054600181810183559184529190922001805473ffffffffffffffffffffffffffffffffffffffff19163317905560058054839081106108ed57fe5b60009182526020808320338452600292909202909101600101905260409020805460ff191691151591909117905550505050565b600054600160a060020a031681565b600061093a610de3565b336000908152600460209081526040808320905186519192879282918401908083835b6020831061097c5780518252601f19909201916020918201910161095d565b51815160209384036101000a60001901801990921691161790529201948552506040519384900301909220541591506109db9050576040805160e560020a62461bcd028152602060048201526000602482015290519081900360640190fd5b33600090815260036020908152604082208054600181018083559184529282902087519193610a109391019190880190610df5565b509250826004600033600160a060020a0316600160a060020a03168152602001908152602001600020856040518082805190602001908083835b60208310610a695780518252601f199092019160209182019101610a4a565b51815160001960209485036101000a019081169019919091161790529201948552506040519384900381019093209390935550600580546001818101808455600093909352865180519195509293879360029093027f036b6384b5eca791c62761152d0c79bb0604c104a5fb6f4eb0703f3154bb3db00192610af19284929190910190610e73565b505033600090815260026020818152604080842081518083019092528b82529690950385820181905260019687018054978801808255908552938290208651805192995094979093029092019350610b4d928492910190610df5565b5060208201518160010155505050836002600033600160a060020a0316600160a060020a03168152602001908152602001600020600201856040518082805190602001908083835b60208310610bb45780518252601f199092019160209182019101610b95565b51815160209384036101000a60001901801990921691161790529201948552506040519384900381019093208451610bf59591949190910192509050610df5565b50806002600033600160a060020a0316600160a060020a03168152602001908152602001600020600201856040518082805190602001908083835b60208310610c4f5780518252601f199092019160209182019101610c30565b51815160209384036101000a6000190180199092169116179052920194855250604051938490030190922060010192909255505050505050565b600054600160a060020a03163314610ca057600080fd5b6001805473ffffffffffffffffffffffffffffffffffffffff1916600160a060020a0392909216919091179055565b600160a060020a0382166000908152600460209081526040808320905184519192859282918401908083835b60208310610d1a5780518252601f199092019160209182019101610cfb565b51815160209384036101000a600019018019909216911617905292019485525060405193849003019092205495945050505050565b600054600160a060020a03163314610d6657600080fd5b600160a060020a0381161515610d7b57600080fd5b60008054604051600160a060020a03808516939216917f8be0079c531659141344cd1fd0a4f28419497f9722a3daafe3b4186f6b6457e091a36000805473ffffffffffffffffffffffffffffffffffffffff1916600160a060020a0392909216919091179055565b60408051602081019091526060815290565b828054600181600116156101000203166002900490600052602060002090601f016020900481019282601f10610e3657805160ff1916838001178555610e63565b82800160010185558215610e63579182015b82811115610e63578251825591602001919060010190610e48565b50610e6f929150610ee1565b5090565b828054828255906000526020600020908101928215610ed5579160200282015b82811115610ed5578251825473ffffffffffffffffffffffffffffffffffffffff1916600160a060020a03909116178255602090920191600190910190610e93565b50610e6f929150610efe565b610efb91905b80821115610e6f5760008155600101610ee7565b90565b610efb91905b80821115610e6f57805473ffffffffffffffffffffffffffffffffffffffff19168155600101610f045600a165627a7a72305820e8c30eff52b9dc63fdcaa0120db976a010ab609f693cdcc1a16ef702315d1d670029",
  "source": "pragma solidity ^0.4.23;\n\nimport \"./zeppelin/ownership/Ownable.sol\";\n\ncontract Snowflake {\n    function ownerToToken(address _sender) public view returns(uint256);\n}\n\ncontract HydroRepuation is Ownable {\n\n    address snowflakeAddress = 0x0;\n\n    struct AddressGroup {\n        address[] addressList;\n        mapping (address => bool) addressLookup;\n    }\n\n    function setSnowflakeAddress(address _address) public onlyOwner {\n        snowflakeAddress = _address;\n    }\n\n    mapping (address => Reputation) internal reputationList;\n    mapping (address => string[]) addedReputationsList;\n    mapping (address => mapping(string => uint)) addedReputationsLookup;\n\n    AddressGroup[] addresses;\n\n    struct Reputation {\n        uint256 identityTokenId;\n        RepuationField[] repuationFieldsList;\n        mapping(string => RepuationField) repuationFieldsLookup;\n    }\n\n    struct RepuationField {\n        string fieldName;\n        uint256 addressGroupIndex;\n    }\n\n    function joinHydroRepuation() public {\n        Snowflake snowflake = Snowflake(snowflakeAddress);\n        uint256 tokenId = snowflake.ownerToToken(msg.sender);\n        reputationList[msg.sender].identityTokenId = tokenId;\n    }\n\n    function addReputationField(string _field) public {\n        require(addedReputationsLookup[msg.sender][_field] == 0,\"\");\n\n        uint256 id = addedReputationsList[msg.sender].push(_field);\n        addedReputationsLookup[msg.sender][_field] = id;\n        AddressGroup memory group;\n        uint256 addressListId = addresses.push(group) - 1;\n        reputationList[msg.sender].repuationFieldsList.push(RepuationField(_field, addressListId));\n        reputationList[msg.sender].repuationFieldsLookup[_field].fieldName = _field;\n        reputationList[msg.sender].repuationFieldsLookup[_field].addressGroupIndex = addressListId;\n    }\n\n    function attestToReputation(address _user, string _field) public {\n        require(addedReputationsLookup[_user][_field] > 0,\"\");\n\n        require(!addresses[reputationList[_user].repuationFieldsLookup[_field].addressGroupIndex].addressLookup[msg.sender], \"\");\n\n        uint256 id = addedReputationsLookup[_user][_field] - 1;\n        uint addressId = reputationList[_user].repuationFieldsList[id].addressGroupIndex;\n        addresses[addressId].addressList.push(msg.sender);\n        addresses[addressId].addressLookup[msg.sender] = true;\n    }\n\n    function getReputation(address _user, string _field) public view returns(uint){\n        require(addedReputationsLookup[_user][_field] > 0,\"\");\n        uint addressId = reputationList[_user].repuationFieldsLookup[_field].addressGroupIndex;\n        return addresses[addressId].addressList.length;\n    }\n\n    function alreadyAttested(address _user, string _field) public view returns(bool){\n        return addresses[reputationList[_user].repuationFieldsLookup[_field].addressGroupIndex].addressLookup[msg.sender];\n    }\n\n    function addedRepLookup(address _user, string _field) public view returns(uint){\n        return addedReputationsLookup[_user][_field];\n    }\n\n}\n",
  "sourcePath": "/Users/noahzinsmeister/Documents/github/smart-contracts/snowflake-poc/contracts/HydroReputation.sol",
  "compiler": {
    "name": "solc",
    "version": "0.4.24+commit.e67f0147.Emscripten.clang"
  },
  "schemaVersion": "2.0.0",
  "updatedAt": "2018-06-04T16:56:11.604Z"
}