{
  "contractName": "HydroRepuation",
  "abi": [
    {
      "constant": true,
      "inputs": [
        {
          "name": "",
          "type": "uint256"
        }
      ],
      "name": "reputations",
      "outputs": [
        {
          "name": "identityTokenId",
          "type": "uint256"
        }
      ],
      "payable": false,
      "stateMutability": "view",
      "type": "function"
    },
    {
      "constant": true,
      "inputs": [],
      "name": "owner",
      "outputs": [
        {
          "name": "",
          "type": "address"
        }
      ],
      "payable": false,
      "stateMutability": "view",
      "type": "function"
    },
    {
      "constant": false,
      "inputs": [
        {
          "name": "newOwner",
          "type": "address"
        }
      ],
      "name": "transferOwnership",
      "outputs": [],
      "payable": false,
      "stateMutability": "nonpayable",
      "type": "function"
    },
    {
      "anonymous": false,
      "inputs": [
        {
          "indexed": true,
          "name": "previousOwner",
          "type": "address"
        },
        {
          "indexed": true,
          "name": "newOwner",
          "type": "address"
        }
      ],
      "name": "OwnershipTransferred",
      "type": "event"
    },
    {
      "constant": false,
      "inputs": [
        {
          "name": "_address",
          "type": "address"
        }
      ],
      "name": "setSnowflakeAddress",
      "outputs": [],
      "payable": false,
      "stateMutability": "nonpayable",
      "type": "function"
    },
    {
      "constant": false,
      "inputs": [],
      "name": "joinHydroRepuation",
      "outputs": [],
      "payable": false,
      "stateMutability": "nonpayable",
      "type": "function"
    },
    {
      "constant": false,
      "inputs": [
        {
          "name": "_field",
          "type": "string"
        }
      ],
      "name": "addReputationField",
      "outputs": [],
      "payable": false,
      "stateMutability": "nonpayable",
      "type": "function"
    },
    {
      "constant": false,
      "inputs": [
        {
          "name": "_user",
          "type": "address"
        },
        {
          "name": "_field",
          "type": "string"
        }
      ],
      "name": "attestToReputation",
      "outputs": [],
      "payable": false,
      "stateMutability": "nonpayable",
      "type": "function"
    },
    {
      "constant": true,
      "inputs": [
        {
          "name": "_user",
          "type": "address"
        },
        {
          "name": "_field",
          "type": "string"
        }
      ],
      "name": "getReputation",
      "outputs": [
        {
          "name": "",
          "type": "uint256"
        }
      ],
      "payable": false,
      "stateMutability": "view",
      "type": "function"
    },
    {
      "constant": true,
      "inputs": [
        {
          "name": "_user",
          "type": "address"
        },
        {
          "name": "_field",
          "type": "string"
        }
      ],
      "name": "alreadyAttested",
      "outputs": [
        {
          "name": "",
          "type": "bool"
        }
      ],
      "payable": false,
      "stateMutability": "view",
      "type": "function"
    },
    {
      "constant": true,
      "inputs": [
        {
          "name": "_user",
          "type": "address"
        },
        {
          "name": "_field",
          "type": "string"
        }
      ],
      "name": "addedRepLookup",
      "outputs": [
        {
          "name": "",
          "type": "uint256"
        }
      ],
      "payable": false,
      "stateMutability": "view",
      "type": "function"
    }
  ],
  "bytecode": "0x608060405260018054600160a060020a03199081169091556000805490911633179055610f7d806100316000396000f3006080604052600436106100a35763ffffffff7c01000000000000000000000000000000000000000000000000000000006000350416633279af3c81146100a857806341046c1c146101215780635301c7161461019c5780635f53a354146101b357806372fa9b851461021a5780638da5cb5b14610232578063c6ad6cf214610263578063c979b05a146102bc578063ea05eeb9146102dd578063f2fde38b14610344575b600080fd5b3480156100b457600080fd5b5060408051602060046024803582810135601f810185900485028601850190965285855261010f958335600160a060020a03169536956044949193909101919081908401838280828437509497506103659650505050505050565b60408051918252519081900360200190f35b34801561012d57600080fd5b5060408051602060046024803582810135601f8101859004850286018501909652858552610188958335600160a060020a03169536956044949193909101919081908401838280828437509497506104a39650505050505050565b604080519115158252519081900360200190f35b3480156101a857600080fd5b506101b1610549565b005b3480156101bf57600080fd5b5060408051602060046024803582810135601f81018590048502860185019096528585526101b1958335600160a060020a03169536956044949193909101919081908401838280828437509497506105f39650505050505050565b34801561022657600080fd5b5061010f6004356109fe565b34801561023e57600080fd5b50610247610a22565b60408051600160a060020a039092168252519081900360200190f35b34801561026f57600080fd5b506040805160206004803580820135601f81018490048402850184019095528484526101b1943694929360249392840191908190840183828082843750949750610a319650505050505050565b3480156102c857600080fd5b506101b1600160a060020a0360043516610cab565b3480156102e957600080fd5b5060408051602060046024803582810135601f810185900485028601850190965285855261010f958335600160a060020a0316953695604494919390910191908190840183828082843750949750610cf19650505050505050565b34801561035057600080fd5b506101b1600160a060020a0360043516610d71565b600160a060020a038216600090815260046020908152604080832090518451849386929182918401908083835b602083106103b15780518252601f199092019160209182019101610392565b51815160209384036101000a60001901801990921691161790529201948552506040519384900301909220549290921191506104139050576040805160e560020a62461bcd028152602060048201526000602482015290519081900360640190fd5b6002600084600160a060020a0316600160a060020a03168152602001908152602001600020600201826040518082805190602001908083835b6020831061046b5780518252601f19909201916020918201910161044c565b51815160209384036101000a600019018019909216911617905292019485525060405193849003019092206001015495945050505050565b60006002600084600160a060020a0316600160a060020a03168152602001908152602001600020600201826040518082805190602001908083835b602083106104fd5780518252601f1990920191602091820191016104de565b51815160209384036101000a6000190180199092169116179052920194855250604080519485900382019094203360009081526002909101909152929092205460ff1695945050505050565b600154604080517f0ce5aeef0000000000000000000000000000000000000000000000000000000081523360048201529051600160a060020a03909216916000918391630ce5aeef9160248082019260209290919082900301818787803b1580156105b357600080fd5b505af11580156105c7573d6000803e3d6000fd5b505050506040513d60208110156105dd57600080fd5b5051336000908152600260205260409020555050565b600160a060020a038216600090815260046020908152604080832090518451849386929182918401908083835b6020831061063f5780518252601f199092019160209182019101610620565b51815160209384036101000a60001901801990921691161790529201948552506040519384900301909220549290921191506106a19050576040805160e560020a62461bcd028152602060048201526000602482015290519081900360640190fd5b6002600084600160a060020a0316600160a060020a03168152602001908152602001600020600201826040518082805190602001908083835b602083106106f95780518252601f1990920191602091820191016106da565b51815160209384036101000a6000190180199092169116179052920194855250604080519485900382019094203360009081526002909101909152929092205460ff1615915061076f9050576040805160e560020a62461bcd028152602060048201526000602482015290519081900360640190fd5b60016004600085600160a060020a0316600160a060020a03168152602001908152602001600020836040518082805190602001908083835b602083106107c65780518252601f1990920191602091820191016107a7565b51815160209384036101000a60001901801990921691161790529201948552506040805194859003820190942054600160a060020a03891660009081526002909252939020600101805494909303945091928492508210905061082557fe5b60009182526020808320600160039093020182018054808401825590845281842001805473ffffffffffffffffffffffffffffffffffffffff191633179055600160a060020a0386168352600290526040909120810180548390811061088757fe5b600091825260208083203384526002600390930201820181526040808420805495151560ff1990961695909517909455600160a060020a03871683528181529183902092518551939091019285928291908401908083835b602083106108fe5780518252601f1990920191602091820191016108df565b51815160001960209485036101000a01908116901991909116179052920194855250604080519485900382018520600190810180548083018255600091825284822001805473ffffffffffffffffffffffffffffffffffffffff191633179055600160a060020a038a1681526002808552929020885191969201945087935090918291908401908083835b602083106109a85780518252601f199092019160209182019101610989565b51815160209384036101000a600019018019909216911617905292019485525060408051948590038201909420336000908152600290910190915292909220805460ff1916931515939093179092555050505050565b6005805482908110610a0c57fe5b6000918252602090912060039091020154905081565b600054600160a060020a031681565b6000610a3b610e05565b336000908152600460209081526040918290209151855186928291908401908083835b60208310610a7d5780518252601f199092019160209182019101610a5e565b51815160209384036101000a6000190180199092169116179052920194855250604051938490030190922054159150610adc9050576040805160e560020a62461bcd028152602060048201526000602482015290519081900360640190fd5b33600090815260036020908152604082208054600181018083559184529282902086519193610b119391019190870190610e17565b509150816004600033600160a060020a0316600160a060020a03168152602001908152602001600020846040518082805190602001908083835b60208310610b6a5780518252601f199092019160209182019101610b4b565b51815160209384036101000a6000190180199092169116179052920194855250604080519485900382018520959095553360009081526002825285812085870190965288855284820187905260019586018054968701808255908252908290208551805192976003029091019450610be6935084920190610e17565b506020828101518051805191926001850192610c059284920190610e95565b505050505050826002600033600160a060020a0316600160a060020a03168152602001908152602001600020600201846040518082805190602001908083835b60208310610c645780518252601f199092019160209182019101610c45565b51815160209384036101000a60001901801990921691161790529201948552506040519384900381019093208451610ca59591949190910192509050610e17565b50505050565b600054600160a060020a03163314610cc257600080fd5b6001805473ffffffffffffffffffffffffffffffffffffffff1916600160a060020a0392909216919091179055565b600160a060020a0382166000908152600460209081526040808320905184519192859282918401908083835b60208310610d3c5780518252601f199092019160209182019101610d1d565b51815160209384036101000a600019018019909216911617905292019485525060405193849003019092205495945050505050565b600054600160a060020a03163314610d8857600080fd5b600160a060020a0381161515610d9d57600080fd5b60008054604051600160a060020a03808516939216917f8be0079c531659141344cd1fd0a4f28419497f9722a3daafe3b4186f6b6457e091a36000805473ffffffffffffffffffffffffffffffffffffffff1916600160a060020a0392909216919091179055565b60408051602081019091526060815290565b828054600181600116156101000203166002900490600052602060002090601f016020900481019282601f10610e5857805160ff1916838001178555610e85565b82800160010185558215610e85579182015b82811115610e85578251825591602001919060010190610e6a565b50610e91929150610f03565b5090565b828054828255906000526020600020908101928215610ef7579160200282015b82811115610ef7578251825473ffffffffffffffffffffffffffffffffffffffff1916600160a060020a03909116178255602090920191600190910190610eb5565b50610e91929150610f20565b610f1d91905b80821115610e915760008155600101610f09565b90565b610f1d91905b80821115610e9157805473ffffffffffffffffffffffffffffffffffffffff19168155600101610f265600a165627a7a7230582084b1940d2ff140929fa3c6d8264d2db082be9dafabc5482ce39d1baa4bab811b0029",
  "source": "pragma solidity ^0.4.23;\n\nimport \"./zeppelin/ownership/Ownable.sol\";\n\ncontract Snowflake {\n    function ownerToToken(address _sender) public view returns(uint256);\n}\n\ncontract HydroRepuation is Ownable {\n\n  address snowflakeAddress = 0x0;\n\n  struct AddressGroup {\n      address[] addressList;\n      mapping (address => bool) addressLookup;\n  }\n\n  function setSnowflakeAddress(address _address) public onlyOwner {\n      snowflakeAddress = _address;\n  }\n\n  mapping (address => Reputation) internal reputationList;\n  mapping (address => string[]) addedReputationsList;\n  mapping (address => mapping(string => uint)) addedReputationsLookup;\n\n  Reputation[] public reputations;\n  mapping(address => uint256) internal addressToreputationId;\n  mapping(uint256 => uint256) internal snowflakeToReputationId;\n\n  struct Reputation {\n      uint256 identityTokenId;\n      RepuationField[] repuationFieldsList;\n      mapping(string => RepuationField) repuationFieldsLookup;\n  }\n\n  struct RepuationField {\n      string fieldName;\n      AddressGroup addresses;\n  }\n\n  function joinHydroRepuation() public {\n      Snowflake snowflake = Snowflake(snowflakeAddress);\n      uint256 tokenId = snowflake.ownerToToken(msg.sender);\n      reputationList[msg.sender].identityTokenId = tokenId;\n  }\n\n  function addReputationField(string _field) public {\n      require(addedReputationsLookup[msg.sender][_field] == 0,\"\");\n\n      uint256 id = addedReputationsList[msg.sender].push(_field);\n      addedReputationsLookup[msg.sender][_field] = id;\n      AddressGroup memory group;\n      reputationList[msg.sender].repuationFieldsList.push(RepuationField(_field, group));\n      reputationList[msg.sender].repuationFieldsLookup[_field].fieldName = _field;\n  }\n\n  function attestToReputation(address _user, string _field) public {\n      require(addedReputationsLookup[_user][_field] > 0,\"\");\n\n      require(!reputationList[_user].repuationFieldsLookup[_field].addresses.addressLookup[msg.sender], \"\");\n\n      uint256 id = addedReputationsLookup[_user][_field] - 1;\n      reputationList[_user].repuationFieldsList[id].addresses.addressList.push(msg.sender);\n      reputationList[_user].repuationFieldsList[id].addresses.addressLookup[msg.sender] = true;\n      reputationList[_user].repuationFieldsLookup[_field].addresses.addressList.push(msg.sender);\n      reputationList[_user].repuationFieldsLookup[_field].addresses.addressLookup[msg.sender] = true;\n  }\n\n  function getReputation(address _user, string _field) public view returns(uint){\n      require(addedReputationsLookup[_user][_field] > 0,\"\");\n      return reputationList[_user].repuationFieldsLookup[_field].addresses.addressList.length;\n  }\n\n  function alreadyAttested(address _user, string _field) public view returns(bool){\n      return reputationList[_user].repuationFieldsLookup[_field].addresses.addressLookup[msg.sender];\n  }\n\n  function addedRepLookup(address _user, string _field) public view returns(uint){\n      return addedReputationsLookup[_user][_field];\n  }\n\n}\n",
  "sourcePath": "/Users/noahzinsmeister/Documents/github/smart-contracts/snowflake-poc/contracts/HydroReputation.sol",
  "compiler": {
    "name": "solc",
    "version": "0.4.24+commit.e67f0147.Emscripten.clang"
  },
  "schemaVersion": "2.0.0",
  "updatedAt": "2018-06-01T21:25:43.079Z"
}