{
  "contractName": "Snowflake",
  "abi": [
    {
      "constant": true,
      "inputs": [
        {
          "name": "",
          "type": "uint8"
        }
      ],
      "name": "allowedFields",
      "outputs": [
        {
          "name": "",
          "type": "bool"
        }
      ],
      "payable": false,
      "stateMutability": "view",
      "type": "function"
    },
    {
      "constant": true,
      "inputs": [
        {
          "name": "",
          "type": "address"
        }
      ],
      "name": "ownerToToken",
      "outputs": [
        {
          "name": "",
          "type": "uint256"
        }
      ],
      "payable": false,
      "stateMutability": "view",
      "type": "function"
    },
    {
      "constant": true,
      "inputs": [],
      "name": "clientRaindropAddress",
      "outputs": [
        {
          "name": "",
          "type": "address"
        }
      ],
      "payable": false,
      "stateMutability": "view",
      "type": "function"
    },
    {
      "constant": true,
      "inputs": [
        {
          "name": "",
          "type": "uint256"
        }
      ],
      "name": "dateOrder",
      "outputs": [
        {
          "name": "",
          "type": "string"
        }
      ],
      "payable": false,
      "stateMutability": "view",
      "type": "function"
    },
    {
      "constant": true,
      "inputs": [],
      "name": "hydroTokenAddress",
      "outputs": [
        {
          "name": "",
          "type": "address"
        }
      ],
      "payable": false,
      "stateMutability": "view",
      "type": "function"
    },
    {
      "constant": true,
      "inputs": [],
      "name": "owner",
      "outputs": [
        {
          "name": "",
          "type": "address"
        }
      ],
      "payable": false,
      "stateMutability": "view",
      "type": "function"
    },
    {
      "constant": true,
      "inputs": [],
      "name": "balance",
      "outputs": [
        {
          "name": "",
          "type": "uint256"
        }
      ],
      "payable": false,
      "stateMutability": "view",
      "type": "function"
    },
    {
      "constant": false,
      "inputs": [
        {
          "name": "newOwner",
          "type": "address"
        }
      ],
      "name": "transferOwnership",
      "outputs": [],
      "payable": false,
      "stateMutability": "nonpayable",
      "type": "function"
    },
    {
      "constant": true,
      "inputs": [
        {
          "name": "",
          "type": "uint256"
        }
      ],
      "name": "nameOrder",
      "outputs": [
        {
          "name": "",
          "type": "string"
        }
      ],
      "payable": false,
      "stateMutability": "view",
      "type": "function"
    },
    {
      "constant": true,
      "inputs": [
        {
          "name": "",
          "type": "address"
        }
      ],
      "name": "deposits",
      "outputs": [
        {
          "name": "",
          "type": "uint256"
        }
      ],
      "payable": false,
      "stateMutability": "view",
      "type": "function"
    },
    {
      "inputs": [],
      "payable": false,
      "stateMutability": "nonpayable",
      "type": "constructor"
    },
    {
      "anonymous": false,
      "inputs": [
        {
          "indexed": false,
          "name": "_from",
          "type": "address"
        },
        {
          "indexed": false,
          "name": "_to",
          "type": "address"
        },
        {
          "indexed": false,
          "name": "_amount",
          "type": "uint256"
        }
      ],
      "name": "SnowflakeTransfer",
      "type": "event"
    },
    {
      "anonymous": false,
      "inputs": [
        {
          "indexed": true,
          "name": "previousOwner",
          "type": "address"
        },
        {
          "indexed": true,
          "name": "newOwner",
          "type": "address"
        }
      ],
      "name": "OwnershipTransferred",
      "type": "event"
    },
    {
      "constant": true,
      "inputs": [
        {
          "name": "_tokenId",
          "type": "uint256"
        }
      ],
      "name": "ownerOf",
      "outputs": [
        {
          "name": "",
          "type": "address"
        }
      ],
      "payable": false,
      "stateMutability": "view",
      "type": "function"
    },
    {
      "constant": true,
      "inputs": [
        {
          "name": "_address",
          "type": "address"
        }
      ],
      "name": "tokenOfAddress",
      "outputs": [
        {
          "name": "",
          "type": "uint256"
        }
      ],
      "payable": false,
      "stateMutability": "view",
      "type": "function"
    },
    {
      "constant": true,
      "inputs": [
        {
          "name": "hydroId",
          "type": "string"
        }
      ],
      "name": "tokenOfHydroID",
      "outputs": [
        {
          "name": "",
          "type": "uint256"
        }
      ],
      "payable": false,
      "stateMutability": "view",
      "type": "function"
    },
    {
      "constant": false,
      "inputs": [
        {
          "name": "_address",
          "type": "address"
        }
      ],
      "name": "setClientRaindropAddress",
      "outputs": [],
      "payable": false,
      "stateMutability": "nonpayable",
      "type": "function"
    },
    {
      "constant": false,
      "inputs": [
        {
          "name": "_address",
          "type": "address"
        }
      ],
      "name": "setHydroTokenAddress",
      "outputs": [],
      "payable": false,
      "stateMutability": "nonpayable",
      "type": "function"
    },
    {
      "constant": false,
      "inputs": [
        {
          "name": "names",
          "type": "bytes32[6]"
        },
        {
          "name": "dateOfBirth",
          "type": "bytes32[3]"
        }
      ],
      "name": "mintIdentityToken",
      "outputs": [
        {
          "name": "tokenId",
          "type": "uint256"
        }
      ],
      "payable": false,
      "stateMutability": "nonpayable",
      "type": "function"
    },
    {
      "constant": false,
      "inputs": [
        {
          "name": "field",
          "type": "uint8"
        },
        {
          "name": "entry",
          "type": "string"
        },
        {
          "name": "resolvers",
          "type": "address[]"
        }
      ],
      "name": "addResolver",
      "outputs": [],
      "payable": false,
      "stateMutability": "nonpayable",
      "type": "function"
    },
    {
      "constant": false,
      "inputs": [
        {
          "name": "field",
          "type": "uint8"
        },
        {
          "name": "entry",
          "type": "string"
        },
        {
          "name": "resolvers",
          "type": "address[]"
        }
      ],
      "name": "removeResolver",
      "outputs": [],
      "payable": false,
      "stateMutability": "nonpayable",
      "type": "function"
    },
    {
      "constant": false,
      "inputs": [
        {
          "name": "resolvers",
          "type": "address[]"
        }
      ],
      "name": "addThirdPartyResolvers",
      "outputs": [],
      "payable": false,
      "stateMutability": "nonpayable",
      "type": "function"
    },
    {
      "constant": false,
      "inputs": [
        {
          "name": "resolvers",
          "type": "address[]"
        }
      ],
      "name": "removeThirdPartyResolvers",
      "outputs": [],
      "payable": false,
      "stateMutability": "nonpayable",
      "type": "function"
    },
    {
      "constant": false,
      "inputs": [
        {
          "name": "field",
          "type": "uint8"
        },
        {
          "name": "entries",
          "type": "string[]"
        },
        {
          "name": "saltedHashes",
          "type": "bytes32[]"
        }
      ],
      "name": "addUpdateFieldEntries",
      "outputs": [],
      "payable": false,
      "stateMutability": "nonpayable",
      "type": "function"
    },
    {
      "constant": false,
      "inputs": [
        {
          "name": "field",
          "type": "uint8"
        },
        {
          "name": "entries",
          "type": "string[]"
        },
        {
          "name": "saltedHashes",
          "type": "bytes32[]"
        }
      ],
      "name": "removeFieldEntries",
      "outputs": [],
      "payable": false,
      "stateMutability": "nonpayable",
      "type": "function"
    },
    {
      "constant": true,
      "inputs": [
        {
          "name": "tokenId",
          "type": "uint256"
        }
      ],
      "name": "tokenDetails",
      "outputs": [
        {
          "name": "owner",
          "type": "address"
        },
        {
          "name": "hydroId",
          "type": "string"
        },
        {
          "name": "fieldsAttestedTo",
          "type": "uint8[]"
        },
        {
          "name": "thirdPartyResolvers",
          "type": "address[]"
        }
      ],
      "payable": false,
      "stateMutability": "view",
      "type": "function"
    },
    {
      "constant": true,
      "inputs": [
        {
          "name": "tokenId",
          "type": "uint256"
        },
        {
          "name": "field",
          "type": "uint8"
        }
      ],
      "name": "fieldDetails",
      "outputs": [
        {
          "name": "entriesAttestedTo",
          "type": "string[]"
        },
        {
          "name": "resolversFor",
          "type": "address[]"
        }
      ],
      "payable": false,
      "stateMutability": "view",
      "type": "function"
    },
    {
      "constant": true,
      "inputs": [
        {
          "name": "tokenId",
          "type": "uint256"
        },
        {
          "name": "field",
          "type": "uint8"
        },
        {
          "name": "entry",
          "type": "string"
        }
      ],
      "name": "entryDetails",
      "outputs": [
        {
          "name": "saltedHash",
          "type": "bytes32"
        },
        {
          "name": "resolversFor",
          "type": "address[]"
        }
      ],
      "payable": false,
      "stateMutability": "view",
      "type": "function"
    },
    {
      "constant": false,
      "inputs": [
        {
          "name": "_sender",
          "type": "address"
        },
        {
          "name": "_amount",
          "type": "uint256"
        },
        {
          "name": "_tokenAddress",
          "type": "address"
        },
        {
          "name": "",
          "type": "bytes"
        }
      ],
      "name": "receiveApproval",
      "outputs": [],
      "payable": false,
      "stateMutability": "nonpayable",
      "type": "function"
    },
    {
      "constant": false,
      "inputs": [
        {
          "name": "_amount",
          "type": "uint256"
        }
      ],
      "name": "withdrawSnowflakeBalance",
      "outputs": [],
      "payable": false,
      "stateMutability": "nonpayable",
      "type": "function"
    },
    {
      "constant": false,
      "inputs": [
        {
          "name": "_to",
          "type": "address"
        },
        {
          "name": "_amount",
          "type": "uint256"
        }
      ],
      "name": "transferSnowflakeBalance",
      "outputs": [],
      "payable": false,
      "stateMutability": "nonpayable",
      "type": "function"
    }
  ],
  "bytecode": "0x600160085560066101408181527f707265666978000000000000000000000000000000000000000000000000000061016052608090815260096101808181527f676976656e4e616d6500000000000000000000000000000000000000000000006101a05260a052600a6101c09081527f6d6964646c654e616d65000000000000000000000000000000000000000000006101e05260c05260076102009081527f7375726e616d65000000000000000000000000000000000000000000000000006102205260e0526102408381527f737566666978000000000000000000000000000000000000000000000000000061026052610100526102c0604052600d6102809081527f7072656665727265644e616d65000000000000000000000000000000000000006102a052610120526200013a92909190620003e7565b506040805160a0810182526003606082018181527f64617900000000000000000000000000000000000000000000000000000000006080840152825282518084018452600581527f6d6f6e74680000000000000000000000000000000000000000000000000000006020828101919091528084019190915283518085018552600481527f79656172000000000000000000000000000000000000000000000000000000009181019190915292820192909252620001fb91601191906200043e565b503480156200020957600080fd5b5060008054600160a060020a031916331781555b600560ff82161015620002515760ff81166000908152601460205260409020805460ff19166001908117909155016200021d565b6040517fea486c5300000000000000000000000000000000000000000000000000000000815273__stringSet_____________________________9063ea486c5390620002a490600f9060040162000655565b60006040518083038186803b158015620002bd57600080fd5b505af4158015620002d2573d6000803e3d6000fd5b50506040517fea486c5300000000000000000000000000000000000000000000000000000000815273__stringSet_____________________________925063ea486c5391506200032990600f906004016200062b565b60006040518083038186803b1580156200034257600080fd5b505af415801562000357573d6000803e3d6000fd5b50506040517fea486c5300000000000000000000000000000000000000000000000000000000815273__stringSet_____________________________925063ea486c539150620003ae90600f9060040162000678565b60006040518083038186803b158015620003c757600080fd5b505af4158015620003dc573d6000803e3d6000fd5b50505050506200069b565b82600681019282156200042c579160200282015b828111156200042c57825180516200041b91849160209091019062000483565b5091602001919060010190620003fb565b506200043a92915062000504565b5090565b82600381019282156200042c579160200282015b828111156200042c57825180516200047291849160209091019062000483565b509160200191906001019062000452565b828054600181600116156101000203166002900490600052602060002090601f016020900481019282601f10620004c657805160ff1916838001178555620004f6565b82800160010185558215620004f6579182015b82811115620004f6578251825591602001919060010190620004d9565b506200043a9291506200052f565b6200052c91905b808211156200043a5760006200052282826200054c565b506001016200050b565b90565b6200052c91905b808211156200043a576000815560010162000536565b50805460018160011615610100020316600290046000825580601f1062000574575062000594565b601f0160209004906000526020600020908101906200059491906200052f565b50565b600681527f7375666669780000000000000000000000000000000000000000000000000000602082015260400190565b600681527f7072656669780000000000000000000000000000000000000000000000000000602082015260400190565b600d81527f7072656665727265644e616d6500000000000000000000000000000000000000602082015260400190565b9052565b604081016200063b828462000627565b81810360208301526200064e8162000597565b9392505050565b6040810162000665828462000627565b81810360208301526200064e81620005c7565b6040810162000688828462000627565b81810360208301526200064e81620005f7565b61359380620006ab6000396000f3006080604052600436106101505763ffffffff60e060020a60003504166303136be7811461015557806303b286d51461018b578063098f45a9146101ad5780630ce5aeef146101cd5780631da7631f146101fa5780631dfc99c41461021a5780632196f1701461023c57806335ea97901461025c57806344e7c4c41461028a5780636352211e146102b75780636369da64146102d757806368753b9c146102f757806375d7e4bd14610317578063856b414e1461032c5780638da5cb5b1461034c5780638f4ffcb114610361578063a861eae314610381578063b69ef8a8146103a1578063bed7437f146103b6578063c0928e2a146103d6578063c30dad6b146103f6578063cc0438f014610424578063d57c198e14610444578063f10d0f4014610464578063f2fde38b14610484578063f61d44ad146104a4578063fc314e31146104c4578063fc7e286d146104f4575b600080fd5b34801561016157600080fd5b50610175610170366004612cd4565b610514565b60405161018291906132fb565b60405180910390f35b34801561019757600080fd5b506101ab6101a6366004612d65565b610529565b005b3480156101b957600080fd5b506101ab6101c8366004612b15565b61072b565b3480156101d957600080fd5b506101ed6101e8366004612a3c565b6107f0565b604051610182919061344e565b34801561020657600080fd5b506101ed610215366004612a3c565b610802565b34801561022657600080fd5b5061022f61084c565b6040516101829190613233565b34801561024857600080fd5b506101ab610257366004612d65565b61085b565b34801561026857600080fd5b5061027c610277366004612c3f565b610a4f565b6040516101829291906132d6565b34801561029657600080fd5b506102aa6102a5366004612c03565b610c91565b6040516101829190613329565b3480156102c357600080fd5b5061022f6102d2366004612c03565b610d2c565b3480156102e357600080fd5b506101ab6102f2366004612b15565b610d66565b34801561030357600080fd5b506101ed610312366004612b99565b610e25565b34801561032357600080fd5b5061022f610eac565b34801561033857600080fd5b506101ab610347366004612a3c565b610ebb565b34801561035857600080fd5b5061022f610f01565b34801561036d57600080fd5b506101ab61037c366004612a9c565b610f10565b34801561038d57600080fd5b506101ab61039c366004612a62565b611049565b3480156103ad57600080fd5b506101ed611136565b3480156103c257600080fd5b506101ab6103d1366004612a3c565b61113c565b3480156103e257600080fd5b506101ab6103f1366004612c03565b611182565b34801561040257600080fd5b50610416610411366004612c6f565b6112b7565b604051610182929190613309565b34801561043057600080fd5b506101ab61043f366004612cf2565b6115b6565b34801561045057600080fd5b506101ed61045f366004612b4a565b61198f565b34801561047057600080fd5b506101ab61047f366004612cf2565b611fa0565b34801561049057600080fd5b506101ab61049f366004612a3c565b612359565b3480156104b057600080fd5b506102aa6104bf366004612c03565b6123ed565b3480156104d057600080fd5b506104e46104df366004612c03565b6123fa565b6040516101829493929190613269565b34801561050057600080fd5b506101ed61050f366004612a3c565b6125c5565b60146020526000908152604090205460ff1681565b60008060008061053833610802565b600081815260036020526040902087519195509350151561060c575b84518210156106075760ff871660009081526002840160205260409020855173__addressSet____________________________9163b65fd294916003909101908890869081106105a157fe5b906020019060200201516040518363ffffffff1660e060020a0281526004016105cb9291906133ca565b60006040518083038186803b1580156105e357600080fd5b505af41580156105f7573d6000803e3d6000fd5b5050600190930192506105549050565b610722565b84518110156107225760ff871660009081526002840160209081526040918290209151885189928291908401908083835b6020831061065c5780518252601f19909201916020918201910161063d565b6001836020036101000a038019825116818451168082178552505050505050905001915050908152602001604051809103902060010173__addressSet____________________________63b65fd294909187848151811015156106bc57fe5b906020019060200201516040518363ffffffff1660e060020a0281526004016106e69291906133ca565b60006040518083038186803b1580156106fe57600080fd5b505af4158015610712573d6000803e3d6000fd5b50506001909201915061060c9050565b50505050505050565b600080600061073933610802565b600081815260036020526040902090935091505b83518110156107ea578160050173__addressSet____________________________63e843cfc19091868481518110151561078457fe5b906020019060200201516040518363ffffffff1660e060020a0281526004016107ae9291906133ca565b60006040518083038186803b1580156107c657600080fd5b505af41580156107da573d6000803e3d6000fd5b50506001909201915061074d9050565b50505050565b60046020526000908152604090205481565b600160a060020a0381166000908152600460205260408120548015156108465760405160e560020a62461bcd02815260040161083d9061338a565b60405180910390fd5b92915050565b600654600160a060020a031681565b60008060008061086a33610802565b6000818152600360205260409020875191955093501515610939575b84518210156106075760ff871660009081526002840160205260409020855173__addressSet____________________________9163e843cfc1916003909101908890869081106108d357fe5b906020019060200201516040518363ffffffff1660e060020a0281526004016108fd9291906133ca565b60006040518083038186803b15801561091557600080fd5b505af4158015610929573d6000803e3d6000fd5b5050600190930192506108869050565b84518110156107225760ff871660009081526002840160209081526040918290209151885189928291908401908083835b602083106109895780518252601f19909201916020918201910161096a565b6001836020036101000a038019825116818451168082178552505050505050905001915050908152602001604051809103902060010173__addressSet____________________________63e843cfc1909187848151811015156109e957fe5b906020019060200201516040518363ffffffff1660e060020a028152600401610a139291906133ca565b60006040518083038186803b158015610a2b57600080fd5b505af4158015610a3f573d6000803e3d6000fd5b5050600190920191506109399050565b600082815260036020526040902080546060918291600160a060020a03161515610a8e5760405160e560020a62461bcd02815260040161083d906133aa565b6040517fcb5ce7e500000000000000000000000000000000000000000000000000000000815273__uint8Set______________________________9063cb5ce7e590610ae39060038501908890600401613433565b60206040518083038186803b158015610afb57600080fd5b505af4158015610b0f573d6000803e3d6000fd5b505050506040513d601f19601f82011682018060405250610b339190810190612b7b565b1515610b3e57600080fd5b60ff841660009081526002820160209081526040808320600181018054835181860281018601909452808452909460039092019385929084015b82821015610c235760008481526020908190208301805460408051601f6002600019610100600187161502019094169390930492830185900485028101850190915281815292830182828015610c0f5780601f10610be457610100808354040283529160200191610c0f565b820191906000526020600020905b815481529060010190602001808311610bf257829003601f168201915b505050505081526020019060010190610b78565b50505050915080805480602002602001604051908101604052809291908181526020018280548015610c7e57602002820191906000526020600020905b8154600160a060020a03168152600190910190602001808311610c60575b5050505050905092509250509250929050565b60118160038110610c9e57fe5b018054604080516020601f600260001961010060018816150201909516949094049384018190048102820181019092528281529350830182828015610d245780601f10610cf957610100808354040283529160200191610d24565b820191906000526020600020905b815481529060010190602001808311610d0757829003601f168201915b505050505081565b600081815260036020526040812054600160a060020a03168015156108465760405160e560020a62461bcd02815260040161083d906133aa565b6000806000610d7433610802565b600081815260036020526040902090935091505b83518110156107ea578160050173__addressSet____________________________63b65fd29490918684815181101515610dbf57fe5b906020019060200201516040518363ffffffff1660e060020a028152600401610de99291906133ca565b60006040518083038186803b158015610e0157600080fd5b505af4158015610e15573d6000803e3d6000fd5b505060019092019150610d889050565b6000806005836040518082805190602001908083835b60208310610e5a5780518252601f199092019160209182019101610e3b565b51815160209384036101000a6000190180199092169116179052920194855250604051938490030190922054925050508015156108465760405160e560020a62461bcd02815260040161083d9061338a565b600754600160a060020a031681565b600054600160a060020a03163314610ed257600080fd5b6006805473ffffffffffffffffffffffffffffffffffffffff1916600160a060020a0392909216919091179055565b600054600160a060020a031681565b600033600160a060020a03841614610f2757600080fd5b600754600160a060020a03848116911614610f4157600080fd5b600160a060020a038516600090815260016020526040902054610f6a908563ffffffff6125d716565b600160a060020a038616600090815260016020526040902055600254610f96908563ffffffff6125d716565b600255506040517f23b872dd0000000000000000000000000000000000000000000000000000000081528290600160a060020a038216906323b872dd90610fe590889030908990600401613241565b602060405180830381600087803b158015610fff57600080fd5b505af1158015611013573d6000803e3d6000fd5b505050506040513d601f19601f820116820180604052506110379190810190612b7b565b151561104257600080fd5b5050505050565b6000811161105657600080fd5b336000908152600160205260409020548111156110885760405160e560020a62461bcd02815260040161083d9061339a565b336000908152600160205260409020546110a8908263ffffffff6125e416565b3360009081526001602052604080822092909255600160a060020a038416815220546110da908263ffffffff6125d716565b600160a060020a0383166000908152600160205260409081902091909155517f9bd188aec8668fb7fd04179a5e2e425c7eae69ad3b0fcbe6d8aee4543ba961d39061112a90339085908590613241565b60405180910390a15050565b60025481565b600054600160a060020a0316331461115357600080fd5b6007805473ffffffffffffffffffffffffffffffffffffffff1916600160a060020a0392909216919091179055565b600080821161119057600080fd5b336000908152600160205260409020548211156111c25760405160e560020a62461bcd02815260040161083d9061335a565b336000908152600160205260409020546111e2908363ffffffff6125e416565b33600090815260016020526040902055600254611205908363ffffffff6125e416565b600255506007546040517fa9059cbb000000000000000000000000000000000000000000000000000000008152600160a060020a0390911690819063a9059cbb9061125690339086906004016132bb565b602060405180830381600087803b15801561127057600080fd5b505af1158015611284573d6000803e3d6000fd5b505050506040513d601f19601f820116820180604052506112a89190810190612b7b565b15156112b357600080fd5b5050565b6000838152600360205260408120805460609190600160a060020a031615156112f55760405160e560020a62461bcd02815260040161083d906133aa565b6040517fcb5ce7e500000000000000000000000000000000000000000000000000000000815273__uint8Set______________________________9063cb5ce7e59061134a9060038501908990600401613433565b60206040518083038186803b15801561136257600080fd5b505af4158015611376573d6000803e3d6000fd5b505050506040513d601f19601f8201168201806040525061139a9190810190612b7b565b15156113a557600080fd5b60ff851660009081526002820160205260409081902090517fd080be4f00000000000000000000000000000000000000000000000000000000815273__stringSet_____________________________9163d080be4f9161140e916001019088906004016133f3565b60206040518083038186803b15801561142657600080fd5b505af415801561143a573d6000803e3d6000fd5b505050506040513d601f19601f8201168201806040525061145e9190810190612b7b565b151561146957600080fd5b60ff851660009081526002820160209081526040918290209151865187928291908401908083835b602083106114b05780518252601f199092019160209182019101611491565b51815160209384036101000a60001901801990921691161790529201948552506040805194859003820185205460ff8b1660009081526002880184529190912089519195909450899350918291908401908083835b602083106115245780518252601f199092019160209182019101611505565b51815160209384036101000a6000190180199092169116179052920194855250604080519485900382018520600101805480840287018401909252818652949350849250908301828280156115a257602002820191906000526020600020905b8154600160a060020a03168152600190910190602001808311611584575b505050505090509250925050935093915050565b60ff8084166000908152601460205260408120549091829182911615156115f25760405160e560020a62461bcd02815260040161083d9061334a565b600160ff8716116116185760405160e560020a62461bcd02815260040161083d9061336a565b835185511461163c5760405160e560020a62461bcd02815260040161083d9061333a565b61164533610802565b600081815260036020526040902090935091505b84518110156118445760ff861660009081526002830160205260409020855186908390811061168457fe5b906020019060200201516040518082805190602001908083835b602083106116bd5780518252601f19909201916020918201910161169e565b51815160209384036101000a6000190180199092169116179052920194855250604051938490030190922060009055506116f790506125f6565b60ff871660009081526002840160205260409020865187908490811061171957fe5b906020019060200201516040518082805190602001908083835b602083106117525780518252601f199092019160209182019101611733565b51815160209384036101000a6000190180199092169116179052920194855250604051938490038101909320845180516001909201946117979450859350019061260e565b50505060ff861660009081526002830160205260409020855173__stringSet_____________________________91639b71f010916001909101908890859081106117de57fe5b906020019060200201516040518363ffffffff1660e060020a0281526004016118089291906133f3565b60006040518083038186803b15801561182057600080fd5b505af4158015611834573d6000803e3d6000fd5b5050600190920191506116599050565b60ff861660009081526002830160205260409081902090517ff0bb04e600000000000000000000000000000000000000000000000000000000815273__stringSet_____________________________9163f0bb04e6916118ab91600101906004016133e5565b60206040518083038186803b1580156118c357600080fd5b505af41580156118d7573d6000803e3d6000fd5b505050506040513d601f19601f820116820180604052506118fb9190810190612c21565b1515611987576040517f07a929ec00000000000000000000000000000000000000000000000000000000815273__uint8Set______________________________906307a929ec906119569060038601908a90600401613433565b60006040518083038186803b15801561196e57600080fd5b505af4158015611982573d6000803e3d6000fd5b505050505b505050505050565b3360009081526004602052604081205481906060908290819081908190156119cc5760405160e560020a62461bcd02815260040161083d9061337a565b6006546040517f69c212f6000000000000000000000000000000000000000000000000000000008152600160a060020a03909116965086906369c212f690611a18903390600401613233565b600060405180830381600087803b158015611a3257600080fd5b505af1158015611a46573d6000803e3d6000fd5b505050506040513d6000823e601f3d908101601f19168201604052611a6e9190810190612bce565b94506005856040518082805190602001908083835b60208310611aa25780518252601f199092019160209182019101611a83565b51815160209384036101000a6000190180199092169116179052920194855250604051938490030190922054159150611ad9905057fe5b6008805460018082019092556000818152600360209081526040909120805473ffffffffffffffffffffffffffffffffffffffff19163317815588519297509550611b2a928601919088019061267c565b505b60068260ff161015611c9b5760008960ff841660068110611b4957fe5b602002015114611c90578860ff831660068110611b6257fe5b602090810291909101516000808052600286019092526040909120600960ff851660068110611b8d57fe5b016040518082805460018160011615610100020316600290048015611be95780601f10611bc7576101008083540402835291820191611be9565b820191906000526020600020905b815481529060010190602001808311611bd5575b505092835250506040805160209281900383019020929092556000808052600286019091522073__stringSet_____________________________9063ea486c5390600101600960ff861660068110611c3e57fe5b016040518363ffffffff1660e060020a028152600401611c5f929190613413565b60006040518083038186803b158015611c7757600080fd5b505af4158015611c8b573d6000803e3d6000fd5b505050505b600190910190611b2c565b6040517f3d61036200000000000000000000000000000000000000000000000000000000815273__uint8Set______________________________90633d61036290611cf1906003870190600090600401613433565b60006040518083038186803b158015611d0957600080fd5b505af4158015611d1d573d6000803e3d6000fd5b505050505b60038160ff161015611e925760008860ff831660038110611d3f57fe5b602002015114611e8a578760ff821660038110611d5857fe5b6020908102919091015160016000908152600286019092526040909120601160ff841660038110611d8557fe5b016040518082805460018160011615610100020316600290048015611de15780601f10611dbf576101008083540402835291820191611de1565b820191906000526020600020905b815481529060010190602001808311611dcd575b50509283525050604080516020928190038301902092909255600160008181526002870190925291902073__stringSet_____________________________9163ea486c539101601160ff851660038110611e3857fe5b016040518363ffffffff1660e060020a028152600401611e59929190613413565b60006040518083038186803b158015611e7157600080fd5b505af4158015611e85573d6000803e3d6000fd5b505050505b600101611d22565b6040517f3d61036200000000000000000000000000000000000000000000000000000000815273__uint8Set______________________________90633d61036290611ee8906003870190600190600401613433565b60006040518083038186803b158015611f0057600080fd5b505af4158015611f14573d6000803e3d6000fd5b505033600090815260046020908152604091829020889055905188518894506005935089928291908401908083835b60208310611f625780518252601f199092019160209182019101611f43565b51815160209384036101000a600019018019909216911617905292019485525060405193849003019092209290925550939998505050505050505050565b60ff808416600090815260146020526040812054909182918291161515611fdc5760405160e560020a62461bcd02815260040161083d9061334a565b60ff8616600114156120035760405160e560020a62461bcd02815260040161083d906133ba565b83518551146120275760405160e560020a62461bcd02815260040161083d9061333a565b61203033610802565b600081815260036020526040902090935091505b84518110156123045760ff8616151561210857600f73__stringSet_____________________________63d080be4f9091878481518110151561208357fe5b906020019060200201516040518363ffffffff1660e060020a0281526004016120ad9291906133f3565b60206040518083038186803b1580156120c557600080fd5b505af41580156120d9573d6000803e3d6000fd5b505050506040513d601f19601f820116820180604052506120fd9190810190612b7b565b151561210857600080fd5b838181518110151561211657fe5b602090810290910181015160ff88166000908152600285019092526040909120865187908490811061214457fe5b906020019060200201516040518082805190602001908083835b6020831061217d5780518252601f19909201916020918201910161215e565b51815160209384036101000a6000190180199092169116179052920194855250604051938490030190922092909255506121b790506125f6565b60ff87166000908152600284016020526040902086518790849081106121d957fe5b906020019060200201516040518082805190602001908083835b602083106122125780518252601f1990920191602091820191016121f3565b51815160209384036101000a6000190180199092169116179052920194855250604051938490038101909320845180516001909201946122579450859350019061260e565b50505060ff861660009081526002830160205260409020855173__stringSet_____________________________9163ea486c539160019091019088908590811061229e57fe5b906020019060200201516040518363ffffffff1660e060020a0281526004016122c89291906133f3565b60006040518083038186803b1580156122e057600080fd5b505af41580156122f4573d6000803e3d6000fd5b5050600190920191506120449050565b6040517f3d61036200000000000000000000000000000000000000000000000000000000815273__uint8Set______________________________90633d610362906119569060038601908a90600401613433565b600054600160a060020a0316331461237057600080fd5b600160a060020a038116151561238557600080fd5b60008054604051600160a060020a03808516939216917f8be0079c531659141344cd1fd0a4f28419497f9722a3daafe3b4186f6b6457e091a36000805473ffffffffffffffffffffffffffffffffffffffff1916600160a060020a0392909216919091179055565b60098160068110610c9e57fe5b600081815260036020526040812080546060918291829190600160a060020a0316151561243c5760405160e560020a62461bcd02815260040161083d906133aa565b805460018083018054604080516020600261010096851615969096026000190190931694909404601f8101839004830285018301909152808452600160a060020a03909416939192600386019260058701928591908301828280156124e25780601f106124b7576101008083540402835291602001916124e2565b820191906000526020600020905b8154815290600101906020018083116124c557829003601f168201915b505050505092508180548060200260200160405190810160405280929190818152602001828054801561255257602002820191906000526020600020906000905b825461010083900a900460ff168152602060019283018181049485019490930390920291018084116125235790505b50505050509150808054806020026020016040519081016040528092919081815260200182805480156125ae57602002820191906000526020600020905b8154600160a060020a03168152600190910190602001808311612590575b505050505090509450945094509450509193509193565b60016020526000908152604090205481565b8181018281101561084657fe5b6000828211156125f057fe5b50900390565b6125fe6126f6565b6126066126f6565b8091505b5090565b828054828255906000526020600020908101928215612670579160200282015b82811115612670578251825473ffffffffffffffffffffffffffffffffffffffff1916600160a060020a0390911617825560209092019160019091019061262e565b5061260a929150612708565b828054600181600116156101000203166002900490600052602060002090601f016020900481019282601f106126bd57805160ff19168380011785556126ea565b828001600101855582156126ea579182015b828111156126ea5782518255916020019190600101906126cf565b5061260a92915061273c565b60408051602081019091526060815290565b61273991905b8082111561260a57805473ffffffffffffffffffffffffffffffffffffffff1916815560010161270e565b90565b61273991905b8082111561260a5760008155600101612742565b60006127628235613500565b9392505050565b6000601f8201831361277a57600080fd5b813561278d61278882613483565b61345c565b915081818352602084019350602081019050838560208402820111156127b257600080fd5b60005b838110156127de57816127c88882612756565b84525060209283019291909101906001016127b5565b5050505092915050565b6000601f820183136127f957600080fd5b6003612807612788826134a4565b9150818385602084028201111561281d57600080fd5b60005b838110156127de57816128338882612983565b8452506020928301929190910190600101612820565b6000601f8201831361285a57600080fd5b6006612868612788826134a4565b9150818385602084028201111561287e57600080fd5b60005b838110156127de57816128948882612983565b8452506020928301929190910190600101612881565b6000601f820183136128bb57600080fd5b81356128c961278882613483565b915081818352602084019350602081019050838560208402820111156128ee57600080fd5b60005b838110156127de57816129048882612983565b84525060209283019291909101906001016128f1565b6000601f8201831361292b57600080fd5b813561293961278882613483565b81815260209384019390925082018360005b838110156127de5781358601612961888261298f565b845250602092830192919091019060010161294b565b6000612762825161350c565b60006127628235612739565b6000601f820183136129a057600080fd5b81356129ae612788826134c2565b915080825260208301602083018583830111156129ca57600080fd5b6129d5838284613517565b50505092915050565b6000601f820183136129ef57600080fd5b81516129fd612788826134c2565b91508082526020830160208301858383011115612a1957600080fd5b6129d5838284613523565b60006127628251612739565b60006127628235613511565b600060208284031215612a4e57600080fd5b6000612a5a8484612756565b949350505050565b60008060408385031215612a7557600080fd5b6000612a818585612756565b9250506020612a9285828601612983565b9150509250929050565b60008060008060808587031215612ab257600080fd5b6000612abe8787612756565b9450506020612acf87828801612983565b9350506040612ae087828801612756565b925050606085013567ffffffffffffffff811115612afd57600080fd5b612b098782880161298f565b91505092959194509250565b600060208284031215612b2757600080fd5b813567ffffffffffffffff811115612b3e57600080fd5b612a5a84828501612769565b6000806101208385031215612b5e57600080fd5b6000612b6a8585612849565b92505060c0612a92858286016127e8565b600060208284031215612b8d57600080fd5b6000612a5a8484612977565b600060208284031215612bab57600080fd5b813567ffffffffffffffff811115612bc257600080fd5b612a5a8482850161298f565b600060208284031215612be057600080fd5b815167ffffffffffffffff811115612bf757600080fd5b612a5a848285016129de565b600060208284031215612c1557600080fd5b6000612a5a8484612983565b600060208284031215612c3357600080fd5b6000612a5a8484612a24565b60008060408385031215612c5257600080fd5b6000612c5e8585612983565b9250506020612a9285828601612a30565b600080600060608486031215612c8457600080fd5b6000612c908686612983565b9350506020612ca186828701612a30565b925050604084013567ffffffffffffffff811115612cbe57600080fd5b612cca8682870161298f565b9150509250925092565b600060208284031215612ce657600080fd5b6000612a5a8484612a30565b600080600060608486031215612d0757600080fd5b6000612d138686612a30565b935050602084013567ffffffffffffffff811115612d3057600080fd5b612d3c8682870161291a565b925050604084013567ffffffffffffffff811115612d5957600080fd5b612cca868287016128aa565b600080600060608486031215612d7a57600080fd5b6000612d868686612a30565b935050602084013567ffffffffffffffff811115612da357600080fd5b612daf8682870161298f565b925050604084013567ffffffffffffffff811115612dcc57600080fd5b612cca86828701612769565b612de181613500565b82525050565b6000612df2826134fc565b808452602084019350612e04836134ea565b60005b82811015612e3457612e1a868351612dd8565b612e23826134ea565b602096909601959150600101612e07565b5093949350505050565b6000612e49826134fc565b80845260208401935083602082028501612e62856134ea565b60005b84811015612e99578383038852612e7d838351612f04565b9250612e88826134ea565b602098909801979150600101612e65565b50909695505050505050565b6000612eb0826134fc565b808452602084019350612ec2836134ea565b60005b82811015612e3457612ed886835161322a565b612ee1826134ea565b602096909601959150600101612ec5565b612de18161350c565b612de181612739565b6000612f0f826134fc565b808452612f23816020860160208601613523565b612f2c8161354f565b9093016020019392505050565b600081546001811660008114612f565760018114612f7457612fb0565b60028204607f16855260ff1982166020860152604085019250612fb0565b60028204808652602086019550612f8a856134f0565b60005b82811015612fa957815488820152600190910190602001612f8d565b8701945050505b505092915050565b601181527f4d616c666f726d656420696e707574732e000000000000000000000000000000602082015260400190565b600e81527f496e76616c6964206669656c642e000000000000000000000000000000000000602082015260400190565b603081527f596f75722062616c616e636520697320746f6f206c6f7720746f20776974686460208201527f726177207468697320616d6f756e742e00000000000000000000000000000000604082015260600190565b601f81527f5468657365206669656c64732063616e6e6f742062652072656d6f7665642e00602082015260400190565b603481527f54686973206164647265737320697320616c7265616479206173736f6369617460208201527f6564207769746820616e206964656e746974792e000000000000000000000000604082015260600190565b602681527f54686973206164647265737320646f6573206e6f7420706f737365737320612060208201527f746f6b656e2e0000000000000000000000000000000000000000000000000000604082015260600190565b603081527f596f75722062616c616e636520697320746f6f206c6f7720746f207472616e7360208201527f666572207468697320616d6f756e742e00000000000000000000000000000000604082015260600190565b602381527f5468697320746f6b656e20686173206e6f7420796574206265656e206d696e7460208201527f65642e0000000000000000000000000000000000000000000000000000000000604082015260600190565b601e81527f54686973206669656c642063616e6e6f74206265206d6f6469666965642e0000602082015260400190565b9052565b612de181613511565b602081016108468284612dd8565b6060810161324f8286612dd8565b61325c6020830185612dd8565b612a5a6040830184612efb565b608081016132778287612dd8565b81810360208301526132898186612f04565b9050818103604083015261329d8185612ea5565b905081810360608301526132b18184612de7565b9695505050505050565b604081016132c98285612dd8565b6127626020830184612efb565b604080825281016132e78185612e3e565b90508181036020830152612a5a8184612de7565b602081016108468284612ef2565b604081016133178285612efb565b8181036020830152612a5a8184612de7565b602080825281016127628184612f04565b6020808252810161084681612fb8565b6020808252810161084681612fe8565b6020808252810161084681613018565b602080825281016108468161306e565b602080825281016108468161309e565b60208082528101610846816130f4565b602080825281016108468161314a565b60208082528101610846816131a0565b60208082528101610846816131f6565b604081016133d88285613226565b6127626020830184612dd8565b602081016108468284613226565b604081016134018285613226565b8181036020830152612a5a8184612f04565b604081016134218285613226565b8181036020830152612a5a8184612f39565b604081016134418285613226565b612762602083018461322a565b602081016108468284612efb565b60405181810167ffffffffffffffff8111828210171561347b57600080fd5b604052919050565b600067ffffffffffffffff82111561349a57600080fd5b5060209081020190565b600067ffffffffffffffff8211156134bb57600080fd5b5060200290565b600067ffffffffffffffff8211156134d957600080fd5b506020601f91909101601f19160190565b60200190565b60009081526020902090565b5190565b600160a060020a031690565b151590565b60ff1690565b82818337506000910152565b60005b8381101561353e578181015183820152602001613526565b838111156107ea5750506000910152565b601f01601f1916905600a265627a7a7230582062e29f154dd98de37bde564e5394096c06bb7c5fdc1c709f20f6a3b37a3e2e7c6c6578706572696d656e74616cf50037",
  "source": "pragma solidity ^0.4.24;\npragma experimental ABIEncoderV2;\n\nimport \"./zeppelin/ownership/Ownable.sol\";\nimport \"./zeppelin/token/ERC20/ERC20.sol\";\nimport \"./zeppelin/math/SafeMath.sol\";\n\nimport \"./libraries/uint8Set.sol\";\nimport \"./libraries/stringSet.sol\";\nimport \"./libraries/addressSet.sol\";\n\n\ninterface ClientRaindrop {\n    function getUserByAddress(address _address) external view returns (string userName);\n}\n\n\ncontract Snowflake is Ownable {\n    using SafeMath for uint256;\n    using uint8Set for uint8Set._uint8Set;\n    using stringSet for stringSet._stringSet;\n    using addressSet for addressSet._addressSet;\n\n    event SnowflakeTransfer(address _from, address _to, uint _amount);\n\n    // hydro token wrapper variables\n    mapping (address => uint256) public deposits;\n    uint public balance;\n\n    // Token lookup mappings\n    mapping (uint256 => Identity) internal tokenIdentities;\n    mapping (address => uint256) public ownerToToken;\n    mapping (string => uint256) internal hydroIdToToken;\n\n    // contract variables\n    address public clientRaindropAddress;\n    address public hydroTokenAddress;\n    uint internal nextTokenId = 1;\n\n    string[6] public nameOrder = [\"prefix\", \"givenName\", \"middleName\", \"surname\", \"suffix\", \"preferredName\"];\n    stringSet._stringSet internal editableNameEntries;\n    string[3] public dateOrder = [\"day\", \"month\", \"year\"];\n\n    struct Entry {\n        bytes32 saltedHash; // required, encrypted plaintext data. specifically: keccak256(abi.encodePacked(data, salt))\n        addressSet._addressSet resolversFor; // optional, set of addresses that contain additional data about this field\n    }\n\n    struct SnowflakeField {\n        mapping (string => Entry) entries; // required, entries with encrypted data attested to by users and other info\n        stringSet._stringSet entriesAttestedTo; // required, entries that the user has made\n        addressSet._addressSet resolversFor; // optional, set of addresses that contain additional data about this field\n    }\n\n    struct Identity {\n        address owner;\n        string hydroId;\n        mapping (uint8 => SnowflakeField) fields; // mapping of AllowedSnowflakeFields to SnowflakeFields\n        uint8Set._uint8Set fieldsAttestedTo;\n        addressSet._addressSet thirdPartyResolvers; // optional, set of third-party resolvers\n    }\n\n    enum AllowedSnowflakeFields { Name, DateOfBirth, Emails, PhoneNumbers, PhysicalAddresses, MAXIMUM }\n    mapping (uint8 => bool) public allowedFields;\n\n    constructor () public {\n        // initialize allowed snowflake fields\n        for (uint8 i; i < uint8(AllowedSnowflakeFields.MAXIMUM); i++) {\n            allowedFields[i] = true;\n        }\n        editableNameEntries.insert(\"prefix\");\n        editableNameEntries.insert(\"suffix\");\n        editableNameEntries.insert(\"preferredName\");\n    }\n\n    modifier requireMinimumBalance(address _address, uint _balance) {\n        require(deposits[_address] >= _balance, \"Insufficient HYDRO balance.\");\n        _;\n    }\n\n    function ownerOf(uint256 _tokenId) public view returns (address) {\n        address owner = tokenIdentities[_tokenId].owner;\n        require(owner != address(0), \"This token has not yet been minted.\");\n        return owner;\n    }\n\n    function tokenOfAddress(address _address) public view returns (uint256) {\n        uint256 tokenId = ownerToToken[_address];\n        require(tokenId != 0, \"This address does not possess a token.\");\n        return tokenId;\n    }\n\n    function tokenOfHydroID(string hydroId) public view returns (uint256) {\n        uint256 tokenId = hydroIdToToken[hydroId];\n        require(tokenId != 0, \"This address does not possess a token.\");\n        return tokenId;\n    }\n\n    function setClientRaindropAddress(address _address) public onlyOwner {\n        clientRaindropAddress = _address;\n    }\n\n    function setHydroTokenAddress(address _address) public onlyOwner {\n        hydroTokenAddress = _address;\n    }\n\n    function mintIdentityToken(bytes32[6] names, bytes32[3] dateOfBirth) public returns(uint tokenId) {\n        require(ownerToToken[msg.sender] == 0, \"This address is already associated with an identity.\");\n\n        ClientRaindrop clientRaindrop = ClientRaindrop(clientRaindropAddress);\n        string memory _hydroId = clientRaindrop.getUserByAddress(msg.sender);\n\n        assert(hydroIdToToken[_hydroId] == 0);\n\n        uint newTokenId = nextTokenId++;\n        Identity storage identity = tokenIdentities[newTokenId];\n\n        identity.owner = msg.sender;\n        identity.hydroId = _hydroId;\n\n        for (uint8 i; i < names.length; i++) {\n            if (names[i] != bytes32(0x0)) {\n                identity.fields[uint8(AllowedSnowflakeFields.Name)].entries[nameOrder[i]].saltedHash = names[i];\n                identity.fields[uint8(AllowedSnowflakeFields.Name)].entriesAttestedTo.insert(nameOrder[i]);\n            }\n        }\n        identity.fieldsAttestedTo.insert(uint8(AllowedSnowflakeFields.Name));\n\n        for (uint8 j; j < dateOfBirth.length; j++) {\n            if (dateOfBirth[j] != bytes32(0x0)) {\n                identity.fields[uint8(AllowedSnowflakeFields.DateOfBirth)]\n                    .entries[dateOrder[j]].saltedHash = dateOfBirth[j];\n                identity.fields[uint8(AllowedSnowflakeFields.DateOfBirth)].entriesAttestedTo.insert(dateOrder[j]);\n            }\n        }\n        identity.fieldsAttestedTo.insert(uint8(AllowedSnowflakeFields.DateOfBirth));\n\n        ownerToToken[msg.sender] = newTokenId;\n        hydroIdToToken[_hydroId] = newTokenId;\n\n        return newTokenId;\n    }\n\n    function addResolver(uint8 field, string entry, address[] resolvers) public {\n        uint tokenId = tokenOfAddress(msg.sender);\n        Identity storage identity = tokenIdentities[tokenId];\n        // setting resolvers for an entire field vs. for an entry within a field\n        if (bytes(entry).length == 0) {\n            for (uint i; i < resolvers.length; i++) {\n                identity.fields[field].resolversFor.insert(resolvers[i]);\n            }\n        } else {\n            for (uint j; j < resolvers.length; j++) {\n                identity.fields[field].entries[entry].resolversFor.insert(resolvers[j]);\n            }\n        }\n    }\n\n    function removeResolver(uint8 field, string entry, address[] resolvers) public {\n        uint tokenId = tokenOfAddress(msg.sender);\n        Identity storage identity = tokenIdentities[tokenId];\n        // setting resolvers for an entire field vs. for an entry within a field\n        if (bytes(entry).length == 0) {\n            for (uint i; i < resolvers.length; i++) {\n                identity.fields[field].resolversFor.remove(resolvers[i]);\n            }\n        } else {\n            for (uint j; j < resolvers.length; j++) {\n                identity.fields[field].entries[entry].resolversFor.remove(resolvers[j]);\n            }\n        }\n    }\n\n    function addThirdPartyResolvers(address[] resolvers) public {\n        uint tokenId = tokenOfAddress(msg.sender);\n        Identity storage identity = tokenIdentities[tokenId];\n        // setting resolvers for an entire field vs. for an entry within a field\n        for (uint i; i < resolvers.length; i++) {\n            identity.thirdPartyResolvers.insert(resolvers[i]);\n        }\n    }\n\n    function removeThirdPartyResolvers(address[] resolvers) public {\n        uint tokenId = tokenOfAddress(msg.sender);\n        Identity storage identity = tokenIdentities[tokenId];\n        // setting resolvers for an entire field vs. for an entry within a field\n        for (uint i; i < resolvers.length; i++) {\n            identity.thirdPartyResolvers.remove(resolvers[i]);\n        }\n    }\n\n    function addUpdateFieldEntries(uint8 field, string[] entries, bytes32[] saltedHashes) public {\n        require(allowedFields[field], \"Invalid field.\");\n        require(field != uint8(AllowedSnowflakeFields.DateOfBirth), \"This field cannot be modified.\");\n        require(entries.length == saltedHashes.length, \"Malformed inputs.\");\n\n        uint tokenId = tokenOfAddress(msg.sender);\n        Identity storage identity = tokenIdentities[tokenId];\n\n        for (uint i; i < entries.length; i++) {\n            if (field == uint8(AllowedSnowflakeFields.Name))\n                require(editableNameEntries.contains(entries[i]));\n            identity.fields[field].entries[entries[i]].saltedHash = saltedHashes[i];\n            identity.fields[field].entries[entries[i]].resolversFor = getEmptyAddressSet();\n            identity.fields[field].entriesAttestedTo.insert(entries[i]);\n        }\n        identity.fieldsAttestedTo.insert(field);\n    }\n\n    function removeFieldEntries(uint8 field, string[] entries, bytes32[] saltedHashes) public {\n        require(allowedFields[field], \"Invalid field.\");\n        require(field > uint8(AllowedSnowflakeFields.DateOfBirth), \"These fields cannot be removed.\");\n        require(entries.length == saltedHashes.length, \"Malformed inputs.\");\n\n        uint tokenId = tokenOfAddress(msg.sender);\n        Identity storage identity = tokenIdentities[tokenId];\n\n        for (uint i; i < entries.length; i++) {\n            delete identity.fields[field].entries[entries[i]].saltedHash;\n            identity.fields[field].entries[entries[i]].resolversFor = getEmptyAddressSet();\n            identity.fields[field].entriesAttestedTo.remove(entries[i]);\n        }\n\n        if (identity.fields[field].entriesAttestedTo.length() == 0)\n            identity.fieldsAttestedTo.remove(field);\n    }\n\n    // functions to read token values\n    function tokenDetails(uint tokenId) public view returns (\n        address owner, string hydroId, uint8[] fieldsAttestedTo, address[] thirdPartyResolvers\n    ) {\n        Identity storage identity = tokenIdentities[tokenId];\n        require(identity.owner != address(0), \"This token has not yet been minted.\");\n        return (\n            identity.owner,\n            identity.hydroId,\n            identity.fieldsAttestedTo.members,\n            identity.thirdPartyResolvers.members\n        );\n    }\n\n    function fieldDetails(uint tokenId, uint8 field) public view returns (\n        string[] entriesAttestedTo, address[] resolversFor\n    ) {\n        Identity storage identity = tokenIdentities[tokenId];\n        require(identity.owner != address(0), \"This token has not yet been minted.\");\n        require(identity.fieldsAttestedTo.contains(field));\n        return (\n            identity.fields[field].entriesAttestedTo.members,\n            identity.fields[field].resolversFor.members\n        );\n    }\n\n    function entryDetails(uint tokenId, uint8 field, string entry) public view returns (\n        bytes32 saltedHash, address[] resolversFor\n    ) {\n        Identity storage identity = tokenIdentities[tokenId];\n        require(identity.owner != address(0), \"This token has not yet been minted.\");\n        require(identity.fieldsAttestedTo.contains(field));\n        require(identity.fields[field].entriesAttestedTo.contains(entry));\n        return (\n            identity.fields[field].entries[entry].saltedHash,\n            identity.fields[field].entries[entry].resolversFor.members\n        );\n    }\n\n    function receiveApproval(address _sender, uint _amount, address _tokenAddress, bytes) public {\n        require(msg.sender == _tokenAddress);\n        require(_tokenAddress == hydroTokenAddress);\n        deposits[_sender] = deposits[_sender].add(_amount);\n        balance = balance.add(_amount);\n        ERC20 hydro = ERC20(_tokenAddress);\n        require(hydro.transferFrom(_sender, address(this), _amount));\n    }\n\n    function withdrawSnowflakeBalance(uint _amount) public {\n        require(_amount > 0);\n        require(deposits[msg.sender] >= _amount, \"Your balance is too low to withdraw this amount.\");\n        deposits[msg.sender] = deposits[msg.sender].sub(_amount);\n        balance = balance.sub(_amount);\n        ERC20 hydro = ERC20(hydroTokenAddress);\n        require(hydro.transfer(msg.sender, _amount));\n    }\n\n    function transferSnowflakeBalance(address _to, uint _amount) public {\n        require(_amount > 0);\n        require(deposits[msg.sender] >= _amount, \"Your balance is too low to transfer this amount.\");\n        deposits[msg.sender] = deposits[msg.sender].sub(_amount);\n        deposits[_to] = deposits[_to].add(_amount);\n        emit SnowflakeTransfer(msg.sender, _to, _amount);\n    }\n\n    function getEmptyAddressSet() internal pure returns (addressSet._addressSet memory) {\n        addressSet._addressSet memory empty;\n        return empty;\n    }\n}\n",
  "sourcePath": "/Users/noahzinsmeister/Documents/github/smart-contracts/snowflake-poc/contracts/Snowflake.sol",
  "compiler": {
    "name": "solc",
    "version": "0.4.24+commit.e67f0147.Emscripten.clang"
  },
  "schemaVersion": "2.0.0",
  "updatedAt": "2018-06-04T21:18:07.008Z"
}