{
  "contractName": "Snowflake",
  "abi": [
    {
      "constant": true,
      "inputs": [
        {
          "name": "",
          "type": "uint8"
        }
      ],
      "name": "allowedFields",
      "outputs": [
        {
          "name": "",
          "type": "bool"
        }
      ],
      "payable": false,
      "stateMutability": "view",
      "type": "function"
    },
    {
      "constant": true,
      "inputs": [
        {
          "name": "",
          "type": "address"
        }
      ],
      "name": "ownerToToken",
      "outputs": [
        {
          "name": "",
          "type": "uint256"
        }
      ],
      "payable": false,
      "stateMutability": "view",
      "type": "function"
    },
    {
      "constant": true,
      "inputs": [],
      "name": "clientRaindropAddress",
      "outputs": [
        {
          "name": "",
          "type": "address"
        }
      ],
      "payable": false,
      "stateMutability": "view",
      "type": "function"
    },
    {
      "constant": true,
      "inputs": [
        {
          "name": "",
          "type": "uint256"
        }
      ],
      "name": "dateOrder",
      "outputs": [
        {
          "name": "",
          "type": "string"
        }
      ],
      "payable": false,
      "stateMutability": "view",
      "type": "function"
    },
    {
      "constant": true,
      "inputs": [],
      "name": "hydroTokenAddress",
      "outputs": [
        {
          "name": "",
          "type": "address"
        }
      ],
      "payable": false,
      "stateMutability": "view",
      "type": "function"
    },
    {
      "constant": true,
      "inputs": [],
      "name": "owner",
      "outputs": [
        {
          "name": "",
          "type": "address"
        }
      ],
      "payable": false,
      "stateMutability": "view",
      "type": "function"
    },
    {
      "constant": true,
      "inputs": [],
      "name": "balance",
      "outputs": [
        {
          "name": "",
          "type": "uint256"
        }
      ],
      "payable": false,
      "stateMutability": "view",
      "type": "function"
    },
    {
      "constant": false,
      "inputs": [
        {
          "name": "newOwner",
          "type": "address"
        }
      ],
      "name": "transferOwnership",
      "outputs": [],
      "payable": false,
      "stateMutability": "nonpayable",
      "type": "function"
    },
    {
      "constant": true,
      "inputs": [
        {
          "name": "",
          "type": "uint256"
        }
      ],
      "name": "nameOrder",
      "outputs": [
        {
          "name": "",
          "type": "string"
        }
      ],
      "payable": false,
      "stateMutability": "view",
      "type": "function"
    },
    {
      "constant": true,
      "inputs": [
        {
          "name": "",
          "type": "address"
        }
      ],
      "name": "deposits",
      "outputs": [
        {
          "name": "",
          "type": "uint256"
        }
      ],
      "payable": false,
      "stateMutability": "view",
      "type": "function"
    },
    {
      "inputs": [],
      "payable": false,
      "stateMutability": "nonpayable",
      "type": "constructor"
    },
    {
      "anonymous": false,
      "inputs": [
        {
          "indexed": false,
          "name": "_owner",
          "type": "address"
        },
        {
          "indexed": false,
          "name": "_amount",
          "type": "uint256"
        }
      ],
      "name": "SnowflakeDeposit",
      "type": "event"
    },
    {
      "anonymous": false,
      "inputs": [
        {
          "indexed": false,
          "name": "_sender",
          "type": "address"
        },
        {
          "indexed": false,
          "name": "_to",
          "type": "address"
        },
        {
          "indexed": false,
          "name": "_amount",
          "type": "uint256"
        }
      ],
      "name": "SnowflakeTransfer",
      "type": "event"
    },
    {
      "anonymous": false,
      "inputs": [
        {
          "indexed": false,
          "name": "_to",
          "type": "address"
        },
        {
          "indexed": false,
          "name": "_amount",
          "type": "uint256"
        }
      ],
      "name": "SnowflakeWithdraw",
      "type": "event"
    },
    {
      "anonymous": false,
      "inputs": [
        {
          "indexed": false,
          "name": "_tokenId",
          "type": "uint256"
        },
        {
          "indexed": false,
          "name": "_resolvers",
          "type": "address[]"
        },
        {
          "indexed": false,
          "name": "added",
          "type": "bool"
        }
      ],
      "name": "ResolversModified",
      "type": "event"
    },
    {
      "anonymous": false,
      "inputs": [
        {
          "indexed": false,
          "name": "_tokenId",
          "type": "uint256"
        },
        {
          "indexed": false,
          "name": "field",
          "type": "uint8"
        },
        {
          "indexed": false,
          "name": "_resolvers",
          "type": "address[]"
        },
        {
          "indexed": false,
          "name": "added",
          "type": "bool"
        }
      ],
      "name": "ResolversModified",
      "type": "event"
    },
    {
      "anonymous": false,
      "inputs": [
        {
          "indexed": false,
          "name": "_tokenId",
          "type": "uint256"
        },
        {
          "indexed": false,
          "name": "field",
          "type": "uint8"
        },
        {
          "indexed": false,
          "name": "entry",
          "type": "string"
        },
        {
          "indexed": false,
          "name": "_resolvers",
          "type": "address[]"
        },
        {
          "indexed": false,
          "name": "added",
          "type": "bool"
        }
      ],
      "name": "ResolversModified",
      "type": "event"
    },
    {
      "anonymous": false,
      "inputs": [
        {
          "indexed": true,
          "name": "previousOwner",
          "type": "address"
        },
        {
          "indexed": true,
          "name": "newOwner",
          "type": "address"
        }
      ],
      "name": "OwnershipTransferred",
      "type": "event"
    },
    {
      "constant": true,
      "inputs": [
        {
          "name": "_address",
          "type": "address"
        }
      ],
      "name": "getTokenId",
      "outputs": [
        {
          "name": "tokenId",
          "type": "uint256"
        }
      ],
      "payable": false,
      "stateMutability": "view",
      "type": "function"
    },
    {
      "constant": false,
      "inputs": [
        {
          "name": "clientRaindrop",
          "type": "address"
        },
        {
          "name": "hydroToken",
          "type": "address"
        }
      ],
      "name": "setAddresses",
      "outputs": [],
      "payable": false,
      "stateMutability": "nonpayable",
      "type": "function"
    },
    {
      "constant": false,
      "inputs": [
        {
          "name": "names",
          "type": "bytes32[6]"
        },
        {
          "name": "dateOfBirth",
          "type": "bytes32[3]"
        }
      ],
      "name": "mintIdentityToken",
      "outputs": [
        {
          "name": "tokenId",
          "type": "uint256"
        }
      ],
      "payable": false,
      "stateMutability": "nonpayable",
      "type": "function"
    },
    {
      "constant": false,
      "inputs": [
        {
          "name": "field",
          "type": "uint8"
        },
        {
          "name": "resolvers",
          "type": "address[]"
        },
        {
          "name": "add",
          "type": "bool"
        }
      ],
      "name": "modifyResolvers",
      "outputs": [],
      "payable": false,
      "stateMutability": "nonpayable",
      "type": "function"
    },
    {
      "constant": false,
      "inputs": [
        {
          "name": "field",
          "type": "uint8"
        },
        {
          "name": "entry",
          "type": "string"
        },
        {
          "name": "resolvers",
          "type": "address[]"
        },
        {
          "name": "add",
          "type": "bool"
        }
      ],
      "name": "modifyResolvers",
      "outputs": [],
      "payable": false,
      "stateMutability": "nonpayable",
      "type": "function"
    },
    {
      "constant": false,
      "inputs": [
        {
          "name": "resolvers",
          "type": "address[]"
        },
        {
          "name": "add",
          "type": "bool"
        }
      ],
      "name": "modifyResolvers",
      "outputs": [],
      "payable": false,
      "stateMutability": "nonpayable",
      "type": "function"
    },
    {
      "constant": false,
      "inputs": [
        {
          "name": "field",
          "type": "uint8"
        },
        {
          "name": "entries",
          "type": "string[]"
        },
        {
          "name": "saltedHashes",
          "type": "bytes32[]"
        },
        {
          "name": "add",
          "type": "bool"
        }
      ],
      "name": "modifyFieldEntries",
      "outputs": [],
      "payable": false,
      "stateMutability": "nonpayable",
      "type": "function"
    },
    {
      "constant": true,
      "inputs": [
        {
          "name": "tokenId",
          "type": "uint256"
        },
        {
          "name": "resolver",
          "type": "address"
        }
      ],
      "name": "hasResolver",
      "outputs": [
        {
          "name": "",
          "type": "bool"
        }
      ],
      "payable": false,
      "stateMutability": "view",
      "type": "function"
    },
    {
      "constant": true,
      "inputs": [
        {
          "name": "tokenId",
          "type": "uint256"
        },
        {
          "name": "field",
          "type": "uint8"
        },
        {
          "name": "entry",
          "type": "string"
        },
        {
          "name": "resolver",
          "type": "address"
        }
      ],
      "name": "hasResolver",
      "outputs": [
        {
          "name": "",
          "type": "bool"
        }
      ],
      "payable": false,
      "stateMutability": "view",
      "type": "function"
    },
    {
      "constant": true,
      "inputs": [
        {
          "name": "tokenId",
          "type": "uint256"
        },
        {
          "name": "field",
          "type": "uint8"
        },
        {
          "name": "resolver",
          "type": "address"
        }
      ],
      "name": "hasResolver",
      "outputs": [
        {
          "name": "",
          "type": "bool"
        }
      ],
      "payable": false,
      "stateMutability": "view",
      "type": "function"
    },
    {
      "constant": true,
      "inputs": [
        {
          "name": "tokenId",
          "type": "uint256"
        },
        {
          "name": "field",
          "type": "uint8"
        },
        {
          "name": "entry",
          "type": "string"
        }
      ],
      "name": "hasAttested",
      "outputs": [
        {
          "name": "",
          "type": "bool"
        }
      ],
      "payable": false,
      "stateMutability": "view",
      "type": "function"
    },
    {
      "constant": true,
      "inputs": [
        {
          "name": "tokenId",
          "type": "uint256"
        },
        {
          "name": "field",
          "type": "uint8"
        }
      ],
      "name": "hasAttested",
      "outputs": [
        {
          "name": "",
          "type": "bool"
        }
      ],
      "payable": false,
      "stateMutability": "view",
      "type": "function"
    },
    {
      "constant": true,
      "inputs": [
        {
          "name": "tokenId",
          "type": "uint256"
        }
      ],
      "name": "getDetails",
      "outputs": [
        {
          "name": "owner",
          "type": "address"
        },
        {
          "name": "hydroId",
          "type": "string"
        },
        {
          "name": "fieldsAttestedTo",
          "type": "uint8[]"
        },
        {
          "name": "resolversFor",
          "type": "address[]"
        }
      ],
      "payable": false,
      "stateMutability": "view",
      "type": "function"
    },
    {
      "constant": true,
      "inputs": [
        {
          "name": "tokenId",
          "type": "uint256"
        },
        {
          "name": "field",
          "type": "uint8"
        },
        {
          "name": "entry",
          "type": "string"
        }
      ],
      "name": "getDetails",
      "outputs": [
        {
          "name": "saltedHash",
          "type": "bytes32"
        },
        {
          "name": "resolversFor",
          "type": "address[]"
        }
      ],
      "payable": false,
      "stateMutability": "view",
      "type": "function"
    },
    {
      "constant": true,
      "inputs": [
        {
          "name": "tokenId",
          "type": "uint256"
        },
        {
          "name": "field",
          "type": "uint8"
        }
      ],
      "name": "getDetails",
      "outputs": [
        {
          "name": "entriesAttestedTo",
          "type": "string[]"
        },
        {
          "name": "resolversFor",
          "type": "address[]"
        }
      ],
      "payable": false,
      "stateMutability": "view",
      "type": "function"
    },
    {
      "constant": false,
      "inputs": [
        {
          "name": "_sender",
          "type": "address"
        },
        {
          "name": "_amount",
          "type": "uint256"
        },
        {
          "name": "_tokenAddress",
          "type": "address"
        },
        {
          "name": "",
          "type": "bytes"
        }
      ],
      "name": "receiveApproval",
      "outputs": [],
      "payable": false,
      "stateMutability": "nonpayable",
      "type": "function"
    },
    {
      "constant": false,
      "inputs": [
        {
          "name": "_amount",
          "type": "uint256"
        }
      ],
      "name": "withdrawSnowflakeBalance",
      "outputs": [],
      "payable": false,
      "stateMutability": "nonpayable",
      "type": "function"
    },
    {
      "constant": false,
      "inputs": [
        {
          "name": "_to",
          "type": "address"
        },
        {
          "name": "_amount",
          "type": "uint256"
        }
      ],
      "name": "transferSnowflakeBalance",
      "outputs": [],
      "payable": false,
      "stateMutability": "nonpayable",
      "type": "function"
    }
  ],
  "bytecode": "0x6001600790815560066101408181527f707265666978000000000000000000000000000000000000000000000000000061016052608090815260096101809081527f676976656e4e616d6500000000000000000000000000000000000000000000006101a05260a052600a6101c09081527f6d6964646c654e616d65000000000000000000000000000000000000000000006101e05260c0526102009283527f7375726e616d65000000000000000000000000000000000000000000000000006102205260e0929092526102408181527f737566666978000000000000000000000000000000000000000000000000000061026052610100526102c0604052600d6102809081527f7072656665727265644e616d65000000000000000000000000000000000000006102a052610120526200013d91600891620003c6565b506040805160a0810182526003606082018181527f64617900000000000000000000000000000000000000000000000000000000006080840152825282518084018452600581527f6d6f6e74680000000000000000000000000000000000000000000000000000006020828101919091528084019190915283518085018552600481527f79656172000000000000000000000000000000000000000000000000000000009181019190915292820192909252620001fe91600e91906200041d565b503480156200020c57600080fd5b5060008054600160a060020a031916331781557f4ad3b33220dddc71b994a52d72c06b10862965f7d926534c05c00fb7e819e7b7805460ff1990811660019081179092557f08037d7b151cc412d25674a4e66b334d9ae9d2e5517a7feaae5cdb828bf1c62880548216831790557f9bfbaa59f8e10e7868f8b402de9d605a390c45ddaebd8c9de3c6f31e733c87ff80548216831790557f251164fe1d8864fe5e86082eae9c288bc2b58695a4d28538dfe86e9e4f175585805482168317905582805260126020818152604080517f676976656e4e616d65000000000000000000000000000000000000000000000081527f7e7fa33969761a458e04f477e039a608702b4f924981d6653935a8319a08ad7b60098201819052825191829003602901822080548716881790558780528484527f6d6964646c654e616d65000000000000000000000000000000000000000000008252600a8201819052825191829003602a0182208054871688179055968052929091527f7375726e616d650000000000000000000000000000000000000000000000000082526007820194909452925192839003602701909220805490921617905562000576565b82600681019282156200040b579160200282015b828111156200040b5782518051620003fa91849160209091019062000462565b5091602001919060010190620003da565b5062000419929150620004e3565b5090565b82600381019282156200040b579160200282015b828111156200040b57825180516200045191849160209091019062000462565b509160200191906001019062000431565b828054600181600116156101000203166002900490600052602060002090601f016020900481019282601f10620004a557805160ff1916838001178555620004d5565b82800160010185558215620004d5579182015b82811115620004d5578251825591602001919060010190620004b8565b50620004199291506200050e565b6200050b91905b80821115620004195760006200050182826200052b565b50600101620004ea565b90565b6200050b91905b8082111562000419576000815560010162000515565b50805460018160011615610100020316600290046000825580601f1062000553575062000573565b601f0160209004906000526020600020908101906200057391906200050e565b50565b613f2c80620005866000396000f3006080604052600436106101505763ffffffff60e060020a60003504166303136be781146101555780630ce5aeef1461018b5780631dfc99c4146101b85780632bd78338146101da57806344e7c4c4146101fa578063484ca5a1146102275780636b817923146102475780636c92480a1461026957806375d7e4bd1461029757806377f55933146102ac57806383cf6ae5146102da5780638da5cb5b146102fa5780638f4ffcb11461030f57806390107afe1461032f57806391a39b6d1461034f57806391d6ccd81461036f578063a2bfb9b41461038f578063a861eae3146103af578063b69ef8a8146103cf578063b93a89f7146103e4578063c0928e2a14610414578063d15b234f14610434578063d57c198e14610454578063f153768614610474578063f2fde38b14610494578063f420ff68146104b4578063f61d44ad146104d4578063fc7e286d146104f4575b600080fd5b34801561016157600080fd5b50610175610170366004613553565b610514565b6040516101829190613bdc565b60405180910390f35b34801561019757600080fd5b506101ab6101a63660046131df565b610529565b6040516101829190613d1f565b3480156101c457600080fd5b506101cd61053b565b6040516101829190613b14565b3480156101e657600080fd5b506101756101f536600461348b565b61054a565b34801561020657600080fd5b5061021a6102153660046133b3565b6106f0565b6040516101829190613c0a565b34801561023357600080fd5b5061017561024236600461340e565b61078b565b34801561025357600080fd5b50610267610262366004613651565b610875565b005b34801561027557600080fd5b5061028961028436600461340e565b610ca1565b604051610182929190613bb7565b3480156102a357600080fd5b506101cd610ee2565b3480156102b857600080fd5b506102cc6102c736600461348b565b610ef1565b604051610182929190613bea565b3480156102e657600080fd5b506101756102f53660046133ef565b6111da565b34801561030657600080fd5b506101cd61127e565b34801561031b57600080fd5b5061026761032a36600461326f565b61128d565b34801561033b57600080fd5b5061026761034a366004613205565b6113ff565b34801561035b57600080fd5b5061017561036a3660046134e6565b611451565b34801561037b57600080fd5b5061026761038a3660046135cc565b61170d565b34801561039b57600080fd5b506102676103aa3660046132e8565b611d6a565b3480156103bb57600080fd5b506102676103ca36600461323f565b611f1d565b3480156103db57600080fd5b506101ab61200a565b3480156103f057600080fd5b506104046103ff3660046133b3565b612010565b6040516101829493929190613b4a565b34801561042057600080fd5b5061026761042f3660046133b3565b6121ec565b34801561044057600080fd5b5061017561044f36600461343e565b61234e565b34801561046057600080fd5b506101ab61046f36600461332f565b6124a5565b34801561048057600080fd5b506101ab61048f3660046131df565b6129d6565b3480156104a057600080fd5b506102676104af3660046131df565b612a16565b3480156104c057600080fd5b506102676104cf366004613571565b612aaa565b3480156104e057600080fd5b5061021a6104ef3660046133b3565b612d49565b34801561050057600080fd5b506101ab61050f3660046131df565b612d56565b60116020526000908152604090205460ff1681565b60046020526000908152604090205481565b600554600160a060020a031681565b60008381526003602052604081205481908590600160a060020a031615156105905760405160e560020a62461bcd02815260040161058790613c8b565b60405180910390fd5b600086815260036020819052604091829020915160e060020a63cb5ce7e502815291935073__uint8Set______________________________9163cb5ce7e5916105e291908601908990600401613d04565b60206040518083038186803b1580156105fa57600080fd5b505af415801561060e573d6000803e3d6000fd5b505050506040513d601f19601f820116820180604052506106329190810190613360565b151561064157600092506106e7565b60ff8516600090815260028301602052604090819020905160e060020a63d080be4f02815273__stringSet_____________________________9163d080be4f9161069491600101908890600401613cc4565b60206040518083038186803b1580156106ac57600080fd5b505af41580156106c0573d6000803e3d6000fd5b505050506040513d601f19601f820116820180604052506106e49190810190613360565b92505b50509392505050565b600e81600381106106fd57fe5b018054604080516020601f6002600019610100600188161502019095169490940493840181900481028201810190925282815293508301828280156107835780601f1061075857610100808354040283529160200191610783565b820191906000526020600020905b81548152906001019060200180831161076657829003601f168201915b505050505081565b60008281526003602052604081205481908490600160a060020a031615156107c85760405160e560020a62461bcd02815260040161058790613c8b565b600085815260036020819052604091829020915160e060020a63cb5ce7e502815291935073__uint8Set______________________________9163cb5ce7e59161081a91908601908890600401613d04565b60206040518083038186803b15801561083257600080fd5b505af4158015610846573d6000803e3d6000fd5b505050506040513d601f19601f8201168201806040525061086a9190810190613360565b92505b505092915050565b3360009081526004602052604081205481906001901581141561089757600080fd5b33600090815260046020818152604080842054845260039182905292839020925160e060020a63cb5ce7e502815292955073__uint8Set______________________________9263cb5ce7e5926108f3928801918c9101613d04565b60206040518083038186803b15801561090b57600080fd5b505af415801561091f573d6000803e3d6000fd5b505050506040513d601f19601f820116820180604052506109439190810190613360565b15156109645760405160e560020a62461bcd02815260040161058790613c5b565b60ff8716600090815260028401602052604090819020905160e060020a63d080be4f02815273__stringSet_____________________________9163d080be4f916109b791600101908a90600401613cc4565b60206040518083038186803b1580156109cf57600080fd5b505af41580156109e3573d6000803e3d6000fd5b505050506040513d601f19601f82011682018060405250610a079190810190613360565b1515610a285760405160e560020a62461bcd02815260040161058790613c2b565b8451821015610c495783610b3c5760ff871660009081526002840160209081526040918290209151885189928291908401908083835b60208310610a7d5780518252601f199092019160209182019101610a5e565b6001836020036101000a038019825116818451168082178552505050505050905001915050908152602001604051809103902060010173__addressSet____________________________63b65fd29490918785815181101515610add57fe5b906020019060200201516040518363ffffffff1660e060020a028152600401610b07929190613c9b565b60006040518083038186803b158015610b1f57600080fd5b505af4158015610b33573d6000803e3d6000fd5b50505050610c3e565b60ff871660009081526002840160209081526040918290209151885189928291908401908083835b60208310610b835780518252601f199092019160209182019101610b64565b6001836020036101000a038019825116818451168082178552505050505050905001915050908152602001604051809103902060010173__addressSet____________________________63e843cfc190918785815181101515610be357fe5b906020019060200201516040518363ffffffff1660e060020a028152600401610c0d929190613c9b565b60006040518083038186803b158015610c2557600080fd5b505af4158015610c39573d6000803e3d6000fd5b505050505b600190910190610a28565b33600090815260046020526040908190205490517f84e1a7c27b55812b194e46a88d3149dfd4cb27f8c49da5bbb1c4e1922e7f268e91610c90918a908a908a908a90613da1565b60405180910390a150505050505050565b60008281526003602052604081205460609182918590600160a060020a03161515610ce15760405160e560020a62461bcd02815260040161058790613c8b565b600086815260036020819052604091829020915160e060020a63cb5ce7e502815291935073__uint8Set______________________________9163cb5ce7e591610d3391908601908990600401613d04565b60206040518083038186803b158015610d4b57600080fd5b505af4158015610d5f573d6000803e3d6000fd5b505050506040513d601f19601f82011682018060405250610d839190810190613360565b1515610d8e57600080fd5b60ff851660009081526002830160209081526040808320600181018054835181860281018601909452808452909460039092019385929084015b82821015610e735760008481526020908190208301805460408051601f6002600019610100600187161502019094169390930492830185900485028101850190915281815292830182828015610e5f5780601f10610e3457610100808354040283529160200191610e5f565b820191906000526020600020905b815481529060010190602001808311610e4257829003601f168201915b505050505081526020019060010190610dc8565b50505050915080805480602002602001604051908101604052809291908181526020018280548015610ece57602002820191906000526020600020905b8154600160a060020a03168152600190910190602001808311610eb0575b505050505090509350935050509250929050565b600654600160a060020a031681565b60008381526003602052604081205460609082908690600160a060020a03161515610f315760405160e560020a62461bcd02815260040161058790613c8b565b600087815260036020819052604091829020915160e060020a63cb5ce7e502815291935073__uint8Set______________________________9163cb5ce7e591610f8391908601908a90600401613d04565b60206040518083038186803b158015610f9b57600080fd5b505af4158015610faf573d6000803e3d6000fd5b505050506040513d601f19601f82011682018060405250610fd39190810190613360565b1515610fde57600080fd5b60ff8616600090815260028301602052604090819020905160e060020a63d080be4f02815273__stringSet_____________________________9163d080be4f9161103191600101908990600401613cc4565b60206040518083038186803b15801561104957600080fd5b505af415801561105d573d6000803e3d6000fd5b505050506040513d601f19601f820116820180604052506110819190810190613360565b151561108c57600080fd5b60ff861660009081526002830160209081526040918290209151875188928291908401908083835b602083106110d35780518252601f1990920191602091820191016110b4565b51815160209384036101000a60001901801990921691161790529201948552506040805194859003820185205460ff8c166000908152600289018452919091208a5191959094508a9350918291908401908083835b602083106111475780518252601f199092019160209182019101611128565b51815160209384036101000a6000190180199092169116179052920194855250604080519485900382018520600101805480840287018401909252818652949350849250908301828280156111c557602002820191906000526020600020905b8154600160a060020a031681526001909101906020018083116111a7575b50505050509050935093505050935093915050565b60008281526003602052604081205481908490600160a060020a031615156112175760405160e560020a62461bcd02815260040161058790613c8b565b6000858152600360205260409081902090517fee8a71a000000000000000000000000000000000000000000000000000000000815290925073__addressSet____________________________9063ee8a71a09061081a9060058601908890600401613c9b565b600054600160a060020a031681565b600033600160a060020a038416146112a457600080fd5b600654600160a060020a038481169116146112be57600080fd5b600160a060020a0385166000908152600160205260409020546112e7908563ffffffff612d6816565b600160a060020a038616600090815260016020526040902055600254611313908563ffffffff612d6816565b600255506040517f23b872dd0000000000000000000000000000000000000000000000000000000081528290600160a060020a038216906323b872dd9061136290889030908990600401613b22565b602060405180830381600087803b15801561137c57600080fd5b505af1158015611390573d6000803e3d6000fd5b505050506040513d601f19601f820116820180604052506113b49190810190613360565b15156113bf57600080fd5b7f88bc2daf60592362e3cd69736750ef477a015e69f1813bf532d990998220bd1385856040516113f0929190613b9c565b60405180910390a15050505050565b600054600160a060020a0316331461141657600080fd5b60058054600160a060020a0393841673ffffffffffffffffffffffffffffffffffffffff199182161790915560068054929093169116179055565b60008481526003602052604081205481908690600160a060020a0316151561148e5760405160e560020a62461bcd02815260040161058790613c8b565b600087815260036020819052604091829020915160e060020a63cb5ce7e502815291935073__uint8Set______________________________9163cb5ce7e5916114e091908601908a90600401613d04565b60206040518083038186803b1580156114f857600080fd5b505af415801561150c573d6000803e3d6000fd5b505050506040513d601f19601f820116820180604052506115309190810190613360565b15806115dc575060ff8616600090815260028301602052604090819020905160e060020a63d080be4f02815273__stringSet_____________________________9163d080be4f9161158a91600101908990600401613cc4565b60206040518083038186803b1580156115a257600080fd5b505af41580156115b6573d6000803e3d6000fd5b505050506040513d601f19601f820116820180604052506115da9190810190613360565b155b156115ea5760009250611703565b60ff861660009081526002830160209081526040918290209151875188928291908401908083835b602083106116315780518252601f199092019160209182019101611612565b51815160209384036101000a6000190180199092169116179052920194855250604051938490030183207fee8a71a000000000000000000000000000000000000000000000000000000000845273__addressSet____________________________9363ee8a71a093506116b092506001909101908890600401613c9b565b60206040518083038186803b1580156116c857600080fd5b505af41580156116dc573d6000803e3d6000fd5b505050506040513d601f19601f820116820180604052506117009190810190613360565b92505b5050949350505050565b3360009081526004602052604081205481906001901581141561172f57600080fd5b60ff8088166000908152601160205260409020541615156117655760405160e560020a62461bcd02815260040161058790613c3b565b84518651146117895760405160e560020a62461bcd02815260040161058790613c1b565b3360009081526004602090815260408083205483526003909152902092505b8551821015611b8e5760ff8716600090815260126020526040902086518790849081106117d157fe5b906020019060200201516040518082805190602001908083835b6020831061180a5780518252601f1990920191602091820191016117eb565b51815160209384036101000a600019018019909216911617905292019485525060405193849003019092205460ff1615915061185d90505760405160e560020a62461bcd02815260040161058790613c6b565b83156119ac57848281518110151561187157fe5b602090810290910181015160ff89166000908152600286019092526040909120875188908590811061189f57fe5b906020019060200201516040518082805190602001908083835b602083106118d85780518252601f1990920191602091820191016118b9565b51815160209384036101000a60001901801990921691161790529201948552506040805194859003820190942094909455505060ff89166000908152600286019092529020865173__stringSet_____________________________9163ea486c539160019091019089908690811061194d57fe5b906020019060200201516040518363ffffffff1660e060020a028152600401611977929190613cc4565b60006040518083038186803b15801561198f57600080fd5b505af41580156119a3573d6000803e3d6000fd5b50505050611ad8565b60ff87166000908152600284016020526040902086518790849081106119ce57fe5b906020019060200201516040518082805190602001908083835b60208310611a075780518252601f1990920191602091820191016119e8565b51815160209384036101000a60001901801990921691161790529201948552506040805194859003820190942060009081905560ff8c1681526002880190915292909220885173__stringSet_____________________________9350639b71f0109250600190910190899086908110611a7d57fe5b906020019060200201516040518363ffffffff1660e060020a028152600401611aa7929190613cc4565b60006040518083038186803b158015611abf57600080fd5b505af4158015611ad3573d6000803e3d6000fd5b505050505b611ae0612d7b565b60ff8816600090815260028501602052604090208751889085908110611b0257fe5b906020019060200201516040518082805190602001908083835b60208310611b3b5780518252601f199092019160209182019101611b1c565b51815160209384036101000a600019018019909216911617905292019485525060405193849003810190932084518051600190920194611b8094508593500190612da5565b5050600190920191506117a8565b8315611c1e576040517f3d61036200000000000000000000000000000000000000000000000000000000815273__uint8Set______________________________90633d61036290611be99060038701908b90600401613d04565b60006040518083038186803b158015611c0157600080fd5b505af4158015611c15573d6000803e3d6000fd5b50505050611d61565b60ff871660009081526002840160205260409081902090517ff0bb04e600000000000000000000000000000000000000000000000000000000815273__stringSet_____________________________9163f0bb04e691611c859160010190600401613cb6565b60206040518083038186803b158015611c9d57600080fd5b505af4158015611cb1573d6000803e3d6000fd5b505050506040513d601f19601f82011682018060405250611cd591908101906133d1565b1515611d61576040517f07a929ec00000000000000000000000000000000000000000000000000000000815273__uint8Set______________________________906307a929ec90611d309060038701908b90600401613d04565b60006040518083038186803b158015611d4857600080fd5b505af4158015611d5c573d6000803e3d6000fd5b505050505b50505050505050565b33600090815260046020526040812054819060019015811415611d8c57600080fd5b3360009081526004602090815260408083205483526003909152902092505b8451821015611eda5783611e46578260050173__addressSet____________________________63b65fd29490918785815181101515611de757fe5b906020019060200201516040518363ffffffff1660e060020a028152600401611e11929190613c9b565b60006040518083038186803b158015611e2957600080fd5b505af4158015611e3d573d6000803e3d6000fd5b50505050611ecf565b8260050173__addressSet____________________________63e843cfc190918785815181101515611e7457fe5b906020019060200201516040518363ffffffff1660e060020a028152600401611e9e929190613c9b565b60006040518083038186803b158015611eb657600080fd5b505af4158015611eca573d6000803e3d6000fd5b505050505b600190910190611dab565b33600090815260046020526040908190205490517f509d5831915f54971e4d719b83414818a40822a11fee613cc7a66ae5a1baf51b916113f09188908890613d2d565b60008111611f2a57600080fd5b33600090815260016020526040902054811115611f5c5760405160e560020a62461bcd02815260040161058790613c7b565b33600090815260016020526040902054611f7c908263ffffffff612d9316565b3360009081526001602052604080822092909255600160a060020a03841681522054611fae908263ffffffff612d6816565b600160a060020a0383166000908152600160205260409081902091909155517f9bd188aec8668fb7fd04179a5e2e425c7eae69ad3b0fcbe6d8aee4543ba961d390611ffe90339085908590613b22565b60405180910390a15050565b60025481565b6000818152600360205260408120546060908190819084908690600160a060020a031615156120545760405160e560020a62461bcd02815260040161058790613c8b565b6000878152600360208181526040928390208054600180830180548751600261010094831615949094026000190190911692909204601f8101869004860283018601909752868252929750600160a060020a03909116949193870192600588019285918301828280156121085780601f106120dd57610100808354040283529160200191612108565b820191906000526020600020905b8154815290600101906020018083116120eb57829003601f168201915b505050505092508180548060200260200160405190810160405280929190818152602001828054801561217857602002820191906000526020600020906000905b825461010083900a900460ff168152602060019283018181049485019490930390920291018084116121495790505b50505050509150808054806020026020016040519081016040528092919081815260200182805480156121d457602002820191906000526020600020905b8154600160a060020a031681526001909101906020018083116121b6575b50505050509050955095509550955050509193509193565b60008082116121fa57600080fd5b3360009081526001602052604090205482111561222c5760405160e560020a62461bcd02815260040161058790613c4b565b3360009081526001602052604090205461224c908363ffffffff612d9316565b3360009081526001602052604090205560025461226f908363ffffffff612d9316565b600255506006546040517fa9059cbb000000000000000000000000000000000000000000000000000000008152600160a060020a0390911690819063a9059cbb906122c09033908690600401613b9c565b602060405180830381600087803b1580156122da57600080fd5b505af11580156122ee573d6000803e3d6000fd5b505050506040513d601f19601f820116820180604052506123129190810190613360565b151561231d57600080fd5b7fcce4937f7cb5adfa10d84738fe8c34b18bab1448271142eb72b11c93f8cb2d6f3383604051611ffe929190613b9c565b60008381526003602052604081205481908590600160a060020a0316151561238b5760405160e560020a62461bcd02815260040161058790613c8b565b600086815260036020819052604091829020915160e060020a63cb5ce7e502815291935073__uint8Set______________________________9163cb5ce7e5916123dd91908601908990600401613d04565b60206040518083038186803b1580156123f557600080fd5b505af4158015612409573d6000803e3d6000fd5b505050506040513d601f19601f8201168201806040525061242d9190810190613360565b151561243c57600092506106e7565b60ff851660009081526002830160205260409081902090517fee8a71a000000000000000000000000000000000000000000000000000000000815273__addressSet____________________________9163ee8a71a09161069491600301908890600401613c9b565b33600090815260046020526040812054819060609082908190819081908190156124ce57600080fd5b6005546040517f69c212f6000000000000000000000000000000000000000000000000000000008152600160a060020a03909116975087906369c212f69061251a903390600401613b14565b600060405180830381600087803b15801561253457600080fd5b505af1158015612548573d6000803e3d6000fd5b505050506040513d6000823e601f3d908101601f19168201604052612570919081019061337e565b6007805460018082019092556000818152600360209081526040909120805473ffffffffffffffffffffffffffffffffffffffff1916331781558451949a509198509096506125c6929187019190890190612e13565b505b60068360ff1610156127bd5760008a60ff8516600681106125e557fe5b6020020151146127b2578960ff8416600681106125fe57fe5b602090810291909101516000808052600287019092526040909120600860ff86166006811061262957fe5b0160405180828054600181600116156101000203166002900480156126855780601f10612663576101008083540402835291820191612685565b820191906000526020600020905b815481529060010190602001808311612671575b505092835250506040805160209281900383019020929092556000808052600287019091522073__stringSet_____________________________9063ea486c5390600101600860ff8716600681106126da57fe5b016040518363ffffffff1660e060020a0281526004016126fb929190613ce4565b60006040518083038186803b15801561271357600080fd5b505af4158015612727573d6000803e3d6000fd5b50506040517f3d61036200000000000000000000000000000000000000000000000000000000815273__uint8Set______________________________9250633d6103629150612781906003880190600090600401613d04565b60006040518083038186803b15801561279957600080fd5b505af41580156127ad573d6000803e3d6000fd5b505050505b6001909201916125c8565b60038260ff1610156129b65760008960ff8416600381106127da57fe5b6020020151146129ab578860ff8316600381106127f357fe5b6020908102919091015160016000908152600287019092526040909120600e60ff85166003811061282057fe5b01604051808280546001816001161561010002031660029004801561287c5780601f1061285a57610100808354040283529182019161287c565b820191906000526020600020905b815481529060010190602001808311612868575b50509283525050604080516020928190038301902092909255600160008181526002880190925291902073__stringSet_____________________________9163ea486c539101600e60ff8616600381106128d357fe5b016040518363ffffffff1660e060020a0281526004016128f4929190613ce4565b60006040518083038186803b15801561290c57600080fd5b505af4158015612920573d6000803e3d6000fd5b50506040517f3d61036200000000000000000000000000000000000000000000000000000000815273__uint8Set______________________________9250633d610362915061297a906003880190600190600401613d04565b60006040518083038186803b15801561299257600080fd5b505af41580156129a6573d6000803e3d6000fd5b505050505b6001909101906127bd565b505033600090815260046020526040902083905550909695505050505050565b600160a060020a03811660009081526004602052604081205415156129fa57600080fd5b50600160a060020a031660009081526004602052604090205490565b600054600160a060020a03163314612a2d57600080fd5b600160a060020a0381161515612a4257600080fd5b60008054604051600160a060020a03808516939216917f8be0079c531659141344cd1fd0a4f28419497f9722a3daafe3b4186f6b6457e091a36000805473ffffffffffffffffffffffffffffffffffffffff1916600160a060020a0392909216919091179055565b33600090815260046020526040812054819060019015811415612acc57600080fd5b33600090815260046020818152604080842054845260039182905292839020925160e060020a63cb5ce7e502815292955073__uint8Set______________________________9263cb5ce7e592612b28928801918b9101613d04565b60206040518083038186803b158015612b4057600080fd5b505af4158015612b54573d6000803e3d6000fd5b505050506040513d601f19601f82011682018060405250612b789190810190613360565b1515612b995760405160e560020a62461bcd02815260040161058790613c5b565b8451821015612cf45783612c4a5760ff861660009081526002840160205260409020855173__addressSet____________________________9163b65fd29491600390910190889086908110612beb57fe5b906020019060200201516040518363ffffffff1660e060020a028152600401612c15929190613c9b565b60006040518083038186803b158015612c2d57600080fd5b505af4158015612c41573d6000803e3d6000fd5b50505050612ce9565b60ff861660009081526002840160205260409020855173__addressSet____________________________9163e843cfc191600390910190889086908110612c8e57fe5b906020019060200201516040518363ffffffff1660e060020a028152600401612cb8929190613c9b565b60006040518083038186803b158015612cd057600080fd5b505af4158015612ce4573d6000803e3d6000fd5b505050505b600190910190612b99565b33600090815260046020526040908190205490517f4eabab9b8cd59ab46fb92c46bb53106f4961af527d71b25d4890e7b349a0310591612d3991899089908990613d5c565b60405180910390a1505050505050565b600881600681106106fd57fe5b60016020526000908152604090205481565b81810182811015612d7557fe5b92915050565b612d83612e8d565b612d8b612e8d565b8091505b5090565b600082821115612d9f57fe5b50900390565b828054828255906000526020600020908101928215612e07579160200282015b82811115612e07578251825473ffffffffffffffffffffffffffffffffffffffff1916600160a060020a03909116178255602090920191600190910190612dc5565b50612d8f929150612e9f565b828054600181600116156101000203166002900490600052602060002090601f016020900481019282601f10612e5457805160ff1916838001178555612e81565b82800160010185558215612e81579182015b82811115612e81578251825591602001919060010190612e66565b50612d8f929150612ed3565b60408051602081019091526060815290565b612ed091905b80821115612d8f57805473ffffffffffffffffffffffffffffffffffffffff19168155600101612ea5565b90565b612ed091905b80821115612d8f5760008155600101612ed9565b6000612ef98235613e95565b9392505050565b6000601f82018313612f1157600080fd5b8135612f24612f1f82613e18565b613df1565b91508181835260208401935060208101905083856020840282011115612f4957600080fd5b60005b83811015612f755781612f5f8882612eed565b8452506020928301929190910190600101612f4c565b5050505092915050565b6000601f82018313612f9057600080fd5b6003612f9e612f1f82613e39565b91508183856020840282011115612fb457600080fd5b60005b83811015612f755781612fca8882613126565b8452506020928301929190910190600101612fb7565b6000601f82018313612ff157600080fd5b6006612fff612f1f82613e39565b9150818385602084028201111561301557600080fd5b60005b83811015612f75578161302b8882613126565b8452506020928301929190910190600101613018565b6000601f8201831361305257600080fd5b8135613060612f1f82613e18565b9150818183526020840193506020810190508385602084028201111561308557600080fd5b60005b83811015612f75578161309b8882613126565b8452506020928301929190910190600101613088565b6000601f820183136130c257600080fd5b81356130d0612f1f82613e18565b81815260209384019390925082018360005b83811015612f7557813586016130f88882613132565b84525060209283019291909101906001016130e2565b6000612ef98235613ea1565b6000612ef98251613ea1565b6000612ef98235612ed0565b6000601f8201831361314357600080fd5b8135613151612f1f82613e57565b9150808252602083016020830185838301111561316d57600080fd5b613178838284613eac565b50505092915050565b6000601f8201831361319257600080fd5b81516131a0612f1f82613e57565b915080825260208301602083018583830111156131bc57600080fd5b613178838284613eb8565b6000612ef98251612ed0565b6000612ef98235613ea6565b6000602082840312156131f157600080fd5b60006131fd8484612eed565b949350505050565b6000806040838503121561321857600080fd5b60006132248585612eed565b925050602061323585828601612eed565b9150509250929050565b6000806040838503121561325257600080fd5b600061325e8585612eed565b925050602061323585828601613126565b6000806000806080858703121561328557600080fd5b60006132918787612eed565b94505060206132a287828801613126565b93505060406132b387828801612eed565b925050606085013567ffffffffffffffff8111156132d057600080fd5b6132dc87828801613132565b91505092959194509250565b600080604083850312156132fb57600080fd5b823567ffffffffffffffff81111561331257600080fd5b61331e85828601612f00565b92505060206132358582860161310e565b600080610120838503121561334357600080fd5b600061334f8585612fe0565b92505060c061323585828601612f7f565b60006020828403121561337257600080fd5b60006131fd848461311a565b60006020828403121561339057600080fd5b815167ffffffffffffffff8111156133a757600080fd5b6131fd84828501613181565b6000602082840312156133c557600080fd5b60006131fd8484613126565b6000602082840312156133e357600080fd5b60006131fd84846131c7565b6000806040838503121561340257600080fd5b60006132248585613126565b6000806040838503121561342157600080fd5b600061342d8585613126565b9250506020613235858286016131d3565b60008060006060848603121561345357600080fd5b600061345f8686613126565b9350506020613470868287016131d3565b925050604061348186828701612eed565b9150509250925092565b6000806000606084860312156134a057600080fd5b60006134ac8686613126565b93505060206134bd868287016131d3565b925050604084013567ffffffffffffffff8111156134da57600080fd5b61348186828701613132565b600080600080608085870312156134fc57600080fd5b60006135088787613126565b9450506020613519878288016131d3565b935050604085013567ffffffffffffffff81111561353657600080fd5b61354287828801613132565b92505060606132dc87828801612eed565b60006020828403121561356557600080fd5b60006131fd84846131d3565b60008060006060848603121561358657600080fd5b600061359286866131d3565b935050602084013567ffffffffffffffff8111156135af57600080fd5b6135bb86828701612f00565b92505060406134818682870161310e565b600080600080608085870312156135e257600080fd5b60006135ee87876131d3565b945050602085013567ffffffffffffffff81111561360b57600080fd5b613617878288016130b1565b935050604085013567ffffffffffffffff81111561363457600080fd5b61364087828801613041565b92505060606132dc8782880161310e565b6000806000806080858703121561366757600080fd5b600061367387876131d3565b945050602085013567ffffffffffffffff81111561369057600080fd5b61369c87828801613132565b935050604085013567ffffffffffffffff8111156136b957600080fd5b61364087828801612f00565b6136ce81613e95565b82525050565b60006136df82613e91565b8084526020840193506136f183613e7f565b60005b82811015613721576137078683516136c5565b61371082613e7f565b6020969096019591506001016136f4565b5093949350505050565b600061373682613e91565b8084526020840193508360208202850161374f85613e7f565b60005b8481101561378657838303885261376a8383516137f1565b925061377582613e7f565b602098909801979150600101613752565b50909695505050505050565b600061379d82613e91565b8084526020840193506137af83613e7f565b60005b82811015613721576137c5868351613b0b565b6137ce82613e7f565b6020969096019591506001016137b2565b6136ce81613ea1565b6136ce81612ed0565b60006137fc82613e91565b808452613810816020860160208601613eb8565b61381981613ee8565b9093016020019392505050565b60008154600181166000811461384357600181146138615761086d565b60028204607f16855260ff198216602086015260408501925061086d565b6002820480865260208601955061387785613e85565b60005b828110156138965781548882015260019091019060200161387a565b9096019695505050505050565b601181527f4d616c666f726d656420696e707574732e000000000000000000000000000000602082015260400190565b602481527f5468697320656e74727920686173206e6f74206265656e20617474657374656460208201527f20746f2e00000000000000000000000000000000000000000000000000000000604082015260600190565b600e81527f496e76616c6964206669656c642e000000000000000000000000000000000000602082015260400190565b603081527f596f75722062616c616e636520697320746f6f206c6f7720746f20776974686460208201527f726177207468697320616d6f756e742e00000000000000000000000000000000604082015260600190565b602481527f54686973206669656c6420686173206e6f74206265656e20617474657374656460208201527f20746f2e00000000000000000000000000000000000000000000000000000000604082015260600190565b602281527f4f6e65206f66207468652070617373656420656e747279206973206c6f636b6560208201527f642e000000000000000000000000000000000000000000000000000000000000604082015260600190565b603081527f596f75722062616c616e636520697320746f6f206c6f7720746f207472616e7360208201527f666572207468697320616d6f756e742e00000000000000000000000000000000604082015260600190565b602381527f5468697320746f6b656e20686173206e6f7420796574206265656e206d696e7460208201527f65642e0000000000000000000000000000000000000000000000000000000000604082015260600190565b9052565b6136ce81613ea6565b60208101612d7582846136c5565b60608101613b3082866136c5565b613b3d60208301856136c5565b6131fd60408301846137e8565b60808101613b5882876136c5565b8181036020830152613b6a81866137f1565b90508181036040830152613b7e8185613792565b90508181036060830152613b9281846136d4565b9695505050505050565b60408101613baa82856136c5565b612ef960208301846137e8565b60408082528101613bc8818561372b565b905081810360208301526131fd81846136d4565b60208101612d7582846137df565b60408101613bf882856137e8565b81810360208301526131fd81846136d4565b60208082528101612ef981846137f1565b60208082528101612d75816138a3565b60208082528101612d75816138d3565b60208082528101612d7581613929565b60208082528101612d7581613959565b60208082528101612d75816139af565b60208082528101612d7581613a05565b60208082528101612d7581613a5b565b60208082528101612d7581613ab1565b60408101613ca98285613b07565b612ef960208301846136c5565b60208101612d758284613b07565b60408101613cd28285613b07565b81810360208301526131fd81846137f1565b60408101613cf28285613b07565b81810360208301526131fd8184613826565b60408101613d128285613b07565b612ef96020830184613b0b565b60208101612d7582846137e8565b60608101613d3b82866137e8565b8181036020830152613d4d81856136d4565b90506131fd60408301846137df565b60808101613d6a82876137e8565b613d776020830186613b0b565b8181036040830152613d8981856136d4565b9050613d9860608301846137df565b95945050505050565b60a08101613daf82886137e8565b613dbc6020830187613b0b565b8181036040830152613dce81866137f1565b90508181036060830152613de281856136d4565b9050613b9260808301846137df565b60405181810167ffffffffffffffff81118282101715613e1057600080fd5b604052919050565b600067ffffffffffffffff821115613e2f57600080fd5b5060209081020190565b600067ffffffffffffffff821115613e5057600080fd5b5060200290565b600067ffffffffffffffff821115613e6e57600080fd5b506020601f91909101601f19160190565b60200190565b60009081526020902090565b5190565b600160a060020a031690565b151590565b60ff1690565b82818337506000910152565b60005b83811015613ed3578181015183820152602001613ebb565b83811115613ee2576000848401525b50505050565b601f01601f1916905600a265627a7a723058203f5fd32f2ac6100f16ce3766492aec59be8af24475ffa3aefd581a9d2a42930d6c6578706572696d656e74616cf50037",
  "source": "pragma solidity ^0.4.24;\npragma experimental ABIEncoderV2;\n\nimport \"./zeppelin/ownership/Ownable.sol\";\nimport \"./zeppelin/token/ERC20/ERC20.sol\";\nimport \"./zeppelin/math/SafeMath.sol\";\n\nimport \"./libraries/uint8Set.sol\";\nimport \"./libraries/stringSet.sol\";\nimport \"./libraries/addressSet.sol\";\n\n\ncontract ClientRaindrop {\n    function getUserByAddress(address _address) public view returns (string userName);\n}\n\n\ncontract Snowflake is Ownable {\n    using SafeMath for uint;\n    using uint8Set for uint8Set._uint8Set;\n    using stringSet for stringSet._stringSet;\n    using addressSet for addressSet._addressSet;\n\n    // hydro token wrapper variables\n    mapping (address => uint) public deposits;\n    uint public balance;\n\n    // Token lookup mappings\n    mapping (uint => Identity) internal tokenDirectory;\n    mapping (address => uint) public ownerToToken;\n\n    // contract variables\n    address public clientRaindropAddress;\n    address public hydroTokenAddress;\n    uint internal nextTokenId = 1;\n\n    string[6] public nameOrder = [\"prefix\", \"givenName\", \"middleName\", \"surname\", \"suffix\", \"preferredName\"];\n    string[3] public dateOrder = [\"day\", \"month\", \"year\"];\n\n    struct Entry {\n        bytes32 saltedHash; // required, encrypted plaintext data. specifically: keccak256(abi.encodePacked(data, salt))\n        addressSet._addressSet resolversFor; // optional, set of addresses that contain additional data about this field\n    }\n\n    struct SnowflakeField {\n        mapping (string => Entry) entries; // required, entries with encrypted data attested to by users and other info\n        stringSet._stringSet entriesAttestedTo; // required, entries that the user has made\n        addressSet._addressSet resolversFor; // optional, set of addresses that contain additional data about this field\n    }\n\n    struct Identity {\n        address owner;\n        string hydroId;\n        mapping (uint8 => SnowflakeField) fields; // mapping of AllowedSnowflakeFields to SnowflakeFields\n        uint8Set._uint8Set fieldsAttestedTo;\n        addressSet._addressSet resolversFor; // optional, set of third-party resolvers\n    }\n\n    enum AllowedSnowflakeFields { Name, DateOfBirth, Emails, PhoneNumbers, PhysicalAddresses }\n    mapping (uint8 => bool) public allowedFields;\n    mapping (uint8 => mapping (string => bool)) internal lockedFieldEntries;\n\n    constructor () public {\n        // initialize allowed snowflake fields\n        allowedFields[uint8(AllowedSnowflakeFields.Name)] = true;\n        allowedFields[uint8(AllowedSnowflakeFields.Emails)] = true;\n        allowedFields[uint8(AllowedSnowflakeFields.PhoneNumbers)] = true;\n        allowedFields[uint8(AllowedSnowflakeFields.PhysicalAddresses)] = true;\n\n        // initialized locked fields\n        lockedFieldEntries[uint8(AllowedSnowflakeFields.Name)][\"givenName\"] = true;\n        lockedFieldEntries[uint8(AllowedSnowflakeFields.Name)][\"middleName\"] = true;\n        lockedFieldEntries[uint8(AllowedSnowflakeFields.Name)][\"surname\"] = true;\n    }\n\n    modifier hasToken(bool check) {\n        require((ownerToToken[msg.sender] == 0) != check);\n        _;\n    }\n\n    modifier tokenExists(uint tokenId) {\n        require(tokenDirectory[tokenId].owner != address(0), \"This token has not yet been minted.\");\n        _;\n    }\n\n    // wrapper to ownerToToken that throws if the address doesn't own a token\n    function getTokenId(address _address) public view returns (uint tokenId) {\n        require(ownerToToken[_address] != 0);\n        return ownerToToken[_address];\n    }\n\n    function setAddresses(address clientRaindrop, address hydroToken) public onlyOwner {\n        clientRaindropAddress = clientRaindrop;\n        hydroTokenAddress = hydroToken;\n    }\n\n    function mintIdentityToken(bytes32[6] names, bytes32[3] dateOfBirth) public hasToken(false) returns(uint tokenId) {\n        ClientRaindrop clientRaindrop = ClientRaindrop(clientRaindropAddress);\n        string memory _hydroId = clientRaindrop.getUserByAddress(msg.sender);\n\n        uint newTokenId = nextTokenId++;\n        Identity storage identity = tokenDirectory[newTokenId];\n\n        identity.owner = msg.sender;\n        identity.hydroId = _hydroId;\n\n        for (uint8 i; i < names.length; i++) {\n            if (names[i] != bytes32(0x0)) {\n                identity.fields[uint8(AllowedSnowflakeFields.Name)].entries[nameOrder[i]].saltedHash = names[i];\n                identity.fields[uint8(AllowedSnowflakeFields.Name)].entriesAttestedTo.insert(nameOrder[i]);\n                // putting this here creates some unnecessary checks, but it catches the case when all elements are 0x0\n                identity.fieldsAttestedTo.insert(uint8(AllowedSnowflakeFields.Name));\n            }\n        }\n\n        for (uint8 j; j < dateOfBirth.length; j++) {\n            if (dateOfBirth[j] != bytes32(0x0)) {\n                identity.fields[uint8(AllowedSnowflakeFields.DateOfBirth)].entries[dateOrder[j]]\n                    .saltedHash = dateOfBirth[j];\n                identity.fields[uint8(AllowedSnowflakeFields.DateOfBirth)].entriesAttestedTo.insert(dateOrder[j]);\n                // putting this here creates some unnecessary checks, but it catches the case when all elements are 0x0\n                identity.fieldsAttestedTo.insert(uint8(AllowedSnowflakeFields.DateOfBirth));\n            }\n        }\n\n        ownerToToken[msg.sender] = newTokenId;\n\n        return newTokenId;\n    }\n\n    // modify resolvers\n    function modifyResolvers(address[] resolvers, bool add) public hasToken(true) {\n        Identity storage identity = tokenDirectory[ownerToToken[msg.sender]];\n\n        for (uint i; i < resolvers.length; i++) {\n            add ? identity.resolversFor.insert(resolvers[i]) : identity.resolversFor.remove(resolvers[i]);\n        }\n\n        emit ResolversModified(ownerToToken[msg.sender], resolvers, add);\n    }\n\n    function modifyResolvers(uint8 field, address[] resolvers, bool add) public hasToken(true) {\n        Identity storage identity = tokenDirectory[ownerToToken[msg.sender]];\n        require(identity.fieldsAttestedTo.contains(field), \"This field has not been attested to.\");\n\n        for (uint i; i < resolvers.length; i++) {\n            add ?\n                identity.fields[field].resolversFor.insert(resolvers[i]) :\n                identity.fields[field].resolversFor.remove(resolvers[i]);\n        }\n\n        emit ResolversModified(ownerToToken[msg.sender], field, resolvers, add);\n    }\n\n    function modifyResolvers(uint8 field, string entry, address[] resolvers, bool add) public hasToken(true) {\n        Identity storage identity = tokenDirectory[ownerToToken[msg.sender]];\n        require(identity.fieldsAttestedTo.contains(field), \"This field has not been attested to.\");\n        require(identity.fields[field].entriesAttestedTo.contains(entry), \"This entry has not been attested to.\");\n\n        for (uint i; i < resolvers.length; i++) {\n            add ?\n                identity.fields[field].entries[entry].resolversFor.insert(resolvers[i]) :\n                identity.fields[field].entries[entry].resolversFor.remove(resolvers[i]);\n        }\n\n        emit ResolversModified(ownerToToken[msg.sender], field, entry, resolvers, add);\n    }\n\n    // modify field entries\n    function modifyFieldEntries(uint8 field, string[] entries, bytes32[] saltedHashes, bool add) public hasToken(true) {\n        require(allowedFields[field], \"Invalid field.\");\n        require(entries.length == saltedHashes.length, \"Malformed inputs.\");\n\n        Identity storage identity = tokenDirectory[ownerToToken[msg.sender]];\n\n        for (uint i; i < entries.length; i++) {\n            require(!lockedFieldEntries[field][entries[i]], \"One of the passed entry is locked.\");\n            if (add) {\n                identity.fields[field].entries[entries[i]].saltedHash = saltedHashes[i];\n                identity.fields[field].entriesAttestedTo.insert(entries[i]);\n            } else {\n                delete identity.fields[field].entries[entries[i]].saltedHash;\n                identity.fields[field].entriesAttestedTo.remove(entries[i]);\n            }\n            identity.fields[field].entries[entries[i]].resolversFor = getEmptyAddressSet(); // todo: check this\n        }\n        if (add) {\n            identity.fieldsAttestedTo.insert(field);\n        } else if (identity.fields[field].entriesAttestedTo.length() == 0) {\n            identity.fieldsAttestedTo.remove(field);\n        }\n    }\n\n    // check resolver membership\n    function hasResolver(uint tokenId, address resolver) public view tokenExists(tokenId) returns (bool) {\n        Identity storage identity = tokenDirectory[tokenId];\n\n        return identity.resolversFor.contains(resolver);\n    }\n\n    function hasResolver(uint tokenId, uint8 field, address resolver) public view tokenExists(tokenId) returns (bool) {\n        Identity storage identity = tokenDirectory[tokenId];\n\n        if (!identity.fieldsAttestedTo.contains(field)) {\n            return false;\n        }\n\n        return identity.fields[field].resolversFor.contains(resolver);\n    }\n\n    function hasResolver(uint tokenId, uint8 field, string entry, address resolver)\n        public\n        view\n        tokenExists(tokenId)\n        returns (bool)\n    {\n        Identity storage identity = tokenDirectory[tokenId];\n\n        if (!identity.fieldsAttestedTo.contains(field) || !identity.fields[field].entriesAttestedTo.contains(entry)) {\n            return false;\n        }\n\n        return identity.fields[field].entries[entry].resolversFor.contains(resolver);\n    }\n\n    // functions to check attestations\n    function hasAttested(uint tokenId, uint8 field) public view tokenExists(tokenId) returns (bool) {\n        Identity storage identity = tokenDirectory[tokenId];\n\n        return identity.fieldsAttestedTo.contains(field);\n    }\n\n    function hasAttested(uint tokenId, uint8 field, string entry) public view tokenExists(tokenId) returns (bool) {\n        Identity storage identity = tokenDirectory[tokenId];\n\n        if (!identity.fieldsAttestedTo.contains(field)) {\n            return false;\n        }\n\n        return identity.fields[field].entriesAttestedTo.contains(entry);\n    }\n\n    // functions to read token values\n    function getDetails(uint tokenId) public view tokenExists(tokenId) returns (\n        address owner,\n        string hydroId,\n        uint8[] fieldsAttestedTo,\n        address[] resolversFor\n    ) {\n        Identity storage identity = tokenDirectory[tokenId];\n\n        return (\n            identity.owner,\n            identity.hydroId,\n            identity.fieldsAttestedTo.members,\n            identity.resolversFor.members\n        );\n    }\n\n    function getDetails(uint tokenId, uint8 field) public view tokenExists(tokenId) returns (\n        string[] entriesAttestedTo,\n        address[] resolversFor\n    ) {\n        Identity storage identity = tokenDirectory[tokenId];\n\n        require(identity.fieldsAttestedTo.contains(field));\n\n        return (\n            identity.fields[field].entriesAttestedTo.members,\n            identity.fields[field].resolversFor.members\n        );\n    }\n\n    function getDetails(uint tokenId, uint8 field, string entry) public view tokenExists(tokenId) returns (\n        bytes32 saltedHash,\n        address[] resolversFor\n    ) {\n        Identity storage identity = tokenDirectory[tokenId];\n\n        require(identity.fieldsAttestedTo.contains(field));\n        require(identity.fields[field].entriesAttestedTo.contains(entry));\n\n        return (\n            identity.fields[field].entries[entry].saltedHash,\n            identity.fields[field].entries[entry].resolversFor.members\n        );\n    }\n\n    // functions that enbale HYDRO functionality\n    function receiveApproval(address _sender, uint _amount, address _tokenAddress, bytes) public {\n        require(msg.sender == _tokenAddress);\n        require(_tokenAddress == hydroTokenAddress);\n        deposits[_sender] = deposits[_sender].add(_amount);\n        balance = balance.add(_amount);\n        ERC20 hydro = ERC20(_tokenAddress);\n        require(hydro.transferFrom(_sender, address(this), _amount));\n        emit SnowflakeDeposit(_sender, _amount);\n    }\n\n    function withdrawSnowflakeBalance(uint _amount) public {\n        require(_amount > 0);\n        require(deposits[msg.sender] >= _amount, \"Your balance is too low to withdraw this amount.\");\n        deposits[msg.sender] = deposits[msg.sender].sub(_amount);\n        balance = balance.sub(_amount);\n        ERC20 hydro = ERC20(hydroTokenAddress);\n        require(hydro.transfer(msg.sender, _amount));\n        emit SnowflakeWithdraw(msg.sender, _amount);\n    }\n\n    function transferSnowflakeBalance(address _to, uint _amount) public {\n        require(_amount > 0);\n        require(deposits[msg.sender] >= _amount, \"Your balance is too low to transfer this amount.\");\n        deposits[msg.sender] = deposits[msg.sender].sub(_amount);\n        deposits[_to] = deposits[_to].add(_amount);\n        emit SnowflakeTransfer(msg.sender, _to, _amount);\n    }\n\n    function getEmptyAddressSet() internal pure returns (addressSet._addressSet memory) {\n        addressSet._addressSet memory empty;\n        return empty;\n    }\n\n    // events\n    event SnowflakeDeposit(address _owner, uint _amount);\n    event SnowflakeTransfer(address _sender, address _to, uint _amount);\n    event SnowflakeWithdraw(address _to, uint _amount);\n\n    event ResolversModified(uint _tokenId, address[] _resolvers, bool added);\n    event ResolversModified(uint _tokenId, uint8 field, address[] _resolvers, bool added);\n    event ResolversModified(uint _tokenId, uint8 field, string entry, address[] _resolvers, bool added);\n}\n",
  "sourcePath": "/Users/noahzinsmeister/Documents/github/smart-contracts/snowflake-poc/contracts/Snowflake.sol",
  "compiler": {
    "name": "solc",
    "version": "0.4.24+commit.e67f0147.Emscripten.clang"
  },
  "schemaVersion": "2.0.0",
  "updatedAt": "2018-06-06T20:22:24.576Z"
}