{
  "contractName": "SnowflakeRegistry",
  "abi": [
    {
      "constant": true,
      "inputs": [],
      "name": "escrowAddress",
      "outputs": [
        {
          "name": "",
          "type": "address"
        }
      ],
      "payable": false,
      "stateMutability": "view",
      "type": "function"
    },
    {
      "constant": true,
      "inputs": [],
      "name": "dataRequestFee",
      "outputs": [
        {
          "name": "",
          "type": "uint256"
        }
      ],
      "payable": false,
      "stateMutability": "view",
      "type": "function"
    },
    {
      "constant": true,
      "inputs": [],
      "name": "raindropClientAddress",
      "outputs": [
        {
          "name": "",
          "type": "address"
        }
      ],
      "payable": false,
      "stateMutability": "view",
      "type": "function"
    },
    {
      "constant": true,
      "inputs": [],
      "name": "hydroTokenAddress",
      "outputs": [
        {
          "name": "",
          "type": "address"
        }
      ],
      "payable": false,
      "stateMutability": "view",
      "type": "function"
    },
    {
      "constant": true,
      "inputs": [],
      "name": "owner",
      "outputs": [
        {
          "name": "",
          "type": "address"
        }
      ],
      "payable": false,
      "stateMutability": "view",
      "type": "function"
    },
    {
      "constant": false,
      "inputs": [
        {
          "name": "to",
          "type": "address"
        }
      ],
      "name": "withdrawEther",
      "outputs": [],
      "payable": false,
      "stateMutability": "nonpayable",
      "type": "function"
    },
    {
      "constant": false,
      "inputs": [
        {
          "name": "tokenAddress",
          "type": "address"
        },
        {
          "name": "to",
          "type": "address"
        }
      ],
      "name": "withdrawERC20Token",
      "outputs": [],
      "payable": false,
      "stateMutability": "nonpayable",
      "type": "function"
    },
    {
      "constant": false,
      "inputs": [
        {
          "name": "newOwner",
          "type": "address"
        }
      ],
      "name": "transferOwnership",
      "outputs": [],
      "payable": false,
      "stateMutability": "nonpayable",
      "type": "function"
    },
    {
      "anonymous": false,
      "inputs": [
        {
          "indexed": false,
          "name": "applicationName",
          "type": "string"
        }
      ],
      "name": "ApplicationSignUp",
      "type": "event"
    },
    {
      "anonymous": false,
      "inputs": [
        {
          "indexed": false,
          "name": "applicationName",
          "type": "string"
        },
        {
          "indexed": false,
          "name": "userName",
          "type": "string"
        },
        {
          "indexed": false,
          "name": "dataFields",
          "type": "bytes32[]"
        }
      ],
      "name": "DataRequested",
      "type": "event"
    },
    {
      "anonymous": false,
      "inputs": [
        {
          "indexed": true,
          "name": "previousOwner",
          "type": "address"
        },
        {
          "indexed": true,
          "name": "newOwner",
          "type": "address"
        }
      ],
      "name": "OwnershipTransferred",
      "type": "event"
    },
    {
      "constant": false,
      "inputs": [
        {
          "name": "applicationName",
          "type": "string"
        },
        {
          "name": "ownerAddress",
          "type": "address"
        },
        {
          "name": "relayerAddress",
          "type": "address"
        },
        {
          "name": "verifierAddress",
          "type": "address"
        },
        {
          "name": "key",
          "type": "string"
        },
        {
          "name": "keyType",
          "type": "string"
        }
      ],
      "name": "signUpApplication",
      "outputs": [],
      "payable": false,
      "stateMutability": "nonpayable",
      "type": "function"
    },
    {
      "constant": false,
      "inputs": [
        {
          "name": "applicationNameHash",
          "type": "bytes32"
        },
        {
          "name": "ownerAddress",
          "type": "address"
        },
        {
          "name": "relayerAddress",
          "type": "address"
        },
        {
          "name": "verifierAddress",
          "type": "address"
        }
      ],
      "name": "modifyApplicationAddresses",
      "outputs": [],
      "payable": false,
      "stateMutability": "nonpayable",
      "type": "function"
    },
    {
      "constant": true,
      "inputs": [
        {
          "name": "applicationName",
          "type": "string"
        }
      ],
      "name": "getApplication",
      "outputs": [
        {
          "name": "ownerAddress",
          "type": "address"
        },
        {
          "name": "relayerAddress",
          "type": "address"
        },
        {
          "name": "verifierAddress",
          "type": "address"
        },
        {
          "name": "key",
          "type": "string"
        },
        {
          "name": "keyType",
          "type": "string"
        }
      ],
      "payable": false,
      "stateMutability": "view",
      "type": "function"
    },
    {
      "constant": false,
      "inputs": [
        {
          "name": "applicationNameHash",
          "type": "bytes32"
        }
      ],
      "name": "deleteApplication",
      "outputs": [],
      "payable": false,
      "stateMutability": "nonpayable",
      "type": "function"
    },
    {
      "constant": false,
      "inputs": [
        {
          "name": "keyType",
          "type": "string"
        }
      ],
      "name": "addKeyType",
      "outputs": [],
      "payable": false,
      "stateMutability": "nonpayable",
      "type": "function"
    },
    {
      "constant": false,
      "inputs": [
        {
          "name": "dataFieldName",
          "type": "string"
        }
      ],
      "name": "addDataField",
      "outputs": [],
      "payable": false,
      "stateMutability": "nonpayable",
      "type": "function"
    },
    {
      "constant": false,
      "inputs": [
        {
          "name": "fee",
          "type": "uint256"
        }
      ],
      "name": "setDataRequestFee",
      "outputs": [],
      "payable": false,
      "stateMutability": "nonpayable",
      "type": "function"
    },
    {
      "constant": false,
      "inputs": [
        {
          "name": "_escrowAddress",
          "type": "address"
        },
        {
          "name": "_hydroTokenAddress",
          "type": "address"
        },
        {
          "name": "_raindropClientAddress",
          "type": "address"
        }
      ],
      "name": "modifyContractAddresses",
      "outputs": [],
      "payable": false,
      "stateMutability": "nonpayable",
      "type": "function"
    },
    {
      "constant": false,
      "inputs": [
        {
          "name": "userAddress",
          "type": "address"
        },
        {
          "name": "userName",
          "type": "string"
        },
        {
          "name": "dataFields",
          "type": "bytes32[]"
        },
        {
          "name": "saltedHashes",
          "type": "bytes32[]"
        }
      ],
      "name": "addDataDelegated",
      "outputs": [],
      "payable": false,
      "stateMutability": "nonpayable",
      "type": "function"
    },
    {
      "constant": false,
      "inputs": [
        {
          "name": "userName",
          "type": "string"
        },
        {
          "name": "dataFields",
          "type": "bytes32[]"
        },
        {
          "name": "saltedHashes",
          "type": "bytes32[]"
        }
      ],
      "name": "addData",
      "outputs": [],
      "payable": false,
      "stateMutability": "nonpayable",
      "type": "function"
    },
    {
      "constant": false,
      "inputs": [
        {
          "name": "_from",
          "type": "address"
        },
        {
          "name": "_value",
          "type": "uint256"
        },
        {
          "name": "_token",
          "type": "address"
        },
        {
          "name": "_extraData",
          "type": "bytes"
        }
      ],
      "name": "receiveApproval",
      "outputs": [],
      "payable": false,
      "stateMutability": "nonpayable",
      "type": "function"
    },
    {
      "constant": false,
      "inputs": [
        {
          "name": "escrowId",
          "type": "uint256"
        }
      ],
      "name": "closeEscrow",
      "outputs": [],
      "payable": false,
      "stateMutability": "nonpayable",
      "type": "function"
    },
    {
      "constant": false,
      "inputs": [
        {
          "name": "escrowId",
          "type": "uint256"
        }
      ],
      "name": "cancelEscrow",
      "outputs": [],
      "payable": false,
      "stateMutability": "nonpayable",
      "type": "function"
    }
  ],
  "bytecode": "0x6080604052336000806101000a81548173ffffffffffffffffffffffffffffffffffffffff021916908373ffffffffffffffffffffffffffffffffffffffff16021790555061361f806100536000396000f30060806040526004361061011d576000357c0100000000000000000000000000000000000000000000000000000000900463ffffffff1680630d5defa41461012257806317a323851461017957806346cb12bd146101a457806375d7e4bd146101fb5780638da5cb5b146102525780638f4ffcb1146102a9578063ab40c9bd1461035c578063af933b571461046b578063b637ae59146104ae578063ba9a10a014610603578063c2522b901461066c578063c4992ddd1461075b578063d3fc414014610788578063de6ca19014610819578063dee734111461084a578063e0182436146108cd578063e24cf226146108fa578063e6f5291b14610927578063e946be3f14610b0e578063ecfbe70c14610b77578063f2fde38b14610bda575b600080fd5b34801561012e57600080fd5b50610137610c1d565b604051808273ffffffffffffffffffffffffffffffffffffffff1673ffffffffffffffffffffffffffffffffffffffff16815260200191505060405180910390f35b34801561018557600080fd5b5061018e610c43565b6040518082815260200191505060405180910390f35b3480156101b057600080fd5b506101b9610c49565b604051808273ffffffffffffffffffffffffffffffffffffffff1673ffffffffffffffffffffffffffffffffffffffff16815260200191505060405180910390f35b34801561020757600080fd5b50610210610c6f565b604051808273ffffffffffffffffffffffffffffffffffffffff1673ffffffffffffffffffffffffffffffffffffffff16815260200191505060405180910390f35b34801561025e57600080fd5b50610267610c95565b604051808273ffffffffffffffffffffffffffffffffffffffff1673ffffffffffffffffffffffffffffffffffffffff16815260200191505060405180910390f35b3480156102b557600080fd5b5061035a600480360381019080803573ffffffffffffffffffffffffffffffffffffffff16906020019092919080359060200190929190803573ffffffffffffffffffffffffffffffffffffffff169060200190929190803590602001908201803590602001908080601f0160208091040260200160405190810160405280939291908181526020018383808284378201915050505050509192919290505050610cba565b005b34801561036857600080fd5b50610469600480360381019080803573ffffffffffffffffffffffffffffffffffffffff169060200190929190803590602001908201803590602001908080601f01602080910402602001604051908101604052809392919081815260200183838082843782019150505050505091929192908035906020019082018035906020019080806020026020016040519081016040528093929190818152602001838360200280828437820191505050505050919291929080359060200190820180359060200190808060200260200160405190810160405280939291908181526020018383602002808284378201915050505050509192919290505050610e4f565b005b34801561047757600080fd5b506104ac600480360381019080803573ffffffffffffffffffffffffffffffffffffffff169060200190929190505050610ebc565b005b3480156104ba57600080fd5b50610601600480360381019080803590602001908201803590602001908080601f0160208091040260200160405190810160405280939291908181526020018383808284378201915050505050509192919290803573ffffffffffffffffffffffffffffffffffffffff169060200190929190803573ffffffffffffffffffffffffffffffffffffffff169060200190929190803573ffffffffffffffffffffffffffffffffffffffff169060200190929190803590602001908201803590602001908080601f0160208091040260200160405190810160405280939291908181526020018383808284378201915050505050509192919290803590602001908201803590602001908080601f0160208091040260200160405190810160405280939291908181526020018383808284378201915050505050509192919290505050610f78565b005b34801561060f57600080fd5b5061066a600480360381019080803590602001908201803590602001908080601f01602080910402602001604051908101604052809392919081815260200183838082843782019150505050505091929192905050506115d6565b005b34801561067857600080fd5b50610759600480360381019080803590602001908201803590602001908080601f01602080910402602001604051908101604052809392919081815260200183838082843782019150505050505091929192908035906020019082018035906020019080806020026020016040519081016040528093929190818152602001838360200280828437820191505050505050919291929080359060200190820180359060200190808060200260200160405190810160405280939291908181526020018383602002808284378201915050505050509192919290505050611762565b005b34801561076757600080fd5b5061078660048036038101908080359060200190929190505050611773565b005b34801561079457600080fd5b506108176004803603810190808035600019169060200190929190803573ffffffffffffffffffffffffffffffffffffffff169060200190929190803573ffffffffffffffffffffffffffffffffffffffff169060200190929190803573ffffffffffffffffffffffffffffffffffffffff1690602001909291905050506117d8565b005b34801561082557600080fd5b5061084860048036038101908080356000191690602001909291905050506119f9565b005b34801561085657600080fd5b506108cb600480360381019080803573ffffffffffffffffffffffffffffffffffffffff169060200190929190803573ffffffffffffffffffffffffffffffffffffffff169060200190929190803573ffffffffffffffffffffffffffffffffffffffff169060200190929190505050611bd4565b005b3480156108d957600080fd5b506108f860048036038101908080359060200190929190505050611cf7565b005b34801561090657600080fd5b5061092560048036038101908080359060200190929190505050611e04565b005b34801561093357600080fd5b5061098e600480360381019080803590602001908201803590602001908080601f0160208091040260200160405190810160405280939291908181526020018383808284378201915050505050509192919290505050611f11565b604051808673ffffffffffffffffffffffffffffffffffffffff1673ffffffffffffffffffffffffffffffffffffffff1681526020018573ffffffffffffffffffffffffffffffffffffffff1673ffffffffffffffffffffffffffffffffffffffff1681526020018473ffffffffffffffffffffffffffffffffffffffff1673ffffffffffffffffffffffffffffffffffffffff1681526020018060200180602001838103835285818151815260200191508051906020019080838360005b83811015610a68578082015181840152602081019050610a4d565b50505050905090810190601f168015610a955780820380516001836020036101000a031916815260200191505b50838103825284818151815260200191508051906020019080838360005b83811015610ace578082015181840152602081019050610ab3565b50505050905090810190601f168015610afb5780820380516001836020036101000a031916815260200191505b5097505050505050505060405180910390f35b348015610b1a57600080fd5b50610b75600480360381019080803590602001908201803590602001908080601f0160208091040260200160405190810160405280939291908181526020018383808284378201915050505050509192919290505050612212565b005b348015610b8357600080fd5b50610bd8600480360381019080803573ffffffffffffffffffffffffffffffffffffffff169060200190929190803573ffffffffffffffffffffffffffffffffffffffff16906020019092919050505061239e565b005b348015610be657600080fd5b50610c1b600480360381019080803573ffffffffffffffffffffffffffffffffffffffff1690602001909291905050506125b7565b005b600160009054906101000a900473ffffffffffffffffffffffffffffffffffffffff1681565b60045481565b600360009054906101000a900473ffffffffffffffffffffffffffffffffffffffff1681565b600260009054906101000a900473ffffffffffffffffffffffffffffffffffffffff1681565b6000809054906101000a900473ffffffffffffffffffffffffffffffffffffffff1681565b6000806060600260009054906101000a900473ffffffffffffffffffffffffffffffffffffffff1673ffffffffffffffffffffffffffffffffffffffff168573ffffffffffffffffffffffffffffffffffffffff16141515610daa576040517f08c379a00000000000000000000000000000000000000000000000000000000081526004018080602001828103825260308152602001807f46756e6374696f6e2063616c6c206e6f742067656e6572617465642066726f6d81526020017f2074686520485944524f20746f6b656e0000000000000000000000000000000081525060400191505060405180910390fd5b6004548610151515610e24576040517f08c379a000000000000000000000000000000000000000000000000000000000815260040180806020018281038252601e8152602001807f496e73756666696369656e7420646174612072657175657374206665652e000081525060200191505060405180910390fd5b610e2d8461270c565b809350819450829550505050610e468784848985612861565b50505050505050565b6000809054906101000a900473ffffffffffffffffffffffffffffffffffffffff1673ffffffffffffffffffffffffffffffffffffffff163373ffffffffffffffffffffffffffffffffffffffff16141515610eaa57600080fd5b610eb684848484612eff565b50505050565b6000809054906101000a900473ffffffffffffffffffffffffffffffffffffffff1673ffffffffffffffffffffffffffffffffffffffff163373ffffffffffffffffffffffffffffffffffffffff16141515610f1757600080fd5b8073ffffffffffffffffffffffffffffffffffffffff166108fc3073ffffffffffffffffffffffffffffffffffffffff16319081150290604051600060405180830381858888f19350505050158015610f74573d6000803e3d6000fd5b5050565b60008060009054906101000a900473ffffffffffffffffffffffffffffffffffffffff1673ffffffffffffffffffffffffffffffffffffffff163373ffffffffffffffffffffffffffffffffffffffff16141515610fd557600080fd5b60648751101515610fe557600080fd5b866040518082805190602001908083835b60208310151561101b5780518252602082019150602081019050602083039250610ff6565b6001836020036101000a03801982511681845116808217855250505050505090500191505060405180910390209050600c6000826000191660001916815260200190815260200160002060060160009054906101000a900460ff161515156110eb576040517f08c379a000000000000000000000000000000000000000000000000000000000815260040180806020018281038252601b8152602001807f4170706c69636174696f6e20616c7265616479206578697374732e000000000081525060200191505060405180910390fd5b600573__bytes32Set____________________________638a620f519091846040518082805190602001908083835b60208310151561113f578051825260208201915060208101905060208303925061111a565b6001836020036101000a03801982511681845116808217855250505050505090500191505060405180910390206040518363ffffffff167c01000000000000000000000000000000000000000000000000000000000281526004018083815260200182600019166000191681526020019250505060206040518083038186803b1580156111cb57600080fd5b505af41580156111df573d6000803e3d6000fd5b505050506040513d60208110156111f557600080fd5b8101908080519060200190929190505050151561127a576040517f08c379a00000000000000000000000000000000000000000000000000000000081526004018080602001828103825260208152602001807f506173736564206b657954797065206973206e6f7420737570706f727465642e81525060200191505060405180910390fd5b6080604051908101604052808881526020016060604051908101604052808973ffffffffffffffffffffffffffffffffffffffff1681526020018873ffffffffffffffffffffffffffffffffffffffff1681526020018773ffffffffffffffffffffffffffffffffffffffff1681525081526020016040805190810160405280868152602001856040518082805190602001908083835b6020831015156113365780518252602082019150602081019050602083039250611311565b6001836020036101000a038019825116818451168082178552505050505050905001915050604051809103902060001916815250815260200160011515815250600c6000836000191660001916815260200190815260200160002060008201518160000190805190602001906113ad929190613486565b5060208201518160010160008201518160000160006101000a81548173ffffffffffffffffffffffffffffffffffffffff021916908373ffffffffffffffffffffffffffffffffffffffff16021790555060208201518160010160006101000a81548173ffffffffffffffffffffffffffffffffffffffff021916908373ffffffffffffffffffffffffffffffffffffffff16021790555060408201518160020160006101000a81548173ffffffffffffffffffffffffffffffffffffffff021916908373ffffffffffffffffffffffffffffffffffffffff160217905550505060408201518160040160008201518160000190805190602001906114b3929190613486565b5060208201518160010190600019169055505060608201518160060160006101000a81548160ff02191690831515021790555090505080600d60008873ffffffffffffffffffffffffffffffffffffffff1673ffffffffffffffffffffffffffffffffffffffff16815260200190815260200160002081600019169055507fb42789f1b47c4b2fdb1b8a475ca4c4fd7387894dbcd533f99532c61506a2a41e876040518080602001828103825283818151815260200191508051906020019080838360005b83811015611593578082015181840152602081019050611578565b50505050905090810190601f1680156115c05780820380516001836020036101000a031916815260200191505b509250505060405180910390a150505050505050565b60008060009054906101000a900473ffffffffffffffffffffffffffffffffffffffff1673ffffffffffffffffffffffffffffffffffffffff163373ffffffffffffffffffffffffffffffffffffffff1614151561163357600080fd5b816040518082805190602001908083835b6020831015156116695780518252602082019150602081019050602083039250611644565b6001836020036101000a03801982511681845116808217855250505050505090500191505060405180910390209050600573__bytes32Set____________________________638ac6ba9a9091836040518363ffffffff167c01000000000000000000000000000000000000000000000000000000000281526004018083815260200182600019166000191681526020019250505060006040518083038186803b15801561171657600080fd5b505af415801561172a573d6000803e3d6000fd5b5050505081600760008360001916600019168152602001908152602001600020908051906020019061175d929190613506565b505050565b61176e33848484612eff565b505050565b6000809054906101000a900473ffffffffffffffffffffffffffffffffffffffff1673ffffffffffffffffffffffffffffffffffffffff163373ffffffffffffffffffffffffffffffffffffffff161415156117ce57600080fd5b8060048190555050565b60008060009054906101000a900473ffffffffffffffffffffffffffffffffffffffff1673ffffffffffffffffffffffffffffffffffffffff163373ffffffffffffffffffffffffffffffffffffffff1614151561183557600080fd5b600c6000866000191660001916815260200190815260200160002090508060060160009054906101000a900460ff1615156118d8576040517f08c379a000000000000000000000000000000000000000000000000000000000815260040180806020018281038252601b8152602001807f4170706c69636174696f6e20646f6573206e6f742065786973742e000000000081525060200191505060405180910390fd5b838160010160000160006101000a81548173ffffffffffffffffffffffffffffffffffffffff021916908373ffffffffffffffffffffffffffffffffffffffff16021790555084600d60008673ffffffffffffffffffffffffffffffffffffffff1673ffffffffffffffffffffffffffffffffffffffff1681526020019081526020016000208160001916905550828160010160010160006101000a81548173ffffffffffffffffffffffffffffffffffffffff021916908373ffffffffffffffffffffffffffffffffffffffff160217905550818160010160020160006101000a81548173ffffffffffffffffffffffffffffffffffffffff021916908373ffffffffffffffffffffffffffffffffffffffff1602179055505050505050565b6000809054906101000a900473ffffffffffffffffffffffffffffffffffffffff1673ffffffffffffffffffffffffffffffffffffffff163373ffffffffffffffffffffffffffffffffffffffff16141515611a5457600080fd5b600c6000826000191660001916815260200190815260200160002060060160009054906101000a900460ff161515611af4576040517f08c379a000000000000000000000000000000000000000000000000000000000815260040180806020018281038252601b8152602001807f4170706c69636174696f6e20646f6573206e6f742065786973742e000000000081525060200191505060405180910390fd5b600c6000826000191660001916815260200190815260200160002060008082016000611b209190613586565b60018201600080820160006101000a81549073ffffffffffffffffffffffffffffffffffffffff02191690556001820160006101000a81549073ffffffffffffffffffffffffffffffffffffffff02191690556002820160006101000a81549073ffffffffffffffffffffffffffffffffffffffff021916905550506004820160008082016000611bb19190613586565b600182016000905550506006820160006101000a81549060ff0219169055505050565b6000809054906101000a900473ffffffffffffffffffffffffffffffffffffffff1673ffffffffffffffffffffffffffffffffffffffff163373ffffffffffffffffffffffffffffffffffffffff16141515611c2f57600080fd5b82600160006101000a81548173ffffffffffffffffffffffffffffffffffffffff021916908373ffffffffffffffffffffffffffffffffffffffff16021790555081600260006101000a81548173ffffffffffffffffffffffffffffffffffffffff021916908373ffffffffffffffffffffffffffffffffffffffff16021790555080600360006101000a81548173ffffffffffffffffffffffffffffffffffffffff021916908373ffffffffffffffffffffffffffffffffffffffff160217905550505050565b60008060009054906101000a900473ffffffffffffffffffffffffffffffffffffffff1673ffffffffffffffffffffffffffffffffffffffff163373ffffffffffffffffffffffffffffffffffffffff16141515611d5457600080fd5b600160009054906101000a900473ffffffffffffffffffffffffffffffffffffffff1690508073ffffffffffffffffffffffffffffffffffffffff1663e0182436836040518263ffffffff167c010000000000000000000000000000000000000000000000000000000002815260040180828152602001915050600060405180830381600087803b158015611de857600080fd5b505af1158015611dfc573d6000803e3d6000fd5b505050505050565b60008060009054906101000a900473ffffffffffffffffffffffffffffffffffffffff1673ffffffffffffffffffffffffffffffffffffffff163373ffffffffffffffffffffffffffffffffffffffff16141515611e6157600080fd5b600160009054906101000a900473ffffffffffffffffffffffffffffffffffffffff1690508073ffffffffffffffffffffffffffffffffffffffff1663e24cf226836040518263ffffffff167c010000000000000000000000000000000000000000000000000000000002815260040180828152602001915050600060405180830381600087803b158015611ef557600080fd5b505af1158015611f09573d6000803e3d6000fd5b505050505050565b6000806000606080600080876040518082805190602001908083835b602083101515611f525780518252602082019150602081019050602083039250611f2d565b6001836020036101000a03801982511681845116808217855250505050505090500191505060405180910390209150600c6000836000191660001916815260200190815260200160002090508060060160009054906101000a900460ff161515612024576040517f08c379a000000000000000000000000000000000000000000000000000000000815260040180806020018281038252601b8152602001807f4170706c69636174696f6e20646f6573206e6f742065786973742e000000000081525060200191505060405180910390fd5b8060010160000160009054906101000a900473ffffffffffffffffffffffffffffffffffffffff168160010160010160009054906101000a900473ffffffffffffffffffffffffffffffffffffffff168260010160020160009054906101000a900473ffffffffffffffffffffffffffffffffffffffff168360040160000160076000866004016001015460001916600019168152602001908152602001600020818054600181600116156101000203166002900480601f01602080910402602001604051908101604052809291908181526020018280546001816001161561010002031660029004801561215a5780601f1061212f5761010080835404028352916020019161215a565b820191906000526020600020905b81548152906001019060200180831161213d57829003601f168201915b50505050509150808054600181600116156101000203166002900480601f0160208091040260200160405190810160405280929190818152602001828054600181600116156101000203166002900480156121f65780601f106121cb576101008083540402835291602001916121f6565b820191906000526020600020905b8154815290600101906020018083116121d957829003601f168201915b5050505050905096509650965096509650505091939590929450565b60008060009054906101000a900473ffffffffffffffffffffffffffffffffffffffff1673ffffffffffffffffffffffffffffffffffffffff163373ffffffffffffffffffffffffffffffffffffffff1614151561226f57600080fd5b816040518082805190602001908083835b6020831015156122a55780518252602082019150602081019050602083039250612280565b6001836020036101000a03801982511681845116808217855250505050505090500191505060405180910390209050600873__bytes32Set____________________________638ac6ba9a9091836040518363ffffffff167c01000000000000000000000000000000000000000000000000000000000281526004018083815260200182600019166000191681526020019250505060006040518083038186803b15801561235257600080fd5b505af4158015612366573d6000803e3d6000fd5b5050505081600a600083600019166000191681526020019081526020016000209080519060200190612399929190613506565b505050565b60008060009054906101000a900473ffffffffffffffffffffffffffffffffffffffff1673ffffffffffffffffffffffffffffffffffffffff163373ffffffffffffffffffffffffffffffffffffffff161415156123fb57600080fd5b8290508073ffffffffffffffffffffffffffffffffffffffff1663a9059cbb838373ffffffffffffffffffffffffffffffffffffffff166370a08231306040518263ffffffff167c0100000000000000000000000000000000000000000000000000000000028152600401808273ffffffffffffffffffffffffffffffffffffffff1673ffffffffffffffffffffffffffffffffffffffff168152602001915050602060405180830381600087803b1580156124b657600080fd5b505af11580156124ca573d6000803e3d6000fd5b505050506040513d60208110156124e057600080fd5b81019080805190602001909291905050506040518363ffffffff167c0100000000000000000000000000000000000000000000000000000000028152600401808373ffffffffffffffffffffffffffffffffffffffff1673ffffffffffffffffffffffffffffffffffffffff16815260200182815260200192505050602060405180830381600087803b15801561257657600080fd5b505af115801561258a573d6000803e3d6000fd5b505050506040513d60208110156125a057600080fd5b810190808051906020019092919050505050505050565b6000809054906101000a900473ffffffffffffffffffffffffffffffffffffffff1673ffffffffffffffffffffffffffffffffffffffff163373ffffffffffffffffffffffffffffffffffffffff1614151561261257600080fd5b600073ffffffffffffffffffffffffffffffffffffffff168173ffffffffffffffffffffffffffffffffffffffff161415151561264e57600080fd5b8073ffffffffffffffffffffffffffffffffffffffff166000809054906101000a900473ffffffffffffffffffffffffffffffffffffffff1673ffffffffffffffffffffffffffffffffffffffff167f8be0079c531659141344cd1fd0a4f28419497f9722a3daafe3b4186f6b6457e060405160405180910390a3806000806101000a81548173ffffffffffffffffffffffffffffffffffffffff021916908373ffffffffffffffffffffffffffffffffffffffff16021790555050565b600080606060008060006060600080602060288b510381151561272b57fe5b061415156127a1576040517f08c379a00000000000000000000000000000000000000000000000000000000081526004018080602001828103825260108152602001807f4d616c666f726d65642062797465732e0000000000000000000000000000000081525060200191505060405180910390fd5b6127b560008a61339790919063ffffffff16565b94506127cb60148a61339790919063ffffffff16565b9350602060288a51038115156127dd57fe5b049250600090505b8281101561284c5761281961281460208302602801602060018501026028018c6133cf9092919063ffffffff16565b61345c565b868281518110151561282757fe5b90602001906020020190600019169081600019168152505080806001019150506127e5565b84848397509750975050505050509193909250565b60008060006060600080600d60008b73ffffffffffffffffffffffffffffffffffffffff1673ffffffffffffffffffffffffffffffffffffffff168152602001908152602001600020549550600c6000876000191660001916815260200190815260200160002094508a73ffffffffffffffffffffffffffffffffffffffff168560010160020160009054906101000a900473ffffffffffffffffffffffffffffffffffffffff1673ffffffffffffffffffffffffffffffffffffffff161415156129ba576040517f08c379a00000000000000000000000000000000000000000000000000000000081526004018080602001828103825260388152602001807f54686520746f6b656e2073656e646572206973206e6f7420746865207665726981526020017f66696572206f6620746865206170706c69636174696f6e2e000000000000000081525060400191505060405180910390fd5b600360009054906101000a900473ffffffffffffffffffffffffffffffffffffffff1693508373ffffffffffffffffffffffffffffffffffffffff166369c212f68a6040518263ffffffff167c0100000000000000000000000000000000000000000000000000000000028152600401808273ffffffffffffffffffffffffffffffffffffffff1673ffffffffffffffffffffffffffffffffffffffff168152602001915050600060405180830381600087803b158015612a7a57600080fd5b505af1158015612a8e573d6000803e3d6000fd5b505050506040513d6000823e3d601f19601f820116820180604052506040811015612ab857600080fd5b810190808051640100000000811115612ad057600080fd5b82810190506020810184811115612ae657600080fd5b8151856001820283011164010000000082111715612b0357600080fd5b5050929190602001805190602001909291905050505080935050600160009054906101000a900473ffffffffffffffffffffffffffffffffffffffff1691508173ffffffffffffffffffffffffffffffffffffffff166333feb89e8b8b8860010160010160009054906101000a900473ffffffffffffffffffffffffffffffffffffffff168f8d6040518663ffffffff167c0100000000000000000000000000000000000000000000000000000000028152600401808673ffffffffffffffffffffffffffffffffffffffff1673ffffffffffffffffffffffffffffffffffffffff1681526020018573ffffffffffffffffffffffffffffffffffffffff1673ffffffffffffffffffffffffffffffffffffffff1681526020018473ffffffffffffffffffffffffffffffffffffffff1673ffffffffffffffffffffffffffffffffffffffff1681526020018373ffffffffffffffffffffffffffffffffffffffff1673ffffffffffffffffffffffffffffffffffffffff16815260200182815260200195505050505050602060405180830381600087803b158015612ca857600080fd5b505af1158015612cbc573d6000803e3d6000fd5b505050506040513d6020811015612cd257600080fd5b8101908080519060200190929190505050905080600e6000856040518082805190602001908083835b602083101515612d205780518252602082019150602081019050602083039250612cfb565b6001836020036101000a03801982511681845116808217855250505050505090500191505060405180910390206000191660001916815260200190815260200160002060008860001916600019168152602001908152602001600020819055507f7dce30951bd00bc17371b517a432bd18f7beff3a4df761f86b8d984871693d3185600001848960405180806020018060200180602001848103845287818154600181600116156101000203166002900481526020019150805460018160011615610100020316600290048015612e385780601f10612e0d57610100808354040283529160200191612e38565b820191906000526020600020905b815481529060010190602001808311612e1b57829003601f168201915b5050848103835286818151815260200191508051906020019080838360005b83811015612e72578082015181840152602081019050612e57565b50505050905090810190601f168015612e9f5780820380516001836020036101000a031916815260200191505b50848103825285818151815260200191508051906020019060200280838360005b83811015612edb578082015181840152602081019050612ec0565b50505050905001965050505050505060405180910390a15050505050505050505050565b600080600083518551141515612f7d576040517f08c379a00000000000000000000000000000000000000000000000000000000081526004018080602001828103825260118152602001807f4d616c666f726d656420696e707574732e00000000000000000000000000000081525060200191505060405180910390fd5b600360009054906101000a900473ffffffffffffffffffffffffffffffffffffffff1692508273ffffffffffffffffffffffffffffffffffffffff16634bff5009876040518263ffffffff167c01000000000000000000000000000000000000000000000000000000000281526004018080602001828103825283818151815260200191508051906020019080838360005b8381101561302a57808201518184015260208101905061300f565b50505050905090810190601f1680156130575780820380516001836020036101000a031916815260200191505b50925050506040805180830381600087803b15801561307557600080fd5b505af1158015613089573d6000803e3d6000fd5b505050506040513d604081101561309f57600080fd5b81019080805190602001909291908051906020019092919050505050809250508673ffffffffffffffffffffffffffffffffffffffff168273ffffffffffffffffffffffffffffffffffffffff16141515613162576040517f08c379a000000000000000000000000000000000000000000000000000000000815260040180806020018281038252601a8152602001807f496e636f7272656374207573657220696e666f726d6174696f6e00000000000081525060200191505060405180910390fd5b600090505b845181101561338e57600873__bytes32Set____________________________638a620f519091878481518110151561319c57fe5b906020019060200201516040518363ffffffff167c01000000000000000000000000000000000000000000000000000000000281526004018083815260200182600019166000191681526020019250505060206040518083038186803b15801561320557600080fd5b505af4158015613219573d6000803e3d6000fd5b505050506040513d602081101561322f57600080fd5b810190808051906020019092919050505015156132b4576040517f08c379a00000000000000000000000000000000000000000000000000000000081526004018080602001828103825260178152602001807f556e737570706f727465642064617461206669656c642e00000000000000000081525060200191505060405180910390fd5b83818151811015156132c257fe5b90602001906020020151600b6000886040518082805190602001908083835b60208310151561330657805182526020820191506020810190506020830392506132e1565b6001836020036101000a0380198251168184511680821785525050505050509050019150506040518091039020600019166000191681526020019081526020016000206000878481518110151561335957fe5b906020019060200201516000191660001916815260200190815260200160002081600019169055508080600101915050613167565b50505050505050565b600080601483018451101515156133ad57600080fd5b6c01000000000000000000000000836020860101510490508091505092915050565b6060808284018551101515156133e457600080fd5b8215600081146133ff57604051915060208201604052613450565b6040519150601f8416801560200281840101858101878315602002848b0101015b8183101561343d5780518352602083019250602081019050613420565b50868552601f19601f8301166040525050505b50809150509392505050565b6000806000835114156134755760006001029150613480565b602083015190508091505b50919050565b828054600181600116156101000203166002900490600052602060002090601f016020900481019282601f106134c757805160ff19168380011785556134f5565b828001600101855582156134f5579182015b828111156134f45782518255916020019190600101906134d9565b5b50905061350291906135ce565b5090565b828054600181600116156101000203166002900490600052602060002090601f016020900481019282601f1061354757805160ff1916838001178555613575565b82800160010185558215613575579182015b82811115613574578251825591602001919060010190613559565b5b50905061358291906135ce565b5090565b50805460018160011615610100020316600290046000825580601f106135ac57506135cb565b601f0160209004906000526020600020908101906135ca91906135ce565b5b50565b6135f091905b808211156135ec5760008160009055506001016135d4565b5090565b905600a165627a7a723058201cd4743e71d9cd2286315a73e663453f9036e578a8faeaf062365b1caae1aa370029",
  "source": "pragma solidity ^0.4.23;\n\nimport \"./libraries/BytesLibrary.sol\";\nimport \"./libraries/bytes32Set.sol\";\nimport \"./Withdrawable.sol\";\n\n\ncontract RaindropClient {\n    // Returns a bool indicated whether a given userName has been claimed\n    function userNameTaken(string userName) public view returns (bool taken);\n    // Returns user details by user name\n    function getUserByName(string userName) public view returns (address userAddress, bool delegated);\n    // Returns user details by user address\n    function getUserByAddress(address _address) public view returns (string userName, bool delegated);\n}\n\n\ncontract SnowflakeEscrow {\n    function initiateEscrow(address _application, address _user, address _relayer, address _validator, uint _amount_)\n        public returns(uint escrowId);\n\n    function closeEscrow(uint _escrowId) public;\n\n    function cancelEscrow(uint _escrowId) public;\n}\n\n\ncontract SnowflakeRegistry is Withdrawable {\n    using BytesLibrary for bytes;\n    using bytes32Set for bytes32Set._bytes32Set;\n\n    // Events for when an application is signed up for Snowflake and when their account is deleted\n    event ApplicationSignUp(string applicationName);\n    event DataRequested(string applicationName, string userName, bytes32[] dataFields);\n\n    address public escrowAddress;\n    address public hydroTokenAddress;\n    address public raindropClientAddress;\n\n    uint public dataRequestFee;\n\n    bytes32Set._bytes32Set internal supportedKeyTypes;\n    mapping (bytes32 => string) internal keyNames;\n\n    bytes32Set._bytes32Set internal supportedDataFields;\n    mapping (bytes32 => string) internal dataFieldNames;\n    // hydro userNames => dataFields => saltedHashedValues\n    mapping (bytes32 => mapping (bytes32 => bytes32)) internal userSaltedHashes;\n\n    // Encryption key template\n    struct EncryptionKey {\n        string key;\n        bytes32 keyType;\n    }\n\n    // Address book template\n    struct AddressBook {\n        address ownerAddress;\n        address relayerAddress;\n        address verifierAddress;\n    }\n\n    // Application account template\n    struct Application {\n        string applicationName;\n        AddressBook applicationAddressBook;\n        EncryptionKey applicationEncryptionKey;\n        bool _initialized;\n    }\n\n    // Mapping from hashed names to applications (primary application directory)\n    mapping (bytes32 => Application) internal applicationDirectory;\n    // Mapping from owner addresses to applications (secondary application directory)\n    mapping (address => bytes32) internal ownerAddressLookup;\n\n    // users to applications to escrow IDs\n    mapping (bytes32 => mapping (bytes32 => uint)) internal escrowIds;\n\n    function signUpApplication(\n        string applicationName,\n        address ownerAddress,\n        address relayerAddress,\n        address verifierAddress,\n        string key,\n        string keyType\n    )\n        public onlyOwner\n    {\n        require(bytes(applicationName).length < 100);\n        bytes32 applicationNameHash = keccak256(applicationName);\n        require(!applicationDirectory[applicationNameHash]._initialized, \"Application already exists.\");\n\n        require(supportedKeyTypes.contains(keccak256(keyType)), \"Passed keyType is not supported.\");\n\n        applicationDirectory[applicationNameHash] = Application(\n            applicationName,\n            AddressBook(\n                ownerAddress,\n                relayerAddress,\n                verifierAddress\n            ),\n            EncryptionKey(\n                key,\n                keccak256(keyType)\n            ),\n            true\n        );\n        ownerAddressLookup[ownerAddress] = applicationNameHash;\n\n        emit ApplicationSignUp(applicationName);\n    }\n\n    function modifyApplicationAddresses(\n        bytes32 applicationNameHash,\n        address ownerAddress,\n        address relayerAddress,\n        address verifierAddress\n    )\n        public onlyOwner\n    {\n        Application storage application = applicationDirectory[applicationNameHash];\n        require(application._initialized, \"Application does not exist.\");\n        application.applicationAddressBook.ownerAddress = ownerAddress;\n        ownerAddressLookup[ownerAddress] = applicationNameHash;\n        application.applicationAddressBook.relayerAddress = relayerAddress;\n        application.applicationAddressBook.verifierAddress = verifierAddress;\n    }\n\n    function getApplication(string applicationName) public view returns (\n        address ownerAddress,\n        address relayerAddress,\n        address verifierAddress,\n        string key,\n        string keyType\n    )\n    {\n        bytes32 applicationNameHash = keccak256(applicationName);\n        Application storage application = applicationDirectory[applicationNameHash];\n        require(application._initialized, \"Application does not exist.\");\n\n        return (\n            application.applicationAddressBook.ownerAddress,\n            application.applicationAddressBook.relayerAddress,\n            application.applicationAddressBook.verifierAddress,\n            application.applicationEncryptionKey.key,\n            keyNames[application.applicationEncryptionKey.keyType]\n        );\n    }\n\n    function deleteApplication(bytes32 applicationNameHash) public onlyOwner {\n        require(applicationDirectory[applicationNameHash]._initialized, \"Application does not exist.\");\n        delete applicationDirectory[applicationNameHash];\n    }\n\n    function addKeyType(string keyType) public onlyOwner {\n        bytes32 keyTypeHash = keccak256(keyType);\n        supportedKeyTypes.insert(keyTypeHash);\n        keyNames[keyTypeHash] = keyType;\n    }\n\n    function addDataField(string dataFieldName) public onlyOwner {\n        bytes32 dataFieldNameHash = keccak256(dataFieldName);\n        supportedDataFields.insert(dataFieldNameHash);\n        dataFieldNames[dataFieldNameHash] = dataFieldName;\n    }\n\n    function setDataRequestFee(uint fee) public onlyOwner {\n        dataRequestFee = fee;\n    }\n\n    function modifyContractAddresses(\n        address _escrowAddress,\n        address _hydroTokenAddress,\n        address _raindropClientAddress\n    )\n        public onlyOwner\n    {\n        escrowAddress = _escrowAddress;\n        hydroTokenAddress = _hydroTokenAddress;\n        raindropClientAddress = _raindropClientAddress;\n    }\n\n    function addDataDelegated(address userAddress, string userName, bytes32[] dataFields, bytes32[] saltedHashes)\n        public onlyOwner\n    {\n        _addData(userAddress, userName, dataFields, saltedHashes);\n    }\n\n    function addData(string userName, bytes32[] dataFields, bytes32[] saltedHashes) public {\n        _addData(msg.sender, userName, dataFields, saltedHashes);\n    }\n\n    function _addData(address userAddress, string userName, bytes32[] dataFields, bytes32[] saltedHashes)\n        internal\n    {\n        require(dataFields.length == saltedHashes.length, \"Malformed inputs.\");\n        RaindropClient raindropClient = RaindropClient(raindropClientAddress);\n        address raindropClientUserAddress;\n        (raindropClientUserAddress, ) = raindropClient.getUserByName(userName);\n        require(raindropClientUserAddress == userAddress, \"Incorrect user information\");\n        for (uint i = 0; i < dataFields.length; i++) {\n            require(supportedDataFields.contains(dataFields[i]), \"Unsupported data field.\");\n            userSaltedHashes[keccak256(userName)][dataFields[i]] = saltedHashes[i];\n        }\n    }\n\n    // the application's verifier is the one that must call this\n    function receiveApproval(address _from, uint _value, address _token, bytes _extraData) public {\n        require(_token == hydroTokenAddress, \"Function call not generated from the HYDRO token\");\n        require(_value >= dataRequestFee, \"Insufficient data request fee.\");\n        address ownerAddress;\n        address userAddress;\n        bytes32[] memory dataFields;\n        (ownerAddress, userAddress, dataFields) = parseFields(_extraData);\n\n        requestData(_from, ownerAddress, userAddress, _value, dataFields);\n    }\n\n    function requestData(\n        address tokenSender,\n        address ownerAddress,\n        address userAddress,\n        uint amount,\n        bytes32[] dataFields\n    )\n        internal\n    {\n        // make sure the token sender is the passed application's verifier\n        bytes32 applicationNameHash = ownerAddressLookup[ownerAddress];\n        Application storage application = applicationDirectory[applicationNameHash];\n        require(\n            application.applicationAddressBook.verifierAddress == tokenSender,\n            \"The token sender is not the verifier of the application.\"\n        );\n\n        // get the user name from the passed address\n        RaindropClient raindropClient = RaindropClient(raindropClientAddress);\n        string memory userName;\n        (userName, ) = raindropClient.getUserByAddress(userAddress);\n\n        // initiate the escrow\n        SnowflakeEscrow escrow = SnowflakeEscrow(escrowAddress);\n        uint escrowId = escrow.initiateEscrow(\n            ownerAddress, userAddress, application.applicationAddressBook.relayerAddress, tokenSender, amount\n        );\n        escrowIds[keccak256(userName)][applicationNameHash] = escrowId;\n\n        emit DataRequested(application.applicationName, userName, dataFields);\n    }\n\n    function closeEscrow(uint escrowId) public onlyOwner {\n        SnowflakeEscrow escrow = SnowflakeEscrow(escrowAddress);\n        escrow.closeEscrow(escrowId);\n    }\n\n    function cancelEscrow(uint escrowId) public onlyOwner {\n        SnowflakeEscrow escrow = SnowflakeEscrow(escrowAddress);\n        escrow.cancelEscrow(escrowId);\n    }\n\n\n    function parseFields(bytes memory _bytes) internal pure returns (\n        address ownerAddress,\n        address userAddress,\n        bytes32[] memory dataFields\n    )\n    {\n        require((_bytes.length - 40) % 32 == 0, \"Malformed bytes.\");\n        address _ownerAddress = _bytes.toAddress(0);\n        address _userAddress = _bytes.toAddress(20);\n        uint numberOfFields = (_bytes.length - 40) / 32;\n        bytes32[] memory _dataFields;\n        for (uint i = 0; i < numberOfFields; i++) {\n            dataFields[i] = _bytes.slice(40 + (i * 32), 40 + ((i + 1) * 32)).toBytes32();\n        }\n\n        return (_ownerAddress, _userAddress, _dataFields);\n    }\n}\n",
  "sourcePath": "/Users/noahzinsmeister/Documents/github/smart-contracts/snowflake-poc/contracts/SnowflakeRegistry.sol",
  "compiler": {
    "name": "solc",
    "version": "0.4.23+commit.124ca40d.Emscripten.clang"
  },
  "schemaVersion": "2.0.0",
  "updatedAt": "2018-04-30T19:20:25.977Z"
}