{
  "contractName": "SnowflakeRegistry",
  "abi": [
    {
      "constant": true,
      "inputs": [],
      "name": "escrowAddress",
      "outputs": [
        {
          "name": "",
          "type": "address"
        }
      ],
      "payable": false,
      "stateMutability": "view",
      "type": "function"
    },
    {
      "constant": true,
      "inputs": [],
      "name": "raindropClientAddress",
      "outputs": [
        {
          "name": "",
          "type": "address"
        }
      ],
      "payable": false,
      "stateMutability": "view",
      "type": "function"
    },
    {
      "constant": true,
      "inputs": [],
      "name": "hydroTokenAddress",
      "outputs": [
        {
          "name": "",
          "type": "address"
        }
      ],
      "payable": false,
      "stateMutability": "view",
      "type": "function"
    },
    {
      "constant": true,
      "inputs": [],
      "name": "owner",
      "outputs": [
        {
          "name": "",
          "type": "address"
        }
      ],
      "payable": false,
      "stateMutability": "view",
      "type": "function"
    },
    {
      "constant": false,
      "inputs": [
        {
          "name": "to",
          "type": "address"
        }
      ],
      "name": "withdrawEther",
      "outputs": [],
      "payable": false,
      "stateMutability": "nonpayable",
      "type": "function"
    },
    {
      "constant": false,
      "inputs": [
        {
          "name": "tokenAddress",
          "type": "address"
        },
        {
          "name": "to",
          "type": "address"
        }
      ],
      "name": "withdrawERC20Token",
      "outputs": [],
      "payable": false,
      "stateMutability": "nonpayable",
      "type": "function"
    },
    {
      "constant": false,
      "inputs": [
        {
          "name": "newOwner",
          "type": "address"
        }
      ],
      "name": "transferOwnership",
      "outputs": [],
      "payable": false,
      "stateMutability": "nonpayable",
      "type": "function"
    },
    {
      "anonymous": false,
      "inputs": [
        {
          "indexed": false,
          "name": "applicationName",
          "type": "string"
        }
      ],
      "name": "ApplicationSignUp",
      "type": "event"
    },
    {
      "anonymous": false,
      "inputs": [
        {
          "indexed": false,
          "name": "applicationName",
          "type": "string"
        },
        {
          "indexed": false,
          "name": "userName",
          "type": "string"
        },
        {
          "indexed": false,
          "name": "dataFields",
          "type": "bytes32[]"
        }
      ],
      "name": "DataRequested",
      "type": "event"
    },
    {
      "anonymous": false,
      "inputs": [
        {
          "indexed": true,
          "name": "previousOwner",
          "type": "address"
        },
        {
          "indexed": true,
          "name": "newOwner",
          "type": "address"
        }
      ],
      "name": "OwnershipTransferred",
      "type": "event"
    },
    {
      "constant": false,
      "inputs": [
        {
          "name": "applicationName",
          "type": "string"
        },
        {
          "name": "ownerAddress",
          "type": "address"
        },
        {
          "name": "relayerAddress",
          "type": "address"
        },
        {
          "name": "verifierAddress",
          "type": "address"
        },
        {
          "name": "key",
          "type": "string"
        },
        {
          "name": "keyType",
          "type": "string"
        }
      ],
      "name": "signUpApplication",
      "outputs": [],
      "payable": false,
      "stateMutability": "nonpayable",
      "type": "function"
    },
    {
      "constant": false,
      "inputs": [
        {
          "name": "applicationNameHash",
          "type": "bytes32"
        },
        {
          "name": "ownerAddress",
          "type": "address"
        },
        {
          "name": "relayerAddress",
          "type": "address"
        },
        {
          "name": "verifierAddress",
          "type": "address"
        }
      ],
      "name": "setApplicationAddresses",
      "outputs": [],
      "payable": false,
      "stateMutability": "nonpayable",
      "type": "function"
    },
    {
      "constant": true,
      "inputs": [
        {
          "name": "applicationName",
          "type": "string"
        }
      ],
      "name": "getApplication",
      "outputs": [
        {
          "name": "ownerAddress",
          "type": "address"
        },
        {
          "name": "relayerAddress",
          "type": "address"
        },
        {
          "name": "verifierAddress",
          "type": "address"
        },
        {
          "name": "key",
          "type": "string"
        },
        {
          "name": "keyType",
          "type": "string"
        }
      ],
      "payable": false,
      "stateMutability": "view",
      "type": "function"
    },
    {
      "constant": false,
      "inputs": [
        {
          "name": "applicationNameHash",
          "type": "bytes32"
        }
      ],
      "name": "deleteApplication",
      "outputs": [],
      "payable": false,
      "stateMutability": "nonpayable",
      "type": "function"
    },
    {
      "constant": false,
      "inputs": [
        {
          "name": "keyType",
          "type": "string"
        }
      ],
      "name": "addKeyType",
      "outputs": [],
      "payable": false,
      "stateMutability": "nonpayable",
      "type": "function"
    },
    {
      "constant": false,
      "inputs": [
        {
          "name": "dataFieldName",
          "type": "string"
        }
      ],
      "name": "addDataField",
      "outputs": [],
      "payable": false,
      "stateMutability": "nonpayable",
      "type": "function"
    },
    {
      "constant": false,
      "inputs": [
        {
          "name": "_escrowAddress",
          "type": "address"
        },
        {
          "name": "_hydroTokenAddress",
          "type": "address"
        },
        {
          "name": "_raindropClientAddress",
          "type": "address"
        }
      ],
      "name": "setContractAddresses",
      "outputs": [],
      "payable": false,
      "stateMutability": "nonpayable",
      "type": "function"
    },
    {
      "constant": false,
      "inputs": [
        {
          "name": "userAddress",
          "type": "address"
        },
        {
          "name": "userName",
          "type": "string"
        },
        {
          "name": "dataFields",
          "type": "bytes32[]"
        },
        {
          "name": "saltedHashes",
          "type": "bytes32[]"
        }
      ],
      "name": "addDataDelegated",
      "outputs": [],
      "payable": false,
      "stateMutability": "nonpayable",
      "type": "function"
    },
    {
      "constant": false,
      "inputs": [
        {
          "name": "userName",
          "type": "string"
        },
        {
          "name": "dataFields",
          "type": "bytes32[]"
        },
        {
          "name": "saltedHashes",
          "type": "bytes32[]"
        }
      ],
      "name": "addData",
      "outputs": [],
      "payable": false,
      "stateMutability": "nonpayable",
      "type": "function"
    },
    {
      "constant": true,
      "inputs": [
        {
          "name": "userName",
          "type": "string"
        },
        {
          "name": "dataField",
          "type": "string"
        }
      ],
      "name": "getSaltedHashes",
      "outputs": [
        {
          "name": "",
          "type": "bytes32[]"
        }
      ],
      "payable": false,
      "stateMutability": "view",
      "type": "function"
    },
    {
      "constant": false,
      "inputs": [
        {
          "name": "userAddress",
          "type": "address"
        },
        {
          "name": "userName",
          "type": "string"
        },
        {
          "name": "dataFields",
          "type": "bytes32[]"
        },
        {
          "name": "saltedHashes",
          "type": "bytes32[]"
        }
      ],
      "name": "removeDataDelegated",
      "outputs": [],
      "payable": false,
      "stateMutability": "nonpayable",
      "type": "function"
    },
    {
      "constant": false,
      "inputs": [
        {
          "name": "userName",
          "type": "string"
        },
        {
          "name": "dataFields",
          "type": "bytes32[]"
        },
        {
          "name": "saltedHashes",
          "type": "bytes32[]"
        }
      ],
      "name": "removeData",
      "outputs": [],
      "payable": false,
      "stateMutability": "nonpayable",
      "type": "function"
    },
    {
      "constant": false,
      "inputs": [
        {
          "name": "_from",
          "type": "address"
        },
        {
          "name": "_value",
          "type": "uint256"
        },
        {
          "name": "_token",
          "type": "address"
        },
        {
          "name": "_extraData",
          "type": "bytes"
        }
      ],
      "name": "receiveApproval",
      "outputs": [],
      "payable": false,
      "stateMutability": "nonpayable",
      "type": "function"
    },
    {
      "constant": false,
      "inputs": [
        {
          "name": "escrowId",
          "type": "uint256"
        }
      ],
      "name": "closeEscrow",
      "outputs": [],
      "payable": false,
      "stateMutability": "nonpayable",
      "type": "function"
    },
    {
      "constant": false,
      "inputs": [
        {
          "name": "escrowId",
          "type": "uint256"
        }
      ],
      "name": "cancelEscrow",
      "outputs": [],
      "payable": false,
      "stateMutability": "nonpayable",
      "type": "function"
    }
  ],
  "bytecode": "0x608060405260008054600160a060020a03191633179055612f9c806100256000396000f30060806040526004361061010e5763ffffffff60e060020a6000350416630d5defa4811461011357806346cb12bd1461014457806375d7e4bd1461015957806378240a3e1461016e5780638ab63380146102555780638da5cb5b146102845780638f4ffcb114610299578063ab40c9bd14610309578063af933b57146103e2578063b637ae5914610403578063ba9a10a0146104f9578063c2522b9014610552578063dd6721691461061d578063de6ca1901461064d578063e018243614610665578063e24cf2261461067d578063e6f5291b14610695578063e946be3f14610817578063ecfbe70c14610870578063f2fde38b14610897578063fe5f3982146108b8578063ff1f3f0c14610991575b600080fd5b34801561011f57600080fd5b50610128610a5c565b60408051600160a060020a039092168252519081900360200190f35b34801561015057600080fd5b50610128610a6b565b34801561016557600080fd5b50610128610a7a565b34801561017a57600080fd5b506040805160206004803580820135601f810184900484028501840190955284845261020594369492936024939284019190819084018382808284375050604080516020601f89358b018035918201839004830284018301909452808352979a999881019791965091820194509250829150840183828082843750949750610a899650505050505050565b60408051602080825283518183015283519192839290830191858101910280838360005b83811015610241578181015183820152602001610229565b505050509050019250505060405180910390f35b34801561026157600080fd5b50610282600160a060020a0360043581169060243581169060443516610c8e565b005b34801561029057600080fd5b50610128610cf1565b3480156102a557600080fd5b50604080516020601f60643560048181013592830184900484028501840190955281845261028294600160a060020a03813581169560248035966044359093169536956084949201918190840183828082843750949750610d009650505050505050565b34801561031557600080fd5b5060408051602060046024803582810135601f8101859004850286018501909652858552610282958335600160a060020a0316953695604494919390910191908190840183828082843750506040805187358901803560208181028481018201909552818452989b9a998901989297509082019550935083925085019084908082843750506040805187358901803560208181028481018201909552818452989b9a998901989297509082019550935083925085019084908082843750949750610db99650505050505050565b3480156103ee57600080fd5b50610282600160a060020a0360043516610de2565b34801561040f57600080fd5b506040805160206004803580820135601f810184900484028501840190955284845261028294369492936024939284019190819084018382808284375050604080516020601f60608a01358b0180359182018390048302840183018552818452989b600160a060020a038b3581169c848d013582169c968701359091169a91995097506080909401955091935091820191819084018382808284375050604080516020601f89358b018035918201839004830284018301909452808352979a999881019791965091820194509250829150840183828082843750949750610e339650505050505050565b34801561050557600080fd5b506040805160206004803580820135601f81018490048402850184019095528484526102829436949293602493928401919081908401838280828437509497506113da9650505050505050565b34801561055e57600080fd5b506040805160206004803580820135601f8101849004840285018401909552848452610282943694929360249392840191908190840183828082843750506040805187358901803560208181028481018201909552818452989b9a998901989297509082019550935083925085019084908082843750506040805187358901803560208181028481018201909552818452989b9a9989019892975090820195509350839250850190849080828437509497506115639650505050505050565b34801561062957600080fd5b50610282600435600160a060020a036024358116906044358116906064351661156f565b34801561065957600080fd5b5061028260043561165a565b34801561067157600080fd5b50610282600435611781565b34801561068957600080fd5b5061028260043561181d565b3480156106a157600080fd5b506040805160206004803580820135601f81018490048402850184019095528484526106ee94369492936024939284019190819084018382808284375094975061189d9650505050505050565b6040518086600160a060020a0316600160a060020a0316815260200185600160a060020a0316600160a060020a0316815260200184600160a060020a0316600160a060020a031681526020018060200180602001838103835285818151815260200191508051906020019080838360005b8381101561077757818101518382015260200161075f565b50505050905090810190601f1680156107a45780820380516001836020036101000a031916815260200191505b50838103825284518152845160209182019186019080838360005b838110156107d75781810151838201526020016107bf565b50505050905090810190601f1680156108045780820380516001836020036101000a031916815260200191505b5097505050505050505060405180910390f35b34801561082357600080fd5b506040805160206004803580820135601f8101849004840285018401909552848452610282943694929360249392840191908190840183828082843750949750611b469650505050505050565b34801561087c57600080fd5b50610282600160a060020a0360043581169060243516611ccb565b3480156108a357600080fd5b50610282600160a060020a0360043516611dfb565b3480156108c457600080fd5b5060408051602060046024803582810135601f8101859004850286018501909652858552610282958335600160a060020a0316953695604494919390910191908190840183828082843750506040805187358901803560208181028481018201909552818452989b9a998901989297509082019550935083925085019084908082843750506040805187358901803560208181028481018201909552818452989b9a998901989297509082019550935083925085019084908082843750949750611e8f9650505050505050565b34801561099d57600080fd5b506040805160206004803580820135601f8101849004840285018401909552848452610282943694929360249392840191908190840183828082843750506040805187358901803560208181028481018201909552818452989b9a998901989297509082019550935083925085019084908082843750506040805187358901803560208181028481018201909552818452989b9a998901989297509082019550935083925085019084908082843750949750611eb29650505050505050565b600154600160a060020a031681565b600354600160a060020a031681565b600254600160a060020a031681565b6060600a6000846040516020018082805190602001908083835b60208310610ac25780518252601f199092019160209182019101610aa3565b6001836020036101000a0380198251168184511680821785525050505050509050019150506040516020818303038152906040526040518082805190602001908083835b60208310610b255780518252601f199092019160209182019101610b06565b6001836020036101000a0380198251168184511680821785525050505050509050019150506040518091039020600019166000191681526020019081526020016000206000836040516020018082805190602001908083835b60208310610b9d5780518252601f199092019160209182019101610b7e565b6001836020036101000a0380198251168184511680821785525050505050509050019150506040516020818303038152906040526040518082805190602001908083835b60208310610c005780518252601f199092019160209182019101610be1565b51815160209384036101000a600019018019909216911617905260408051929094018290039091208652858101969096525092830160002080548451818702810187019095528085529394909392508401905082828015610c8157602002820191906000526020600020905b81548152600190910190602001808311610c6c575b5050505050905092915050565b600054600160a060020a03163314610ca557600080fd5b60018054600160a060020a0394851673ffffffffffffffffffffffffffffffffffffffff1991821617909155600280549385169382169390931790925560038054919093169116179055565b600054600160a060020a031681565b6002546000908190606090600160a060020a03868116911614610d93576040805160e560020a62461bcd02815260206004820152603060248201527f46756e6374696f6e2063616c6c206e6f742067656e6572617465642066726f6d60448201527f2074686520485944524f20746f6b656e00000000000000000000000000000000606482015290519081900360840190fd5b610d9c84611ebe565b91945092509050610db08784848985611fc3565b50505050505050565b600054600160a060020a03163314610dd057600080fd5b610ddc848484846124e7565b50505050565b600054600160a060020a03163314610df957600080fd5b604051600160a060020a03821690303180156108fc02916000818181858888f19350505050158015610e2f573d6000803e3d6000fd5b5050565b60008054600160a060020a03163314610e4b57600080fd5b8651606411610e5957600080fd5b866040516020018082805190602001908083835b60208310610e8c5780518252601f199092019160209182019101610e6d565b6001836020036101000a0380198251168184511680821785525050505050509050019150506040516020818303038152906040526040518082805190602001908083835b60208310610eef5780518252601f199092019160209182019101610ed0565b51815160209384036101000a600019018019909216911617905260408051929094018290039091206000818152600b909252929020600601549194505060ff16159150610f889050576040805160e560020a62461bcd02815260206004820152601b60248201527f4170706c69636174696f6e20616c7265616479206578697374732e0000000000604482015290519081900360640190fd5b600473__bytes32Set____________________________638a620f519091846040516020018082805190602001908083835b60208310610fd95780518252601f199092019160209182019101610fba565b6001836020036101000a0380198251168184511680821785525050505050509050019150506040516020818303038152906040526040518082805190602001908083835b6020831061103c5780518252601f19909201916020918201910161101d565b51815160209384036101000a60001901801990921691161790526040805192909401829003822063ffffffff891660e060020a02835260048301979097526024820196909652915160448084019695509093509183900390910190508186803b1580156110a857600080fd5b505af41580156110bc573d6000803e3d6000fd5b505050506040513d60208110156110d257600080fd5b5051151561112a576040805160e560020a62461bcd02815260206004820181905260248201527f506173736564206b657954797065206973206e6f7420737570706f727465642e604482015290519081900360640190fd5b60806040519081016040528088815260200160606040519081016040528089600160a060020a0316815260200188600160a060020a0316815260200187600160a060020a031681525081526020016040805190810160405280868152602001856040516020018082805190602001908083835b602083106111bc5780518252601f19909201916020918201910161119d565b6001836020036101000a0380198251168184511680821785525050505050509050019150506040516020818303038152906040526040518082805190602001908083835b6020831061121f5780518252601f199092019160209182019101611200565b51815160209384036101000a600019018019909216911617905260408051929094018290039091209095525093855250506001928101929092526000848152600b83522082518051919261127892849290910190612e8e565b506020828101518051600184018054600160a060020a0392831673ffffffffffffffffffffffffffffffffffffffff19918216179091558284015160028601805491841691831691909117905560409283015160038601805491909316911617905583015180518051919260048501926112f59284920190612e8e565b50602091820151600190910155606092909201516006909101805491151560ff19909216919091179055600160a060020a0387166000908152600c8252604080822084905580518381528a51818501528a517fb42789f1b47c4b2fdb1b8a475ca4c4fd7387894dbcd533f99532c61506a2a41e948c94929384939084019291860191908190849084905b8381101561139757818101518382015260200161137f565b50505050905090810190601f1680156113c45780820380516001836020036101000a031916815260200191505b509250505060405180910390a150505050505050565b60008054600160a060020a031633146113f257600080fd5b816040516020018082805190602001908083835b602083106114255780518252601f199092019160209182019101611406565b6001836020036101000a0380198251168184511680821785525050505050509050019150506040516020818303038152906040526040518082805190602001908083835b602083106114885780518252601f199092019160209182019101611469565b5181516020939093036101000a6000190180199091169216919091179052604080519190930181900381207f8ac6ba9a00000000000000000000000000000000000000000000000000000000825260048083015260248201819052925192955073__bytes32Set____________________________9450638ac6ba9a93506044808201936000935091829003018186803b15801561152557600080fd5b505af4158015611539573d6000803e3d6000fd5b5050506000828152600660209081526040909120845161155e93509091850190612e8e565b505050565b61155e338484846124e7565b60008054600160a060020a0316331461158757600080fd5b506000848152600b60205260409020600681015460ff1615156115f4576040805160e560020a62461bcd02815260206004820152601b60248201527f4170706c69636174696f6e20646f6573206e6f742065786973742e0000000000604482015290519081900360640190fd5b60018101805473ffffffffffffffffffffffffffffffffffffffff19908116600160a060020a039687169081179092556000918252600c602052604090912095909555600281018054861693851693909317909255600390910180549093169116179055565b60008054600160a060020a0316331461167257600080fd5b6000828152600b602052604090206006015460ff1615156116dd576040805160e560020a62461bcd02815260206004820152601b60248201527f4170706c69636174696f6e20646f6573206e6f742065786973742e0000000000604482015290519081900360640190fd5b506000818152600b602052604081206001810154600160a060020a0316916117058282612f0c565b60018201805473ffffffffffffffffffffffffffffffffffffffff1990811690915560028301805482169055600383018054909116905560048201600061174c8282612f0c565b506000600191909101819055600692909201805460ff1916905550600160a060020a039091168152600c602052604081205550565b60008054600160a060020a0316331461179957600080fd5b50600154604080517fe0182436000000000000000000000000000000000000000000000000000000008152600481018490529051600160a060020a0390921691829163e018243691602480830192600092919082900301818387803b15801561180157600080fd5b505af1158015611815573d6000803e3d6000fd5b505050505050565b60008054600160a060020a0316331461183557600080fd5b50600154604080517fe24cf226000000000000000000000000000000000000000000000000000000008152600481018490529051600160a060020a0390921691829163e24cf22691602480830192600092919082900301818387803b15801561180157600080fd5b6000806000606080600080876040516020018082805190602001908083835b602083106118db5780518252601f1990920191602091820191016118bc565b6001836020036101000a0380198251168184511680821785525050505050509050019150506040516020818303038152906040526040518082805190602001908083835b6020831061193e5780518252601f19909201916020918201910161191f565b51815160209384036101000a600019018019909216911617905260408051929094018290039091206000818152600b909252929020600681015492965094505060ff16151591506119db9050576040805160e560020a62461bcd02815260206004820152601b60248201527f4170706c69636174696f6e20646f6573206e6f742065786973742e0000000000604482015290519081900360640190fd5b600180820154600280840154600385015460058601546000908152600660209081526040918290206004890180548451601f9a821615610100026000190190911697909704988901839004830287018301909352878652600160a060020a039687169794871696939093169491938491830182828015611a9c5780601f10611a7157610100808354040283529160200191611a9c565b820191906000526020600020905b815481529060010190602001808311611a7f57829003601f168201915b5050845460408051602060026001851615610100026000190190941693909304601f810184900484028201840190925281815295975086945092508401905082828015611b2a5780601f10611aff57610100808354040283529160200191611b2a565b820191906000526020600020905b815481529060010190602001808311611b0d57829003601f168201915b5050505050905096509650965096509650505091939590929450565b60008054600160a060020a03163314611b5e57600080fd5b816040516020018082805190602001908083835b60208310611b915780518252601f199092019160209182019101611b72565b6001836020036101000a0380198251168184511680821785525050505050509050019150506040516020818303038152906040526040518082805190602001908083835b60208310611bf45780518252601f199092019160209182019101611bd5565b5181516020939093036101000a6000190180199091169216919091179052604080519190930181900381207f8ac6ba9a0000000000000000000000000000000000000000000000000000000082526007600483015260248201819052925192955073__bytes32Set____________________________9450638ac6ba9a93506044808201936000935091829003018186803b158015611c9257600080fd5b505af4158015611ca6573d6000803e3d6000fd5b5050506000828152600960209081526040909120845161155e93509091850190612e8e565b60008054600160a060020a03163314611ce357600080fd5b50604080517f70a0823100000000000000000000000000000000000000000000000000000000815230600482015290518391600160a060020a0383169163a9059cbb91859184916370a082319160248083019260209291908290030181600087803b158015611d5157600080fd5b505af1158015611d65573d6000803e3d6000fd5b505050506040513d6020811015611d7b57600080fd5b50516040805160e060020a63ffffffff8616028152600160a060020a03909316600484015260248301919091525160448083019260209291908290030181600087803b158015611dca57600080fd5b505af1158015611dde573d6000803e3d6000fd5b505050506040513d6020811015611df457600080fd5b5050505050565b600054600160a060020a03163314611e1257600080fd5b600160a060020a0381161515611e2757600080fd5b60008054604051600160a060020a03808516939216917f8be0079c531659141344cd1fd0a4f28419497f9722a3daafe3b4186f6b6457e091a36000805473ffffffffffffffffffffffffffffffffffffffff1916600160a060020a0392909216919091179055565b600054600160a060020a03163314611ea657600080fd5b610ddc84848484612958565b61155e33848484612958565b6000806060600080600060606000602060288a5103811515611edc57fe5b0615611f32576040805160e560020a62461bcd02815260206004820152601060248201527f4d616c666f726d65642062797465732e00000000000000000000000000000000604482015290519081900360640190fd5b611f4389600063ffffffff612db816565b9450611f5689601463ffffffff612db816565b895190945060209060271901049250600090505b82811015611fb457611f94611f8f8a6020848102602890810191600187010201612de8565b612e69565b8682815181101515611fa257fe5b60209081029091010152600101611f6a565b50929791965091945092505050565b600160a060020a038481166000908152600c6020908152604080832054808452600b909252822060038101549193909291606091839182918c811691161461207b576040805160e560020a62461bcd02815260206004820152603860248201527f54686520746f6b656e2073656e646572206973206e6f7420746865207665726960448201527f66696572206f6620746865206170706c69636174696f6e2e0000000000000000606482015290519081900360840190fd5b600354604080517f69c212f6000000000000000000000000000000000000000000000000000000008152600160a060020a038c81166004830152915191909216955085916369c212f691602480830192600092919082900301818387803b1580156120e557600080fd5b505af11580156120f9573d6000803e3d6000fd5b505050506040513d6000823e601f3d908101601f19168201604090815281101561212257600080fd5b81019080805164010000000081111561213a57600080fd5b8201602081018481111561214d57600080fd5b815164010000000081118282018710171561216757600080fd5b5050929190602001805190602001909291905050505080935050600160009054906101000a9004600160a060020a0316915081600160a060020a03166333feb89e8b8b8860010160010160009054906101000a9004600160a060020a03168f8d6040518663ffffffff1660e060020a0281526004018086600160a060020a0316600160a060020a0316815260200185600160a060020a0316600160a060020a0316815260200184600160a060020a0316600160a060020a0316815260200183600160a060020a0316600160a060020a0316815260200182815260200195505050505050602060405180830381600087803b15801561226457600080fd5b505af1158015612278573d6000803e3d6000fd5b505050506040513d602081101561228e57600080fd5b505160405184519192508291600d91600091879160209081019182918401908083835b602083106122d05780518252601f1990920191602091820191016122b1565b6001836020036101000a0380198251168184511680821785525050505050509050019150506040516020818303038152906040526040518082805190602001908083835b602083106123335780518252601f199092019160209182019101612314565b518151600019602094850361010090810a820192831692199390931691909117909252604080519690940186900390952088528782019890985295810160009081208f825287528190209790975550855160608082528c5460026001821615909402909701909616919091049481018590527f7dce30951bd00bc17371b517a432bd18f7beff3a4df761f86b8d984871693d31958b958a958f9550929350839283019183019060808401908890801561242d5780601f106124025761010080835404028352916020019161242d565b820191906000526020600020905b81548152906001019060200180831161241057829003601f168201915b5050848103835286518152865160209182019188019080838360005b83811015612461578181015183820152602001612449565b50505050905090810190601f16801561248e5780820380516001836020036101000a031916815260200191505b508481038252855181528551602091820191808801910280838360005b838110156124c35781810151838201526020016124ab565b50505050905001965050505050505060405180910390a15050505050505050505050565b60008060008084518651141515612548576040805160e560020a62461bcd02815260206004820152601160248201527f4d616c666f726d656420696e707574732e000000000000000000000000000000604482015290519081900360640190fd5b6003546040517f4bff50090000000000000000000000000000000000000000000000000000000081526020600482018181528a5160248401528a51600160a060020a0390941697508793634bff5009938c9383926044909201919085019080838360005b838110156125c45781810151838201526020016125ac565b50505050905090810190601f1680156125f15780820380516001836020036101000a031916815260200191505b50925050506040805180830381600087803b15801561260f57600080fd5b505af1158015612623573d6000803e3d6000fd5b505050506040513d604081101561263957600080fd5b50519250600160a060020a03808416908916146126a0576040805160e560020a62461bcd02815260206004820152601a60248201527f496e636f7272656374207573657220696e666f726d6174696f6e000000000000604482015290519081900360640190fd5b600091505b855182101561294e57600773__bytes32Set____________________________638a620f51909188858151811015156126da57fe5b60209081029091018101516040805160e060020a63ffffffff87160281526004810194909452602484019190915251604480840193829003018186803b15801561272357600080fd5b505af4158015612737573d6000803e3d6000fd5b505050506040513d602081101561274d57600080fd5b505115156127a5576040805160e560020a62461bcd02815260206004820152601760248201527f556e737570706f727465642064617461206669656c642e000000000000000000604482015290519081900360640190fd5b600a6000886040516020018082805190602001908083835b602083106127dc5780518252601f1990920191602091820191016127bd565b6001836020036101000a0380198251168184511680821785525050505050509050019150506040516020818303038152906040526040518082805190602001908083835b6020831061283f5780518252601f199092019160209182019101612820565b6001836020036101000a0380198251168184511680821785525050505050509050019150506040518091039020600019166000191681526020019081526020016000206000878481518110151561289257fe5b60209081029091018101518252810191909152604001600020855190915073__bytes32Set____________________________90638ac6ba9a9083908890869081106128da57fe5b906020019060200201516040518363ffffffff1660e060020a0281526004018083815260200182600019166000191681526020019250505060006040518083038186803b15801561292a57600080fd5b505af415801561293e573d6000803e3d6000fd5b5050600190930192506126a59050565b5050505050505050565b6000806000835185511415156129b8576040805160e560020a62461bcd02815260206004820152601160248201527f4d616c666f726d656420696e707574732e000000000000000000000000000000604482015290519081900360640190fd5b6003546040517f4bff5009000000000000000000000000000000000000000000000000000000008152602060048201818152895160248401528951600160a060020a0390941696508693634bff5009938b9383926044909201919085019080838360005b83811015612a34578181015183820152602001612a1c565b50505050905090810190601f168015612a615780820380516001836020036101000a031916815260200191505b50925050506040805180830381600087803b158015612a7f57600080fd5b505af1158015612a93573d6000803e3d6000fd5b505050506040513d6040811015612aa957600080fd5b50519150600160a060020a0380831690881614612b10576040805160e560020a62461bcd02815260206004820152601a60248201527f496e636f7272656374207573657220696e666f726d6174696f6e000000000000604482015290519081900360640190fd5b5060005b8451811015610db057600773__bytes32Set____________________________638a620f5190918784815181101515612b4957fe5b60209081029091018101516040805160e060020a63ffffffff87160281526004810194909452602484019190915251604480840193829003018186803b158015612b9257600080fd5b505af4158015612ba6573d6000803e3d6000fd5b505050506040513d6020811015612bbc57600080fd5b50511515612c14576040805160e560020a62461bcd02815260206004820152601760248201527f556e737570706f727465642064617461206669656c642e000000000000000000604482015290519081900360640190fd5b600a6000876040516020018082805190602001908083835b60208310612c4b5780518252601f199092019160209182019101612c2c565b6001836020036101000a0380198251168184511680821785525050505050509050019150506040516020818303038152906040526040518082805190602001908083835b60208310612cae5780518252601f199092019160209182019101612c8f565b6001836020036101000a03801982511681845116808217855250505050505090500191505060405180910390206000191660001916815260200190815260200160002060008683815181101515612d0157fe5b60209081029091018101518252810191909152604001600020845173__bytes32Set____________________________916336c26aef91879085908110612d4457fe5b906020019060200201516040518363ffffffff1660e060020a0281526004018083815260200182600019166000191681526020019250505060006040518083038186803b158015612d9457600080fd5b505af4158015612da8573d6000803e3d6000fd5b505060019092019150612b149050565b60008082601401845110151515612dce57600080fd5b505001602001516c01000000000000000000000000900490565b606080828401855110151515612dfd57600080fd5b82158015612e1657604051915060208201604052612e60565b6040519150601f8416801560200281840101858101878315602002848b0101015b81831015612e4f578051835260209283019201612e37565b5050858452601f01601f1916604052505b50949350505050565b600080825160001415612e7f5760009150612e88565b50506020810151805b50919050565b828054600181600116156101000203166002900490600052602060002090601f016020900481019282601f10612ecf57805160ff1916838001178555612efc565b82800160010185558215612efc579182015b82811115612efc578251825591602001919060010190612ee1565b50612f08929150612f53565b5090565b50805460018160011615610100020316600290046000825580601f10612f325750612f50565b601f016020900490600052602060002090810190612f509190612f53565b50565b612f6d91905b80821115612f085760008155600101612f59565b905600a165627a7a72305820431087d4122423839423eec4a926b483d1562fd8c01d0eb5d431869d45bf537d0029",
  "source": "pragma solidity ^0.4.23;\n\nimport \"./Withdrawable.sol\";\n\nimport \"./libraries/bytesLibrary.sol\";\nimport \"./libraries/bytes32Set.sol\";\n\n\ncontract RaindropClient {\n    function userNameTaken(string userName) external view returns (bool taken);\n    function getUserByName(string userName) external view returns (address userAddress, bool delegated);\n    function getUserByAddress(address _address) external view returns (string userName, bool delegated);\n}\n\ncontract SnowflakeEscrow {\n    function initiateEscrow(\n        address _application,\n        address _user,\n        address _relayer,\n        address _validator,\n        uint _amount_\n    )\n        external returns(uint escrowId);\n    function closeEscrow(uint _escrowId) external;\n    function cancelEscrow(uint _escrowId) external;\n}\n\n\ncontract SnowflakeRegistry is Withdrawable {\n    using BytesLibrary for bytes;\n    using bytes32Set for bytes32Set._bytes32Set;\n\n    // Events for when an application is signed up for Snowflake and when their account is deleted\n    event ApplicationSignUp(string applicationName);\n    event DataRequested(string applicationName, string userName, bytes32[] dataFields);\n\n    address public escrowAddress;\n    address public hydroTokenAddress;\n    address public raindropClientAddress;\n\n    bytes32Set._bytes32Set internal supportedKeyTypes;\n    mapping (bytes32 => string) internal keyNames;\n\n    bytes32Set._bytes32Set internal supportedDataFields;\n    mapping (bytes32 => string) internal dataFieldNames;\n    // hydro userNames => dataFields => set of saltedHashedValues\n    mapping (bytes32 => mapping (bytes32 => bytes32Set._bytes32Set)) internal userSaltedHashes;\n\n    // Encryption key template\n    struct EncryptionKey {\n        string key;\n        bytes32 keyType;\n    }\n\n    // Address book template\n    struct AddressBook {\n        address ownerAddress;\n        address relayerAddress;\n        address verifierAddress;\n    }\n\n    // Application account template\n    struct Application {\n        string applicationName;\n        AddressBook applicationAddressBook;\n        EncryptionKey applicationEncryptionKey;\n        bool _initialized;\n    }\n\n    // Mapping from hashed names to applications (primary application directory)\n    mapping (bytes32 => Application) internal applicationDirectory;\n    // Mapping from owner addresses to applications (secondary application directory)\n    mapping (address => bytes32) internal ownerAddressLookup;\n\n    // users to applications to escrow IDs\n    mapping (bytes32 => mapping (bytes32 => uint)) internal escrowIds;\n\n    function signUpApplication(\n        string applicationName,\n        address ownerAddress,\n        address relayerAddress,\n        address verifierAddress,\n        string key,\n        string keyType\n    )\n        public onlyOwner\n    {\n        require(bytes(applicationName).length < 100);\n        bytes32 applicationNameHash = keccak256(abi.encodePacked(applicationName));\n        require(!applicationDirectory[applicationNameHash]._initialized, \"Application already exists.\");\n\n        require(supportedKeyTypes.contains(keccak256(abi.encodePacked(keyType))), \"Passed keyType is not supported.\");\n\n        applicationDirectory[applicationNameHash] = Application(\n            applicationName,\n            AddressBook(\n                ownerAddress,\n                relayerAddress,\n                verifierAddress\n            ),\n            EncryptionKey(\n                key,\n                keccak256(abi.encodePacked(keyType))\n            ),\n            true\n        );\n        ownerAddressLookup[ownerAddress] = applicationNameHash;\n\n        emit ApplicationSignUp(applicationName);\n    }\n\n    function setApplicationAddresses(\n        bytes32 applicationNameHash,\n        address ownerAddress,\n        address relayerAddress,\n        address verifierAddress\n    )\n        public onlyOwner\n    {\n        Application storage application = applicationDirectory[applicationNameHash];\n        require(application._initialized, \"Application does not exist.\");\n        application.applicationAddressBook.ownerAddress = ownerAddress;\n        ownerAddressLookup[ownerAddress] = applicationNameHash;\n        application.applicationAddressBook.relayerAddress = relayerAddress;\n        application.applicationAddressBook.verifierAddress = verifierAddress;\n    }\n\n    function getApplication(string applicationName) public view returns (\n        address ownerAddress,\n        address relayerAddress,\n        address verifierAddress,\n        string key,\n        string keyType\n    )\n    {\n        bytes32 applicationNameHash = keccak256(abi.encodePacked(applicationName));\n        Application storage application = applicationDirectory[applicationNameHash];\n        require(application._initialized, \"Application does not exist.\");\n\n        return (\n            application.applicationAddressBook.ownerAddress,\n            application.applicationAddressBook.relayerAddress,\n            application.applicationAddressBook.verifierAddress,\n            application.applicationEncryptionKey.key,\n            keyNames[application.applicationEncryptionKey.keyType]\n        );\n    }\n\n    function deleteApplication(bytes32 applicationNameHash) public onlyOwner {\n        require(applicationDirectory[applicationNameHash]._initialized, \"Application does not exist.\");\n        address ownerAddress = applicationDirectory[applicationNameHash].applicationAddressBook.ownerAddress;\n        delete applicationDirectory[applicationNameHash];\n        delete ownerAddressLookup[ownerAddress];\n    }\n\n    function addKeyType(string keyType) public onlyOwner {\n        bytes32 keyTypeHash = keccak256(abi.encodePacked(keyType));\n        supportedKeyTypes.insert(keyTypeHash);\n        keyNames[keyTypeHash] = keyType;\n    }\n\n    function addDataField(string dataFieldName) public onlyOwner {\n        bytes32 dataFieldNameHash = keccak256(abi.encodePacked(dataFieldName));\n        supportedDataFields.insert(dataFieldNameHash);\n        dataFieldNames[dataFieldNameHash] = dataFieldName;\n    }\n\n    function setContractAddresses(\n        address _escrowAddress,\n        address _hydroTokenAddress,\n        address _raindropClientAddress\n    )\n        public onlyOwner\n    {\n        escrowAddress = _escrowAddress;\n        hydroTokenAddress = _hydroTokenAddress;\n        raindropClientAddress = _raindropClientAddress;\n    }\n\n    function addDataDelegated(address userAddress, string userName, bytes32[] dataFields, bytes32[] saltedHashes)\n        public onlyOwner\n    {\n        _addData(userAddress, userName, dataFields, saltedHashes);\n    }\n\n    function addData(string userName, bytes32[] dataFields, bytes32[] saltedHashes) public {\n        _addData(msg.sender, userName, dataFields, saltedHashes);\n    }\n\n    function _addData(address userAddress, string userName, bytes32[] dataFields, bytes32[] saltedHashes)\n        internal\n    {\n        require(dataFields.length == saltedHashes.length, \"Malformed inputs.\");\n        RaindropClient raindropClient = RaindropClient(raindropClientAddress);\n        address raindropClientUserAddress;\n        (raindropClientUserAddress, ) = raindropClient.getUserByName(userName);\n        require(raindropClientUserAddress == userAddress, \"Incorrect user information\");\n        for (uint i = 0; i < dataFields.length; i++) {\n            require(supportedDataFields.contains(dataFields[i]), \"Unsupported data field.\");\n            bytes32Set._bytes32Set storage currentFields =\n                userSaltedHashes[keccak256(abi.encodePacked(userName))][dataFields[i]];\n            currentFields.insert(saltedHashes[i]);\n        }\n    }\n\n    function getSaltedHashes(string userName, string dataField) public view returns (bytes32[]) {\n        return userSaltedHashes[keccak256(abi.encodePacked(userName))][keccak256(abi.encodePacked(dataField))].members;\n    }\n\n    function removeDataDelegated(address userAddress, string userName, bytes32[] dataFields, bytes32[] saltedHashes)\n        public onlyOwner\n    {\n        _removeData(userAddress, userName, dataFields, saltedHashes);\n    }\n\n    function removeData(string userName, bytes32[] dataFields, bytes32[] saltedHashes) public {\n        _removeData(msg.sender, userName, dataFields, saltedHashes);\n    }\n\n    function _removeData(address userAddress, string userName, bytes32[] dataFields, bytes32[] saltedHashes)\n        internal\n    {\n        require(dataFields.length == saltedHashes.length, \"Malformed inputs.\");\n        RaindropClient raindropClient = RaindropClient(raindropClientAddress);\n        address raindropClientUserAddress;\n        (raindropClientUserAddress, ) = raindropClient.getUserByName(userName);\n        require(raindropClientUserAddress == userAddress, \"Incorrect user information\");\n        for (uint i = 0; i < dataFields.length; i++) {\n            require(supportedDataFields.contains(dataFields[i]), \"Unsupported data field.\");\n            userSaltedHashes[keccak256(abi.encodePacked(userName))][dataFields[i]].remove(saltedHashes[i]);\n        }\n    }\n\n    // the application's verifier is the one that must call this\n    function receiveApproval(address _from, uint _value, address _token, bytes _extraData) public {\n        require(_token == hydroTokenAddress, \"Function call not generated from the HYDRO token\");\n        address ownerAddress;\n        address userAddress;\n        bytes32[] memory dataFields;\n        (ownerAddress, userAddress, dataFields) = parseFields(_extraData);\n\n        requestData(_from, ownerAddress, userAddress, _value, dataFields);\n    }\n\n    function requestData(\n        address tokenSender,\n        address ownerAddress,\n        address userAddress,\n        uint amount,\n        bytes32[] dataFields\n    )\n        internal\n    {\n        // make sure the token sender is the passed application's verifier\n        bytes32 applicationNameHash = ownerAddressLookup[ownerAddress];\n        Application storage application = applicationDirectory[applicationNameHash];\n        require(\n            application.applicationAddressBook.verifierAddress == tokenSender,\n            \"The token sender is not the verifier of the application.\"\n        );\n\n        // get the user name from the passed address\n        RaindropClient raindropClient = RaindropClient(raindropClientAddress);\n        string memory userName;\n        (userName, ) = raindropClient.getUserByAddress(userAddress);\n\n        // initiate the escrow\n        SnowflakeEscrow escrow = SnowflakeEscrow(escrowAddress);\n        uint escrowId = escrow.initiateEscrow(\n            ownerAddress, userAddress, application.applicationAddressBook.relayerAddress, tokenSender, amount\n        );\n        escrowIds[keccak256(abi.encodePacked(userName))][applicationNameHash] = escrowId;\n\n        emit DataRequested(application.applicationName, userName, dataFields);\n    }\n\n    function closeEscrow(uint escrowId) public onlyOwner {\n        SnowflakeEscrow escrow = SnowflakeEscrow(escrowAddress);\n        escrow.closeEscrow(escrowId);\n    }\n\n    function cancelEscrow(uint escrowId) public onlyOwner {\n        SnowflakeEscrow escrow = SnowflakeEscrow(escrowAddress);\n        escrow.cancelEscrow(escrowId);\n    }\n\n\n    function parseFields(bytes memory _bytes) internal pure returns (\n        address ownerAddress,\n        address userAddress,\n        bytes32[] memory dataFields\n    )\n    {\n        require((_bytes.length - 40) % 32 == 0, \"Malformed bytes.\");\n        address _ownerAddress = _bytes.toAddress(0);\n        address _userAddress = _bytes.toAddress(20);\n        uint numberOfFields = (_bytes.length - 40) / 32;\n        bytes32[] memory _dataFields;\n        for (uint i = 0; i < numberOfFields; i++) {\n            dataFields[i] = _bytes.slice(40 + (i * 32), 40 + ((i + 1) * 32)).toBytes32();\n        }\n\n        return (_ownerAddress, _userAddress, _dataFields);\n    }\n}\n",
  "sourcePath": "/Users/noahzinsmeister/Documents/github/smart-contracts/snowflake-poc/contracts/SnowflakeRegistry.sol",
  "compiler": {
    "name": "solc",
    "version": "0.4.24+commit.e67f0147.Emscripten.clang"
  },
  "schemaVersion": "2.0.0",
  "updatedAt": "2018-06-01T21:25:43.095Z"
}