{
  "contractName": "SnowflakeResolver",
  "abi": [
    {
      "constant": true,
      "inputs": [],
      "name": "owner",
      "outputs": [
        {
          "name": "",
          "type": "address"
        }
      ],
      "payable": false,
      "stateMutability": "view",
      "type": "function"
    },
    {
      "constant": false,
      "inputs": [
        {
          "name": "newOwner",
          "type": "address"
        }
      ],
      "name": "transferOwnership",
      "outputs": [],
      "payable": false,
      "stateMutability": "nonpayable",
      "type": "function"
    },
    {
      "anonymous": false,
      "inputs": [
        {
          "indexed": true,
          "name": "previousOwner",
          "type": "address"
        },
        {
          "indexed": true,
          "name": "newOwner",
          "type": "address"
        }
      ],
      "name": "OwnershipTransferred",
      "type": "event"
    },
    {
      "constant": false,
      "inputs": [
        {
          "name": "_address",
          "type": "address"
        }
      ],
      "name": "setSnowflakeAddress",
      "outputs": [],
      "payable": false,
      "stateMutability": "nonpayable",
      "type": "function"
    }
  ],
  "bytecode": "0x608060405260008054600160a060020a031916331790556101e5806100256000396000f3006080604052600436106100565763ffffffff7c01000000000000000000000000000000000000000000000000000000006000350416638da5cb5b811461005b578063c979b05a1461008c578063f2fde38b146100af575b600080fd5b34801561006757600080fd5b506100706100d0565b60408051600160a060020a039092168252519081900360200190f35b34801561009857600080fd5b506100ad600160a060020a03600435166100df565b005b3480156100bb57600080fd5b506100ad600160a060020a0360043516610125565b600054600160a060020a031681565b600054600160a060020a031633146100f657600080fd5b6003805473ffffffffffffffffffffffffffffffffffffffff1916600160a060020a0392909216919091179055565b600054600160a060020a0316331461013c57600080fd5b600160a060020a038116151561015157600080fd5b60008054604051600160a060020a03808516939216917f8be0079c531659141344cd1fd0a4f28419497f9722a3daafe3b4186f6b6457e091a36000805473ffffffffffffffffffffffffffffffffffffffff1916600160a060020a03929092169190911790555600a165627a7a723058206506cbfb4dad8b2956292841d0d5a6b9ca6f1cf42c1b66d6c50906b695ade3ce0029",
  "source": "pragma solidity ^0.4.23;\n\nimport \"../zeppelin/ownership/Ownable.sol\";\n\n\ncontract SnowflakeResolver is Ownable {\n    string snowflakeName;\n    string snowflakeDescription;\n    address snowflakeAddress;\n\n    function setSnowflakeAddress(address _address) public onlyOwner {\n        snowflakeAddress = _address;\n    }\n}\n",
  "sourcePath": "/Users/andychorlian/Documents/GitHub/smart-contracts/snowflake-poc/contracts/resolvers/SnowflakeResolver.sol",
  "compiler": {
    "name": "solc",
    "version": "0.4.24+commit.e67f0147.Emscripten.clang"
  },
  "schemaVersion": "2.0.0",
  "updatedAt": "2018-06-13T14:22:50.508Z"
}