{
  "contractName": "Snowflake",
  "abi": [
    {
      "constant": true,
      "inputs": [
        {
          "name": "",
          "type": "uint8"
        }
      ],
      "name": "allowedFields",
      "outputs": [
        {
          "name": "",
          "type": "bool"
        }
      ],
      "payable": false,
      "stateMutability": "view",
      "type": "function"
    },
    {
      "constant": true,
      "inputs": [
        {
          "name": "",
          "type": "address"
        }
      ],
      "name": "ownerToToken",
      "outputs": [
        {
          "name": "",
          "type": "uint256"
        }
      ],
      "payable": false,
      "stateMutability": "view",
      "type": "function"
    },
    {
      "constant": true,
      "inputs": [],
      "name": "clientRaindropAddress",
      "outputs": [
        {
          "name": "",
          "type": "address"
        }
      ],
      "payable": false,
      "stateMutability": "view",
      "type": "function"
    },
    {
      "constant": true,
      "inputs": [
        {
          "name": "",
          "type": "uint256"
        }
      ],
      "name": "dateOrder",
      "outputs": [
        {
          "name": "",
          "type": "string"
        }
      ],
      "payable": false,
      "stateMutability": "view",
      "type": "function"
    },
    {
      "constant": true,
      "inputs": [],
      "name": "owner",
      "outputs": [
        {
          "name": "",
          "type": "address"
        }
      ],
      "payable": false,
      "stateMutability": "view",
      "type": "function"
    },
    {
      "constant": false,
      "inputs": [
        {
          "name": "to",
          "type": "address"
        }
      ],
      "name": "withdrawEther",
      "outputs": [],
      "payable": false,
      "stateMutability": "nonpayable",
      "type": "function"
    },
    {
      "constant": false,
      "inputs": [
        {
          "name": "tokenAddress",
          "type": "address"
        },
        {
          "name": "to",
          "type": "address"
        }
      ],
      "name": "withdrawERC20Token",
      "outputs": [],
      "payable": false,
      "stateMutability": "nonpayable",
      "type": "function"
    },
    {
      "constant": false,
      "inputs": [
        {
          "name": "newOwner",
          "type": "address"
        }
      ],
      "name": "transferOwnership",
      "outputs": [],
      "payable": false,
      "stateMutability": "nonpayable",
      "type": "function"
    },
    {
      "constant": true,
      "inputs": [
        {
          "name": "",
          "type": "uint256"
        }
      ],
      "name": "nameOrder",
      "outputs": [
        {
          "name": "",
          "type": "string"
        }
      ],
      "payable": false,
      "stateMutability": "view",
      "type": "function"
    },
    {
      "inputs": [],
      "payable": false,
      "stateMutability": "nonpayable",
      "type": "constructor"
    },
    {
      "anonymous": false,
      "inputs": [
        {
          "indexed": true,
          "name": "previousOwner",
          "type": "address"
        },
        {
          "indexed": true,
          "name": "newOwner",
          "type": "address"
        }
      ],
      "name": "OwnershipTransferred",
      "type": "event"
    },
    {
      "constant": true,
      "inputs": [
        {
          "name": "_tokenId",
          "type": "uint256"
        }
      ],
      "name": "ownerOf",
      "outputs": [
        {
          "name": "",
          "type": "address"
        }
      ],
      "payable": false,
      "stateMutability": "view",
      "type": "function"
    },
    {
      "constant": true,
      "inputs": [
        {
          "name": "_address",
          "type": "address"
        }
      ],
      "name": "tokenOfAddress",
      "outputs": [
        {
          "name": "",
          "type": "uint256"
        }
      ],
      "payable": false,
      "stateMutability": "view",
      "type": "function"
    },
    {
      "constant": true,
      "inputs": [
        {
          "name": "hydroId",
          "type": "string"
        }
      ],
      "name": "tokenOfHydroID",
      "outputs": [
        {
          "name": "",
          "type": "uint256"
        }
      ],
      "payable": false,
      "stateMutability": "view",
      "type": "function"
    },
    {
      "constant": false,
      "inputs": [
        {
          "name": "_address",
          "type": "address"
        }
      ],
      "name": "setClientRaindropAddress",
      "outputs": [],
      "payable": false,
      "stateMutability": "nonpayable",
      "type": "function"
    },
    {
      "constant": false,
      "inputs": [
        {
          "name": "names",
          "type": "bytes32[4]"
        },
        {
          "name": "dateOfBirth",
          "type": "bytes32[3]"
        }
      ],
      "name": "mintIdentityToken",
      "outputs": [
        {
          "name": "tokenId",
          "type": "uint256"
        }
      ],
      "payable": false,
      "stateMutability": "nonpayable",
      "type": "function"
    },
    {
      "constant": false,
      "inputs": [
        {
          "name": "field",
          "type": "uint8"
        },
        {
          "name": "entry",
          "type": "string"
        },
        {
          "name": "resolvers",
          "type": "address[]"
        }
      ],
      "name": "addResolver",
      "outputs": [],
      "payable": false,
      "stateMutability": "nonpayable",
      "type": "function"
    },
    {
      "constant": false,
      "inputs": [
        {
          "name": "field",
          "type": "uint8"
        },
        {
          "name": "entry",
          "type": "string"
        },
        {
          "name": "resolvers",
          "type": "address[]"
        }
      ],
      "name": "removeResolver",
      "outputs": [],
      "payable": false,
      "stateMutability": "nonpayable",
      "type": "function"
    },
    {
      "constant": false,
      "inputs": [
        {
          "name": "resolvers",
          "type": "address[]"
        }
      ],
      "name": "addThirdPartyResolvers",
      "outputs": [],
      "payable": false,
      "stateMutability": "nonpayable",
      "type": "function"
    },
    {
      "constant": false,
      "inputs": [
        {
          "name": "resolvers",
          "type": "address[]"
        }
      ],
      "name": "removeThirdPartyResolvers",
      "outputs": [],
      "payable": false,
      "stateMutability": "nonpayable",
      "type": "function"
    },
    {
      "constant": false,
      "inputs": [
        {
          "name": "field",
          "type": "uint8"
        },
        {
          "name": "entries",
          "type": "string[]"
        },
        {
          "name": "saltedHashes",
          "type": "bytes32[]"
        }
      ],
      "name": "modifyFieldEntries",
      "outputs": [],
      "payable": false,
      "stateMutability": "nonpayable",
      "type": "function"
    },
    {
      "constant": false,
      "inputs": [
        {
          "name": "field",
          "type": "uint8"
        },
        {
          "name": "entries",
          "type": "string[]"
        },
        {
          "name": "saltedHashes",
          "type": "bytes32[]"
        }
      ],
      "name": "removeFieldEntries",
      "outputs": [],
      "payable": false,
      "stateMutability": "nonpayable",
      "type": "function"
    }
  ],
  "bytecode": "0x600160055560096101009081527f676976656e4e616d650000000000000000000000000000000000000000000000610120526080908152600a6101409081527f6d6964646c654e616d65000000000000000000000000000000000000000000006101605260a05260076101809081527f7375726e616d65000000000000000000000000000000000000000000000000006101a05260c052610200604052600d6101c09081527f7072656665727265644e616d65000000000000000000000000000000000000006101e05260e052620000dc906006906004620001fa565b506040805160a0810182526003606082018181527f64617900000000000000000000000000000000000000000000000000000000006080840152825282518084018452600581527f6d6f6e74680000000000000000000000000000000000000000000000000000006020828101919091528084019190915283518085018552600481527f796561720000000000000000000000000000000000000000000000000000000091810191909152928201929092526200019d91600a919062000251565b50348015620001ab57600080fd5b5060008054600160a060020a031916331781555b600560ff82161015620001f35760ff81166000908152600d60205260409020805460ff1916600190811790915501620001bf565b50620003aa565b82600481019282156200023f579160200282015b828111156200023f57825180516200022e91849160209091019062000296565b50916020019190600101906200020e565b506200024d92915062000317565b5090565b82600381019282156200023f579160200282015b828111156200023f57825180516200028591849160209091019062000296565b509160200191906001019062000265565b828054600181600116156101000203166002900490600052602060002090601f016020900481019282601f10620002d957805160ff191683800117855562000309565b8280016001018555821562000309579182015b8281111562000309578251825591602001919060010190620002ec565b506200024d92915062000342565b6200033f91905b808211156200024d5760006200033582826200035f565b506001016200031e565b90565b6200033f91905b808211156200024d576000815560010162000349565b50805460018160011615610100020316600290046000825580601f10620003875750620003a7565b601f016020900490600052602060002090810190620003a7919062000342565b50565b61213180620003ba6000396000f3006080604052600436106100f85763ffffffff60e060020a6000350416630303f4d681146100fd57806303136be71461011f57806303b286d514610155578063098f45a9146101755780630ce5aeef146101955780631da7631f146101c25780631dfc99c4146101e25780632196f1701461020457806344e7c4c4146102245780636352211e146102515780636369da641461027157806368753b9c1461029157806369a39c30146102b1578063856b414e146102d15780638da5cb5b146102f1578063af933b5714610306578063cc0438f014610326578063ecfbe70c14610346578063f2fde38b14610366578063f61d44ad14610386575b600080fd5b34801561010957600080fd5b5061011d610118366004611b94565b6103a6565b005b34801561012b57600080fd5b5061013f61013a366004611b76565b6105b3565b60405161014c9190611f18565b60405180910390f35b34801561016157600080fd5b5061011d610170366004611c11565b6105c8565b34801561018157600080fd5b5061011d610190366004611a4d565b6107ca565b3480156101a157600080fd5b506101b56101b03660046119ed565b61088f565b60405161014c9190611ff2565b3480156101ce57600080fd5b506101b56101dd3660046119ed565b6108a1565b3480156101ee57600080fd5b506101f76108e2565b60405161014c9190611eef565b34801561021057600080fd5b5061011d61021f366004611c11565b6108f1565b34801561023057600080fd5b5061024461023f366004611b3a565b610ae5565b60405161014c9190611f26565b34801561025d57600080fd5b506101f761026c366004611b3a565b610b80565b34801561027d57600080fd5b5061011d61028c366004611a4d565b610bba565b34801561029d57600080fd5b506101b56102ac366004611ad0565b610c79565b3480156102bd57600080fd5b506101b56102cc366004611a82565b610d00565b3480156102dd57600080fd5b5061011d6102ec3660046119ed565b611214565b3480156102fd57600080fd5b506101f761125a565b34801561031257600080fd5b5061011d6103213660046119ed565b611269565b34801561033257600080fd5b5061011d610341366004611b94565b6112ba565b34801561035257600080fd5b5061011d610361366004611a13565b61149d565b34801561037257600080fd5b5061011d6103813660046119ed565b6115cb565b34801561039257600080fd5b506102446103a1366004611b3a565b61165f565b60ff8084166000908152600d60205260408120549091829182911615156103eb5760405160e560020a62461bcd0281526004016103e290611f47565b60405180910390fd5b600160ff8716116104115760405160e560020a62461bcd0281526004016103e290611f87565b83518551146104355760405160e560020a62461bcd0281526004016103e290611f37565b61043e336108a1565b600081815260016020526040902090935091505b84518110156105ab57838181518110151561046957fe5b602090810290910181015160ff88166000908152600285019092526040909120865187908490811061049757fe5b906020019060200201516040518082805190602001908083835b602083106104d05780518252601f1990920191602091820191016104b1565b51815160209384036101000a60001901801990921691161790529201948552506040805194859003820190942094909455505060ff88166000908152600285019092529020855173__stringSet_____________________________9163ea486c539160019091019088908590811061054557fe5b906020019060200201516040518363ffffffff1660e060020a02815260040161056f929190611fb2565b60006040518083038186803b15801561058757600080fd5b505af415801561059b573d6000803e3d6000fd5b5050600190920191506104529050565b505050505050565b600d6020526000908152604090205460ff1681565b6000806000806105d7336108a1565b60008181526001602052604090208751919550935015156106ab575b84518210156106a65760ff871660009081526002840160205260409020855173__addressSet____________________________9163b65fd2949160039091019088908690811061064057fe5b906020019060200201516040518363ffffffff1660e060020a02815260040161066a929190611f97565b60006040518083038186803b15801561068257600080fd5b505af4158015610696573d6000803e3d6000fd5b5050600190930192506105f39050565b6107c1565b84518110156107c15760ff871660009081526002840160209081526040918290209151885189928291908401908083835b602083106106fb5780518252601f1990920191602091820191016106dc565b6001836020036101000a038019825116818451168082178552505050505050905001915050908152602001604051809103902060010173__addressSet____________________________63b65fd2949091878481518110151561075b57fe5b906020019060200201516040518363ffffffff1660e060020a028152600401610785929190611f97565b60006040518083038186803b15801561079d57600080fd5b505af41580156107b1573d6000803e3d6000fd5b5050600190920191506106ab9050565b50505050505050565b60008060006107d8336108a1565b600081815260016020526040902090935091505b8351811015610889578160030173__addressSet____________________________63e843cfc19091868481518110151561082357fe5b906020019060200201516040518363ffffffff1660e060020a02815260040161084d929190611f97565b60006040518083038186803b15801561086557600080fd5b505af4158015610879573d6000803e3d6000fd5b5050600190920191506107ec9050565b50505050565b60026020526000908152604090205481565b600160a060020a0381166000908152600260205260408120548015156108dc5760405160e560020a62461bcd0281526004016103e290611f67565b92915050565b600454600160a060020a031681565b600080600080610900336108a1565b60008181526001602052604090208751919550935015156109cf575b84518210156106a65760ff871660009081526002840160205260409020855173__addressSet____________________________9163e843cfc19160039091019088908690811061096957fe5b906020019060200201516040518363ffffffff1660e060020a028152600401610993929190611f97565b60006040518083038186803b1580156109ab57600080fd5b505af41580156109bf573d6000803e3d6000fd5b50506001909301925061091c9050565b84518110156107c15760ff871660009081526002840160209081526040918290209151885189928291908401908083835b60208310610a1f5780518252601f199092019160209182019101610a00565b6001836020036101000a038019825116818451168082178552505050505050905001915050908152602001604051809103902060010173__addressSet____________________________63e843cfc190918784815181101515610a7f57fe5b906020019060200201516040518363ffffffff1660e060020a028152600401610aa9929190611f97565b60006040518083038186803b158015610ac157600080fd5b505af4158015610ad5573d6000803e3d6000fd5b5050600190920191506109cf9050565b600a8160038110610af257fe5b018054604080516020601f600260001961010060018816150201909516949094049384018190048102820181019092528281529350830182828015610b785780601f10610b4d57610100808354040283529160200191610b78565b820191906000526020600020905b815481529060010190602001808311610b5b57829003601f168201915b505050505081565b600081815260016020526040812054600160a060020a03168015156108dc5760405160e560020a62461bcd0281526004016103e290611f77565b6000806000610bc8336108a1565b600081815260016020526040902090935091505b8351811015610889578160030173__addressSet____________________________63b65fd29490918684815181101515610c1357fe5b906020019060200201516040518363ffffffff1660e060020a028152600401610c3d929190611f97565b60006040518083038186803b158015610c5557600080fd5b505af4158015610c69573d6000803e3d6000fd5b505060019092019150610bdc9050565b6000806003836040518082805190602001908083835b60208310610cae5780518252601f199092019160209182019101610c8f565b51815160209384036101000a6000190180199092169116179052920194855250604051938490030190922054925050508015156108dc5760405160e560020a62461bcd0281526004016103e290611f67565b336000908152600260205260408120548190606090829081908190819015610d3d5760405160e560020a62461bcd0281526004016103e290611f57565b600480546040517f69c212f6000000000000000000000000000000000000000000000000000000008152600160a060020a03909116975087916369c212f691610d8891339101611eef565b600060405180830381600087803b158015610da257600080fd5b505af1158015610db6573d6000803e3d6000fd5b505050506040513d6000823e601f3d908101601f19168201604052610dde9190810190611b05565b94506003856040518082805190602001908083835b60208310610e125780518252601f199092019160209182019101610df3565b51815160209384036101000a6000190180199092169116179052920194855250604051938490030190922054159150610e49905057fe5b600580546001808201909255600081815260208381526040909120805473ffffffffffffffffffffffffffffffffffffffff19163317815588519297509550610e98928601919088019061166c565b505b60048260ff1610156110095760008960ff841660048110610eb757fe5b602002015114610ffe578860ff831660048110610ed057fe5b602090810291909101516000808052600286019092526040909120600660ff851660048110610efb57fe5b016040518082805460018160011615610100020316600290048015610f575780601f10610f35576101008083540402835291820191610f57565b820191906000526020600020905b815481529060010190602001808311610f43575b505092835250506040805160209281900383019020929092556000808052600286019091522073__stringSet_____________________________9063ea486c5390600101600660ff861660048110610fac57fe5b016040518363ffffffff1660e060020a028152600401610fcd929190611fd2565b60006040518083038186803b158015610fe557600080fd5b505af4158015610ff9573d6000803e3d6000fd5b505050505b600190910190610e9a565b60038160ff1610156111795760008860ff83166003811061102657fe5b602002015114611171578760ff82166003811061103f57fe5b6020908102919091015160016000908152600286019092526040909120600a60ff84166003811061106c57fe5b0160405180828054600181600116156101000203166002900480156110c85780601f106110a65761010080835404028352918201916110c8565b820191906000526020600020905b8154815290600101906020018083116110b4575b50509283525050604080516020928190038301902092909255600160008181526002870190925291902073__stringSet_____________________________9163ea486c539101600a60ff85166003811061111f57fe5b016040518363ffffffff1660e060020a028152600401611140929190611fd2565b60006040518083038186803b15801561115857600080fd5b505af415801561116c573d6000803e3d6000fd5b505050505b600101611009565b836002600033600160a060020a0316600160a060020a0316815260200190815260200160002081905550836003866040518082805190602001908083835b602083106111d65780518252601f1990920191602091820191016111b7565b51815160209384036101000a600019018019909216911617905292019485525060405193849003019092209290925550939998505050505050505050565b600054600160a060020a0316331461122b57600080fd5b6004805473ffffffffffffffffffffffffffffffffffffffff1916600160a060020a0392909216919091179055565b600054600160a060020a031681565b600054600160a060020a0316331461128057600080fd5b604051600160a060020a03821690303180156108fc02916000818181858888f193505050501580156112b6573d6000803e3d6000fd5b5050565b60ff8084166000908152600d60205260408120549091829182911615156112f65760405160e560020a62461bcd0281526004016103e290611f47565b600160ff87161161131c5760405160e560020a62461bcd0281526004016103e290611f87565b83518551146113405760405160e560020a62461bcd0281526004016103e290611f37565b611349336108a1565b600081815260016020526040902090935091505b84518110156105ab5760ff861660009081526002830160205260409020855186908390811061138857fe5b906020019060200201516040518082805190602001908083835b602083106113c15780518252601f1990920191602091820191016113a2565b51815160209384036101000a60001901801990921691161790529201948552506040805194859003820190942060009081905560ff8b1681526002870190915292909220875173__stringSet_____________________________9350639b71f010925060019091019088908590811061143757fe5b906020019060200201516040518363ffffffff1660e060020a028152600401611461929190611fb2565b60006040518083038186803b15801561147957600080fd5b505af415801561148d573d6000803e3d6000fd5b50506001909201915061135d9050565b60008054600160a060020a031633146114b557600080fd5b506040517f70a082310000000000000000000000000000000000000000000000000000000081528290600160a060020a0382169063a9059cbb90849083906370a0823190611507903090600401611eef565b602060405180830381600087803b15801561152157600080fd5b505af1158015611535573d6000803e3d6000fd5b505050506040513d601f19601f820116820180604052506115599190810190611b58565b6040518363ffffffff1660e060020a028152600401611579929190611efd565b602060405180830381600087803b15801561159357600080fd5b505af11580156115a7573d6000803e3d6000fd5b505050506040513d601f19601f820116820180604052506108899190810190611ab2565b600054600160a060020a031633146115e257600080fd5b600160a060020a03811615156115f757600080fd5b60008054604051600160a060020a03808516939216917f8be0079c531659141344cd1fd0a4f28419497f9722a3daafe3b4186f6b6457e091a36000805473ffffffffffffffffffffffffffffffffffffffff1916600160a060020a0392909216919091179055565b60068160048110610af257fe5b828054600181600116156101000203166002900490600052602060002090601f016020900481019282601f106116ad57805160ff19168380011785556116da565b828001600101855582156116da579182015b828111156116da5782518255916020019190600101906116bf565b506116e69291506116ea565b5090565b61170491905b808211156116e657600081556001016116f0565b90565b6000611713823561209e565b9392505050565b6000601f8201831361172b57600080fd5b813561173e61173982612027565b612000565b9150818183526020840193506020810190508385602084028201111561176357600080fd5b60005b8381101561178f57816117798882611707565b8452506020928301929190910190600101611766565b5050505092915050565b6000601f820183136117aa57600080fd5b60036117b861173982612048565b915081838560208402820111156117ce57600080fd5b60005b8381101561178f57816117e48882611934565b84525060209283019291909101906001016117d1565b6000601f8201831361180b57600080fd5b600461181961173982612048565b9150818385602084028201111561182f57600080fd5b60005b8381101561178f57816118458882611934565b8452506020928301929190910190600101611832565b6000601f8201831361186c57600080fd5b813561187a61173982612027565b9150818183526020840193506020810190508385602084028201111561189f57600080fd5b60005b8381101561178f57816118b58882611934565b84525060209283019291909101906001016118a2565b6000601f820183136118dc57600080fd5b81356118ea61173982612027565b81815260209384019390925082018360005b8381101561178f57813586016119128882611940565b84525060209283019291909101906001016118fc565b600061171382516120aa565b60006117138235611704565b6000601f8201831361195157600080fd5b813561195f61173982612066565b9150808252602083016020830185838301111561197b57600080fd5b6119868382846120b5565b50505092915050565b6000601f820183136119a057600080fd5b81516119ae61173982612066565b915080825260208301602083018583830111156119ca57600080fd5b6119868382846120c1565b60006117138251611704565b600061171382356120af565b6000602082840312156119ff57600080fd5b6000611a0b8484611707565b949350505050565b60008060408385031215611a2657600080fd5b6000611a328585611707565b9250506020611a4385828601611707565b9150509250929050565b600060208284031215611a5f57600080fd5b813567ffffffffffffffff811115611a7657600080fd5b611a0b8482850161171a565b60008060e08385031215611a9557600080fd5b6000611aa185856117fa565b9250506080611a4385828601611799565b600060208284031215611ac457600080fd5b6000611a0b8484611928565b600060208284031215611ae257600080fd5b813567ffffffffffffffff811115611af957600080fd5b611a0b84828501611940565b600060208284031215611b1757600080fd5b815167ffffffffffffffff811115611b2e57600080fd5b611a0b8482850161198f565b600060208284031215611b4c57600080fd5b6000611a0b8484611934565b600060208284031215611b6a57600080fd5b6000611a0b84846119d5565b600060208284031215611b8857600080fd5b6000611a0b84846119e1565b600080600060608486031215611ba957600080fd5b6000611bb586866119e1565b935050602084013567ffffffffffffffff811115611bd257600080fd5b611bde868287016118cb565b925050604084013567ffffffffffffffff811115611bfb57600080fd5b611c078682870161185b565b9150509250925092565b600080600060608486031215611c2657600080fd5b6000611c3286866119e1565b935050602084013567ffffffffffffffff811115611c4f57600080fd5b611c5b86828701611940565b925050604084013567ffffffffffffffff811115611c7857600080fd5b611c078682870161171a565b611c8d8161209e565b82525050565b611c8d816120aa565b6000611ca78261209a565b808452611cbb8160208601602086016120c1565b611cc4816120ed565b9093016020019392505050565b600081546001811660008114611cee5760018114611d0c57611d48565b60028204607f16855260ff1982166020860152604085019250611d48565b60028204808652602086019550611d228561208e565b60005b82811015611d4157815488820152600190910190602001611d25565b8701945050505b505092915050565b601181527f4d616c666f726d656420696e707574732e000000000000000000000000000000602082015260400190565b600e81527f496e76616c6964206669656c642e000000000000000000000000000000000000602082015260400190565b603481527f54686973206164647265737320697320616c7265616479206173736f6369617460208201527f6564207769746820616e206964656e746974792e000000000000000000000000604082015260600190565b602681527f54686973206164647265737320646f6573206e6f7420706f737365737320612060208201527f746f6b656e2e0000000000000000000000000000000000000000000000000000604082015260600190565b602381527f5468697320746f6b656e20686173206e6f7420796574206265656e206d696e7460208201527f65642e0000000000000000000000000000000000000000000000000000000000604082015260600190565b601e81527f54686973206669656c642063616e6e6f74206265206d6f6469666965642e0000602082015260400190565b9052565b611c8d81611704565b602081016108dc8284611c84565b60408101611f0b8285611c84565b6117136020830184611ee6565b602081016108dc8284611c93565b602080825281016117138184611c9c565b602080825281016108dc81611d50565b602080825281016108dc81611d80565b602080825281016108dc81611db0565b602080825281016108dc81611e06565b602080825281016108dc81611e5c565b602080825281016108dc81611eb2565b60408101611fa58285611ee2565b6117136020830184611c84565b60408101611fc08285611ee2565b8181036020830152611a0b8184611c9c565b60408101611fe08285611ee2565b8181036020830152611a0b8184611cd1565b602081016108dc8284611ee6565b60405181810167ffffffffffffffff8111828210171561201f57600080fd5b604052919050565b600067ffffffffffffffff82111561203e57600080fd5b5060209081020190565b600067ffffffffffffffff82111561205f57600080fd5b5060200290565b600067ffffffffffffffff82111561207d57600080fd5b506020601f91909101601f19160190565b60009081526020902090565b5190565b600160a060020a031690565b151590565b60ff1690565b82818337506000910152565b60005b838110156120dc5781810151838201526020016120c4565b838111156108895750506000910152565b601f01601f1916905600a265627a7a72305820124827d4a1b4a4c2544085293bd60e38047553b54dfaa7241a4bfe494e8313096c6578706572696d656e74616cf50037",
  "source": "pragma solidity ^0.4.24;\npragma experimental ABIEncoderV2;\n\nimport \"./Withdrawable.sol\";\n\nimport \"./libraries/stringSet.sol\";\nimport \"./libraries/bytes32Set.sol\";\nimport \"./libraries/addressSet.sol\";\n\n\ninterface ClientRaindrop {\n    function getUserByAddress(address _address) external view returns (string userName);\n}\n\n\ncontract Snowflake is Withdrawable {\n    using stringSet for stringSet._stringSet;\n    using bytes32Set for bytes32Set._bytes32Set;\n    using addressSet for addressSet._addressSet;\n\n    // Token lookup mappings\n    mapping (uint256 => Identity) internal tokenIdentities;\n    mapping (address => uint256) public ownerToToken;\n    mapping (string => uint256) internal hydroIdToToken;\n    // contract variables\n    address public clientRaindropAddress;\n    uint internal nextTokenId = 1;\n\n    string[4] public nameOrder = [\"givenName\", \"middleName\", \"surname\", \"preferredName\"];\n    string[3] public dateOrder = [\"day\", \"month\", \"year\"];\n\n    struct Entry {\n        bytes32 saltedHash; // required, encrypted plaintext data. specifically: keccak256(abi.encodePacked(data, salt))\n        addressSet._addressSet resolversFor; // optional, set of addresses that contain additional data about this field\n    }\n\n    struct SnowflakeField {\n        mapping (string => Entry) entries; // required, entries with encrypted data attested to by users and other info\n        stringSet._stringSet entriesAttestedTo; // required, entries that the user has made\n        addressSet._addressSet resolversFor; // optional, set of addresses that contain additional data about this field\n    }\n\n    struct Identity {\n        address owner;\n        string hydroId;\n        mapping (uint8 => SnowflakeField) fields; // mapping of AllowedSnowflakeFields to SnowflakeFields\n        addressSet._addressSet thirdPartyResolvers; // optional, set of third-party resolvers\n    }\n\n    enum AllowedSnowflakeFields { Name, DateOfBirth, Emails, PhoneNumbers, PhysicalAddresses, MAXIMUM }\n    mapping (uint8 => bool) public allowedFields;\n\n    function Snowflake () public {\n        // initialize allowed snowflake fields\n        for (uint8 i; i < uint8(AllowedSnowflakeFields.MAXIMUM); i++) {\n            allowedFields[i] = true;\n        }\n    }\n\n    function ownerOf(uint256 _tokenId) public view returns (address) {\n        address owner = tokenIdentities[_tokenId].owner;\n        require(owner != address(0), \"This token has not yet been minted.\");\n        return owner;\n    }\n\n    function tokenOfAddress(address _address) public view returns (uint256) {\n        uint256 tokenId = ownerToToken[_address];\n        require(tokenId != 0, \"This address does not possess a token.\");\n        return tokenId;\n    }\n\n    function tokenOfHydroID(string hydroId) public view returns (uint256) {\n        uint256 tokenId = hydroIdToToken[hydroId];\n        require(tokenId != 0, \"This address does not possess a token.\");\n        return tokenId;\n    }\n\n    function setClientRaindropAddress(address _address) public onlyOwner {\n        clientRaindropAddress = _address;\n    }\n\n    function mintIdentityToken(bytes32[4] names, bytes32[3] dateOfBirth) public returns(uint tokenId) {\n        require(ownerToToken[msg.sender] == 0, \"This address is already associated with an identity.\");\n\n        ClientRaindrop clientRaindrop = ClientRaindrop(clientRaindropAddress);\n        string memory _hydroId = clientRaindrop.getUserByAddress(msg.sender);\n\n        assert(hydroIdToToken[_hydroId] == 0);\n\n        uint newTokenId = nextTokenId++;\n        Identity storage identity = tokenIdentities[newTokenId];\n\n        identity.owner = msg.sender;\n        identity.hydroId = _hydroId;\n\n        for (uint8 i; i < names.length; i++) {\n            if (names[i] != bytes32(0x0)) {\n                identity.fields[uint8(AllowedSnowflakeFields.Name)].entries[nameOrder[i]].saltedHash = names[i];\n                identity.fields[uint8(AllowedSnowflakeFields.Name)].entriesAttestedTo.insert(nameOrder[i]);\n            }\n        }\n\n        for (uint8 j; j < dateOfBirth.length; j++) {\n            if (dateOfBirth[j] != bytes32(0x0)) {\n                identity.fields[uint8(AllowedSnowflakeFields.DateOfBirth)].entries[dateOrder[j]].saltedHash =\n                    dateOfBirth[j];\n                identity.fields[uint8(AllowedSnowflakeFields.DateOfBirth)].entriesAttestedTo.insert(dateOrder[j]);\n            }\n        }\n\n        ownerToToken[msg.sender] = newTokenId;\n        hydroIdToToken[_hydroId] = newTokenId;\n\n        return newTokenId;\n    }\n\n    function addResolver(uint8 field, string entry, address[] resolvers) public {\n        uint tokenId = tokenOfAddress(msg.sender);\n        Identity storage identity = tokenIdentities[tokenId];\n        // setting resolvers for an entire field vs. for an entry within a field\n        if (bytes(entry).length == 0) {\n            for (uint i; i < resolvers.length; i++) {\n                identity.fields[field].resolversFor.insert(resolvers[i]);\n            }\n        } else {\n            for (uint j; j < resolvers.length; j++) {\n                identity.fields[field].entries[entry].resolversFor.insert(resolvers[j]);\n            }\n        }\n    }\n\n    function removeResolver(uint8 field, string entry, address[] resolvers) public {\n        uint tokenId = tokenOfAddress(msg.sender);\n        Identity storage identity = tokenIdentities[tokenId];\n        // setting resolvers for an entire field vs. for an entry within a field\n        if (bytes(entry).length == 0) {\n            for (uint i; i < resolvers.length; i++) {\n                identity.fields[field].resolversFor.remove(resolvers[i]);\n            }\n        } else {\n            for (uint j; j < resolvers.length; j++) {\n                identity.fields[field].entries[entry].resolversFor.remove(resolvers[j]);\n            }\n        }\n    }\n\n    function addThirdPartyResolvers(address[] resolvers) public {\n        uint tokenId = tokenOfAddress(msg.sender);\n        Identity storage identity = tokenIdentities[tokenId];\n        // setting resolvers for an entire field vs. for an entry within a field\n        for (uint i; i < resolvers.length; i++) {\n            identity.thirdPartyResolvers.insert(resolvers[i]);\n        }\n    }\n\n    function removeThirdPartyResolvers(address[] resolvers) public {\n        uint tokenId = tokenOfAddress(msg.sender);\n        Identity storage identity = tokenIdentities[tokenId];\n        // setting resolvers for an entire field vs. for an entry within a field\n        for (uint i; i < resolvers.length; i++) {\n            identity.thirdPartyResolvers.remove(resolvers[i]);\n        }\n    }\n\n    function modifyFieldEntries(uint8 field, string[] entries, bytes32[] saltedHashes) public {\n        require(allowedFields[field], \"Invalid field.\");\n        require(field > uint8(AllowedSnowflakeFields.DateOfBirth), \"This field cannot be modified.\");\n        require(entries.length == saltedHashes.length, \"Malformed inputs.\");\n\n        uint tokenId = tokenOfAddress(msg.sender);\n        Identity storage identity = tokenIdentities[tokenId];\n\n        for (uint i; i < entries.length; i++) {\n            identity.fields[field].entries[entries[i]].saltedHash = saltedHashes[i];\n            identity.fields[field].entriesAttestedTo.insert(entries[i]);\n        }\n    }\n\n    function removeFieldEntries(uint8 field, string[] entries, bytes32[] saltedHashes) public {\n        require(allowedFields[field], \"Invalid field.\");\n        require(field > uint8(AllowedSnowflakeFields.DateOfBirth), \"This field cannot be modified.\");\n        require(entries.length == saltedHashes.length, \"Malformed inputs.\");\n\n        uint tokenId = tokenOfAddress(msg.sender);\n        Identity storage identity = tokenIdentities[tokenId];\n\n        for (uint i; i < entries.length; i++) {\n            delete identity.fields[field].entries[entries[i]].saltedHash;\n            identity.fields[field].entriesAttestedTo.remove(entries[i]);\n        }\n    }\n}\n",
  "sourcePath": "/Users/noahzinsmeister/Documents/github/smart-contracts/snowflake-poc/contracts/Snowflake.sol",
  "compiler": {
    "name": "solc",
    "version": "0.4.24+commit.e67f0147.Emscripten.clang"
  },
  "schemaVersion": "2.0.0",
  "updatedAt": "2018-06-01T21:25:43.081Z"
}