{
  "contractName": "SnowflakeRegistry",
  "abi": [
    {
      "constant": true,
      "inputs": [],
      "name": "escrowAddress",
      "outputs": [
        {
          "name": "",
          "type": "address"
        }
      ],
      "payable": false,
      "stateMutability": "view",
      "type": "function"
    },
    {
      "constant": true,
      "inputs": [],
      "name": "raindropClientAddress",
      "outputs": [
        {
          "name": "",
          "type": "address"
        }
      ],
      "payable": false,
      "stateMutability": "view",
      "type": "function"
    },
    {
      "constant": true,
      "inputs": [],
      "name": "hydroTokenAddress",
      "outputs": [
        {
          "name": "",
          "type": "address"
        }
      ],
      "payable": false,
      "stateMutability": "view",
      "type": "function"
    },
    {
      "constant": true,
      "inputs": [],
      "name": "owner",
      "outputs": [
        {
          "name": "",
          "type": "address"
        }
      ],
      "payable": false,
      "stateMutability": "view",
      "type": "function"
    },
    {
      "constant": false,
      "inputs": [
        {
          "name": "to",
          "type": "address"
        }
      ],
      "name": "withdrawEther",
      "outputs": [],
      "payable": false,
      "stateMutability": "nonpayable",
      "type": "function"
    },
    {
      "constant": false,
      "inputs": [
        {
          "name": "tokenAddress",
          "type": "address"
        },
        {
          "name": "to",
          "type": "address"
        }
      ],
      "name": "withdrawERC20Token",
      "outputs": [],
      "payable": false,
      "stateMutability": "nonpayable",
      "type": "function"
    },
    {
      "constant": false,
      "inputs": [
        {
          "name": "newOwner",
          "type": "address"
        }
      ],
      "name": "transferOwnership",
      "outputs": [],
      "payable": false,
      "stateMutability": "nonpayable",
      "type": "function"
    },
    {
      "anonymous": false,
      "inputs": [
        {
          "indexed": false,
          "name": "applicationName",
          "type": "string"
        }
      ],
      "name": "ApplicationSignUp",
      "type": "event"
    },
    {
      "anonymous": false,
      "inputs": [
        {
          "indexed": false,
          "name": "applicationName",
          "type": "string"
        },
        {
          "indexed": false,
          "name": "userName",
          "type": "string"
        },
        {
          "indexed": false,
          "name": "dataFields",
          "type": "bytes32[]"
        }
      ],
      "name": "DataRequested",
      "type": "event"
    },
    {
      "anonymous": false,
      "inputs": [
        {
          "indexed": true,
          "name": "previousOwner",
          "type": "address"
        },
        {
          "indexed": true,
          "name": "newOwner",
          "type": "address"
        }
      ],
      "name": "OwnershipTransferred",
      "type": "event"
    },
    {
      "constant": false,
      "inputs": [
        {
          "name": "applicationName",
          "type": "string"
        },
        {
          "name": "ownerAddress",
          "type": "address"
        },
        {
          "name": "relayerAddress",
          "type": "address"
        },
        {
          "name": "verifierAddress",
          "type": "address"
        },
        {
          "name": "key",
          "type": "string"
        },
        {
          "name": "keyType",
          "type": "string"
        }
      ],
      "name": "signUpApplication",
      "outputs": [],
      "payable": false,
      "stateMutability": "nonpayable",
      "type": "function"
    },
    {
      "constant": false,
      "inputs": [
        {
          "name": "applicationNameHash",
          "type": "bytes32"
        },
        {
          "name": "ownerAddress",
          "type": "address"
        },
        {
          "name": "relayerAddress",
          "type": "address"
        },
        {
          "name": "verifierAddress",
          "type": "address"
        }
      ],
      "name": "modifyApplicationAddresses",
      "outputs": [],
      "payable": false,
      "stateMutability": "nonpayable",
      "type": "function"
    },
    {
      "constant": true,
      "inputs": [
        {
          "name": "applicationName",
          "type": "string"
        }
      ],
      "name": "getApplication",
      "outputs": [
        {
          "name": "ownerAddress",
          "type": "address"
        },
        {
          "name": "relayerAddress",
          "type": "address"
        },
        {
          "name": "verifierAddress",
          "type": "address"
        },
        {
          "name": "key",
          "type": "string"
        },
        {
          "name": "keyType",
          "type": "string"
        }
      ],
      "payable": false,
      "stateMutability": "view",
      "type": "function"
    },
    {
      "constant": false,
      "inputs": [
        {
          "name": "applicationNameHash",
          "type": "bytes32"
        }
      ],
      "name": "deleteApplication",
      "outputs": [],
      "payable": false,
      "stateMutability": "nonpayable",
      "type": "function"
    },
    {
      "constant": false,
      "inputs": [
        {
          "name": "keyType",
          "type": "string"
        }
      ],
      "name": "addKeyType",
      "outputs": [],
      "payable": false,
      "stateMutability": "nonpayable",
      "type": "function"
    },
    {
      "constant": false,
      "inputs": [
        {
          "name": "dataFieldName",
          "type": "string"
        }
      ],
      "name": "addDataField",
      "outputs": [],
      "payable": false,
      "stateMutability": "nonpayable",
      "type": "function"
    },
    {
      "constant": false,
      "inputs": [
        {
          "name": "_escrowAddress",
          "type": "address"
        },
        {
          "name": "_hydroTokenAddress",
          "type": "address"
        },
        {
          "name": "_raindropClientAddress",
          "type": "address"
        }
      ],
      "name": "modifyContractAddresses",
      "outputs": [],
      "payable": false,
      "stateMutability": "nonpayable",
      "type": "function"
    },
    {
      "constant": false,
      "inputs": [
        {
          "name": "userAddress",
          "type": "address"
        },
        {
          "name": "userName",
          "type": "string"
        },
        {
          "name": "dataFields",
          "type": "bytes32[]"
        },
        {
          "name": "saltedHashes",
          "type": "bytes32[]"
        }
      ],
      "name": "addDataDelegated",
      "outputs": [],
      "payable": false,
      "stateMutability": "nonpayable",
      "type": "function"
    },
    {
      "constant": false,
      "inputs": [
        {
          "name": "userName",
          "type": "string"
        },
        {
          "name": "dataFields",
          "type": "bytes32[]"
        },
        {
          "name": "saltedHashes",
          "type": "bytes32[]"
        }
      ],
      "name": "addData",
      "outputs": [],
      "payable": false,
      "stateMutability": "nonpayable",
      "type": "function"
    },
    {
      "constant": true,
      "inputs": [
        {
          "name": "userName",
          "type": "string"
        },
        {
          "name": "dataField",
          "type": "string"
        }
      ],
      "name": "getSaltedHashes",
      "outputs": [
        {
          "name": "",
          "type": "bytes32[]"
        }
      ],
      "payable": false,
      "stateMutability": "view",
      "type": "function"
    },
    {
      "constant": false,
      "inputs": [
        {
          "name": "userAddress",
          "type": "address"
        },
        {
          "name": "userName",
          "type": "string"
        },
        {
          "name": "dataFields",
          "type": "bytes32[]"
        },
        {
          "name": "saltedHashes",
          "type": "bytes32[]"
        }
      ],
      "name": "removeDataDelegated",
      "outputs": [],
      "payable": false,
      "stateMutability": "nonpayable",
      "type": "function"
    },
    {
      "constant": false,
      "inputs": [
        {
          "name": "userName",
          "type": "string"
        },
        {
          "name": "dataFields",
          "type": "bytes32[]"
        },
        {
          "name": "saltedHashes",
          "type": "bytes32[]"
        }
      ],
      "name": "removeData",
      "outputs": [],
      "payable": false,
      "stateMutability": "nonpayable",
      "type": "function"
    },
    {
      "constant": false,
      "inputs": [
        {
          "name": "_from",
          "type": "address"
        },
        {
          "name": "_value",
          "type": "uint256"
        },
        {
          "name": "_token",
          "type": "address"
        },
        {
          "name": "_extraData",
          "type": "bytes"
        }
      ],
      "name": "receiveApproval",
      "outputs": [],
      "payable": false,
      "stateMutability": "nonpayable",
      "type": "function"
    },
    {
      "constant": false,
      "inputs": [
        {
          "name": "escrowId",
          "type": "uint256"
        }
      ],
      "name": "closeEscrow",
      "outputs": [],
      "payable": false,
      "stateMutability": "nonpayable",
      "type": "function"
    },
    {
      "constant": false,
      "inputs": [
        {
          "name": "escrowId",
          "type": "uint256"
        }
      ],
      "name": "cancelEscrow",
      "outputs": [],
      "payable": false,
      "stateMutability": "nonpayable",
      "type": "function"
    }
  ],
  "bytecode": "0x6080604052336000806101000a81548173ffffffffffffffffffffffffffffffffffffffff021916908373ffffffffffffffffffffffffffffffffffffffff160217905550614002806100536000396000f300608060405260043610610128576000357c0100000000000000000000000000000000000000000000000000000000900463ffffffff1680630d5defa41461012d57806346cb12bd1461018457806375d7e4bd146101db57806378240a3e146102325780638da5cb5b146103365780638f4ffcb11461038d578063ab40c9bd14610440578063af933b571461054f578063b637ae5914610592578063ba9a10a0146106e7578063c2522b9014610750578063d3fc41401461083f578063de6ca190146108d0578063dee7341114610901578063e018243614610984578063e24cf226146109b1578063e6f5291b146109de578063e946be3f14610bc5578063ecfbe70c14610c2e578063f2fde38b14610c91578063fe5f398214610cd4578063ff1f3f0c14610de3575b600080fd5b34801561013957600080fd5b50610142610ed2565b604051808273ffffffffffffffffffffffffffffffffffffffff1673ffffffffffffffffffffffffffffffffffffffff16815260200191505060405180910390f35b34801561019057600080fd5b50610199610ef8565b604051808273ffffffffffffffffffffffffffffffffffffffff1673ffffffffffffffffffffffffffffffffffffffff16815260200191505060405180910390f35b3480156101e757600080fd5b506101f0610f1e565b604051808273ffffffffffffffffffffffffffffffffffffffff1673ffffffffffffffffffffffffffffffffffffffff16815260200191505060405180910390f35b34801561023e57600080fd5b506102df600480360381019080803590602001908201803590602001908080601f0160208091040260200160405190810160405280939291908181526020018383808284378201915050505050509192919290803590602001908201803590602001908080601f0160208091040260200160405190810160405280939291908181526020018383808284378201915050505050509192919290505050610f44565b6040518080602001828103825283818151815260200191508051906020019060200280838360005b83811015610322578082015181840152602081019050610307565b505050509050019250505060405180910390f35b34801561034257600080fd5b5061034b61109c565b604051808273ffffffffffffffffffffffffffffffffffffffff1673ffffffffffffffffffffffffffffffffffffffff16815260200191505060405180910390f35b34801561039957600080fd5b5061043e600480360381019080803573ffffffffffffffffffffffffffffffffffffffff16906020019092919080359060200190929190803573ffffffffffffffffffffffffffffffffffffffff169060200190929190803590602001908201803590602001908080601f01602080910402602001604051908101604052809392919081815260200183838082843782019150505050505091929192905050506110c1565b005b34801561044c57600080fd5b5061054d600480360381019080803573ffffffffffffffffffffffffffffffffffffffff169060200190929190803590602001908201803590602001908080601f016020809104026020016040519081016040528093929190818152602001838380828437820191505050505050919291929080359060200190820180359060200190808060200260200160405190810160405280939291908181526020018383602002808284378201915050505050509192919290803590602001908201803590602001908080602002602001604051908101604052809392919081815260200183836020028082843782019150505050505091929192905050506111dc565b005b34801561055b57600080fd5b50610590600480360381019080803573ffffffffffffffffffffffffffffffffffffffff169060200190929190505050611249565b005b34801561059e57600080fd5b506106e5600480360381019080803590602001908201803590602001908080601f0160208091040260200160405190810160405280939291908181526020018383808284378201915050505050509192919290803573ffffffffffffffffffffffffffffffffffffffff169060200190929190803573ffffffffffffffffffffffffffffffffffffffff169060200190929190803573ffffffffffffffffffffffffffffffffffffffff169060200190929190803590602001908201803590602001908080601f0160208091040260200160405190810160405280939291908181526020018383808284378201915050505050509192919290803590602001908201803590602001908080601f0160208091040260200160405190810160405280939291908181526020018383808284378201915050505050509192919290505050611305565b005b3480156106f357600080fd5b5061074e600480360381019080803590602001908201803590602001908080601f0160208091040260200160405190810160405280939291908181526020018383808284378201915050505050509192919290505050611963565b005b34801561075c57600080fd5b5061083d600480360381019080803590602001908201803590602001908080601f01602080910402602001604051908101604052809392919081815260200183838082843782019150505050505091929192908035906020019082018035906020019080806020026020016040519081016040528093929190818152602001838360200280828437820191505050505050919291929080359060200190820180359060200190808060200260200160405190810160405280939291908181526020018383602002808284378201915050505050509192919290505050611aef565b005b34801561084b57600080fd5b506108ce6004803603810190808035600019169060200190929190803573ffffffffffffffffffffffffffffffffffffffff169060200190929190803573ffffffffffffffffffffffffffffffffffffffff169060200190929190803573ffffffffffffffffffffffffffffffffffffffff169060200190929190505050611b00565b005b3480156108dc57600080fd5b506108ff6004803603810190808035600019169060200190929190505050611d21565b005b34801561090d57600080fd5b50610982600480360381019080803573ffffffffffffffffffffffffffffffffffffffff169060200190929190803573ffffffffffffffffffffffffffffffffffffffff169060200190929190803573ffffffffffffffffffffffffffffffffffffffff169060200190929190505050611f86565b005b34801561099057600080fd5b506109af600480360381019080803590602001909291905050506120a9565b005b3480156109bd57600080fd5b506109dc600480360381019080803590602001909291905050506121b6565b005b3480156109ea57600080fd5b50610a45600480360381019080803590602001908201803590602001908080601f01602080910402602001604051908101604052809392919081815260200183838082843782019150505050505091929192905050506122c3565b604051808673ffffffffffffffffffffffffffffffffffffffff1673ffffffffffffffffffffffffffffffffffffffff1681526020018573ffffffffffffffffffffffffffffffffffffffff1673ffffffffffffffffffffffffffffffffffffffff1681526020018473ffffffffffffffffffffffffffffffffffffffff1673ffffffffffffffffffffffffffffffffffffffff1681526020018060200180602001838103835285818151815260200191508051906020019080838360005b83811015610b1f578082015181840152602081019050610b04565b50505050905090810190601f168015610b4c5780820380516001836020036101000a031916815260200191505b50838103825284818151815260200191508051906020019080838360005b83811015610b85578082015181840152602081019050610b6a565b50505050905090810190601f168015610bb25780820380516001836020036101000a031916815260200191505b5097505050505050505060405180910390f35b348015610bd157600080fd5b50610c2c600480360381019080803590602001908201803590602001908080601f01602080910402602001604051908101604052809392919081815260200183838082843782019150505050505091929192905050506125c4565b005b348015610c3a57600080fd5b50610c8f600480360381019080803573ffffffffffffffffffffffffffffffffffffffff169060200190929190803573ffffffffffffffffffffffffffffffffffffffff169060200190929190505050612750565b005b348015610c9d57600080fd5b50610cd2600480360381019080803573ffffffffffffffffffffffffffffffffffffffff169060200190929190505050612969565b005b348015610ce057600080fd5b50610de1600480360381019080803573ffffffffffffffffffffffffffffffffffffffff169060200190929190803590602001908201803590602001908080601f01602080910402602001604051908101604052809392919081815260200183838082843782019150505050505091929192908035906020019082018035906020019080806020026020016040519081016040528093929190818152602001838360200280828437820191505050505050919291929080359060200190820180359060200190808060200260200160405190810160405280939291908181526020018383602002808284378201915050505050509192919290505050612abe565b005b348015610def57600080fd5b50610ed0600480360381019080803590602001908201803590602001908080601f01602080910402602001604051908101604052809392919081815260200183838082843782019150505050505091929192908035906020019082018035906020019080806020026020016040519081016040528093929190818152602001838360200280828437820191505050505050919291929080359060200190820180359060200190808060200260200160405190810160405280939291908181526020018383602002808284378201915050505050509192919290505050612b2b565b005b600160009054906101000a900473ffffffffffffffffffffffffffffffffffffffff1681565b600360009054906101000a900473ffffffffffffffffffffffffffffffffffffffff1681565b600260009054906101000a900473ffffffffffffffffffffffffffffffffffffffff1681565b6060600a6000846040518082805190602001908083835b602083101515610f805780518252602082019150602081019050602083039250610f5b565b6001836020036101000a0380198251168184511680821785525050505050509050019150506040518091039020600019166000191681526020019081526020016000206000836040518082805190602001908083835b602083101515610ffb5780518252602082019150602081019050602083039250610fd6565b6001836020036101000a03801982511681845116808217855250505050505090500191505060405180910390206000191660001916815260200190815260200160002060000180548060200260200160405190810160405280929190818152602001828054801561108f57602002820191906000526020600020905b81546000191681526020019060010190808311611077575b5050505050905092915050565b6000809054906101000a900473ffffffffffffffffffffffffffffffffffffffff1681565b6000806060600260009054906101000a900473ffffffffffffffffffffffffffffffffffffffff1673ffffffffffffffffffffffffffffffffffffffff168573ffffffffffffffffffffffffffffffffffffffff161415156111b1576040517f08c379a00000000000000000000000000000000000000000000000000000000081526004018080602001828103825260308152602001807f46756e6374696f6e2063616c6c206e6f742067656e6572617465642066726f6d81526020017f2074686520485944524f20746f6b656e0000000000000000000000000000000081525060400191505060405180910390fd5b6111ba84612b3c565b8093508194508295505050506111d38784848985612c91565b50505050505050565b6000809054906101000a900473ffffffffffffffffffffffffffffffffffffffff1673ffffffffffffffffffffffffffffffffffffffff163373ffffffffffffffffffffffffffffffffffffffff1614151561123757600080fd5b6112438484848461332f565b50505050565b6000809054906101000a900473ffffffffffffffffffffffffffffffffffffffff1673ffffffffffffffffffffffffffffffffffffffff163373ffffffffffffffffffffffffffffffffffffffff161415156112a457600080fd5b8073ffffffffffffffffffffffffffffffffffffffff166108fc3073ffffffffffffffffffffffffffffffffffffffff16319081150290604051600060405180830381858888f19350505050158015611301573d6000803e3d6000fd5b5050565b60008060009054906101000a900473ffffffffffffffffffffffffffffffffffffffff1673ffffffffffffffffffffffffffffffffffffffff163373ffffffffffffffffffffffffffffffffffffffff1614151561136257600080fd5b6064875110151561137257600080fd5b866040518082805190602001908083835b6020831015156113a85780518252602082019150602081019050602083039250611383565b6001836020036101000a03801982511681845116808217855250505050505090500191505060405180910390209050600b6000826000191660001916815260200190815260200160002060060160009054906101000a900460ff16151515611478576040517f08c379a000000000000000000000000000000000000000000000000000000000815260040180806020018281038252601b8152602001807f4170706c69636174696f6e20616c7265616479206578697374732e000000000081525060200191505060405180910390fd5b600473__bytes32Set____________________________638a620f519091846040518082805190602001908083835b6020831015156114cc57805182526020820191506020810190506020830392506114a7565b6001836020036101000a03801982511681845116808217855250505050505090500191505060405180910390206040518363ffffffff167c01000000000000000000000000000000000000000000000000000000000281526004018083815260200182600019166000191681526020019250505060206040518083038186803b15801561155857600080fd5b505af415801561156c573d6000803e3d6000fd5b505050506040513d602081101561158257600080fd5b81019080805190602001909291905050501515611607576040517f08c379a00000000000000000000000000000000000000000000000000000000081526004018080602001828103825260208152602001807f506173736564206b657954797065206973206e6f7420737570706f727465642e81525060200191505060405180910390fd5b6080604051908101604052808881526020016060604051908101604052808973ffffffffffffffffffffffffffffffffffffffff1681526020018873ffffffffffffffffffffffffffffffffffffffff1681526020018773ffffffffffffffffffffffffffffffffffffffff1681525081526020016040805190810160405280868152602001856040518082805190602001908083835b6020831015156116c3578051825260208201915060208101905060208303925061169e565b6001836020036101000a038019825116818451168082178552505050505050905001915050604051809103902060001916815250815260200160011515815250600b60008360001916600019168152602001908152602001600020600082015181600001908051906020019061173a929190613e69565b5060208201518160010160008201518160000160006101000a81548173ffffffffffffffffffffffffffffffffffffffff021916908373ffffffffffffffffffffffffffffffffffffffff16021790555060208201518160010160006101000a81548173ffffffffffffffffffffffffffffffffffffffff021916908373ffffffffffffffffffffffffffffffffffffffff16021790555060408201518160020160006101000a81548173ffffffffffffffffffffffffffffffffffffffff021916908373ffffffffffffffffffffffffffffffffffffffff16021790555050506040820151816004016000820151816000019080519060200190611840929190613e69565b5060208201518160010190600019169055505060608201518160060160006101000a81548160ff02191690831515021790555090505080600c60008873ffffffffffffffffffffffffffffffffffffffff1673ffffffffffffffffffffffffffffffffffffffff16815260200190815260200160002081600019169055507fb42789f1b47c4b2fdb1b8a475ca4c4fd7387894dbcd533f99532c61506a2a41e876040518080602001828103825283818151815260200191508051906020019080838360005b83811015611920578082015181840152602081019050611905565b50505050905090810190601f16801561194d5780820380516001836020036101000a031916815260200191505b509250505060405180910390a150505050505050565b60008060009054906101000a900473ffffffffffffffffffffffffffffffffffffffff1673ffffffffffffffffffffffffffffffffffffffff163373ffffffffffffffffffffffffffffffffffffffff161415156119c057600080fd5b816040518082805190602001908083835b6020831015156119f657805182526020820191506020810190506020830392506119d1565b6001836020036101000a03801982511681845116808217855250505050505090500191505060405180910390209050600473__bytes32Set____________________________638ac6ba9a9091836040518363ffffffff167c01000000000000000000000000000000000000000000000000000000000281526004018083815260200182600019166000191681526020019250505060006040518083038186803b158015611aa357600080fd5b505af4158015611ab7573d6000803e3d6000fd5b50505050816006600083600019166000191681526020019081526020016000209080519060200190611aea929190613ee9565b505050565b611afb3384848461332f565b505050565b60008060009054906101000a900473ffffffffffffffffffffffffffffffffffffffff1673ffffffffffffffffffffffffffffffffffffffff163373ffffffffffffffffffffffffffffffffffffffff16141515611b5d57600080fd5b600b6000866000191660001916815260200190815260200160002090508060060160009054906101000a900460ff161515611c00576040517f08c379a000000000000000000000000000000000000000000000000000000000815260040180806020018281038252601b8152602001807f4170706c69636174696f6e20646f6573206e6f742065786973742e000000000081525060200191505060405180910390fd5b838160010160000160006101000a81548173ffffffffffffffffffffffffffffffffffffffff021916908373ffffffffffffffffffffffffffffffffffffffff16021790555084600c60008673ffffffffffffffffffffffffffffffffffffffff1673ffffffffffffffffffffffffffffffffffffffff1681526020019081526020016000208160001916905550828160010160010160006101000a81548173ffffffffffffffffffffffffffffffffffffffff021916908373ffffffffffffffffffffffffffffffffffffffff160217905550818160010160020160006101000a81548173ffffffffffffffffffffffffffffffffffffffff021916908373ffffffffffffffffffffffffffffffffffffffff1602179055505050505050565b60008060009054906101000a900473ffffffffffffffffffffffffffffffffffffffff1673ffffffffffffffffffffffffffffffffffffffff163373ffffffffffffffffffffffffffffffffffffffff16141515611d7e57600080fd5b600b6000836000191660001916815260200190815260200160002060060160009054906101000a900460ff161515611e1e576040517f08c379a000000000000000000000000000000000000000000000000000000000815260040180806020018281038252601b8152602001807f4170706c69636174696f6e20646f6573206e6f742065786973742e000000000081525060200191505060405180910390fd5b600b6000836000191660001916815260200190815260200160002060010160000160009054906101000a900473ffffffffffffffffffffffffffffffffffffffff169050600b6000836000191660001916815260200190815260200160002060008082016000611e8e9190613f69565b60018201600080820160006101000a81549073ffffffffffffffffffffffffffffffffffffffff02191690556001820160006101000a81549073ffffffffffffffffffffffffffffffffffffffff02191690556002820160006101000a81549073ffffffffffffffffffffffffffffffffffffffff021916905550506004820160008082016000611f1f9190613f69565b600182016000905550506006820160006101000a81549060ff02191690555050600c60008273ffffffffffffffffffffffffffffffffffffffff1673ffffffffffffffffffffffffffffffffffffffff168152602001908152602001600020600090555050565b6000809054906101000a900473ffffffffffffffffffffffffffffffffffffffff1673ffffffffffffffffffffffffffffffffffffffff163373ffffffffffffffffffffffffffffffffffffffff16141515611fe157600080fd5b82600160006101000a81548173ffffffffffffffffffffffffffffffffffffffff021916908373ffffffffffffffffffffffffffffffffffffffff16021790555081600260006101000a81548173ffffffffffffffffffffffffffffffffffffffff021916908373ffffffffffffffffffffffffffffffffffffffff16021790555080600360006101000a81548173ffffffffffffffffffffffffffffffffffffffff021916908373ffffffffffffffffffffffffffffffffffffffff160217905550505050565b60008060009054906101000a900473ffffffffffffffffffffffffffffffffffffffff1673ffffffffffffffffffffffffffffffffffffffff163373ffffffffffffffffffffffffffffffffffffffff1614151561210657600080fd5b600160009054906101000a900473ffffffffffffffffffffffffffffffffffffffff1690508073ffffffffffffffffffffffffffffffffffffffff1663e0182436836040518263ffffffff167c010000000000000000000000000000000000000000000000000000000002815260040180828152602001915050600060405180830381600087803b15801561219a57600080fd5b505af11580156121ae573d6000803e3d6000fd5b505050505050565b60008060009054906101000a900473ffffffffffffffffffffffffffffffffffffffff1673ffffffffffffffffffffffffffffffffffffffff163373ffffffffffffffffffffffffffffffffffffffff1614151561221357600080fd5b600160009054906101000a900473ffffffffffffffffffffffffffffffffffffffff1690508073ffffffffffffffffffffffffffffffffffffffff1663e24cf226836040518263ffffffff167c010000000000000000000000000000000000000000000000000000000002815260040180828152602001915050600060405180830381600087803b1580156122a757600080fd5b505af11580156122bb573d6000803e3d6000fd5b505050505050565b6000806000606080600080876040518082805190602001908083835b60208310151561230457805182526020820191506020810190506020830392506122df565b6001836020036101000a03801982511681845116808217855250505050505090500191505060405180910390209150600b6000836000191660001916815260200190815260200160002090508060060160009054906101000a900460ff1615156123d6576040517f08c379a000000000000000000000000000000000000000000000000000000000815260040180806020018281038252601b8152602001807f4170706c69636174696f6e20646f6573206e6f742065786973742e000000000081525060200191505060405180910390fd5b8060010160000160009054906101000a900473ffffffffffffffffffffffffffffffffffffffff168160010160010160009054906101000a900473ffffffffffffffffffffffffffffffffffffffff168260010160020160009054906101000a900473ffffffffffffffffffffffffffffffffffffffff168360040160000160066000866004016001015460001916600019168152602001908152602001600020818054600181600116156101000203166002900480601f01602080910402602001604051908101604052809291908181526020018280546001816001161561010002031660029004801561250c5780601f106124e15761010080835404028352916020019161250c565b820191906000526020600020905b8154815290600101906020018083116124ef57829003601f168201915b50505050509150808054600181600116156101000203166002900480601f0160208091040260200160405190810160405280929190818152602001828054600181600116156101000203166002900480156125a85780601f1061257d576101008083540402835291602001916125a8565b820191906000526020600020905b81548152906001019060200180831161258b57829003601f168201915b5050505050905096509650965096509650505091939590929450565b60008060009054906101000a900473ffffffffffffffffffffffffffffffffffffffff1673ffffffffffffffffffffffffffffffffffffffff163373ffffffffffffffffffffffffffffffffffffffff1614151561262157600080fd5b816040518082805190602001908083835b6020831015156126575780518252602082019150602081019050602083039250612632565b6001836020036101000a03801982511681845116808217855250505050505090500191505060405180910390209050600773__bytes32Set____________________________638ac6ba9a9091836040518363ffffffff167c01000000000000000000000000000000000000000000000000000000000281526004018083815260200182600019166000191681526020019250505060006040518083038186803b15801561270457600080fd5b505af4158015612718573d6000803e3d6000fd5b5050505081600960008360001916600019168152602001908152602001600020908051906020019061274b929190613ee9565b505050565b60008060009054906101000a900473ffffffffffffffffffffffffffffffffffffffff1673ffffffffffffffffffffffffffffffffffffffff163373ffffffffffffffffffffffffffffffffffffffff161415156127ad57600080fd5b8290508073ffffffffffffffffffffffffffffffffffffffff1663a9059cbb838373ffffffffffffffffffffffffffffffffffffffff166370a08231306040518263ffffffff167c0100000000000000000000000000000000000000000000000000000000028152600401808273ffffffffffffffffffffffffffffffffffffffff1673ffffffffffffffffffffffffffffffffffffffff168152602001915050602060405180830381600087803b15801561286857600080fd5b505af115801561287c573d6000803e3d6000fd5b505050506040513d602081101561289257600080fd5b81019080805190602001909291905050506040518363ffffffff167c0100000000000000000000000000000000000000000000000000000000028152600401808373ffffffffffffffffffffffffffffffffffffffff1673ffffffffffffffffffffffffffffffffffffffff16815260200182815260200192505050602060405180830381600087803b15801561292857600080fd5b505af115801561293c573d6000803e3d6000fd5b505050506040513d602081101561295257600080fd5b810190808051906020019092919050505050505050565b6000809054906101000a900473ffffffffffffffffffffffffffffffffffffffff1673ffffffffffffffffffffffffffffffffffffffff163373ffffffffffffffffffffffffffffffffffffffff161415156129c457600080fd5b600073ffffffffffffffffffffffffffffffffffffffff168173ffffffffffffffffffffffffffffffffffffffff1614151515612a0057600080fd5b8073ffffffffffffffffffffffffffffffffffffffff166000809054906101000a900473ffffffffffffffffffffffffffffffffffffffff1673ffffffffffffffffffffffffffffffffffffffff167f8be0079c531659141344cd1fd0a4f28419497f9722a3daafe3b4186f6b6457e060405160405180910390a3806000806101000a81548173ffffffffffffffffffffffffffffffffffffffff021916908373ffffffffffffffffffffffffffffffffffffffff16021790555050565b6000809054906101000a900473ffffffffffffffffffffffffffffffffffffffff1673ffffffffffffffffffffffffffffffffffffffff163373ffffffffffffffffffffffffffffffffffffffff16141515612b1957600080fd5b612b2584848484613857565b50505050565b612b3733848484613857565b505050565b600080606060008060006060600080602060288b5103811515612b5b57fe5b06141515612bd1576040517f08c379a00000000000000000000000000000000000000000000000000000000081526004018080602001828103825260108152602001807f4d616c666f726d65642062797465732e0000000000000000000000000000000081525060200191505060405180910390fd5b612be560008a613d7a90919063ffffffff16565b9450612bfb60148a613d7a90919063ffffffff16565b9350602060288a5103811515612c0d57fe5b049250600090505b82811015612c7c57612c49612c4460208302602801602060018501026028018c613db29092919063ffffffff16565b613e3f565b8682815181101515612c5757fe5b9060200190602002019060001916908160001916815250508080600101915050612c15565b84848397509750975050505050509193909250565b60008060006060600080600c60008b73ffffffffffffffffffffffffffffffffffffffff1673ffffffffffffffffffffffffffffffffffffffff168152602001908152602001600020549550600b6000876000191660001916815260200190815260200160002094508a73ffffffffffffffffffffffffffffffffffffffff168560010160020160009054906101000a900473ffffffffffffffffffffffffffffffffffffffff1673ffffffffffffffffffffffffffffffffffffffff16141515612dea576040517f08c379a00000000000000000000000000000000000000000000000000000000081526004018080602001828103825260388152602001807f54686520746f6b656e2073656e646572206973206e6f7420746865207665726981526020017f66696572206f6620746865206170706c69636174696f6e2e000000000000000081525060400191505060405180910390fd5b600360009054906101000a900473ffffffffffffffffffffffffffffffffffffffff1693508373ffffffffffffffffffffffffffffffffffffffff166369c212f68a6040518263ffffffff167c0100000000000000000000000000000000000000000000000000000000028152600401808273ffffffffffffffffffffffffffffffffffffffff1673ffffffffffffffffffffffffffffffffffffffff168152602001915050600060405180830381600087803b158015612eaa57600080fd5b505af1158015612ebe573d6000803e3d6000fd5b505050506040513d6000823e3d601f19601f820116820180604052506040811015612ee857600080fd5b810190808051640100000000811115612f0057600080fd5b82810190506020810184811115612f1657600080fd5b8151856001820283011164010000000082111715612f3357600080fd5b5050929190602001805190602001909291905050505080935050600160009054906101000a900473ffffffffffffffffffffffffffffffffffffffff1691508173ffffffffffffffffffffffffffffffffffffffff166333feb89e8b8b8860010160010160009054906101000a900473ffffffffffffffffffffffffffffffffffffffff168f8d6040518663ffffffff167c0100000000000000000000000000000000000000000000000000000000028152600401808673ffffffffffffffffffffffffffffffffffffffff1673ffffffffffffffffffffffffffffffffffffffff1681526020018573ffffffffffffffffffffffffffffffffffffffff1673ffffffffffffffffffffffffffffffffffffffff1681526020018473ffffffffffffffffffffffffffffffffffffffff1673ffffffffffffffffffffffffffffffffffffffff1681526020018373ffffffffffffffffffffffffffffffffffffffff1673ffffffffffffffffffffffffffffffffffffffff16815260200182815260200195505050505050602060405180830381600087803b1580156130d857600080fd5b505af11580156130ec573d6000803e3d6000fd5b505050506040513d602081101561310257600080fd5b8101908080519060200190929190505050905080600d6000856040518082805190602001908083835b602083101515613150578051825260208201915060208101905060208303925061312b565b6001836020036101000a03801982511681845116808217855250505050505090500191505060405180910390206000191660001916815260200190815260200160002060008860001916600019168152602001908152602001600020819055507f7dce30951bd00bc17371b517a432bd18f7beff3a4df761f86b8d984871693d31856000018489604051808060200180602001806020018481038452878181546001816001161561010002031660029004815260200191508054600181600116156101000203166002900480156132685780601f1061323d57610100808354040283529160200191613268565b820191906000526020600020905b81548152906001019060200180831161324b57829003601f168201915b5050848103835286818151815260200191508051906020019080838360005b838110156132a2578082015181840152602081019050613287565b50505050905090810190601f1680156132cf5780820380516001836020036101000a031916815260200191505b50848103825285818151815260200191508051906020019060200280838360005b8381101561330b5780820151818401526020810190506132f0565b50505050905001965050505050505060405180910390a15050505050505050505050565b600080600080845186511415156133ae576040517f08c379a00000000000000000000000000000000000000000000000000000000081526004018080602001828103825260118152602001807f4d616c666f726d656420696e707574732e00000000000000000000000000000081525060200191505060405180910390fd5b600360009054906101000a900473ffffffffffffffffffffffffffffffffffffffff1693508373ffffffffffffffffffffffffffffffffffffffff16634bff5009886040518263ffffffff167c01000000000000000000000000000000000000000000000000000000000281526004018080602001828103825283818151815260200191508051906020019080838360005b8381101561345b578082015181840152602081019050613440565b50505050905090810190601f1680156134885780820380516001836020036101000a031916815260200191505b50925050506040805180830381600087803b1580156134a657600080fd5b505af11580156134ba573d6000803e3d6000fd5b505050506040513d60408110156134d057600080fd5b81019080805190602001909291908051906020019092919050505050809350508773ffffffffffffffffffffffffffffffffffffffff168373ffffffffffffffffffffffffffffffffffffffff16141515613593576040517f08c379a000000000000000000000000000000000000000000000000000000000815260040180806020018281038252601a8152602001807f496e636f7272656374207573657220696e666f726d6174696f6e00000000000081525060200191505060405180910390fd5b600091505b855182101561384d57600773__bytes32Set____________________________638a620f51909188858151811015156135cd57fe5b906020019060200201516040518363ffffffff167c01000000000000000000000000000000000000000000000000000000000281526004018083815260200182600019166000191681526020019250505060206040518083038186803b15801561363657600080fd5b505af415801561364a573d6000803e3d6000fd5b505050506040513d602081101561366057600080fd5b810190808051906020019092919050505015156136e5576040517f08c379a00000000000000000000000000000000000000000000000000000000081526004018080602001828103825260178152602001807f556e737570706f727465642064617461206669656c642e00000000000000000081525060200191505060405180910390fd5b600a6000886040518082805190602001908083835b60208310151561371f57805182526020820191506020810190506020830392506136fa565b6001836020036101000a0380198251168184511680821785525050505050509050019150506040518091039020600019166000191681526020019081526020016000206000878481518110151561377257fe5b906020019060200201516000191660001916815260200190815260200160002090508073__bytes32Set____________________________638ac6ba9a909187858151811015156137bf57fe5b906020019060200201516040518363ffffffff167c01000000000000000000000000000000000000000000000000000000000281526004018083815260200182600019166000191681526020019250505060006040518083038186803b15801561382857600080fd5b505af415801561383c573d6000803e3d6000fd5b505050508180600101925050613598565b5050505050505050565b6000806000835185511415156138d5576040517f08c379a00000000000000000000000000000000000000000000000000000000081526004018080602001828103825260118152602001807f4d616c666f726d656420696e707574732e00000000000000000000000000000081525060200191505060405180910390fd5b600360009054906101000a900473ffffffffffffffffffffffffffffffffffffffff1692508273ffffffffffffffffffffffffffffffffffffffff16634bff5009876040518263ffffffff167c01000000000000000000000000000000000000000000000000000000000281526004018080602001828103825283818151815260200191508051906020019080838360005b83811015613982578082015181840152602081019050613967565b50505050905090810190601f1680156139af5780820380516001836020036101000a031916815260200191505b50925050506040805180830381600087803b1580156139cd57600080fd5b505af11580156139e1573d6000803e3d6000fd5b505050506040513d60408110156139f757600080fd5b81019080805190602001909291908051906020019092919050505050809250508673ffffffffffffffffffffffffffffffffffffffff168273ffffffffffffffffffffffffffffffffffffffff16141515613aba576040517f08c379a000000000000000000000000000000000000000000000000000000000815260040180806020018281038252601a8152602001807f496e636f7272656374207573657220696e666f726d6174696f6e00000000000081525060200191505060405180910390fd5b600090505b8451811015613d7157600773__bytes32Set____________________________638a620f5190918784815181101515613af457fe5b906020019060200201516040518363ffffffff167c01000000000000000000000000000000000000000000000000000000000281526004018083815260200182600019166000191681526020019250505060206040518083038186803b158015613b5d57600080fd5b505af4158015613b71573d6000803e3d6000fd5b505050506040513d6020811015613b8757600080fd5b81019080805190602001909291905050501515613c0c576040517f08c379a00000000000000000000000000000000000000000000000000000000081526004018080602001828103825260178152602001807f556e737570706f727465642064617461206669656c642e00000000000000000081525060200191505060405180910390fd5b600a6000876040518082805190602001908083835b602083101515613c465780518252602082019150602081019050602083039250613c21565b6001836020036101000a03801982511681845116808217855250505050505090500191505060405180910390206000191660001916815260200190815260200160002060008683815181101515613c9957fe5b906020019060200201516000191660001916815260200190815260200160002073__bytes32Set____________________________6336c26aef90918684815181101515613ce357fe5b906020019060200201516040518363ffffffff167c01000000000000000000000000000000000000000000000000000000000281526004018083815260200182600019166000191681526020019250505060006040518083038186803b158015613d4c57600080fd5b505af4158015613d60573d6000803e3d6000fd5b505050508080600101915050613abf565b50505050505050565b60008060148301845110151515613d9057600080fd5b6c01000000000000000000000000836020860101510490508091505092915050565b606080828401855110151515613dc757600080fd5b821560008114613de257604051915060208201604052613e33565b6040519150601f8416801560200281840101858101878315602002848b0101015b81831015613e205780518352602083019250602081019050613e03565b50868552601f19601f8301166040525050505b50809150509392505050565b600080600083511415613e585760006001029150613e63565b602083015190508091505b50919050565b828054600181600116156101000203166002900490600052602060002090601f016020900481019282601f10613eaa57805160ff1916838001178555613ed8565b82800160010185558215613ed8579182015b82811115613ed7578251825591602001919060010190613ebc565b5b509050613ee59190613fb1565b5090565b828054600181600116156101000203166002900490600052602060002090601f016020900481019282601f10613f2a57805160ff1916838001178555613f58565b82800160010185558215613f58579182015b82811115613f57578251825591602001919060010190613f3c565b5b509050613f659190613fb1565b5090565b50805460018160011615610100020316600290046000825580601f10613f8f5750613fae565b601f016020900490600052602060002090810190613fad9190613fb1565b5b50565b613fd391905b80821115613fcf576000816000905550600101613fb7565b5090565b905600a165627a7a72305820618599e3c418a7b347a3ce18d24e83f1dd6027b2a97a7c89097a54fe39f51f290029",
  "source": "pragma solidity ^0.4.23;\n\nimport \"./Withdrawable.sol\";\n\nimport \"./libraries/bytesLibrary.sol\";\nimport \"./libraries/bytes32Set.sol\";\n\n\ninterface RaindropClient {\n    function userNameTaken(string userName) external view returns (bool taken);\n    function getUserByName(string userName) external view returns (address userAddress, bool delegated);\n    function getUserByAddress(address _address) external view returns (string userName, bool delegated);\n}\n\ninterface SnowflakeEscrow {\n    function initiateEscrow(\n        address _application,\n        address _user,\n        address _relayer,\n        address _validator,\n        uint _amount_\n    )\n        external returns(uint escrowId);\n    function closeEscrow(uint _escrowId) external;\n    function cancelEscrow(uint _escrowId) external;\n}\n\n\ncontract SnowflakeRegistry is Withdrawable {\n    using BytesLibrary for bytes;\n    using bytes32Set for bytes32Set._bytes32Set;\n\n    // Events for when an application is signed up for Snowflake and when their account is deleted\n    event ApplicationSignUp(string applicationName);\n    event DataRequested(string applicationName, string userName, bytes32[] dataFields);\n\n    address public escrowAddress;\n    address public hydroTokenAddress;\n    address public raindropClientAddress;\n\n    bytes32Set._bytes32Set internal supportedKeyTypes;\n    mapping (bytes32 => string) internal keyNames;\n\n    bytes32Set._bytes32Set internal supportedDataFields;\n    mapping (bytes32 => string) internal dataFieldNames;\n    // hydro userNames => dataFields => set of saltedHashedValues\n    mapping (bytes32 => mapping (bytes32 => bytes32Set._bytes32Set)) internal userSaltedHashes;\n\n    // Encryption key template\n    struct EncryptionKey {\n        string key;\n        bytes32 keyType;\n    }\n\n    // Address book template\n    struct AddressBook {\n        address ownerAddress;\n        address relayerAddress;\n        address verifierAddress;\n    }\n\n    // Application account template\n    struct Application {\n        string applicationName;\n        AddressBook applicationAddressBook;\n        EncryptionKey applicationEncryptionKey;\n        bool _initialized;\n    }\n\n    // Mapping from hashed names to applications (primary application directory)\n    mapping (bytes32 => Application) internal applicationDirectory;\n    // Mapping from owner addresses to applications (secondary application directory)\n    mapping (address => bytes32) internal ownerAddressLookup;\n\n    // users to applications to escrow IDs\n    mapping (bytes32 => mapping (bytes32 => uint)) internal escrowIds;\n\n    function signUpApplication(\n        string applicationName,\n        address ownerAddress,\n        address relayerAddress,\n        address verifierAddress,\n        string key,\n        string keyType\n    )\n        public onlyOwner\n    {\n        require(bytes(applicationName).length < 100);\n        bytes32 applicationNameHash = keccak256(applicationName);\n        require(!applicationDirectory[applicationNameHash]._initialized, \"Application already exists.\");\n\n        require(supportedKeyTypes.contains(keccak256(keyType)), \"Passed keyType is not supported.\");\n\n        applicationDirectory[applicationNameHash] = Application(\n            applicationName,\n            AddressBook(\n                ownerAddress,\n                relayerAddress,\n                verifierAddress\n            ),\n            EncryptionKey(\n                key,\n                keccak256(keyType)\n            ),\n            true\n        );\n        ownerAddressLookup[ownerAddress] = applicationNameHash;\n\n        emit ApplicationSignUp(applicationName);\n    }\n\n    function modifyApplicationAddresses(\n        bytes32 applicationNameHash,\n        address ownerAddress,\n        address relayerAddress,\n        address verifierAddress\n    )\n        public onlyOwner\n    {\n        Application storage application = applicationDirectory[applicationNameHash];\n        require(application._initialized, \"Application does not exist.\");\n        application.applicationAddressBook.ownerAddress = ownerAddress;\n        ownerAddressLookup[ownerAddress] = applicationNameHash;\n        application.applicationAddressBook.relayerAddress = relayerAddress;\n        application.applicationAddressBook.verifierAddress = verifierAddress;\n    }\n\n    function getApplication(string applicationName) public view returns (\n        address ownerAddress,\n        address relayerAddress,\n        address verifierAddress,\n        string key,\n        string keyType\n    )\n    {\n        bytes32 applicationNameHash = keccak256(applicationName);\n        Application storage application = applicationDirectory[applicationNameHash];\n        require(application._initialized, \"Application does not exist.\");\n\n        return (\n            application.applicationAddressBook.ownerAddress,\n            application.applicationAddressBook.relayerAddress,\n            application.applicationAddressBook.verifierAddress,\n            application.applicationEncryptionKey.key,\n            keyNames[application.applicationEncryptionKey.keyType]\n        );\n    }\n\n    function deleteApplication(bytes32 applicationNameHash) public onlyOwner {\n        require(applicationDirectory[applicationNameHash]._initialized, \"Application does not exist.\");\n        address ownerAddress = applicationDirectory[applicationNameHash].applicationAddressBook.ownerAddress;\n        delete applicationDirectory[applicationNameHash];\n        delete ownerAddressLookup[ownerAddress];\n    }\n\n    function addKeyType(string keyType) public onlyOwner {\n        bytes32 keyTypeHash = keccak256(keyType);\n        supportedKeyTypes.insert(keyTypeHash);\n        keyNames[keyTypeHash] = keyType;\n    }\n\n    function addDataField(string dataFieldName) public onlyOwner {\n        bytes32 dataFieldNameHash = keccak256(dataFieldName);\n        supportedDataFields.insert(dataFieldNameHash);\n        dataFieldNames[dataFieldNameHash] = dataFieldName;\n    }\n\n    function modifyContractAddresses(\n        address _escrowAddress,\n        address _hydroTokenAddress,\n        address _raindropClientAddress\n    )\n        public onlyOwner\n    {\n        escrowAddress = _escrowAddress;\n        hydroTokenAddress = _hydroTokenAddress;\n        raindropClientAddress = _raindropClientAddress;\n    }\n\n    function addDataDelegated(address userAddress, string userName, bytes32[] dataFields, bytes32[] saltedHashes)\n        public onlyOwner\n    {\n        _addData(userAddress, userName, dataFields, saltedHashes);\n    }\n\n    function addData(string userName, bytes32[] dataFields, bytes32[] saltedHashes) public {\n        _addData(msg.sender, userName, dataFields, saltedHashes);\n    }\n\n    function _addData(address userAddress, string userName, bytes32[] dataFields, bytes32[] saltedHashes)\n        internal\n    {\n        require(dataFields.length == saltedHashes.length, \"Malformed inputs.\");\n        RaindropClient raindropClient = RaindropClient(raindropClientAddress);\n        address raindropClientUserAddress;\n        (raindropClientUserAddress, ) = raindropClient.getUserByName(userName);\n        require(raindropClientUserAddress == userAddress, \"Incorrect user information\");\n        for (uint i = 0; i < dataFields.length; i++) {\n            require(supportedDataFields.contains(dataFields[i]), \"Unsupported data field.\");\n            bytes32Set._bytes32Set storage currentFields = userSaltedHashes[keccak256(userName)][dataFields[i]];\n            currentFields.insert(saltedHashes[i]);\n        }\n    }\n\n    function getSaltedHashes(string userName, string dataField) public view returns (bytes32[]) {\n        return userSaltedHashes[keccak256(userName)][keccak256(dataField)].members;\n    }\n\n    function removeDataDelegated(address userAddress, string userName, bytes32[] dataFields, bytes32[] saltedHashes)\n        public onlyOwner\n    {\n        _removeData(userAddress, userName, dataFields, saltedHashes);\n    }\n\n    function removeData(string userName, bytes32[] dataFields, bytes32[] saltedHashes) public {\n        _removeData(msg.sender, userName, dataFields, saltedHashes);\n    }\n\n    function _removeData(address userAddress, string userName, bytes32[] dataFields, bytes32[] saltedHashes)\n        internal\n    {\n        require(dataFields.length == saltedHashes.length, \"Malformed inputs.\");\n        RaindropClient raindropClient = RaindropClient(raindropClientAddress);\n        address raindropClientUserAddress;\n        (raindropClientUserAddress, ) = raindropClient.getUserByName(userName);\n        require(raindropClientUserAddress == userAddress, \"Incorrect user information\");\n        for (uint i = 0; i < dataFields.length; i++) {\n            require(supportedDataFields.contains(dataFields[i]), \"Unsupported data field.\");\n            userSaltedHashes[keccak256(userName)][dataFields[i]].remove(saltedHashes[i]);\n        }\n    }\n\n    // the application's verifier is the one that must call this\n    function receiveApproval(address _from, uint _value, address _token, bytes _extraData) public {\n        require(_token == hydroTokenAddress, \"Function call not generated from the HYDRO token\");\n        address ownerAddress;\n        address userAddress;\n        bytes32[] memory dataFields;\n        (ownerAddress, userAddress, dataFields) = parseFields(_extraData);\n\n        requestData(_from, ownerAddress, userAddress, _value, dataFields);\n    }\n\n    function requestData(\n        address tokenSender,\n        address ownerAddress,\n        address userAddress,\n        uint amount,\n        bytes32[] dataFields\n    )\n        internal\n    {\n        // make sure the token sender is the passed application's verifier\n        bytes32 applicationNameHash = ownerAddressLookup[ownerAddress];\n        Application storage application = applicationDirectory[applicationNameHash];\n        require(\n            application.applicationAddressBook.verifierAddress == tokenSender,\n            \"The token sender is not the verifier of the application.\"\n        );\n\n        // get the user name from the passed address\n        RaindropClient raindropClient = RaindropClient(raindropClientAddress);\n        string memory userName;\n        (userName, ) = raindropClient.getUserByAddress(userAddress);\n\n        // initiate the escrow\n        SnowflakeEscrow escrow = SnowflakeEscrow(escrowAddress);\n        uint escrowId = escrow.initiateEscrow(\n            ownerAddress, userAddress, application.applicationAddressBook.relayerAddress, tokenSender, amount\n        );\n        escrowIds[keccak256(userName)][applicationNameHash] = escrowId;\n\n        emit DataRequested(application.applicationName, userName, dataFields);\n    }\n\n    function closeEscrow(uint escrowId) public onlyOwner {\n        SnowflakeEscrow escrow = SnowflakeEscrow(escrowAddress);\n        escrow.closeEscrow(escrowId);\n    }\n\n    function cancelEscrow(uint escrowId) public onlyOwner {\n        SnowflakeEscrow escrow = SnowflakeEscrow(escrowAddress);\n        escrow.cancelEscrow(escrowId);\n    }\n\n\n    function parseFields(bytes memory _bytes) internal pure returns (\n        address ownerAddress,\n        address userAddress,\n        bytes32[] memory dataFields\n    )\n    {\n        require((_bytes.length - 40) % 32 == 0, \"Malformed bytes.\");\n        address _ownerAddress = _bytes.toAddress(0);\n        address _userAddress = _bytes.toAddress(20);\n        uint numberOfFields = (_bytes.length - 40) / 32;\n        bytes32[] memory _dataFields;\n        for (uint i = 0; i < numberOfFields; i++) {\n            dataFields[i] = _bytes.slice(40 + (i * 32), 40 + ((i + 1) * 32)).toBytes32();\n        }\n\n        return (_ownerAddress, _userAddress, _dataFields);\n    }\n}\n",
  "sourcePath": "/Users/noahzinsmeister/Documents/github/smart-contracts/snowflake-poc/contracts/SnowflakeRegistry.sol",
  "compiler": {
    "name": "solc",
    "version": "0.4.23+commit.124ca40d.Emscripten.clang"
  },
  "schemaVersion": "2.0.0",
  "updatedAt": "2018-05-01T18:54:54.074Z"
}