{
  "contractName": "uint8Set",
  "abi": [
    {
      "constant": false,
      "inputs": [
        {
          "name": "self",
          "type": "uint8Set._uint8Set storage"
        },
        {
          "name": "other",
          "type": "uint8"
        }
      ],
      "name": "insert",
      "outputs": [],
      "payable": false,
      "stateMutability": "nonpayable",
      "type": "function"
    },
    {
      "constant": false,
      "inputs": [
        {
          "name": "self",
          "type": "uint8Set._uint8Set storage"
        },
        {
          "name": "other",
          "type": "uint8"
        }
      ],
      "name": "remove",
      "outputs": [],
      "payable": false,
      "stateMutability": "nonpayable",
      "type": "function"
    },
    {
      "constant": true,
      "inputs": [
        {
          "name": "self",
          "type": "uint8Set._uint8Set storage"
        },
        {
          "name": "other",
          "type": "uint8"
        }
      ],
      "name": "contains",
      "outputs": [
        {
          "name": "",
          "type": "bool"
        }
      ],
      "payable": false,
      "stateMutability": "view",
      "type": "function"
    },
    {
      "constant": true,
      "inputs": [
        {
          "name": "self",
          "type": "uint8Set._uint8Set storage"
        }
      ],
      "name": "length",
      "outputs": [
        {
          "name": "",
          "type": "uint256"
        }
      ],
      "payable": false,
      "stateMutability": "view",
      "type": "function"
    }
  ],
  "bytecode": "0x610300610030600b82828239805160001a6073146000811461002057610022565bfe5b5030600052607381538281f30073000000000000000000000000000000000000000030146080604052600436106100785763ffffffff7c010000000000000000000000000000000000000000000000000000000060003504166307a929ec811461007d5780633d6103621461009d57806353ace691146100bb578063cb5ce7e5146100d8575b600080fd5b81801561008957600080fd5b5061009b60043560ff602435166100fd565b005b8180156100a957600080fd5b5061009b60043560ff602435166101e2565b6100c660043561025c565b60408051918252519081900360200190f35b6100e960043560ff60243516610260565b604080519115158252519081900360200190f35b60008061010a8484610260565b156101dc5760ff831660009081526001808601602052604090912054925084906101338261025c565b0381548110151561014057fe5b90600052602060002090602091828204019190069054906101000a900460ff16905080846000016001840381548110151561017757fe5b90600052602060002090602091828204019190066101000a81548160ff021916908360ff160217905550836000018054809190600190036101b8919061027a565b5060ff80821660009081526001860160205260408082208590559185168152908120555b50505050565b6101ec8282610260565b1515610258576000196101fe8361025c565b1061020557fe5b8154600181018355600083815260209081902090820401805460ff808516601f9094166101000a938402930219169190911790556102428261025c565b60ff821660009081526001840160205260409020555b5050565b5490565b60ff16600090815260019190910160205260408120541190565b8154818355818111156102ae57601f016020900481601f016020900483600052602060002091820191016102ae91906102b3565b505050565b6102d191905b808211156102cd57600081556001016102b9565b5090565b905600a165627a7a72305820dd97beca78599b7d6029173a875b79afecadf63b80c29cb0914c6443f36ce7140029",
  "source": "pragma solidity ^0.4.23;\n\n\nlibrary uint8Set {\n    struct _uint8Set {\n        uint8[] members;\n        mapping(uint8 => uint) memberIndices;\n    }\n\n    function insert(_uint8Set storage self, uint8 other) public {\n        if (!contains(self, other)) {\n            assert(length(self) < 2**256-1);\n            self.members.push(other);\n            self.memberIndices[other] = length(self);\n        }\n    }\n\n    function remove(_uint8Set storage self, uint8 other) public {\n        if (contains(self, other)) {\n            uint replaceIndex = self.memberIndices[other];\n            uint8 lastMember = self.members[length(self)-1];\n            // overwrite other with the last member and remove last member\n            self.members[replaceIndex-1] = lastMember;\n            self.members.length--;\n            // reflect this change in the indices\n            self.memberIndices[lastMember] = replaceIndex;\n            delete self.memberIndices[other];\n        }\n    }\n\n    function contains(_uint8Set storage self, uint8 other) public view returns (bool) {\n        return self.memberIndices[other] > 0;\n    }\n\n    function length(_uint8Set storage self) public view returns (uint) {\n        return self.members.length;\n    }\n}",
  "sourcePath": "/Users/andychorlian/Documents/GitHub/smart-contracts/snowflake-poc/contracts/libraries/uint8Set.sol",
  "compiler": {
    "name": "solc",
    "version": "0.4.24+commit.e67f0147.Emscripten.clang"
  },
  "schemaVersion": "2.0.0",
  "updatedAt": "2018-06-12T21:32:36.717Z"
}