{
  "contractName": "Withdrawable",
  "abi": [
    {
      "constant": true,
      "inputs": [],
      "name": "owner",
      "outputs": [
        {
          "name": "",
          "type": "address"
        }
      ],
      "payable": false,
      "stateMutability": "view",
      "type": "function"
    },
    {
      "constant": false,
      "inputs": [
        {
          "name": "newOwner",
          "type": "address"
        }
      ],
      "name": "transferOwnership",
      "outputs": [],
      "payable": false,
      "stateMutability": "nonpayable",
      "type": "function"
    },
    {
      "anonymous": false,
      "inputs": [
        {
          "indexed": true,
          "name": "previousOwner",
          "type": "address"
        },
        {
          "indexed": true,
          "name": "newOwner",
          "type": "address"
        }
      ],
      "name": "OwnershipTransferred",
      "type": "event"
    },
    {
      "constant": false,
      "inputs": [
        {
          "name": "to",
          "type": "address"
        }
      ],
      "name": "withdrawEther",
      "outputs": [],
      "payable": false,
      "stateMutability": "nonpayable",
      "type": "function"
    },
    {
      "constant": false,
      "inputs": [
        {
          "name": "tokenAddress",
          "type": "address"
        },
        {
          "name": "to",
          "type": "address"
        }
      ],
      "name": "withdrawERC20Token",
      "outputs": [],
      "payable": false,
      "stateMutability": "nonpayable",
      "type": "function"
    }
  ],
  "bytecode": "0x608060405260008054600160a060020a0319163317905561036b806100256000396000f3006080604052600436106100615763ffffffff7c01000000000000000000000000000000000000000000000000000000006000350416638da5cb5b8114610066578063af933b5714610097578063ecfbe70c146100ba578063f2fde38b146100e1575b600080fd5b34801561007257600080fd5b5061007b610102565b60408051600160a060020a039092168252519081900360200190f35b3480156100a357600080fd5b506100b8600160a060020a0360043516610111565b005b3480156100c657600080fd5b506100b8600160a060020a0360043581169060243516610162565b3480156100ed57600080fd5b506100b8600160a060020a03600435166102ab565b600054600160a060020a031681565b600054600160a060020a0316331461012857600080fd5b604051600160a060020a03821690303180156108fc02916000818181858888f1935050505015801561015e573d6000803e3d6000fd5b5050565b60008054600160a060020a0316331461017a57600080fd5b50604080517f70a0823100000000000000000000000000000000000000000000000000000000815230600482015290518391600160a060020a0383169163a9059cbb91859184916370a082319160248083019260209291908290030181600087803b1580156101e857600080fd5b505af11580156101fc573d6000803e3d6000fd5b505050506040513d602081101561021257600080fd5b5051604080517c010000000000000000000000000000000000000000000000000000000063ffffffff8616028152600160a060020a03909316600484015260248301919091525160448083019260209291908290030181600087803b15801561027a57600080fd5b505af115801561028e573d6000803e3d6000fd5b505050506040513d60208110156102a457600080fd5b5050505050565b600054600160a060020a031633146102c257600080fd5b600160a060020a03811615156102d757600080fd5b60008054604051600160a060020a03808516939216917f8be0079c531659141344cd1fd0a4f28419497f9722a3daafe3b4186f6b6457e091a36000805473ffffffffffffffffffffffffffffffffffffffff1916600160a060020a03929092169190911790555600a165627a7a7230582087f5829181b4605493db0f184b695fb72a592982aef2fa4a9297f2ddf18b18d00029",
  "source": "pragma solidity ^0.4.23;\n\nimport \"./zeppelin/ownership/Ownable.sol\";\nimport \"./zeppelin/token/ERC20/ERC20Basic.sol\";\n\n\ncontract Withdrawable is Ownable {\n    // Allows owner to withdraw ether from the contract\n    function withdrawEther(address to) public onlyOwner {\n        to.transfer(address(this).balance);\n    }\n\n    // Allows owner to withdraw ERC20 tokens from the contract\n    function withdrawERC20Token(address tokenAddress, address to) public onlyOwner {\n        ERC20Basic token = ERC20Basic(tokenAddress);\n        token.transfer(to, token.balanceOf(address(this)));\n    }\n}\n",
  "sourcePath": "/Users/andychorlian/Documents/GitHub/smart-contracts/snowflake-poc/contracts/_testing/Withdrawable.sol",
  "compiler": {
    "name": "solc",
    "version": "0.4.24+commit.e67f0147.Emscripten.clang"
  },
  "schemaVersion": "2.0.0",
  "updatedAt": "2018-06-13T14:40:04.583Z"
}