{
  "contractName": "Raindrop",
  "abi": [
    {
      "constant": true,
      "inputs": [
        {
          "name": "",
          "type": "uint256"
        },
        {
          "name": "",
          "type": "address"
        }
      ],
      "name": "whitelist",
      "outputs": [
        {
          "name": "",
          "type": "bool"
        }
      ],
      "payable": false,
      "stateMutability": "view",
      "type": "function"
    },
    {
      "constant": true,
      "inputs": [
        {
          "name": "",
          "type": "uint256"
        },
        {
          "name": "",
          "type": "address"
        }
      ],
      "name": "hydroPartnerMap",
      "outputs": [
        {
          "name": "value",
          "type": "uint256"
        },
        {
          "name": "timestamp",
          "type": "uint256"
        }
      ],
      "payable": false,
      "stateMutability": "view",
      "type": "function"
    },
    {
      "constant": true,
      "inputs": [],
      "name": "owner",
      "outputs": [
        {
          "name": "",
          "type": "address"
        }
      ],
      "payable": false,
      "stateMutability": "view",
      "type": "function"
    },
    {
      "constant": true,
      "inputs": [
        {
          "name": "",
          "type": "uint256"
        },
        {
          "name": "",
          "type": "address"
        }
      ],
      "name": "partnerMap",
      "outputs": [
        {
          "name": "value",
          "type": "uint256"
        },
        {
          "name": "challenge",
          "type": "uint256"
        }
      ],
      "payable": false,
      "stateMutability": "view",
      "type": "function"
    },
    {
      "constant": false,
      "inputs": [
        {
          "name": "newOwner",
          "type": "address"
        }
      ],
      "name": "transferOwnership",
      "outputs": [],
      "payable": false,
      "stateMutability": "nonpayable",
      "type": "function"
    },
    {
      "anonymous": false,
      "inputs": [
        {
          "indexed": false,
          "name": "partnerId",
          "type": "uint256"
        },
        {
          "indexed": true,
          "name": "from",
          "type": "address"
        },
        {
          "indexed": false,
          "name": "value",
          "type": "uint256"
        }
      ],
      "name": "AuthenticateEvent",
      "type": "event"
    },
    {
      "anonymous": false,
      "inputs": [
        {
          "indexed": false,
          "name": "partnerId",
          "type": "uint256"
        },
        {
          "indexed": false,
          "name": "target",
          "type": "address"
        },
        {
          "indexed": false,
          "name": "whitelist",
          "type": "bool"
        }
      ],
      "name": "WhitelistEvent",
      "type": "event"
    },
    {
      "anonymous": false,
      "inputs": [
        {
          "indexed": true,
          "name": "previousOwner",
          "type": "address"
        },
        {
          "indexed": true,
          "name": "newOwner",
          "type": "address"
        }
      ],
      "name": "OwnershipTransferred",
      "type": "event"
    },
    {
      "constant": false,
      "inputs": [
        {
          "name": "_addr",
          "type": "address"
        }
      ],
      "name": "setHydroContractAddress",
      "outputs": [],
      "payable": false,
      "stateMutability": "nonpayable",
      "type": "function"
    },
    {
      "constant": false,
      "inputs": [
        {
          "name": "_target",
          "type": "address"
        },
        {
          "name": "_whitelistBool",
          "type": "bool"
        },
        {
          "name": "_partnerId",
          "type": "uint256"
        }
      ],
      "name": "whitelistAddress",
      "outputs": [],
      "payable": false,
      "stateMutability": "nonpayable",
      "type": "function"
    },
    {
      "constant": false,
      "inputs": [
        {
          "name": "_sender",
          "type": "address"
        },
        {
          "name": "_value",
          "type": "uint256"
        },
        {
          "name": "_challenge",
          "type": "uint256"
        },
        {
          "name": "_partnerId",
          "type": "uint256"
        }
      ],
      "name": "authenticate",
      "outputs": [],
      "payable": false,
      "stateMutability": "nonpayable",
      "type": "function"
    },
    {
      "constant": true,
      "inputs": [
        {
          "name": "_sender",
          "type": "address"
        },
        {
          "name": "_partnerId",
          "type": "uint256"
        }
      ],
      "name": "checkForValidChallenge",
      "outputs": [
        {
          "name": "value",
          "type": "uint256"
        }
      ],
      "payable": false,
      "stateMutability": "view",
      "type": "function"
    },
    {
      "constant": false,
      "inputs": [
        {
          "name": "_sender",
          "type": "address"
        },
        {
          "name": "_value",
          "type": "uint256"
        },
        {
          "name": "_partnerId",
          "type": "uint256"
        }
      ],
      "name": "updateHydroMap",
      "outputs": [],
      "payable": false,
      "stateMutability": "nonpayable",
      "type": "function"
    },
    {
      "constant": true,
      "inputs": [
        {
          "name": "_sender",
          "type": "address"
        },
        {
          "name": "_challenge",
          "type": "uint256"
        },
        {
          "name": "_partnerId",
          "type": "uint256"
        }
      ],
      "name": "validateAuthentication",
      "outputs": [
        {
          "name": "_isValid",
          "type": "bool"
        }
      ],
      "payable": false,
      "stateMutability": "view",
      "type": "function"
    }
  ],
  "bytecode": "0x60606040526000600160006101000a81548173ffffffffffffffffffffffffffffffffffffffff021916908373ffffffffffffffffffffffffffffffffffffffff160217905550336000806101000a81548173ffffffffffffffffffffffffffffffffffffffff021916908373ffffffffffffffffffffffffffffffffffffffff160217905550610de6806100956000396000f3006060604052600436106100af576000357c0100000000000000000000000000000000000000000000000000000000900463ffffffff1680630e97e3d3146100b45780634b25bfce146101175780634c1f85ae14610171578063510792c8146101bc5780635f373c22146102195780638da5cb5b14610252578063af017526146102a7578063b31ca879146102f4578063c3ff387814610351578063c68ae617146103a7578063f2fde38b146103fb575b600080fd5b34156100bf57600080fd5b6100fd600480803573ffffffffffffffffffffffffffffffffffffffff16906020019091908035906020019091908035906020019091905050610434565b604051808215151515815260200191505060405180910390f35b341561012257600080fd5b610157600480803590602001909190803573ffffffffffffffffffffffffffffffffffffffff169060200190919050506105b5565b604051808215151515815260200191505060405180910390f35b341561017c57600080fd5b6101ba600480803573ffffffffffffffffffffffffffffffffffffffff169060200190919080359060200190919080359060200190919050506105e4565b005b34156101c757600080fd5b6101fc600480803590602001909190803573ffffffffffffffffffffffffffffffffffffffff169060200190919050506106f9565b604051808381526020018281526020019250505060405180910390f35b341561022457600080fd5b610250600480803573ffffffffffffffffffffffffffffffffffffffff1690602001909190505061072a565b005b341561025d57600080fd5b6102656107c9565b604051808273ffffffffffffffffffffffffffffffffffffffff1673ffffffffffffffffffffffffffffffffffffffff16815260200191505060405180910390f35b34156102b257600080fd5b6102f2600480803573ffffffffffffffffffffffffffffffffffffffff1690602001909190803515159060200190919080359060200190919050506107ee565b005b34156102ff57600080fd5b610334600480803590602001909190803573ffffffffffffffffffffffffffffffffffffffff1690602001909190505061092d565b604051808381526020018281526020019250505060405180910390f35b341561035c57600080fd5b610391600480803573ffffffffffffffffffffffffffffffffffffffff1690602001909190803590602001909190505061095e565b6040518082815260200191505060405180910390f35b34156103b257600080fd5b6103f9600480803573ffffffffffffffffffffffffffffffffffffffff16906020019091908035906020019091908035906020019091908035906020019091905050610a21565b005b341561040657600080fd5b610432600480803573ffffffffffffffffffffffffffffffffffffffff16906020019091905050610baf565b005b60006004600083815260200190815260200160002060008573ffffffffffffffffffffffffffffffffffffffff1673ffffffffffffffffffffffffffffffffffffffff168152602001908152602001600020600001546003600084815260200190815260200160002060008673ffffffffffffffffffffffffffffffffffffffff1673ffffffffffffffffffffffffffffffffffffffff1681526020019081526020016000206000015414801561053d57506004600083815260200190815260200160002060008573ffffffffffffffffffffffffffffffffffffffff1673ffffffffffffffffffffffffffffffffffffffff1681526020019081526020016000206001015442105b801561059b5750826003600084815260200190815260200160002060008673ffffffffffffffffffffffffffffffffffffffff1673ffffffffffffffffffffffffffffffffffffffff16815260200190815260200160002060010154145b156105a957600190506105ae565b600090505b9392505050565b60026020528160005260406000206020528060005260406000206000915091509054906101000a900460ff1681565b6000809054906101000a900473ffffffffffffffffffffffffffffffffffffffff1673ffffffffffffffffffffffffffffffffffffffff163373ffffffffffffffffffffffffffffffffffffffff1614151561063f57600080fd5b816004600083815260200190815260200160002060008573ffffffffffffffffffffffffffffffffffffffff1673ffffffffffffffffffffffffffffffffffffffff168152602001908152602001600020600001819055506201518042016004600083815260200190815260200160002060008573ffffffffffffffffffffffffffffffffffffffff1673ffffffffffffffffffffffffffffffffffffffff16815260200190815260200160002060010181905550505050565b6004602052816000526040600020602052806000526040600020600091509150508060000154908060010154905082565b6000809054906101000a900473ffffffffffffffffffffffffffffffffffffffff1673ffffffffffffffffffffffffffffffffffffffff163373ffffffffffffffffffffffffffffffffffffffff1614151561078557600080fd5b80600160006101000a81548173ffffffffffffffffffffffffffffffffffffffff021916908373ffffffffffffffffffffffffffffffffffffffff16021790555050565b6000809054906101000a900473ffffffffffffffffffffffffffffffffffffffff1681565b6000809054906101000a900473ffffffffffffffffffffffffffffffffffffffff1673ffffffffffffffffffffffffffffffffffffffff163373ffffffffffffffffffffffffffffffffffffffff1614151561084957600080fd5b816002600083815260200190815260200160002060008573ffffffffffffffffffffffffffffffffffffffff1673ffffffffffffffffffffffffffffffffffffffff16815260200190815260200160002060006101000a81548160ff0219169083151502179055507f35cae3fc3fb700c1e7bbb7e2891bbd6d8e2238ea0b977b60517cd67a5c0c7dbe818484604051808481526020018373ffffffffffffffffffffffffffffffffffffffff1673ffffffffffffffffffffffffffffffffffffffff16815260200182151515158152602001935050505060405180910390a1505050565b6003602052816000526040600020602052806000526040600020600091509150508060000154908060010154905082565b6000426004600084815260200190815260200160002060008573ffffffffffffffffffffffffffffffffffffffff1673ffffffffffffffffffffffffffffffffffffffff168152602001908152602001600020600101541115610a16576004600083815260200190815260200160002060008473ffffffffffffffffffffffffffffffffffffffff1673ffffffffffffffffffffffffffffffffffffffff168152602001908152602001600020600001549050610a1b565b600190505b92915050565b600160009054906101000a900473ffffffffffffffffffffffffffffffffffffffff1673ffffffffffffffffffffffffffffffffffffffff163373ffffffffffffffffffffffffffffffffffffffff16141515610a7d57600080fd5b6002600082815260200190815260200160002060008573ffffffffffffffffffffffffffffffffffffffff1673ffffffffffffffffffffffffffffffffffffffff16815260200190815260200160002060009054906101000a900460ff161515610ae657600080fd5b826004600083815260200190815260200160002060008673ffffffffffffffffffffffffffffffffffffffff1673ffffffffffffffffffffffffffffffffffffffff16815260200190815260200160002060000154141515610b4757600080fd5b610b5384848484610d04565b8373ffffffffffffffffffffffffffffffffffffffff167f0d33bcb53fe3c24e28d3268404d6c8e008626ac6ac50ccf6620ff8867cff9f688285604051808381526020018281526020019250505060405180910390a250505050565b6000809054906101000a900473ffffffffffffffffffffffffffffffffffffffff1673ffffffffffffffffffffffffffffffffffffffff163373ffffffffffffffffffffffffffffffffffffffff16141515610c0a57600080fd5b600073ffffffffffffffffffffffffffffffffffffffff168173ffffffffffffffffffffffffffffffffffffffff1614151515610c4657600080fd5b8073ffffffffffffffffffffffffffffffffffffffff166000809054906101000a900473ffffffffffffffffffffffffffffffffffffffff1673ffffffffffffffffffffffffffffffffffffffff167f8be0079c531659141344cd1fd0a4f28419497f9722a3daafe3b4186f6b6457e060405160405180910390a3806000806101000a81548173ffffffffffffffffffffffffffffffffffffffff021916908373ffffffffffffffffffffffffffffffffffffffff16021790555050565b826003600083815260200190815260200160002060008673ffffffffffffffffffffffffffffffffffffffff1673ffffffffffffffffffffffffffffffffffffffff16815260200190815260200160002060000181905550816003600083815260200190815260200160002060008673ffffffffffffffffffffffffffffffffffffffff1673ffffffffffffffffffffffffffffffffffffffff16815260200190815260200160002060010181905550505050505600a165627a7a72305820eb5aa9c91759defa2786ac9773727c9c66e961ed31e2b749467fd3c5089e3b040029",
  "source": "pragma solidity ^0.4.18;\n\nimport \"./Ownable.sol\";\n\ncontract Raindrop is Ownable {\n\n  // Event for when an address is authenticated\n  event AuthenticateEvent(uint partnerId, address indexed from, uint value);\n  // Event for when an address is whitelisted to authenticate\n  event WhitelistEvent(uint partnerId, address target, bool whitelist);\n\n  address hydroContract = 0x0;\n\n  mapping (uint => mapping (address => bool)) public whitelist;\n  mapping (uint => mapping (address => partnerValues)) public partnerMap;\n  mapping (uint => mapping (address => hydroValues)) public hydroPartnerMap;\n\n  struct partnerValues {\n      uint value;\n      uint challenge;\n  }\n\n  struct hydroValues {\n      uint value;\n      uint timestamp;\n  }\n\n  function setHydroContractAddress(address _addr) public onlyOwner {\n      hydroContract = _addr;\n  }\n\n  /* Function to whitelist partner address. Can only be called by owner */\n  function whitelistAddress(address _target, bool _whitelistBool, uint _partnerId) public onlyOwner {\n      whitelist[_partnerId][_target] = _whitelistBool;\n      WhitelistEvent(_partnerId, _target, _whitelistBool);\n  }\n\n  /* Function to authenticate user\n     Restricted to whitelisted partners */\n  function authenticate(address _sender, uint _value, uint _challenge, uint _partnerId) public {\n      require(msg.sender == hydroContract);\n      require(whitelist[_partnerId][_sender]);         // Make sure the sender is whitelisted\n      require(hydroPartnerMap[_partnerId][_sender].value == _value);\n      updatePartnerMap(_sender, _value, _challenge, _partnerId);\n      AuthenticateEvent(_partnerId, _sender, _value);\n  }\n\n  function checkForValidChallenge(address _sender, uint _partnerId) public view returns (uint value){\n      if (hydroPartnerMap[_partnerId][_sender].timestamp > block.timestamp){\n          return hydroPartnerMap[_partnerId][_sender].value;\n      }\n      return 1;\n  }\n\n  /* Function to update the hydroValuesMap. Called exclusively from the Hydro API */\n  function updateHydroMap(address _sender, uint _value, uint _partnerId) public onlyOwner {\n      hydroPartnerMap[_partnerId][_sender].value = _value;\n      hydroPartnerMap[_partnerId][_sender].timestamp = block.timestamp + 1 days;\n  }\n\n  /* Function called by Hydro API to check if the partner has validated\n   * The partners value and data must match and it must be less than a day since the last authentication\n   */\n  function validateAuthentication(address _sender, uint _challenge, uint _partnerId) public constant returns (bool _isValid) {\n      if (partnerMap[_partnerId][_sender].value == hydroPartnerMap[_partnerId][_sender].value\n      && block.timestamp < hydroPartnerMap[_partnerId][_sender].timestamp\n      && partnerMap[_partnerId][_sender].challenge == _challenge) {\n          return true;\n      }\n      return false;\n  }\n\n  /* Function to update the partnerValuesMap with their amount and challenge string */\n  function updatePartnerMap(address _sender, uint _value, uint _challenge, uint _partnerId) internal {\n      partnerMap[_partnerId][_sender].value = _value;\n      partnerMap[_partnerId][_sender].challenge = _challenge;\n  }\n\n}\n",
  "sourcePath": "/Users/andychorlian/Documents/GitHub/smart-contracts/hydro-token-and-raindrop-enterprise/contracts/Raindrop.sol",
  "compiler": {
    "name": "solc",
    "version": "0.4.19+commit.c4cbbb05.Emscripten.clang"
  },
  "schemaVersion": "2.0.0",
  "updatedAt": "2018-03-29T19:20:19.532Z"
}