{
  "contractName": "AddressOwnership",
  "abi": [
    {
      "constant": true,
      "inputs": [],
      "name": "snowflakeDescription",
      "outputs": [
        {
          "name": "",
          "type": "string"
        }
      ],
      "payable": false,
      "stateMutability": "view",
      "type": "function"
    },
    {
      "constant": true,
      "inputs": [],
      "name": "snowflakeName",
      "outputs": [
        {
          "name": "",
          "type": "string"
        }
      ],
      "payable": false,
      "stateMutability": "view",
      "type": "function"
    },
    {
      "constant": true,
      "inputs": [],
      "name": "owner",
      "outputs": [
        {
          "name": "",
          "type": "address"
        }
      ],
      "payable": false,
      "stateMutability": "view",
      "type": "function"
    },
    {
      "constant": false,
      "inputs": [
        {
          "name": "_address",
          "type": "address"
        }
      ],
      "name": "setSnowflakeAddress",
      "outputs": [],
      "payable": false,
      "stateMutability": "nonpayable",
      "type": "function"
    },
    {
      "constant": false,
      "inputs": [
        {
          "name": "newOwner",
          "type": "address"
        }
      ],
      "name": "transferOwnership",
      "outputs": [],
      "payable": false,
      "stateMutability": "nonpayable",
      "type": "function"
    },
    {
      "constant": true,
      "inputs": [],
      "name": "snowflakeAddress",
      "outputs": [
        {
          "name": "",
          "type": "address"
        }
      ],
      "payable": false,
      "stateMutability": "view",
      "type": "function"
    },
    {
      "constant": true,
      "inputs": [
        {
          "name": "",
          "type": "string"
        },
        {
          "name": "",
          "type": "uint256"
        }
      ],
      "name": "onSignUp",
      "outputs": [
        {
          "name": "",
          "type": "bool"
        }
      ],
      "payable": false,
      "stateMutability": "view",
      "type": "function"
    },
    {
      "inputs": [],
      "payable": false,
      "stateMutability": "nonpayable",
      "type": "constructor"
    },
    {
      "anonymous": false,
      "inputs": [
        {
          "indexed": true,
          "name": "ownerAddress",
          "type": "address"
        },
        {
          "indexed": false,
          "name": "hydroId",
          "type": "string"
        },
        {
          "indexed": false,
          "name": "claimedAddress",
          "type": "address"
        }
      ],
      "name": "AddressClaimed",
      "type": "event"
    },
    {
      "anonymous": false,
      "inputs": [
        {
          "indexed": true,
          "name": "ownerAddress",
          "type": "address"
        },
        {
          "indexed": false,
          "name": "hydroId",
          "type": "string"
        },
        {
          "indexed": false,
          "name": "unclaimedAddress",
          "type": "address"
        }
      ],
      "name": "AddressUnclaimed",
      "type": "event"
    },
    {
      "anonymous": false,
      "inputs": [
        {
          "indexed": true,
          "name": "previousOwner",
          "type": "address"
        },
        {
          "indexed": true,
          "name": "newOwner",
          "type": "address"
        }
      ],
      "name": "OwnershipTransferred",
      "type": "event"
    },
    {
      "constant": true,
      "inputs": [
        {
          "name": "hydroId",
          "type": "string"
        }
      ],
      "name": "ownedAddresses",
      "outputs": [
        {
          "name": "",
          "type": "address[]"
        }
      ],
      "payable": false,
      "stateMutability": "view",
      "type": "function"
    },
    {
      "constant": true,
      "inputs": [
        {
          "name": "hydroId",
          "type": "string"
        },
        {
          "name": "owned",
          "type": "address"
        }
      ],
      "name": "ownsAddress",
      "outputs": [
        {
          "name": "",
          "type": "bool"
        }
      ],
      "payable": false,
      "stateMutability": "view",
      "type": "function"
    },
    {
      "constant": false,
      "inputs": [
        {
          "name": "sealedClaim",
          "type": "bytes32"
        }
      ],
      "name": "initiateClaim",
      "outputs": [],
      "payable": false,
      "stateMutability": "nonpayable",
      "type": "function"
    },
    {
      "constant": false,
      "inputs": [
        {
          "name": "_address",
          "type": "address"
        },
        {
          "name": "v",
          "type": "uint8"
        },
        {
          "name": "r",
          "type": "bytes32"
        },
        {
          "name": "s",
          "type": "bytes32"
        },
        {
          "name": "secret",
          "type": "bytes32"
        }
      ],
      "name": "finalizeClaim",
      "outputs": [],
      "payable": false,
      "stateMutability": "nonpayable",
      "type": "function"
    },
    {
      "constant": false,
      "inputs": [
        {
          "name": "_address",
          "type": "address"
        }
      ],
      "name": "unclaimAddress",
      "outputs": [],
      "payable": false,
      "stateMutability": "nonpayable",
      "type": "function"
    },
    {
      "constant": true,
      "inputs": [
        {
          "name": "_address",
          "type": "address"
        },
        {
          "name": "messageHash",
          "type": "bytes32"
        },
        {
          "name": "v",
          "type": "uint8"
        },
        {
          "name": "r",
          "type": "bytes32"
        },
        {
          "name": "s",
          "type": "bytes32"
        }
      ],
      "name": "isSigned",
      "outputs": [
        {
          "name": "",
          "type": "bool"
        }
      ],
      "payable": false,
      "stateMutability": "pure",
      "type": "function"
    }
  ],
  "bytecode": "0x60806040523480156200001157600080fd5b5060008054600160a060020a031916331790556040805180820190915260118082527f41646472657373204f776e65727368697000000000000000000000000000000060209092019182526200006a916001916200010c565b50608060405190810160405280605281526020017f416c6c6f777320536e6f77666c616b6520686f6c6465727320746f20636c616981526020017f6d206f776e657273686970206f76657220616e79206e756d626572206f66204581526020017f7468657265756d206164647265737365732e000000000000000000000000000081525060029080519060200190620001059291906200010c565b50620001b1565b828054600181600116156101000203166002900490600052602060002090601f016020900481019282601f106200014f57805160ff19168380011785556200017f565b828001600101855582156200017f579182015b828111156200017f57825182559160200191906001019062000162565b506200018d92915062000191565b5090565b620001ae91905b808211156200018d576000815560010162000198565b90565b61175e80620001c16000396000f3006080604052600436106100c45763ffffffff7c010000000000000000000000000000000000000000000000000000000060003504166324c7160781146100c95780632a4c7c6d146100fb57806376acf1b6146101135780637e397b5c1461019d5780638677ebe81461021557806388cdab94146102455780638da5cb5b1461025a578063c979b05a1461028b578063ce602ec9146102ac578063d60b50e8146102cd578063f2fde38b14610376578063f9f451b814610397578063ff4cfa5e146103ac575b600080fd5b3480156100d557600080fd5b506100f9600160a060020a036004351660ff60243516604435606435608435610407565b005b34801561010757600080fd5b506100f9600435610a15565b34801561011f57600080fd5b50610128610caf565b6040805160208082528351818301528351919283929083019185019080838360005b8381101561016257818101518382015260200161014a565b50505050905090810190601f16801561018f5780820380516001836020036101000a031916815260200191505b509250505060405180910390f35b3480156101a957600080fd5b506040805160206004803580820135601f810184900484028501840190955284845261020194369492936024939284019190819084018382808284375094975050509235600160a060020a03169350610d3a92505050565b604080519115158252519081900360200190f35b34801561022157600080fd5b50610201600160a060020a036004351660243560ff60443516606435608435610e3e565b34801561025157600080fd5b50610128610e6a565b34801561026657600080fd5b5061026f610ec4565b60408051600160a060020a039092168252519081900360200190f35b34801561029757600080fd5b506100f9600160a060020a0360043516610ed3565b3480156102b857600080fd5b506100f9600160a060020a0360043516610f19565b3480156102d957600080fd5b506040805160206004803580820135601f81018490048402850184019095528484526103269436949293602493928401919081908401838280828437509497506113209650505050505050565b60408051602080825283518183015283519192839290830191858101910280838360005b8381101561036257818101518382015260200161034a565b505050509050019250505060405180910390f35b34801561038257600080fd5b506100f9600160a060020a03600435166113d8565b3480156103a357600080fd5b5061026f61146c565b3480156103b857600080fd5b506040805160206004803580820135601f8101849004840285018401909552848452610201943694929360249392840191908190840183828082843750949750509335945061147b9350505050565b600354604080517f99734fe40000000000000000000000000000000000000000000000000000000081523360048201529051600160a060020a039092169160609160009184916399734fe4916024808301928692919082900301818387803b15801561047257600080fd5b505af1158015610486573d6000803e3d6000fd5b505050506040513d6000823e601f3d908101601f1916820160405260208110156104af57600080fd5b8101908080516401000000008111156104c757600080fd5b820160208101848111156104da57600080fd5b81516401000000008111828201871017156104f457600080fd5b50509291905050509150878460405160200180807f4c696e6b204164647265737320746f20536e6f77666c616b650000000000000081525060190183600160a060020a0316600160a060020a03166c010000000000000000000000000281526014018260001916600019168152602001925050506040516020818303038152906040526040518082805190602001908083835b602083106105a65780518252601f199092019160209182019101610587565b51815160209384036101000a6000190180199092169116179052604051919093018190038120875190965087955090830193508392850191508083835b602083106106025780518252601f1990920191602091820191016105e3565b6001836020036101000a0380198251168184511680821785525050505050509050019150506040516020818303038152906040526040518082805190602001908083835b602083106106655780518252601f199092019160209182019101610646565b6001836020036101000a038019825116818451168082178552505050505050905001915050604051809103902060001916600460008360001916600019168152602001908152602001600020604051602001808280546001816001161561010002031660029004801561070f5780601f106106ed57610100808354040283529182019161070f565b820191906000526020600020905b8154815290600101906020018083116106fb575b50509150506040516020818303038152906040526040518082805190602001908083835b602083106107525780518252601f199092019160209182019101610733565b6001836020036101000a038019825116818451168082178552505050505050905001915050604051809103902060001916141515610800576040805160e560020a62461bcd02815260206004820152603260248201527f5468652073656e64696e6720536e6f77666c616b6520646964206e6f7420696e60448201527f697469617465207468697320636c61696d2e0000000000000000000000000000606482015290519081900360840190fd5b61080d8882898989610e3e565b1515610863576040805160e560020a62461bcd02815260206004820152601c60248201527f546865207369676e61747572652077617320696e636f72726563742e00000000604482015290519081900360640190fd5b6005826040518082805190602001908083835b602083106108955780518252601f199092019160209182019101610876565b51815160209384036101000a6000190180199092169116179052920194855250604080519485900390910184207fe843cfc10000000000000000000000000000000000000000000000000000000085526004850152600160a060020a038c1660248501525173__addressSet____________________________9363e843cfc193506044808201935060009291829003018186803b15801561093657600080fd5b505af415801561094a573d6000803e3d6000fd5b5050505033600160a060020a03167f247b63ca91b264fc6f1b756e2f76171f76d299a236e3d58a5d6fbe4b54a47e02838a604051808060200183600160a060020a0316600160a060020a03168152602001828103825284818151815260200191508051906020019080838360005b838110156109d05781810151838201526020016109b8565b50505050905090810190601f1680156109fd5780820380516001836020036101000a031916815260200191505b50935050505060405180910390a25050505050505050565b6000818152600460205260408120546060906002610100600183161502600019019091160415610ab5576040805160e560020a62461bcd02815260206004820152602d60248201527f54686973207365616c656420636c61696d2068617320616c726561647920626560448201527f656e207375626d69747465642e00000000000000000000000000000000000000606482015290519081900360840190fd5b600354604080517f99734fe40000000000000000000000000000000000000000000000000000000081523360048201529051600160a060020a03909216935083916399734fe49160248082019260009290919082900301818387803b158015610b1d57600080fd5b505af1158015610b31573d6000803e3d6000fd5b505050506040513d6000823e601f3d908101601f191682016040526020811015610b5a57600080fd5b810190808051640100000000811115610b7257600080fd5b82016020810184811115610b8557600080fd5b8151640100000000811182820187101715610b9f57600080fd5b505060008781526004602090815260409091208251929650610bc79550935085019150611697565b506005816040518082805190602001908083835b60208310610bfa5780518252601f199092019160209182019101610bdb565b51815160209384036101000a6000190180199092169116179052920194855250604080519485900390910184207fe843cfc100000000000000000000000000000000000000000000000000000000855260048501523360248501525173__addressSet____________________________9363e843cfc193506044808201935060009291829003018186803b158015610c9257600080fd5b505af4158015610ca6573d6000803e3d6000fd5b50505050505050565b6002805460408051602060018416156101000260001901909316849004601f81018490048402820184019092528181529291830182828015610d325780601f10610d0757610100808354040283529160200191610d32565b820191906000526020600020905b815481529060010190602001808311610d1557829003601f168201915b505050505081565b60006005836040518082805190602001908083835b60208310610d6e5780518252601f199092019160209182019101610d4f565b51815160209384036101000a60001901801990921691161790529201948552506040805194859003820185207fee8a71a00000000000000000000000000000000000000000000000000000000086526004860152600160a060020a03871660248601525173__addressSet____________________________9463ee8a71a094506044808201945090829003018186803b158015610e0b57600080fd5b505af4158015610e1f573d6000803e3d6000fd5b505050506040513d6020811015610e3557600080fd5b50519392505050565b6000610e4d868686868661149e565b80610e605750610e608686868686611523565b9695505050505050565b60018054604080516020600284861615610100026000190190941693909304601f81018490048402820184019092528181529291830182828015610d325780601f10610d0757610100808354040283529160200191610d32565b600054600160a060020a031681565b600054600160a060020a03163314610eea57600080fd5b6003805473ffffffffffffffffffffffffffffffffffffffff1916600160a060020a0392909216919091179055565b6000606033600160a060020a0384161415610f7e576040805160e560020a62461bcd02815260206004820181905260248201527f43616e6e6f7420756e636c61696d20796f7572206f776e20616464726573732e604482015290519081900360640190fd5b600354604080517f99734fe40000000000000000000000000000000000000000000000000000000081523360048201529051600160a060020a03909216935083916399734fe49160248082019260009290919082900301818387803b158015610fe657600080fd5b505af1158015610ffa573d6000803e3d6000fd5b505050506040513d6000823e601f3d908101601f19168201604052602081101561102357600080fd5b81019080805164010000000081111561103b57600080fd5b8201602081018481111561104e57600080fd5b815164010000000081118282018710171561106857600080fd5b505092919050505090506005816040518082805190602001908083835b602083106110a45780518252601f199092019160209182019101611085565b51815160209384036101000a60001901801990921691161790529201948552506040805194859003820185207fee8a71a00000000000000000000000000000000000000000000000000000000086526004860152600160a060020a03881660248601525173__addressSet____________________________9463ee8a71a094506044808201945090829003018186803b15801561114157600080fd5b505af4158015611155573d6000803e3d6000fd5b505050506040513d602081101561116b57600080fd5b50511561131b576005816040518082805190602001908083835b602083106111a45780518252601f199092019160209182019101611185565b51815160209384036101000a6000190180199092169116179052920194855250604080519485900390910184207fb65fd2940000000000000000000000000000000000000000000000000000000085526004850152600160a060020a03871660248501525173__addressSet____________________________9363b65fd29493506044808201935060009291829003018186803b15801561124557600080fd5b505af4158015611259573d6000803e3d6000fd5b5050505033600160a060020a03167f0751ae0c92aa3e356c0d223c4d5165d7a293de6fbb1a757bd74b54d00651af118285604051808060200183600160a060020a0316600160a060020a03168152602001828103825284818151815260200191508051906020019080838360005b838110156112df5781810151838201526020016112c7565b50505050905090810190601f16801561130c5780820380516001836020036101000a031916815260200191505b50935050505060405180910390a25b505050565b60606005826040518082805190602001908083835b602083106113545780518252601f199092019160209182019101611335565b51815160209384036101000a6000190180199092169116179052920194855250604080519485900382018520805480840287018401909252818652935091508301828280156113cc57602002820191906000526020600020905b8154600160a060020a031681526001909101906020018083116113ae575b50505050509050919050565b600054600160a060020a031633146113ef57600080fd5b600160a060020a038116151561140457600080fd5b60008054604051600160a060020a03808516939216917f8be0079c531659141344cd1fd0a4f28419497f9722a3daafe3b4186f6b6457e091a36000805473ffffffffffffffffffffffffffffffffffffffff1916600160a060020a0392909216919091179055565b600354600160a060020a031681565b600354600090600160a060020a0316331461149557600080fd5b50600192915050565b604080516000808252602080830180855288905260ff871683850152606083018690526080830185905292519092600160a060020a0389169260019260a08083019392601f19830192908190039091019087865af1158015611504573d6000803e3d6000fd5b50505060206040510351600160a060020a031614905095945050505050565b604080518082018252601c8082527f19457468657265756d205369676e6564204d6573736167653a0a33320000000060208084019182529351600094859385938b939092019182918083835b6020831061158e5780518252601f19909201916020918201910161156f565b51815160209384036101000a600019018019909216911617905292019384525060408051808503815293820190819052835193945092839250908401908083835b602083106115ee5780518252601f1990920191602091820191016115cf565b51815160209384036101000a600019018019909216911617905260408051929094018290038220600080845283830180875282905260ff8e1684870152606084018d9052608084018c90529451909750600160a060020a038f1696506001955060a080840195929450601f198201938290030191865af1158015611676573d6000803e3d6000fd5b50505060206040510351600160a060020a0316149250505095945050505050565b828054600181600116156101000203166002900490600052602060002090601f016020900481019282601f106116d857805160ff1916838001178555611705565b82800160010185558215611705579182015b828111156117055782518255916020019190600101906116ea565b50611711929150611715565b5090565b61172f91905b80821115611711576000815560010161171b565b905600a165627a7a72305820d570a22c9048dd7e49496a128091075914ea4987eb7d8855c316d96b223c0bdd0029",
  "source": "pragma solidity ^0.4.24;\n\nimport \"./SnowflakeResolver.sol\";\nimport \"../libraries/addressSet.sol\";\n\n\ncontract Snowflake {\n    function hasToken(address _address) public view returns (bool);\n    function getHydroId(address _address) public view returns (string hydroId);\n}\n\n\ncontract AddressOwnership is SnowflakeResolver {\n    using addressSet for addressSet._addressSet;\n\n    mapping (bytes32 => string) internal initiatedClaims;\n    mapping (string => addressSet._addressSet) internal snowflakeToOwnedAddresses;\n\n    constructor () public {\n        snowflakeName = \"Address Ownership\";\n        snowflakeDescription = \"Allows Snowflake holders to claim ownership over any number of Ethereum addresses.\";\n    }\n\n    // get list of all of a snowflake's owned addresses. does not throw for invalid inputs, just returns []\n    function ownedAddresses(string hydroId) public view returns (address[]) {\n        return snowflakeToOwnedAddresses[hydroId].members;\n    }\n\n    // queries the list of all of a snowflake's owned addresses. does not throw for invalid inputs, just returns false\n    function ownsAddress(string hydroId, address owned) public view returns (bool) {\n        return snowflakeToOwnedAddresses[hydroId].contains(owned);\n    }\n\n    // to claim an address, users need to send a transaction from their snowflake address containing a sealed claim\n    // sealedClaims are: keccak256(abi.encodePacked(\"Link Address to Snowflake\", <address>, <secret>)),\n    // where <address> is the address you'd like to claim, and <secret> is a SECRET bytes32 value.\n    function initiateClaim(bytes32 sealedClaim) public {\n        require(bytes(initiatedClaims[sealedClaim]).length == 0, \"This sealed claim has already been submitted.\");\n\n        Snowflake snowflake = Snowflake(snowflakeAddress);\n        string memory hydroId = snowflake.getHydroId(msg.sender);\n\n        initiatedClaims[sealedClaim] = hydroId;\n\n        // on first interaction, add the sending/snowflake address to the registry\n        snowflakeToOwnedAddresses[hydroId].insert(msg.sender);\n    }\n\n    // claims are finalized by submitting the plaintext values of the claim, as well as a signature of the claim, i.e.\n    // keccak256(abi.encodePacked(\"Link Address to Snowflake\", <address>, <secret>))\n    function finalizeClaim(address _address, uint8 v, bytes32 r, bytes32 s, bytes32 secret) public {\n        Snowflake snowflake = Snowflake(snowflakeAddress);\n        string memory hydroId = snowflake.getHydroId(msg.sender);\n\n        bytes32 claimedSealedBid = keccak256(abi.encodePacked(\"Link Address to Snowflake\", _address, secret));\n\n        require(\n            keccak256(abi.encodePacked(initiatedClaims[claimedSealedBid])) == keccak256(abi.encodePacked(hydroId)),\n            \"The sending Snowflake did not initiate this claim.\"\n        );\n        require(isSigned(_address, claimedSealedBid, v, r, s), \"The signature was incorrect.\");\n\n        snowflakeToOwnedAddresses[hydroId].insert(_address);\n        emit AddressClaimed(msg.sender, hydroId, _address);\n    }\n\n    function unclaimAddress(address _address) public {\n        require(msg.sender != _address, \"Cannot unclaim your own address.\");\n        Snowflake snowflake = Snowflake(snowflakeAddress);\n        string memory hydroId = snowflake.getHydroId(msg.sender);\n\n        if (snowflakeToOwnedAddresses[hydroId].contains(_address)) {\n            snowflakeToOwnedAddresses[hydroId].remove(_address);\n            emit AddressUnclaimed(msg.sender, hydroId, _address);\n        }\n    }\n\n    // Checks whether the provided (v, r, s) signature was created by the private key associated with _address\n    function isSigned(address _address, bytes32 messageHash, uint8 v, bytes32 r, bytes32 s) public pure returns (bool) {\n        return (_isSigned(_address, messageHash, v, r, s) || _isSignedPrefixed(_address, messageHash, v, r, s));\n    }\n\n    // Checks unprefixed signatures\n    function _isSigned(address _address, bytes32 messageHash, uint8 v, bytes32 r, bytes32 s)\n        internal\n        pure\n        returns (bool)\n    {\n        return ecrecover(messageHash, v, r, s) == _address;\n    }\n\n    // Checks prefixed signatures (e.g. those created with web3.eth.sign)\n    function _isSignedPrefixed(address _address, bytes32 messageHash, uint8 v, bytes32 r, bytes32 s)\n        internal\n        pure\n        returns (bool)\n    {\n        bytes memory prefix = \"\\x19Ethereum Signed Message:\\n32\";\n        bytes32 prefixedMessageHash = keccak256(abi.encodePacked(prefix, messageHash));\n\n        return ecrecover(prefixedMessageHash, v, r, s) == _address;\n    }\n\n    event AddressClaimed(address indexed ownerAddress, string hydroId, address claimedAddress);\n    event AddressUnclaimed(address indexed ownerAddress, string hydroId, address unclaimedAddress);\n}\n",
  "sourcePath": "/Users/noahzinsmeister/Documents/github/smart-contracts/snowflake/contracts/resolvers/AddressOwnership.sol",
  "compiler": {
    "name": "solc",
    "version": "0.4.24+commit.e67f0147.Emscripten.clang"
  },
  "schemaVersion": "2.0.1",
  "updatedAt": "2018-07-27T22:07:13.195Z"
}