{
  "contractName": "AddressOwnership",
  "abi": [
    {
      "constant": true,
      "inputs": [],
      "name": "owner",
      "outputs": [
        {
          "name": "",
          "type": "address"
        }
      ],
      "payable": false,
      "stateMutability": "view",
      "type": "function"
    },
    {
      "constant": false,
      "inputs": [
        {
          "name": "_address",
          "type": "address"
        }
      ],
      "name": "setSnowflakeAddress",
      "outputs": [],
      "payable": false,
      "stateMutability": "nonpayable",
      "type": "function"
    },
    {
      "constant": false,
      "inputs": [
        {
          "name": "newOwner",
          "type": "address"
        }
      ],
      "name": "transferOwnership",
      "outputs": [],
      "payable": false,
      "stateMutability": "nonpayable",
      "type": "function"
    },
    {
      "inputs": [],
      "payable": false,
      "stateMutability": "nonpayable",
      "type": "constructor"
    },
    {
      "anonymous": false,
      "inputs": [
        {
          "indexed": true,
          "name": "tokenId",
          "type": "uint256"
        },
        {
          "indexed": false,
          "name": "claimedAddress",
          "type": "address"
        }
      ],
      "name": "AddressClaimed",
      "type": "event"
    },
    {
      "anonymous": false,
      "inputs": [
        {
          "indexed": true,
          "name": "tokenId",
          "type": "uint256"
        },
        {
          "indexed": false,
          "name": "unclaimedAddress",
          "type": "address"
        }
      ],
      "name": "AddressUnclaimed",
      "type": "event"
    },
    {
      "anonymous": false,
      "inputs": [
        {
          "indexed": true,
          "name": "previousOwner",
          "type": "address"
        },
        {
          "indexed": true,
          "name": "newOwner",
          "type": "address"
        }
      ],
      "name": "OwnershipTransferred",
      "type": "event"
    },
    {
      "constant": true,
      "inputs": [
        {
          "name": "tokenId",
          "type": "uint256"
        }
      ],
      "name": "ownedAddresses",
      "outputs": [
        {
          "name": "",
          "type": "address[]"
        }
      ],
      "payable": false,
      "stateMutability": "view",
      "type": "function"
    },
    {
      "constant": true,
      "inputs": [
        {
          "name": "tokenId",
          "type": "uint256"
        },
        {
          "name": "_address",
          "type": "address"
        }
      ],
      "name": "ownsAddress",
      "outputs": [
        {
          "name": "",
          "type": "bool"
        }
      ],
      "payable": false,
      "stateMutability": "view",
      "type": "function"
    },
    {
      "constant": false,
      "inputs": [
        {
          "name": "sealedClaim",
          "type": "bytes32"
        }
      ],
      "name": "initiateClaim",
      "outputs": [],
      "payable": false,
      "stateMutability": "nonpayable",
      "type": "function"
    },
    {
      "constant": false,
      "inputs": [
        {
          "name": "_address",
          "type": "address"
        },
        {
          "name": "v",
          "type": "uint8"
        },
        {
          "name": "r",
          "type": "bytes32"
        },
        {
          "name": "s",
          "type": "bytes32"
        },
        {
          "name": "secret",
          "type": "bytes32"
        }
      ],
      "name": "finalizeClaim",
      "outputs": [],
      "payable": false,
      "stateMutability": "nonpayable",
      "type": "function"
    },
    {
      "constant": false,
      "inputs": [
        {
          "name": "_address",
          "type": "address"
        }
      ],
      "name": "unclaimAddress",
      "outputs": [],
      "payable": false,
      "stateMutability": "nonpayable",
      "type": "function"
    },
    {
      "constant": true,
      "inputs": [
        {
          "name": "_address",
          "type": "address"
        },
        {
          "name": "messageHash",
          "type": "bytes32"
        },
        {
          "name": "v",
          "type": "uint8"
        },
        {
          "name": "r",
          "type": "bytes32"
        },
        {
          "name": "s",
          "type": "bytes32"
        }
      ],
      "name": "isSigned",
      "outputs": [
        {
          "name": "",
          "type": "bool"
        }
      ],
      "payable": false,
      "stateMutability": "pure",
      "type": "function"
    }
  ],
  "bytecode": "0x608060405234801561001057600080fd5b5060008054600160a060020a031916331790556040805180820190915260118082527f41646472657373204f776e657273686970000000000000000000000000000000602090920191825261006791600191610106565b50608060405190810160405280605281526020017f416c6c6f777320536e6f77666c616b6520686f6c6465727320746f20636c616981526020017f6d206f776e657273686970206f76657220616e79206e756d626572206f66204581526020017f7468657265756d206164647265737365732e000000000000000000000000000081525060029080519060200190610100929190610106565b506101a1565b828054600181600116156101000203166002900490600052602060002090601f016020900481019282601f1061014757805160ff1916838001178555610174565b82800160010185558215610174579182015b82811115610174578251825591602001919060010190610159565b50610180929150610184565b5090565b61019e91905b80821115610180576000815560010161018a565b90565b610cd1806101b06000396000f3006080604052600436106100985763ffffffff7c01000000000000000000000000000000000000000000000000000000006000350416631292ee86811461009d57806324c71607146100d55780632a4c7c6d146101075780638677ebe81461011f5780638904b90f1461014f5780638da5cb5b146101b7578063c979b05a146101e8578063ce602ec914610209578063f2fde38b1461022a575b600080fd5b3480156100a957600080fd5b506100c1600435600160a060020a036024351661024b565b604080519115158252519081900360200190f35b3480156100e157600080fd5b50610105600160a060020a036004351660ff60243516604435606435608435610304565b005b34801561011357600080fd5b50610105600435610661565b34801561012b57600080fd5b506100c1600160a060020a036004351660243560ff604435166064356084356107b0565b34801561015b57600080fd5b506101676004356107dc565b60408051602080825283518183015283519192839290830191858101910280838360005b838110156101a357818101518382015260200161018b565b505050509050019250505060405180910390f35b3480156101c357600080fd5b506101cc610848565b60408051600160a060020a039092168252519081900360200190f35b3480156101f457600080fd5b50610105600160a060020a0360043516610857565b34801561021557600080fd5b50610105600160a060020a036004351661089d565b34801561023657600080fd5b50610105600160a060020a0360043516610a18565b600082815260056020908152604080832081517fee8a71a00000000000000000000000000000000000000000000000000000000081526004810191909152600160a060020a0385166024820152905173__addressSet____________________________9263ee8a71a09260448082019391829003018186803b1580156102d157600080fd5b505af41580156102e5573d6000803e3d6000fd5b505050506040513d60208110156102fb57600080fd5b50519392505050565b600354604080517ff15376860000000000000000000000000000000000000000000000000000000081523360048201529051600160a060020a03909216916000918291849163f153768691602480830192602092919082900301818787803b15801561036f57600080fd5b505af1158015610383573d6000803e3d6000fd5b505050506040513d602081101561039957600080fd5b5051604080517f4c696e6b204164647265737320746f20536e6f77666c616b65000000000000006020828101919091526c01000000000000000000000000600160a060020a038d16026039830152604d80830189905283518084039091018152606d909201928390528151939550909282918401908083835b602083106104315780518252601f199092019160209182019101610412565b51815160209384036101000a6000190180199092169116179052604080519290940182900390912060008181526004909252929020549194505084149150610502905057604080517f08c379a000000000000000000000000000000000000000000000000000000000815260206004820152603160248201527f54686520536e6f77666c616b6520646964206e6f7420696e697469617465207460448201527f686973207365616c656420636c61696d2e000000000000000000000000000000606482015290519081900360840190fd5b61050f88828989896107b0565b151561057c57604080517f08c379a000000000000000000000000000000000000000000000000000000000815260206004820152601c60248201527f546865207369676e61747572652077617320696e636f72726563742e00000000604482015290519081900360640190fd5b60008281526005602052604080822081517fe843cfc10000000000000000000000000000000000000000000000000000000081526004810191909152600160a060020a038b166024820152905173__addressSet____________________________9263e843cfc19260448082019391829003018186803b15801561060057600080fd5b505af4158015610614573d6000803e3d6000fd5b505060408051600160a060020a038c16815290518593507f066c064dd579bb1ade52ab7ffd13404145d9cbc5653fad41969240c073759df992509081900360200190a25050505050505050565b60008181526004602052604081205481901561070457604080517f08c379a000000000000000000000000000000000000000000000000000000000815260206004820152602d60248201527f54686973207365616c656420636c61696d2068617320616c726561647920626560448201527f656e207375626d69747465642e00000000000000000000000000000000000000606482015290519081900360840190fd5b600354604080517ff15376860000000000000000000000000000000000000000000000000000000081523360048201529051600160a060020a039092169350839163f1537686916024808201926020929091908290030181600087803b15801561076d57600080fd5b505af1158015610781573d6000803e3d6000fd5b505050506040513d602081101561079757600080fd5b5051600093845260046020526040909320929092555050565b60006107bf8686868686610aac565b806107d257506107d28686868686610b31565b9695505050505050565b60008181526005602090815260409182902080548351818402810184019094528084526060939283018282801561083c57602002820191906000526020600020905b8154600160a060020a0316815260019091019060200180831161081e575b50505050509050919050565b600054600160a060020a031681565b600054600160a060020a0316331461086e57600080fd5b6003805473ffffffffffffffffffffffffffffffffffffffff1916600160a060020a0392909216919091179055565b600354604080517ff15376860000000000000000000000000000000000000000000000000000000081523360048201529051600160a060020a0390921691600091839163f15376869160248082019260209290919082900301818787803b15801561090757600080fd5b505af115801561091b573d6000803e3d6000fd5b505050506040513d602081101561093157600080fd5b505160008181526005602052604080822081517fb65fd2940000000000000000000000000000000000000000000000000000000081526004810191909152600160a060020a0387166024820152905192935073__addressSet____________________________9263b65fd29492604480840193919291829003018186803b1580156109bc57600080fd5b505af41580156109d0573d6000803e3d6000fd5b505060408051600160a060020a038716815290518493507f96e60c533da2005918fa4872b3a0b318648e02346f1ad16fa1c4a372dad6e7ac92509081900360200190a2505050565b600054600160a060020a03163314610a2f57600080fd5b600160a060020a0381161515610a4457600080fd5b60008054604051600160a060020a03808516939216917f8be0079c531659141344cd1fd0a4f28419497f9722a3daafe3b4186f6b6457e091a36000805473ffffffffffffffffffffffffffffffffffffffff1916600160a060020a0392909216919091179055565b604080516000808252602080830180855288905260ff871683850152606083018690526080830185905292519092600160a060020a0389169260019260a08083019392601f19830192908190039091019087865af1158015610b12573d6000803e3d6000fd5b50505060206040510351600160a060020a031614905095945050505050565b604080518082018252601c8082527f19457468657265756d205369676e6564204d6573736167653a0a33320000000060208084019182529351600094859385938b939092019182918083835b60208310610b9c5780518252601f199092019160209182019101610b7d565b51815160209384036101000a600019018019909216911617905292019384525060408051808503815293820190819052835193945092839250908401908083835b60208310610bfc5780518252601f199092019160209182019101610bdd565b51815160209384036101000a600019018019909216911617905260408051929094018290038220600080845283830180875282905260ff8e1684870152606084018d9052608084018c90529451909750600160a060020a038f1696506001955060a080840195929450601f198201938290030191865af1158015610c84573d6000803e3d6000fd5b50505060206040510351600160a060020a03161492505050959450505050505600a165627a7a72305820c15dc17b6e6294e39b07f21d78003617416162d0568af331edbdd849a95f9b490029",
  "source": "pragma solidity ^0.4.24;\n\nimport \"./SnowflakeResolver.sol\";\nimport \"../libraries/addressSet.sol\";\n\n\ncontract Snowflake {\n    function getTokenId(address _address) public view returns (uint tokenId);\n}\n\n\ncontract AddressOwnership is SnowflakeResolver {\n    using addressSet for addressSet._addressSet;\n\n    mapping (bytes32 => uint) internal initiatedClaims;\n    mapping (uint => addressSet._addressSet) internal snowflakeToOwnedAddresses;\n\n    constructor () public {\n        snowflakeName = \"Address Ownership\";\n        snowflakeDescription = \"Allows Snowflake holders to claim ownership over any number of Ethereum addresses.\";\n    }\n\n    function ownedAddresses(uint tokenId) public view returns (address[]) {\n        return snowflakeToOwnedAddresses[tokenId].members;\n    }\n\n    function ownsAddress(uint tokenId, address _address) public view returns (bool) {\n        return snowflakeToOwnedAddresses[tokenId].contains(_address);\n    }\n\n    // to claim an address, users need to send a transaction from their snowflake address containing a sealed claim\n    // sealedClaims are: keccak256(abi.encodePacked(\"Link Address to Snowflake\", <address>, <secret>)),\n    // where <address> is the address you'd like to claim, and <secret> is a SECRET bytes32 value.\n    function initiateClaim(bytes32 sealedClaim) public {\n        require(initiatedClaims[sealedClaim] == 0, \"This sealed claim has already been submitted.\");\n\n        Snowflake snowflake = Snowflake(snowflakeAddress);\n        uint tokenId = snowflake.getTokenId(msg.sender);\n\n        initiatedClaims[sealedClaim] = tokenId;\n    }\n\n    // claims are finalized by submitting the plaintext values of the claim, as well as a signature of the claim, i.e.\n    // keccak256(abi.encodePacked(\"Link Address to Snowflake\", <address>, <secret>))\n    function finalizeClaim(address _address, uint8 v, bytes32 r, bytes32 s, bytes32 secret) public {\n        Snowflake snowflake = Snowflake(snowflakeAddress);\n        uint tokenId = snowflake.getTokenId(msg.sender);\n\n        bytes32 claimedSealedBid = keccak256(abi.encodePacked(\"Link Address to Snowflake\", _address, secret));\n\n        require(initiatedClaims[claimedSealedBid] == tokenId, \"The Snowflake did not initiate this sealed claim.\");\n        require(isSigned(_address, claimedSealedBid, v, r, s), \"The signature was incorrect.\");\n\n        snowflakeToOwnedAddresses[tokenId].insert(_address);\n        emit AddressClaimed(tokenId, _address);\n    }\n\n    function unclaimAddress(address _address) public {\n        Snowflake snowflake = Snowflake(snowflakeAddress);\n        uint tokenId = snowflake.getTokenId(msg.sender);\n\n        snowflakeToOwnedAddresses[tokenId].remove(_address);\n        emit AddressUnclaimed(tokenId, _address);\n    }\n\n    // Checks whether the provided (v, r, s) signature was created by the private key associated with _address\n    function isSigned(address _address, bytes32 messageHash, uint8 v, bytes32 r, bytes32 s) public pure returns (bool) {\n        return (_isSigned(_address, messageHash, v, r, s) || _isSignedPrefixed(_address, messageHash, v, r, s));\n    }\n\n    // Checks unprefixed signatures\n    function _isSigned(address _address, bytes32 messageHash, uint8 v, bytes32 r, bytes32 s)\n        internal\n        pure\n        returns (bool)\n    {\n        return ecrecover(messageHash, v, r, s) == _address;\n    }\n\n    // Checks prefixed signatures (e.g. those created with web3.eth.sign)\n    function _isSignedPrefixed(address _address, bytes32 messageHash, uint8 v, bytes32 r, bytes32 s)\n        internal\n        pure\n        returns (bool)\n    {\n        bytes memory prefix = \"\\x19Ethereum Signed Message:\\n32\";\n        bytes32 prefixedMessageHash = keccak256(abi.encodePacked(prefix, messageHash));\n\n        return ecrecover(prefixedMessageHash, v, r, s) == _address;\n    }\n\n    event AddressClaimed(uint indexed tokenId, address claimedAddress);\n    event AddressUnclaimed(uint indexed tokenId, address unclaimedAddress);\n}\n",
  "sourcePath": "/Users/noahzinsmeister/Documents/github/smart-contracts/snowflake/contracts/resolvers/AddressOwnership.sol",
  "compiler": {
    "name": "solc",
    "version": "0.4.24+commit.e67f0147.Emscripten.clang"
  },
  "schemaVersion": "2.0.0",
  "updatedAt": "2018-06-26T20:50:46.599Z"
}