{
  "contractName": "bytes32Set",
  "abi": [
    {
      "constant": false,
      "inputs": [
        {
          "name": "self",
          "type": "bytes32Set._bytes32Set storage"
        },
        {
          "name": "other",
          "type": "bytes32"
        }
      ],
      "name": "insert",
      "outputs": [],
      "payable": false,
      "stateMutability": "nonpayable",
      "type": "function"
    },
    {
      "constant": false,
      "inputs": [
        {
          "name": "self",
          "type": "bytes32Set._bytes32Set storage"
        },
        {
          "name": "other",
          "type": "bytes32"
        }
      ],
      "name": "remove",
      "outputs": [],
      "payable": false,
      "stateMutability": "nonpayable",
      "type": "function"
    },
    {
      "constant": true,
      "inputs": [
        {
          "name": "self",
          "type": "bytes32Set._bytes32Set storage"
        },
        {
          "name": "other",
          "type": "bytes32"
        }
      ],
      "name": "contains",
      "outputs": [
        {
          "name": "",
          "type": "bool"
        }
      ],
      "payable": false,
      "stateMutability": "view",
      "type": "function"
    },
    {
      "constant": true,
      "inputs": [
        {
          "name": "self",
          "type": "bytes32Set._bytes32Set storage"
        }
      ],
      "name": "length",
      "outputs": [
        {
          "name": "",
          "type": "uint256"
        }
      ],
      "payable": false,
      "stateMutability": "view",
      "type": "function"
    }
  ],
  "bytecode": "0x61027b610030600b82828239805160001a6073146000811461002057610022565bfe5b5030600052607381538281f30073000000000000000000000000000000000000000030146080604052600436106100785763ffffffff7c010000000000000000000000000000000000000000000000000000000060003504166336c26aef811461007d5780638a620f511461009a5780638ac6ba9a146100bc578063c17764bb146100d7575b600080fd5b81801561008957600080fd5b506100986004356024356100f4565b005b6100a8600435602435610193565b604080519115158252519081900360200190f35b8180156100c857600080fd5b506100986004356024356101aa565b6100e2600435610201565b60408051918252519081900360200190f35b6000806101018484610193565b1561018d57600083815260018086016020526040909120549250849061012682610201565b0381548110151561013357fe5b9060005260206000200154905080846000016001840381548110151561015557fe5b6000918252602090912001558354610171856000198301610205565b5060008181526001850160205260408082208490558482528120555b50505050565b600090815260019190910160205260408120541190565b6101b48282610193565b15156101fd576000196101c683610201565b106101cd57fe5b8154600181018355600083815260209020018190556101eb82610201565b60008281526001840160205260409020555b5050565b5490565b8154818355818111156102295760008381526020902061022991810190830161022e565b505050565b61024c91905b808211156102485760008155600101610234565b5090565b905600a165627a7a723058202fa58d916fa29f69753fbf9b9dce236bd9e33a1ecf944b094591851ea6e0e5fa0029",
  "source": "pragma solidity ^0.4.23;\n\n\nlibrary bytes32Set {\n    struct _bytes32Set {\n        bytes32[] members;\n        mapping(bytes32 => uint) memberIndices;\n    }\n\n    function insert(_bytes32Set storage self, bytes32 other) public {\n        if (!contains(self, other)) {\n            assert(length(self) < 2**256-1);\n            self.members.push(other);\n            self.memberIndices[other] = length(self);\n        }\n    }\n\n    function remove(_bytes32Set storage self, bytes32 other) public {\n        if (contains(self, other)) {\n            uint replaceIndex = self.memberIndices[other];\n            bytes32 lastMember = self.members[length(self)-1];\n            // overwrite other with the last member and remove last member\n            self.members[replaceIndex-1] = lastMember;\n            self.members.length--;\n            // reflect this change in the indices\n            self.memberIndices[lastMember] = replaceIndex;\n            delete self.memberIndices[other];\n        }\n    }\n\n    function contains(_bytes32Set storage self, bytes32 other) public view returns (bool) {\n        return self.memberIndices[other] > 0;\n    }\n\n    function length(_bytes32Set storage self) public view returns (uint) {\n        return self.members.length;\n    }\n}\n",
  "sourcePath": "/Users/noahzinsmeister/Documents/github/smart-contracts/snowflake/contracts/libraries/bytes32Set.sol",
  "compiler": {
    "name": "solc",
    "version": "0.4.24+commit.e67f0147.Emscripten.clang"
  },
  "schemaVersion": "2.0.1",
  "updatedAt": "2018-07-27T22:07:13.194Z"
}