{
  "contractName": "DummyResolver",
  "abi": [
    {
      "constant": true,
      "inputs": [],
      "name": "snowflakeDescription",
      "outputs": [
        {
          "name": "",
          "type": "string"
        }
      ],
      "payable": false,
      "stateMutability": "view",
      "type": "function"
    },
    {
      "constant": true,
      "inputs": [],
      "name": "snowflakeName",
      "outputs": [
        {
          "name": "",
          "type": "string"
        }
      ],
      "payable": false,
      "stateMutability": "view",
      "type": "function"
    },
    {
      "constant": true,
      "inputs": [],
      "name": "owner",
      "outputs": [
        {
          "name": "",
          "type": "address"
        }
      ],
      "payable": false,
      "stateMutability": "view",
      "type": "function"
    },
    {
      "constant": true,
      "inputs": [],
      "name": "callOnRemoval",
      "outputs": [
        {
          "name": "",
          "type": "bool"
        }
      ],
      "payable": false,
      "stateMutability": "view",
      "type": "function"
    },
    {
      "constant": false,
      "inputs": [
        {
          "name": "_address",
          "type": "address"
        }
      ],
      "name": "setSnowflakeAddress",
      "outputs": [],
      "payable": false,
      "stateMutability": "nonpayable",
      "type": "function"
    },
    {
      "constant": true,
      "inputs": [],
      "name": "callOnSignUp",
      "outputs": [
        {
          "name": "",
          "type": "bool"
        }
      ],
      "payable": false,
      "stateMutability": "view",
      "type": "function"
    },
    {
      "constant": false,
      "inputs": [
        {
          "name": "newOwner",
          "type": "address"
        }
      ],
      "name": "transferOwnership",
      "outputs": [],
      "payable": false,
      "stateMutability": "nonpayable",
      "type": "function"
    },
    {
      "constant": true,
      "inputs": [],
      "name": "snowflakeAddress",
      "outputs": [
        {
          "name": "",
          "type": "address"
        }
      ],
      "payable": false,
      "stateMutability": "view",
      "type": "function"
    },
    {
      "inputs": [],
      "payable": false,
      "stateMutability": "nonpayable",
      "type": "constructor"
    },
    {
      "anonymous": false,
      "inputs": [
        {
          "indexed": true,
          "name": "previousOwner",
          "type": "address"
        },
        {
          "indexed": true,
          "name": "newOwner",
          "type": "address"
        }
      ],
      "name": "OwnershipTransferred",
      "type": "event"
    },
    {
      "constant": false,
      "inputs": [
        {
          "name": "hydroId",
          "type": "string"
        },
        {
          "name": "allowance",
          "type": "uint256"
        }
      ],
      "name": "onSignUp",
      "outputs": [
        {
          "name": "",
          "type": "bool"
        }
      ],
      "payable": false,
      "stateMutability": "nonpayable",
      "type": "function"
    },
    {
      "constant": false,
      "inputs": [
        {
          "name": "hydroId",
          "type": "string"
        },
        {
          "name": "amount",
          "type": "uint256"
        }
      ],
      "name": "withdrawFrom",
      "outputs": [],
      "payable": false,
      "stateMutability": "nonpayable",
      "type": "function"
    }
  ],
  "bytecode": "0x608060405234801561001057600080fd5b5060008054600160a060020a0319163317905560408051808201909152600e8082527f44756d6d79205265736f6c766572000000000000000000000000000000000000602090920191825261006791600191610101565b506040805160608101825260268082527f5468697320697320616e206578616d706c6520536e6f77666c616b6520726573602083019081527f6f6c7665722e000000000000000000000000000000000000000000000000000092909301919091526100d491600291610101565b506003805460a060020a60ff0219167401000000000000000000000000000000000000000017905561019c565b828054600181600116156101000203166002900490600052602060002090601f016020900481019282601f1061014257805160ff191683800117855561016f565b8280016001018555821561016f579182015b8281111561016f578251825591602001919060010190610154565b5061017b92915061017f565b5090565b61019991905b8082111561017b5760008155600101610185565b90565b610837806101ab6000396000f3006080604052600436106100a35763ffffffff7c010000000000000000000000000000000000000000000000000000000060003504166376acf1b681146100a857806386587e971461013257806388cdab941461018f5780638da5cb5b146101a45780638f06492d146101d5578063c979b05a146101fe578063d42e87ed1461021f578063f2fde38b14610234578063f9f451b814610255578063ff4cfa5e1461026a575b600080fd5b3480156100b457600080fd5b506100bd6102c5565b6040805160208082528351818301528351919283929083019185019080838360005b838110156100f75781810151838201526020016100df565b50505050905090810190601f1680156101245780820380516001836020036101000a031916815260200191505b509250505060405180910390f35b34801561013e57600080fd5b506040805160206004803580820135601f810184900484028501840190955284845261018d94369492936024939284019190819084018382808284375094975050933594506103509350505050565b005b34801561019b57600080fd5b506100bd6104eb565b3480156101b057600080fd5b506101b9610545565b60408051600160a060020a039092168252519081900360200190f35b3480156101e157600080fd5b506101ea610554565b604080519115158252519081900360200190f35b34801561020a57600080fd5b5061018d600160a060020a0360043516610576565b34801561022b57600080fd5b506101ea6105bc565b34801561024057600080fd5b5061018d600160a060020a03600435166105dd565b34801561026157600080fd5b506101b9610671565b34801561027657600080fd5b506040805160206004803580820135601f81018490048402850184019095528484526101ea94369492936024939284019190819084018382808284375094975050933594506106809350505050565b6002805460408051602060018416156101000260001901909316849004601f810184900484028201840190925281815292918301828280156103485780601f1061031d57610100808354040283529160200191610348565b820191906000526020600020905b81548152906001019060200180831161032b57829003601f168201915b505050505081565b60008054600160a060020a0316331461036857600080fd5b50600354600080546040517f698afd98000000000000000000000000000000000000000000000000000000008152600160a060020a0391821660248201819052604482018690526060600483019081528751606484015287519390951694859463698afd98948994899392839260849092019160208801918190849084905b838110156103ff5781810151838201526020016103e7565b50505050905090810190601f16801561042c5780820380516001836020036101000a031916815260200191505b50945050505050602060405180830381600087803b15801561044d57600080fd5b505af1158015610461573d6000803e3d6000fd5b505050506040513d602081101561047757600080fd5b505115156104e657604080517f08c379a000000000000000000000000000000000000000000000000000000000815260206004820152601960248201527f416d6f756e7420776173206e6f742077697468647261776e2e00000000000000604482015290519081900360640190fd5b505050565b60018054604080516020600284861615610100026000190190941693909304601f810184900484028201840190925281815292918301828280156103485780601f1061031d57610100808354040283529160200191610348565b600054600160a060020a031681565b6003547501000000000000000000000000000000000000000000900460ff1681565b600054600160a060020a0316331461058d57600080fd5b6003805473ffffffffffffffffffffffffffffffffffffffff1916600160a060020a0392909216919091179055565b60035474010000000000000000000000000000000000000000900460ff1681565b600054600160a060020a031633146105f457600080fd5b600160a060020a038116151561060957600080fd5b60008054604051600160a060020a03808516939216917f8be0079c531659141344cd1fd0a4f28419497f9722a3daafe3b4186f6b6457e091a36000805473ffffffffffffffffffffffffffffffffffffffff1916600160a060020a0392909216919091179055565b600354600160a060020a031681565b600354600090600160a060020a0316331461072257604080517f08c379a000000000000000000000000000000000000000000000000000000000815260206004820152602160248201527f446964206e6f74206f726967696e6174652066726f6d20536e6f77666c616b6560448201527f2e00000000000000000000000000000000000000000000000000000000000000606482015290519081900360840190fd5b6000821161079157604080517f08c379a000000000000000000000000000000000000000000000000000000000815260206004820152601660248201527f4d7573742073657420616e20616c6c6f77616e63652e00000000000000000000604482015290519081900360640190fd5b60016004846040518082805190602001908083835b602083106107c55780518252601f1990920191602091820191016107a6565b51815160209384036101000a60001901801990921691161790529201948552506040519384900301909220805460ff1916931515939093179092555060019493505050505600a165627a7a72305820036dd3fe2f3f738c07533ce0e4d337688d2f803c7c388e974980f5c3a0708c2f0029",
  "source": "pragma solidity ^0.4.24;\n\nimport \"./SnowflakeResolver.sol\";\n\n\ncontract Snowflake {\n    function withdrawFrom(string hydroIdFrom, address to, uint amount) public returns (bool);\n}\n\n\ncontract DummyResolver is SnowflakeResolver {\n    mapping (string => bool) internal signedUp;\n\n    constructor () public {\n        snowflakeName = \"Dummy Resolver\";\n        snowflakeDescription = \"This is an example Snowflake resolver.\";\n        callOnSignUp = true;\n    }\n\n    // implement signup function\n    function onSignUp(string hydroId, uint allowance) public returns (bool) {\n        require(msg.sender == snowflakeAddress, \"Did not originate from Snowflake.\");\n        require(allowance > 0, \"Must set an allowance.\");\n        signedUp[hydroId] = true;\n        return true;\n    }\n\n    // example function that calls withdraw on a linked hydroID\n    function withdrawFrom(string hydroId, uint amount) public onlyOwner {\n        Snowflake snowflake = Snowflake(snowflakeAddress);\n        require(snowflake.withdrawFrom(hydroId, owner, amount), \"Amount was not withdrawn.\");\n    }\n}\n",
  "sourcePath": "/Users/noahzinsmeister/Documents/github/smart-contracts/snowflake/contracts/resolvers/DummyResolver.sol",
  "compiler": {
    "name": "solc",
    "version": "0.4.24+commit.e67f0147.Emscripten.clang"
  },
  "schemaVersion": "2.0.1",
  "updatedAt": "2018-08-21T17:35:34.044Z"
}