{
  "contractName": "DummyResolver",
  "abi": [
    {
      "constant": true,
      "inputs": [],
      "name": "snowflakeDescription",
      "outputs": [
        {
          "name": "",
          "type": "string"
        }
      ],
      "payable": false,
      "stateMutability": "view",
      "type": "function"
    },
    {
      "constant": true,
      "inputs": [],
      "name": "snowflakeName",
      "outputs": [
        {
          "name": "",
          "type": "string"
        }
      ],
      "payable": false,
      "stateMutability": "view",
      "type": "function"
    },
    {
      "constant": true,
      "inputs": [],
      "name": "owner",
      "outputs": [
        {
          "name": "",
          "type": "address"
        }
      ],
      "payable": false,
      "stateMutability": "view",
      "type": "function"
    },
    {
      "constant": false,
      "inputs": [
        {
          "name": "_address",
          "type": "address"
        }
      ],
      "name": "setSnowflakeAddress",
      "outputs": [],
      "payable": false,
      "stateMutability": "nonpayable",
      "type": "function"
    },
    {
      "constant": false,
      "inputs": [
        {
          "name": "newOwner",
          "type": "address"
        }
      ],
      "name": "transferOwnership",
      "outputs": [],
      "payable": false,
      "stateMutability": "nonpayable",
      "type": "function"
    },
    {
      "constant": true,
      "inputs": [],
      "name": "snowflakeAddress",
      "outputs": [
        {
          "name": "",
          "type": "address"
        }
      ],
      "payable": false,
      "stateMutability": "view",
      "type": "function"
    },
    {
      "inputs": [],
      "payable": false,
      "stateMutability": "nonpayable",
      "type": "constructor"
    },
    {
      "anonymous": false,
      "inputs": [
        {
          "indexed": true,
          "name": "previousOwner",
          "type": "address"
        },
        {
          "indexed": true,
          "name": "newOwner",
          "type": "address"
        }
      ],
      "name": "OwnershipTransferred",
      "type": "event"
    },
    {
      "constant": false,
      "inputs": [
        {
          "name": "hydroId",
          "type": "string"
        },
        {
          "name": "allowance",
          "type": "uint256"
        }
      ],
      "name": "onSignUp",
      "outputs": [
        {
          "name": "",
          "type": "bool"
        }
      ],
      "payable": false,
      "stateMutability": "nonpayable",
      "type": "function"
    },
    {
      "constant": false,
      "inputs": [
        {
          "name": "hydroId",
          "type": "string"
        },
        {
          "name": "amount",
          "type": "uint256"
        }
      ],
      "name": "withdrawFrom",
      "outputs": [],
      "payable": false,
      "stateMutability": "nonpayable",
      "type": "function"
    }
  ],
  "bytecode": "0x608060405234801561001057600080fd5b5060008054600160a060020a0319163317905560408051808201909152600e8082527f44756d6d79205265736f6c7665720000000000000000000000000000000000006020909201918252610067916001916100da565b506040805160608101825260268082527f5468697320697320616e206578616d706c6520536e6f77666c616b6520726573602083019081527f6f6c7665722e000000000000000000000000000000000000000000000000000092909301919091526100d4916002916100da565b50610175565b828054600181600116156101000203166002900490600052602060002090601f016020900481019282601f1061011b57805160ff1916838001178555610148565b82800160010185558215610148579182015b8281111561014857825182559160200191906001019061012d565b50610154929150610158565b5090565b61017291905b80821115610154576000815560010161015e565b90565b610752806101846000396000f30060806040526004361061008d5763ffffffff7c010000000000000000000000000000000000000000000000000000000060003504166376acf1b6811461009257806386587e971461011c57806388cdab94146101795780638da5cb5b1461018e578063c979b05a146101bf578063f2fde38b146101e0578063f9f451b814610201578063ff4cfa5e14610216575b600080fd5b34801561009e57600080fd5b506100a7610285565b6040805160208082528351818301528351919283929083019185019080838360005b838110156100e15781810151838201526020016100c9565b50505050905090810190601f16801561010e5780820380516001836020036101000a031916815260200191505b509250505060405180910390f35b34801561012857600080fd5b506040805160206004803580820135601f810184900484028501840190955284845261017794369492936024939284019190819084018382808284375094975050933594506103109350505050565b005b34801561018557600080fd5b506100a7610449565b34801561019a57600080fd5b506101a36104a3565b60408051600160a060020a039092168252519081900360200190f35b3480156101cb57600080fd5b50610177600160a060020a03600435166104b2565b3480156101ec57600080fd5b50610177600160a060020a03600435166104f8565b34801561020d57600080fd5b506101a361058c565b34801561022257600080fd5b506040805160206004803580820135601f8101849004840285018401909552848452610271943694929360249392840191908190840183828082843750949750509335945061059b9350505050565b604080519115158252519081900360200190f35b6002805460408051602060018416156101000260001901909316849004601f810184900484028201840190925281815292918301828280156103085780601f106102dd57610100808354040283529160200191610308565b820191906000526020600020905b8154815290600101906020018083116102eb57829003601f168201915b505050505081565b60008054600160a060020a0316331461032857600080fd5b50600354600080546040517f698afd98000000000000000000000000000000000000000000000000000000008152600160a060020a0391821660248201819052604482018690526060600483019081528751606484015287519390951694859463698afd98948994899392839260849092019160208801918190849084905b838110156103bf5781810151838201526020016103a7565b50505050905090810190601f1680156103ec5780820380516001836020036101000a031916815260200191505b50945050505050602060405180830381600087803b15801561040d57600080fd5b505af1158015610421573d6000803e3d6000fd5b505050506040513d602081101561043757600080fd5b5051151561044457600080fd5b505050565b60018054604080516020600284861615610100026000190190941693909304601f810184900484028201840190925281815292918301828280156103085780601f106102dd57610100808354040283529160200191610308565b600054600160a060020a031681565b600054600160a060020a031633146104c957600080fd5b6003805473ffffffffffffffffffffffffffffffffffffffff1916600160a060020a0392909216919091179055565b600054600160a060020a0316331461050f57600080fd5b600160a060020a038116151561052457600080fd5b60008054604051600160a060020a03808516939216917f8be0079c531659141344cd1fd0a4f28419497f9722a3daafe3b4186f6b6457e091a36000805473ffffffffffffffffffffffffffffffffffffffff1916600160a060020a0392909216919091179055565b600354600160a060020a031681565b600354600090600160a060020a0316331461063d57604080517f08c379a000000000000000000000000000000000000000000000000000000000815260206004820152602160248201527f446964206e6f74206f726967696e6174652066726f6d20536e6f77666c616b6560448201527f2e00000000000000000000000000000000000000000000000000000000000000606482015290519081900360840190fd5b600082116106ac57604080517f08c379a000000000000000000000000000000000000000000000000000000000815260206004820152601660248201527f4d7573742073657420616e20616c6c6f77616e63652e00000000000000000000604482015290519081900360640190fd5b60016004846040518082805190602001908083835b602083106106e05780518252601f1990920191602091820191016106c1565b51815160209384036101000a60001901801990921691161790529201948552506040519384900301909220805460ff1916931515939093179092555060019493505050505600a165627a7a72305820e653ca1d900c51fcf5c52bb9e6eaf9ed0333488e80a937d3f8270e59a4530caf0029",
  "source": "pragma solidity ^0.4.24;\n\nimport \"./SnowflakeResolver.sol\";\n\n\ncontract Snowflake {\n    function withdrawFrom(string hydroIdFrom, address to, uint amount) public returns (bool);\n}\n\n\ncontract DummyResolver is SnowflakeResolver {\n    mapping (string => bool) internal signedUp;\n\n    constructor () public {\n        snowflakeName = \"Dummy Resolver\";\n        snowflakeDescription = \"This is an example Snowflake resolver.\";\n    }\n\n    // implement signup function\n    function onSignUp(string hydroId, uint allowance) public returns (bool) {\n        require(msg.sender == snowflakeAddress, \"Did not originate from Snowflake.\");\n        require(allowance > 0, \"Must set an allowance.\");\n        signedUp[hydroId] = true;\n        return true;\n    }\n\n    // example function that calls withdraw on a linked hydroID\n    function withdrawFrom(string hydroId, uint amount) public onlyOwner {\n        Snowflake snowflake = Snowflake(snowflakeAddress);\n        require(snowflake.withdrawFrom(hydroId, owner, amount));\n    }\n}\n",
  "sourcePath": "/Users/noahzinsmeister/Documents/github/smart-contracts/snowflake/contracts/resolvers/DummyResolver.sol",
  "compiler": {
    "name": "solc",
    "version": "0.4.24+commit.e67f0147.Emscripten.clang"
  },
  "schemaVersion": "2.0.1",
  "updatedAt": "2018-08-10T20:14:16.756Z"
}