{
  "contractName": "HydroKYC",
  "abi": [
    {
      "constant": true,
      "inputs": [],
      "name": "snowflakeDescription",
      "outputs": [
        {
          "name": "",
          "type": "string"
        }
      ],
      "payable": false,
      "stateMutability": "view",
      "type": "function"
    },
    {
      "constant": true,
      "inputs": [],
      "name": "snowflakeName",
      "outputs": [
        {
          "name": "",
          "type": "string"
        }
      ],
      "payable": false,
      "stateMutability": "view",
      "type": "function"
    },
    {
      "constant": true,
      "inputs": [],
      "name": "owner",
      "outputs": [
        {
          "name": "",
          "type": "address"
        }
      ],
      "payable": false,
      "stateMutability": "view",
      "type": "function"
    },
    {
      "constant": false,
      "inputs": [
        {
          "name": "_address",
          "type": "address"
        }
      ],
      "name": "setSnowflakeAddress",
      "outputs": [],
      "payable": false,
      "stateMutability": "nonpayable",
      "type": "function"
    },
    {
      "constant": false,
      "inputs": [
        {
          "name": "newOwner",
          "type": "address"
        }
      ],
      "name": "transferOwnership",
      "outputs": [],
      "payable": false,
      "stateMutability": "nonpayable",
      "type": "function"
    },
    {
      "constant": true,
      "inputs": [],
      "name": "snowflakeAddress",
      "outputs": [
        {
          "name": "",
          "type": "address"
        }
      ],
      "payable": false,
      "stateMutability": "view",
      "type": "function"
    },
    {
      "anonymous": false,
      "inputs": [
        {
          "indexed": true,
          "name": "previousOwner",
          "type": "address"
        },
        {
          "indexed": true,
          "name": "newOwner",
          "type": "address"
        }
      ],
      "name": "OwnershipTransferred",
      "type": "event"
    },
    {
      "constant": false,
      "inputs": [
        {
          "name": "_standard",
          "type": "bytes32"
        }
      ],
      "name": "addKYCStandard",
      "outputs": [],
      "payable": false,
      "stateMutability": "nonpayable",
      "type": "function"
    },
    {
      "constant": false,
      "inputs": [
        {
          "name": "_standard",
          "type": "bytes32"
        },
        {
          "name": "_id",
          "type": "uint256"
        }
      ],
      "name": "attestToUsersKYC",
      "outputs": [],
      "payable": false,
      "stateMutability": "nonpayable",
      "type": "function"
    },
    {
      "constant": true,
      "inputs": [
        {
          "name": "_standard",
          "type": "bytes32"
        },
        {
          "name": "_id",
          "type": "uint256"
        }
      ],
      "name": "getAttestationsToUser",
      "outputs": [
        {
          "name": "",
          "type": "address[]"
        }
      ],
      "payable": false,
      "stateMutability": "view",
      "type": "function"
    },
    {
      "constant": true,
      "inputs": [
        {
          "name": "_standard",
          "type": "bytes32"
        },
        {
          "name": "_id",
          "type": "uint256"
        }
      ],
      "name": "getAttestationCountToUser",
      "outputs": [
        {
          "name": "",
          "type": "uint256"
        }
      ],
      "payable": false,
      "stateMutability": "view",
      "type": "function"
    },
    {
      "constant": true,
      "inputs": [
        {
          "name": "_standard",
          "type": "bytes32"
        },
        {
          "name": "_id",
          "type": "uint256"
        },
        {
          "name": "_attester",
          "type": "address"
        }
      ],
      "name": "getTimeOfAttestation",
      "outputs": [
        {
          "name": "",
          "type": "uint256"
        }
      ],
      "payable": false,
      "stateMutability": "view",
      "type": "function"
    }
  ],
  "bytecode": "0x608060405260008054600160a060020a031916331790556116ab806100256000396000f3006080604052600436106100955763ffffffff60e060020a60003504166332e15a49811461009a57806376acf1b6146100b7578063785b35511461014157806388cdab941461017a5780638da5cb5b1461018f578063c979b05a146101c0578063d4494113146101e1578063dad9b2811461024c578063dd56592c14610264578063f2fde38b1461027f578063f9f451b8146102a0575b600080fd5b3480156100a657600080fd5b506100b56004356024356102b5565b005b3480156100c357600080fd5b506100cc610894565b6040805160208082528351818301528351919283929083019185019080838360005b838110156101065781810151838201526020016100ee565b50505050905090810190601f1680156101335780820380516001836020036101000a031916815260200191505b509250505060405180910390f35b34801561014d57600080fd5b50610168600435602435600160a060020a036044351661091f565b60408051918252519081900360200190f35b34801561018657600080fd5b506100cc610d0f565b34801561019b57600080fd5b506101a4610d69565b60408051600160a060020a039092168252519081900360200190f35b3480156101cc57600080fd5b506100b5600160a060020a0360043516610d78565b3480156101ed57600080fd5b506101fc600435602435610dbe565b60408051602080825283518183015283519192839290830191858101910280838360005b83811015610238578181015183820152602001610220565b505050509050019250505060405180910390f35b34801561025857600080fd5b506100b56004356110ab565b34801561027057600080fd5b5061016860043560243561120c565b34801561028b57600080fd5b506100b5600160a060020a03600435166114a5565b3480156102ac57600080fd5b506101a4611539565b6000806102c0611548565b6003546040805160e160020a62491fcf028152600481018790529051600160a060020a039092169450849162923f9e916024808201926020929091908290030181600087803b15801561031257600080fd5b505af1158015610326573d6000803e3d6000fd5b505050506040513d602081101561033c57600080fd5b5051151561038f576040805160e560020a62461bcd0281526020600482015260216024820152600080516020611660833981519152604482015260f960020a601702606482015290519081900360840190fd5b6040805160e060020a638a620f5102815260048181015260248101879052905173__bytes32Set____________________________91638a620f51916044808301926020929190829003018186803b1580156103ea57600080fd5b505af41580156103fe573d6000803e3d6000fd5b505050506040513d602081101561041457600080fd5b5051151561046e576040805160e560020a62461bcd02815260206004820152603d60248201526000805160206116408339815191526044820152600080516020611620833981519152606482015290519081900360840190fd5b600084815260066020908152604080832088845260010190915281205411156106f1576000848152600660208181526040808420898552600181018352908420549388905291905280549193509060001984019081106104ca57fe5b906000526020600020906004020160020173__addressSet____________________________63ee8a71a09091336040518363ffffffff1660e060020a0281526004018083815260200182600160a060020a0316600160a060020a031681526020019250505060206040518083038186803b15801561054857600080fd5b505af415801561055c573d6000803e3d6000fd5b505050506040513d602081101561057257600080fd5b5051156105fc576040805160e560020a62461bcd02815260206004820152604160248201527f5468697320616464726573732068617320616c7265616479206174746573746560448201527f64207468697320757365722f7374616e6461726420636f6d62696e6174696f6e606482015260f960020a601702608482015290519081900360a40190fd5b60008481526006602052604090208054600019840190811061061a57fe5b906000526020600020906004020160020173__addressSet____________________________63e843cfc19091336040518363ffffffff1660e060020a0281526004018083815260200182600160a060020a0316600160a060020a031681526020019250505060006040518083038186803b15801561069857600080fd5b505af41580156106ac573d6000803e3d6000fd5b5050506000858152600660205260409020805443925060001985019081106106d057fe5b6000918252602080832033845260049092029091019052604090205561088d565b6000848152600660209081526040822080546001818101808455928552938390208551600490920201938401558382015180518051929486949093600285019261073f928492910190611567565b5050506000878152600660205260409020805493955092600019860192508210905061076757fe5b906000526020600020906004020160020173__addressSet____________________________63e843cfc19091336040518363ffffffff1660e060020a0281526004018083815260200182600160a060020a0316600160a060020a031681526020019250505060006040518083038186803b1580156107e557600080fd5b505af41580156107f9573d6000803e3d6000fd5b50505060008581526006602052604090208054879250600019850190811061081d57fe5b60009182526020808320600160049093020191909101929092558581526006909152604090208054439190600019850190811061085657fe5b6000918252602080832033845260049092029091018152604080832093909355868252600681528282208883526001019052208290555b5050505050565b6002805460408051602060018416156101000260001901909316849004601f810184900484028201840190925281815292918301828280156109175780601f106108ec57610100808354040283529160200191610917565b820191906000526020600020905b8154815290600101906020018083116108fa57829003601f168201915b505050505081565b6003546040805160e160020a62491fcf028152600481018590529051600092600160a060020a0316918391839162923f9e91602480830192602092919082900301818787803b15801561097157600080fd5b505af1158015610985573d6000803e3d6000fd5b505050506040513d602081101561099b57600080fd5b505115156109ee576040805160e560020a62461bcd0281526020600482015260216024820152600080516020611660833981519152604482015260f960020a601702606482015290519081900360840190fd5b6040805160e060020a638a620f5102815260048181015260248101889052905173__bytes32Set____________________________91638a620f51916044808301926020929190829003018186803b158015610a4957600080fd5b505af4158015610a5d573d6000803e3d6000fd5b505050506040513d6020811015610a7357600080fd5b50511515610acd576040805160e560020a62461bcd02815260206004820152603d60248201526000805160206116408339815191526044820152600080516020611620833981519152606482015290519081900360840190fd5b600085815260066020908152604080832089845260010190915281205411610b65576040805160e560020a62461bcd02815260206004820152602960248201527f54686973207374616e64617264206973206e6f7420706173736564206279207460448201527f68697320757365722e0000000000000000000000000000000000000000000000606482015290519081900360840190fd5b506000848152600660208181526040808420898552600181018352908420549388905291905280546000198301908110610b9b57fe5b906000526020600020906004020160020173__addressSet____________________________63ee8a71a09091866040518363ffffffff1660e060020a0281526004018083815260200182600160a060020a0316600160a060020a031681526020019250505060206040518083038186803b158015610c1957600080fd5b505af4158015610c2d573d6000803e3d6000fd5b505050506040513d6020811015610c4357600080fd5b50511515610cc1576040805160e560020a62461bcd02815260206004820152603460248201527f54686520676976656e206164647265737320686173206e6f742061747465737460448201527f656420746f2074686973207374616e646172642e000000000000000000000000606482015290519081900360840190fd5b600085815260066020526040902080546000198301908110610cdf57fe5b60009182526020808320600160a060020a0388168452600490920290910190526040902054925050509392505050565b60018054604080516020600284861615610100026000190190941693909304601f810184900484028201840190925281815292918301828280156109175780601f106108ec57610100808354040283529160200191610917565b600054600160a060020a031681565b600054600160a060020a03163314610d8f57600080fd5b6003805473ffffffffffffffffffffffffffffffffffffffff1916600160a060020a0392909216919091179055565b6003546040805160e160020a62491fcf028152600481018490529051606092600160a060020a031691600091839162923f9e91602480830192602092919082900301818787803b158015610e1157600080fd5b505af1158015610e25573d6000803e3d6000fd5b505050506040513d6020811015610e3b57600080fd5b50511515610e8e576040805160e560020a62461bcd0281526020600482015260216024820152600080516020611660833981519152604482015260f960020a601702606482015290519081900360840190fd5b6040805160e060020a638a620f5102815260048181015260248101879052905173__bytes32Set____________________________91638a620f51916044808301926020929190829003018186803b158015610ee957600080fd5b505af4158015610efd573d6000803e3d6000fd5b505050506040513d6020811015610f1357600080fd5b50511515610f6d576040805160e560020a62461bcd02815260206004820152603d60248201526000805160206116408339815191526044820152600080516020611620833981519152606482015290519081900360840190fd5b600084815260066020908152604080832088845260010190915281205411611005576040805160e560020a62461bcd02815260206004820152602960248201527f54686973207374616e64617264206973206e6f7420706173736564206279207460448201527f68697320757365722e0000000000000000000000000000000000000000000000606482015290519081900360840190fd5b50600083815260066020818152604080842088855260018101835290842054938790529190528054600019830190811061103b57fe5b6000918252602091829020600260049092020101805460408051828502810185019091528181529283018282801561109c57602002820191906000526020600020905b8154600160a060020a0316815260019091019060200180831161107e575b50505050509250505092915050565b6040805160e060020a638a620f5102815260048181015260248101839052905173__bytes32Set____________________________91638a620f51916044808301926020929190829003018186803b15801561110657600080fd5b505af415801561111a573d6000803e3d6000fd5b505050506040513d602081101561113057600080fd5b505115611187576040805160e560020a62461bcd02815260206004820152601f60248201527f54686973207374616e6461726420697320616c72656164792061646465642e00604482015290519081900360640190fd5b604080517f8ac6ba9a00000000000000000000000000000000000000000000000000000000815260048181015260248101839052905173__bytes32Set____________________________91638ac6ba9a916044808301926000929190829003018186803b1580156111f857600080fd5b505af415801561088d573d6000803e3d6000fd5b6003546040805160e160020a62491fcf028152600481018490529051600092600160a060020a0316918391839162923f9e91602480830192602092919082900301818787803b15801561125e57600080fd5b505af1158015611272573d6000803e3d6000fd5b505050506040513d602081101561128857600080fd5b505115156112db576040805160e560020a62461bcd0281526020600482015260216024820152600080516020611660833981519152604482015260f960020a601702606482015290519081900360840190fd5b6040805160e060020a638a620f5102815260048181015260248101879052905173__bytes32Set____________________________91638a620f51916044808301926020929190829003018186803b15801561133657600080fd5b505af415801561134a573d6000803e3d6000fd5b505050506040513d602081101561136057600080fd5b505115156113ba576040805160e560020a62461bcd02815260206004820152603d60248201526000805160206116408339815191526044820152600080516020611620833981519152606482015290519081900360840190fd5b600084815260066020908152604080832088845260010190915281205411611452576040805160e560020a62461bcd02815260206004820152602960248201527f54686973207374616e64617264206973206e6f7420706173736564206279207460448201527f68697320757365722e0000000000000000000000000000000000000000000000606482015290519081900360840190fd5b50600083815260066020818152604080842088855260018101835290842054938790529190528054600019830190811061148857fe5b600091825260209091206004909102016002015495945050505050565b600054600160a060020a031633146114bc57600080fd5b600160a060020a03811615156114d157600080fd5b60008054604051600160a060020a03808516939216917f8be0079c531659141344cd1fd0a4f28419497f9722a3daafe3b4186f6b6457e091a36000805473ffffffffffffffffffffffffffffffffffffffff1916600160a060020a0392909216919091179055565b600354600160a060020a031681565b6040805180820190915260008152602081016115626115d9565b905290565b8280548282559060005260206000209081019282156115c9579160200282015b828111156115c9578251825473ffffffffffffffffffffffffffffffffffffffff1916600160a060020a03909116178255602090920191600190910190611587565b506115d59291506115eb565b5090565b60408051602081019091526060815290565b61161c91905b808211156115d557805473ffffffffffffffffffffffffffffffffffffffff191681556001016115f1565b90560020657869737420696e2074686520736d61727420636f6e74726163742e00000054686973207374616e6461726420646f6573206e6f742063757272656e746c795468697320736e6f77666c616b6520696420646f6573206e6f74206578697374a165627a7a72305820a9a1a416207cb0654b39e55d2e11b1861eadb206feb106c179114dedc3c810950029",
  "source": "pragma solidity ^0.4.24;\n\nimport \"./SnowflakeResolver.sol\";\nimport \"../libraries/bytes32Set.sol\";\nimport \"../libraries/addressSet.sol\";\n\ncontract Snowflake {\n    function tokenExists(uint _tokenId) public view returns(bool);\n}\n\ncontract HydroKYC is SnowflakeResolver {\n  using bytes32Set for bytes32Set._bytes32Set;\n  using addressSet for addressSet._addressSet;\n\n  bytes32Set._bytes32Set internal KYCStandards;\n\n  struct KYCSet {\n    passedKYC[] passedStandards;\n    mapping(bytes32 => uint) standardLookup;\n  }\n\n  struct passedKYC {\n    mapping(address => uint) attestersToBlockNumber;\n    bytes32 standard;\n    addressSet._addressSet attesters;\n  }\n\n  mapping (uint => KYCSet) internal usersToKYC;\n\n  function addKYCStandard(bytes32 _standard) public {\n    require(!KYCStandards.contains(_standard), \"This standard is already added.\");\n    KYCStandards.insert(_standard);\n  }\n\n  function attestToUsersKYC(bytes32 _standard, uint _id) public {\n    Snowflake snowflake = Snowflake(snowflakeAddress);\n    require(snowflake.tokenExists(_id), \"This snowflake id does not exist.\");\n    require(KYCStandards.contains(_standard), \"This standard does not currently exist in the smart contract.\");\n    uint membersId;\n    if (usersToKYC[_id].standardLookup[_standard] > 0){\n      membersId = usersToKYC[_id].standardLookup[_standard];\n\n      require(!usersToKYC[_id].passedStandards[membersId - 1].attesters.contains(msg.sender), \"This address has already attested this user/standard combination.\");\n\n      usersToKYC[_id].passedStandards[membersId - 1].attesters.insert(msg.sender);\n      usersToKYC[_id].passedStandards[membersId - 1].attestersToBlockNumber[msg.sender] = block.number;\n    } else {\n      passedKYC memory kyc;\n      membersId = usersToKYC[_id].passedStandards.push(kyc);\n      usersToKYC[_id].passedStandards[membersId - 1].attesters.insert(msg.sender);\n      usersToKYC[_id].passedStandards[membersId - 1].standard = _standard;\n      usersToKYC[_id].passedStandards[membersId - 1].attestersToBlockNumber[msg.sender] = block.number;\n      usersToKYC[_id].standardLookup[_standard] = membersId;\n    }\n  }\n\n  function getAttestationsToUser(bytes32 _standard, uint _id) public view returns(address[]) {\n    Snowflake snowflake = Snowflake(snowflakeAddress);\n    require(snowflake.tokenExists(_id), \"This snowflake id does not exist.\");\n    require(KYCStandards.contains(_standard), \"This standard does not currently exist in the smart contract.\");\n    require(usersToKYC[_id].standardLookup[_standard] > 0, \"This standard is not passed by this user.\");\n\n    uint membersId = usersToKYC[_id].standardLookup[_standard];\n    return usersToKYC[_id].passedStandards[membersId - 1].attesters.members;\n  }\n\n  function getAttestationCountToUser(bytes32 _standard, uint _id) public view returns(uint) {\n    Snowflake snowflake = Snowflake(snowflakeAddress);\n    require(snowflake.tokenExists(_id), \"This snowflake id does not exist.\");\n    require(KYCStandards.contains(_standard), \"This standard does not currently exist in the smart contract.\");\n    require(usersToKYC[_id].standardLookup[_standard] > 0, \"This standard is not passed by this user.\");\n\n    uint membersId = usersToKYC[_id].standardLookup[_standard];\n    return usersToKYC[_id].passedStandards[membersId - 1].attesters.members.length;\n  }\n\n  function getTimeOfAttestation(bytes32 _standard, uint _id, address _attester) public view returns(uint) {\n    Snowflake snowflake = Snowflake(snowflakeAddress);\n    require(snowflake.tokenExists(_id), \"This snowflake id does not exist.\");\n    require(KYCStandards.contains(_standard), \"This standard does not currently exist in the smart contract.\");\n    require(usersToKYC[_id].standardLookup[_standard] > 0, \"This standard is not passed by this user.\");\n\n    uint membersId = usersToKYC[_id].standardLookup[_standard];\n\n    require(usersToKYC[_id].passedStandards[membersId - 1].attesters.contains(_attester), \"The given address has not attested to this standard.\");\n\n    return usersToKYC[_id].passedStandards[membersId - 1].attestersToBlockNumber[_attester];\n  }\n\n  function getEmptyAddressSet() internal pure returns (addressSet._addressSet memory) {\n    addressSet._addressSet memory empty;\n    return empty;\n  }\n\n}\n",
  "sourcePath": "/Users/noahzinsmeister/Documents/github/smart-contracts/snowflake/contracts/resolvers/HydroKYC.sol",
  "compiler": {
    "name": "solc",
    "version": "0.4.24+commit.e67f0147.Emscripten.clang"
  },
  "schemaVersion": "2.0.1",
  "updatedAt": "2018-07-10T18:56:11.570Z"
}