{
  "contractName": "HydroReputation",
  "abi": [
    {
      "constant": true,
      "inputs": [],
      "name": "owner",
      "outputs": [
        {
          "name": "",
          "type": "address"
        }
      ],
      "payable": false,
      "stateMutability": "view",
      "type": "function"
    },
    {
      "constant": false,
      "inputs": [
        {
          "name": "_address",
          "type": "address"
        }
      ],
      "name": "setSnowflakeAddress",
      "outputs": [],
      "payable": false,
      "stateMutability": "nonpayable",
      "type": "function"
    },
    {
      "constant": true,
      "inputs": [
        {
          "name": "",
          "type": "address"
        },
        {
          "name": "",
          "type": "uint256"
        }
      ],
      "name": "addedReputationsList",
      "outputs": [
        {
          "name": "",
          "type": "string"
        }
      ],
      "payable": false,
      "stateMutability": "view",
      "type": "function"
    },
    {
      "constant": false,
      "inputs": [
        {
          "name": "newOwner",
          "type": "address"
        }
      ],
      "name": "transferOwnership",
      "outputs": [],
      "payable": false,
      "stateMutability": "nonpayable",
      "type": "function"
    },
    {
      "anonymous": false,
      "inputs": [
        {
          "indexed": true,
          "name": "previousOwner",
          "type": "address"
        },
        {
          "indexed": true,
          "name": "newOwner",
          "type": "address"
        }
      ],
      "name": "OwnershipTransferred",
      "type": "event"
    },
    {
      "constant": false,
      "inputs": [],
      "name": "joinHydroReputation",
      "outputs": [],
      "payable": false,
      "stateMutability": "nonpayable",
      "type": "function"
    },
    {
      "constant": false,
      "inputs": [
        {
          "name": "_field",
          "type": "string"
        }
      ],
      "name": "addReputationField",
      "outputs": [],
      "payable": false,
      "stateMutability": "nonpayable",
      "type": "function"
    },
    {
      "constant": false,
      "inputs": [
        {
          "name": "_user",
          "type": "address"
        },
        {
          "name": "_field",
          "type": "string"
        }
      ],
      "name": "attestToReputation",
      "outputs": [],
      "payable": false,
      "stateMutability": "nonpayable",
      "type": "function"
    },
    {
      "constant": true,
      "inputs": [
        {
          "name": "_user",
          "type": "address"
        },
        {
          "name": "_field",
          "type": "string"
        }
      ],
      "name": "getReputation",
      "outputs": [
        {
          "name": "",
          "type": "uint256"
        }
      ],
      "payable": false,
      "stateMutability": "view",
      "type": "function"
    },
    {
      "constant": true,
      "inputs": [
        {
          "name": "_user",
          "type": "address"
        },
        {
          "name": "_field",
          "type": "string"
        }
      ],
      "name": "getReputationList",
      "outputs": [
        {
          "name": "",
          "type": "address[]"
        }
      ],
      "payable": false,
      "stateMutability": "view",
      "type": "function"
    },
    {
      "constant": true,
      "inputs": [
        {
          "name": "_user",
          "type": "address"
        },
        {
          "name": "_field",
          "type": "string"
        },
        {
          "name": "_index",
          "type": "uint256"
        }
      ],
      "name": "getReputationIndividual",
      "outputs": [
        {
          "name": "",
          "type": "address"
        }
      ],
      "payable": false,
      "stateMutability": "view",
      "type": "function"
    },
    {
      "constant": true,
      "inputs": [
        {
          "name": "_user",
          "type": "address"
        },
        {
          "name": "_field",
          "type": "string"
        }
      ],
      "name": "alreadyAttested",
      "outputs": [
        {
          "name": "",
          "type": "bool"
        }
      ],
      "payable": false,
      "stateMutability": "view",
      "type": "function"
    },
    {
      "constant": true,
      "inputs": [
        {
          "name": "_user",
          "type": "address"
        },
        {
          "name": "_field",
          "type": "string"
        }
      ],
      "name": "addedRepLookup",
      "outputs": [
        {
          "name": "",
          "type": "uint256"
        }
      ],
      "payable": false,
      "stateMutability": "view",
      "type": "function"
    }
  ],
  "bytecode": "0x608060405260008054600160a060020a0319163317905561195b806100256000396000f3006080604052600436106100b95763ffffffff7c01000000000000000000000000000000000000000000000000000000006000350416633279af3c81146100be57806341046c1c146101375780634c4f3473146101b25780635f53a354146101c95780638da5cb5b14610230578063c6ad6cf214610261578063c979b05a146102ba578063d5fc6484146102db578063ea05eeb914610374578063eb2a7d93146103db578063f1ab638914610492578063f2fde38b146104fb575b600080fd5b3480156100ca57600080fd5b5060408051602060046024803582810135601f8101859004850286018501909652858552610125958335600160a060020a031695369560449491939091019190819084018382808284375094975061051c9650505050505050565b60408051918252519081900360200190f35b34801561014357600080fd5b5060408051602060046024803582810135601f810185900485028601850190965285855261019e958335600160a060020a03169536956044949193909101919081908401838280828437509497506107049650505050505050565b604080519115158252519081900360200190f35b3480156101be57600080fd5b506101c76107c8565b005b3480156101d557600080fd5b5060408051602060046024803582810135601f81018590048502860185019096528585526101c7958335600160a060020a03169536956044949193909101919081908401838280828437509497506108729650505050505050565b34801561023c57600080fd5b50610245610cc3565b60408051600160a060020a039092168252519081900360200190f35b34801561026d57600080fd5b506040805160206004803580820135601f81018490048402850184019095528484526101c7943694929360249392840191908190840183828082843750949750610cd29650505050505050565b3480156102c657600080fd5b506101c7600160a060020a03600435166110b5565b3480156102e757600080fd5b506102ff600160a060020a03600435166024356110fb565b6040805160208082528351818301528351919283929083019185019080838360005b83811015610339578181015183820152602001610321565b50505050905090810190601f1680156103665780820380516001836020036101000a031916815260200191505b509250505060405180910390f35b34801561038057600080fd5b5060408051602060046024803582810135601f8101859004850286018501909652858552610125958335600160a060020a03169536956044949193909101919081908401838280828437509497506111b19650505050505050565b3480156103e757600080fd5b5060408051602060046024803582810135601f8101859004850286018501909652858552610442958335600160a060020a03169536956044949193909101919081908401838280828437509497506112319650505050505050565b60408051602080825283518183015283519192839290830191858101910280838360005b8381101561047e578181015183820152602001610466565b505050509050019250505060405180910390f35b34801561049e57600080fd5b5060408051602060046024803582810135601f8101859004850286018501909652858552610245958335600160a060020a0316953695604494919390910191908190840183828082843750949750509335945061146e9350505050565b34801561050757600080fd5b506101c7600160a060020a03600435166116ef565b600160a060020a0382166000908152600460205260408120548190151561058f576040805160e560020a62461bcd02815260206004820152602a60248201526000805160206118f08339815191526044820152600080516020611910833981519152606482015290519081900360840190fd5b600160a060020a0384166000908152600660209081526040808320905186519192879282918401908083835b602083106105da5780518252601f1990920191602091820191016105bb565b51815160209384036101000a60001901801990921691161790529201948552506040519384900301909220549290921191506106509050576040805160e560020a62461bcd02815260206004820152601e60248201526000805160206118d0833981519152604482015290519081900360640190fd5b6004600085600160a060020a0316600160a060020a03168152602001908152602001600020600201836040518082805190602001908083835b602083106106a85780518252601f199092019160209182019101610689565b51815160209384036101000a600019018019909216911617905292019485525060405193849003019092206001015460078054919450925083915081106106eb57fe5b6000918252602090912060029091020154949350505050565b600060076004600085600160a060020a0316600160a060020a03168152602001908152602001600020600201836040518082805190602001908083835b602083106107605780518252601f199092019160209182019101610741565b51815160209384036101000a600019018019909216911617905292019485525060405193849003019092206001015483549092508210905061079e57fe5b600091825260208083203384526002929092029091016001019052604090205460ff169392505050565b600354604080517f0ce5aeef0000000000000000000000000000000000000000000000000000000081523360048201529051600160a060020a03909216916000918391630ce5aeef9160248082019260209290919082900301818787803b15801561083257600080fd5b505af1158015610846573d6000803e3d6000fd5b505050506040513d602081101561085c57600080fd5b5051336000908152600460205260409020555050565b3360009081526004602052604081205481901515610900576040805160e560020a62461bcd02815260206004820152602560248201527f596f75206d757374206a6f696e207468652072657075746174696f6e2070726f60448201527f6772616d2e000000000000000000000000000000000000000000000000000000606482015290519081900360840190fd5b600160a060020a0384166000908152600460205260409020541515610971576040805160e560020a62461bcd02815260206004820152602a60248201526000805160206118f08339815191526044820152600080516020611910833981519152606482015290519081900360840190fd5b600160a060020a0384166000908152600660209081526040808320905186519192879282918401908083835b602083106109bc5780518252601f19909201916020918201910161099d565b51815160209384036101000a6000190180199092169116179052920194855250604051938490030190922054929092119150610a329050576040805160e560020a62461bcd02815260206004820152601e60248201526000805160206118d0833981519152604482015290519081900360640190fd5b60076004600086600160a060020a0316600160a060020a03168152602001908152602001600020600201846040518082805190602001908083835b60208310610a8c5780518252601f199092019160209182019101610a6d565b51815160209384036101000a6000190180199092169116179052920194855250604051938490030190922060010154835490925082109050610aca57fe5b600091825260208083203384526001600290930201919091019052604090205460ff1615610b68576040805160e560020a62461bcd02815260206004820152602560248201527f596f75206861766520616c72656164792061747465737465642074686973206660448201527f69656c642e000000000000000000000000000000000000000000000000000000606482015290519081900360840190fd5b60016006600086600160a060020a0316600160a060020a03168152602001908152602001600020846040518082805190602001908083835b60208310610bbf5780518252601f199092019160209182019101610ba0565b51815160209384036101000a60001901801990921691161790529201948552506040805194859003820190942054600160a060020a038a16600090815260049092529390206001018054949093039550919285925082109050610c1e57fe5b9060005260206000209060020201600101549050600781815481101515610c4157fe5b6000918252602080832060029092029091018054600181810183559184529190922001805473ffffffffffffffffffffffffffffffffffffffff1916331790556007805483908110610c8f57fe5b60009182526020808320338452600292909202909101600101905260409020805460ff191691151591909117905550505050565b600054600160a060020a031681565b6000610cdc611783565b336000908152600460205260408120541515610d68576040805160e560020a62461bcd02815260206004820152602560248201527f596f75206d757374206a6f696e207468652072657075746174696f6e2070726f60448201527f6772616d2e000000000000000000000000000000000000000000000000000000606482015290519081900360840190fd5b336000908152600660209081526040918290209151865187928291908401908083835b60208310610daa5780518252601f199092019160209182019101610d8b565b51815160209384036101000a6000190180199092169116179052920194855250604051938490030190922054159150610e1d9050576040805160e560020a62461bcd02815260206004820152601e60248201526000805160206118d0833981519152604482015290519081900360640190fd5b33600090815260056020908152604082208054600181018083559184529282902087519193610e529391019190880190611795565b509250826006600033600160a060020a0316600160a060020a03168152602001908152602001600020856040518082805190602001908083835b60208310610eab5780518252601f199092019160209182019101610e8c565b51815160001960209485036101000a019081169019919091161790529201948552506040519384900381019093209390935550600780546001818101808455600093909352865180519195509293879360029093027fa66cc928b5edb82af9bd49922954155ab7b0942694bea4ce44661d9a8736c6880192610f339284929190910190611813565b505033600090815260046020908152604080832081518083019092528a8252959094038482018190526001958601805496870180825590845292829020855180519298509396600202019350610f8c9284920190611795565b506020918201516001909101553360009081526004825260409081902090518751889450600290920192849282918401908083835b60208310610fe05780518252601f199092019160209182019101610fc1565b51815160209384036101000a600019018019909216911617905292019485525060405193849003810190932084516110219591949190910192509050611795565b50806004600033600160a060020a0316600160a060020a03168152602001908152602001600020600201856040518082805190602001908083835b6020831061107b5780518252601f19909201916020918201910161105c565b51815160209384036101000a6000190180199092169116179052920194855250604051938490030190922060010192909255505050505050565b600054600160a060020a031633146110cc57600080fd5b6003805473ffffffffffffffffffffffffffffffffffffffff1916600160a060020a0392909216919091179055565b60056020528160005260406000208181548110151561111657fe5b600091825260209182902001805460408051601f600260001961010060018716150201909416939093049283018590048502810185019091528181529450909250908301828280156111a95780601f1061117e576101008083540402835291602001916111a9565b820191906000526020600020905b81548152906001019060200180831161118c57829003601f168201915b505050505081565b600160a060020a0382166000908152600660209081526040808320905184519192859282918401908083835b602083106111fc5780518252601f1990920191602091820191016111dd565b51815160209384036101000a600019018019909216911617905292019485525060405193849003019092205495945050505050565b600160a060020a0382166000908152600460205260408120546060919015156112a6576040805160e560020a62461bcd02815260206004820152602a60248201526000805160206118f08339815191526044820152600080516020611910833981519152606482015290519081900360840190fd5b600160a060020a0384166000908152600660209081526040808320905186519192879282918401908083835b602083106112f15780518252601f1990920191602091820191016112d2565b51815160209384036101000a60001901801990921691161790529201948552506040519384900301909220549290921191506113679050576040805160e560020a62461bcd02815260206004820152601e60248201526000805160206118d0833981519152604482015290519081900360640190fd5b6004600085600160a060020a0316600160a060020a03168152602001908152602001600020600201836040518082805190602001908083835b602083106113bf5780518252601f1990920191602091820191016113a0565b51815160209384036101000a6000190180199092169116179052920194855250604051938490030190922060010154600780549194509250839150811061140257fe5b6000918252602091829020600290910201805460408051828502810185019091528181529283018282801561146057602002820191906000526020600020905b8154600160a060020a03168152600190910190602001808311611442575b505050505091505092915050565b600160a060020a038316600090815260046020526040812054819015156114e1576040805160e560020a62461bcd02815260206004820152602a60248201526000805160206118f08339815191526044820152600080516020611910833981519152606482015290519081900360840190fd5b600160a060020a0385166000908152600660209081526040808320905187519192889282918401908083835b6020831061152c5780518252601f19909201916020918201910161150d565b51815160209384036101000a60001901801990921691161790529201948552506040519384900301909220549290921191506115a29050576040805160e560020a62461bcd02815260206004820152601e60248201526000805160206118d0833981519152604482015290519081900360640190fd5b826007828154811015156115b257fe5b600091825260209091206002909102015411611618576040805160e560020a62461bcd02815260206004820152601860248201527f5468697320697320616e20696e76616c696420696e6465780000000000000000604482015290519081900360640190fd5b6004600086600160a060020a0316600160a060020a03168152602001908152602001600020600201846040518082805190602001908083835b602083106116705780518252601f199092019160209182019101611651565b51815160209384036101000a600019018019909216911617905292019485525060405193849003019092206001015460078054919450925083915081106116b357fe5b9060005260206000209060020201600001838154811015156116d157fe5b600091825260209091200154600160a060020a031695945050505050565b600054600160a060020a0316331461170657600080fd5b600160a060020a038116151561171b57600080fd5b60008054604051600160a060020a03808516939216917f8be0079c531659141344cd1fd0a4f28419497f9722a3daafe3b4186f6b6457e091a36000805473ffffffffffffffffffffffffffffffffffffffff1916600160a060020a0392909216919091179055565b60408051602081019091526060815290565b828054600181600116156101000203166002900490600052602060002090601f016020900481019282601f106117d657805160ff1916838001178555611803565b82800160010185558215611803579182015b828111156118035782518255916020019190600101906117e8565b5061180f929150611881565b5090565b828054828255906000526020600020908101928215611875579160200282015b82811115611875578251825473ffffffffffffffffffffffffffffffffffffffff1916600160a060020a03909116178255602090920191600190910190611833565b5061180f92915061189e565b61189b91905b8082111561180f5760008155600101611887565b90565b61189b91905b8082111561180f57805473ffffffffffffffffffffffffffffffffffffffff191681556001016118a4560054686973206669656c6420686173206e6f74206265656e2061646465642e00005468652075736572206d757374206a6f696e207468652072657075746174696f6e2070726f6772616d2e00000000000000000000000000000000000000000000a165627a7a723058200fd41d2a8716a3a75991b3145b014a7c42a54ac2447ef6e7d10ce8e9e45afb160029",
  "source": "pragma solidity ^0.4.23;\n\nimport \"./SnowflakeResolver.sol\";\n\ncontract Snowflake {\n    function ownerToToken(address _sender) public view returns(uint256);\n}\n\ncontract HydroReputation is SnowflakeResolver {\n\n    struct AddressGroup {\n        address[] addressList;\n        mapping (address => bool) addressLookup;\n    }\n\n    mapping (address => Reputation) internal reputationList;\n    mapping (address => string[]) public addedReputationsList;\n    mapping (address => mapping(string => uint)) internal addedReputationsLookup;\n\n    AddressGroup[] internal addresses;\n\n    struct Reputation {\n        uint256 identityTokenId;\n        ReputationField[] reputationFieldsList;\n        mapping(string => ReputationField) reputationFieldsLookup;\n    }\n\n    struct ReputationField {\n        string fieldName;\n        uint256 addressGroupIndex;\n    }\n\n    function joinHydroReputation() public {\n        Snowflake snowflake = Snowflake(snowflakeAddress);\n        uint256 tokenId = snowflake.ownerToToken(msg.sender);\n        reputationList[msg.sender].identityTokenId = tokenId;\n    }\n\n    function addReputationField(string _field) public {\n        require(reputationList[msg.sender].identityTokenId != 0, \"You must join the reputation program.\");\n        require(addedReputationsLookup[msg.sender][_field] == 0, \"This field has not been added.\");\n\n        uint256 id = addedReputationsList[msg.sender].push(_field);\n        addedReputationsLookup[msg.sender][_field] = id;\n        AddressGroup memory group;\n        uint256 addressListId = addresses.push(group) - 1;\n        reputationList[msg.sender].reputationFieldsList.push(ReputationField(_field, addressListId));\n        reputationList[msg.sender].reputationFieldsLookup[_field].fieldName = _field;\n        reputationList[msg.sender].reputationFieldsLookup[_field].addressGroupIndex = addressListId;\n    }\n\n    function attestToReputation(address _user, string _field) public {\n        require(reputationList[msg.sender].identityTokenId != 0, \"You must join the reputation program.\");\n        require(reputationList[_user].identityTokenId != 0, \"The user must join the reputation program.\");\n        require(addedReputationsLookup[_user][_field] > 0, \"This field has not been added.\");\n\n        require(\n          !addresses[reputationList[_user].reputationFieldsLookup[_field].addressGroupIndex].addressLookup[msg.sender],\n          \"You have already attested this field.\"\n        );\n\n        uint256 id = addedReputationsLookup[_user][_field] - 1;\n        uint addressId = reputationList[_user].reputationFieldsList[id].addressGroupIndex;\n        addresses[addressId].addressList.push(msg.sender);\n        addresses[addressId].addressLookup[msg.sender] = true;\n    }\n\n    function getReputation(address _user, string _field) public view returns(uint) {\n        require(reputationList[_user].identityTokenId != 0, \"The user must join the reputation program.\");\n        require(addedReputationsLookup[_user][_field] > 0, \"This field has not been added.\");\n        uint addressId = reputationList[_user].reputationFieldsLookup[_field].addressGroupIndex;\n        return addresses[addressId].addressList.length;\n    }\n\n    function getReputationList(address _user, string _field) public view returns(address[]) {\n        require(reputationList[_user].identityTokenId != 0, \"The user must join the reputation program.\");\n        require(addedReputationsLookup[_user][_field] > 0, \"This field has not been added.\");\n        uint addressId = reputationList[_user].reputationFieldsLookup[_field].addressGroupIndex;\n        return addresses[addressId].addressList;\n    }\n\n    function getReputationIndividual(address _user, string _field, uint _index) public view returns(address) {\n        require(reputationList[_user].identityTokenId != 0, \"The user must join the reputation program.\");\n        require(addedReputationsLookup[_user][_field] > 0, \"This field has not been added.\");\n        require(addresses[addressId].addressList.length > _index, \"This is an invalid index\");\n        uint addressId = reputationList[_user].reputationFieldsLookup[_field].addressGroupIndex;\n        return addresses[addressId].addressList[_index];\n    }\n\n    function alreadyAttested(address _user, string _field) public view returns(bool) {\n        return addresses[reputationList[_user]\n              .reputationFieldsLookup[_field].addressGroupIndex].addressLookup[msg.sender];\n    }\n\n    function addedRepLookup(address _user, string _field) public view returns(uint) {\n        return addedReputationsLookup[_user][_field];\n    }\n\n}\n",
  "sourcePath": "/Users/noahzinsmeister/Documents/github/smart-contracts/snowflake/contracts/resolvers/HydroReputation.sol",
  "compiler": {
    "name": "solc",
    "version": "0.4.24+commit.e67f0147.Emscripten.clang"
  },
  "schemaVersion": "2.0.0",
  "updatedAt": "2018-06-26T20:44:49.321Z"
}