{
  "contractName": "HydroReputation",
  "abi": [
    {
      "constant": true,
      "inputs": [],
      "name": "snowflakeDescription",
      "outputs": [
        {
          "name": "",
          "type": "string"
        }
      ],
      "payable": false,
      "stateMutability": "view",
      "type": "function"
    },
    {
      "constant": true,
      "inputs": [],
      "name": "snowflakeName",
      "outputs": [
        {
          "name": "",
          "type": "string"
        }
      ],
      "payable": false,
      "stateMutability": "view",
      "type": "function"
    },
    {
      "constant": true,
      "inputs": [],
      "name": "owner",
      "outputs": [
        {
          "name": "",
          "type": "address"
        }
      ],
      "payable": false,
      "stateMutability": "view",
      "type": "function"
    },
    {
      "constant": false,
      "inputs": [
        {
          "name": "_address",
          "type": "address"
        }
      ],
      "name": "setSnowflakeAddress",
      "outputs": [],
      "payable": false,
      "stateMutability": "nonpayable",
      "type": "function"
    },
    {
      "constant": true,
      "inputs": [
        {
          "name": "",
          "type": "address"
        },
        {
          "name": "",
          "type": "uint256"
        }
      ],
      "name": "addedReputationsList",
      "outputs": [
        {
          "name": "",
          "type": "string"
        }
      ],
      "payable": false,
      "stateMutability": "view",
      "type": "function"
    },
    {
      "constant": false,
      "inputs": [
        {
          "name": "newOwner",
          "type": "address"
        }
      ],
      "name": "transferOwnership",
      "outputs": [],
      "payable": false,
      "stateMutability": "nonpayable",
      "type": "function"
    },
    {
      "constant": true,
      "inputs": [],
      "name": "snowflakeAddress",
      "outputs": [
        {
          "name": "",
          "type": "address"
        }
      ],
      "payable": false,
      "stateMutability": "view",
      "type": "function"
    },
    {
      "constant": true,
      "inputs": [
        {
          "name": "",
          "type": "string"
        },
        {
          "name": "",
          "type": "uint256"
        }
      ],
      "name": "onSignUp",
      "outputs": [
        {
          "name": "",
          "type": "bool"
        }
      ],
      "payable": false,
      "stateMutability": "view",
      "type": "function"
    },
    {
      "anonymous": false,
      "inputs": [
        {
          "indexed": true,
          "name": "previousOwner",
          "type": "address"
        },
        {
          "indexed": true,
          "name": "newOwner",
          "type": "address"
        }
      ],
      "name": "OwnershipTransferred",
      "type": "event"
    },
    {
      "constant": false,
      "inputs": [],
      "name": "joinHydroReputation",
      "outputs": [],
      "payable": false,
      "stateMutability": "nonpayable",
      "type": "function"
    },
    {
      "constant": false,
      "inputs": [
        {
          "name": "_field",
          "type": "string"
        }
      ],
      "name": "addReputationField",
      "outputs": [],
      "payable": false,
      "stateMutability": "nonpayable",
      "type": "function"
    },
    {
      "constant": false,
      "inputs": [
        {
          "name": "_user",
          "type": "address"
        },
        {
          "name": "_field",
          "type": "string"
        }
      ],
      "name": "attestToReputation",
      "outputs": [],
      "payable": false,
      "stateMutability": "nonpayable",
      "type": "function"
    },
    {
      "constant": true,
      "inputs": [
        {
          "name": "_user",
          "type": "address"
        },
        {
          "name": "_field",
          "type": "string"
        }
      ],
      "name": "getReputation",
      "outputs": [
        {
          "name": "",
          "type": "uint256"
        }
      ],
      "payable": false,
      "stateMutability": "view",
      "type": "function"
    },
    {
      "constant": true,
      "inputs": [
        {
          "name": "_user",
          "type": "address"
        },
        {
          "name": "_field",
          "type": "string"
        }
      ],
      "name": "getReputationList",
      "outputs": [
        {
          "name": "",
          "type": "address[]"
        }
      ],
      "payable": false,
      "stateMutability": "view",
      "type": "function"
    },
    {
      "constant": true,
      "inputs": [
        {
          "name": "_user",
          "type": "address"
        },
        {
          "name": "_field",
          "type": "string"
        },
        {
          "name": "_index",
          "type": "uint256"
        }
      ],
      "name": "getReputationIndividual",
      "outputs": [
        {
          "name": "",
          "type": "address"
        }
      ],
      "payable": false,
      "stateMutability": "view",
      "type": "function"
    },
    {
      "constant": true,
      "inputs": [
        {
          "name": "_user",
          "type": "address"
        },
        {
          "name": "_field",
          "type": "string"
        }
      ],
      "name": "alreadyAttested",
      "outputs": [
        {
          "name": "",
          "type": "bool"
        }
      ],
      "payable": false,
      "stateMutability": "view",
      "type": "function"
    },
    {
      "constant": true,
      "inputs": [
        {
          "name": "_user",
          "type": "address"
        },
        {
          "name": "_field",
          "type": "string"
        }
      ],
      "name": "addedRepLookup",
      "outputs": [
        {
          "name": "",
          "type": "uint256"
        }
      ],
      "payable": false,
      "stateMutability": "view",
      "type": "function"
    }
  ],
  "bytecode": "0x608060405260008054600160a060020a03191633179055611b05806100256000396000f3006080604052600436106100e55763ffffffff7c01000000000000000000000000000000000000000000000000000000006000350416633279af3c81146100ea57806341046c1c146101635780634c4f3473146101de5780635f53a354146101f557806376acf1b61461025c57806388cdab94146102e65780638da5cb5b146102fb578063c6ad6cf21461032c578063c979b05a14610385578063d5fc6484146103a6578063ea05eeb9146103ca578063eb2a7d9314610431578063f1ab6389146104e8578063f2fde38b14610551578063f9f451b814610572578063ff4cfa5e14610587575b600080fd5b3480156100f657600080fd5b5060408051602060046024803582810135601f8101859004850286018501909652858552610151958335600160a060020a03169536956044949193909101919081908401838280828437509497506105e29650505050505050565b60408051918252519081900360200190f35b34801561016f57600080fd5b5060408051602060046024803582810135601f81018590048502860185019096528585526101ca958335600160a060020a03169536956044949193909101919081908401838280828437509497506107ca9650505050505050565b604080519115158252519081900360200190f35b3480156101ea57600080fd5b506101f361088e565b005b34801561020157600080fd5b5060408051602060046024803582810135601f81018590048502860185019096528585526101f3958335600160a060020a03169536956044949193909101919081908401838280828437509497506109389650505050505050565b34801561026857600080fd5b50610271610d89565b6040805160208082528351818301528351919283929083019185019080838360005b838110156102ab578181015183820152602001610293565b50505050905090810190601f1680156102d85780820380516001836020036101000a031916815260200191505b509250505060405180910390f35b3480156102f257600080fd5b50610271610e14565b34801561030757600080fd5b50610310610e6e565b60408051600160a060020a039092168252519081900360200190f35b34801561033857600080fd5b506040805160206004803580820135601f81018490048402850184019095528484526101f3943694929360249392840191908190840183828082843750949750610e7d9650505050505050565b34801561039157600080fd5b506101f3600160a060020a0360043516611260565b3480156103b257600080fd5b50610271600160a060020a03600435166024356112a6565b3480156103d657600080fd5b5060408051602060046024803582810135601f8101859004850286018501909652858552610151958335600160a060020a03169536956044949193909101919081908401838280828437509497506113299650505050505050565b34801561043d57600080fd5b5060408051602060046024803582810135601f8101859004850286018501909652858552610498958335600160a060020a03169536956044949193909101919081908401838280828437509497506113a99650505050505050565b60408051602080825283518183015283519192839290830191858101910280838360005b838110156104d45781810151838201526020016104bc565b505050509050019250505060405180910390f35b3480156104f457600080fd5b5060408051602060046024803582810135601f8101859004850286018501909652858552610310958335600160a060020a031695369560449491939091019190819084018382808284375094975050933594506115e69350505050565b34801561055d57600080fd5b506101f3600160a060020a0360043516611867565b34801561057e57600080fd5b506103106118fb565b34801561059357600080fd5b506040805160206004803580820135601f81018490048402850184019095528484526101ca943694929360249392840191908190840183828082843750949750509335945061190a9350505050565b600160a060020a03821660009081526004602052604081205481901515610655576040805160e560020a62461bcd02815260206004820152602a6024820152600080516020611a9a8339815191526044820152600080516020611aba833981519152606482015290519081900360840190fd5b600160a060020a0384166000908152600660209081526040808320905186519192879282918401908083835b602083106106a05780518252601f199092019160209182019101610681565b51815160209384036101000a60001901801990921691161790529201948552506040519384900301909220549290921191506107169050576040805160e560020a62461bcd02815260206004820152601e6024820152600080516020611a7a833981519152604482015290519081900360640190fd5b6004600085600160a060020a0316600160a060020a03168152602001908152602001600020600201836040518082805190602001908083835b6020831061076e5780518252601f19909201916020918201910161074f565b51815160209384036101000a600019018019909216911617905292019485525060405193849003019092206001015460078054919450925083915081106107b157fe5b6000918252602090912060029091020154949350505050565b600060076004600085600160a060020a0316600160a060020a03168152602001908152602001600020600201836040518082805190602001908083835b602083106108265780518252601f199092019160209182019101610807565b51815160209384036101000a600019018019909216911617905292019485525060405193849003019092206001015483549092508210905061086457fe5b600091825260208083203384526002929092029091016001019052604090205460ff169392505050565b600354604080517f0ce5aeef0000000000000000000000000000000000000000000000000000000081523360048201529051600160a060020a03909216916000918391630ce5aeef9160248082019260209290919082900301818787803b1580156108f857600080fd5b505af115801561090c573d6000803e3d6000fd5b505050506040513d602081101561092257600080fd5b5051336000908152600460205260409020555050565b33600090815260046020526040812054819015156109c6576040805160e560020a62461bcd02815260206004820152602560248201527f596f75206d757374206a6f696e207468652072657075746174696f6e2070726f60448201527f6772616d2e000000000000000000000000000000000000000000000000000000606482015290519081900360840190fd5b600160a060020a0384166000908152600460205260409020541515610a37576040805160e560020a62461bcd02815260206004820152602a6024820152600080516020611a9a8339815191526044820152600080516020611aba833981519152606482015290519081900360840190fd5b600160a060020a0384166000908152600660209081526040808320905186519192879282918401908083835b60208310610a825780518252601f199092019160209182019101610a63565b51815160209384036101000a6000190180199092169116179052920194855250604051938490030190922054929092119150610af89050576040805160e560020a62461bcd02815260206004820152601e6024820152600080516020611a7a833981519152604482015290519081900360640190fd5b60076004600086600160a060020a0316600160a060020a03168152602001908152602001600020600201846040518082805190602001908083835b60208310610b525780518252601f199092019160209182019101610b33565b51815160209384036101000a6000190180199092169116179052920194855250604051938490030190922060010154835490925082109050610b9057fe5b600091825260208083203384526001600290930201919091019052604090205460ff1615610c2e576040805160e560020a62461bcd02815260206004820152602560248201527f596f75206861766520616c72656164792061747465737465642074686973206660448201527f69656c642e000000000000000000000000000000000000000000000000000000606482015290519081900360840190fd5b60016006600086600160a060020a0316600160a060020a03168152602001908152602001600020846040518082805190602001908083835b60208310610c855780518252601f199092019160209182019101610c66565b51815160209384036101000a60001901801990921691161790529201948552506040805194859003820190942054600160a060020a038a16600090815260049092529390206001018054949093039550919285925082109050610ce457fe5b9060005260206000209060020201600101549050600781815481101515610d0757fe5b6000918252602080832060029092029091018054600181810183559184529190922001805473ffffffffffffffffffffffffffffffffffffffff1916331790556007805483908110610d5557fe5b60009182526020808320338452600292909202909101600101905260409020805460ff191691151591909117905550505050565b6002805460408051602060018416156101000260001901909316849004601f81018490048402820184019092528181529291830182828015610e0c5780601f10610de157610100808354040283529160200191610e0c565b820191906000526020600020905b815481529060010190602001808311610def57829003601f168201915b505050505081565b60018054604080516020600284861615610100026000190190941693909304601f81018490048402820184019092528181529291830182828015610e0c5780601f10610de157610100808354040283529160200191610e0c565b600054600160a060020a031681565b6000610e8761192d565b336000908152600460205260408120541515610f13576040805160e560020a62461bcd02815260206004820152602560248201527f596f75206d757374206a6f696e207468652072657075746174696f6e2070726f60448201527f6772616d2e000000000000000000000000000000000000000000000000000000606482015290519081900360840190fd5b336000908152600660209081526040918290209151865187928291908401908083835b60208310610f555780518252601f199092019160209182019101610f36565b51815160209384036101000a6000190180199092169116179052920194855250604051938490030190922054159150610fc89050576040805160e560020a62461bcd02815260206004820152601e6024820152600080516020611a7a833981519152604482015290519081900360640190fd5b33600090815260056020908152604082208054600181018083559184529282902087519193610ffd939101919088019061193f565b509250826006600033600160a060020a0316600160a060020a03168152602001908152602001600020856040518082805190602001908083835b602083106110565780518252601f199092019160209182019101611037565b51815160001960209485036101000a019081169019919091161790529201948552506040519384900381019093209390935550600780546001818101808455600093909352865180519195509293879360029093027fa66cc928b5edb82af9bd49922954155ab7b0942694bea4ce44661d9a8736c68801926110de92849291909101906119bd565b505033600090815260046020908152604080832081518083019092528a8252959094038482018190526001958601805496870180825590845292829020855180519298509396600202019350611137928492019061193f565b506020918201516001909101553360009081526004825260409081902090518751889450600290920192849282918401908083835b6020831061118b5780518252601f19909201916020918201910161116c565b51815160209384036101000a600019018019909216911617905292019485525060405193849003810190932084516111cc959194919091019250905061193f565b50806004600033600160a060020a0316600160a060020a03168152602001908152602001600020600201856040518082805190602001908083835b602083106112265780518252601f199092019160209182019101611207565b51815160209384036101000a6000190180199092169116179052920194855250604051938490030190922060010192909255505050505050565b600054600160a060020a0316331461127757600080fd5b6003805473ffffffffffffffffffffffffffffffffffffffff1916600160a060020a0392909216919091179055565b6005602052816000526040600020818154811015156112c157fe5b600091825260209182902001805460408051601f60026000196101006001871615020190941693909304928301859004850281018501909152818152945090925090830182828015610e0c5780601f10610de157610100808354040283529160200191610e0c565b600160a060020a0382166000908152600660209081526040808320905184519192859282918401908083835b602083106113745780518252601f199092019160209182019101611355565b51815160209384036101000a600019018019909216911617905292019485525060405193849003019092205495945050505050565b600160a060020a03821660009081526004602052604081205460609190151561141e576040805160e560020a62461bcd02815260206004820152602a6024820152600080516020611a9a8339815191526044820152600080516020611aba833981519152606482015290519081900360840190fd5b600160a060020a0384166000908152600660209081526040808320905186519192879282918401908083835b602083106114695780518252601f19909201916020918201910161144a565b51815160209384036101000a60001901801990921691161790529201948552506040519384900301909220549290921191506114df9050576040805160e560020a62461bcd02815260206004820152601e6024820152600080516020611a7a833981519152604482015290519081900360640190fd5b6004600085600160a060020a0316600160a060020a03168152602001908152602001600020600201836040518082805190602001908083835b602083106115375780518252601f199092019160209182019101611518565b51815160209384036101000a6000190180199092169116179052920194855250604051938490030190922060010154600780549194509250839150811061157a57fe5b600091825260209182902060029091020180546040805182850281018501909152818152928301828280156115d857602002820191906000526020600020905b8154600160a060020a031681526001909101906020018083116115ba575b505050505091505092915050565b600160a060020a03831660009081526004602052604081205481901515611659576040805160e560020a62461bcd02815260206004820152602a6024820152600080516020611a9a8339815191526044820152600080516020611aba833981519152606482015290519081900360840190fd5b600160a060020a0385166000908152600660209081526040808320905187519192889282918401908083835b602083106116a45780518252601f199092019160209182019101611685565b51815160209384036101000a600019018019909216911617905292019485525060405193849003019092205492909211915061171a9050576040805160e560020a62461bcd02815260206004820152601e6024820152600080516020611a7a833981519152604482015290519081900360640190fd5b8260078281548110151561172a57fe5b600091825260209091206002909102015411611790576040805160e560020a62461bcd02815260206004820152601860248201527f5468697320697320616e20696e76616c696420696e6465780000000000000000604482015290519081900360640190fd5b6004600086600160a060020a0316600160a060020a03168152602001908152602001600020600201846040518082805190602001908083835b602083106117e85780518252601f1990920191602091820191016117c9565b51815160209384036101000a6000190180199092169116179052920194855250604051938490030190922060010154600780549194509250839150811061182b57fe5b90600052602060002090600202016000018381548110151561184957fe5b600091825260209091200154600160a060020a031695945050505050565b600054600160a060020a0316331461187e57600080fd5b600160a060020a038116151561189357600080fd5b60008054604051600160a060020a03808516939216917f8be0079c531659141344cd1fd0a4f28419497f9722a3daafe3b4186f6b6457e091a36000805473ffffffffffffffffffffffffffffffffffffffff1916600160a060020a0392909216919091179055565b600354600160a060020a031681565b600354600090600160a060020a0316331461192457600080fd5b50600192915050565b60408051602081019091526060815290565b828054600181600116156101000203166002900490600052602060002090601f016020900481019282601f1061198057805160ff19168380011785556119ad565b828001600101855582156119ad579182015b828111156119ad578251825591602001919060010190611992565b506119b9929150611a2b565b5090565b828054828255906000526020600020908101928215611a1f579160200282015b82811115611a1f578251825473ffffffffffffffffffffffffffffffffffffffff1916600160a060020a039091161782556020909201916001909101906119dd565b506119b9929150611a48565b611a4591905b808211156119b95760008155600101611a31565b90565b611a4591905b808211156119b957805473ffffffffffffffffffffffffffffffffffffffff19168155600101611a4e560054686973206669656c6420686173206e6f74206265656e2061646465642e00005468652075736572206d757374206a6f696e207468652072657075746174696f6e2070726f6772616d2e00000000000000000000000000000000000000000000a165627a7a7230582079e3e104a5f397f022fd97182ec2b4f0256cf4b0799691b256e468f372e3b3fb0029",
  "source": "pragma solidity ^0.4.23;\n\nimport \"./SnowflakeResolver.sol\";\n\ncontract Snowflake {\n    function ownerToToken(address _sender) public view returns(uint256);\n}\n\ncontract HydroReputation is SnowflakeResolver {\n\n    struct AddressGroup {\n        address[] addressList;\n        mapping (address => bool) addressLookup;\n    }\n\n    mapping (address => Reputation) internal reputationList;\n    mapping (address => string[]) public addedReputationsList;\n    mapping (address => mapping(string => uint)) internal addedReputationsLookup;\n\n    AddressGroup[] internal addresses;\n\n    struct Reputation {\n        uint256 identityTokenId;\n        ReputationField[] reputationFieldsList;\n        mapping(string => ReputationField) reputationFieldsLookup;\n    }\n\n    struct ReputationField {\n        string fieldName;\n        uint256 addressGroupIndex;\n    }\n\n    function joinHydroReputation() public {\n        Snowflake snowflake = Snowflake(snowflakeAddress);\n        uint256 tokenId = snowflake.ownerToToken(msg.sender);\n        reputationList[msg.sender].identityTokenId = tokenId;\n    }\n\n    function addReputationField(string _field) public {\n        require(reputationList[msg.sender].identityTokenId != 0, \"You must join the reputation program.\");\n        require(addedReputationsLookup[msg.sender][_field] == 0, \"This field has not been added.\");\n\n        uint256 id = addedReputationsList[msg.sender].push(_field);\n        addedReputationsLookup[msg.sender][_field] = id;\n        AddressGroup memory group;\n        uint256 addressListId = addresses.push(group) - 1;\n        reputationList[msg.sender].reputationFieldsList.push(ReputationField(_field, addressListId));\n        reputationList[msg.sender].reputationFieldsLookup[_field].fieldName = _field;\n        reputationList[msg.sender].reputationFieldsLookup[_field].addressGroupIndex = addressListId;\n    }\n\n    function attestToReputation(address _user, string _field) public {\n        require(reputationList[msg.sender].identityTokenId != 0, \"You must join the reputation program.\");\n        require(reputationList[_user].identityTokenId != 0, \"The user must join the reputation program.\");\n        require(addedReputationsLookup[_user][_field] > 0, \"This field has not been added.\");\n\n        require(\n          !addresses[reputationList[_user].reputationFieldsLookup[_field].addressGroupIndex].addressLookup[msg.sender],\n          \"You have already attested this field.\"\n        );\n\n        uint256 id = addedReputationsLookup[_user][_field] - 1;\n        uint addressId = reputationList[_user].reputationFieldsList[id].addressGroupIndex;\n        addresses[addressId].addressList.push(msg.sender);\n        addresses[addressId].addressLookup[msg.sender] = true;\n    }\n\n    function getReputation(address _user, string _field) public view returns(uint) {\n        require(reputationList[_user].identityTokenId != 0, \"The user must join the reputation program.\");\n        require(addedReputationsLookup[_user][_field] > 0, \"This field has not been added.\");\n        uint addressId = reputationList[_user].reputationFieldsLookup[_field].addressGroupIndex;\n        return addresses[addressId].addressList.length;\n    }\n\n    function getReputationList(address _user, string _field) public view returns(address[]) {\n        require(reputationList[_user].identityTokenId != 0, \"The user must join the reputation program.\");\n        require(addedReputationsLookup[_user][_field] > 0, \"This field has not been added.\");\n        uint addressId = reputationList[_user].reputationFieldsLookup[_field].addressGroupIndex;\n        return addresses[addressId].addressList;\n    }\n\n    function getReputationIndividual(address _user, string _field, uint _index) public view returns(address) {\n        require(reputationList[_user].identityTokenId != 0, \"The user must join the reputation program.\");\n        require(addedReputationsLookup[_user][_field] > 0, \"This field has not been added.\");\n        require(addresses[addressId].addressList.length > _index, \"This is an invalid index\");\n        uint addressId = reputationList[_user].reputationFieldsLookup[_field].addressGroupIndex;\n        return addresses[addressId].addressList[_index];\n    }\n\n    function alreadyAttested(address _user, string _field) public view returns(bool) {\n        return addresses[reputationList[_user]\n              .reputationFieldsLookup[_field].addressGroupIndex].addressLookup[msg.sender];\n    }\n\n    function addedRepLookup(address _user, string _field) public view returns(uint) {\n        return addedReputationsLookup[_user][_field];\n    }\n\n}\n",
  "sourcePath": "/Users/noahzinsmeister/Documents/github/smart-contracts/snowflake/contracts/resolvers/HydroReputation.sol",
  "compiler": {
    "name": "solc",
    "version": "0.4.24+commit.e67f0147.Emscripten.clang"
  },
  "schemaVersion": "2.0.1",
  "updatedAt": "2018-07-27T22:07:13.198Z"
}