{
  "contractName": "HydroKYC",
  "abi": [
    {
      "constant": true,
      "inputs": [],
      "name": "owner",
      "outputs": [
        {
          "name": "",
          "type": "address"
        }
      ],
      "payable": false,
      "stateMutability": "view",
      "type": "function"
    },
    {
      "constant": false,
      "inputs": [
        {
          "name": "_address",
          "type": "address"
        }
      ],
      "name": "setSnowflakeAddress",
      "outputs": [],
      "payable": false,
      "stateMutability": "nonpayable",
      "type": "function"
    },
    {
      "constant": false,
      "inputs": [
        {
          "name": "newOwner",
          "type": "address"
        }
      ],
      "name": "transferOwnership",
      "outputs": [],
      "payable": false,
      "stateMutability": "nonpayable",
      "type": "function"
    },
    {
      "anonymous": false,
      "inputs": [
        {
          "indexed": true,
          "name": "previousOwner",
          "type": "address"
        },
        {
          "indexed": true,
          "name": "newOwner",
          "type": "address"
        }
      ],
      "name": "OwnershipTransferred",
      "type": "event"
    },
    {
      "constant": false,
      "inputs": [
        {
          "name": "_standard",
          "type": "bytes32"
        }
      ],
      "name": "addKYCStandard",
      "outputs": [],
      "payable": false,
      "stateMutability": "nonpayable",
      "type": "function"
    },
    {
      "constant": false,
      "inputs": [
        {
          "name": "_standard",
          "type": "bytes32"
        },
        {
          "name": "_id",
          "type": "uint256"
        }
      ],
      "name": "attestToUsersKYC",
      "outputs": [],
      "payable": false,
      "stateMutability": "nonpayable",
      "type": "function"
    },
    {
      "constant": true,
      "inputs": [
        {
          "name": "_standard",
          "type": "bytes32"
        },
        {
          "name": "_id",
          "type": "uint256"
        }
      ],
      "name": "getAttestationsToUser",
      "outputs": [
        {
          "name": "",
          "type": "address[]"
        }
      ],
      "payable": false,
      "stateMutability": "view",
      "type": "function"
    },
    {
      "constant": true,
      "inputs": [
        {
          "name": "_standard",
          "type": "bytes32"
        },
        {
          "name": "_id",
          "type": "uint256"
        }
      ],
      "name": "getAttestationCountToUser",
      "outputs": [
        {
          "name": "",
          "type": "uint256"
        }
      ],
      "payable": false,
      "stateMutability": "view",
      "type": "function"
    },
    {
      "constant": true,
      "inputs": [
        {
          "name": "_standard",
          "type": "bytes32"
        },
        {
          "name": "_id",
          "type": "uint256"
        },
        {
          "name": "_attester",
          "type": "address"
        }
      ],
      "name": "getTimeOfAttestation",
      "outputs": [
        {
          "name": "",
          "type": "uint256"
        }
      ],
      "payable": false,
      "stateMutability": "view",
      "type": "function"
    }
  ],
  "bytecode": "0x608060405260008054600160a060020a031916331790556114e2806100256000396000f3006080604052600436106100745763ffffffff60e060020a60003504166332e15a498114610079578063785b3551146100965780638da5cb5b146100cf578063c979b05a14610100578063d449411314610121578063dad9b2811461018c578063dd56592c146101a4578063f2fde38b146101bf575b600080fd5b34801561008557600080fd5b506100946004356024356101e0565b005b3480156100a257600080fd5b506100bd600435602435600160a060020a03604435166107bf565b60408051918252519081900360200190f35b3480156100db57600080fd5b506100e4610baf565b60408051600160a060020a039092168252519081900360200190f35b34801561010c57600080fd5b50610094600160a060020a0360043516610bbe565b34801561012d57600080fd5b5061013c600435602435610c04565b60408051602080825283518183015283519192839290830191858101910280838360005b83811015610178578181015183820152602001610160565b505050509050019250505060405180910390f35b34801561019857600080fd5b50610094600435610ef1565b3480156101b057600080fd5b506100bd600435602435611052565b3480156101cb57600080fd5b50610094600160a060020a03600435166112eb565b6000806101eb61137f565b6003546040805160e160020a62491fcf028152600481018790529051600160a060020a039092169450849162923f9e916024808201926020929091908290030181600087803b15801561023d57600080fd5b505af1158015610251573d6000803e3d6000fd5b505050506040513d602081101561026757600080fd5b505115156102ba576040805160e560020a62461bcd0281526020600482015260216024820152600080516020611497833981519152604482015260f960020a601702606482015290519081900360840190fd5b6040805160e060020a638a620f5102815260048181015260248101879052905173__bytes32Set____________________________91638a620f51916044808301926020929190829003018186803b15801561031557600080fd5b505af4158015610329573d6000803e3d6000fd5b505050506040513d602081101561033f57600080fd5b50511515610399576040805160e560020a62461bcd02815260206004820152603d60248201526000805160206114778339815191526044820152600080516020611457833981519152606482015290519081900360840190fd5b6000848152600660209081526040808320888452600101909152812054111561061c576000848152600660208181526040808420898552600181018352908420549388905291905280549193509060001984019081106103f557fe5b906000526020600020906004020160020173__addressSet____________________________63ee8a71a09091336040518363ffffffff1660e060020a0281526004018083815260200182600160a060020a0316600160a060020a031681526020019250505060206040518083038186803b15801561047357600080fd5b505af4158015610487573d6000803e3d6000fd5b505050506040513d602081101561049d57600080fd5b505115610527576040805160e560020a62461bcd02815260206004820152604160248201527f5468697320616464726573732068617320616c7265616479206174746573746560448201527f64207468697320757365722f7374616e6461726420636f6d62696e6174696f6e606482015260f960020a601702608482015290519081900360a40190fd5b60008481526006602052604090208054600019840190811061054557fe5b906000526020600020906004020160020173__addressSet____________________________63e843cfc19091336040518363ffffffff1660e060020a0281526004018083815260200182600160a060020a0316600160a060020a031681526020019250505060006040518083038186803b1580156105c357600080fd5b505af41580156105d7573d6000803e3d6000fd5b5050506000858152600660205260409020805443925060001985019081106105fb57fe5b600091825260208083203384526004909202909101905260409020556107b8565b6000848152600660209081526040822080546001818101808455928552938390208551600490920201938401558382015180518051929486949093600285019261066a92849291019061139e565b5050506000878152600660205260409020805493955092600019860192508210905061069257fe5b906000526020600020906004020160020173__addressSet____________________________63e843cfc19091336040518363ffffffff1660e060020a0281526004018083815260200182600160a060020a0316600160a060020a031681526020019250505060006040518083038186803b15801561071057600080fd5b505af4158015610724573d6000803e3d6000fd5b50505060008581526006602052604090208054879250600019850190811061074857fe5b60009182526020808320600160049093020191909101929092558581526006909152604090208054439190600019850190811061078157fe5b6000918252602080832033845260049092029091018152604080832093909355868252600681528282208883526001019052208290555b5050505050565b6003546040805160e160020a62491fcf028152600481018590529051600092600160a060020a0316918391839162923f9e91602480830192602092919082900301818787803b15801561081157600080fd5b505af1158015610825573d6000803e3d6000fd5b505050506040513d602081101561083b57600080fd5b5051151561088e576040805160e560020a62461bcd0281526020600482015260216024820152600080516020611497833981519152604482015260f960020a601702606482015290519081900360840190fd5b6040805160e060020a638a620f5102815260048181015260248101889052905173__bytes32Set____________________________91638a620f51916044808301926020929190829003018186803b1580156108e957600080fd5b505af41580156108fd573d6000803e3d6000fd5b505050506040513d602081101561091357600080fd5b5051151561096d576040805160e560020a62461bcd02815260206004820152603d60248201526000805160206114778339815191526044820152600080516020611457833981519152606482015290519081900360840190fd5b600085815260066020908152604080832089845260010190915281205411610a05576040805160e560020a62461bcd02815260206004820152602960248201527f54686973207374616e64617264206973206e6f7420706173736564206279207460448201527f68697320757365722e0000000000000000000000000000000000000000000000606482015290519081900360840190fd5b506000848152600660208181526040808420898552600181018352908420549388905291905280546000198301908110610a3b57fe5b906000526020600020906004020160020173__addressSet____________________________63ee8a71a09091866040518363ffffffff1660e060020a0281526004018083815260200182600160a060020a0316600160a060020a031681526020019250505060206040518083038186803b158015610ab957600080fd5b505af4158015610acd573d6000803e3d6000fd5b505050506040513d6020811015610ae357600080fd5b50511515610b61576040805160e560020a62461bcd02815260206004820152603460248201527f54686520676976656e206164647265737320686173206e6f742061747465737460448201527f656420746f2074686973207374616e646172642e000000000000000000000000606482015290519081900360840190fd5b600085815260066020526040902080546000198301908110610b7f57fe5b60009182526020808320600160a060020a0388168452600490920290910190526040902054925050509392505050565b600054600160a060020a031681565b600054600160a060020a03163314610bd557600080fd5b6003805473ffffffffffffffffffffffffffffffffffffffff1916600160a060020a0392909216919091179055565b6003546040805160e160020a62491fcf028152600481018490529051606092600160a060020a031691600091839162923f9e91602480830192602092919082900301818787803b158015610c5757600080fd5b505af1158015610c6b573d6000803e3d6000fd5b505050506040513d6020811015610c8157600080fd5b50511515610cd4576040805160e560020a62461bcd0281526020600482015260216024820152600080516020611497833981519152604482015260f960020a601702606482015290519081900360840190fd5b6040805160e060020a638a620f5102815260048181015260248101879052905173__bytes32Set____________________________91638a620f51916044808301926020929190829003018186803b158015610d2f57600080fd5b505af4158015610d43573d6000803e3d6000fd5b505050506040513d6020811015610d5957600080fd5b50511515610db3576040805160e560020a62461bcd02815260206004820152603d60248201526000805160206114778339815191526044820152600080516020611457833981519152606482015290519081900360840190fd5b600084815260066020908152604080832088845260010190915281205411610e4b576040805160e560020a62461bcd02815260206004820152602960248201527f54686973207374616e64617264206973206e6f7420706173736564206279207460448201527f68697320757365722e0000000000000000000000000000000000000000000000606482015290519081900360840190fd5b506000838152600660208181526040808420888552600181018352908420549387905291905280546000198301908110610e8157fe5b60009182526020918290206002600490920201018054604080518285028101850190915281815292830182828015610ee257602002820191906000526020600020905b8154600160a060020a03168152600190910190602001808311610ec4575b50505050509250505092915050565b6040805160e060020a638a620f5102815260048181015260248101839052905173__bytes32Set____________________________91638a620f51916044808301926020929190829003018186803b158015610f4c57600080fd5b505af4158015610f60573d6000803e3d6000fd5b505050506040513d6020811015610f7657600080fd5b505115610fcd576040805160e560020a62461bcd02815260206004820152601f60248201527f54686973207374616e6461726420697320616c72656164792061646465642e00604482015290519081900360640190fd5b604080517f8ac6ba9a00000000000000000000000000000000000000000000000000000000815260048181015260248101839052905173__bytes32Set____________________________91638ac6ba9a916044808301926000929190829003018186803b15801561103e57600080fd5b505af41580156107b8573d6000803e3d6000fd5b6003546040805160e160020a62491fcf028152600481018490529051600092600160a060020a0316918391839162923f9e91602480830192602092919082900301818787803b1580156110a457600080fd5b505af11580156110b8573d6000803e3d6000fd5b505050506040513d60208110156110ce57600080fd5b50511515611121576040805160e560020a62461bcd0281526020600482015260216024820152600080516020611497833981519152604482015260f960020a601702606482015290519081900360840190fd5b6040805160e060020a638a620f5102815260048181015260248101879052905173__bytes32Set____________________________91638a620f51916044808301926020929190829003018186803b15801561117c57600080fd5b505af4158015611190573d6000803e3d6000fd5b505050506040513d60208110156111a657600080fd5b50511515611200576040805160e560020a62461bcd02815260206004820152603d60248201526000805160206114778339815191526044820152600080516020611457833981519152606482015290519081900360840190fd5b600084815260066020908152604080832088845260010190915281205411611298576040805160e560020a62461bcd02815260206004820152602960248201527f54686973207374616e64617264206973206e6f7420706173736564206279207460448201527f68697320757365722e0000000000000000000000000000000000000000000000606482015290519081900360840190fd5b5060008381526006602081815260408084208885526001810183529084205493879052919052805460001983019081106112ce57fe5b600091825260209091206004909102016002015495945050505050565b600054600160a060020a0316331461130257600080fd5b600160a060020a038116151561131757600080fd5b60008054604051600160a060020a03808516939216917f8be0079c531659141344cd1fd0a4f28419497f9722a3daafe3b4186f6b6457e091a36000805473ffffffffffffffffffffffffffffffffffffffff1916600160a060020a0392909216919091179055565b604080518082019091526000815260208101611399611410565b905290565b828054828255906000526020600020908101928215611400579160200282015b82811115611400578251825473ffffffffffffffffffffffffffffffffffffffff1916600160a060020a039091161782556020909201916001909101906113be565b5061140c929150611422565b5090565b60408051602081019091526060815290565b61145391905b8082111561140c57805473ffffffffffffffffffffffffffffffffffffffff19168155600101611428565b90560020657869737420696e2074686520736d61727420636f6e74726163742e00000054686973207374616e6461726420646f6573206e6f742063757272656e746c795468697320736e6f77666c616b6520696420646f6573206e6f74206578697374a165627a7a72305820a4053c2757f7b864c419db9f127f00c6bd13c1d83c91f9e6e3fb88a747ba31050029",
  "source": "pragma solidity ^0.4.24;\n\nimport \"./SnowflakeResolver.sol\";\nimport \"../libraries/bytes32Set.sol\";\nimport \"../libraries/addressSet.sol\";\n\ncontract Snowflake {\n    function tokenExists(uint _tokenId) public view returns(bool);\n}\n\ncontract HydroKYC is SnowflakeResolver {\n  using bytes32Set for bytes32Set._bytes32Set;\n  using addressSet for addressSet._addressSet;\n\n  bytes32Set._bytes32Set internal KYCStandards;\n\n  struct KYCSet {\n    passedKYC[] passedStandards;\n    mapping(bytes32 => uint) standardLookup;\n  }\n\n  struct passedKYC {\n    mapping(address => uint) attestersToBlockNumber;\n    bytes32 standard;\n    addressSet._addressSet attesters;\n  }\n\n  mapping (uint => KYCSet) internal usersToKYC;\n\n  function addKYCStandard(bytes32 _standard) public {\n    require(!KYCStandards.contains(_standard), \"This standard is already added.\");\n    KYCStandards.insert(_standard);\n  }\n\n  function attestToUsersKYC(bytes32 _standard, uint _id) public {\n    Snowflake snowflake = Snowflake(snowflakeAddress);\n    require(snowflake.tokenExists(_id), \"This snowflake id does not exist.\");\n    require(KYCStandards.contains(_standard), \"This standard does not currently exist in the smart contract.\");\n    uint membersId;\n    if (usersToKYC[_id].standardLookup[_standard] > 0){\n      membersId = usersToKYC[_id].standardLookup[_standard];\n\n      require(!usersToKYC[_id].passedStandards[membersId - 1].attesters.contains(msg.sender), \"This address has already attested this user/standard combination.\");\n\n      usersToKYC[_id].passedStandards[membersId - 1].attesters.insert(msg.sender);\n      usersToKYC[_id].passedStandards[membersId - 1].attestersToBlockNumber[msg.sender] = block.number;\n    } else {\n      passedKYC memory kyc;\n      membersId = usersToKYC[_id].passedStandards.push(kyc);\n      usersToKYC[_id].passedStandards[membersId - 1].attesters.insert(msg.sender);\n      usersToKYC[_id].passedStandards[membersId - 1].standard = _standard;\n      usersToKYC[_id].passedStandards[membersId - 1].attestersToBlockNumber[msg.sender] = block.number;\n      usersToKYC[_id].standardLookup[_standard] = membersId;\n    }\n  }\n\n  function getAttestationsToUser(bytes32 _standard, uint _id) public view returns(address[]) {\n    Snowflake snowflake = Snowflake(snowflakeAddress);\n    require(snowflake.tokenExists(_id), \"This snowflake id does not exist.\");\n    require(KYCStandards.contains(_standard), \"This standard does not currently exist in the smart contract.\");\n    require(usersToKYC[_id].standardLookup[_standard] > 0, \"This standard is not passed by this user.\");\n\n    uint membersId = usersToKYC[_id].standardLookup[_standard];\n    return usersToKYC[_id].passedStandards[membersId - 1].attesters.members;\n  }\n\n  function getAttestationCountToUser(bytes32 _standard, uint _id) public view returns(uint) {\n    Snowflake snowflake = Snowflake(snowflakeAddress);\n    require(snowflake.tokenExists(_id), \"This snowflake id does not exist.\");\n    require(KYCStandards.contains(_standard), \"This standard does not currently exist in the smart contract.\");\n    require(usersToKYC[_id].standardLookup[_standard] > 0, \"This standard is not passed by this user.\");\n\n    uint membersId = usersToKYC[_id].standardLookup[_standard];\n    return usersToKYC[_id].passedStandards[membersId - 1].attesters.members.length;\n  }\n\n  function getTimeOfAttestation(bytes32 _standard, uint _id, address _attester) public view returns(uint) {\n    Snowflake snowflake = Snowflake(snowflakeAddress);\n    require(snowflake.tokenExists(_id), \"This snowflake id does not exist.\");\n    require(KYCStandards.contains(_standard), \"This standard does not currently exist in the smart contract.\");\n    require(usersToKYC[_id].standardLookup[_standard] > 0, \"This standard is not passed by this user.\");\n\n    uint membersId = usersToKYC[_id].standardLookup[_standard];\n\n    require(usersToKYC[_id].passedStandards[membersId - 1].attesters.contains(_attester), \"The given address has not attested to this standard.\");\n\n    return usersToKYC[_id].passedStandards[membersId - 1].attestersToBlockNumber[_attester];\n  }\n\n  function getEmptyAddressSet() internal pure returns (addressSet._addressSet memory) {\n    addressSet._addressSet memory empty;\n    return empty;\n  }\n\n}\n",
  "sourcePath": "/Users/noahzinsmeister/Documents/github/smart-contracts/snowflake/contracts/resolvers/HydroKYC.sol",
  "compiler": {
    "name": "solc",
    "version": "0.4.24+commit.e67f0147.Emscripten.clang"
  },
  "schemaVersion": "2.0.0",
  "updatedAt": "2018-06-26T14:39:54.484Z"
}