{
  "contractName": "HydroKYC",
  "abi": [
    {
      "constant": true,
      "inputs": [],
      "name": "snowflakeDescription",
      "outputs": [
        {
          "name": "",
          "type": "string"
        }
      ],
      "payable": false,
      "stateMutability": "view",
      "type": "function"
    },
    {
      "constant": true,
      "inputs": [],
      "name": "snowflakeName",
      "outputs": [
        {
          "name": "",
          "type": "string"
        }
      ],
      "payable": false,
      "stateMutability": "view",
      "type": "function"
    },
    {
      "constant": true,
      "inputs": [],
      "name": "owner",
      "outputs": [
        {
          "name": "",
          "type": "address"
        }
      ],
      "payable": false,
      "stateMutability": "view",
      "type": "function"
    },
    {
      "constant": false,
      "inputs": [
        {
          "name": "_address",
          "type": "address"
        }
      ],
      "name": "setSnowflakeAddress",
      "outputs": [],
      "payable": false,
      "stateMutability": "nonpayable",
      "type": "function"
    },
    {
      "constant": false,
      "inputs": [
        {
          "name": "newOwner",
          "type": "address"
        }
      ],
      "name": "transferOwnership",
      "outputs": [],
      "payable": false,
      "stateMutability": "nonpayable",
      "type": "function"
    },
    {
      "constant": true,
      "inputs": [],
      "name": "snowflakeAddress",
      "outputs": [
        {
          "name": "",
          "type": "address"
        }
      ],
      "payable": false,
      "stateMutability": "view",
      "type": "function"
    },
    {
      "constant": true,
      "inputs": [
        {
          "name": "",
          "type": "string"
        },
        {
          "name": "",
          "type": "uint256"
        }
      ],
      "name": "onSignUp",
      "outputs": [
        {
          "name": "",
          "type": "bool"
        }
      ],
      "payable": false,
      "stateMutability": "view",
      "type": "function"
    },
    {
      "anonymous": false,
      "inputs": [
        {
          "indexed": true,
          "name": "previousOwner",
          "type": "address"
        },
        {
          "indexed": true,
          "name": "newOwner",
          "type": "address"
        }
      ],
      "name": "OwnershipTransferred",
      "type": "event"
    },
    {
      "constant": false,
      "inputs": [
        {
          "name": "_standard",
          "type": "bytes32"
        }
      ],
      "name": "addKYCStandard",
      "outputs": [],
      "payable": false,
      "stateMutability": "nonpayable",
      "type": "function"
    },
    {
      "constant": false,
      "inputs": [
        {
          "name": "_standard",
          "type": "bytes32"
        },
        {
          "name": "_id",
          "type": "uint256"
        }
      ],
      "name": "attestToUsersKYC",
      "outputs": [],
      "payable": false,
      "stateMutability": "nonpayable",
      "type": "function"
    },
    {
      "constant": true,
      "inputs": [
        {
          "name": "_standard",
          "type": "bytes32"
        },
        {
          "name": "_id",
          "type": "uint256"
        }
      ],
      "name": "getAttestationsToUser",
      "outputs": [
        {
          "name": "",
          "type": "address[]"
        }
      ],
      "payable": false,
      "stateMutability": "view",
      "type": "function"
    },
    {
      "constant": true,
      "inputs": [
        {
          "name": "_standard",
          "type": "bytes32"
        },
        {
          "name": "_id",
          "type": "uint256"
        }
      ],
      "name": "getAttestationCountToUser",
      "outputs": [
        {
          "name": "",
          "type": "uint256"
        }
      ],
      "payable": false,
      "stateMutability": "view",
      "type": "function"
    },
    {
      "constant": true,
      "inputs": [
        {
          "name": "_standard",
          "type": "bytes32"
        },
        {
          "name": "_id",
          "type": "uint256"
        },
        {
          "name": "_attester",
          "type": "address"
        }
      ],
      "name": "getTimeOfAttestation",
      "outputs": [
        {
          "name": "",
          "type": "uint256"
        }
      ],
      "payable": false,
      "stateMutability": "view",
      "type": "function"
    }
  ],
  "bytecode": "0x608060405260008054600160a060020a03191633179055611748806100256000396000f3006080604052600436106100a05763ffffffff60e060020a60003504166332e15a4981146100a557806376acf1b6146100c2578063785b35511461014c57806388cdab94146101855780638da5cb5b1461019a578063c979b05a146101cb578063d4494113146101ec578063dad9b28114610257578063dd56592c1461026f578063f2fde38b1461028a578063f9f451b8146102ab578063ff4cfa5e146102c0575b600080fd5b3480156100b157600080fd5b506100c060043560243561032f565b005b3480156100ce57600080fd5b506100d761090e565b6040805160208082528351818301528351919283929083019185019080838360005b838110156101115781810151838201526020016100f9565b50505050905090810190601f16801561013e5780820380516001836020036101000a031916815260200191505b509250505060405180910390f35b34801561015857600080fd5b50610173600435602435600160a060020a0360443516610999565b60408051918252519081900360200190f35b34801561019157600080fd5b506100d7610d89565b3480156101a657600080fd5b506101af610de3565b60408051600160a060020a039092168252519081900360200190f35b3480156101d757600080fd5b506100c0600160a060020a0360043516610df2565b3480156101f857600080fd5b50610207600435602435610e38565b60408051602080825283518183015283519192839290830191858101910280838360005b8381101561024357818101518382015260200161022b565b505050509050019250505060405180910390f35b34801561026357600080fd5b506100c0600435611125565b34801561027b57600080fd5b50610173600435602435611286565b34801561029657600080fd5b506100c0600160a060020a036004351661151f565b3480156102b757600080fd5b506101af6115b3565b3480156102cc57600080fd5b506040805160206004803580820135601f810184900484028501840190955284845261031b94369492936024939284019190819084018382808284375094975050933594506115c29350505050565b604080519115158252519081900360200190f35b60008061033a6115e5565b6003546040805160e160020a62491fcf028152600481018790529051600160a060020a039092169450849162923f9e916024808201926020929091908290030181600087803b15801561038c57600080fd5b505af11580156103a0573d6000803e3d6000fd5b505050506040513d60208110156103b657600080fd5b50511515610409576040805160e560020a62461bcd02815260206004820152602160248201526000805160206116fd833981519152604482015260f960020a601702606482015290519081900360840190fd5b6040805160e060020a638a620f5102815260048181015260248101879052905173__bytes32Set____________________________91638a620f51916044808301926020929190829003018186803b15801561046457600080fd5b505af4158015610478573d6000803e3d6000fd5b505050506040513d602081101561048e57600080fd5b505115156104e8576040805160e560020a62461bcd02815260206004820152603d60248201526000805160206116dd83398151915260448201526000805160206116bd833981519152606482015290519081900360840190fd5b6000848152600660209081526040808320888452600101909152812054111561076b5760008481526006602081815260408084208985526001810183529084205493889052919052805491935090600019840190811061054457fe5b906000526020600020906004020160020173__addressSet____________________________63ee8a71a09091336040518363ffffffff1660e060020a0281526004018083815260200182600160a060020a0316600160a060020a031681526020019250505060206040518083038186803b1580156105c257600080fd5b505af41580156105d6573d6000803e3d6000fd5b505050506040513d60208110156105ec57600080fd5b505115610676576040805160e560020a62461bcd02815260206004820152604160248201527f5468697320616464726573732068617320616c7265616479206174746573746560448201527f64207468697320757365722f7374616e6461726420636f6d62696e6174696f6e606482015260f960020a601702608482015290519081900360a40190fd5b60008481526006602052604090208054600019840190811061069457fe5b906000526020600020906004020160020173__addressSet____________________________63e843cfc19091336040518363ffffffff1660e060020a0281526004018083815260200182600160a060020a0316600160a060020a031681526020019250505060006040518083038186803b15801561071257600080fd5b505af4158015610726573d6000803e3d6000fd5b50505060008581526006602052604090208054439250600019850190811061074a57fe5b60009182526020808320338452600490920290910190526040902055610907565b600084815260066020908152604082208054600181810180845592855293839020855160049092020193840155838201518051805192948694909360028501926107b9928492910190611604565b505050600087815260066020526040902080549395509260001986019250821090506107e157fe5b906000526020600020906004020160020173__addressSet____________________________63e843cfc19091336040518363ffffffff1660e060020a0281526004018083815260200182600160a060020a0316600160a060020a031681526020019250505060006040518083038186803b15801561085f57600080fd5b505af4158015610873573d6000803e3d6000fd5b50505060008581526006602052604090208054879250600019850190811061089757fe5b6000918252602080832060016004909302019190910192909255858152600690915260409020805443919060001985019081106108d057fe5b6000918252602080832033845260049092029091018152604080832093909355868252600681528282208883526001019052208290555b5050505050565b6002805460408051602060018416156101000260001901909316849004601f810184900484028201840190925281815292918301828280156109915780601f1061096657610100808354040283529160200191610991565b820191906000526020600020905b81548152906001019060200180831161097457829003601f168201915b505050505081565b6003546040805160e160020a62491fcf028152600481018590529051600092600160a060020a0316918391839162923f9e91602480830192602092919082900301818787803b1580156109eb57600080fd5b505af11580156109ff573d6000803e3d6000fd5b505050506040513d6020811015610a1557600080fd5b50511515610a68576040805160e560020a62461bcd02815260206004820152602160248201526000805160206116fd833981519152604482015260f960020a601702606482015290519081900360840190fd5b6040805160e060020a638a620f5102815260048181015260248101889052905173__bytes32Set____________________________91638a620f51916044808301926020929190829003018186803b158015610ac357600080fd5b505af4158015610ad7573d6000803e3d6000fd5b505050506040513d6020811015610aed57600080fd5b50511515610b47576040805160e560020a62461bcd02815260206004820152603d60248201526000805160206116dd83398151915260448201526000805160206116bd833981519152606482015290519081900360840190fd5b600085815260066020908152604080832089845260010190915281205411610bdf576040805160e560020a62461bcd02815260206004820152602960248201527f54686973207374616e64617264206973206e6f7420706173736564206279207460448201527f68697320757365722e0000000000000000000000000000000000000000000000606482015290519081900360840190fd5b506000848152600660208181526040808420898552600181018352908420549388905291905280546000198301908110610c1557fe5b906000526020600020906004020160020173__addressSet____________________________63ee8a71a09091866040518363ffffffff1660e060020a0281526004018083815260200182600160a060020a0316600160a060020a031681526020019250505060206040518083038186803b158015610c9357600080fd5b505af4158015610ca7573d6000803e3d6000fd5b505050506040513d6020811015610cbd57600080fd5b50511515610d3b576040805160e560020a62461bcd02815260206004820152603460248201527f54686520676976656e206164647265737320686173206e6f742061747465737460448201527f656420746f2074686973207374616e646172642e000000000000000000000000606482015290519081900360840190fd5b600085815260066020526040902080546000198301908110610d5957fe5b60009182526020808320600160a060020a0388168452600490920290910190526040902054925050509392505050565b60018054604080516020600284861615610100026000190190941693909304601f810184900484028201840190925281815292918301828280156109915780601f1061096657610100808354040283529160200191610991565b600054600160a060020a031681565b600054600160a060020a03163314610e0957600080fd5b6003805473ffffffffffffffffffffffffffffffffffffffff1916600160a060020a0392909216919091179055565b6003546040805160e160020a62491fcf028152600481018490529051606092600160a060020a031691600091839162923f9e91602480830192602092919082900301818787803b158015610e8b57600080fd5b505af1158015610e9f573d6000803e3d6000fd5b505050506040513d6020811015610eb557600080fd5b50511515610f08576040805160e560020a62461bcd02815260206004820152602160248201526000805160206116fd833981519152604482015260f960020a601702606482015290519081900360840190fd5b6040805160e060020a638a620f5102815260048181015260248101879052905173__bytes32Set____________________________91638a620f51916044808301926020929190829003018186803b158015610f6357600080fd5b505af4158015610f77573d6000803e3d6000fd5b505050506040513d6020811015610f8d57600080fd5b50511515610fe7576040805160e560020a62461bcd02815260206004820152603d60248201526000805160206116dd83398151915260448201526000805160206116bd833981519152606482015290519081900360840190fd5b60008481526006602090815260408083208884526001019091528120541161107f576040805160e560020a62461bcd02815260206004820152602960248201527f54686973207374616e64617264206973206e6f7420706173736564206279207460448201527f68697320757365722e0000000000000000000000000000000000000000000000606482015290519081900360840190fd5b5060008381526006602081815260408084208885526001810183529084205493879052919052805460001983019081106110b557fe5b6000918252602091829020600260049092020101805460408051828502810185019091528181529283018282801561111657602002820191906000526020600020905b8154600160a060020a031681526001909101906020018083116110f8575b50505050509250505092915050565b6040805160e060020a638a620f5102815260048181015260248101839052905173__bytes32Set____________________________91638a620f51916044808301926020929190829003018186803b15801561118057600080fd5b505af4158015611194573d6000803e3d6000fd5b505050506040513d60208110156111aa57600080fd5b505115611201576040805160e560020a62461bcd02815260206004820152601f60248201527f54686973207374616e6461726420697320616c72656164792061646465642e00604482015290519081900360640190fd5b604080517f8ac6ba9a00000000000000000000000000000000000000000000000000000000815260048181015260248101839052905173__bytes32Set____________________________91638ac6ba9a916044808301926000929190829003018186803b15801561127257600080fd5b505af4158015610907573d6000803e3d6000fd5b6003546040805160e160020a62491fcf028152600481018490529051600092600160a060020a0316918391839162923f9e91602480830192602092919082900301818787803b1580156112d857600080fd5b505af11580156112ec573d6000803e3d6000fd5b505050506040513d602081101561130257600080fd5b50511515611355576040805160e560020a62461bcd02815260206004820152602160248201526000805160206116fd833981519152604482015260f960020a601702606482015290519081900360840190fd5b6040805160e060020a638a620f5102815260048181015260248101879052905173__bytes32Set____________________________91638a620f51916044808301926020929190829003018186803b1580156113b057600080fd5b505af41580156113c4573d6000803e3d6000fd5b505050506040513d60208110156113da57600080fd5b50511515611434576040805160e560020a62461bcd02815260206004820152603d60248201526000805160206116dd83398151915260448201526000805160206116bd833981519152606482015290519081900360840190fd5b6000848152600660209081526040808320888452600101909152812054116114cc576040805160e560020a62461bcd02815260206004820152602960248201527f54686973207374616e64617264206973206e6f7420706173736564206279207460448201527f68697320757365722e0000000000000000000000000000000000000000000000606482015290519081900360840190fd5b50600083815260066020818152604080842088855260018101835290842054938790529190528054600019830190811061150257fe5b600091825260209091206004909102016002015495945050505050565b600054600160a060020a0316331461153657600080fd5b600160a060020a038116151561154b57600080fd5b60008054604051600160a060020a03808516939216917f8be0079c531659141344cd1fd0a4f28419497f9722a3daafe3b4186f6b6457e091a36000805473ffffffffffffffffffffffffffffffffffffffff1916600160a060020a0392909216919091179055565b600354600160a060020a031681565b600354600090600160a060020a031633146115dc57600080fd5b50600192915050565b6040805180820190915260008152602081016115ff611676565b905290565b828054828255906000526020600020908101928215611666579160200282015b82811115611666578251825473ffffffffffffffffffffffffffffffffffffffff1916600160a060020a03909116178255602090920191600190910190611624565b50611672929150611688565b5090565b60408051602081019091526060815290565b6116b991905b8082111561167257805473ffffffffffffffffffffffffffffffffffffffff1916815560010161168e565b90560020657869737420696e2074686520736d61727420636f6e74726163742e00000054686973207374616e6461726420646f6573206e6f742063757272656e746c795468697320736e6f77666c616b6520696420646f6573206e6f74206578697374a165627a7a723058206aa5ed0c192be2b89e1abbdb7879e7975a9bd4946e39143c2e26622c2af90dfc0029",
  "source": "pragma solidity ^0.4.24;\n\nimport \"./SnowflakeResolver.sol\";\nimport \"../libraries/bytes32Set.sol\";\nimport \"../libraries/addressSet.sol\";\n\ncontract Snowflake {\n    function tokenExists(uint _tokenId) public view returns(bool);\n}\n\ncontract HydroKYC is SnowflakeResolver {\n  using bytes32Set for bytes32Set._bytes32Set;\n  using addressSet for addressSet._addressSet;\n\n  bytes32Set._bytes32Set internal KYCStandards;\n\n  struct KYCSet {\n    passedKYC[] passedStandards;\n    mapping(bytes32 => uint) standardLookup;\n  }\n\n  struct passedKYC {\n    mapping(address => uint) attestersToBlockNumber;\n    bytes32 standard;\n    addressSet._addressSet attesters;\n  }\n\n  mapping (uint => KYCSet) internal usersToKYC;\n\n  function addKYCStandard(bytes32 _standard) public {\n    require(!KYCStandards.contains(_standard), \"This standard is already added.\");\n    KYCStandards.insert(_standard);\n  }\n\n  function attestToUsersKYC(bytes32 _standard, uint _id) public {\n    Snowflake snowflake = Snowflake(snowflakeAddress);\n    require(snowflake.tokenExists(_id), \"This snowflake id does not exist.\");\n    require(KYCStandards.contains(_standard), \"This standard does not currently exist in the smart contract.\");\n    uint membersId;\n    if (usersToKYC[_id].standardLookup[_standard] > 0){\n      membersId = usersToKYC[_id].standardLookup[_standard];\n\n      require(!usersToKYC[_id].passedStandards[membersId - 1].attesters.contains(msg.sender), \"This address has already attested this user/standard combination.\");\n\n      usersToKYC[_id].passedStandards[membersId - 1].attesters.insert(msg.sender);\n      usersToKYC[_id].passedStandards[membersId - 1].attestersToBlockNumber[msg.sender] = block.number;\n    } else {\n      passedKYC memory kyc;\n      membersId = usersToKYC[_id].passedStandards.push(kyc);\n      usersToKYC[_id].passedStandards[membersId - 1].attesters.insert(msg.sender);\n      usersToKYC[_id].passedStandards[membersId - 1].standard = _standard;\n      usersToKYC[_id].passedStandards[membersId - 1].attestersToBlockNumber[msg.sender] = block.number;\n      usersToKYC[_id].standardLookup[_standard] = membersId;\n    }\n  }\n\n  function getAttestationsToUser(bytes32 _standard, uint _id) public view returns(address[]) {\n    Snowflake snowflake = Snowflake(snowflakeAddress);\n    require(snowflake.tokenExists(_id), \"This snowflake id does not exist.\");\n    require(KYCStandards.contains(_standard), \"This standard does not currently exist in the smart contract.\");\n    require(usersToKYC[_id].standardLookup[_standard] > 0, \"This standard is not passed by this user.\");\n\n    uint membersId = usersToKYC[_id].standardLookup[_standard];\n    return usersToKYC[_id].passedStandards[membersId - 1].attesters.members;\n  }\n\n  function getAttestationCountToUser(bytes32 _standard, uint _id) public view returns(uint) {\n    Snowflake snowflake = Snowflake(snowflakeAddress);\n    require(snowflake.tokenExists(_id), \"This snowflake id does not exist.\");\n    require(KYCStandards.contains(_standard), \"This standard does not currently exist in the smart contract.\");\n    require(usersToKYC[_id].standardLookup[_standard] > 0, \"This standard is not passed by this user.\");\n\n    uint membersId = usersToKYC[_id].standardLookup[_standard];\n    return usersToKYC[_id].passedStandards[membersId - 1].attesters.members.length;\n  }\n\n  function getTimeOfAttestation(bytes32 _standard, uint _id, address _attester) public view returns(uint) {\n    Snowflake snowflake = Snowflake(snowflakeAddress);\n    require(snowflake.tokenExists(_id), \"This snowflake id does not exist.\");\n    require(KYCStandards.contains(_standard), \"This standard does not currently exist in the smart contract.\");\n    require(usersToKYC[_id].standardLookup[_standard] > 0, \"This standard is not passed by this user.\");\n\n    uint membersId = usersToKYC[_id].standardLookup[_standard];\n\n    require(usersToKYC[_id].passedStandards[membersId - 1].attesters.contains(_attester), \"The given address has not attested to this standard.\");\n\n    return usersToKYC[_id].passedStandards[membersId - 1].attestersToBlockNumber[_attester];\n  }\n\n  function getEmptyAddressSet() internal pure returns (addressSet._addressSet memory) {\n    addressSet._addressSet memory empty;\n    return empty;\n  }\n\n}\n",
  "sourcePath": "/Users/noahzinsmeister/Documents/github/smart-contracts/snowflake/contracts/resolvers/HydroKYC.sol",
  "compiler": {
    "name": "solc",
    "version": "0.4.24+commit.e67f0147.Emscripten.clang"
  },
  "schemaVersion": "2.0.1",
  "updatedAt": "2018-07-27T22:07:13.196Z"
}