{
  "contractName": "HydroToken",
  "abi": [
    {
      "constant": true,
      "inputs": [],
      "name": "raindropAddress",
      "outputs": [
        {
          "name": "",
          "type": "address"
        }
      ],
      "payable": false,
      "stateMutability": "view",
      "type": "function"
    },
    {
      "constant": true,
      "inputs": [],
      "name": "name",
      "outputs": [
        {
          "name": "",
          "type": "string"
        }
      ],
      "payable": false,
      "stateMutability": "view",
      "type": "function"
    },
    {
      "constant": true,
      "inputs": [
        {
          "name": "",
          "type": "address"
        }
      ],
      "name": "balances",
      "outputs": [
        {
          "name": "",
          "type": "uint256"
        }
      ],
      "payable": false,
      "stateMutability": "view",
      "type": "function"
    },
    {
      "constant": true,
      "inputs": [],
      "name": "decimals",
      "outputs": [
        {
          "name": "",
          "type": "uint8"
        }
      ],
      "payable": false,
      "stateMutability": "view",
      "type": "function"
    },
    {
      "constant": true,
      "inputs": [
        {
          "name": "",
          "type": "address"
        },
        {
          "name": "",
          "type": "address"
        }
      ],
      "name": "allowed",
      "outputs": [
        {
          "name": "",
          "type": "uint256"
        }
      ],
      "payable": false,
      "stateMutability": "view",
      "type": "function"
    },
    {
      "constant": true,
      "inputs": [],
      "name": "owner",
      "outputs": [
        {
          "name": "",
          "type": "address"
        }
      ],
      "payable": false,
      "stateMutability": "view",
      "type": "function"
    },
    {
      "constant": true,
      "inputs": [],
      "name": "symbol",
      "outputs": [
        {
          "name": "",
          "type": "string"
        }
      ],
      "payable": false,
      "stateMutability": "view",
      "type": "function"
    },
    {
      "constant": false,
      "inputs": [
        {
          "name": "newOwner",
          "type": "address"
        }
      ],
      "name": "transferOwnership",
      "outputs": [],
      "payable": false,
      "stateMutability": "nonpayable",
      "type": "function"
    },
    {
      "inputs": [],
      "payable": false,
      "stateMutability": "nonpayable",
      "type": "constructor"
    },
    {
      "anonymous": false,
      "inputs": [
        {
          "indexed": true,
          "name": "_from",
          "type": "address"
        },
        {
          "indexed": true,
          "name": "_to",
          "type": "address"
        },
        {
          "indexed": false,
          "name": "_amount",
          "type": "uint256"
        }
      ],
      "name": "Transfer",
      "type": "event"
    },
    {
      "anonymous": false,
      "inputs": [
        {
          "indexed": true,
          "name": "_owner",
          "type": "address"
        },
        {
          "indexed": true,
          "name": "_spender",
          "type": "address"
        },
        {
          "indexed": false,
          "name": "_amount",
          "type": "uint256"
        }
      ],
      "name": "Approval",
      "type": "event"
    },
    {
      "anonymous": false,
      "inputs": [
        {
          "indexed": true,
          "name": "_burner",
          "type": "address"
        },
        {
          "indexed": false,
          "name": "_amount",
          "type": "uint256"
        }
      ],
      "name": "Burn",
      "type": "event"
    },
    {
      "anonymous": false,
      "inputs": [
        {
          "indexed": true,
          "name": "previousOwner",
          "type": "address"
        },
        {
          "indexed": true,
          "name": "newOwner",
          "type": "address"
        }
      ],
      "name": "OwnershipTransferred",
      "type": "event"
    },
    {
      "constant": false,
      "inputs": [
        {
          "name": "_to",
          "type": "address"
        },
        {
          "name": "_amount",
          "type": "uint256"
        }
      ],
      "name": "transfer",
      "outputs": [
        {
          "name": "success",
          "type": "bool"
        }
      ],
      "payable": false,
      "stateMutability": "nonpayable",
      "type": "function"
    },
    {
      "constant": false,
      "inputs": [
        {
          "name": "_from",
          "type": "address"
        },
        {
          "name": "_to",
          "type": "address"
        },
        {
          "name": "_amount",
          "type": "uint256"
        }
      ],
      "name": "transferFrom",
      "outputs": [
        {
          "name": "success",
          "type": "bool"
        }
      ],
      "payable": false,
      "stateMutability": "nonpayable",
      "type": "function"
    },
    {
      "constant": true,
      "inputs": [
        {
          "name": "_owner",
          "type": "address"
        }
      ],
      "name": "balanceOf",
      "outputs": [
        {
          "name": "balance",
          "type": "uint256"
        }
      ],
      "payable": false,
      "stateMutability": "view",
      "type": "function"
    },
    {
      "constant": false,
      "inputs": [
        {
          "name": "_spender",
          "type": "address"
        },
        {
          "name": "_amount",
          "type": "uint256"
        }
      ],
      "name": "approve",
      "outputs": [
        {
          "name": "success",
          "type": "bool"
        }
      ],
      "payable": false,
      "stateMutability": "nonpayable",
      "type": "function"
    },
    {
      "constant": false,
      "inputs": [
        {
          "name": "_spender",
          "type": "address"
        },
        {
          "name": "_value",
          "type": "uint256"
        },
        {
          "name": "_extraData",
          "type": "bytes"
        }
      ],
      "name": "approveAndCall",
      "outputs": [
        {
          "name": "success",
          "type": "bool"
        }
      ],
      "payable": false,
      "stateMutability": "nonpayable",
      "type": "function"
    },
    {
      "constant": false,
      "inputs": [
        {
          "name": "_value",
          "type": "uint256"
        }
      ],
      "name": "burn",
      "outputs": [],
      "payable": false,
      "stateMutability": "nonpayable",
      "type": "function"
    },
    {
      "constant": true,
      "inputs": [
        {
          "name": "_owner",
          "type": "address"
        },
        {
          "name": "_spender",
          "type": "address"
        }
      ],
      "name": "allowance",
      "outputs": [
        {
          "name": "remaining",
          "type": "uint256"
        }
      ],
      "payable": false,
      "stateMutability": "view",
      "type": "function"
    },
    {
      "constant": true,
      "inputs": [],
      "name": "totalSupply",
      "outputs": [
        {
          "name": "",
          "type": "uint256"
        }
      ],
      "payable": false,
      "stateMutability": "view",
      "type": "function"
    },
    {
      "constant": false,
      "inputs": [
        {
          "name": "_raindrop",
          "type": "address"
        }
      ],
      "name": "setRaindropAddress",
      "outputs": [],
      "payable": false,
      "stateMutability": "nonpayable",
      "type": "function"
    },
    {
      "constant": false,
      "inputs": [
        {
          "name": "_value",
          "type": "uint256"
        },
        {
          "name": "_challenge",
          "type": "uint256"
        },
        {
          "name": "_partnerId",
          "type": "uint256"
        }
      ],
      "name": "authenticate",
      "outputs": [],
      "payable": false,
      "stateMutability": "nonpayable",
      "type": "function"
    },
    {
      "constant": false,
      "inputs": [
        {
          "name": "_addressList",
          "type": "address[]"
        },
        {
          "name": "_amounts",
          "type": "uint256[]"
        }
      ],
      "name": "setBalances",
      "outputs": [],
      "payable": false,
      "stateMutability": "nonpayable",
      "type": "function"
    }
  ],
  "bytecode": "0x60c0604052600560808190527f487964726f00000000000000000000000000000000000000000000000000000060a090815261003e91600191906100e7565b506002805460ff191660121790556040805180820190915260058082527f485944524f0000000000000000000000000000000000000000000000000000006020909201918252610090916003916100e7565b5060058054600160a060020a03191690553480156100ad57600080fd5b5060008054600160a060020a0319163390811782556b23e6e54c4381ee57e2bc000060048190559082526006602052604090912055610182565b828054600181600116156101000203166002900490600052602060002090601f016020900481019282601f1061012857805160ff1916838001178555610155565b82800160010185558215610155579182015b8281111561015557825182559160200191906001019061013a565b50610161929150610165565b5090565b61017f91905b80821115610161576000815560010161016b565b90565b610ce7806101916000396000f3006080604052600436106101065763ffffffff7c010000000000000000000000000000000000000000000000000000000060003504166303960631811461010b578063053011b71461013c57806306fdde031461015c578063095ea7b3146101e657806318160ddd1461021e57806323b872dd1461024557806327e235e31461026f578063313ce5671461029057806342966c68146102bb5780635c658165146102d357806370a08231146102fa5780638da5cb5b1461031b57806395d89b4114610330578063a9059cbb14610345578063b302ea1e14610369578063b7e39b4f1461038a578063cae9ca5114610418578063dd62ed3e14610481578063f2fde38b146104a8575b600080fd5b34801561011757600080fd5b506101206104c9565b60408051600160a060020a039092168252519081900360200190f35b34801561014857600080fd5b5061015a6004356024356044356104d8565b005b34801561016857600080fd5b50610171610589565b6040805160208082528351818301528351919283929083019185019080838360005b838110156101ab578181015183820152602001610193565b50505050905090810190601f1680156101d85780820380516001836020036101000a031916815260200191505b509250505060405180910390f35b3480156101f257600080fd5b5061020a600160a060020a0360043516602435610616565b604080519115158252519081900360200190f35b34801561022a57600080fd5b506102336106b8565b60408051918252519081900360200190f35b34801561025157600080fd5b5061020a600160a060020a03600435811690602435166044356106be565b34801561027b57600080fd5b50610233600160a060020a036004351661072d565b34801561029c57600080fd5b506102a561073f565b6040805160ff9092168252519081900360200190f35b3480156102c757600080fd5b5061015a600435610748565b3480156102df57600080fd5b50610233600160a060020a03600435811690602435166107fa565b34801561030657600080fd5b50610233600160a060020a0360043516610817565b34801561032757600080fd5b50610120610832565b34801561033c57600080fd5b50610171610841565b34801561035157600080fd5b5061020a600160a060020a036004351660243561089c565b34801561037557600080fd5b5061015a600160a060020a03600435166108b2565b34801561039657600080fd5b506040805160206004803580820135838102808601850190965280855261015a95369593946024949385019291829185019084908082843750506040805187358901803560208181028481018201909552818452989b9a9989019892975090820195509350839250850190849080828437509497506108f89650505050505050565b34801561042457600080fd5b50604080516020600460443581810135601f810184900484028501840190955284845261020a948235600160a060020a03169460248035953695946064949201919081908401838280828437509497506109b09650505050505050565b34801561048d57600080fd5b50610233600160a060020a0360043581169060243516610ac9565b3480156104b457600080fd5b5061015a600160a060020a0360043516610af4565b600554600160a060020a031681565b600554604080517fc68ae6170000000000000000000000000000000000000000000000000000000081523360048201526024810186905260448101859052606481018490529051600160a060020a0390921691829163c68ae61791608480830192600092919082900301818387803b15801561055357600080fd5b505af1158015610567573d6000803e3d6000fd5b50506000546105839250339150600160a060020a031686610b88565b50505050565b60018054604080516020600284861615610100026000190190941693909304601f8101849004840282018401909252818152929183018282801561060e5780601f106105e35761010080835404028352916020019161060e565b820191906000526020600020905b8154815290600101906020018083116105f157829003601f168201915b505050505081565b60008115806106465750336000908152600760209081526040808320600160a060020a0387168452909152902054155b151561065157600080fd5b336000818152600760209081526040808320600160a060020a03881680855290835292819020869055805186815290519293927f8c5be1e5ebec7d5bd14f71427d1e84f3dd0314c0f7b2291e5b200ac8c7c3b925929181900390910190a350600192915050565b60045490565b600160a060020a03831660009081526007602090815260408083203384529091528120548211156106ee57600080fd5b600160a060020a0384166000908152600760209081526040808320338452909152902080548390039055610723848484610b88565b5060019392505050565b60066020526000908152604090205481565b60025460ff1681565b600054600160a060020a0316331461075f57600080fd5b3360009081526006602052604090205481111561077b57600080fd5b3360009081526006602052604090205461079b908263ffffffff610c9316565b336000908152600660205260409020556004546107be908263ffffffff610c9316565b60045560408051828152905133917fcc16f5dbb4873280815c1ee09dbd06736cffcc184412cf7a71a0fdb75d397ca5919081900360200190a250565b600760209081526000928352604080842090915290825290205481565b600160a060020a031660009081526006602052604090205490565b600054600160a060020a031681565b6003805460408051602060026001851615610100026000190190941693909304601f8101849004840282018401909252818152929183018282801561060e5780601f106105e35761010080835404028352916020019161060e565b60006108a9338484610b88565b50600192915050565b600054600160a060020a031633146108c957600080fd5b6005805473ffffffffffffffffffffffffffffffffffffffff1916600160a060020a0392909216919091179055565b60008054600160a060020a0316331461091057600080fd5b815183511461091e57600080fd5b5060005b82518110156109ab5760066000848381518110151561093d57fe5b6020908102909101810151600160a060020a03168252810191909152604001600020541561096a57600080fd5b6109a2838281518110151561097b57fe5b90602001906020020151838381518110151561099357fe5b9060200190602002015161089c565b50600101610922565b505050565b6000836109bd8185610616565b15610ac1576040517f8f4ffcb10000000000000000000000000000000000000000000000000000000081523360048201818152602483018790523060448401819052608060648501908152875160848601528751600160a060020a03871695638f4ffcb195948b94938b939192909160a490910190602085019080838360005b83811015610a55578181015183820152602001610a3d565b50505050905090810190601f168015610a825780820380516001836020036101000a031916815260200191505b5095505050505050600060405180830381600087803b158015610aa457600080fd5b505af1158015610ab8573d6000803e3d6000fd5b50505050600191505b509392505050565b600160a060020a03918216600090815260076020908152604080832093909416825291909152205490565b600054600160a060020a03163314610b0b57600080fd5b600160a060020a0381161515610b2057600080fd5b60008054604051600160a060020a03808516939216917f8be0079c531659141344cd1fd0a4f28419497f9722a3daafe3b4186f6b6457e091a36000805473ffffffffffffffffffffffffffffffffffffffff1916600160a060020a0392909216919091179055565b600160a060020a03821615801590610ba95750600160a060020a0382163014155b1515610bb457600080fd5b600160a060020a038316600090815260066020526040902054811115610bd957600080fd5b600160a060020a038316600090815260066020526040902054610c02908263ffffffff610c9316565b600160a060020a038085166000908152600660205260408082209390935590841681522054610c37908263ffffffff610ca516565b600160a060020a0380841660008181526006602090815260409182902094909455805185815290519193928716927fddf252ad1be2c89b69c2b068fc378daa952ba7f163c4a11628f55a4df523b3ef92918290030190a3505050565b600082821115610c9f57fe5b50900390565b600082820183811015610cb457fe5b93925050505600a165627a7a7230582015db52072ab3b34173c183ab1fc4152de28441d652861794736c79c0fb4153ef0029",
  "source": "pragma solidity ^0.4.23;\n\nimport \"./zeppelin/ownership/Ownable.sol\";\nimport \"./SafeMath.sol\";\n\ninterface Raindrop {\n    function authenticate(address _sender, uint _value, uint _challenge, uint _partnerId) external;\n}\n\ninterface tokenRecipient {\n    function receiveApproval(address _from, uint256 _value, address _token, bytes _extraData) external;\n}\n\ncontract HydroToken is Ownable {\n    using SafeMath for uint256;\n\n    string public name = \"Hydro\";          // The token's name\n    uint8 public decimals = 18;            // Number of decimals of the smallest unit\n    string public symbol = \"HYDRO\";        // An identifier\n    uint public totalSupply;\n    address public raindropAddress = 0x0;\n\n    mapping (address => uint256) public balances;\n    // `allowed` tracks any extra transfer rights as in all ERC20 tokens\n    mapping (address => mapping (address => uint256)) public allowed;\n\n    ////////////////\n    // Constructor\n    ////////////////\n\n    /// @notice Constructor to create a HydroToken\n    constructor() public {\n        totalSupply = 11111111111 * 10**18;\n        // Give the creator all initial tokens\n        balances[msg.sender] = totalSupply;\n    }\n\n\n    ///////////////////\n    // ERC20 Methods\n    ///////////////////\n\n    /// @notice Send `_amount` tokens to `_to` from `msg.sender`\n    /// @param _to The address of the recipient\n    /// @param _amount The amount of tokens to be transferred\n    /// @return Whether the transfer was successful or not\n    function transfer(address _to, uint256 _amount) public returns (bool success) {\n        doTransfer(msg.sender, _to, _amount);\n        return true;\n    }\n\n    /// @notice Send `_amount` tokens to `_to` from `_from` on the condition it\n    ///  is approved by `_from`\n    /// @param _from The address holding the tokens being transferred\n    /// @param _to The address of the recipient\n    /// @param _amount The amount of tokens to be transferred\n    /// @return True if the transfer was successful\n    function transferFrom(address _from, address _to, uint256 _amount) public returns (bool success) {\n        // The standard ERC 20 transferFrom functionality\n        require(allowed[_from][msg.sender] >= _amount);\n        allowed[_from][msg.sender] -= _amount;\n        doTransfer(_from, _to, _amount);\n        return true;\n    }\n\n    /// @dev This is the actual transfer function in the token contract, it can\n    ///  only be called by other functions in this contract.\n    /// @param _from The address holding the tokens being transferred\n    /// @param _to The address of the recipient\n    /// @param _amount The amount of tokens to be transferred\n    /// @return True if the transfer was successful\n    function doTransfer(address _from, address _to, uint _amount\n    ) internal {\n        // Do not allow transfer to 0x0 or the token contract itself\n        require((_to != 0) && (_to != address(this)));\n        require(_amount <= balances[_from]);\n        balances[_from] = balances[_from].sub(_amount);\n        balances[_to] = balances[_to].add(_amount);\n        emit Transfer(_from, _to, _amount);\n    }\n\n    /// @return The balance of `_owner`\n    function balanceOf(address _owner) public view returns (uint256 balance) {\n        return balances[_owner];\n    }\n\n    /// @notice `msg.sender` approves `_spender` to spend `_amount` tokens on\n    ///  its behalf. This is a modified version of the ERC20 approve function\n    ///  to be a little bit safer\n    /// @param _spender The address of the account able to transfer the tokens\n    /// @param _amount The amount of tokens to be approved for transfer\n    /// @return True if the approval was successful\n    function approve(address _spender, uint256 _amount) public returns (bool success) {\n        // To change the approve amount you first have to reduce the addresses`\n        //  allowance to zero by calling `approve(_spender,0)` if it is not\n        //  already 0 to mitigate the race condition described here:\n        //  https://github.com/ethereum/EIPs/issues/20#issuecomment-263524729\n        require((_amount == 0) || (allowed[msg.sender][_spender] == 0));\n\n        allowed[msg.sender][_spender] = _amount;\n        emit Approval(msg.sender, _spender, _amount);\n        return true;\n    }\n\n    function approveAndCall(address _spender, uint256 _value, bytes _extraData) public returns (bool success) {\n        tokenRecipient spender = tokenRecipient(_spender);\n        if (approve(_spender, _value)) {\n            spender.receiveApproval(msg.sender, _value, this, _extraData);\n            return true;\n        }\n    }\n\n    function burn(uint256 _value) public onlyOwner {\n        require(balances[msg.sender] >= _value);\n        balances[msg.sender] = balances[msg.sender].sub(_value);\n        totalSupply = totalSupply.sub(_value);\n        emit Burn(msg.sender, _value);\n    }\n\n    /// @dev This function makes it easy to read the `allowed[]` map\n    /// @param _owner The address of the account that owns the token\n    /// @param _spender The address of the account able to transfer the tokens\n    /// @return Amount of remaining tokens of _owner that _spender is allowed\n    ///  to spend\n    function allowance(address _owner, address _spender\n    ) public view returns (uint256 remaining) {\n        return allowed[_owner][_spender];\n    }\n\n    /// @dev This function makes it easy to get the total number of tokens\n    /// @return The total number of tokens\n    function totalSupply() public view returns (uint) {\n        return totalSupply;\n    }\n\n    function setRaindropAddress(address _raindrop) public onlyOwner {\n        raindropAddress = _raindrop;\n    }\n\n    function authenticate(uint _value, uint _challenge, uint _partnerId) public {\n        Raindrop raindrop = Raindrop(raindropAddress);\n        raindrop.authenticate(msg.sender, _value, _challenge, _partnerId);\n        doTransfer(msg.sender, owner, _value);\n    }\n\n    function setBalances(address[] _addressList, uint[] _amounts) public onlyOwner {\n        require(_addressList.length == _amounts.length);\n        for (uint i = 0; i < _addressList.length; i++) {\n            require(balances[_addressList[i]] == 0);\n            transfer(_addressList[i], _amounts[i]);\n        }\n    }\n\n    event Transfer(\n        address indexed _from,\n        address indexed _to,\n        uint256 _amount\n    );\n\n    event Approval(\n        address indexed _owner,\n        address indexed _spender,\n        uint256 _amount\n    );\n\n    event Burn(\n        address indexed _burner,\n        uint256 _amount\n    );\n\n}\n",
  "sourcePath": "/Users/noahzinsmeister/Documents/github/smart-contracts/snowflake/contracts/_testing/HydroToken.sol",
  "compiler": {
    "name": "solc",
    "version": "0.4.24+commit.e67f0147.Emscripten.clang"
  },
  "schemaVersion": "2.0.1",
  "updatedAt": "2018-07-27T22:07:13.187Z"
}