{
  "contractName": "HydroKYC",
  "abi": [
    {
      "constant": true,
      "inputs": [],
      "name": "snowflakeDescription",
      "outputs": [
        {
          "name": "",
          "type": "string"
        }
      ],
      "payable": false,
      "stateMutability": "view",
      "type": "function"
    },
    {
      "constant": true,
      "inputs": [],
      "name": "snowflakeName",
      "outputs": [
        {
          "name": "",
          "type": "string"
        }
      ],
      "payable": false,
      "stateMutability": "view",
      "type": "function"
    },
    {
      "constant": true,
      "inputs": [],
      "name": "owner",
      "outputs": [
        {
          "name": "",
          "type": "address"
        }
      ],
      "payable": false,
      "stateMutability": "view",
      "type": "function"
    },
    {
      "constant": true,
      "inputs": [],
      "name": "callOnRemoval",
      "outputs": [
        {
          "name": "",
          "type": "bool"
        }
      ],
      "payable": false,
      "stateMutability": "view",
      "type": "function"
    },
    {
      "constant": false,
      "inputs": [
        {
          "name": "_address",
          "type": "address"
        }
      ],
      "name": "setSnowflakeAddress",
      "outputs": [],
      "payable": false,
      "stateMutability": "nonpayable",
      "type": "function"
    },
    {
      "constant": true,
      "inputs": [],
      "name": "callOnSignUp",
      "outputs": [
        {
          "name": "",
          "type": "bool"
        }
      ],
      "payable": false,
      "stateMutability": "view",
      "type": "function"
    },
    {
      "constant": false,
      "inputs": [
        {
          "name": "newOwner",
          "type": "address"
        }
      ],
      "name": "transferOwnership",
      "outputs": [],
      "payable": false,
      "stateMutability": "nonpayable",
      "type": "function"
    },
    {
      "constant": true,
      "inputs": [],
      "name": "snowflakeAddress",
      "outputs": [
        {
          "name": "",
          "type": "address"
        }
      ],
      "payable": false,
      "stateMutability": "view",
      "type": "function"
    },
    {
      "inputs": [],
      "payable": false,
      "stateMutability": "nonpayable",
      "type": "constructor"
    },
    {
      "anonymous": false,
      "inputs": [
        {
          "indexed": true,
          "name": "previousOwner",
          "type": "address"
        },
        {
          "indexed": true,
          "name": "newOwner",
          "type": "address"
        }
      ],
      "name": "OwnershipTransferred",
      "type": "event"
    },
    {
      "constant": false,
      "inputs": [
        {
          "name": "hydroId",
          "type": "string"
        },
        {
          "name": "",
          "type": "uint256"
        }
      ],
      "name": "onSignUp",
      "outputs": [
        {
          "name": "",
          "type": "bool"
        }
      ],
      "payable": false,
      "stateMutability": "nonpayable",
      "type": "function"
    },
    {
      "constant": false,
      "inputs": [
        {
          "name": "_standard",
          "type": "string"
        }
      ],
      "name": "addKYCStandard",
      "outputs": [],
      "payable": false,
      "stateMutability": "nonpayable",
      "type": "function"
    },
    {
      "constant": false,
      "inputs": [
        {
          "name": "_standard",
          "type": "string"
        },
        {
          "name": "_hydroId",
          "type": "string"
        }
      ],
      "name": "attestToUsersKYC",
      "outputs": [],
      "payable": false,
      "stateMutability": "nonpayable",
      "type": "function"
    },
    {
      "constant": false,
      "inputs": [
        {
          "name": "_standard",
          "type": "string"
        },
        {
          "name": "_hydroId",
          "type": "string"
        }
      ],
      "name": "removeUserKYC",
      "outputs": [],
      "payable": false,
      "stateMutability": "nonpayable",
      "type": "function"
    },
    {
      "constant": true,
      "inputs": [],
      "name": "getAllStandards",
      "outputs": [
        {
          "name": "",
          "type": "bytes32[]"
        }
      ],
      "payable": false,
      "stateMutability": "view",
      "type": "function"
    },
    {
      "constant": true,
      "inputs": [
        {
          "name": "_hydroId",
          "type": "string"
        }
      ],
      "name": "getPassedStandards",
      "outputs": [
        {
          "name": "",
          "type": "bytes32[]"
        }
      ],
      "payable": false,
      "stateMutability": "view",
      "type": "function"
    },
    {
      "constant": true,
      "inputs": [
        {
          "name": "_standard",
          "type": "bytes32"
        }
      ],
      "name": "getStandardString",
      "outputs": [
        {
          "name": "",
          "type": "string"
        }
      ],
      "payable": false,
      "stateMutability": "view",
      "type": "function"
    },
    {
      "constant": true,
      "inputs": [
        {
          "name": "_standard",
          "type": "string"
        },
        {
          "name": "_hydroId",
          "type": "string"
        }
      ],
      "name": "getAttestationsToUser",
      "outputs": [
        {
          "name": "",
          "type": "address[]"
        }
      ],
      "payable": false,
      "stateMutability": "view",
      "type": "function"
    },
    {
      "constant": true,
      "inputs": [
        {
          "name": "_standard",
          "type": "string"
        },
        {
          "name": "_hydroId",
          "type": "string"
        }
      ],
      "name": "getAttestationCountToUser",
      "outputs": [
        {
          "name": "",
          "type": "uint256"
        }
      ],
      "payable": false,
      "stateMutability": "view",
      "type": "function"
    },
    {
      "constant": true,
      "inputs": [
        {
          "name": "_standard",
          "type": "string"
        },
        {
          "name": "_hydroId",
          "type": "string"
        },
        {
          "name": "_attester",
          "type": "address"
        }
      ],
      "name": "getTimeOfAttestation",
      "outputs": [
        {
          "name": "",
          "type": "uint256"
        }
      ],
      "payable": false,
      "stateMutability": "view",
      "type": "function"
    }
  ],
  "bytecode": "0x60806040523480156200001157600080fd5b5060008054600160a060020a031916331790556040805180820190915260098082527f487964726f204b5943000000000000000000000000000000000000000000000060209092019182526200006a91600191620000dc565b506040805180820190915260208082527f41204b5943206441707020666f7220536e6f77666c616b65206f776e6572732e918101918252620000af91600291620000dc565b5060038054600160a060020a03191673da004e0097a9853260bc527eea7a4ef991204e2017905562000181565b828054600181600116156101000203166002900490600052602060002090601f016020900481019282601f106200011f57805160ff19168380011785556200014f565b828001600101855582156200014f579182015b828111156200014f57825182559160200191906001019062000132565b506200015d92915062000161565b5090565b6200017e91905b808211156200015d576000815560010162000168565b90565b612d7780620001916000396000f3006080604052600436106100e15763ffffffff60e060020a6000350416625f4b3781146100e65780630c245a53146101085780634b4a2fca1461013e5780634d1d7c7f1461015e57806376acf1b61461018b57806376c647f6146101ad5780637dc83c99146101cf57806388cdab94146101ef5780638da5cb5b146102045780638f06492d14610226578063958edb0414610248578063972d278114610268578063c979b05a14610288578063cc19a3f5146102a8578063d42e87ed146102c8578063f2fde38b146102dd578063f9f451b8146102fd578063ff4cfa5e14610312575b600080fd5b3480156100f257600080fd5b50610106610101366004612717565b610332565b005b34801561011457600080fd5b5061012861012336600461274c565b610551565b6040516101359190612b88565b60405180910390f35b34801561014a57600080fd5b5061010661015936600461274c565b61094f565b34801561016a57600080fd5b5061017e61017936600461274c565b611278565b6040516101359190612c7f565b34801561019757600080fd5b506101a0611622565b6040516101359190612bb8565b3480156101b957600080fd5b506101c26116ad565b6040516101359190612b99565b3480156101db57600080fd5b506101a06101ea3660046126f9565b61170a565b3480156101fb57600080fd5b506101a0611843565b34801561021057600080fd5b5061021961189d565b6040516101359190612b7a565b34801561023257600080fd5b5061023b6118ac565b6040516101359190612baa565b34801561025457600080fd5b5061017e6102633660046127b5565b6118ce565b34801561027457600080fd5b506101c2610283366004612717565b611dc2565b34801561029457600080fd5b506101066102a33660046126b5565b611fa3565b3480156102b457600080fd5b506101066102c336600461274c565b611fe9565b3480156102d457600080fd5b5061023b6122b2565b3480156102e957600080fd5b506101066102f83660046126b5565b6122d3565b34801561030957600080fd5b50610219612367565b34801561031e57600080fd5b5061023b61032d366004612831565b612376565b6000816040516020018082805190602001908083835b602083106103675780518252601f199092019160209182019101610348565b6001836020036101000a0380198251168184511680821785525050505050509050019150506040516020818303038152906040526040518082805190602001908083835b602083106103ca5780518252601f1990920191602091820191016103ab565b5181516020939093036101000a60001901801990911692169190911790526040519201829003822060e060020a638a620f51028352945073__bytes32Set____________________________9350638a620f519250610430916004915085908201612c44565b60206040518083038186803b15801561044857600080fd5b505af415801561045c573d6000803e3d6000fd5b505050506040513d601f19601f8201168201806040525061048091908101906126db565b156104a95760405160e560020a62461bcd0281526004016104a090612bc9565b60405180910390fd5b6040517f8ac6ba9a00000000000000000000000000000000000000000000000000000000815273__bytes32Set____________________________90638ac6ba9a906104fb9060049085908201612c44565b60006040518083038186803b15801561051357600080fd5b505af4158015610527573d6000803e3d6000fd5b5050506000828152600660209081526040909120845161054c935090918501906124ce565b505050565b60405160e060020a63d080be4f028152606090600090819073__stringSet_____________________________9063d080be4f90610596906007908890600401612c5f565b60206040518083038186803b1580156105ae57600080fd5b505af41580156105c2573d6000803e3d6000fd5b505050506040513d601f19601f820116820180604052506105e691908101906126db565b15156105f157600080fd5b846040516020018082805190602001908083835b602083106106245780518252601f199092019160209182019101610605565b6001836020036101000a0380198251168184511680821785525050505050509050019150506040516020818303038152906040526040518082805190602001908083835b602083106106875780518252601f199092019160209182019101610668565b5181516020939093036101000a60001901801990911692169190911790526040519201829003822060e060020a638a620f51028352955073__bytes32Set____________________________9350638a620f5192506106ed916004915086908201612c44565b60206040518083038186803b15801561070557600080fd5b505af4158015610719573d6000803e3d6000fd5b505050506040513d601f19601f8201168201806040525061073d91908101906126db565b151561075e5760405160e560020a62461bcd0281526004016104a090612c09565b60006009856040518082805190602001908083835b602083106107925780518252601f199092019160209182019101610773565b51815160209384036101000a6000190180199092169116179052920194855250604080519485900382019094206000888152600190910190915292909220549290921191506107f890505760405160e560020a62461bcd0281526004016104a090612be9565b6009846040518082805190602001908083835b6020831061082a5780518252601f19909201916020918201910161080b565b51815160209384036101000a600019018019909216911617905292019485525060408051948590038201852060008881526001909101835220548851909550600994899450925082918401908083835b602083106108995780518252601f19909201916020918201910161087a565b6001836020036101000a0380198251168184511680821785525050505050509050019150509081526020016040518091039020600001600182038154811015156108df57fe5b6000918252602091829020600260049092020101805460408051828502810185019091528181529283018282801561094057602002820191906000526020600020905b8154600160a060020a03168152600190910190602001808311610922575b50505050509250505092915050565b60008061095a61254c565b60405160e060020a63d080be4f02815273__stringSet_____________________________9063d080be4f90610997906007908890600401612c5f565b60206040518083038186803b1580156109af57600080fd5b505af41580156109c3573d6000803e3d6000fd5b505050506040513d601f19601f820116820180604052506109e791908101906126db565b15156109f257600080fd5b846040516020018082805190602001908083835b60208310610a255780518252601f199092019160209182019101610a06565b6001836020036101000a0380198251168184511680821785525050505050509050019150506040516020818303038152906040526040518082805190602001908083835b60208310610a885780518252601f199092019160209182019101610a69565b5181516020939093036101000a60001901801990911692169190911790526040519201829003822060e060020a638a620f51028352965073__bytes32Set____________________________9350638a620f519250610aee916004915087908201612c44565b60206040518083038186803b158015610b0657600080fd5b505af4158015610b1a573d6000803e3d6000fd5b505050506040513d601f19601f82011682018060405250610b3e91908101906126db565b1515610b5f5760405160e560020a62461bcd0281526004016104a090612c09565b60006009856040518082805190602001908083835b60208310610b935780518252601f199092019160209182019101610b74565b51815160209384036101000a60001901801990921691161790529201948552506040805194859003820190942060008981526001909101909152929092205492909211159150610f149050576009846040518082805190602001908083835b60208310610c115780518252601f199092019160209182019101610bf2565b51815160209384036101000a600019018019909216911617905292019485525060408051948590038201852060008981526001909101835220548851909650600994899450925082918401908083835b60208310610c805780518252601f199092019160209182019101610c61565b6001836020036101000a038019825116818451168082178552505050505050905001915050908152602001604051809103902060000160018303815481101515610cc657fe5b906000526020600020906004020160020173__addressSet____________________________63ee8a71a09091336040518363ffffffff1660e060020a028152600401610d14929190612c29565b60206040518083038186803b158015610d2c57600080fd5b505af4158015610d40573d6000803e3d6000fd5b505050506040513d601f19601f82011682018060405250610d6491908101906126db565b15610d845760405160e560020a62461bcd0281526004016104a090612bf9565b6009846040518082805190602001908083835b60208310610db65780518252601f199092019160209182019101610d97565b6001836020036101000a038019825116818451168082178552505050505050905001915050908152602001604051809103902060000160018303815481101515610dfc57fe5b906000526020600020906004020160020173__addressSet____________________________63e843cfc19091336040518363ffffffff1660e060020a028152600401610e4a929190612c29565b60006040518083038186803b158015610e6257600080fd5b505af4158015610e76573d6000803e3d6000fd5b50505050436009856040518082805190602001908083835b60208310610ead5780518252601f199092019160209182019101610e8e565b6001836020036101000a038019825116818451168082178552505050505050905001915050908152602001604051809103902060000160018403815481101515610ef357fe5b60009182526020808320338452600490920290910190526040902055611271565b6009846040518082805190602001908083835b60208310610f465780518252601f199092019160209182019101610f27565b51815160209384036101000a6000190180199092169116179052920194855250604051938490038101909320805460018082018084556000938452928690208751600490930201908101919091558585015180518051939688965092945090926002850192610fb992849291019061256b565b505050505091506009846040518082805190602001908083835b60208310610ff25780518252601f199092019160209182019101610fd3565b6001836020036101000a03801982511681845116808217855250505050505090500191505090815260200160405180910390206000016001830381548110151561103857fe5b906000526020600020906004020160020173__addressSet____________________________63e843cfc19091336040518363ffffffff1660e060020a028152600401611086929190612c29565b60006040518083038186803b15801561109e57600080fd5b505af41580156110b2573d6000803e3d6000fd5b50505050826009856040518082805190602001908083835b602083106110e95780518252601f1990920191602091820191016110ca565b6001836020036101000a03801982511681845116808217855250505050505090500191505090815260200160405180910390206000016001840381548110151561112f57fe5b90600052602060002090600402016001018160001916905550436009856040518082805190602001908083835b6020831061117b5780518252601f19909201916020918201910161115c565b6001836020036101000a0380198251168184511680821785525050505050509050019150509081526020016040518091039020600001600184038154811015156111c157fe5b9060005260206000209060040201600001600033600160a060020a0316600160a060020a0316815260200190815260200160002081905550816009856040518082805190602001908083835b6020831061122c5780518252601f19909201916020918201910161120d565b51815160209384036101000a60001901801990921691161790529201948552506040805194859003820190942060008981526001909101909152929092209290925550505b5050505050565b60405160e060020a63d080be4f0281526000908190819073__stringSet_____________________________9063d080be4f906112bc906007908890600401612c5f565b60206040518083038186803b1580156112d457600080fd5b505af41580156112e8573d6000803e3d6000fd5b505050506040513d601f19601f8201168201806040525061130c91908101906126db565b151561131757600080fd5b846040516020018082805190602001908083835b6020831061134a5780518252601f19909201916020918201910161132b565b6001836020036101000a0380198251168184511680821785525050505050509050019150506040516020818303038152906040526040518082805190602001908083835b602083106113ad5780518252601f19909201916020918201910161138e565b5181516020939093036101000a60001901801990911692169190911790526040519201829003822060e060020a638a620f51028352955073__bytes32Set____________________________9350638a620f519250611413916004915086908201612c44565b60206040518083038186803b15801561142b57600080fd5b505af415801561143f573d6000803e3d6000fd5b505050506040513d601f19601f8201168201806040525061146391908101906126db565b15156114845760405160e560020a62461bcd0281526004016104a090612c09565b60006009856040518082805190602001908083835b602083106114b85780518252601f199092019160209182019101611499565b51815160209384036101000a60001901801990921691161790529201948552506040805194859003820190942060008881526001909101909152929092205492909211915061151e90505760405160e560020a62461bcd0281526004016104a090612be9565b6009846040518082805190602001908083835b602083106115505780518252601f199092019160209182019101611531565b51815160209384036101000a600019018019909216911617905292019485525060408051948590038201852060008881526001909101835220548851909550600994899450925082918401908083835b602083106115bf5780518252601f1990920191602091820191016115a0565b6001836020036101000a03801982511681845116808217855250505050505090500191505090815260200160405180910390206000016001820381548110151561160557fe5b600091825260209091206004909102016002015495945050505050565b6002805460408051602060018416156101000260001901909316849004601f810184900484028201840190925281815292918301828280156116a55780601f1061167a576101008083540402835291602001916116a5565b820191906000526020600020905b81548152906001019060200180831161168857829003601f168201915b505050505081565b606060046000018054806020026020016040519081016040528092919081815260200182805480156116ff57602002820191906000526020600020905b815481526001909101906020018083116116ea575b505050505090505b90565b60405160e060020a638a620f5102815260609073__bytes32Set____________________________90638a620f51906117499060049086908201612c44565b60206040518083038186803b15801561176157600080fd5b505af4158015611775573d6000803e3d6000fd5b505050506040513d601f19601f8201168201806040525061179991908101906126db565b15156117a457600080fd5b60008281526006602090815260409182902080548351601f6002610100600185161502600019019093169290920491820184900484028101840190945280845290918301828280156118375780601f1061180c57610100808354040283529160200191611837565b820191906000526020600020905b81548152906001019060200180831161181a57829003601f168201915b50505050509050919050565b60018054604080516020600284861615610100026000190190941693909304601f810184900484028201840190925281815292918301828280156116a55780601f1061167a576101008083540402835291602001916116a5565b600054600160a060020a031681565b6003547501000000000000000000000000000000000000000000900460ff1681565b60405160e060020a63d080be4f0281526000908190819073__stringSet_____________________________9063d080be4f90611912906007908990600401612c5f565b60206040518083038186803b15801561192a57600080fd5b505af415801561193e573d6000803e3d6000fd5b505050506040513d601f19601f8201168201806040525061196291908101906126db565b151561196d57600080fd5b856040516020018082805190602001908083835b602083106119a05780518252601f199092019160209182019101611981565b6001836020036101000a0380198251168184511680821785525050505050509050019150506040516020818303038152906040526040518082805190602001908083835b60208310611a035780518252601f1990920191602091820191016119e4565b5181516020939093036101000a60001901801990911692169190911790526040519201829003822060e060020a638a620f51028352955073__bytes32Set____________________________9350638a620f519250611a69916004915086908201612c44565b60206040518083038186803b158015611a8157600080fd5b505af4158015611a95573d6000803e3d6000fd5b505050506040513d601f19601f82011682018060405250611ab991908101906126db565b1515611ada5760405160e560020a62461bcd0281526004016104a090612c09565b60006009866040518082805190602001908083835b60208310611b0e5780518252601f199092019160209182019101611aef565b51815160209384036101000a600019018019909216911617905292019485525060408051948590038201909420600088815260019091019091529290922054929092119150611b7490505760405160e560020a62461bcd0281526004016104a090612be9565b6009856040518082805190602001908083835b60208310611ba65780518252601f199092019160209182019101611b87565b51815160209384036101000a6000190180199092169116179052920194855250604080519485900382018520600088815260019091018352205489519095506009948a9450925082918401908083835b60208310611c155780518252601f199092019160209182019101611bf6565b6001836020036101000a038019825116818451168082178552505050505050905001915050908152602001604051809103902060000160018203815481101515611c5b57fe5b906000526020600020906004020160020173__addressSet____________________________63ee8a71a09091866040518363ffffffff1660e060020a028152600401611ca9929190612c29565b60206040518083038186803b158015611cc157600080fd5b505af4158015611cd5573d6000803e3d6000fd5b505050506040513d601f19601f82011682018060405250611cf991908101906126db565b1515611d1a5760405160e560020a62461bcd0281526004016104a090612bd9565b6009856040518082805190602001908083835b60208310611d4c5780518252601f199092019160209182019101611d2d565b6001836020036101000a038019825116818451168082178552505050505050905001915050908152602001604051809103902060000160018203815481101515611d9257fe5b60009182526020808320600160a060020a0388168452600490920290910190526040902054925050509392505050565b6060600060606000600773__stringSet_____________________________63d080be4f9091876040518363ffffffff1660e060020a028152600401611e09929190612c5f565b60206040518083038186803b158015611e2157600080fd5b505af4158015611e35573d6000803e3d6000fd5b505050506040513d601f19601f82011682018060405250611e5991908101906126db565b1515611e6457600080fd5b6009856040518082805190602001908083835b60208310611e965780518252601f199092019160209182019101611e77565b51815160209384036101000a600019018019909216911617905292019485525060408051948590038201852054808652808302860190920190529550859150508015611eec578160200160208202803883390190505b509150600090505b82811015611f9b576009856040518082805190602001908083835b60208310611f2e5780518252601f199092019160209182019101611f0f565b51815160209384036101000a6000190180199092169116179052920194855250604051938490030190922080549092508391508110611f6957fe5b9060005260206000209060040201600101548282815181101515611f8957fe5b60209081029091010152600101611ef4565b509392505050565b600054600160a060020a03163314611fba57600080fd5b6003805473ffffffffffffffffffffffffffffffffffffffff1916600160a060020a0392909216919091179055565b60405160e060020a63d080be4f028152600090819073__stringSet_____________________________9063d080be4f9061202b906007908790600401612c5f565b60206040518083038186803b15801561204357600080fd5b505af4158015612057573d6000803e3d6000fd5b505050506040513d601f19601f8201168201806040525061207b91908101906126db565b151561208657600080fd5b836040516020018082805190602001908083835b602083106120b95780518252601f19909201916020918201910161209a565b6001836020036101000a0380198251168184511680821785525050505050509050019150506040516020818303038152906040526040518082805190602001908083835b6020831061211c5780518252601f1990920191602091820191016120fd565b51815160209384036101000a600019018019909216911617905260405191909301819003812088519097506009955088945090928392508401908083835b602083106121795780518252601f19909201916020918201910161215a565b51815160209384036101000a600019018019909216911617905292019485525060408051948590038201852060008881526001909101835220548751909550600994889450925082918401908083835b602083106121e85780518252601f1990920191602091820191016121c9565b6001836020036101000a03801982511681845116808217855250505050505090500191505090815260200160405180910390206000016001820381548110151561222e57fe5b906000526020600020906004020160020173__addressSet____________________________63b65fd2949091336040518363ffffffff1660e060020a02815260040161227c929190612c29565b60006040518083038186803b15801561229457600080fd5b505af41580156122a8573d6000803e3d6000fd5b5050505050505050565b60035474010000000000000000000000000000000000000000900460ff1681565b600054600160a060020a031633146122ea57600080fd5b600160a060020a03811615156122ff57600080fd5b60008054604051600160a060020a03808516939216917f8be0079c531659141344cd1fd0a4f28419497f9722a3daafe3b4186f6b6457e091a36000805473ffffffffffffffffffffffffffffffffffffffff1916600160a060020a0392909216919091179055565b600354600160a060020a031681565b600354600090600160a060020a031633146123a65760405160e560020a62461bcd0281526004016104a090612c19565b60405160e060020a63d080be4f02815273__stringSet_____________________________9063d080be4f906123e3906007908790600401612c5f565b60206040518083038186803b1580156123fb57600080fd5b505af415801561240f573d6000803e3d6000fd5b505050506040513d601f19601f8201168201806040525061243391908101906126db565b15612440575060006124c8565b6040517fea486c5300000000000000000000000000000000000000000000000000000000815273__stringSet_____________________________9063ea486c5390612493906007908790600401612c5f565b60006040518083038186803b1580156124ab57600080fd5b505af41580156124bf573d6000803e3d6000fd5b50505050600190505b92915050565b828054600181600116156101000203166002900490600052602060002090601f016020900481019282601f1061250f57805160ff191683800117855561253c565b8280016001018555821561253c579182015b8281111561253c578251825591602001919060010190612521565b506125489291506125d9565b5090565b6040805180820190915260008152602081016125666125f3565b905290565b8280548282559060005260206000209081019282156125cd579160200282015b828111156125cd578251825473ffffffffffffffffffffffffffffffffffffffff1916600160a060020a0390911617825560209092019160019091019061258b565b50612548929150612605565b61170791905b8082111561254857600081556001016125df565b60408051602081019091526060815290565b61170791905b8082111561254857805473ffffffffffffffffffffffffffffffffffffffff1916815560010161260b565b60006126428235612ce6565b9392505050565b60006126428251612cf2565b60006126428235611707565b6000601f8201831361267257600080fd5b813561268561268082612cb4565b612c8d565b915080825260208301602083018583830111156126a157600080fd5b6126ac838284612cf7565b50505092915050565b6000602082840312156126c757600080fd5b60006126d38484612636565b949350505050565b6000602082840312156126ed57600080fd5b60006126d38484612649565b60006020828403121561270b57600080fd5b60006126d38484612655565b60006020828403121561272957600080fd5b813567ffffffffffffffff81111561274057600080fd5b6126d384828501612661565b6000806040838503121561275f57600080fd5b823567ffffffffffffffff81111561277657600080fd5b61278285828601612661565b925050602083013567ffffffffffffffff81111561279f57600080fd5b6127ab85828601612661565b9150509250929050565b6000806000606084860312156127ca57600080fd5b833567ffffffffffffffff8111156127e157600080fd5b6127ed86828701612661565b935050602084013567ffffffffffffffff81111561280a57600080fd5b61281686828701612661565b925050604061282786828701612636565b9150509250925092565b6000806040838503121561284457600080fd5b823567ffffffffffffffff81111561285b57600080fd5b61286785828601612661565b92505060206127ab85828601612655565b61288181612ce6565b82525050565b600061289282612ce2565b8084526020840193506128a483612cdc565b60005b828110156128d4576128ba868351612878565b6128c382612cdc565b6020969096019591506001016128a7565b5093949350505050565b60006128e982612ce2565b8084526020840193506128fb83612cdc565b60005b828110156128d457612911868351612934565b61291a82612cdc565b6020969096019591506001016128fe565b61288181612cf2565b61288181611707565b600061294882612ce2565b80845261295c816020860160208601612d03565b61296581612d33565b9093016020019392505050565b601f81527f54686973207374616e6461726420697320616c72656164792061646465642e00602082015260400190565b603481527f54686520676976656e206164647265737320686173206e6f742061747465737460208201527f656420746f2074686973207374616e646172642e000000000000000000000000604082015260600190565b602981527f54686973207374616e64617264206973206e6f7420706173736564206279207460208201527f68697320757365722e0000000000000000000000000000000000000000000000604082015260600190565b604181527f5468697320616464726573732068617320616c7265616479206174746573746560208201527f64207468697320757365722f7374616e6461726420636f6d62696e6174696f6e60408201527f2e00000000000000000000000000000000000000000000000000000000000000606082015260800190565b603d81527f54686973207374616e6461726420646f6573206e6f742063757272656e746c7960208201527f20657869737420696e2074686520736d61727420636f6e74726163742e000000604082015260600190565b602181527f446964206e6f74206f726967696e6174652066726f6d20536e6f77666c616b6560208201527f2e00000000000000000000000000000000000000000000000000000000000000604082015260600190565b9052565b602081016124c88284612878565b602080825281016126428184612887565b6020808252810161264281846128de565b602081016124c8828461292b565b60208082528101612642818461293d565b602080825281016124c881612972565b602080825281016124c8816129a2565b602080825281016124c8816129f8565b602080825281016124c881612a4e565b602080825281016124c881612aca565b602080825281016124c881612b20565b60408101612c378285612b76565b6126426020830184612878565b60408101612c528285612b76565b6126426020830184612934565b60408101612c6d8285612b76565b81810360208301526126d3818461293d565b602081016124c88284612934565b60405181810167ffffffffffffffff81118282101715612cac57600080fd5b604052919050565b600067ffffffffffffffff821115612ccb57600080fd5b506020601f91909101601f19160190565b60200190565b5190565b600160a060020a031690565b151590565b82818337506000910152565b60005b83811015612d1e578181015183820152602001612d06565b83811115612d2d576000848401525b50505050565b601f01601f1916905600a265627a7a7230582038f1efd35b06aa798cff02c6f2b075fe9c4dfbea851f035face066d9f3fd30a86c6578706572696d656e74616cf50037",
  "source": "pragma solidity ^0.4.24;\npragma experimental ABIEncoderV2;\n\nimport \"./SnowflakeResolver.sol\";\nimport \"../libraries/bytes32Set.sol\";\nimport \"../libraries/addressSet.sol\";\nimport \"../libraries/stringSet.sol\";\n\n\ncontract Snowflake {\n    function getHydroId(address _address) public view returns (string hydroId);\n}\n\n\ncontract HydroKYC is SnowflakeResolver {\n    using addressSet for addressSet._addressSet;\n    using stringSet for stringSet._stringSet;\n    using bytes32Set for bytes32Set._bytes32Set;\n\n    bytes32Set._bytes32Set internal KYCStandards;\n    mapping(bytes32 => string) KYCStandardsStrings;\n\n    stringSet._stringSet internal members;\n\n    struct KYCSet {\n        passedKYC[] passedStandards;\n        mapping(bytes32 => uint) standardLookup;\n    }\n\n    struct passedKYC {\n        mapping(address => uint) attestersToBlockNumber;\n        bytes32 standard;\n        addressSet._addressSet attesters;\n    }\n\n    mapping (string => KYCSet) internal usersToKYC;\n\n    constructor () public {\n        snowflakeName = \"Hydro KYC\";\n        snowflakeDescription = \"A KYC dApp for Snowflake owners.\";\n        snowflakeAddress = 0xDa004e0097a9853260bc527EeA7A4EF991204e20;\n    }\n\n    // implement signup function\n    function onSignUp(string hydroId, uint) public returns (bool) {\n        require(msg.sender == snowflakeAddress, \"Did not originate from Snowflake.\");\n\n        if (members.contains(hydroId)) {\n            return false;\n        }\n        members.insert(hydroId);\n        return true;\n    }\n\n    function addKYCStandard(string _standard) public {\n        bytes32 bytes32Standard = keccak256(abi.encodePacked(_standard));\n\n        require(!KYCStandards.contains(bytes32Standard), \"This standard is already added.\");\n        KYCStandards.insert(bytes32Standard);\n        KYCStandardsStrings[bytes32Standard] = _standard;\n    }\n\n    function attestToUsersKYC(string _standard, string _hydroId) public {\n        require(members.contains(_hydroId));\n\n        bytes32 bytes32Standard = keccak256(abi.encodePacked(_standard));\n        require(KYCStandards.contains(bytes32Standard), \"This standard does not currently exist in the smart contract.\");\n        uint membersId;\n\n        if (usersToKYC[_hydroId].standardLookup[bytes32Standard] > 0){\n            membersId = usersToKYC[_hydroId].standardLookup[bytes32Standard];\n\n            require(!usersToKYC[_hydroId].passedStandards[membersId - 1].attesters.contains(msg.sender), \"This address has already attested this user/standard combination.\");\n\n            usersToKYC[_hydroId].passedStandards[membersId - 1].attesters.insert(msg.sender);\n            usersToKYC[_hydroId].passedStandards[membersId - 1].attestersToBlockNumber[msg.sender] = block.number;\n        } else {\n            passedKYC memory kyc;\n            membersId = usersToKYC[_hydroId].passedStandards.push(kyc);\n            usersToKYC[_hydroId].passedStandards[membersId - 1].attesters.insert(msg.sender);\n            usersToKYC[_hydroId].passedStandards[membersId - 1].standard = bytes32Standard;\n            usersToKYC[_hydroId].passedStandards[membersId - 1].attestersToBlockNumber[msg.sender] = block.number;\n            usersToKYC[_hydroId].standardLookup[bytes32Standard] = membersId;\n        }\n    }\n\n    function removeUserKYC(string _standard, string _hydroId) public {\n        require(members.contains(_hydroId));\n\n        bytes32 bytes32Standard = keccak256(abi.encodePacked(_standard));\n\n        uint membersId = usersToKYC[_hydroId].standardLookup[bytes32Standard];\n        usersToKYC[_hydroId].passedStandards[membersId - 1].attesters.remove(msg.sender);\n    }\n\n    function getAllStandards() public view returns(bytes32[]) {\n        return KYCStandards.members;\n    }\n\n    function getPassedStandards(string _hydroId) public view returns(bytes32[]) {\n        require(members.contains(_hydroId));\n\n        uint passedStandardsCount = usersToKYC[_hydroId].passedStandards.length;\n\n        bytes32[] memory passedStandards = new bytes32[](passedStandardsCount);\n        for (uint i = 0; i < passedStandardsCount; i++) {\n            passedStandards[i] = usersToKYC[_hydroId].passedStandards[i].standard;\n        }\n\n        return passedStandards;\n    }\n\n    function getStandardString(bytes32 _standard) public view returns(string) {\n        require(KYCStandards.contains(_standard));\n\n        return KYCStandardsStrings[_standard];\n    }\n\n    function getAttestationsToUser(string _standard, string _hydroId) public view returns(address[]) {\n        require(members.contains(_hydroId));\n\n        bytes32 bytes32Standard = keccak256(abi.encodePacked(_standard));\n        require(KYCStandards.contains(bytes32Standard), \"This standard does not currently exist in the smart contract.\");\n        require(usersToKYC[_hydroId].standardLookup[bytes32Standard] > 0, \"This standard is not passed by this user.\");\n\n        uint membersId = usersToKYC[_hydroId].standardLookup[bytes32Standard];\n        return usersToKYC[_hydroId].passedStandards[membersId - 1].attesters.members;\n    }\n\n    function getAttestationCountToUser(string _standard, string _hydroId) public view returns(uint) {\n        require(members.contains(_hydroId));\n\n        bytes32 bytes32Standard = keccak256(abi.encodePacked(_standard));\n        require(KYCStandards.contains(bytes32Standard), \"This standard does not currently exist in the smart contract.\");\n        require(usersToKYC[_hydroId].standardLookup[bytes32Standard] > 0, \"This standard is not passed by this user.\");\n\n        uint membersId = usersToKYC[_hydroId].standardLookup[bytes32Standard];\n        return usersToKYC[_hydroId].passedStandards[membersId - 1].attesters.members.length;\n    }\n\n    function getTimeOfAttestation(string _standard, string _hydroId, address _attester) public view returns(uint) {\n        require(members.contains(_hydroId));\n\n        bytes32 bytes32Standard = keccak256(abi.encodePacked(_standard));\n        require(KYCStandards.contains(bytes32Standard), \"This standard does not currently exist in the smart contract.\");\n        require(usersToKYC[_hydroId].standardLookup[bytes32Standard] > 0, \"This standard is not passed by this user.\");\n\n        uint membersId = usersToKYC[_hydroId].standardLookup[bytes32Standard];\n\n        require(usersToKYC[_hydroId].passedStandards[membersId - 1].attesters.contains(_attester), \"The given address has not attested to this standard.\");\n\n        return usersToKYC[_hydroId].passedStandards[membersId - 1].attestersToBlockNumber[_attester];\n    }\n\n}\n",
  "sourcePath": "/Users/noahzinsmeister/Documents/github/smart-contracts/snowflake/contracts/resolvers/HydroKYC.sol",
  "compiler": {
    "name": "solc",
    "version": "0.4.24+commit.e67f0147.Emscripten.clang"
  },
  "schemaVersion": "2.0.1",
  "updatedAt": "2018-08-21T17:35:34.153Z"
}