{
  "contractName": "Snowflake",
  "abi": [
    {
      "constant": true,
      "inputs": [],
      "name": "clientRaindropAddress",
      "outputs": [
        {
          "name": "",
          "type": "address"
        }
      ],
      "payable": false,
      "stateMutability": "view",
      "type": "function"
    },
    {
      "constant": true,
      "inputs": [],
      "name": "hydroTokenAddress",
      "outputs": [
        {
          "name": "",
          "type": "address"
        }
      ],
      "payable": false,
      "stateMutability": "view",
      "type": "function"
    },
    {
      "constant": true,
      "inputs": [],
      "name": "owner",
      "outputs": [
        {
          "name": "",
          "type": "address"
        }
      ],
      "payable": false,
      "stateMutability": "view",
      "type": "function"
    },
    {
      "constant": true,
      "inputs": [],
      "name": "resolverWhitelistFee",
      "outputs": [
        {
          "name": "",
          "type": "uint256"
        }
      ],
      "payable": false,
      "stateMutability": "view",
      "type": "function"
    },
    {
      "constant": false,
      "inputs": [
        {
          "name": "newOwner",
          "type": "address"
        }
      ],
      "name": "transferOwnership",
      "outputs": [],
      "payable": false,
      "stateMutability": "nonpayable",
      "type": "function"
    },
    {
      "anonymous": false,
      "inputs": [
        {
          "indexed": false,
          "name": "hydroId",
          "type": "string"
        }
      ],
      "name": "SnowflakeMinted",
      "type": "event"
    },
    {
      "anonymous": false,
      "inputs": [
        {
          "indexed": true,
          "name": "resolver",
          "type": "address"
        },
        {
          "indexed": false,
          "name": "sponsor",
          "type": "address"
        }
      ],
      "name": "ResolverWhitelisted",
      "type": "event"
    },
    {
      "anonymous": false,
      "inputs": [
        {
          "indexed": false,
          "name": "hydroId",
          "type": "string"
        },
        {
          "indexed": false,
          "name": "resolver",
          "type": "address"
        },
        {
          "indexed": false,
          "name": "withdrawAllowance",
          "type": "uint256"
        }
      ],
      "name": "ResolverAdded",
      "type": "event"
    },
    {
      "anonymous": false,
      "inputs": [
        {
          "indexed": false,
          "name": "hydroId",
          "type": "string"
        },
        {
          "indexed": false,
          "name": "resolver",
          "type": "address"
        },
        {
          "indexed": false,
          "name": "withdrawAllowance",
          "type": "uint256"
        }
      ],
      "name": "ResolverAllowanceChanged",
      "type": "event"
    },
    {
      "anonymous": false,
      "inputs": [
        {
          "indexed": false,
          "name": "hydroId",
          "type": "string"
        },
        {
          "indexed": false,
          "name": "resolver",
          "type": "address"
        }
      ],
      "name": "ResolverRemoved",
      "type": "event"
    },
    {
      "anonymous": false,
      "inputs": [
        {
          "indexed": false,
          "name": "hydroId",
          "type": "string"
        },
        {
          "indexed": false,
          "name": "amount",
          "type": "uint256"
        }
      ],
      "name": "SnowflakeDeposit",
      "type": "event"
    },
    {
      "anonymous": false,
      "inputs": [
        {
          "indexed": false,
          "name": "hydroIdFrom",
          "type": "string"
        },
        {
          "indexed": false,
          "name": "hydroIdTo",
          "type": "string"
        },
        {
          "indexed": false,
          "name": "amount",
          "type": "uint256"
        }
      ],
      "name": "SnowflakeTransfer",
      "type": "event"
    },
    {
      "anonymous": false,
      "inputs": [
        {
          "indexed": true,
          "name": "hydroId",
          "type": "address"
        },
        {
          "indexed": false,
          "name": "amount",
          "type": "uint256"
        }
      ],
      "name": "SnowflakeWithdraw",
      "type": "event"
    },
    {
      "anonymous": false,
      "inputs": [
        {
          "indexed": false,
          "name": "hydroId",
          "type": "string"
        },
        {
          "indexed": true,
          "name": "resolver",
          "type": "address"
        },
        {
          "indexed": false,
          "name": "currentAllowance",
          "type": "uint256"
        },
        {
          "indexed": false,
          "name": "requestedWithdraw",
          "type": "uint256"
        }
      ],
      "name": "InsufficientAllowance",
      "type": "event"
    },
    {
      "anonymous": false,
      "inputs": [
        {
          "indexed": true,
          "name": "_address",
          "type": "address"
        },
        {
          "indexed": false,
          "name": "hydroId",
          "type": "string"
        }
      ],
      "name": "AddressClaimed",
      "type": "event"
    },
    {
      "anonymous": false,
      "inputs": [
        {
          "indexed": true,
          "name": "_address",
          "type": "address"
        },
        {
          "indexed": false,
          "name": "hydroId",
          "type": "string"
        }
      ],
      "name": "AddressUnclaimed",
      "type": "event"
    },
    {
      "anonymous": false,
      "inputs": [
        {
          "indexed": true,
          "name": "previousOwner",
          "type": "address"
        },
        {
          "indexed": true,
          "name": "newOwner",
          "type": "address"
        }
      ],
      "name": "OwnershipTransferred",
      "type": "event"
    },
    {
      "constant": true,
      "inputs": [
        {
          "name": "_address",
          "type": "address"
        }
      ],
      "name": "hasToken",
      "outputs": [
        {
          "name": "",
          "type": "bool"
        }
      ],
      "payable": false,
      "stateMutability": "view",
      "type": "function"
    },
    {
      "constant": true,
      "inputs": [
        {
          "name": "_address",
          "type": "address"
        }
      ],
      "name": "getHydroId",
      "outputs": [
        {
          "name": "hydroId",
          "type": "string"
        }
      ],
      "payable": false,
      "stateMutability": "view",
      "type": "function"
    },
    {
      "constant": false,
      "inputs": [
        {
          "name": "fee",
          "type": "uint256"
        }
      ],
      "name": "setResolverWhitelistFee",
      "outputs": [],
      "payable": false,
      "stateMutability": "nonpayable",
      "type": "function"
    },
    {
      "constant": false,
      "inputs": [
        {
          "name": "resolver",
          "type": "address"
        }
      ],
      "name": "whitelistResolver",
      "outputs": [],
      "payable": false,
      "stateMutability": "nonpayable",
      "type": "function"
    },
    {
      "constant": true,
      "inputs": [
        {
          "name": "resolver",
          "type": "address"
        }
      ],
      "name": "isWhitelisted",
      "outputs": [
        {
          "name": "",
          "type": "bool"
        }
      ],
      "payable": false,
      "stateMutability": "view",
      "type": "function"
    },
    {
      "constant": true,
      "inputs": [],
      "name": "getWhitelistedResolvers",
      "outputs": [
        {
          "name": "",
          "type": "address[]"
        }
      ],
      "payable": false,
      "stateMutability": "view",
      "type": "function"
    },
    {
      "constant": false,
      "inputs": [
        {
          "name": "clientRaindrop",
          "type": "address"
        },
        {
          "name": "hydroToken",
          "type": "address"
        }
      ],
      "name": "setAddresses",
      "outputs": [],
      "payable": false,
      "stateMutability": "nonpayable",
      "type": "function"
    },
    {
      "constant": false,
      "inputs": [],
      "name": "mintIdentityToken",
      "outputs": [],
      "payable": false,
      "stateMutability": "nonpayable",
      "type": "function"
    },
    {
      "constant": false,
      "inputs": [
        {
          "name": "_address",
          "type": "address"
        },
        {
          "name": "v",
          "type": "uint8"
        },
        {
          "name": "r",
          "type": "bytes32"
        },
        {
          "name": "s",
          "type": "bytes32"
        }
      ],
      "name": "mintIdentityTokenDelegated",
      "outputs": [],
      "payable": false,
      "stateMutability": "nonpayable",
      "type": "function"
    },
    {
      "constant": false,
      "inputs": [
        {
          "name": "resolvers",
          "type": "address[]"
        },
        {
          "name": "withdrawAllowances",
          "type": "uint256[]"
        }
      ],
      "name": "addResolvers",
      "outputs": [],
      "payable": false,
      "stateMutability": "nonpayable",
      "type": "function"
    },
    {
      "constant": false,
      "inputs": [
        {
          "name": "resolvers",
          "type": "address[]"
        },
        {
          "name": "withdrawAllowances",
          "type": "uint256[]"
        }
      ],
      "name": "changeResolverAllowances",
      "outputs": [],
      "payable": false,
      "stateMutability": "nonpayable",
      "type": "function"
    },
    {
      "constant": false,
      "inputs": [
        {
          "name": "resolvers",
          "type": "address[]"
        }
      ],
      "name": "removeResolvers",
      "outputs": [],
      "payable": false,
      "stateMutability": "nonpayable",
      "type": "function"
    },
    {
      "constant": true,
      "inputs": [
        {
          "name": "hydroId",
          "type": "string"
        }
      ],
      "name": "getDetails",
      "outputs": [
        {
          "name": "owner",
          "type": "address"
        },
        {
          "name": "resolvers",
          "type": "address[]"
        },
        {
          "name": "ownedAddresses",
          "type": "address[]"
        }
      ],
      "payable": false,
      "stateMutability": "view",
      "type": "function"
    },
    {
      "constant": true,
      "inputs": [
        {
          "name": "hydroId",
          "type": "string"
        },
        {
          "name": "resolver",
          "type": "address"
        }
      ],
      "name": "hasResolver",
      "outputs": [
        {
          "name": "",
          "type": "bool"
        }
      ],
      "payable": false,
      "stateMutability": "view",
      "type": "function"
    },
    {
      "constant": true,
      "inputs": [
        {
          "name": "hydroId",
          "type": "string"
        },
        {
          "name": "_address",
          "type": "address"
        }
      ],
      "name": "ownsAddress",
      "outputs": [
        {
          "name": "",
          "type": "bool"
        }
      ],
      "payable": false,
      "stateMutability": "view",
      "type": "function"
    },
    {
      "constant": true,
      "inputs": [
        {
          "name": "hydroId",
          "type": "string"
        },
        {
          "name": "resolver",
          "type": "address"
        }
      ],
      "name": "getResolverAllowance",
      "outputs": [
        {
          "name": "withdrawAllowance",
          "type": "uint256"
        }
      ],
      "payable": false,
      "stateMutability": "view",
      "type": "function"
    },
    {
      "constant": false,
      "inputs": [
        {
          "name": "sender",
          "type": "address"
        },
        {
          "name": "amount",
          "type": "uint256"
        },
        {
          "name": "_tokenAddress",
          "type": "address"
        },
        {
          "name": "",
          "type": "bytes"
        }
      ],
      "name": "receiveApproval",
      "outputs": [],
      "payable": false,
      "stateMutability": "nonpayable",
      "type": "function"
    },
    {
      "constant": true,
      "inputs": [
        {
          "name": "hydroId",
          "type": "string"
        }
      ],
      "name": "snowflakeBalance",
      "outputs": [
        {
          "name": "",
          "type": "uint256"
        }
      ],
      "payable": false,
      "stateMutability": "view",
      "type": "function"
    },
    {
      "constant": false,
      "inputs": [
        {
          "name": "hydroIdTo",
          "type": "string"
        },
        {
          "name": "amount",
          "type": "uint256"
        }
      ],
      "name": "transferSnowflakeBalance",
      "outputs": [],
      "payable": false,
      "stateMutability": "nonpayable",
      "type": "function"
    },
    {
      "constant": false,
      "inputs": [
        {
          "name": "to",
          "type": "address"
        },
        {
          "name": "amount",
          "type": "uint256"
        }
      ],
      "name": "withdrawSnowflakeBalanceTo",
      "outputs": [],
      "payable": false,
      "stateMutability": "nonpayable",
      "type": "function"
    },
    {
      "constant": false,
      "inputs": [
        {
          "name": "hydroIdFrom",
          "type": "string"
        },
        {
          "name": "to",
          "type": "address"
        },
        {
          "name": "amount",
          "type": "uint256"
        }
      ],
      "name": "withdrawFrom",
      "outputs": [
        {
          "name": "",
          "type": "bool"
        }
      ],
      "payable": false,
      "stateMutability": "nonpayable",
      "type": "function"
    },
    {
      "constant": false,
      "inputs": [
        {
          "name": "hydroId",
          "type": "string"
        },
        {
          "name": "sealedClaim",
          "type": "bytes32"
        },
        {
          "name": "v",
          "type": "uint8"
        },
        {
          "name": "r",
          "type": "bytes32"
        },
        {
          "name": "s",
          "type": "bytes32"
        }
      ],
      "name": "initiateClaimFor",
      "outputs": [],
      "payable": false,
      "stateMutability": "nonpayable",
      "type": "function"
    },
    {
      "constant": false,
      "inputs": [
        {
          "name": "sealedClaim",
          "type": "bytes32"
        }
      ],
      "name": "initiateClaim",
      "outputs": [],
      "payable": false,
      "stateMutability": "nonpayable",
      "type": "function"
    },
    {
      "constant": false,
      "inputs": [
        {
          "name": "secret",
          "type": "bytes32"
        },
        {
          "name": "hydroId",
          "type": "string"
        }
      ],
      "name": "finalizeClaim",
      "outputs": [],
      "payable": false,
      "stateMutability": "nonpayable",
      "type": "function"
    },
    {
      "constant": false,
      "inputs": [
        {
          "name": "_address",
          "type": "address"
        }
      ],
      "name": "unclaim",
      "outputs": [],
      "payable": false,
      "stateMutability": "nonpayable",
      "type": "function"
    }
  ],
  "bytecode": "0x608060405260008054600160a060020a03191633179055614a85806100256000396000f3006080604052600436106101665763ffffffff60e060020a600035041663041ab9a9811461016b57806310482f57146101da5780631161e5821461023f5780631328fd8f146102605780631cc48f081461036b5780631dfc99c4146103e15780632a4c7c6d146104125780633af32abf1461042a578063698afd981461045f5780636be4d9b0146104c957806375d7e4bd146105575780637d58eb761461056c5780637e397b5c146105d05780638d7601c0146106345780638da5cb5b146106c25780638f4ffcb1146106d757806390107afe146107475780639211448f1461076e57806399734fe4146107cc5780639bb0f59914610862578063b327b22d14610883578063b8a5c2a6146108a7578063b90813c9146108fc578063c59ea26914610914578063d12a7b421461096d578063d9c019111461098e578063e8249d40146109a3578063ea1f2954146109d0578063ef1286b014610a2b578063f2fde38b14610a40575b600080fd5b34801561017757600080fd5b506040805160206004803580820135601f81018490048402850184019095528484526101d89436949293602493928401919081908401838280828437509497505084359550505050602082013560ff16916040810135915060600135610a61565b005b3480156101e657600080fd5b506101ef610d6d565b60408051602080825283518183015283519192839290830191858101910280838360005b8381101561022b578181015183820152602001610213565b505050509050019250505060405180910390f35b34801561024b57600080fd5b506101d8600160a060020a0360043516610dd3565b34801561026c57600080fd5b506040805160206004803580820135601f81018490048402850184019095528484526102b99436949293602493928401919081908401838280828437509497506110459650505050505050565b6040518084600160a060020a0316600160a060020a031681526020018060200180602001838103835285818151815260200191508051906020019060200280838360005b838110156103155781810151838201526020016102fd565b50505050905001838103825284818151815260200191508051906020019060200280838360005b8381101561035457818101518382015260200161033c565b505050509050019550505050505060405180910390f35b34801561037757600080fd5b506040805160206004803580820135601f81018490048402850184019095528484526103cf94369492936024939284019190819084018382808284375094975050509235600160a060020a0316935061118392505050565b60408051918252519081900360200190f35b3480156103ed57600080fd5b506103f661120a565b60408051600160a060020a039092168252519081900360200190f35b34801561041e57600080fd5b506101d8600435611219565b34801561043657600080fd5b5061044b600160a060020a0360043516611326565b604080519115158252519081900360200190f35b34801561046b57600080fd5b506040805160206004803580820135601f810184900484028501840190955284845261044b94369492936024939284019190819084018382808284375094975050508335600160a060020a03169450505060209091013590506113c0565b3480156104d557600080fd5b50604080516020600480358082013583810280860185019096528085526101d895369593946024949385019291829185019084908082843750506040805187358901803560208181028481018201909552818452989b9a9989019892975090820195509350839250850190849080828437509497506117099650505050505050565b34801561056357600080fd5b506103f6611b0d565b34801561057857600080fd5b506040805160206004803580820135601f810184900484028501840190955284845261044b94369492936024939284019190819084018382808284375094975050509235600160a060020a03169350611b1c92505050565b3480156105dc57600080fd5b506040805160206004803580820135601f810184900484028501840190955284845261044b94369492936024939284019190819084018382808284375094975050509235600160a060020a03169350611c1492505050565b34801561064057600080fd5b50604080516020600480358082013583810280860185019096528085526101d895369593946024949385019291829185019084908082843750506040805187358901803560208181028481018201909552818452989b9a998901989297509082019550935083925085019084908082843750949750611cd89650505050505050565b3480156106ce57600080fd5b506103f661244f565b3480156106e357600080fd5b50604080516020601f6064356004818101359283018490048402850184019095528184526101d894600160a060020a0381358116956024803596604435909316953695608494920191819084018382808284375094975061245e9650505050505050565b34801561075357600080fd5b506101d8600160a060020a03600435811690602435166128db565b34801561077a57600080fd5b5060408051602060046024803582810135601f81018590048502860185019096528585526101d895833595369560449491939091019190819084018382808284375094975061292d9650505050505050565b3480156107d857600080fd5b506107ed600160a060020a0360043516612e84565b6040805160208082528351818301528351919283929083019185019080838360005b8381101561082757818101518382015260200161080f565b50505050905090810190601f1680156108545780820380516001836020036101000a031916815260200191505b509250505060405180910390f35b34801561086e57600080fd5b5061044b600160a060020a0360043516612fb4565b34801561088f57600080fd5b506101d8600160a060020a0360043516602435612fe4565b3480156108b357600080fd5b50604080516020600480358082013583810280860185019096528085526101d8953695939460249493850192918291850190849080828437509497506131499650505050505050565b34801561090857600080fd5b506101d8600435613553565b34801561092057600080fd5b506040805160206004803580820135601f81018490048402850184019095528484526103cf9436949293602493928401919081908401838280828437509497506136629650505050505050565b34801561097957600080fd5b506101d8600160a060020a03600435166136ca565b34801561099a57600080fd5b506101d861391c565b3480156109af57600080fd5b506101d8600160a060020a036004351660ff6024351660443560643561398f565b3480156109dc57600080fd5b506040805160206004803580820135601f81018490048402850184019095528484526101d89436949293602493928401919081908401838280828437509497505093359450613bad9350505050565b348015610a3757600080fd5b506103cf614172565b348015610a4c57600080fd5b506101d8600160a060020a0360043516614178565b600080600160a060020a03166002876040518082805190602001908083835b60208310610a9f5780518252601f199092019160209182019101610a80565b51815160209384036101000a6000190180199092169116179052920194855250604051938490030190922054600160a060020a031692909214159150610b579050576040805160e560020a62461bcd02815260206004820152603260248201527f4d75737420696e69746961746520636c61696d20666f72206120487964726f4960448201527f442077697468206120536e6f77666c616b650000000000000000000000000000606482015290519081900360840190fd5b506005546040518651600160a060020a03909216918291638677ebe8916002918a91819060208401908083835b60208310610ba35780518252601f199092019160209182019101610b84565b51815160209384036101000a6000190180199092169116179052920194855250604080519485900382018520547f496e69746961746520436c61696d00000000000000000000000000000000000086840152602e8087018e905282518088039091018152604e909601918290528551600160a060020a0390911695945090925082918401908083835b60208310610c4b5780518252601f199092019160209182019101610c2c565b51815160001960209485036101000a019081169019919091161790526040805194909201849003842060e060020a63ffffffff8a16028552600160a060020a039097166004850152602484019690965260ff8c166044840152606483018b9052608483018a90525160a480840196955090935091839003909101905081600087803b158015610cd957600080fd5b505af1158015610ced573d6000803e3d6000fd5b505050506040513d6020811015610d0357600080fd5b50511515610d5b576040805160e560020a62461bcd02815260206004820152601260248201527f5065726d697373696f6e2064656e6965642e0000000000000000000000000000604482015290519081900360640190fd5b610d65868661420c565b505050505050565b60606008600001805480602002602001604051908101604052809291908181526020018280548015610dc857602002820191906000526020600020905b8154600160a060020a03168152600190910190602001808311610daa575b505050505090505b90565b33600180610de083612fb4565b151514610e39576040805160e560020a62461bcd0281526020600482015260316024820152600080516020614a3a8339815191526044820152600080516020614a1a833981519152606482015290519081900360840190fd5b60026003600033600160a060020a0316600160a060020a031681526020019081526020016000206040518082805460018160011615610100020316600290048015610ebb5780601f10610e99576101008083540402835291820191610ebb565b820191906000526020600020905b815481529060010190602001808311610ea7575b50509283525050604080519182900360200182207fb65fd2940000000000000000000000000000000000000000000000000000000083526001016004830152600160a060020a03851660248301525173__addressSet____________________________9163b65fd294916044808301926000929190829003018186803b158015610f4557600080fd5b505af4158015610f59573d6000803e3d6000fd5b50505050600160a060020a0383166000908152600360205260408120610f7e9161493a565b336000908152600360209081526040918290208251828152815460026000196101006001841615020190911604928101839052600160a060020a038716937f438f444f15ebca0ae1e24988f94d67654233cc8ef4a20973f213594fa883ddad938291820190849080156110325780601f1061100757610100808354040283529160200191611032565b820191906000526020600020905b81548152906001019060200180831161101557829003601f168201915b50509250505060405180910390a2505050565b600060608060006002856040518082805190602001908083835b6020831061107e5780518252601f19909201916020918201910161105f565b51815160209384036101000a6000190180199092169116179052920194855250604080519485900382018520805460038201805480860289018601909452838852919750600160a060020a0316959094506001870193509184919083018282801561111257602002820191906000526020600020905b8154600160a060020a031681526001909101906020018083116110f4575b505050505091508080548060200260200160405190810160405280929190818152602001828054801561116e57602002820191906000526020600020905b8154600160a060020a03168152600190910190602001808311611150575b50505050509050935093509350509193909250565b6000806002846040518082805190602001908083835b602083106111b85780518252601f199092019160209182019101611199565b51815160209384036101000a600019018019909216911617905292019485525060408051948590038201909420600160a060020a03979097166000908152600590970190525050909220549392505050565b600554600160a060020a031681565b3360018061122683612fb4565b15151461127f576040805160e560020a62461bcd0281526020600482015260316024820152600080516020614a3a8339815191526044820152600080516020614a1a833981519152606482015290519081900360840190fd5b3360009081526003602090815260409182902080548351601f6002600019610100600186161502019093169290920491820184900484028101840190945280845261132193928301828280156113165780601f106112eb57610100808354040283529160200191611316565b820191906000526020600020905b8154815290600101906020018083116112f957829003601f168201915b50505050508461420c565b505050565b6040805160e560020a630774538d02815260086004820152600160a060020a0383166024820152905160009173__addressSet____________________________9163ee8a71a091604480820192602092909190829003018186803b15801561138e57600080fd5b505af41580156113a2573d6000803e3d6000fd5b505050506040513d60208110156113b857600080fd5b505192915050565b6000806002856040518082805190602001908083835b602083106113f55780518252601f1990920191602091820191016113d6565b51815160209384036101000a600019018019909216911617905292019485525060405193849003019092208054909350600160a060020a0316151591506114ae9050576040805160e560020a62461bcd02815260206004820152602d60248201527f4d7573742077697468647261772066726f6d206120487964726f49442077697460448201527f68206120536e6f77666c616b6500000000000000000000000000000000000000606482015290519081900360840190fd5b6040805160e560020a630774538d028152600383016004820152336024820152905173__addressSet____________________________9163ee8a71a0916044808301926020929190829003018186803b15801561150b57600080fd5b505af415801561151f573d6000803e3d6000fd5b505050506040513d602081101561153557600080fd5b505115156115b3576040805160e560020a62461bcd02815260206004820152602e60248201527f5265736f6c76657220686173206e6f74206265656e207365742062792066726f60448201527f6d20746f6b656e686f6c6465722e000000000000000000000000000000000000606482015290519081900360840190fd5b3360009081526005820160205260409020548311156116af5733600160a060020a03167f03aaad15a0bb1102e14eced221796c8c4916865cb3851b12c6f46b485da73b288683600501600033600160a060020a0316600160a060020a0316815260200190815260200160002054866040518080602001848152602001838152602001828103825285818151815260200191508051906020019080838360005b8381101561166a578181015183820152602001611652565b50505050905090810190601f1680156116975780820380516001836020036101000a031916815260200191505b5094505050505060405180910390a260009150611701565b6116ba8585856142c8565b156116fc573360009081526005820160205260409020546116e1908463ffffffff61464016565b33600090815260058301602052604090205560019150611701565b600091505b509392505050565b6000803360018061171983612fb4565b151514611772576040805160e560020a62461bcd0281526020600482015260316024820152600080516020614a3a8339815191526044820152600080516020614a1a833981519152606482015290519081900360840190fd5b845186511480156117845750600a8651105b15156117da576040805160e560020a62461bcd02815260206004820152601160248201527f4d616c666f726d656420696e707574732e000000000000000000000000000000604482015290519081900360640190fd5b60026003600033600160a060020a0316600160a060020a03168152602001908152602001600020604051808280546001816001161561010002031660029004801561185c5780601f1061183a57610100808354040283529182019161185c565b820191906000526020600020905b815481529060010190602001808311611848575b5050915050908152602001604051809103902093505b8551831015610d65578360030173__addressSet____________________________63ee8a71a0909188868151811015156118a957fe5b906020019060200201516040518363ffffffff1660e060020a0281526004018083815260200182600160a060020a0316600160a060020a031681526020019250505060206040518083038186803b15801561190357600080fd5b505af4158015611917573d6000803e3d6000fd5b505050506040513d602081101561192d57600080fd5b505115156119aa576040805160e560020a62461bcd028152602060048201526024808201527f536e6f77666c616b6520686173206e6f74207365742074686973207265736f6c60448201527f7665722e00000000000000000000000000000000000000000000000000000000606482015290519081900360840190fd5b84838151811015156119b857fe5b9060200190602002015184600501600088868151811015156119d657fe5b6020908102909101810151600160a060020a031682528181019290925260409081016000908120939093553383526003909152902086517f9d189cca8c7f735f96a0af1ef37893b9361cec3e405388fdabd99b9a481f35b29190889086908110611a3c57fe5b906020019060200201518786815181101515611a5457fe5b602090810290910181015160408051600160a060020a03851693810193909352820181905260608083528454600260001961010060018416150201909116049083018190529091908190608082019086908015611af25780601f10611ac757610100808354040283529160200191611af2565b820191906000526020600020905b815481529060010190602001808311611ad557829003601f168201915b505094505050505060405180910390a1600190920191611872565b600654600160a060020a031681565b6000806002846040518082805190602001908083835b60208310611b515780518252601f199092019160209182019101611b32565b51815160209384036101000a600019018019909216911617905292019485525060408051948590038201852060e560020a630774538d028652600381016004870152600160a060020a0389166024870152905190955073__addressSet____________________________9463ee8a71a094506044808201945090829003018186803b158015611be057600080fd5b505af4158015611bf4573d6000803e3d6000fd5b505050506040513d6020811015611c0a57600080fd5b5051949350505050565b6000806002846040518082805190602001908083835b60208310611c495780518252601f199092019160209182019101611c2a565b51815160209384036101000a600019018019909216911617905292019485525060408051948590038201852060e560020a630774538d028652600181016004870152600160a060020a0389166024870152905190955073__addressSet____________________________9463ee8a71a094506044808201945090829003018186803b158015611be057600080fd5b6000808033600180611ce983612fb4565b151514611d42576040805160e560020a62461bcd0281526020600482015260316024820152600080516020614a3a8339815191526044820152600080516020614a1a833981519152606482015290519081900360840190fd5b85518751148015611d545750600a8751105b1515611daa576040805160e560020a62461bcd02815260206004820152601160248201527f4d616c666f726d656420696e707574732e000000000000000000000000000000604482015290519081900360640190fd5b60026003600033600160a060020a0316600160a060020a031681526020019081526020016000206040518082805460018160011615610100020316600290048015611e2c5780601f10611e0a576101008083540402835291820191611e2c565b820191906000526020600020905b815481529060010190602001808311611e18575b5050915050908152602001604051809103902094505b865184101561244657600873__addressSet____________________________63ee8a71a090918987815181101515611e7757fe5b906020019060200201516040518363ffffffff1660e060020a0281526004018083815260200182600160a060020a0316600160a060020a031681526020019250505060206040518083038186803b158015611ed157600080fd5b505af4158015611ee5573d6000803e3d6000fd5b505050506040513d6020811015611efb57600080fd5b50511515611f79576040805160e560020a62461bcd02815260206004820152602b60248201527f54686520676976656e207265736f6c766572206973206e6f74206f6e2074686560448201527f2077686974656c6973742e000000000000000000000000000000000000000000606482015290519081900360840190fd5b8460030173__addressSet____________________________63ee8a71a090918987815181101515611fa757fe5b906020019060200201516040518363ffffffff1660e060020a0281526004018083815260200182600160a060020a0316600160a060020a031681526020019250505060206040518083038186803b15801561200157600080fd5b505af4158015612015573d6000803e3d6000fd5b505050506040513d602081101561202b57600080fd5b5051156120a8576040805160e560020a62461bcd02815260206004820152602860248201527f536e6f77666c616b652068617320616c7265616479207365742074686973207260448201527f65736f6c7665722e000000000000000000000000000000000000000000000000606482015290519081900360840190fd5b86848151811015156120b657fe5b90602001906020020151925082600160a060020a031663ff4cfa5e6003600033600160a060020a0316600160a060020a03168152602001908152602001600020888781518110151561210457fe5b602090810290910101516040805160e060020a63ffffffff8616028152602481018390526004810191825283546002600019610100600184161502019091160460448201819052829160640190859080156121a05780601f10612175576101008083540402835291602001916121a0565b820191906000526020600020905b81548152906001019060200180831161218357829003601f168201915b50509350505050602060405180830381600087803b1580156121c157600080fd5b505af11580156121d5573d6000803e3d6000fd5b505050506040513d60208110156121eb57600080fd5b50511515612243576040805160e560020a62461bcd02815260206004820152601060248201527f5369676e207570206661696c7572652e00000000000000000000000000000000604482015290519081900360640190fd5b8460030173__addressSet____________________________63e843cfc19091898781518110151561227157fe5b906020019060200201516040518363ffffffff1660e060020a0281526004018083815260200182600160a060020a0316600160a060020a031681526020019250505060006040518083038186803b1580156122cb57600080fd5b505af41580156122df573d6000803e3d6000fd5b5050505085848151811015156122f157fe5b90602001906020020151856005016000898781518110151561230f57fe5b6020908102909101810151600160a060020a031682528181019290925260409081016000908120939093553383526003909152902087517f0ba1b37674237bbd4fbfd0db6d50ccd374b919df8ce0507954607909a57a2886919089908790811061237557fe5b90602001906020020151888781518110151561238d57fe5b602090810290910181015160408051600160a060020a0385169381019390935282018190526060808352845460026000196101006001841615020190911604908301819052909190819060808201908690801561242b5780601f106124005761010080835404028352916020019161242b565b820191906000526020600020905b81548152906001019060200180831161240e57829003601f168201915b505094505050505060405180910390a1600190930192611e42565b50505050505050565b600054600160a060020a031681565b60008460018061246d83612fb4565b1515146124c6576040805160e560020a62461bcd0281526020600482015260316024820152600080516020614a3a8339815191526044820152600080516020614a1a833981519152606482015290519081900360840190fd5b33600160a060020a03861614612526576040805160e560020a62461bcd02815260206004820152601160248201527f4d616c666f726d656420696e707574732e000000000000000000000000000000604482015290519081900360640190fd5b600654600160a060020a038681169116146125b1576040805160e560020a62461bcd02815260206004820152602d60248201527f53656e646572206973206e6f742074686520485944524f20746f6b656e20736d60448201527f61727420636f6e74726163742e00000000000000000000000000000000000000606482015290519081900360840190fd5b604080517f23b872dd000000000000000000000000000000000000000000000000000000008152600160a060020a038981166004830152306024830152604482018990529151879550918516916323b872dd916064808201926020929091908290030181600087803b15801561262657600080fd5b505af115801561263a573d6000803e3d6000fd5b505050506040513d602081101561265057600080fd5b505115156126ce576040805160e560020a62461bcd02815260206004820152602360248201527f556e61626c6520746f207472616e7366657220746f6b656e206f776e6572736860448201527f69702e0000000000000000000000000000000000000000000000000000000000606482015290519081900360840190fd5b612774866001600360008b600160a060020a0316600160a060020a0316815260200190815260200160002060405180828054600181600116156101000203166002900480156127545780601f10612732576101008083540402835291820191612754565b820191906000526020600020905b815481529060010190602001808311612740575b50509283525050604051908190036020019020549063ffffffff61465216565b6001600360008a600160a060020a0316600160a060020a0316815260200190815260200160002060405180828054600181600116156101000203166002900480156127f65780601f106127d45761010080835404028352918201916127f6565b820191906000526020600020905b8154815290600101906020018083116127e2575b50509283525050604080516020928190038301812093909355600160a060020a038a166000908152600383528190209183018990528083528154600260018216156101000260001901909116049083018190527fc0c1baa79e9207505d50fc875bb18b01b5fba6fbd49ef9c199f617d0317dae7392899181906060820190859080156128c35780601f10612898576101008083540402835291602001916128c3565b820191906000526020600020905b8154815290600101906020018083116128a657829003601f168201915b5050935050505060405180910390a150505050505050565b600054600160a060020a031633146128f257600080fd5b60058054600160a060020a0393841673ffffffffffffffffffffffffffffffffffffffff199182161790915560068054929093169116179055565b60003383836040516020018084600160a060020a0316600160a060020a03166c01000000000000000000000000028152601401836000191660001916815260200182805190602001908083835b602083106129995780518252601f19909201916020918201910161297a565b6001836020036101000a03801982511681845116808217855250505050505090500193505050506040516020818303038152906040526040518082805190602001908083835b602083106129fe5780518252601f1990920191602091820191016129df565b518151600019602094850361010090810a82019283169219939093169190911790925260408051969094018690039095206000818152600490935292909120549196506002600183161590940201169190910415159250612ad2915050576040805160e560020a62461bcd02815260206004820152602860248201527f54686973207365616c656420636c61696d206861736e2774206265656e20737560448201527f626d69747465642e000000000000000000000000000000000000000000000000606482015290519081900360840190fd5b816040516020018082805190602001908083835b60208310612b055780518252601f199092019160209182019101612ae6565b6001836020036101000a0380198251168184511680821785525050505050509050019150506040516020818303038152906040526040518082805190602001908083835b60208310612b685780518252601f199092019160209182019101612b49565b6001836020036101000a0380198251168184511680821785525050505050509050019150506040518091039020600019166004600083600019166000191681526020019081526020016000206040516020018082805460018160011615610100020316600290048015612c125780601f10612bf0576101008083540402835291820191612c12565b820191906000526020600020905b815481529060010190602001808311612bfe575b50509150506040516020818303038152906040526040518082805190602001908083835b60208310612c555780518252601f199092019160209182019101612c36565b6001836020036101000a038019825116818451168082178552505050505050905001915050604051809103902060001916141515612cdd576040805160e560020a62461bcd02815260206004820152601260248201527f496e76616c6964207369676e61747572652e0000000000000000000000000000604482015290519081900360640190fd5b6002826040518082805190602001908083835b60208310612d0f5780518252601f199092019160209182019101612cf0565b51815160209384036101000a6000190180199092169116179052920194855250604080519485900390910184207fe843cfc100000000000000000000000000000000000000000000000000000000855260010160048501523360248501525173__addressSet____________________________9363e843cfc193506044808201935060009291829003018186803b158015612daa57600080fd5b505af4158015612dbe573d6000803e3d6000fd5b50503360009081526003602090815260409091208551612de5945090925090850190614981565b50604080516020808252845181830152845133937f2be678be80f933616827673a0e18aff5f1a842846e6c635f7334091f162061949387939092839283019185019080838360005b83811015612e45578181015183820152602001612e2d565b50505050905090810190601f168015612e725780820380516001836020036101000a031916815260200191505b509250505060405180910390a2505050565b6060612e8f82612fb4565b1515612f0b576040805160e560020a62461bcd02815260206004820152602360248201527f546865206164647265737320646f6573206e6f7420686176652061206879647260448201527f6f49640000000000000000000000000000000000000000000000000000000000606482015290519081900360840190fd5b600160a060020a03821660009081526003602090815260409182902080548351601f600260001961010060018616150201909316929092049182018490048402810184019094528084529091830182828015612fa85780601f10612f7d57610100808354040283529160200191612fa8565b820191906000526020600020905b815481529060010190602001808311612f8b57829003601f168201915b50505050509050919050565b600160a060020a031660009081526003602052604090205460026001821615610100026000190190911604151590565b33600180612ff183612fb4565b15151461304a576040805160e560020a62461bcd0281526020600482015260316024820152600080516020614a3a8339815191526044820152600080516020614a1a833981519152606482015290519081900360840190fd5b3360009081526003602090815260409182902080548351601f600260001961010060018616150201909316929092049182018490048402810184019094528084526130ed93928301828280156130e15780601f106130b6576101008083540402835291602001916130e1565b820191906000526020600020905b8154815290600101906020018083116130c457829003601f168201915b505050505085856142c8565b1515613143576040805160e560020a62461bcd02815260206004820152601a60248201527f5472616e736665722077617320756e7375636365737366756c2e000000000000604482015290519081900360640190fd5b50505050565b6000803360018061315983612fb4565b1515146131b2576040805160e560020a62461bcd0281526020600482015260316024820152600080516020614a3a8339815191526044820152600080516020614a1a833981519152606482015290519081900360840190fd5b60026003600033600160a060020a0316600160a060020a0316815260200190815260200160002060405180828054600181600116156101000203166002900480156132345780601f10613212576101008083540402835291820191613234565b820191906000526020600020905b815481529060010190602001808311613220575b5050915050908152602001604051809103902093505b845183101561354c578360030173__addressSet____________________________63ee8a71a09091878681518110151561328157fe5b906020019060200201516040518363ffffffff1660e060020a0281526004018083815260200182600160a060020a0316600160a060020a031681526020019250505060206040518083038186803b1580156132db57600080fd5b505af41580156132ef573d6000803e3d6000fd5b505050506040513d602081101561330557600080fd5b50511515613382576040805160e560020a62461bcd028152602060048201526024808201527f536e6f77666c616b6520686173206e6f74207365742074686973207265736f6c60448201527f7665722e00000000000000000000000000000000000000000000000000000000606482015290519081900360840190fd5b8360030173__addressSet____________________________63b65fd294909187868151811015156133b057fe5b906020019060200201516040518363ffffffff1660e060020a0281526004018083815260200182600160a060020a0316600160a060020a031681526020019250505060006040518083038186803b15801561340a57600080fd5b505af415801561341e573d6000803e3d6000fd5b50505050836005016000868581518110151561343657fe5b6020908102909101810151600160a060020a0316825281810192909252604090810160009081208190553381526003909252902085517f404d6e77cb871714dbcbe93f7dbec915c03167e3ad18ba27c4ae2ee3a7b9de39919087908690811061349b57fe5b602090810290910181015160408051600160a060020a0383169381019390935280835283546002600019610100600184161502019091160490830181905290919081906060820190859080156135325780601f1061350757610100808354040283529160200191613532565b820191906000526020600020905b81548152906001019060200180831161351557829003601f168201915b5050935050505060405180910390a160019092019161324a565b5050505050565b60008054600160a060020a0316331461356b57600080fd5b600660009054906101000a9004600160a060020a03169050600a606482600160a060020a03166318160ddd6040518163ffffffff1660e060020a028152600401602060405180830381600087803b1580156135c557600080fd5b505af11580156135d9573d6000803e3d6000fd5b505050506040513d60208110156135ef57600080fd5b50518115156135fa57fe5b0481151561360457fe5b0482111561365c576040805160e560020a62461bcd02815260206004820152601060248201527f46656520697320746f6f20686967682e00000000000000000000000000000000604482015290519081900360640190fd5b50600755565b60006001826040518082805190602001908083835b602083106136965780518252601f199092019160209182019101613677565b51815160209384036101000a6000190180199092169116179052920194855250604051938490030190922054949350505050565b336001806136d783612fb4565b151514613730576040805160e560020a62461bcd0281526020600482015260316024820152600080516020614a3a8339815191526044820152600080516020614a1a833981519152606482015290519081900360840190fd5b60006007541115613846573360009081526003602090815260409182902080548351601f600260001961010060018616150201909316929092049182018490048402810184019094528084526137f093928301828280156137d25780601f106137a7576101008083540402835291602001916137d2565b820191906000526020600020905b8154815290600101906020018083116137b557829003601f168201915b5050600054600754600160a060020a03909116935091506142c89050565b1515613846576040805160e560020a62461bcd02815260206004820152601160248201527f46656520776173206e6f7420706169642e000000000000000000000000000000604482015290519081900360640190fd5b604080517fe843cfc100000000000000000000000000000000000000000000000000000000815260086004820152600160a060020a0385166024820152905173__addressSet____________________________9163e843cfc1916044808301926000929190829003018186803b1580156138c057600080fd5b505af41580156138d4573d6000803e3d6000fd5b5050604080513381529051600160a060020a03871693507f226b9a42bf53928505b48f7cf4b29e4300ced15175effec574adcde11f1b7bb292509081900360200190a2505050565b3360008061392983612fb4565b151514613982576040805160e560020a62461bcd0281526020600482015260316024820152600080516020614a3a8339815191526044820152600080516020614a1a833981519152606482015290519081900360840190fd5b61398b33614665565b5050565b600084818061399d83612fb4565b1515146139f6576040805160e560020a62461bcd0281526020600482015260316024820152600080516020614a3a8339815191526044820152600080516020614a1a833981519152606482015290519081900360840190fd5b600554604080517f43726561746520536e6f77666c616b6500000000000000000000000000000000602080830191909152600160a060020a038b81166c01000000000000000000000000026030840152835180840360240181526044909301938490528251941696508693638677ebe8938c9392909182918401908083835b60208310613a945780518252601f199092019160209182019101613a75565b51815160001960209485036101000a019081169019919091161790526040805194909201849003842060e060020a63ffffffff8a16028552600160a060020a039097166004850152602484019690965260ff8e166044840152606483018d9052608483018c90525160a480840196955090935091839003909101905081600087803b158015613b2257600080fd5b505af1158015613b36573d6000803e3d6000fd5b505050506040513d6020811015613b4c57600080fd5b50511515613ba4576040805160e560020a62461bcd02815260206004820152601260248201527f5065726d697373696f6e2064656e6965642e0000000000000000000000000000604482015290519081900360640190fd5b61244687614665565b600033600180613bbc83612fb4565b151514613c15576040805160e560020a62461bcd0281526020600482015260316024820152600080516020614a3a8339815191526044820152600080516020614a1a833981519152606482015290519081900360840190fd5b6000600160a060020a03166002866040518082805190602001908083835b60208310613c525780518252601f199092019160209182019101613c33565b51815160209384036101000a6000190180199092169116179052920194855250604051938490030190922054600160a060020a031692909214159150613d0a9050576040805160e560020a62461bcd02815260206004820152602c60248201527f4d757374207472616e7366657220746f20616e20487964726f4944207769746860448201527f206120536e6f77666c616b650000000000000000000000000000000000000000606482015290519081900360840190fd5b60008411613d62576040805160e560020a62461bcd02815260206004820152601360248201527f416d6f756e742063616e6e6f7420626520302e00000000000000000000000000604482015290519081900360640190fd5b6003600033600160a060020a0316600160a060020a031681526020019081526020016000209250836001846040518082805460018160011615610100020316600290048015613de85780601f10613dc6576101008083540402835291820191613de8565b820191906000526020600020905b815481529060010190602001808311613dd4575b50509283525050604051908190036020019020541015613e78576040805160e560020a62461bcd02815260206004820152603060248201527f596f75722062616c616e636520697320746f6f206c6f7720746f207472616e7360448201527f666572207468697320616d6f756e742e00000000000000000000000000000000606482015290519081900360840190fd5b613efa846001856040518082805460018160011615610100020316600290048015613eda5780601f10613eb8576101008083540402835291820191613eda565b820191906000526020600020905b815481529060010190602001808311613ec6575b50509283525050604051908190036020019020549063ffffffff61464016565b6001846040518082805460018160011615610100020316600290048015613f585780601f10613f36576101008083540402835291820191613f58565b820191906000526020600020905b815481529060010190602001808311613f44575b5050915050908152602001604051809103902081905550613fda846001876040518082805190602001908083835b60208310613fa55780518252601f199092019160209182019101613f86565b51815160209384036101000a600019018019909216911617905292019485525060405193849003019092205492915050614652565b6001866040518082805190602001908083835b6020831061400c5780518252601f199092019160209182019101613fed565b6001836020036101000a0380198251168184511680821785525050505050509050019150509081526020016040518091039020819055507f0ba86a7b1a51aab98a867b4287bc0979f74397b313b195ffe3c033066a1fd5108386866040518080602001806020018481526020018381038352868181546001816001161561010002031660029004815260200191508054600181600116156101000203166002900480156140fa5780601f106140cf576101008083540402835291602001916140fa565b820191906000526020600020905b8154815290600101906020018083116140dd57829003601f168201915b5050838103825285518152855160209182019187019080838360005b8381101561412e578181015183820152602001614116565b50505050905090810190601f16801561415b5780820380516001836020036101000a031916815260200191505b509550505050505060405180910390a15050505050565b60075481565b600054600160a060020a0316331461418f57600080fd5b600160a060020a03811615156141a457600080fd5b60008054604051600160a060020a03808516939216917f8be0079c531659141344cd1fd0a4f28419497f9722a3daafe3b4186f6b6457e091a36000805473ffffffffffffffffffffffffffffffffffffffff1916600160a060020a0392909216919091179055565b60008181526004602052604090205460026101006001831615026000190190911604156142a9576040805160e560020a62461bcd02815260206004820152602560248201527f54686973207365616c656420636c61696d20686173206265656e207375626d6960448201527f747465642e000000000000000000000000000000000000000000000000000000606482015290519081900360840190fd5b6000818152600460209081526040909120835161132192850190614981565b600080600160a060020a038416301415614352576040805160e560020a62461bcd02815260206004820152603760248201527f43616e6e6f74207472616e7366657220746f2074686520536e6f77666c616b6560448201527f20736d61727420636f6e747261637420697473656c662e000000000000000000606482015290519081900360840190fd5b600083116143aa576040805160e560020a62461bcd02815260206004820152601360248201527f416d6f756e742063616e6e6f7420626520302e00000000000000000000000000604482015290519081900360640190fd5b826001866040518082805190602001908083835b602083106143dd5780518252601f1990920191602091820191016143be565b51815160209384036101000a60001901801990921691161790529201948552506040519384900301909220549290921015915061448c9050576040805160e560020a62461bcd02815260206004820152603660248201527f43616e6e6f74207769746864726177206d6f7265207468616e2074686520637560448201527f7272656e74206465706f7369742062616c616e63652e00000000000000000000606482015290519081900360840190fd5b6144f7836001876040518082805190602001908083835b602083106144c25780518252601f1990920191602091820191016144a3565b51815160209384036101000a600019018019909216911617905292019485525060405193849003019092205492915050614640565b6001866040518082805190602001908083835b602083106145295780518252601f19909201916020918201910161450a565b51815160209384036101000a6000190180199092169116179052920194855250604080519485900382018520959095556006547fa9059cbb000000000000000000000000000000000000000000000000000000008552600160a060020a038a81166004870152602486018a9052955195169550859463a9059cbb94604480820195509293509091908290030181600087803b1580156145c757600080fd5b505af11580156145db573d6000803e3d6000fd5b505050506040513d60208110156145f157600080fd5b5051156116fc57604080518481529051600160a060020a038616917fcce4937f7cb5adfa10d84738fe8c34b18bab1448271142eb72b11c93f8cb2d6f919081900360200190a260019150611701565b60008282111561464c57fe5b50900390565b8181018281101561465f57fe5b92915050565b600554604080517f69c212f6000000000000000000000000000000000000000000000000000000008152600160a060020a0384811660048301529151919092169160609160009184916369c212f691602480820192869290919082900301818387803b1580156146d457600080fd5b505af11580156146e8573d6000803e3d6000fd5b505050506040513d6000823e601f3d908101601f19168201604052602081101561471157600080fd5b81019080805164010000000081111561472957600080fd5b8201602081018481111561473c57600080fd5b815164010000000081118282018710171561475657600080fd5b505092919050505091506002826040518082805190602001908083835b602083106147925780518252601f199092019160209182019101614773565b51815160209384036101000a600019018019909216911617905292019485525060408051948590039091018420805473ffffffffffffffffffffffffffffffffffffffff1916600160a060020a038a1690811782557fe843cfc10000000000000000000000000000000000000000000000000000000086526001820160048701526024860152905190945073__addressSet____________________________9363e843cfc193506044808201935060009291829003018186803b15801561485957600080fd5b505af415801561486d573d6000803e3d6000fd5b50505050600160a060020a0384166000908152600360209081526040909120835161489a92850190614981565b507fda4ceafeac22a713cdc4aa432c2fb82f18f652d0a0bea996305363c2a40f0e5b826040518080602001828103825283818151815260200191508051906020019080838360005b838110156148fa5781810151838201526020016148e2565b50505050905090810190601f1680156149275780820380516001836020036101000a031916815260200191505b509250505060405180910390a150505050565b50805460018160011615610100020316600290046000825580601f10614960575061497e565b601f01602090049060005260206000209081019061497e91906149ff565b50565b828054600181600116156101000203166002900490600052602060002090601f016020900481019282601f106149c257805160ff19168380011785556149ef565b828001600101855582156149ef579182015b828111156149ef5782518255916020019190600101906149d4565b506149fb9291506149ff565b5090565b610dd091905b808211156149fb5760008155600101614a05560068617665206120536e6f77666c616b652e000000000000000000000000000000546865207472616e73616374696f6e2073656e64657220646f6573206e6f7420a165627a7a72305820ea503730a27f0758c29a5e8f959aab8d527a0c3ca06db5df2627fa8e40310de30029",
  "source": "pragma solidity ^0.4.24;\n\nimport \"./zeppelin/ownership/Ownable.sol\";\nimport \"./zeppelin/token/ERC20/ERC20.sol\";\nimport \"./zeppelin/math/SafeMath.sol\";\n\nimport \"./libraries/addressSet.sol\";\n\ncontract SnowflakeResolver {\n    function onSignUp(string hydroId, uint allowance) public returns (bool);\n}\n\ncontract ClientRaindrop {\n    function getUserByAddress(address _address) external view returns (string userName);\n    function isSigned(address _address, bytes32 messageHash, uint8 v, bytes32 r, bytes32 s) public pure returns (bool);\n}\n\ncontract Snowflake is Ownable {\n    using SafeMath for uint;\n    using addressSet for addressSet._addressSet;\n\n    // hydro token wrapper variable\n    mapping (string => uint) internal deposits;\n\n    // lookup mappings -- accessible only by wrapper functions\n    mapping (string => Identity) internal directory;\n    mapping (address => string) internal addressDirectory;\n    mapping (bytes32 => string) internal initiatedAddressClaims;\n\n    // admin/contract variables\n    address public clientRaindropAddress;\n    address public hydroTokenAddress;\n\n    uint public resolverWhitelistFee;\n    addressSet._addressSet resolverWhitelist;\n\n    // identity structures\n    struct Identity {\n        address owner;\n        addressSet._addressSet addresses;\n        addressSet._addressSet resolvers;\n        mapping(address => uint) resolverAllowances;\n    }\n\n    // checks whether the given address is owned by a token (does not throw)\n    function hasToken(address _address) public view returns (bool) {\n        return bytes(addressDirectory[_address]).length != 0;\n    }\n\n    // enforces that a particular address has a token\n    modifier _hasToken(address _address, bool check) {\n        require(hasToken(_address) == check, \"The transaction sender does not have a Snowflake.\");\n        _;\n    }\n\n    // gets the HydroID for an address (throws if address doesn't have a HydroID or doesn't have a snowflake)\n    function getHydroId(address _address) public view returns (string hydroId) {\n        require(hasToken(_address), \"The address does not have a hydroId\");\n        return addressDirectory[_address];\n    }\n\n    // set the fee to become a resolver\n    function setResolverWhitelistFee(uint fee) public onlyOwner {\n        ERC20 hydro = ERC20(hydroTokenAddress);\n        require(fee <= (hydro.totalSupply() / 100 / 10), \"Fee is too high.\");\n        resolverWhitelistFee = fee;\n    }\n\n    // allows whitelisting of resolvers\n    // TODO add additional requirements to become a resolver here?\n    function whitelistResolver(address resolver) public _hasToken(msg.sender, true) {\n        if (resolverWhitelistFee > 0) {\n            require(_withdraw(addressDirectory[msg.sender], owner, resolverWhitelistFee), \"Fee was not paid.\");\n        }\n        resolverWhitelist.insert(resolver);\n        emit ResolverWhitelisted(resolver, msg.sender);\n    }\n\n    function isWhitelisted(address resolver) public view returns(bool) {\n        return resolverWhitelist.contains(resolver);\n    }\n\n    function getWhitelistedResolvers() public view returns(address[]) {\n        return resolverWhitelist.members;\n    }\n\n    // set the raindrop and hydro token addresses\n    function setAddresses(address clientRaindrop, address hydroToken) public onlyOwner {\n        clientRaindropAddress = clientRaindrop;\n        hydroTokenAddress = hydroToken;\n    }\n\n    // token minting\n    function mintIdentityToken() public _hasToken(msg.sender, false) {\n        _mintIdentityToken(msg.sender);\n    }\n\n    function mintIdentityTokenDelegated(address _address, uint8 v, bytes32 r, bytes32 s)\n        public _hasToken(_address, false)\n    {\n        ClientRaindrop clientRaindrop = ClientRaindrop(clientRaindropAddress);\n        require(\n            clientRaindrop.isSigned(\n                _address, keccak256(abi.encodePacked(\"Create Snowflake\", _address)), v, r, s\n            ),\n            \"Permission denied.\"\n        );\n        _mintIdentityToken(_address);\n    }\n\n    function _mintIdentityToken(address _address) internal {\n        ClientRaindrop clientRaindrop = ClientRaindrop(clientRaindropAddress);\n        string memory hydroId = clientRaindrop.getUserByAddress(_address);\n\n        Identity storage identity = directory[hydroId];\n\n        identity.owner = _address;\n        identity.addresses.insert(_address);\n\n        addressDirectory[_address] = hydroId;\n\n        emit SnowflakeMinted(hydroId);\n    }\n\n    // wrappers that enable modifying resolvers\n    function addResolvers(address[] resolvers, uint[] withdrawAllowances) public _hasToken(msg.sender, true) {\n        require(resolvers.length == withdrawAllowances.length && resolvers.length < 10, \"Malformed inputs.\");\n\n        Identity storage identity = directory[addressDirectory[msg.sender]];\n\n        for (uint i; i < resolvers.length; i++) {\n            require(resolverWhitelist.contains(resolvers[i]), \"The given resolver is not on the whitelist.\");\n            require(!identity.resolvers.contains(resolvers[i]), \"Snowflake has already set this resolver.\");\n            SnowflakeResolver snowflakeResolver = SnowflakeResolver(resolvers[i]);\n            require(\n                snowflakeResolver.onSignUp(addressDirectory[msg.sender], withdrawAllowances[i]),\n                \"Sign up failure.\"\n            );\n            identity.resolvers.insert(resolvers[i]);\n            identity.resolverAllowances[resolvers[i]] = withdrawAllowances[i];\n            emit ResolverAdded(addressDirectory[msg.sender], resolvers[i], withdrawAllowances[i]);\n        }\n    }\n\n    function changeResolverAllowances(address[] resolvers, uint[] withdrawAllowances)\n        public _hasToken(msg.sender, true)\n    {\n        require(resolvers.length == withdrawAllowances.length && resolvers.length < 10, \"Malformed inputs.\");\n\n        Identity storage identity = directory[addressDirectory[msg.sender]];\n\n        for (uint i; i < resolvers.length; i++) {\n            require(identity.resolvers.contains(resolvers[i]), \"Snowflake has not set this resolver.\");\n            identity.resolverAllowances[resolvers[i]] = withdrawAllowances[i];\n            emit ResolverAllowanceChanged(addressDirectory[msg.sender], resolvers[i], withdrawAllowances[i]);\n        }\n    }\n\n    function removeResolvers(address[] resolvers) public _hasToken(msg.sender, true) {\n        Identity storage identity = directory[addressDirectory[msg.sender]];\n\n        for (uint i; i < resolvers.length; i++) {\n            require(identity.resolvers.contains(resolvers[i]), \"Snowflake has not set this resolver.\");\n            identity.resolvers.remove(resolvers[i]);\n            delete identity.resolverAllowances[resolvers[i]];\n            emit ResolverRemoved(addressDirectory[msg.sender], resolvers[i]);\n        }\n    }\n\n    // functions to read token values (does not throw)\n    function getDetails(string hydroId) public view returns (\n        address owner,\n        address[] resolvers,\n        address[] ownedAddresses\n    ) {\n        Identity storage identity = directory[hydroId];\n        return (\n            identity.owner,\n            identity.resolvers.members,\n            identity.addresses.members\n        );\n    }\n\n    // check resolver membership (does not throw)\n    function hasResolver(string hydroId, address resolver) public view returns (bool) {\n        Identity storage identity = directory[hydroId];\n        return identity.resolvers.contains(resolver);\n    }\n\n    // check address ownership (does not throw)\n    function ownsAddress(string hydroId, address _address) public view returns (bool) {\n        Identity storage identity = directory[hydroId];\n        return identity.addresses.contains(_address);\n    }\n\n    // check resolver allowances (does not throw)\n    function getResolverAllowance(string hydroId, address resolver) public view returns (uint withdrawAllowance) {\n        Identity storage identity = directory[hydroId];\n        return identity.resolverAllowances[resolver];\n    }\n\n    // allow contract to receive HYDRO tokens\n    function receiveApproval(address sender, uint amount, address _tokenAddress, bytes) public _hasToken(sender, true) {\n        require(msg.sender == _tokenAddress, \"Malformed inputs.\");\n        require(_tokenAddress == hydroTokenAddress, \"Sender is not the HYDRO token smart contract.\");\n\n        ERC20 hydro = ERC20(_tokenAddress);\n        require(hydro.transferFrom(sender, address(this), amount), \"Unable to transfer token ownership.\");\n\n        deposits[addressDirectory[sender]] = deposits[addressDirectory[sender]].add(amount);\n\n        emit SnowflakeDeposit(addressDirectory[sender], amount);\n    }\n\n    function snowflakeBalance(string hydroId) public view returns (uint) {\n        return deposits[hydroId];\n    }\n\n    // transfer snowflake balance to another Snowflake holder (throws if unsuccessful)\n    function transferSnowflakeBalance(string hydroIdTo, uint amount) public _hasToken(msg.sender, true) {\n        require(directory[hydroIdTo].owner != address(0), \"Must transfer to an HydroID with a Snowflake\");\n        require(amount > 0, \"Amount cannot be 0.\");\n\n        string storage hydroIdFrom = addressDirectory[msg.sender];\n        require(deposits[hydroIdFrom] >= amount, \"Your balance is too low to transfer this amount.\");\n        deposits[hydroIdFrom] = deposits[hydroIdFrom].sub(amount);\n        deposits[hydroIdTo] = deposits[hydroIdTo].add(amount);\n        emit SnowflakeTransfer(hydroIdFrom, hydroIdTo, amount);\n    }\n\n    // withdraw Snowflake balance to an external address\n    function withdrawSnowflakeBalanceTo(address to, uint amount) public _hasToken(msg.sender, true) {\n        require(_withdraw(addressDirectory[msg.sender], to, amount), \"Transfer was unsuccessful.\");\n    }\n\n    // allows resolvers to withdraw to an external address from snowflakes that have approved them\n    function withdrawFrom(string hydroIdFrom, address to, uint amount) public returns (bool) {\n        Identity storage identity = directory[hydroIdFrom];\n        require(identity.owner != address(0), \"Must withdraw from a HydroID with a Snowflake\");\n        require(identity.resolvers.contains(msg.sender), \"Resolver has not been set by from tokenholder.\");\n        \n        if (identity.resolverAllowances[msg.sender] < amount) {\n            emit InsufficientAllowance(hydroIdFrom, msg.sender, identity.resolverAllowances[msg.sender], amount);\n            return false;\n        } else {\n            if (_withdraw(hydroIdFrom, to, amount)) {\n                identity.resolverAllowances[msg.sender] = identity.resolverAllowances[msg.sender].sub(amount);\n                return true;\n            } else {\n                return false;\n            }\n        }\n    }\n\n    function _withdraw(string hydroIdFrom, address to, uint amount) internal returns (bool) {\n        require(to != address(this), \"Cannot transfer to the Snowflake smart contract itself.\");\n        require(amount > 0, \"Amount cannot be 0.\");\n\n        require(deposits[hydroIdFrom] >= amount, \"Cannot withdraw more than the current deposit balance.\");\n        deposits[hydroIdFrom] = deposits[hydroIdFrom].sub(amount);\n        ERC20 hydro = ERC20(hydroTokenAddress);\n        if (hydro.transfer(to, amount)) {\n            emit SnowflakeWithdraw(to, amount);\n            return true;\n        } else {\n            return false;\n        }\n    }\n\n    // address ownership functions\n    // to claim an address, users need to send a transaction from their snowflake address containing a sealed claim\n    // sealedClaims are: keccak256(abi.encodePacked(<address>, <secret>, <hydroId>)),\n    // where <address> is the address you'd like to claim, and <secret> is a SECRET bytes32 value.\n    function initiateClaimFor(string hydroId, bytes32 sealedClaim, uint8 v, bytes32 r, bytes32 s) public {\n        require(directory[hydroId].owner != address(0), \"Must initiate claim for a HydroID with a Snowflake\");\n\n        ClientRaindrop clientRaindrop = ClientRaindrop(clientRaindropAddress);\n        require(\n            clientRaindrop.isSigned(\n                directory[hydroId].owner, keccak256(abi.encodePacked(\"Initiate Claim\", sealedClaim)), v, r, s\n            ),\n            \"Permission denied.\"\n        );\n\n        _initiateClaim(hydroId, sealedClaim);\n    }\n\n    function initiateClaim(bytes32 sealedClaim) public _hasToken(msg.sender, true) {\n        _initiateClaim(addressDirectory[msg.sender], sealedClaim);\n    }\n\n    function _initiateClaim(string hydroId, bytes32 sealedClaim) internal {\n        require(bytes(initiatedAddressClaims[sealedClaim]).length == 0, \"This sealed claim has been submitted.\");\n        initiatedAddressClaims[sealedClaim] = hydroId;\n    }\n\n    function finalizeClaim(bytes32 secret, string hydroId) public {\n        bytes32 possibleSealedClaim = keccak256(abi.encodePacked(msg.sender, secret, hydroId));\n        require(\n            bytes(initiatedAddressClaims[possibleSealedClaim]).length != 0, \"This sealed claim hasn't been submitted.\"\n        );\n\n        // ensure that the claim wasn't stolen by another HydroID during initialization\n        require(\n            keccak256(abi.encodePacked(initiatedAddressClaims[possibleSealedClaim])) ==\n            keccak256(abi.encodePacked(hydroId)),\n            \"Invalid signature.\"\n        );\n\n        directory[hydroId].addresses.insert(msg.sender);\n        addressDirectory[msg.sender] = hydroId;\n\n        emit AddressClaimed(msg.sender, hydroId);\n    }\n\n    function unclaim(address _address) public _hasToken(msg.sender, true) {\n        directory[addressDirectory[msg.sender]].addresses.remove(_address);\n        delete addressDirectory[_address];\n        emit AddressUnclaimed(_address, addressDirectory[msg.sender]);\n    }\n\n    // events\n    event SnowflakeMinted(string hydroId);\n\n    event ResolverWhitelisted(address indexed resolver, address sponsor);\n\n    event ResolverAdded(string hydroId, address resolver, uint withdrawAllowance);\n    event ResolverAllowanceChanged(string hydroId, address resolver, uint withdrawAllowance);\n    event ResolverRemoved(string hydroId, address resolver);\n\n    event SnowflakeDeposit(string hydroId, uint amount);\n    event SnowflakeTransfer(string hydroIdFrom, string hydroIdTo, uint amount);\n    event SnowflakeWithdraw(address indexed hydroId, uint amount);\n    event InsufficientAllowance(\n        string hydroId, address indexed resolver, uint currentAllowance, uint requestedWithdraw\n    );\n\n    event AddressClaimed(address indexed _address, string hydroId);\n    event AddressUnclaimed(address indexed _address, string hydroId);\n}",
  "sourcePath": "/Users/noahzinsmeister/Documents/github/smart-contracts/snowflake/contracts/Snowflake.sol",
  "compiler": {
    "name": "solc",
    "version": "0.4.24+commit.e67f0147.Emscripten.clang"
  },
  "schemaVersion": "2.0.1",
  "updatedAt": "2018-08-10T20:30:24.296Z"
}