{
  "contractName": "SnowflakeResolver",
  "abi": [
    {
      "constant": true,
      "inputs": [],
      "name": "snowflakeDescription",
      "outputs": [
        {
          "name": "",
          "type": "string"
        }
      ],
      "payable": false,
      "stateMutability": "view",
      "type": "function"
    },
    {
      "constant": true,
      "inputs": [],
      "name": "snowflakeName",
      "outputs": [
        {
          "name": "",
          "type": "string"
        }
      ],
      "payable": false,
      "stateMutability": "view",
      "type": "function"
    },
    {
      "constant": true,
      "inputs": [],
      "name": "owner",
      "outputs": [
        {
          "name": "",
          "type": "address"
        }
      ],
      "payable": false,
      "stateMutability": "view",
      "type": "function"
    },
    {
      "constant": false,
      "inputs": [
        {
          "name": "newOwner",
          "type": "address"
        }
      ],
      "name": "transferOwnership",
      "outputs": [],
      "payable": false,
      "stateMutability": "nonpayable",
      "type": "function"
    },
    {
      "constant": true,
      "inputs": [],
      "name": "snowflakeAddress",
      "outputs": [
        {
          "name": "",
          "type": "address"
        }
      ],
      "payable": false,
      "stateMutability": "view",
      "type": "function"
    },
    {
      "anonymous": false,
      "inputs": [
        {
          "indexed": true,
          "name": "previousOwner",
          "type": "address"
        },
        {
          "indexed": true,
          "name": "newOwner",
          "type": "address"
        }
      ],
      "name": "OwnershipTransferred",
      "type": "event"
    },
    {
      "constant": false,
      "inputs": [
        {
          "name": "_address",
          "type": "address"
        }
      ],
      "name": "setSnowflakeAddress",
      "outputs": [],
      "payable": false,
      "stateMutability": "nonpayable",
      "type": "function"
    },
    {
      "constant": true,
      "inputs": [
        {
          "name": "",
          "type": "string"
        },
        {
          "name": "",
          "type": "uint256"
        }
      ],
      "name": "onSignUp",
      "outputs": [
        {
          "name": "",
          "type": "bool"
        }
      ],
      "payable": false,
      "stateMutability": "view",
      "type": "function"
    }
  ],
  "bytecode": "0x608060405260008054600160a060020a0319163317905561044b806100256000396000f3006080604052600436106100825763ffffffff7c010000000000000000000000000000000000000000000000000000000060003504166376acf1b6811461008757806388cdab94146101115780638da5cb5b14610126578063c979b05a14610157578063f2fde38b1461017a578063f9f451b81461019b578063ff4cfa5e146101b0575b600080fd5b34801561009357600080fd5b5061009c61021f565b6040805160208082528351818301528351919283929083019185019080838360005b838110156100d65781810151838201526020016100be565b50505050905090810190601f1680156101035780820380516001836020036101000a031916815260200191505b509250505060405180910390f35b34801561011d57600080fd5b5061009c6102aa565b34801561013257600080fd5b5061013b610304565b60408051600160a060020a039092168252519081900360200190f35b34801561016357600080fd5b50610178600160a060020a0360043516610313565b005b34801561018657600080fd5b50610178600160a060020a0360043516610359565b3480156101a757600080fd5b5061013b6103ed565b3480156101bc57600080fd5b506040805160206004803580820135601f810184900484028501840190955284845261020b94369492936024939284019190819084018382808284375094975050933594506103fc9350505050565b604080519115158252519081900360200190f35b6002805460408051602060018416156101000260001901909316849004601f810184900484028201840190925281815292918301828280156102a25780601f10610277576101008083540402835291602001916102a2565b820191906000526020600020905b81548152906001019060200180831161028557829003601f168201915b505050505081565b60018054604080516020600284861615610100026000190190941693909304601f810184900484028201840190925281815292918301828280156102a25780601f10610277576101008083540402835291602001916102a2565b600054600160a060020a031681565b600054600160a060020a0316331461032a57600080fd5b6003805473ffffffffffffffffffffffffffffffffffffffff1916600160a060020a0392909216919091179055565b600054600160a060020a0316331461037057600080fd5b600160a060020a038116151561038557600080fd5b60008054604051600160a060020a03808516939216917f8be0079c531659141344cd1fd0a4f28419497f9722a3daafe3b4186f6b6457e091a36000805473ffffffffffffffffffffffffffffffffffffffff1916600160a060020a0392909216919091179055565b600354600160a060020a031681565b600354600090600160a060020a0316331461041657600080fd5b506001929150505600a165627a7a72305820d5313340328ae2581ac714c0746aca0f0db9e41c2c958f58a590a0194c1de6b80029",
  "source": "pragma solidity ^0.4.23;\n\nimport \"../zeppelin/ownership/Ownable.sol\";\n\ncontract SnowflakeResolver is Ownable {\n    string public snowflakeName;\n    string public snowflakeDescription;\n    address public snowflakeAddress;\n\n    function setSnowflakeAddress(address _address) public onlyOwner {\n        snowflakeAddress = _address;\n    }\n\n    function onSignUp(string, uint) public view returns (bool) {\n        require(msg.sender == snowflakeAddress);\n        return true;\n    }\n}\n",
  "sourcePath": "/Users/noahzinsmeister/Documents/github/smart-contracts/snowflake/contracts/resolvers/SnowflakeResolver.sol",
  "compiler": {
    "name": "solc",
    "version": "0.4.24+commit.e67f0147.Emscripten.clang"
  },
  "schemaVersion": "2.0.1",
  "updatedAt": "2018-07-27T22:07:13.186Z"
}