{
  "contractName": "Snowflake",
  "abi": [
    {
      "constant": true,
      "inputs": [],
      "name": "clientRaindropAddress",
      "outputs": [
        {
          "name": "",
          "type": "address"
        }
      ],
      "payable": false,
      "stateMutability": "view",
      "type": "function"
    },
    {
      "constant": true,
      "inputs": [
        {
          "name": "",
          "type": "uint256"
        }
      ],
      "name": "dateOrder",
      "outputs": [
        {
          "name": "",
          "type": "string"
        }
      ],
      "payable": false,
      "stateMutability": "view",
      "type": "function"
    },
    {
      "constant": true,
      "inputs": [],
      "name": "hydroTokenAddress",
      "outputs": [
        {
          "name": "",
          "type": "address"
        }
      ],
      "payable": false,
      "stateMutability": "view",
      "type": "function"
    },
    {
      "constant": true,
      "inputs": [],
      "name": "owner",
      "outputs": [
        {
          "name": "",
          "type": "address"
        }
      ],
      "payable": false,
      "stateMutability": "view",
      "type": "function"
    },
    {
      "constant": true,
      "inputs": [
        {
          "name": "",
          "type": "uint256"
        }
      ],
      "name": "fieldOrder",
      "outputs": [
        {
          "name": "",
          "type": "string"
        }
      ],
      "payable": false,
      "stateMutability": "view",
      "type": "function"
    },
    {
      "constant": true,
      "inputs": [],
      "name": "resolverWhitelistFee",
      "outputs": [
        {
          "name": "",
          "type": "uint256"
        }
      ],
      "payable": false,
      "stateMutability": "view",
      "type": "function"
    },
    {
      "constant": false,
      "inputs": [
        {
          "name": "newOwner",
          "type": "address"
        }
      ],
      "name": "transferOwnership",
      "outputs": [],
      "payable": false,
      "stateMutability": "nonpayable",
      "type": "function"
    },
    {
      "constant": true,
      "inputs": [
        {
          "name": "",
          "type": "uint256"
        }
      ],
      "name": "nameOrder",
      "outputs": [
        {
          "name": "",
          "type": "string"
        }
      ],
      "payable": false,
      "stateMutability": "view",
      "type": "function"
    },
    {
      "constant": true,
      "inputs": [
        {
          "name": "",
          "type": "address"
        }
      ],
      "name": "deposits",
      "outputs": [
        {
          "name": "",
          "type": "uint256"
        }
      ],
      "payable": false,
      "stateMutability": "view",
      "type": "function"
    },
    {
      "inputs": [],
      "payable": false,
      "stateMutability": "nonpayable",
      "type": "constructor"
    },
    {
      "anonymous": false,
      "inputs": [
        {
          "indexed": true,
          "name": "depositor",
          "type": "address"
        },
        {
          "indexed": false,
          "name": "amount",
          "type": "uint256"
        }
      ],
      "name": "SnowflakeDeposit",
      "type": "event"
    },
    {
      "anonymous": false,
      "inputs": [
        {
          "indexed": true,
          "name": "from",
          "type": "address"
        },
        {
          "indexed": true,
          "name": "to",
          "type": "address"
        },
        {
          "indexed": false,
          "name": "amount",
          "type": "uint256"
        }
      ],
      "name": "SnowflakeTransfer",
      "type": "event"
    },
    {
      "anonymous": false,
      "inputs": [
        {
          "indexed": true,
          "name": "depositor",
          "type": "address"
        },
        {
          "indexed": false,
          "name": "amount",
          "type": "uint256"
        }
      ],
      "name": "SnowflakeWithdraw",
      "type": "event"
    },
    {
      "anonymous": false,
      "inputs": [
        {
          "indexed": false,
          "name": "hydroId",
          "type": "string"
        },
        {
          "indexed": false,
          "name": "minter",
          "type": "address"
        }
      ],
      "name": "SnowflakeMinted",
      "type": "event"
    },
    {
      "anonymous": false,
      "inputs": [
        {
          "indexed": true,
          "name": "resolver",
          "type": "address"
        },
        {
          "indexed": false,
          "name": "sponsor",
          "type": "address"
        }
      ],
      "name": "ResolverWhitelisted",
      "type": "event"
    },
    {
      "anonymous": false,
      "inputs": [
        {
          "indexed": true,
          "name": "hydroId",
          "type": "string"
        },
        {
          "indexed": false,
          "name": "resolvers",
          "type": "address[]"
        },
        {
          "indexed": false,
          "name": "withdrawAllowances",
          "type": "uint256[]"
        }
      ],
      "name": "ResolversAdded",
      "type": "event"
    },
    {
      "anonymous": false,
      "inputs": [
        {
          "indexed": true,
          "name": "hydroId",
          "type": "string"
        },
        {
          "indexed": false,
          "name": "resolvers",
          "type": "address[]"
        },
        {
          "indexed": false,
          "name": "withdrawAllowances",
          "type": "uint256[]"
        }
      ],
      "name": "ResolversAllowanceChanged",
      "type": "event"
    },
    {
      "anonymous": false,
      "inputs": [
        {
          "indexed": true,
          "name": "hydroId",
          "type": "string"
        },
        {
          "indexed": false,
          "name": "resolvers",
          "type": "address[]"
        }
      ],
      "name": "ResolversRemoved",
      "type": "event"
    },
    {
      "anonymous": false,
      "inputs": [
        {
          "indexed": true,
          "name": "hydroId",
          "type": "string"
        },
        {
          "indexed": false,
          "name": "resolver",
          "type": "address"
        },
        {
          "indexed": false,
          "name": "currentAllowance",
          "type": "uint256"
        },
        {
          "indexed": false,
          "name": "requestedWithdraw",
          "type": "uint256"
        }
      ],
      "name": "InsufficientAllowance",
      "type": "event"
    },
    {
      "anonymous": false,
      "inputs": [
        {
          "indexed": true,
          "name": "previousOwner",
          "type": "address"
        },
        {
          "indexed": true,
          "name": "newOwner",
          "type": "address"
        }
      ],
      "name": "OwnershipTransferred",
      "type": "event"
    },
    {
      "constant": true,
      "inputs": [
        {
          "name": "_address",
          "type": "address"
        }
      ],
      "name": "hasToken",
      "outputs": [
        {
          "name": "",
          "type": "bool"
        }
      ],
      "payable": false,
      "stateMutability": "view",
      "type": "function"
    },
    {
      "constant": true,
      "inputs": [
        {
          "name": "_address",
          "type": "address"
        }
      ],
      "name": "getHydroId",
      "outputs": [
        {
          "name": "hydroId",
          "type": "string"
        }
      ],
      "payable": false,
      "stateMutability": "view",
      "type": "function"
    },
    {
      "constant": false,
      "inputs": [
        {
          "name": "fee",
          "type": "uint256"
        }
      ],
      "name": "setResolverWhitelistFee",
      "outputs": [],
      "payable": false,
      "stateMutability": "nonpayable",
      "type": "function"
    },
    {
      "constant": false,
      "inputs": [
        {
          "name": "resolver",
          "type": "address"
        }
      ],
      "name": "whitelistResolver",
      "outputs": [],
      "payable": false,
      "stateMutability": "nonpayable",
      "type": "function"
    },
    {
      "constant": true,
      "inputs": [
        {
          "name": "resolver",
          "type": "address"
        }
      ],
      "name": "isWhitelisted",
      "outputs": [
        {
          "name": "",
          "type": "bool"
        }
      ],
      "payable": false,
      "stateMutability": "view",
      "type": "function"
    },
    {
      "constant": false,
      "inputs": [
        {
          "name": "clientRaindrop",
          "type": "address"
        },
        {
          "name": "hydroToken",
          "type": "address"
        }
      ],
      "name": "setAddresses",
      "outputs": [],
      "payable": false,
      "stateMutability": "nonpayable",
      "type": "function"
    },
    {
      "constant": false,
      "inputs": [
        {
          "name": "names",
          "type": "bytes32[6]"
        },
        {
          "name": "dateOfBirth",
          "type": "bytes32[3]"
        }
      ],
      "name": "mintIdentityToken",
      "outputs": [],
      "payable": false,
      "stateMutability": "nonpayable",
      "type": "function"
    },
    {
      "constant": false,
      "inputs": [
        {
          "name": "resolvers",
          "type": "address[]"
        },
        {
          "name": "withdrawAllowances",
          "type": "uint256[]"
        }
      ],
      "name": "addResolvers",
      "outputs": [],
      "payable": false,
      "stateMutability": "nonpayable",
      "type": "function"
    },
    {
      "constant": false,
      "inputs": [
        {
          "name": "resolvers",
          "type": "address[]"
        },
        {
          "name": "withdrawAllowances",
          "type": "uint256[]"
        }
      ],
      "name": "changeResolverAllowances",
      "outputs": [],
      "payable": false,
      "stateMutability": "nonpayable",
      "type": "function"
    },
    {
      "constant": false,
      "inputs": [
        {
          "name": "resolvers",
          "type": "address[]"
        }
      ],
      "name": "removeResolvers",
      "outputs": [],
      "payable": false,
      "stateMutability": "nonpayable",
      "type": "function"
    },
    {
      "constant": false,
      "inputs": [
        {
          "name": "field",
          "type": "string"
        },
        {
          "name": "entry",
          "type": "string"
        },
        {
          "name": "saltedHash",
          "type": "bytes32"
        }
      ],
      "name": "addFieldEntry",
      "outputs": [],
      "payable": false,
      "stateMutability": "nonpayable",
      "type": "function"
    },
    {
      "constant": false,
      "inputs": [
        {
          "name": "field",
          "type": "string"
        },
        {
          "name": "entry",
          "type": "string"
        }
      ],
      "name": "removeFieldEntry",
      "outputs": [],
      "payable": false,
      "stateMutability": "nonpayable",
      "type": "function"
    },
    {
      "constant": true,
      "inputs": [
        {
          "name": "hydroId",
          "type": "string"
        },
        {
          "name": "resolver",
          "type": "address"
        }
      ],
      "name": "hasResolver",
      "outputs": [
        {
          "name": "",
          "type": "bool"
        }
      ],
      "payable": false,
      "stateMutability": "view",
      "type": "function"
    },
    {
      "constant": true,
      "inputs": [
        {
          "name": "hydroId",
          "type": "string"
        },
        {
          "name": "resolver",
          "type": "address"
        }
      ],
      "name": "getDetails",
      "outputs": [
        {
          "name": "withdrawAllowance",
          "type": "uint256"
        }
      ],
      "payable": false,
      "stateMutability": "view",
      "type": "function"
    },
    {
      "constant": true,
      "inputs": [
        {
          "name": "hydroId",
          "type": "string"
        },
        {
          "name": "field",
          "type": "string"
        }
      ],
      "name": "getDetails",
      "outputs": [
        {
          "name": "entriesAttestedTo",
          "type": "bytes32[]"
        }
      ],
      "payable": false,
      "stateMutability": "view",
      "type": "function"
    },
    {
      "constant": true,
      "inputs": [
        {
          "name": "hydroId",
          "type": "string"
        }
      ],
      "name": "getDetails",
      "outputs": [
        {
          "name": "owner",
          "type": "address"
        },
        {
          "name": "fieldsAttestedTo",
          "type": "bytes32[]"
        },
        {
          "name": "resolversFor",
          "type": "address[]"
        }
      ],
      "payable": false,
      "stateMutability": "view",
      "type": "function"
    },
    {
      "constant": true,
      "inputs": [
        {
          "name": "hydroId",
          "type": "string"
        },
        {
          "name": "field",
          "type": "string"
        },
        {
          "name": "entryLookup",
          "type": "bytes32"
        }
      ],
      "name": "getDetails",
      "outputs": [
        {
          "name": "entryName",
          "type": "string"
        },
        {
          "name": "saltedHash",
          "type": "bytes32"
        },
        {
          "name": "blockNumber",
          "type": "uint256"
        }
      ],
      "payable": false,
      "stateMutability": "view",
      "type": "function"
    },
    {
      "constant": false,
      "inputs": [
        {
          "name": "_sender",
          "type": "address"
        },
        {
          "name": "amount",
          "type": "uint256"
        },
        {
          "name": "_tokenAddress",
          "type": "address"
        },
        {
          "name": "",
          "type": "bytes"
        }
      ],
      "name": "receiveApproval",
      "outputs": [],
      "payable": false,
      "stateMutability": "nonpayable",
      "type": "function"
    },
    {
      "constant": false,
      "inputs": [
        {
          "name": "to",
          "type": "address"
        },
        {
          "name": "amount",
          "type": "uint256"
        }
      ],
      "name": "transferSnowflakeBalance",
      "outputs": [],
      "payable": false,
      "stateMutability": "nonpayable",
      "type": "function"
    },
    {
      "constant": false,
      "inputs": [
        {
          "name": "amount",
          "type": "uint256"
        }
      ],
      "name": "withdrawSnowflakeBalance",
      "outputs": [],
      "payable": false,
      "stateMutability": "nonpayable",
      "type": "function"
    },
    {
      "constant": false,
      "inputs": [
        {
          "name": "from",
          "type": "address"
        },
        {
          "name": "to",
          "type": "address"
        },
        {
          "name": "amount",
          "type": "uint256"
        }
      ],
      "name": "transferOnBehalfOf",
      "outputs": [],
      "payable": false,
      "stateMutability": "nonpayable",
      "type": "function"
    }
  ],
  "bytecode": "0x60066101408181527f707265666978000000000000000000000000000000000000000000000000000061016052608090815260096101808181527f676976656e4e616d6500000000000000000000000000000000000000000000006101a05260a052600a6101c09081527f6d6964646c654e616d65000000000000000000000000000000000000000000006101e05260c05260076102009081527f7375726e616d65000000000000000000000000000000000000000000000000006102205260e0526102408381527f737566666978000000000000000000000000000000000000000000000000000061026052610100526102c0604052600d6102809081527f7072656665727265644e616d65000000000000000000000000000000000000006102a052610120526200013592909190620007fa565b506040805160a0810182526003606082018181527f64617900000000000000000000000000000000000000000000000000000000006080840152825282518084018452600581527f6d6f6e74680000000000000000000000000000000000000000000000000000006020828101919091528084019190915283518085018552600481527f79656172000000000000000000000000000000000000000000000000000000009181019190915292820192909252620001f6916011919062000851565b506040805160e081018252600460a082019081527f4e616d650000000000000000000000000000000000000000000000000000000060c0830152815281518083018352600b81527f446174654f6642697274680000000000000000000000000000000000000000006020828101919091528083019190915282518084018452600681527f456d61696c730000000000000000000000000000000000000000000000000000818301528284015282518084018452600c81527f50686f6e654e756d6265727300000000000000000000000000000000000000008183015260608301528251808401909352601183527f506879736963616c4164647265737365730000000000000000000000000000009083015260808101919091526200032090601690600562000896565b503480156200032e57600080fd5b5060008054600160a060020a0319163317815580805b6005831015620004d35773__bytes32Set____________________________638ac6ba9a601b601686600581106200037857fe5b016040516020018082805460018160011615610100020316600290048015620003db5780601f10620003b8576101008083540402835291820191620003db565b820191906000526020600020905b815481529060010190602001808311620003c6575b50509150506040516020818303038152906040526040518082805190602001908083835b60208310620004205780518252601f199092019160209182019101620003ff565b6001836020036101000a03801982511681845116808217855250505050505090500191505060405180910390206040518363ffffffff167c01000000000000000000000000000000000000000000000000000000000281526004018083815260200182600019166000191681526020019250505060006040518083038186803b158015620004ad57600080fd5b505af4158015620004c2573d6000803e3d6000fd5b505060019094019350620003449050565b6006821015620006625773__bytes32Set____________________________638ac6ba9a600f600985600681106200050757fe5b0160405160200180828054600181600116156101000203166002900480156200056a5780601f10620005475761010080835404028352918201916200056a565b820191906000526020600020905b81548152906001019060200180831162000555575b50509150506040516020818303038152906040526040518082805190602001908083835b60208310620005af5780518252601f1990920191602091820191016200058e565b6001836020036101000a03801982511681845116808217855250505050505090500191505060405180910390206040518363ffffffff167c01000000000000000000000000000000000000000000000000000000000281526004018083815260200182600019166000191681526020019250505060006040518083038186803b1580156200063c57600080fd5b505af415801562000651573d6000803e3d6000fd5b505060019093019250620004d39050565b6003811015620007f15773__bytes32Set____________________________638ac6ba9a6014601184600381106200069657fe5b016040516020018082805460018160011615610100020316600290048015620006f95780601f10620006d6576101008083540402835291820191620006f9565b820191906000526020600020905b815481529060010190602001808311620006e4575b50509150506040516020818303038152906040526040518082805190602001908083835b602083106200073e5780518252601f1990920191602091820191016200071d565b6001836020036101000a03801982511681845116808217855250505050505090500191505060405180910390206040518363ffffffff167c01000000000000000000000000000000000000000000000000000000000281526004018083815260200182600019166000191681526020019250505060006040518083038186803b158015620007cb57600080fd5b505af4158015620007e0573d6000803e3d6000fd5b505060019092019150620006629050565b505050620009ef565b82600681019282156200083f579160200282015b828111156200083f57825180516200082e918491602090910190620008db565b50916020019190600101906200080e565b506200084d9291506200095c565b5090565b82600381019282156200083f579160200282015b828111156200083f578251805162000885918491602090910190620008db565b509160200191906001019062000865565b82600581019282156200083f579160200282015b828111156200083f5782518051620008ca918491602090910190620008db565b5091602001919060010190620008aa565b828054600181600116156101000203166002900490600052602060002090601f016020900481019282601f106200091e57805160ff19168380011785556200094e565b828001600101855582156200094e579182015b828111156200094e57825182559160200191906001019062000931565b506200084d92915062000987565b6200098491905b808211156200084d5760006200097a8282620009a4565b5060010162000963565b90565b6200098491905b808211156200084d57600081556001016200098e565b50805460018160011615610100020316600290046000825580601f10620009cc5750620009ec565b601f016020900490600052602060002090810190620009ec919062000987565b50565b614b5c80620009ff6000396000f3006080604052600436106101665763ffffffff60e060020a6000350416631328fd8f811461016b5780631dfc99c4146102765780632d767729146102a75780633af32abf1461031d57806344e7c4c414610352578063515140aa146103df57806365717d11146104785780636be4d9b01461051157806375d7e4bd1461059f5780637d58eb76146105b45780637ed553ff146106185780638d7601c0146106425780638da5cb5b146106d05780638f4ffcb1146106e557806390107afe1461075557806398b130eb1461077c57806399734fe4146108635780639bb0f59914610884578063a861eae3146108a5578063b8a5c2a6146108c9578063b90813c91461091e578063c0928e2a14610936578063d12a7b421461094e578063d57c198e1461096f578063e768e0f1146109d8578063e9a86b0c146109f0578063ef1286b014610b0f578063f2fde38b14610b24578063f61d44ad14610b45578063fc7e286d14610b5d575b600080fd5b34801561017757600080fd5b506040805160206004803580820135601f81018490048402850184019095528484526101c4943694929360249392840191908190840183828082843750949750610b7e9650505050505050565b6040518084600160a060020a0316600160a060020a031681526020018060200180602001838103835285818151815260200191508051906020019060200280838360005b83811015610220578181015183820152602001610208565b50505050905001838103825284818151815260200191508051906020019060200280838360005b8381101561025f578181015183820152602001610247565b505050509050019550505050505060405180910390f35b34801561028257600080fd5b5061028b610d81565b60408051600160a060020a039092168252519081900360200190f35b3480156102b357600080fd5b506040805160206004803580820135601f810184900484028501840190955284845261030b94369492936024939284019190819084018382808284375094975050509235600160a060020a03169350610d9092505050565b60408051918252519081900360200190f35b34801561032957600080fd5b5061033e600160a060020a0360043516610f7d565b604080519115158252519081900360200190f35b34801561035e57600080fd5b5061036a600435611017565b6040805160208082528351818301528351919283929083019185019080838360005b838110156103a457818101518382015260200161038c565b50505050905090810190601f1680156103d15780820380516001836020036101000a031916815260200191505b509250505060405180910390f35b3480156103eb57600080fd5b506040805160206004803580820135601f810184900484028501840190955284845261047694369492936024939284019190819084018382808284375050604080516020601f89358b018035918201839004830284018301909452808352979a9998810197919650918201945092508291508401838280828437509497506110b29650505050505050565b005b34801561048457600080fd5b506040805160206004803580820135601f810184900484028501840190955284845261047694369492936024939284019190819084018382808284375050604080516020601f89358b018035918201839004830284018301909452808352979a999881019791965091820194509250829150840183828082843750949750509335945061162b9350505050565b34801561051d57600080fd5b506040805160206004803580820135838102808601850190965280855261047695369593946024949385019291829185019084908082843750506040805187358901803560208181028481018201909552818452989b9a998901989297509082019550935083925085019084908082843750949750611dba9650505050505050565b3480156105ab57600080fd5b5061028b6121e6565b3480156105c057600080fd5b506040805160206004803580820135601f810184900484028501840190955284845261033e94369492936024939284019190819084018382808284375094975050509235600160a060020a031693506121f592505050565b34801561062457600080fd5b50610476600160a060020a03600435811690602435166044356123bb565b34801561064e57600080fd5b506040805160206004803580820135838102808601850190965280855261047695369593946024949385019291829185019084908082843750506040805187358901803560208181028481018201909552818452989b9a99890198929750908201955093508392508501908490808284375094975061276c9650505050505050565b3480156106dc57600080fd5b5061028b612d08565b3480156106f157600080fd5b50604080516020601f60643560048181013592830184900484028501840190955281845261047694600160a060020a03813581169560248035966044359093169536956084949201918190840183828082843750949750612d179650505050505050565b34801561076157600080fd5b50610476600160a060020a0360043581169060243516612e74565b34801561078857600080fd5b506040805160206004803580820135601f810184900484028501840190955284845261081394369492936024939284019190819084018382808284375050604080516020601f89358b018035918201839004830284018301909452808352979a999881019791965091820194509250829150840183828082843750949750612ec69650505050505050565b60408051602080825283518183015283519192839290830191858101910280838360005b8381101561084f578181015183820152602001610837565b505050509050019250505060405180910390f35b34801561086f57600080fd5b5061036a600160a060020a03600435166131b5565b34801561089057600080fd5b5061033e600160a060020a03600435166132e5565b3480156108b157600080fd5b50610476600160a060020a0360043516602435613398565b3480156108d557600080fd5b5060408051602060048035808201358381028086018501909652808552610476953695939460249493850192918291850190849080828437509497506133a79650505050505050565b34801561092a57600080fd5b506104766004356137bd565b34801561094257600080fd5b506104766004356138cc565b34801561095a57600080fd5b50610476600160a060020a0360043516613a79565b34801561097b57600080fd5b506040805160c081810190925261047691369160049160c4919083906006908390839080828437505060408051606081810190925294979695818101959450925060039150839083908082843750939650613b6695505050505050565b3480156109e457600080fd5b5061036a6004356142bc565b3480156109fc57600080fd5b506040805160206004803580820135601f8101849004840285018401909552848452610a8994369492936024939284019190819084018382808284375050604080516020601f89358b018035918201839004830284018301909452808352979a99988101979196509182019450925082915084018382808284375094975050933594506142c99350505050565b6040805160208082018590529181018390526060808252855190820152845190918291608083019187019080838360005b83811015610ad2578181015183820152602001610aba565b50505050905090810190601f168015610aff5780820380516001836020036101000a031916815260200191505b5094505050505060405180910390f35b348015610b1b57600080fd5b5061030b6146b7565b348015610b3057600080fd5b50610476600160a060020a03600435166146bd565b348015610b5157600080fd5b5061036a600435614751565b348015610b6957600080fd5b5061030b600160a060020a036004351661475e565b60006060806000846000600160a060020a03166002826040518082805190602001908083835b60208310610bc35780518252601f199092019160209182019101610ba4565b51815160209384036101000a6000190180199092169116179052920194855250604051938490030190922054600160a060020a031692909214159150610c529050576040805160e560020a62461bcd0281526020600482015260236024820152600080516020614af1833981519152604482015260e960020a6232b21702606482015290519081900360840190fd5b6002866040518082805190602001908083835b60208310610c845780518252601f199092019160209182019101610c65565b51815160209384036101000a6000190180199092169116179052920194855250604080519485900382018520805460028201805480860289018601909452838852919850600160a060020a03169590945060058801935091849190830182828015610d0f57602002820191906000526020600020905b81548152600190910190602001808311610cfa575b5050505050915080805480602002602001604051908101604052809291908181526020018280548015610d6b57602002820191906000526020600020905b8154600160a060020a03168152600190910190602001808311610d4d575b5050505050905094509450945050509193909250565b600454600160a060020a031681565b600080836000600160a060020a03166002826040518082805190602001908083835b60208310610dd15780518252601f199092019160209182019101610db2565b51815160209384036101000a6000190180199092169116179052920194855250604051938490030190922054600160a060020a031692909214159150610e609050576040805160e560020a62461bcd0281526020600482015260236024820152600080516020614af1833981519152604482015260e960020a6232b21702606482015290519081900360840190fd5b6002856040518082805190602001908083835b60208310610e925780518252601f199092019160209182019101610e73565b51815160209384036101000a600019018019909216911617905292019485525060408051948590038201852060e560020a630774538d028652600581016004870152600160a060020a038a166024870152905190965073__addressSet____________________________9463ee8a71a094506044808201945090829003018186803b158015610f2157600080fd5b505af4158015610f35573d6000803e3d6000fd5b505050506040513d6020811015610f4b57600080fd5b50511515610f5857600080fd5b600160a060020a03841660009081526004830160205260409020549250505092915050565b6040805160e560020a630774538d02815260066004820152600160a060020a0383166024820152905160009173__addressSet____________________________9163ee8a71a091604480820192602092909190829003018186803b158015610fe557600080fd5b505af4158015610ff9573d6000803e3d6000fd5b505050506040513d602081101561100f57600080fd5b505192915050565b6011816003811061102457fe5b018054604080516020601f6002600019610100600188161502019095169490940493840181900481028201810190925282815293508301828280156110aa5780601f1061107f576101008083540402835291602001916110aa565b820191906000526020600020905b81548152906001019060200180831161108d57829003601f168201915b505050505081565b60008080336001806110c3836132e5565b15151461111c576040805160e560020a62461bcd0281526020600482015260326024820152600080516020614ad18339815191526044820152600080516020614b11833981519152606482015290519081900360840190fd5b866040516020018082805190602001908083835b6020831061114f5780518252601f199092019160209182019101611130565b6001836020036101000a0380198251168184511680821785525050505050509050019150506040516020818303038152906040526040518082805190602001908083835b602083106111b25780518252601f199092019160209182019101611193565b51815160209384036101000a60001901801990921691161790526040519190930181900381208b51909a508b955090830193508392850191508083835b6020831061120e5780518252601f1990920191602091820191016111ef565b6001836020036101000a0380198251168184511680821785525050505050509050019150506040516020818303038152906040526040518082805190602001908083835b602083106112715780518252601f199092019160209182019101611252565b6001836020036101000a0380198251168184511680821785525050505050509050019150506040518091039020935060026003600033600160a060020a0316600160a060020a0316815260200190815260200160002060405180828054600181600116156101000203166002900480156113225780601f10611300576101008083540402835291820191611322565b820191906000526020600020905b81548152906001019060200180831161130e575b5050928352505060408051602092819003830181206000898152600180830186529084902060e060020a638a620f5102845201600483015260248201889052915191955073__bytes32Set____________________________92638a620f5192604480840193829003018186803b15801561139c57600080fd5b505af41580156113b0573d6000803e3d6000fd5b505050506040513d60208110156113c657600080fd5b5051151561141e576040805160e560020a62461bcd02815260206004820152601460248201527f456e74727920646f6573206e6f74206578697374000000000000000000000000604482015290519081900360640190fd5b60008581526001808501602052604080832081517f36c26aef00000000000000000000000000000000000000000000000000000000815292016004830152602482018790525173__bytes32Set____________________________926336c26aef9260448082019391829003018186803b15801561149b57600080fd5b505af41580156114af573d6000803e3d6000fd5b50505060008681526001850160209081526040808320888452909152812091506114d98282614979565b50600060018281018290556002909201819055868152848201602090815260409182902082517fc17764bb00000000000000000000000000000000000000000000000000000000815293016004840152905173__bytes32Set____________________________9263c17764bb926024808301939192829003018186803b15801561156357600080fd5b505af4158015611577573d6000803e3d6000fd5b505050506040513d602081101561158d57600080fd5b5051151561162257604080517f36c26aef00000000000000000000000000000000000000000000000000000000815260028501600482015260248101879052905173__bytes32Set____________________________916336c26aef916044808301926000929190829003018186803b15801561160957600080fd5b505af415801561161d573d6000803e3d6000fd5b505050505b50505050505050565b600080803360018061163c836132e5565b151514611695576040805160e560020a62461bcd0281526020600482015260326024820152600080516020614ad18339815191526044820152600080516020614b11833981519152606482015290519081900360840190fd5b876040516020018082805190602001908083835b602083106116c85780518252601f1990920191602091820191016116a9565b6001836020036101000a0380198251168184511680821785525050505050509050019150506040516020818303038152906040526040518082805190602001908083835b6020831061172b5780518252601f19909201916020918201910161170c565b51815160209384036101000a60001901801990921691161790526040519190930181900381208c51909a508c955090830193508392850191508083835b602083106117875780518252601f199092019160209182019101611768565b6001836020036101000a0380198251168184511680821785525050505050509050019150506040516020818303038152906040526040518082805190602001908083835b602083106117ea5780518252601f1990920191602091820191016117cb565b51815160209384036101000a60001901801990921691161790526040805192909401829003822060e060020a638a620f51028352601b6004840152602483018c9052935193995073__bytes32Set____________________________9550638a620f5194506044808301949193509091829003018186803b15801561186e57600080fd5b505af4158015611882573d6000803e3d6000fd5b505050506040513d602081101561189857600080fd5b505115156118f0576040805160e560020a62461bcd02815260206004820152600e60248201527f496e76616c6964206669656c642e000000000000000000000000000000000000604482015290519081900360640190fd5b600f805460009081106118ff57fe5b6000918252602090912001548514156119f0576040805160e060020a638a620f51028152600f600482015260248101869052905173__bytes32Set____________________________91638a620f51916044808301926020929190829003018186803b15801561196e57600080fd5b505af4158015611982573d6000803e3d6000fd5b505050506040513d602081101561199857600080fd5b505115156119f0576040805160e560020a62461bcd02815260206004820152600e60248201527f496e76616c696420656e7472792e000000000000000000000000000000000000604482015290519081900360640190fd5b600f805460019081106119ff57fe5b600091825260209091200154851415611af0576040805160e060020a638a620f510281526014600482015260248101869052905173__bytes32Set____________________________91638a620f51916044808301926020929190829003018186803b158015611a6e57600080fd5b505af4158015611a82573d6000803e3d6000fd5b505050506040513d6020811015611a9857600080fd5b50511515611af0576040805160e560020a62461bcd02815260206004820152600e60248201527f496e76616c696420656e7472792e000000000000000000000000000000000000604482015290519081900360640190fd5b60026003600033600160a060020a0316600160a060020a031681526020019081526020016000206040518082805460018160011615610100020316600290048015611b725780601f10611b50576101008083540402835291820191611b72565b820191906000526020600020905b815481529060010190602001808311611b5e575b5050928352505060408051602092819003830181206000898152600180830186529084902060e060020a638a620f5102845201600483015260248201889052915191955073__bytes32Set____________________________92638a620f5192604480840193829003018186803b158015611bec57600080fd5b505af4158015611c00573d6000803e3d6000fd5b505050506040513d6020811015611c1657600080fd5b505115611c6d576040805160e560020a62461bcd02815260206004820152601460248201527f456e74727920616c726561647920657869737473000000000000000000000000604482015290519081900360640190fd5b600085815260018085016020526040808320815160e160020a6345635d4d02815292016004830152602482018790525173__bytes32Set____________________________92638ac6ba9a9260448082019391829003018186803b158015611cd457600080fd5b505af4158015611ce8573d6000803e3d6000fd5b5050506000868152600185016020908152604080832088845282529091208951611d17935090918a01906149c0565b50600085815260018481016020908152604080842088855290915280832091820189905543600292830155805160e160020a6345635d4d0281529186016004830152602482018890525173__bytes32Set____________________________92638ac6ba9a9260448082019391829003018186803b158015611d9857600080fd5b505af4158015611dac573d6000803e3d6000fd5b505050505050505050505050565b60008033600180611dca836132e5565b151514611e23576040805160e560020a62461bcd0281526020600482015260326024820152600080516020614ad18339815191526044820152600080516020614b11833981519152606482015290519081900360840190fd5b8451865114611e7c576040805160e560020a62461bcd02815260206004820152601160248201527f4d616c666f726d656420696e707574732e000000000000000000000000000000604482015290519081900360640190fd5b60026003600033600160a060020a0316600160a060020a031681526020019081526020016000206040518082805460018160011615610100020316600290048015611efe5780601f10611edc576101008083540402835291820191611efe565b820191906000526020600020905b815481529060010190602001808311611eea575b5050915050908152602001604051809103902093505b85518310156120a7578360050173__addressSet____________________________63ee8a71a090918886815181101515611f4b57fe5b906020019060200201516040518363ffffffff1660e060020a0281526004018083815260200182600160a060020a0316600160a060020a031681526020019250505060206040518083038186803b158015611fa557600080fd5b505af4158015611fb9573d6000803e3d6000fd5b505050506040513d6020811015611fcf57600080fd5b5051151561204d576040805160e560020a62461bcd02815260206004820152602860248201527f5468697320736e6f77666c616b6520686173206e6f742073657420746869732060448201527f7265736f6c766572000000000000000000000000000000000000000000000000606482015290519081900360840190fd5b848381518110151561205b57fe5b90602001906020020151846004016000888681518110151561207957fe5b6020908102909101810151600160a060020a0316825281019190915260400160002055600190920191611f14565b336000908152600360205260409081902090518154819083906002600019610100600184161502019091160480156121165780601f106120f4576101008083540402835291820191612116565b820191906000526020600020905b815481529060010190602001808311612102575b505091505060405180910390207fff49b7647a79c2fb5ab32e3007a59482a0f1d44457183629318cad9efaf20f078787604051808060200180602001838103835285818151815260200191508051906020019060200280838360005b8381101561218a578181015183820152602001612172565b50505050905001838103825284818151815260200191508051906020019060200280838360005b838110156121c95781810151838201526020016121b1565b5050505090500194505050505060405180910390a2505050505050565b600554600160a060020a031681565b600080836000600160a060020a03166002826040518082805190602001908083835b602083106122365780518252601f199092019160209182019101612217565b51815160209384036101000a6000190180199092169116179052920194855250604051938490030190922054600160a060020a0316929092141591506122c59050576040805160e560020a62461bcd0281526020600482015260236024820152600080516020614af1833981519152604482015260e960020a6232b21702606482015290519081900360840190fd5b6002856040518082805190602001908083835b602083106122f75780518252601f1990920191602091820191016122d8565b51815160209384036101000a600019018019909216911617905292019485525060408051948590038201852060e560020a630774538d028652600581016004870152600160a060020a038a166024870152905190965073__addressSet____________________________9463ee8a71a094506044808201945090829003018186803b15801561238657600080fd5b505af415801561239a573d6000803e3d6000fd5b505050506040513d60208110156123b057600080fd5b505195945050505050565b6000836001806123ca836132e5565b151514612423576040805160e560020a62461bcd0281526020600482015260326024820152600080516020614ad18339815191526044820152600080516020614b11833981519152606482015290519081900360840190fd5b60026003600088600160a060020a0316600160a060020a0316815260200190815260200160002060405180828054600181600116156101000203166002900480156124a55780601f106124835761010080835404028352918201916124a5565b820191906000526020600020905b815481529060010190602001808311612491575b50509283525050604080516020928190038301812060e560020a630774538d028252600581016004830152336024830152915191955073__addressSet____________________________9263ee8a71a092604480840193829003018186803b15801561251157600080fd5b505af4158015612525573d6000803e3d6000fd5b505050506040513d602081101561253b57600080fd5b505115156125b9576040805160e560020a62461bcd02815260206004820152603760248201527f54686973207265736f6c76657220686173206e6f74206265656e20736574206260448201527f79207468652066726f6d20746f6b656e686f6c6465722e000000000000000000606482015290519081900360840190fd5b336000908152600484016020526040902054841115612725576003600087600160a060020a0316600160a060020a0316815260200190815260200160002060405180828054600181600116156101000203166002900480156126525780601f10612630576101008083540402835291820191612652565b820191906000526020600020905b81548152906001019060200180831161263e575b50506040805191829003822033600081815260048a016020908152908490205491855284015282820189905290519093507f03aaad15a0bb1102e14eced221796c8c4916865cb3851b12c6f46b485da73b2892509081900360600190a26040805160e560020a62461bcd02815260206004820152602260248201527f5265736f6c7665722068617320696e616465717561746520616c6c6f77616e6360448201527f652e000000000000000000000000000000000000000000000000000000000000606482015290519081900360840190fd5b336000908152600484016020526040902054612747908563ffffffff61477016565b336000908152600485016020526040902055612764868686614782565b505050505050565b6000803360018061277c836132e5565b1515146127d5576040805160e560020a62461bcd0281526020600482015260326024820152600080516020614ad18339815191526044820152600080516020614b11833981519152606482015290519081900360840190fd5b845186511461282e576040805160e560020a62461bcd02815260206004820152601160248201527f4d616c666f726d656420696e707574732e000000000000000000000000000000604482015290519081900360640190fd5b60026003600033600160a060020a0316600160a060020a0316815260200190815260200160002060405180828054600181600116156101000203166002900480156128b05780601f1061288e5761010080835404028352918201916128b0565b820191906000526020600020905b81548152906001019060200180831161289c575b5050915050908152602001604051809103902093505b8551831015612c2657600673__addressSet____________________________63ee8a71a0909188868151811015156128fb57fe5b906020019060200201516040518363ffffffff1660e060020a0281526004018083815260200182600160a060020a0316600160a060020a031681526020019250505060206040518083038186803b15801561295557600080fd5b505af4158015612969573d6000803e3d6000fd5b505050506040513d602081101561297f57600080fd5b505115156129fd576040805160e560020a62461bcd02815260206004820152602b60248201527f54686520676976656e207265736f6c766572206973206e6f74206f6e2074686560448201527f2077686974656c6973742e000000000000000000000000000000000000000000606482015290519081900360840190fd5b8360050173__addressSet____________________________63ee8a71a090918886815181101515612a2b57fe5b906020019060200201516040518363ffffffff1660e060020a0281526004018083815260200182600160a060020a0316600160a060020a031681526020019250505060206040518083038186803b158015612a8557600080fd5b505af4158015612a99573d6000803e3d6000fd5b505050506040513d6020811015612aaf57600080fd5b505115612b2c576040805160e560020a62461bcd02815260206004820152602d60248201527f5468697320736e6f77666c616b652068617320616c726561647920736574207460448201527f686973207265736f6c7665722e00000000000000000000000000000000000000606482015290519081900360840190fd5b8360050173__addressSet____________________________63e843cfc190918886815181101515612b5a57fe5b906020019060200201516040518363ffffffff1660e060020a0281526004018083815260200182600160a060020a0316600160a060020a031681526020019250505060006040518083038186803b158015612bb457600080fd5b505af4158015612bc8573d6000803e3d6000fd5b505050508483815181101515612bda57fe5b906020019060200201518460040160008886815181101515612bf857fe5b6020908102909101810151600160a060020a03168252810191909152604001600020556001909201916128c6565b33600090815260036020526040908190209051815481908390600260001961010060018416150201909116048015612c955780601f10612c73576101008083540402835291820191612c95565b820191906000526020600020905b815481529060010190602001808311612c81575b505091505060405180910390207fb6390a9f109771d341f161afb6f49a55d84adc4cb21da4059702de4f7cfa38bf8787604051808060200180602001838103835285818151815260200191508051906020019060200280838360008381101561218a578181015183820152602001612172565b600054600160a060020a031681565b600033600160a060020a03841614612d2e57600080fd5b600554600160a060020a03848116911614612d4857600080fd5b50604080517f23b872dd000000000000000000000000000000000000000000000000000000008152600160a060020a03868116600483015230602483015260448201869052915184928316916323b872dd9160648083019260209291908290030181600087803b158015612dbb57600080fd5b505af1158015612dcf573d6000803e3d6000fd5b505050506040513d6020811015612de557600080fd5b50511515612df257600080fd5b600160a060020a038516600090815260016020526040902054612e1b908563ffffffff61496616565b600160a060020a038616600081815260016020908152604091829020939093558051878152905191927f88bc2daf60592362e3cd69736750ef477a015e69f1813bf532d990998220bd1392918290030190a25050505050565b600054600160a060020a03163314612e8b57600080fd5b60048054600160a060020a0393841673ffffffffffffffffffffffffffffffffffffffff199182161790915560058054929093169116179055565b6060600080846000600160a060020a03166002826040518082805190602001908083835b60208310612f095780518252601f199092019160209182019101612eea565b51815160209384036101000a6000190180199092169116179052920194855250604051938490030190922054600160a060020a031692909214159150612f989050576040805160e560020a62461bcd0281526020600482015260236024820152600080516020614af1833981519152604482015260e960020a6232b21702606482015290519081900360840190fd5b6002866040518082805190602001908083835b60208310612fca5780518252601f199092019160209182019101612fab565b51815160209384036101000a600019018019909216911617905292019485525060405193849003810184208951909750899482019350839250908401908083835b6020831061302a5780518252601f19909201916020918201910161300b565b6001836020036101000a0380198251168184511680821785525050505050509050019150506040516020818303038152906040526040518082805190602001908083835b6020831061308d5780518252601f19909201916020918201910161306e565b51815160209384036101000a60001901801990921691161790526040805192909401829003822060e060020a638a620f5102835260028a01600484015260248301819052935193975073__bytes32Set____________________________9550638a620f5194506044808301949193509091829003018186803b15801561311357600080fd5b505af4158015613127573d6000803e3d6000fd5b505050506040513d602081101561313d57600080fd5b5051151561314a57600080fd5b600082815260018085016020908152604092839020909101805483518184028101840190945280845290918301828280156131a557602002820191906000526020600020905b81548152600190910190602001808311613190575b5050505050935050505092915050565b60606131c0826132e5565b151561323c576040805160e560020a62461bcd02815260206004820152602360248201527f546865206164647265737320646f6573206e6f7420686176652061206879647260448201527f6f49640000000000000000000000000000000000000000000000000000000000606482015290519081900360840190fd5b600160a060020a03821660009081526003602090815260409182902080548351601f6002600019610100600186161502019093169290920491820184900484028101840190945280845290918301828280156132d95780601f106132ae576101008083540402835291602001916132d9565b820191906000526020600020905b8154815290600101906020018083116132bc57829003601f168201915b50505050509050919050565b600081600160a060020a031660026003600085600160a060020a0316600160a060020a0316815260200190815260200160002060405180828054600181600116156101000203166002900480156133735780601f10613351576101008083540402835291820191613373565b820191906000526020600020905b81548152906001019060200180831161335f575b5050928352505060405190819003602001902054600160a060020a0316149050919050565b6133a3338383614782565b5050565b600080336001806133b7836132e5565b151514613410576040805160e560020a62461bcd0281526020600482015260326024820152600080516020614ad18339815191526044820152600080516020614b11833981519152606482015290519081900360840190fd5b60026003600033600160a060020a0316600160a060020a0316815260200190815260200160002060405180828054600181600116156101000203166002900480156134925780601f10613470576101008083540402835291820191613492565b820191906000526020600020905b81548152906001019060200180831161347e575b5050915050908152602001604051809103902093505b84518310156136c5578360050173__addressSet____________________________63ee8a71a0909187868151811015156134df57fe5b906020019060200201516040518363ffffffff1660e060020a0281526004018083815260200182600160a060020a0316600160a060020a031681526020019250505060206040518083038186803b15801561353957600080fd5b505af415801561354d573d6000803e3d6000fd5b505050506040513d602081101561356357600080fd5b505115156135e1576040805160e560020a62461bcd02815260206004820152602860248201527f5468697320736e6f77666c616b6520686173206e6f742073657420746869732060448201527f7265736f6c766572000000000000000000000000000000000000000000000000606482015290519081900360840190fd5b8360050173__addressSet____________________________63b65fd2949091878681518110151561360f57fe5b906020019060200201516040518363ffffffff1660e060020a0281526004018083815260200182600160a060020a0316600160a060020a031681526020019250505060006040518083038186803b15801561366957600080fd5b505af415801561367d573d6000803e3d6000fd5b50505050836004016000868581518110151561369557fe5b6020908102909101810151600160a060020a031682528101919091526040016000908120556001909201916134a8565b336000908152600360205260409081902090518154819083906002600019610100600184161502019091160480156137345780601f10613712576101008083540402835291820191613734565b820191906000526020600020905b815481529060010190602001808311613720575b505091505060405180910390207f15387df83d79ca7a984b6462e7bea9991af8d5f0f8e1c78e365a1d65b2cb0f95866040518080602001828103825283818151815260200191508051906020019060200280838360005b838110156137a357818101518382015260200161378b565b505050509050019250505060405180910390a25050505050565b60008054600160a060020a031633146137d557600080fd5b600560009054906101000a9004600160a060020a03169050600a606482600160a060020a03166318160ddd6040518163ffffffff1660e060020a028152600401602060405180830381600087803b15801561382f57600080fd5b505af1158015613843573d6000803e3d6000fd5b505050506040513d602081101561385957600080fd5b505181151561386457fe5b0481151561386e57fe5b048211156138c6576040805160e560020a62461bcd02815260206004820152601060248201527f46656520697320746f6f20686967682e00000000000000000000000000000000604482015290519081900360640190fd5b50600855565b60008082116138da57600080fd5b33600090815260016020526040902054821115613967576040805160e560020a62461bcd02815260206004820152603260248201527f596f75722063616e6e6f74207769746864726177206d6f7265207468616e207960448201527f6f752068617665206465706f73697465642e0000000000000000000000000000606482015290519081900360840190fd5b33600090815260016020526040902054613987908363ffffffff61477016565b3360008181526001602090815260408083209490945560055484517fa9059cbb0000000000000000000000000000000000000000000000000000000081526004810194909452602484018790529351600160a060020a039094169450849363a9059cbb93604480820194918390030190829087803b158015613a0857600080fd5b505af1158015613a1c573d6000803e3d6000fd5b505050506040513d6020811015613a3257600080fd5b50511515613a3f57600080fd5b60408051838152905133917fcce4937f7cb5adfa10d84738fe8c34b18bab1448271142eb72b11c93f8cb2d6f919081900360200190a25050565b600054600854613a9291600160a060020a031690613398565b604080517fe843cfc100000000000000000000000000000000000000000000000000000000815260066004820152600160a060020a0383166024820152905173__addressSet____________________________9163e843cfc1916044808301926000929190829003018186803b158015613b0c57600080fd5b505af4158015613b20573d6000803e3d6000fd5b5050604080513381529051600160a060020a03851693507f226b9a42bf53928505b48f7cf4b29e4300ced15175effec574adcde11f1b7bb292509081900360200190a250565b6000606081808080808080338180613b7d836132e5565b151514613bd6576040805160e560020a62461bcd0281526020600482015260326024820152600080516020614ad18339815191526044820152600080516020614b11833981519152606482015290519081900360840190fd5b60048054604080517f69c212f6000000000000000000000000000000000000000000000000000000008152339381019390935251600160a060020a039091169c508c916369c212f691602480830192600092919082900301818387803b158015613c3f57600080fd5b505af1158015613c53573d6000803e3d6000fd5b505050506040513d6000823e601f3d908101601f191682016040526020811015613c7c57600080fd5b810190808051640100000000811115613c9457600080fd5b82016020810184811115613ca757600080fd5b8151640100000000811182820187101715613cc157600080fd5b5050929190505050995060028a6040518082805190602001908083835b60208310613cfd5780518252601f199092019160209182019101613cde565b51815160001960209485036101000a019081169019919091161790529201948552506040519384900301909220805473ffffffffffffffffffffffffffffffffffffffff191633178155601b8054919c509250600091508110613d5c57fe5b600091825260208083209091015480835260018c01909152604090912090985096505b6006861015613f935760008d8760068110613d9657fe5b60200201511415613da657613f88565b60098660068110613db357fe5b01876000016000600f60000189815481101515613dcc57fe5b6000918252602080832090910154835282019290925260400190208154613e06929060026101006001831615026000190190911604614a3e565b508c8660068110613e1357fe5b6020020151600f805489916000918a908110613e2b57fe5b60009182526020808320909101548352820192909252604001812060010191909155600f805443928a9290918a908110613e6157fe5b60009182526020808320909101548352820192909252604001902060020155600f805473__bytes32Set____________________________91638ac6ba9a9160018b0191908a908110613eb057fe5b60009182526020822001546040805160e060020a63ffffffff87160281526004810194909452602484019190915251604480840193829003018186803b158015613ef957600080fd5b505af4158015613f0d573d6000803e3d6000fd5b50506040805160e160020a6345635d4d02815260028d016004820152602481018c9052905173__bytes32Set____________________________9350638ac6ba9a92506044808301926000929190829003018186803b158015613f6f57600080fd5b505af4158015613f83573d6000803e3d6000fd5b505050505b600190950194613d7f565b601b80546001908110613fa257fe5b600091825260208083209091015480835260018c01909152604090912090955093505b60038310156141d95760008c8460038110613fdc57fe5b60200201511415613fec576141ce565b60118360038110613ff957fe5b0184600001600060146000018681548110151561401257fe5b600091825260208083209091015483528201929092526040019020815461404c929060026101006001831615026000190190911604614a3e565b508b836003811061405957fe5b60200201516014805486916000918790811061407157fe5b6000918252602080832090910154835282019290925260400181206001019190915560148054439287929091879081106140a757fe5b600091825260208083209091015483528201929092526040019020600201556014805473__bytes32Set____________________________91638ac6ba9a91600188019190879081106140f657fe5b60009182526020822001546040805160e060020a63ffffffff87160281526004810194909452602484019190915251604480840193829003018186803b15801561413f57600080fd5b505af4158015614153573d6000803e3d6000fd5b50506040805160e160020a6345635d4d02815260028d01600482015260248101899052905173__bytes32Set____________________________9350638ac6ba9a92506044808301926000929190829003018186803b1580156141b557600080fd5b505af41580156141c9573d6000803e3d6000fd5b505050505b600190920191613fc5565b3360009081526003602090815260409091208b516141f9928d01906149c0565b507f3d6f13eeaa940ac9082395bed7d65512e5fe92a86453129ba716cb775f019be68a33604051808060200183600160a060020a0316600160a060020a03168152602001828103825284818151815260200191508051906020019080838360005b8381101561427257818101518382015260200161425a565b50505050905090810190601f16801561429f5780820380516001836020036101000a031916815260200191505b50935050505060405180910390a150505050505050505050505050565b6016816005811061102457fe5b6060600080600080876000600160a060020a03166002826040518082805190602001908083835b6020831061430f5780518252601f1990920191602091820191016142f0565b51815160209384036101000a6000190180199092169116179052920194855250604051938490030190922054600160a060020a03169290921415915061439e9050576040805160e560020a62461bcd0281526020600482015260236024820152600080516020614af1833981519152604482015260e960020a6232b21702606482015290519081900360840190fd5b6002896040518082805190602001908083835b602083106143d05780518252601f1990920191602091820191016143b1565b51815160209384036101000a600019018019909216911617905292019485525060405193849003810184208c519097508c9482019350839250908401908083835b602083106144305780518252601f199092019160209182019101614411565b6001836020036101000a0380198251168184511680821785525050505050509050019150506040516020818303038152906040526040518082805190602001908083835b602083106144935780518252601f199092019160209182019101614474565b51815160209384036101000a60001901801990921691161790526040805192909401829003822060e060020a638a620f5102835260028a01600484015260248301819052935193975073__bytes32Set____________________________9550638a620f5194506044808301949193509091829003018186803b15801561451957600080fd5b505af415801561452d573d6000803e3d6000fd5b505050506040513d602081101561454357600080fd5b5051151561455057600080fd5b600082815260018085016020908152604092839020835160e060020a638a620f5102815292016004830152602482018a9052915173__bytes32Set____________________________92638a620f519260448082019391829003018186803b1580156145bb57600080fd5b505af41580156145cf573d6000803e3d6000fd5b505050506040513d60208110156145e557600080fd5b505115156145f257600080fd5b60008281526001848101602090815260408084208b855282529283902080830154600280830154835487516000199782161561010002979097011691909104601f810185900485028601850190965285855291949093919285919083018282801561469e5780601f106146735761010080835404028352916020019161469e565b820191906000526020600020905b81548152906001019060200180831161468157829003601f168201915b5050505050925095509550955050505093509350939050565b60085481565b600054600160a060020a031633146146d457600080fd5b600160a060020a03811615156146e957600080fd5b60008054604051600160a060020a03808516939216917f8be0079c531659141344cd1fd0a4f28419497f9722a3daafe3b4186f6b6457e091a36000805473ffffffffffffffffffffffffffffffffffffffff1916600160a060020a0392909216919091179055565b6009816006811061102457fe5b60016020526000908152604090205481565b60008282111561477c57fe5b50900390565b600160a060020a038216301415614809576040805160e560020a62461bcd02815260206004820152603b60248201527f5468697320636f6e74726163742063616e6e6f7420686f6c6420746f6b656e2060448201527f62616c616e636573206f6e20697473206f776e20626568616c662e0000000000606482015290519081900360840190fd5b6000811161481657600080fd5b600160a060020a0383166000908152600160205260409020548111156148ac576040805160e560020a62461bcd02815260206004820152603060248201527f596f75722062616c616e636520697320746f6f206c6f7720746f207472616e7360448201527f666572207468697320616d6f756e742e00000000000000000000000000000000606482015290519081900360840190fd5b600160a060020a0383166000908152600160205260409020546148d5908263ffffffff61477016565b600160a060020a03808516600090815260016020526040808220939093559084168152205461490a908263ffffffff61496616565b600160a060020a0380841660008181526001602090815260409182902094909455805185815290519193928716927f9bd188aec8668fb7fd04179a5e2e425c7eae69ad3b0fcbe6d8aee4543ba961d392918290030190a3505050565b8181018281101561497357fe5b92915050565b50805460018160011615610100020316600290046000825580601f1061499f57506149bd565b601f0160209004906000526020600020908101906149bd9190614ab3565b50565b828054600181600116156101000203166002900490600052602060002090601f016020900481019282601f10614a0157805160ff1916838001178555614a2e565b82800160010185558215614a2e579182015b82811115614a2e578251825591602001919060010190614a13565b50614a3a929150614ab3565b5090565b828054600181600116156101000203166002900490600052602060002090601f016020900481019282601f10614a775780548555614a2e565b82800160010185558215614a2e57600052602060002091601f016020900482015b82811115614a2e578254825591600101919060010190614a98565b614acd91905b80821115614a3a5760008155600101614ab9565b905600546865207472616e73616374696f6e2073656e64657220686173206e6f74206d5468697320746f6b656e20686173206e6f7420796574206265656e206d696e74696e746564206120536e6f77666c616b652e0000000000000000000000000000a165627a7a72305820618723f1435bded429a2638c9fccbe9e53b6795385e377509304ef970bf94fe70029",
  "source": "pragma solidity ^0.4.24;\n\nimport \"./zeppelin/ownership/Ownable.sol\";\nimport \"./zeppelin/token/ERC20/ERC20.sol\";\nimport \"./zeppelin/math/SafeMath.sol\";\n\nimport \"./libraries/addressSet.sol\";\nimport \"./libraries/bytes32Set.sol\";\n\n\ninterface ClientRaindrop {\n    function getUserByAddress(address _address) external view returns (string userName);\n}\n\n\ncontract Snowflake is Ownable {\n    using SafeMath for uint;\n    using addressSet for addressSet._addressSet;\n    using bytes32Set for bytes32Set._bytes32Set;\n\n    // hydro token wrapper variable\n    mapping (address => uint) public deposits;\n\n    // token lookup mappings -- accessible only by wrapper functions\n    mapping (string => Identity) internal tokenDirectory;\n    mapping (address => string) internal ownerToToken;\n\n    // admin/contract variables\n    address public clientRaindropAddress;\n    address public hydroTokenAddress;\n\n    addressSet._addressSet resolverWhitelist;\n    uint public resolverWhitelistFee;\n\n    // name and date of birth restriction variables\n    string[6] public nameOrder = [\"prefix\", \"givenName\", \"middleName\", \"surname\", \"suffix\", \"preferredName\"];\n    bytes32Set._bytes32Set allowedNames;\n    string[3] public dateOrder = [\"day\", \"month\", \"year\"];\n    bytes32Set._bytes32Set allowedDates;\n\n    // identity structures\n    struct Identity {\n        address owner;\n        mapping (bytes32 => SnowflakeField) fields; // mapping of AllowedSnowflakeFields to SnowflakeFields\n        bytes32Set._bytes32Set fieldsAttestedTo; // required, field names that the user has attested to\n        mapping(address => Resolver) resolvers;\n        addressSet._addressSet resolversFor; // optional, set of third-party resolvers\n    }\n\n    struct SnowflakeField {\n        mapping (bytes32 => Entry) entries; // required, mapping of entry names to encrypted plaintext data.\n        bytes32Set._bytes32Set entriesAttestedTo; // required, entry names that the user has attested to\n    }\n\n    struct Entry {\n        string entryName;\n        bytes32 saltedHash; // data should be encoded as: keccak256(abi.encodePacked(data, salt))\n        uint blockNumber;\n    }\n\n    struct Resolver {\n        uint withdrawAllowance; // optional, allows resolvers to programatically extract hydro from users\n    }\n\n    // field restriction variables\n    string[5] public fieldOrder = [\"Name\", \"DateOfBirth\", \"Emails\", \"PhoneNumbers\", \"PhysicalAddresses\"];\n    bytes32Set._bytes32Set allowedFields;\n\n    constructor () public {\n        // initialize allowed snowflake fields\n        for (uint i; i < fieldOrder.length; i++) {\n            allowedFields.insert(keccak256(abi.encodePacked(fieldOrder[i])));\n        }\n\n        // initialize allowed name entries\n        for (uint j; j < nameOrder.length; j++) {\n            allowedNames.insert(keccak256(abi.encodePacked(nameOrder[j])));\n        }\n\n        // initialize allowed date entries\n        for (uint k; k < dateOrder.length; k++) {\n            allowedDates.insert(keccak256(abi.encodePacked(dateOrder[k])));\n        }\n    }\n\n    // enforces that the given (cased) hydroId has a token\n    modifier _tokenExists(string hydroId) {\n        require(tokenDirectory[hydroId].owner != address(0), \"This token has not yet been minted.\");\n        _;\n    }\n\n    // checks whether the given address has a token (does not throw)\n    function hasToken(address _address) public view returns (bool) {\n        return tokenDirectory[ownerToToken[_address]].owner == _address;\n    }\n\n    // enforces that a particular address has a token\n    modifier _hasToken(address _address, bool check) {\n        require(hasToken(_address) == check, \"The transaction sender has not minted a Snowflake.\");\n        _;\n    }\n\n    // gets the hydro id for a particular address (throws if the address does not have a hydroId)\n    function getHydroId(address _address) public view returns (string hydroId) {\n        require(hasToken(_address), \"The address does not have a hydroId\");\n        return ownerToToken[_address];\n    }\n\n    // set the fee to become a resolver\n    function setResolverWhitelistFee(uint fee) public onlyOwner {\n        ERC20 hydro = ERC20(hydroTokenAddress);\n        require(fee <= (hydro.totalSupply() / 100 / 10), \"Fee is too high.\");\n        resolverWhitelistFee = fee;\n    }\n\n    // allows whitelisting of resolvers\n    function whitelistResolver(address resolver) public {\n        transferSnowflakeBalance(owner, resolverWhitelistFee);\n        resolverWhitelist.insert(resolver);\n        emit ResolverWhitelisted(resolver, msg.sender);\n    }\n\n    function isWhitelisted(address resolver) public view returns(bool) {\n        return resolverWhitelist.contains(resolver);\n    }\n\n    // set the raindrop and hydro token addresses\n    function setAddresses(address clientRaindrop, address hydroToken) public onlyOwner {\n        clientRaindropAddress = clientRaindrop;\n        hydroTokenAddress = hydroToken;\n    }\n\n    // token minter\n    function mintIdentityToken(bytes32[6] names, bytes32[3] dateOfBirth) public _hasToken(msg.sender, false) {\n        ClientRaindrop clientRaindrop = ClientRaindrop(clientRaindropAddress);\n        string memory _hydroId = clientRaindrop.getUserByAddress(msg.sender);\n\n        Identity storage identity = tokenDirectory[_hydroId];\n\n        identity.owner = msg.sender;\n\n        bytes32 nameFieldIndex = allowedFields.members[0];\n        SnowflakeField storage nameField = identity.fields[nameFieldIndex];\n        for (uint i; i < names.length; i++) {\n            if (names[i] == bytes32(0x0)) {\n                continue;\n            }\n            nameField.entries[allowedNames.members[i]].entryName = nameOrder[i];\n            nameField.entries[allowedNames.members[i]].saltedHash = names[i];\n            nameField.entries[allowedNames.members[i]].blockNumber = block.number;\n            nameField.entriesAttestedTo.insert(allowedNames.members[i]);\n            // putting this here creates some unnecessary checks, but it catches the case when all elements are 0x0\n            identity.fieldsAttestedTo.insert(nameFieldIndex);\n        }\n\n        bytes32 dateFieldIndex = allowedFields.members[1];\n        SnowflakeField storage dateField = identity.fields[dateFieldIndex];\n        for (uint j; j < dateOfBirth.length; j++) {\n            if (dateOfBirth[j] == bytes32(0x0)) {\n                continue;\n            }\n            dateField.entries[allowedDates.members[j]].entryName = dateOrder[j];\n            dateField.entries[allowedDates.members[j]].saltedHash = dateOfBirth[j];\n            dateField.entries[allowedDates.members[j]].blockNumber = block.number;\n            dateField.entriesAttestedTo.insert(allowedDates.members[j]);\n            // putting this here creates some unnecessary checks, but it catches the case when all elements are 0x0\n            identity.fieldsAttestedTo.insert(dateFieldIndex);\n        }\n\n        ownerToToken[msg.sender] = _hydroId;\n\n        emit SnowflakeMinted(_hydroId, msg.sender);\n    }\n\n    // wrappers that allow easy access to modify resolvers\n    function addResolvers(address[] resolvers, uint[] withdrawAllowances) public _hasToken(msg.sender, true) {\n        require(resolvers.length == withdrawAllowances.length, \"Malformed inputs.\");\n\n        Identity storage identity = tokenDirectory[ownerToToken[msg.sender]];\n\n        for (uint i; i < resolvers.length; i++) {\n            require(resolverWhitelist.contains(resolvers[i]), \"The given resolver is not on the whitelist.\");\n            require(!identity.resolversFor.contains(resolvers[i]), \"This snowflake has already set this resolver.\");\n            identity.resolversFor.insert(resolvers[i]);\n            identity.resolvers[resolvers[i]].withdrawAllowance = withdrawAllowances[i];\n        }\n\n        emit ResolversAdded(ownerToToken[msg.sender], resolvers, withdrawAllowances);\n    }\n\n    function changeResolverAllowances(address[] resolvers, uint[] withdrawAllowances)\n        public _hasToken(msg.sender, true)\n    {\n        require(resolvers.length == withdrawAllowances.length, \"Malformed inputs.\");\n\n        Identity storage identity = tokenDirectory[ownerToToken[msg.sender]];\n\n        for (uint i; i < resolvers.length; i++) {\n            require(identity.resolversFor.contains(resolvers[i]), \"This snowflake has not set this resolver\");\n            identity.resolvers[resolvers[i]].withdrawAllowance = withdrawAllowances[i];\n        }\n\n        emit ResolversAllowanceChanged(ownerToToken[msg.sender], resolvers, withdrawAllowances);\n    }\n\n    function removeResolvers(address[] resolvers) public _hasToken(msg.sender, true) {\n        Identity storage identity = tokenDirectory[ownerToToken[msg.sender]];\n\n        for (uint i; i < resolvers.length; i++) {\n            require(identity.resolversFor.contains(resolvers[i]), \"This snowflake has not set this resolver\");\n            identity.resolversFor.remove(resolvers[i]);\n            delete identity.resolvers[resolvers[i]];\n        }\n\n        emit ResolversRemoved(ownerToToken[msg.sender], resolvers);\n    }\n\n    // add/remove field entries\n    function addFieldEntry(string field, string entry, bytes32 saltedHash) public _hasToken(msg.sender, true) {\n        bytes32 fieldLookup = keccak256(abi.encodePacked(field));\n        bytes32 entryLookup = keccak256(abi.encodePacked(entry));\n\n        require(allowedFields.contains(fieldLookup), \"Invalid field.\");\n        if (fieldLookup == allowedNames.members[0]) require(allowedNames.contains(entryLookup), \"Invalid entry.\");\n        if (fieldLookup == allowedNames.members[1]) require(allowedDates.contains(entryLookup), \"Invalid entry.\");\n\n        Identity storage identity = tokenDirectory[ownerToToken[msg.sender]];\n        require(!identity.fields[fieldLookup].entriesAttestedTo.contains(entryLookup), \"Entry already exists\");\n\n        identity.fields[fieldLookup].entriesAttestedTo.insert(entryLookup);\n        identity.fields[fieldLookup].entries[entryLookup].entryName = entry;\n        identity.fields[fieldLookup].entries[entryLookup].saltedHash = saltedHash;\n        identity.fields[fieldLookup].entries[entryLookup].blockNumber = block.number;\n\n        identity.fieldsAttestedTo.insert(fieldLookup);\n    }\n\n    function removeFieldEntry(string field, string entry) public _hasToken(msg.sender, true) {\n        bytes32 fieldLookup = keccak256(abi.encodePacked(field));\n        bytes32 entryLookup = keccak256(abi.encodePacked(entry));\n\n        Identity storage identity = tokenDirectory[ownerToToken[msg.sender]];\n        require(identity.fields[fieldLookup].entriesAttestedTo.contains(entryLookup), \"Entry does not exist\");\n\n        identity.fields[fieldLookup].entriesAttestedTo.remove(entryLookup);\n        delete identity.fields[fieldLookup].entries[entryLookup];\n        if (identity.fields[fieldLookup].entriesAttestedTo.length() == 0) {\n            identity.fieldsAttestedTo.remove(fieldLookup);\n        }\n    }\n\n    // check resolver membership\n    function hasResolver(string hydroId, address resolver) public view _tokenExists(hydroId) returns (bool) {\n        Identity storage identity = tokenDirectory[hydroId];\n        return identity.resolversFor.contains(resolver);\n    }\n\n    // functions to read token values\n    function getDetails(string hydroId) public view _tokenExists(hydroId) returns (\n        address owner,\n        bytes32[] fieldsAttestedTo,\n        address[] resolversFor\n    ) {\n        Identity storage identity = tokenDirectory[hydroId];\n        return (\n            identity.owner,\n            identity.fieldsAttestedTo.members,\n            identity.resolversFor.members\n        );\n    }\n\n    function getDetails(string hydroId, address resolver) public view _tokenExists(hydroId)\n        returns (uint withdrawAllowance)\n    {\n        Identity storage identity = tokenDirectory[hydroId];\n        require(identity.resolversFor.contains(resolver));\n\n        return identity.resolvers[resolver].withdrawAllowance;\n    }\n\n    function getDetails(string hydroId, string field) public view _tokenExists(hydroId)\n        returns (bytes32[] entriesAttestedTo)\n    {\n        Identity storage identity = tokenDirectory[hydroId];\n        bytes32 fieldLookup = keccak256(abi.encodePacked(field));\n        require(identity.fieldsAttestedTo.contains(fieldLookup));\n\n        return identity.fields[fieldLookup].entriesAttestedTo.members;\n    }\n\n    function getDetails(string hydroId, string field, bytes32 entryLookup) public view _tokenExists(hydroId)\n        returns (string entryName, bytes32 saltedHash, uint blockNumber)\n    {\n        Identity storage identity = tokenDirectory[hydroId];\n        bytes32 fieldLookup = keccak256(abi.encodePacked(field));\n        require(identity.fieldsAttestedTo.contains(fieldLookup));\n        require(identity.fields[fieldLookup].entriesAttestedTo.contains(entryLookup));\n\n        return (\n            identity.fields[fieldLookup].entries[entryLookup].entryName,\n            identity.fields[fieldLookup].entries[entryLookup].saltedHash,\n            identity.fields[fieldLookup].entries[entryLookup].blockNumber\n        );\n    }\n\n    // functions that enable HYDRO functionality\n    function receiveApproval(address _sender, uint amount, address _tokenAddress, bytes) public {\n        require(msg.sender == _tokenAddress);\n        require(_tokenAddress == hydroTokenAddress);\n        ERC20 hydro = ERC20(_tokenAddress);\n        require(hydro.transferFrom(_sender, address(this), amount));\n        deposits[_sender] = deposits[_sender].add(amount);\n        emit SnowflakeDeposit(_sender, amount);\n    }\n\n    function transferSnowflakeBalance(address to, uint amount) public {\n        _transferSnowflakeBalance(msg.sender, to, amount);\n    }\n\n    function withdrawSnowflakeBalance(uint amount) public {\n        require(amount > 0);\n        require(deposits[msg.sender] >= amount, \"Your cannot withdraw more than you have deposited.\");\n        deposits[msg.sender] = deposits[msg.sender].sub(amount);\n        ERC20 hydro = ERC20(hydroTokenAddress);\n        require(hydro.transfer(msg.sender, amount));\n        emit SnowflakeWithdraw(msg.sender, amount);\n    }\n\n    // only callable from resolvers with withdraw allowances\n    function transferOnBehalfOf(address from, address to, uint amount) public _hasToken(from, true) {\n        Identity storage identity = tokenDirectory[ownerToToken[from]];\n        require(identity.resolversFor.contains(msg.sender), \"This resolver has not been set by the from tokenholder.\");\n        \n        if (identity.resolvers[msg.sender].withdrawAllowance < amount) {\n            emit InsufficientAllowance(\n                ownerToToken[from], msg.sender, identity.resolvers[msg.sender].withdrawAllowance, amount\n            );\n            require(false, \"Resolver has inadequate allowance.\");\n        }\n\n        identity.resolvers[msg.sender].withdrawAllowance = identity.resolvers[msg.sender].withdrawAllowance.sub(amount);\n        _transferSnowflakeBalance(from, to,  amount);\n    }\n\n    function _transferSnowflakeBalance(address from, address to, uint amount) internal {\n        require(to != address(this), \"This contract cannot hold token balances on its own behalf.\");\n        require(amount > 0);\n        require(deposits[from] >= amount, \"Your balance is too low to transfer this amount.\");\n        deposits[from] = deposits[from].sub(amount);\n        deposits[to] = deposits[to].add(amount);\n        emit SnowflakeTransfer(from, to, amount);\n    }\n\n    // events\n    event SnowflakeDeposit(address indexed depositor, uint amount);\n    event SnowflakeTransfer(address indexed from, address indexed to, uint amount);\n    event SnowflakeWithdraw(address indexed depositor, uint amount);\n\n    event SnowflakeMinted(string hydroId, address minter);\n\n    event ResolverWhitelisted(address indexed resolver, address sponsor);\n\n    event ResolversAdded(string indexed hydroId, address[] resolvers, uint[] withdrawAllowances);\n    event ResolversAllowanceChanged(string indexed hydroId, address[] resolvers, uint[] withdrawAllowances);\n    event ResolversRemoved(string indexed hydroId, address[] resolvers);\n\n    event InsufficientAllowance(string indexed hydroId, address resolver, uint currentAllowance, uint requestedWithdraw);\n}",
  "sourcePath": "/Users/noahzinsmeister/Documents/github/smart-contracts/snowflake/contracts/Snowflake.sol",
  "compiler": {
    "name": "solc",
    "version": "0.4.24+commit.e67f0147.Emscripten.clang"
  },
  "schemaVersion": "2.0.1",
  "updatedAt": "2018-07-10T20:44:01.961Z"
}