{
  "contractName": "SnowflakeResolver",
  "abi": [
    {
      "constant": true,
      "inputs": [],
      "name": "snowflakeDescription",
      "outputs": [
        {
          "name": "",
          "type": "string"
        }
      ],
      "payable": false,
      "stateMutability": "view",
      "type": "function"
    },
    {
      "constant": true,
      "inputs": [],
      "name": "snowflakeName",
      "outputs": [
        {
          "name": "",
          "type": "string"
        }
      ],
      "payable": false,
      "stateMutability": "view",
      "type": "function"
    },
    {
      "constant": true,
      "inputs": [],
      "name": "owner",
      "outputs": [
        {
          "name": "",
          "type": "address"
        }
      ],
      "payable": false,
      "stateMutability": "view",
      "type": "function"
    },
    {
      "constant": true,
      "inputs": [],
      "name": "callOnRemoval",
      "outputs": [
        {
          "name": "",
          "type": "bool"
        }
      ],
      "payable": false,
      "stateMutability": "view",
      "type": "function"
    },
    {
      "constant": true,
      "inputs": [],
      "name": "callOnSignUp",
      "outputs": [
        {
          "name": "",
          "type": "bool"
        }
      ],
      "payable": false,
      "stateMutability": "view",
      "type": "function"
    },
    {
      "constant": false,
      "inputs": [
        {
          "name": "newOwner",
          "type": "address"
        }
      ],
      "name": "transferOwnership",
      "outputs": [],
      "payable": false,
      "stateMutability": "nonpayable",
      "type": "function"
    },
    {
      "constant": true,
      "inputs": [],
      "name": "snowflakeAddress",
      "outputs": [
        {
          "name": "",
          "type": "address"
        }
      ],
      "payable": false,
      "stateMutability": "view",
      "type": "function"
    },
    {
      "anonymous": false,
      "inputs": [
        {
          "indexed": true,
          "name": "previousOwner",
          "type": "address"
        },
        {
          "indexed": true,
          "name": "newOwner",
          "type": "address"
        }
      ],
      "name": "OwnershipTransferred",
      "type": "event"
    },
    {
      "constant": false,
      "inputs": [
        {
          "name": "_address",
          "type": "address"
        }
      ],
      "name": "setSnowflakeAddress",
      "outputs": [],
      "payable": false,
      "stateMutability": "nonpayable",
      "type": "function"
    }
  ],
  "bytecode": "0x608060405260008054600160a060020a03191633179055610445806100256000396000f30060806040526004361061008d5763ffffffff7c010000000000000000000000000000000000000000000000000000000060003504166376acf1b6811461009257806388cdab941461011c5780638da5cb5b146101315780638f06492d14610162578063c979b05a1461018b578063d42e87ed146101ae578063f2fde38b146101c3578063f9f451b8146101e4575b600080fd5b34801561009e57600080fd5b506100a76101f9565b6040805160208082528351818301528351919283929083019185019080838360005b838110156100e15781810151838201526020016100c9565b50505050905090810190601f16801561010e5780820380516001836020036101000a031916815260200191505b509250505060405180910390f35b34801561012857600080fd5b506100a7610284565b34801561013d57600080fd5b506101466102de565b60408051600160a060020a039092168252519081900360200190f35b34801561016e57600080fd5b506101776102ed565b604080519115158252519081900360200190f35b34801561019757600080fd5b506101ac600160a060020a036004351661030f565b005b3480156101ba57600080fd5b50610177610355565b3480156101cf57600080fd5b506101ac600160a060020a0360043516610376565b3480156101f057600080fd5b5061014661040a565b6002805460408051602060018416156101000260001901909316849004601f8101849004840282018401909252818152929183018282801561027c5780601f106102515761010080835404028352916020019161027c565b820191906000526020600020905b81548152906001019060200180831161025f57829003601f168201915b505050505081565b60018054604080516020600284861615610100026000190190941693909304601f8101849004840282018401909252818152929183018282801561027c5780601f106102515761010080835404028352916020019161027c565b600054600160a060020a031681565b6003547501000000000000000000000000000000000000000000900460ff1681565b600054600160a060020a0316331461032657600080fd5b6003805473ffffffffffffffffffffffffffffffffffffffff1916600160a060020a0392909216919091179055565b60035474010000000000000000000000000000000000000000900460ff1681565b600054600160a060020a0316331461038d57600080fd5b600160a060020a03811615156103a257600080fd5b60008054604051600160a060020a03808516939216917f8be0079c531659141344cd1fd0a4f28419497f9722a3daafe3b4186f6b6457e091a36000805473ffffffffffffffffffffffffffffffffffffffff1916600160a060020a0392909216919091179055565b600354600160a060020a0316815600a165627a7a723058200d68d9e234b325e0d3f97482e5f47c9a581637c9042734f5d1b7b4adbc0a16eb0029",
  "source": "pragma solidity ^0.4.23;\n\nimport \"../zeppelin/ownership/Ownable.sol\";\n\ncontract SnowflakeResolver is Ownable {\n    string public snowflakeName;\n    string public snowflakeDescription;\n    address public snowflakeAddress;\n\n    bool public callOnSignUp;\n    bool public callOnRemoval;\n\n    function setSnowflakeAddress(address _address) public onlyOwner {\n        snowflakeAddress = _address;\n    }\n\n    // function called every time a user sets your contract as a resolver if callOnSignUp is true\n    // this function *(must** include: require(msg.sender == snowflakeAddress);\n    // returning false will disallow users from setting your contract as a resolver\n    // function onSignUp(string hydroId, uint allowance) public returns (bool);\n\n    // function called every time a user sets your contract as a resolver if callOnRemoval is true\n    // this function *must** include: require(msg.sender == snowflakeAddress);\n    // returning false soft prevents users from removing your contract as a resolver\n    // however, they can force remove your resolver, bypassing this function\n    // function onRemoval(string hydroId, uint allowance) public returns (bool);\n}\n",
  "sourcePath": "/Users/noahzinsmeister/Documents/github/smart-contracts/snowflake/contracts/resolvers/SnowflakeResolver.sol",
  "compiler": {
    "name": "solc",
    "version": "0.4.24+commit.e67f0147.Emscripten.clang"
  },
  "schemaVersion": "2.0.1",
  "updatedAt": "2018-08-21T17:35:34.179Z"
}