{
  "contractName": "Snowflake",
  "abi": [
    {
      "constant": true,
      "inputs": [
        {
          "name": "",
          "type": "uint8"
        }
      ],
      "name": "allowedFields",
      "outputs": [
        {
          "name": "",
          "type": "bool"
        }
      ],
      "payable": false,
      "stateMutability": "view",
      "type": "function"
    },
    {
      "constant": true,
      "inputs": [
        {
          "name": "",
          "type": "address"
        }
      ],
      "name": "ownerToToken",
      "outputs": [
        {
          "name": "",
          "type": "uint256"
        }
      ],
      "payable": false,
      "stateMutability": "view",
      "type": "function"
    },
    {
      "constant": true,
      "inputs": [],
      "name": "clientRaindropAddress",
      "outputs": [
        {
          "name": "",
          "type": "address"
        }
      ],
      "payable": false,
      "stateMutability": "view",
      "type": "function"
    },
    {
      "constant": true,
      "inputs": [],
      "name": "nextTokenId",
      "outputs": [
        {
          "name": "",
          "type": "uint256"
        }
      ],
      "payable": false,
      "stateMutability": "view",
      "type": "function"
    },
    {
      "constant": true,
      "inputs": [],
      "name": "hydroTokenAddress",
      "outputs": [
        {
          "name": "",
          "type": "address"
        }
      ],
      "payable": false,
      "stateMutability": "view",
      "type": "function"
    },
    {
      "constant": true,
      "inputs": [],
      "name": "owner",
      "outputs": [
        {
          "name": "",
          "type": "address"
        }
      ],
      "payable": false,
      "stateMutability": "view",
      "type": "function"
    },
    {
      "constant": true,
      "inputs": [],
      "name": "resolverWhitelistFee",
      "outputs": [
        {
          "name": "",
          "type": "uint256"
        }
      ],
      "payable": false,
      "stateMutability": "view",
      "type": "function"
    },
    {
      "constant": false,
      "inputs": [
        {
          "name": "newOwner",
          "type": "address"
        }
      ],
      "name": "transferOwnership",
      "outputs": [],
      "payable": false,
      "stateMutability": "nonpayable",
      "type": "function"
    },
    {
      "constant": true,
      "inputs": [
        {
          "name": "",
          "type": "address"
        }
      ],
      "name": "deposits",
      "outputs": [
        {
          "name": "",
          "type": "uint256"
        }
      ],
      "payable": false,
      "stateMutability": "view",
      "type": "function"
    },
    {
      "inputs": [],
      "payable": false,
      "stateMutability": "nonpayable",
      "type": "constructor"
    },
    {
      "anonymous": false,
      "inputs": [
        {
          "indexed": true,
          "name": "depositor",
          "type": "address"
        },
        {
          "indexed": false,
          "name": "amount",
          "type": "uint256"
        }
      ],
      "name": "SnowflakeDeposit",
      "type": "event"
    },
    {
      "anonymous": false,
      "inputs": [
        {
          "indexed": true,
          "name": "from",
          "type": "address"
        },
        {
          "indexed": true,
          "name": "to",
          "type": "address"
        },
        {
          "indexed": false,
          "name": "amount",
          "type": "uint256"
        }
      ],
      "name": "SnowflakeTransfer",
      "type": "event"
    },
    {
      "anonymous": false,
      "inputs": [
        {
          "indexed": true,
          "name": "depositor",
          "type": "address"
        },
        {
          "indexed": false,
          "name": "amount",
          "type": "uint256"
        }
      ],
      "name": "SnowflakeWithdraw",
      "type": "event"
    },
    {
      "anonymous": false,
      "inputs": [
        {
          "indexed": false,
          "name": "tokenId",
          "type": "uint256"
        },
        {
          "indexed": false,
          "name": "minter",
          "type": "address"
        }
      ],
      "name": "SnowflakeMinted",
      "type": "event"
    },
    {
      "anonymous": false,
      "inputs": [
        {
          "indexed": true,
          "name": "resolver",
          "type": "address"
        },
        {
          "indexed": false,
          "name": "sponsor",
          "type": "address"
        }
      ],
      "name": "ResolverWhitelisted",
      "type": "event"
    },
    {
      "anonymous": false,
      "inputs": [
        {
          "indexed": true,
          "name": "tokenId",
          "type": "uint256"
        },
        {
          "indexed": false,
          "name": "resolvers",
          "type": "address[]"
        },
        {
          "indexed": false,
          "name": "withdrawAllowances",
          "type": "uint256[]"
        }
      ],
      "name": "ResolversAdded",
      "type": "event"
    },
    {
      "anonymous": false,
      "inputs": [
        {
          "indexed": true,
          "name": "tokenId",
          "type": "uint256"
        },
        {
          "indexed": false,
          "name": "resolvers",
          "type": "address[]"
        },
        {
          "indexed": false,
          "name": "withdrawAllowances",
          "type": "uint256[]"
        }
      ],
      "name": "ResolversAllowanceChanged",
      "type": "event"
    },
    {
      "anonymous": false,
      "inputs": [
        {
          "indexed": true,
          "name": "tokenId",
          "type": "uint256"
        },
        {
          "indexed": false,
          "name": "resolvers",
          "type": "address[]"
        }
      ],
      "name": "ResolversRemoved",
      "type": "event"
    },
    {
      "anonymous": false,
      "inputs": [
        {
          "indexed": true,
          "name": "tokenId",
          "type": "uint256"
        },
        {
          "indexed": false,
          "name": "resolver",
          "type": "address"
        },
        {
          "indexed": false,
          "name": "currentAllowance",
          "type": "uint256"
        },
        {
          "indexed": false,
          "name": "requestedWithdraw",
          "type": "uint256"
        }
      ],
      "name": "InsufficientAllowance",
      "type": "event"
    },
    {
      "anonymous": false,
      "inputs": [
        {
          "indexed": true,
          "name": "previousOwner",
          "type": "address"
        },
        {
          "indexed": true,
          "name": "newOwner",
          "type": "address"
        }
      ],
      "name": "OwnershipTransferred",
      "type": "event"
    },
    {
      "constant": true,
      "inputs": [
        {
          "name": "_address",
          "type": "address"
        }
      ],
      "name": "hasToken",
      "outputs": [
        {
          "name": "",
          "type": "bool"
        }
      ],
      "payable": false,
      "stateMutability": "view",
      "type": "function"
    },
    {
      "constant": true,
      "inputs": [
        {
          "name": "tokenId",
          "type": "uint256"
        }
      ],
      "name": "tokenExists",
      "outputs": [
        {
          "name": "",
          "type": "bool"
        }
      ],
      "payable": false,
      "stateMutability": "view",
      "type": "function"
    },
    {
      "constant": true,
      "inputs": [
        {
          "name": "_address",
          "type": "address"
        }
      ],
      "name": "getTokenId",
      "outputs": [
        {
          "name": "tokenId",
          "type": "uint256"
        }
      ],
      "payable": false,
      "stateMutability": "view",
      "type": "function"
    },
    {
      "constant": false,
      "inputs": [
        {
          "name": "fee",
          "type": "uint256"
        }
      ],
      "name": "setResolverWhitelistFee",
      "outputs": [],
      "payable": false,
      "stateMutability": "nonpayable",
      "type": "function"
    },
    {
      "constant": false,
      "inputs": [
        {
          "name": "resolver",
          "type": "address"
        }
      ],
      "name": "whitelistResolver",
      "outputs": [],
      "payable": false,
      "stateMutability": "nonpayable",
      "type": "function"
    },
    {
      "constant": false,
      "inputs": [
        {
          "name": "clientRaindrop",
          "type": "address"
        },
        {
          "name": "hydroToken",
          "type": "address"
        }
      ],
      "name": "setAddresses",
      "outputs": [],
      "payable": false,
      "stateMutability": "nonpayable",
      "type": "function"
    },
    {
      "constant": false,
      "inputs": [
        {
          "name": "names",
          "type": "bytes32[6]"
        },
        {
          "name": "dateOfBirth",
          "type": "bytes32[3]"
        }
      ],
      "name": "mintIdentityToken",
      "outputs": [
        {
          "name": "tokenId",
          "type": "uint256"
        }
      ],
      "payable": false,
      "stateMutability": "nonpayable",
      "type": "function"
    },
    {
      "constant": false,
      "inputs": [
        {
          "name": "resolvers",
          "type": "address[]"
        },
        {
          "name": "withdrawAllowances",
          "type": "uint256[]"
        }
      ],
      "name": "addResolvers",
      "outputs": [],
      "payable": false,
      "stateMutability": "nonpayable",
      "type": "function"
    },
    {
      "constant": false,
      "inputs": [
        {
          "name": "resolvers",
          "type": "address[]"
        },
        {
          "name": "withdrawAllowances",
          "type": "uint256[]"
        }
      ],
      "name": "changeResolverAllowances",
      "outputs": [],
      "payable": false,
      "stateMutability": "nonpayable",
      "type": "function"
    },
    {
      "constant": false,
      "inputs": [
        {
          "name": "resolvers",
          "type": "address[]"
        }
      ],
      "name": "removeResolvers",
      "outputs": [],
      "payable": false,
      "stateMutability": "nonpayable",
      "type": "function"
    },
    {
      "constant": false,
      "inputs": [
        {
          "name": "field",
          "type": "uint8"
        },
        {
          "name": "entries",
          "type": "string[]"
        },
        {
          "name": "saltedHashes",
          "type": "bytes32[]"
        }
      ],
      "name": "addFieldEntries",
      "outputs": [],
      "payable": false,
      "stateMutability": "nonpayable",
      "type": "function"
    },
    {
      "constant": false,
      "inputs": [
        {
          "name": "field",
          "type": "uint8"
        },
        {
          "name": "entry",
          "type": "string"
        },
        {
          "name": "saltedHash",
          "type": "bytes32"
        }
      ],
      "name": "addFieldEntry",
      "outputs": [],
      "payable": false,
      "stateMutability": "nonpayable",
      "type": "function"
    },
    {
      "constant": false,
      "inputs": [
        {
          "name": "field",
          "type": "uint8"
        },
        {
          "name": "entry",
          "type": "string"
        },
        {
          "name": "saltedHash",
          "type": "bytes32"
        }
      ],
      "name": "changeFieldEntry",
      "outputs": [],
      "payable": false,
      "stateMutability": "nonpayable",
      "type": "function"
    },
    {
      "constant": false,
      "inputs": [
        {
          "name": "field",
          "type": "uint8"
        },
        {
          "name": "entry",
          "type": "string"
        }
      ],
      "name": "removeFieldEntry",
      "outputs": [],
      "payable": false,
      "stateMutability": "nonpayable",
      "type": "function"
    },
    {
      "constant": true,
      "inputs": [
        {
          "name": "tokenId",
          "type": "uint256"
        },
        {
          "name": "resolver",
          "type": "address"
        }
      ],
      "name": "hasResolver",
      "outputs": [
        {
          "name": "",
          "type": "bool"
        }
      ],
      "payable": false,
      "stateMutability": "view",
      "type": "function"
    },
    {
      "constant": true,
      "inputs": [
        {
          "name": "tokenId",
          "type": "uint256"
        },
        {
          "name": "field",
          "type": "uint8"
        }
      ],
      "name": "hasAttested",
      "outputs": [
        {
          "name": "",
          "type": "bool"
        }
      ],
      "payable": false,
      "stateMutability": "view",
      "type": "function"
    },
    {
      "constant": true,
      "inputs": [
        {
          "name": "tokenId",
          "type": "uint256"
        },
        {
          "name": "field",
          "type": "uint8"
        },
        {
          "name": "entry",
          "type": "string"
        }
      ],
      "name": "hasAttested",
      "outputs": [
        {
          "name": "",
          "type": "bool"
        }
      ],
      "payable": false,
      "stateMutability": "view",
      "type": "function"
    },
    {
      "constant": true,
      "inputs": [
        {
          "name": "tokenId",
          "type": "uint256"
        },
        {
          "name": "field",
          "type": "uint8"
        }
      ],
      "name": "getDetails",
      "outputs": [
        {
          "name": "entriesAttestedTo",
          "type": "string[]"
        }
      ],
      "payable": false,
      "stateMutability": "view",
      "type": "function"
    },
    {
      "constant": true,
      "inputs": [
        {
          "name": "tokenId",
          "type": "uint256"
        },
        {
          "name": "field",
          "type": "uint8"
        },
        {
          "name": "entry",
          "type": "string"
        }
      ],
      "name": "getDetails",
      "outputs": [
        {
          "name": "saltedHash",
          "type": "bytes32"
        },
        {
          "name": "blockNumber",
          "type": "uint256"
        }
      ],
      "payable": false,
      "stateMutability": "view",
      "type": "function"
    },
    {
      "constant": true,
      "inputs": [
        {
          "name": "tokenId",
          "type": "uint256"
        },
        {
          "name": "resolver",
          "type": "address"
        }
      ],
      "name": "getDetails",
      "outputs": [
        {
          "name": "withdrawAllowance",
          "type": "uint256"
        }
      ],
      "payable": false,
      "stateMutability": "view",
      "type": "function"
    },
    {
      "constant": true,
      "inputs": [
        {
          "name": "tokenId",
          "type": "uint256"
        }
      ],
      "name": "getDetails",
      "outputs": [
        {
          "name": "owner",
          "type": "address"
        },
        {
          "name": "hydroId",
          "type": "string"
        },
        {
          "name": "fieldsAttestedTo",
          "type": "uint8[]"
        },
        {
          "name": "resolversFor",
          "type": "address[]"
        }
      ],
      "payable": false,
      "stateMutability": "view",
      "type": "function"
    },
    {
      "constant": false,
      "inputs": [
        {
          "name": "_sender",
          "type": "address"
        },
        {
          "name": "amount",
          "type": "uint256"
        },
        {
          "name": "_tokenAddress",
          "type": "address"
        },
        {
          "name": "",
          "type": "bytes"
        }
      ],
      "name": "receiveApproval",
      "outputs": [],
      "payable": false,
      "stateMutability": "nonpayable",
      "type": "function"
    },
    {
      "constant": false,
      "inputs": [
        {
          "name": "to",
          "type": "address"
        },
        {
          "name": "amount",
          "type": "uint256"
        }
      ],
      "name": "transferSnowflakeBalance",
      "outputs": [],
      "payable": false,
      "stateMutability": "nonpayable",
      "type": "function"
    },
    {
      "constant": false,
      "inputs": [
        {
          "name": "amount",
          "type": "uint256"
        }
      ],
      "name": "withdrawSnowflakeBalance",
      "outputs": [],
      "payable": false,
      "stateMutability": "nonpayable",
      "type": "function"
    },
    {
      "constant": false,
      "inputs": [
        {
          "name": "from",
          "type": "address"
        },
        {
          "name": "to",
          "type": "address"
        },
        {
          "name": "amount",
          "type": "uint256"
        }
      ],
      "name": "transferOnBehalfOf",
      "outputs": [],
      "payable": false,
      "stateMutability": "nonpayable",
      "type": "function"
    }
  ],
  "bytecode": "0x600160055560066101408181527f707265666978000000000000000000000000000000000000000000000000000061016052608090815260096101809081527f676976656e4e616d6500000000000000000000000000000000000000000000006101a05260a052600a6101c09081527f6d6964646c654e616d65000000000000000000000000000000000000000000006101e05260c05260076102009081527f7375726e616d65000000000000000000000000000000000000000000000000006102205260e0526102408281527f737566666978000000000000000000000000000000000000000000000000000061026052610100526102c0604052600d6102809081527f7072656665727265644e616d65000000000000000000000000000000000000006102a052610120526200013b91600c91906200038b565b506040805160a0810182526003606082018181527f64617900000000000000000000000000000000000000000000000000000000006080840152825282518084018452600581527f6d6f6e74680000000000000000000000000000000000000000000000000000006020828101919091528084019190915283518085018552600481527f79656172000000000000000000000000000000000000000000000000000000009181019190915292820192909252620001fc9160129190620003e2565b503480156200020a57600080fd5b5060008054600160a060020a0319163317815560156020527fa31547ce6245cdb9ecea19cf8c7eb9f5974025bb4075011409251ae855b30aed805460ff1990811660019081179092557f07d4ff730d9753101d832555708a37d38c2c45fce8cacaefc99f06074e93fe0b80548216831790557fb3a65e8276bd33b3e4f7d6081ebd9899187264822358758dca2e2bc37b2a9c278054821683179055600483527f8191f4eb6b8bafbfe9a5389c8d07d7f5fd81137a7ee653fc4358269845ee1d2e805490911690911790555b6006811015620003845773__stringSet_____________________________63ea486c53600a600c84600681106200030957fe5b016040518363ffffffff167c010000000000000000000000000000000000000000000000000000000002815260040162000345929190620005c6565b60006040518083038186803b1580156200035e57600080fd5b505af415801562000373573d6000803e3d6000fd5b505060019092019150620002d59050565b50620005fe565b8260068101928215620003d0579160200282015b82811115620003d05782518051620003bf91849160209091019062000427565b50916020019190600101906200039f565b50620003de929150620004a8565b5090565b8260038101928215620003d0579160200282015b82811115620003d057825180516200041691849160209091019062000427565b5091602001919060010190620003f6565b828054600181600116156101000203166002900490600052602060002090601f016020900481019282601f106200046a57805160ff19168380011785556200049a565b828001600101855582156200049a579182015b828111156200049a5782518255916020019190600101906200047d565b50620003de929150620004d3565b620004d091905b80821115620003de576000620004c68282620004f0565b50600101620004af565b90565b620004d091905b80821115620003de5760008155600101620004da565b50805460018160011615610100020316600290046000825580601f1062000518575062000538565b601f016020900490600052602060002090810190620005389190620004d3565b50565b6000815460018116600081146200055b57600181146200057a57620005ba565b60028204607f16855260ff1982166020860152604085019250620005ba565b600282048086526020860195506200059285620005f2565b60005b82811015620005b35781548882015260019091019060200162000595565b8701945050505b505092915050565b9052565b60408101620005d68285620005c2565b8181036020830152620005ea81846200053b565b949350505050565b60009081526020902090565b61459a806200060e6000396000f3006080604052600436106101915763ffffffff60e060020a600035041662923f9e811461019657806303136be7146101cc5780630ce5aeef146101ec5780631dfc99c4146102195780632bd783381461023b578063484ca5a11461025b5780634c0292001461027b5780636be4d9b01461029d5780636c92480a146102bd57806375794a3c146102ea57806375d7e4bd146102ff57806377f55933146103145780637ed553ff1461034257806383cf6ae5146103625780638a8d6679146103825780638d7601c0146103a25780638da5cb5b146103c25780638f4ffcb1146103d757806390107afe146103f75780639115abf4146104175780639bb0f599146104375780639d0a910914610457578063a861eae314610477578063b8a5c2a614610497578063b90813c9146104b7578063b93a89f7146104d7578063c0928e2a14610507578063d12a7b4214610527578063d36031bd14610547578063d57c198e14610567578063ef1286b014610587578063f15376861461059c578063f2fde38b146105bc578063fc7e286d146105dc575b600080fd5b3480156101a257600080fd5b506101b66101b136600461392f565b6105fc565b6040516101c391906142b7565b60405180910390f35b3480156101d857600080fd5b506101b66101e7366004613a15565b610619565b3480156101f857600080fd5b5061020c6102073660046136c1565b61062e565b6040516101c39190614447565b34801561022557600080fd5b5061022e610640565b6040516101c391906141bc565b34801561024757600080fd5b506101b66102563660046139ba565b61064f565b34801561026757600080fd5b506101b661027636600461398a565b610778565b34801561028757600080fd5b5061029b610296366004613aee565b61089e565b005b3480156102a957600080fd5b5061029b6102b836600461384c565b610b6c565b3480156102c957600080fd5b506102dd6102d836600461398a565b610d60565b6040516101c391906142a6565b3480156102f657600080fd5b5061020c610f3c565b34801561030b57600080fd5b5061022e610f42565b34801561032057600080fd5b5061033461032f3660046139ba565b610f51565b6040516101c39291906142c5565b34801561034e57600080fd5b5061029b61035d366004613721565b6111ec565b34801561036e57600080fd5b506101b661037d36600461396b565b6113ec565b34801561038e57600080fd5b5061029b61039d366004613aee565b611482565b3480156103ae57600080fd5b5061029b6103bd36600461384c565b61187d565b3480156103ce57600080fd5b5061022e611baf565b3480156103e357600080fd5b5061029b6103f236600461379e565b611bbe565b34801561040357600080fd5b5061029b6104123660046136e7565b611d1d565b34801561042357600080fd5b5061020c61043236600461396b565b611d6f565b34801561044357600080fd5b506101b66104523660046136c1565b611e85565b34801561046357600080fd5b5061029b610472366004613a33565b611ea2565b34801561048357600080fd5b5061029b61049236600461376e565b611f19565b3480156104a357600080fd5b5061029b6104b2366004613817565b611f28565b3480156104c357600080fd5b5061029b6104d236600461392f565b612158565b3480156104e357600080fd5b506104f76104f236600461392f565b61223e565b6040516101c394939291906141f2565b34801561051357600080fd5b5061029b61052236600461392f565b61240b565b34801561053357600080fd5b5061029b6105423660046136c1565b61256d565b34801561055357600080fd5b5061029b610562366004613aa6565b61264d565b34801561057357600080fd5b5061020c6105823660046138ab565b6129f4565b34801561059357600080fd5b5061020c61309d565b3480156105a857600080fd5b5061020c6105b73660046136c1565b6130a3565b3480156105c857600080fd5b5061029b6105d73660046136c1565b6130d5565b3480156105e857600080fd5b5061020c6105f73660046136c1565b613169565b600090815260066020526040902054600160a060020a0316151590565b60156020526000908152604090205460ff1681565b60076020526000908152604090205481565b600854600160a060020a031681565b6000808461065c816105fc565b15156106865760405160e560020a62461bcd02815260040161067d906143b3565b60405180910390fd5b60ff8086166000908152601560205260409020541615156106bc5760405160e560020a62461bcd02815260040161067d90614303565b600086815260066020908152604080832060ff891684526002810190925291829020915160e060020a63d080be4f02815290935073__stringSet_____________________________9163d080be4f9161071e916001019088906004016143ec565b60206040518083038186803b15801561073657600080fd5b505af415801561074a573d6000803e3d6000fd5b505050506040513d601f19601f8201168201806040525061076e91908101906138dc565b9695505050505050565b60008083610785816105fc565b15156107a65760405160e560020a62461bcd02815260040161067d906143b3565b60ff8085166000908152601560205260409020541615156107dc5760405160e560020a62461bcd02815260040161067d90614303565b6000858152600660205260409081902090517fcb5ce7e500000000000000000000000000000000000000000000000000000000815290925073__uint8Set______________________________9063cb5ce7e590610843906003860190889060040161442c565b60206040518083038186803b15801561085b57600080fd5b505af415801561086f573d6000803e3d6000fd5b505050506040513d601f19601f8201168201806040525061089391908101906138dc565b92505b505092915050565b6000336001806108ad83611e85565b1515146108cf5760405160e560020a62461bcd02815260040161067d90614363565b60ff8087166000908152601560205260409020541615156109055760405160e560020a62461bcd02815260040161067d90614303565b3360009081526007602090815260408083205483526006825280832060ff8a1684526002810190925291829020915160e060020a63d080be4f02815290945073__stringSet_____________________________9163d080be4f91610972916001019089906004016143ec565b60206040518083038186803b15801561098a57600080fd5b505af415801561099e573d6000803e3d6000fd5b505050506040513d601f19601f820116820180604052506109c291908101906138dc565b15156109e35760405160e560020a62461bcd02815260040161067d90614353565b60ff861660009081526002840160209081526040918290209151875187939289929182918401908083835b60208310610a2d5780518252601f199092019160209182019101610a0e565b51815160209384036101000a600019018019909216911617905292019485525060405193849003019092205492909214159150610a6b905057600080fd5b838360020160008860ff1660ff168152602001908152602001600020600001866040518082805190602001908083835b60208310610aba5780518252601f199092019160209182019101610a9b565b51815160209384036101000a60001901801990921691161790529201948552506040805194859003820185209590955560ff8b166000908152600289018252949094208951439591948b9450925082918401908083835b60208310610b305780518252601f199092019160209182019101610b11565b51815160209384036101000a60001901801990921691161790529201948552506040519384900301909220600101929092555050505050505050565b60008033600180610b7c83611e85565b151514610b9e5760405160e560020a62461bcd02815260040161067d90614363565b8451865114610bc25760405160e560020a62461bcd02815260040161067d906142e3565b3360009081526007602090815260408083205483526006909152902093505b8551831015610d0d578360060173__addressSet____________________________63ee8a71a090918886815181101515610c1857fe5b906020019060200201516040518363ffffffff1660e060020a028152600401610c429291906143c3565b60206040518083038186803b158015610c5a57600080fd5b505af4158015610c6e573d6000803e3d6000fd5b505050506040513d601f19601f82011682018060405250610c9291908101906138dc565b1515610cb35760405160e560020a62461bcd02815260040161067d90614343565b8483815181101515610cc157fe5b906020019060200201518460050160008886815181101515610cdf57fe5b6020908102909101810151600160a060020a0316825281019190915260400160002055600190920191610be1565b33600090815260076020526040908190205490517fc33cab09bfbf1d9c39c3e354adeee35a3fae2f50010437b42cdf8fc7d0bcdb2890610d509089908990614281565b60405180910390a2505050505050565b6060600083610d6e816105fc565b1515610d8f5760405160e560020a62461bcd02815260040161067d906143b3565b6000858152600660205260409081902090517fcb5ce7e500000000000000000000000000000000000000000000000000000000815290925073__uint8Set______________________________9063cb5ce7e590610df6906003860190889060040161442c565b60206040518083038186803b158015610e0e57600080fd5b505af4158015610e22573d6000803e3d6000fd5b505050506040513d601f19601f82011682018060405250610e4691908101906138dc565b1515610e5157600080fd5b60ff84166000908152600283016020908152604080832060010180548251818502810185019093528083529193909284015b82821015610f2e5760008481526020908190208301805460408051601f6002600019610100600187161502019094169390930492830185900485028101850190915281815292830182828015610f1a5780601f10610eef57610100808354040283529160200191610f1a565b820191906000526020600020905b815481529060010190602001808311610efd57829003601f168201915b505050505081526020019060010190610e83565b505050509250505092915050565b60055481565b600954600160a060020a031681565b600080600085610f60816105fc565b1515610f815760405160e560020a62461bcd02815260040161067d906143b3565b6000878152600660205260409081902090517fcb5ce7e500000000000000000000000000000000000000000000000000000000815290925073__uint8Set______________________________9063cb5ce7e590610fe89060038601908a9060040161442c565b60206040518083038186803b15801561100057600080fd5b505af4158015611014573d6000803e3d6000fd5b505050506040513d601f19601f8201168201806040525061103891908101906138dc565b151561104357600080fd5b60ff8616600090815260028301602052604090819020905160e060020a63d080be4f02815273__stringSet_____________________________9163d080be4f91611096916001019089906004016143ec565b60206040518083038186803b1580156110ae57600080fd5b505af41580156110c2573d6000803e3d6000fd5b505050506040513d601f19601f820116820180604052506110e691908101906138dc565b15156110f157600080fd5b60ff861660009081526002830160209081526040918290209151875188928291908401908083835b602083106111385780518252601f199092019160209182019101611119565b51815160209384036101000a60001901801990921691161790529201948552506040805194859003820185205460ff8c166000908152600289018452919091208a5191959094508a9350918291908401908083835b602083106111ac5780518252601f19909201916020918201910161118d565b51815160209384036101000a6000190180199092169116179052920194855250604051938490030190922060010154929a92995091975050505050505050565b6000836001806111fb83611e85565b15151461121d5760405160e560020a62461bcd02815260040161067d90614363565b600160a060020a03861660009081526007602090815260408083205483526006918290529182902091517fee8a71a000000000000000000000000000000000000000000000000000000000815291945073__addressSet____________________________9163ee8a71a09161129b919087019033906004016143c3565b60206040518083038186803b1580156112b357600080fd5b505af41580156112c7573d6000803e3d6000fd5b505050506040513d601f19601f820116820180604052506112eb91908101906138dc565b151561130c5760405160e560020a62461bcd02815260040161067d906143a3565b3360009081526005840160205260409020548411156113a557600160a060020a0386166000908152600760209081526040808320543380855260058801909352928190205490517f0de6846b7f00dd0bd6435dd9ea3cccbc3d221113289f0af618977566dceb7a4c926113829290918990614255565b60405180910390a260405160e560020a62461bcd02815260040161067d90614383565b3360009081526005840160205260409020546113c7908563ffffffff61317b16565b3360009081526005850160205260409020556113e4868686613192565b505050505050565b600080836113f9816105fc565b151561141a5760405160e560020a62461bcd02815260040161067d906143b3565b60008581526006602081905260409182902091517fee8a71a000000000000000000000000000000000000000000000000000000000815291935073__addressSet____________________________9163ee8a71a091610843919086019088906004016143c3565b60003360018061149183611e85565b1515146114b35760405160e560020a62461bcd02815260040161067d90614363565b60ff8087166000908152601560205260409020541615156114e95760405160e560020a62461bcd02815260040161067d90614303565b60ff8616151561158b5760405160e060020a63d080be4f02815273__stringSet_____________________________9063d080be4f9061153090600a9089906004016143ec565b60206040518083038186803b15801561154857600080fd5b505af415801561155c573d6000803e3d6000fd5b505050506040513d601f19601f8201168201806040525061158091908101906138dc565b151561158b57600080fd5b3360009081526007602090815260408083205483526006825280832060ff8a1684526002810190925291829020915160e060020a63d080be4f02815290945073__stringSet_____________________________9163d080be4f916115f8916001019089906004016143ec565b60206040518083038186803b15801561161057600080fd5b505af4158015611624573d6000803e3d6000fd5b505050506040513d601f19601f8201168201806040525061164891908101906138dc565b156116685760405160e560020a62461bcd02815260040161067d90614313565b60ff861660009081526002840160205260409081902090517fea486c5300000000000000000000000000000000000000000000000000000000815273__stringSet_____________________________9163ea486c53916116d1916001019089906004016143ec565b60006040518083038186803b1580156116e957600080fd5b505af41580156116fd573d6000803e3d6000fd5b50505060ff871660009081526002850160209081526040918290209151885188945089928291908401908083835b6020831061174a5780518252601f19909201916020918201910161172b565b51815160209384036101000a60001901801990921691161790529201948552506040805194859003820185209590955560ff8b166000908152600289018252949094208951439591948b9450925082918401908083835b602083106117c05780518252601f1990920191602091820191016117a1565b51815160209384036101000a60001901801990921691161790529201948552506040519384900301832060010193909355507f3d61036200000000000000000000000000000000000000000000000000000000815273__uint8Set______________________________9150633d610362906118459060038701908a9060040161442c565b60006040518083038186803b15801561185d57600080fd5b505af4158015611871573d6000803e3d6000fd5b50505050505050505050565b6000803360018061188d83611e85565b1515146118af5760405160e560020a62461bcd02815260040161067d90614363565b84518651146118d35760405160e560020a62461bcd02815260040161067d906142e3565b3360009081526007602090815260408083205483526006909152902093505b8551831015611b6c57600273__addressSet____________________________63ee8a71a09091888681518110151561192757fe5b906020019060200201516040518363ffffffff1660e060020a0281526004016119519291906143c3565b60206040518083038186803b15801561196957600080fd5b505af415801561197d573d6000803e3d6000fd5b505050506040513d601f19601f820116820180604052506119a191908101906138dc565b15156119c25760405160e560020a62461bcd02815260040161067d90614333565b8360060173__addressSet____________________________63ee8a71a0909188868151811015156119f057fe5b906020019060200201516040518363ffffffff1660e060020a028152600401611a1a9291906143c3565b60206040518083038186803b158015611a3257600080fd5b505af4158015611a46573d6000803e3d6000fd5b505050506040513d601f19601f82011682018060405250611a6a91908101906138dc565b15611a8a5760405160e560020a62461bcd02815260040161067d90614323565b8360060173__addressSet____________________________63e843cfc190918886815181101515611ab857fe5b906020019060200201516040518363ffffffff1660e060020a028152600401611ae29291906143c3565b60006040518083038186803b158015611afa57600080fd5b505af4158015611b0e573d6000803e3d6000fd5b505050508483815181101515611b2057fe5b906020019060200201518460050160008886815181101515611b3e57fe5b6020908102909101810151600160a060020a03168252810191909152604001600020556001909201916118f2565b33600090815260076020526040908190205490517fb05b004198160bcf45725e8b02ca5815857479092d86dfdd30000fdca456c3e390610d509089908990614281565b600054600160a060020a031681565b600033600160a060020a03841614611bd557600080fd5b600954600160a060020a03848116911614611bef57600080fd5b506040517f23b872dd0000000000000000000000000000000000000000000000000000000081528290600160a060020a038216906323b872dd90611c3b908890309089906004016141ca565b602060405180830381600087803b158015611c5557600080fd5b505af1158015611c69573d6000803e3d6000fd5b505050506040513d601f19601f82011682018060405250611c8d91908101906138dc565b1515611c9857600080fd5b600160a060020a038516600090815260016020526040902054611cc1908563ffffffff6132c316565b600160a060020a038616600081815260016020526040908190209290925590517f88bc2daf60592362e3cd69736750ef477a015e69f1813bf532d990998220bd1390611d0e908790614447565b60405180910390a25050505050565b600054600160a060020a03163314611d3457600080fd5b60088054600160a060020a0393841673ffffffffffffffffffffffffffffffffffffffff199182161790915560098054929093169116179055565b60008083611d7c816105fc565b1515611d9d5760405160e560020a62461bcd02815260040161067d906143b3565b60008581526006602081905260409182902091517fee8a71a000000000000000000000000000000000000000000000000000000000815291935073__addressSet____________________________9163ee8a71a091611e05919086019088906004016143c3565b60206040518083038186803b158015611e1d57600080fd5b505af4158015611e31573d6000803e3d6000fd5b505050506040513d601f19601f82011682018060405250611e5591908101906138dc565b1515611e6057600080fd5b600160a060020a03841660009081526005830160205260409020549250505092915050565b600160a060020a0316600090815260076020526040902054151590565b8051825160009114611ec95760405160e560020a62461bcd02815260040161067d906142e3565b8251811015611f1357611f0b848483815181101515611ee457fe5b906020019060200201518484815181101515611efc57fe5b90602001906020020151611482565b600101611ec9565b50505050565b611f24338383613192565b5050565b60008033600180611f3883611e85565b151514611f5a5760405160e560020a62461bcd02815260040161067d90614363565b3360009081526007602090815260408083205483526006909152902093505b8451831015612117578360060173__addressSet____________________________63ee8a71a090918786815181101515611fb057fe5b906020019060200201516040518363ffffffff1660e060020a028152600401611fda9291906143c3565b60206040518083038186803b158015611ff257600080fd5b505af4158015612006573d6000803e3d6000fd5b505050506040513d601f19601f8201168201806040525061202a91908101906138dc565b151561204b5760405160e560020a62461bcd02815260040161067d90614343565b8360060173__addressSet____________________________63b65fd2949091878681518110151561207957fe5b906020019060200201516040518363ffffffff1660e060020a0281526004016120a39291906143c3565b60006040518083038186803b1580156120bb57600080fd5b505af41580156120cf573d6000803e3d6000fd5b5050505083600501600086858151811015156120e757fe5b6020908102909101810151600160a060020a03168252810191909152604001600090812055600190920191611f79565b33600090815260076020526040908190205490517f0b55ed42af131bb9d552979dde70c8d7174c9b3cc9c98d4a0f37a845a6fd4e3d90611d0e908890614270565b60008054600160a060020a0316331461217057600080fd5b600960009054906101000a9004600160a060020a03169050600a606482600160a060020a03166318160ddd6040518163ffffffff1660e060020a028152600401602060405180830381600087803b1580156121ca57600080fd5b505af11580156121de573d6000803e3d6000fd5b505050506040513d601f19601f82011682018060405250612202919081019061394d565b81151561220b57fe5b0481151561221557fe5b048211156122385760405160e560020a62461bcd02815260040161067d90614373565b50600455565b60006060806060600085612251816105fc565b15156122725760405160e560020a62461bcd02815260040161067d906143b3565b6000878152600660208181526040928390208054600180830180548751600261010094831615949094026000190190911692909204601f8101869004860283018601909752868252929750600160a060020a0390911694919360038801939088019285918301828280156123275780601f106122fc57610100808354040283529160200191612327565b820191906000526020600020905b81548152906001019060200180831161230a57829003601f168201915b505050505092508180548060200260200160405190810160405280929190818152602001828054801561239757602002820191906000526020600020906000905b825461010083900a900460ff168152602060019283018181049485019490930390920291018084116123685790505b50505050509150808054806020026020016040519081016040528092919081815260200182805480156123f357602002820191906000526020600020905b8154600160a060020a031681526001909101906020018083116123d5575b50505050509050955095509550955050509193509193565b600080821161241957600080fd5b3360009081526001602052604090205482111561244b5760405160e560020a62461bcd02815260040161067d906142d3565b3360009081526001602052604090205461246b908363ffffffff61317b16565b33600081815260016020526040908190209290925560095491517fa9059cbb000000000000000000000000000000000000000000000000000000008152600160a060020a039092169250829163a9059cbb916124cb91869060040161423a565b602060405180830381600087803b1580156124e557600080fd5b505af11580156124f9573d6000803e3d6000fd5b505050506040513d601f19601f8201168201806040525061251d91908101906138dc565b151561252857600080fd5b33600160a060020a03167fcce4937f7cb5adfa10d84738fe8c34b18bab1448271142eb72b11c93f8cb2d6f836040516125619190614447565b60405180910390a25050565b60005460045461258691600160a060020a031690611f19565b6040517fe843cfc100000000000000000000000000000000000000000000000000000000815273__addressSet____________________________9063e843cfc1906125d99060029085906004016143c3565b60006040518083038186803b1580156125f157600080fd5b505af4158015612605573d6000803e3d6000fd5b5050505080600160a060020a03167f226b9a42bf53928505b48f7cf4b29e4300ced15175effec574adcde11f1b7bb23360405161264291906141bc565b60405180910390a250565b60003360018061265c83611e85565b15151461267e5760405160e560020a62461bcd02815260040161067d90614363565b60ff8086166000908152601560205260409020541615156126b45760405160e560020a62461bcd02815260040161067d90614303565b3360009081526007602090815260408083205483526006825280832060ff891684526002810190925291829020915160e060020a63d080be4f02815290945073__stringSet_____________________________9163d080be4f91612721916001019088906004016143ec565b60206040518083038186803b15801561273957600080fd5b505af415801561274d573d6000803e3d6000fd5b505050506040513d601f19601f8201168201806040525061277191908101906138dc565b15156127925760405160e560020a62461bcd02815260040161067d90614353565b60ff851660009081526002840160205260409081902090517f9b71f01000000000000000000000000000000000000000000000000000000000815273__stringSet_____________________________91639b71f010916127fb916001019088906004016143ec565b60006040518083038186803b15801561281357600080fd5b505af4158015612827573d6000803e3d6000fd5b505050508260020160008660ff1660ff168152602001908152602001600020600001846040518082805190602001908083835b602083106128795780518252601f19909201916020918201910161285a565b51815160209384036101000a60001901801990921691161790529201948552506040805194859003820185206000808255600191820181905560ff8c16815260028a0190935291207ff0bb04e600000000000000000000000000000000000000000000000000000000855273__stringSet_____________________________9463f0bb04e6945061291193509101906004016143de565b60206040518083038186803b15801561292957600080fd5b505af415801561293d573d6000803e3d6000fd5b505050506040513d601f19601f82011682018060405250612961919081019061394d565b15156129ed576040517f07a929ec00000000000000000000000000000000000000000000000000000000815273__uint8Set______________________________906307a929ec906129bc906003870190899060040161442c565b60006040518083038186803b1580156129d457600080fd5b505af41580156129e8573d6000803e3d6000fd5b505050505b5050505050565b600080606081808080338180612a0983611e85565b151514612a2b5760405160e560020a62461bcd02815260040161067d90614363565b6008546040517f69c212f6000000000000000000000000000000000000000000000000000000008152600160a060020a03909116985088906369c212f690612a779033906004016141bc565b600060405180830381600087803b158015612a9157600080fd5b505af1158015612aa5573d6000803e3d6000fd5b505050506040513d6000823e601f3d908101601f19168201604052612acd91908101906138fa565b6005805460018082019092556000818152600660209081526040909120805473ffffffffffffffffffffffffffffffffffffffff1916331781558451949b50919950909750612b239291880191908a01906132d0565b505b60068460ff161015612db25760008b60ff861660068110612b4257fe5b602002015114612da7578a60ff851660068110612b5b57fe5b602090810291909101516000808052600288019092526040909120600c60ff871660068110612b8657fe5b016040518082805460018160011615610100020316600290048015612be25780601f10612bc0576101008083540402835291820191612be2565b820191906000526020600020905b815481529060010190602001808311612bce575b50509283525050604080516020928190038301902092909255600080805260028801909152204390600c60ff871660068110612c1a57fe5b016040518082805460018160011615610100020316600290048015612c765780601f10612c54576101008083540402835291820191612c76565b820191906000526020600020905b815481529060010190602001808311612c62575b505092835250506040805160209281900383019020600190810193909355600080805260028901909252902073__stringSet_____________________________9163ea486c539101600c60ff881660068110612ccf57fe5b016040518363ffffffff1660e060020a028152600401612cf092919061440c565b60006040518083038186803b158015612d0857600080fd5b505af4158015612d1c573d6000803e3d6000fd5b50506040517f3d61036200000000000000000000000000000000000000000000000000000000815273__uint8Set______________________________9250633d6103629150612d7690600389019060009060040161442c565b60006040518083038186803b158015612d8e57600080fd5b505af4158015612da2573d6000803e3d6000fd5b505050505b600190930192612b25565b60038360ff1610156130435760008a60ff851660038110612dcf57fe5b602002015114613038578960ff841660038110612de857fe5b6020908102919091015160016000908152600288019092526040909120601260ff861660038110612e1557fe5b016040518082805460018160011615610100020316600290048015612e715780601f10612e4f576101008083540402835291820191612e71565b820191906000526020600020905b815481529060010190602001808311612e5d575b505092835250506040805160209281900383019020929092556001600090815260028801909152204390601260ff861660038110612eab57fe5b016040518082805460018160011615610100020316600290048015612f075780601f10612ee5576101008083540402835291820191612f07565b820191906000526020600020905b815481529060010190602001808311612ef3575b505092835250506040805160209281900383019020600190810193909355600083815260028901909252902073__stringSet_____________________________9163ea486c539101601260ff871660038110612f6057fe5b016040518363ffffffff1660e060020a028152600401612f8192919061440c565b60006040518083038186803b158015612f9957600080fd5b505af4158015612fad573d6000803e3d6000fd5b50506040517f3d61036200000000000000000000000000000000000000000000000000000000815273__uint8Set______________________________9250633d610362915061300790600389019060019060040161442c565b60006040518083038186803b15801561301f57600080fd5b505af4158015613033573d6000803e3d6000fd5b505050505b600190920191612db2565b3360008181526007602052604090819020889055517fa9083d86449ec8010364467bd0e3f4ec5d810f2f094659fee35706af9fef52dd9161308691899190614455565b60405180910390a150939998505050505050505050565b60045481565b60006130ae82611e85565b15156130b957600080fd5b50600160a060020a031660009081526007602052604090205490565b600054600160a060020a031633146130ec57600080fd5b600160a060020a038116151561310157600080fd5b60008054604051600160a060020a03808516939216917f8be0079c531659141344cd1fd0a4f28419497f9722a3daafe3b4186f6b6457e091a36000805473ffffffffffffffffffffffffffffffffffffffff1916600160a060020a0392909216919091179055565b60016020526000908152604090205481565b60008282111561318757fe5b508082035b92915050565b600160a060020a0382163014156131be5760405160e560020a62461bcd02815260040161067d906142f3565b600081116131cb57600080fd5b600160a060020a0383166000908152600160205260409020548111156132065760405160e560020a62461bcd02815260040161067d90614393565b600160a060020a03831660009081526001602052604090205461322f908263ffffffff61317b16565b600160a060020a038085166000908152600160205260408082209390935590841681522054613264908263ffffffff6132c316565b600160a060020a0380841660008181526001602052604090819020939093559151908516907f9bd188aec8668fb7fd04179a5e2e425c7eae69ad3b0fcbe6d8aee4543ba961d3906132b6908590614447565b60405180910390a3505050565b8181018281101561318c57fe5b828054600181600116156101000203166002900490600052602060002090601f016020900481019282601f1061331157805160ff191683800117855561333e565b8280016001018555821561333e579182015b8281111561333e578251825591602001919060010190613323565b5061334a92915061334e565b5090565b61336891905b8082111561334a5760008155600101613354565b90565b60006133778235614507565b9392505050565b6000601f8201831361338f57600080fd5b81356133a261339d8261448a565b614463565b915081818352602084019350602081019050838560208402820111156133c757600080fd5b60005b838110156133f357816133dd888261336b565b84525060209283019291909101906001016133ca565b5050505092915050565b6000601f8201831361340e57600080fd5b600361341c61339d826144ab565b9150818385602084028201111561343257600080fd5b60005b838110156133f357816134488882613608565b8452506020928301929190910190600101613435565b6000601f8201831361346f57600080fd5b600661347d61339d826144ab565b9150818385602084028201111561349357600080fd5b60005b838110156133f357816134a98882613608565b8452506020928301929190910190600101613496565b6000601f820183136134d057600080fd5b81356134de61339d8261448a565b9150818183526020840193506020810190508385602084028201111561350357600080fd5b60005b838110156133f357816135198882613608565b8452506020928301929190910190600101613506565b6000601f8201831361354057600080fd5b813561354e61339d8261448a565b81815260209384019390925082018360005b838110156133f357813586016135768882613614565b8452506020928301929190910190600101613560565b6000601f8201831361359d57600080fd5b81356135ab61339d8261448a565b915081818352602084019350602081019050838560208402820111156135d057600080fd5b60005b838110156133f357816135e68882613608565b84525060209283019291909101906001016135d3565b60006133778251614513565b60006133778235613368565b6000601f8201831361362557600080fd5b813561363361339d826144c9565b9150808252602083016020830185838301111561364f57600080fd5b61365a83828461451e565b50505092915050565b6000601f8201831361367457600080fd5b815161368261339d826144c9565b9150808252602083016020830185838301111561369e57600080fd5b61365a83828461452a565b60006133778251613368565b60006133778235614518565b6000602082840312156136d357600080fd5b60006136df848461336b565b949350505050565b600080604083850312156136fa57600080fd5b6000613706858561336b565b92505060206137178582860161336b565b9150509250929050565b60008060006060848603121561373657600080fd5b6000613742868661336b565b93505060206137538682870161336b565b925050604061376486828701613608565b9150509250925092565b6000806040838503121561378157600080fd5b600061378d858561336b565b925050602061371785828601613608565b600080600080608085870312156137b457600080fd5b60006137c0878761336b565b94505060206137d187828801613608565b93505060406137e28782880161336b565b925050606085013567ffffffffffffffff8111156137ff57600080fd5b61380b87828801613614565b91505092959194509250565b60006020828403121561382957600080fd5b813567ffffffffffffffff81111561384057600080fd5b6136df8482850161337e565b6000806040838503121561385f57600080fd5b823567ffffffffffffffff81111561387657600080fd5b6138828582860161337e565b925050602083013567ffffffffffffffff81111561389f57600080fd5b6137178582860161358c565b60008061012083850312156138bf57600080fd5b60006138cb858561345e565b92505060c0613717858286016133fd565b6000602082840312156138ee57600080fd5b60006136df84846135fc565b60006020828403121561390c57600080fd5b815167ffffffffffffffff81111561392357600080fd5b6136df84828501613663565b60006020828403121561394157600080fd5b60006136df8484613608565b60006020828403121561395f57600080fd5b60006136df84846136a9565b6000806040838503121561397e57600080fd5b60006137068585613608565b6000806040838503121561399d57600080fd5b60006139a98585613608565b9250506020613717858286016136b5565b6000806000606084860312156139cf57600080fd5b60006139db8686613608565b93505060206139ec868287016136b5565b925050604084013567ffffffffffffffff811115613a0957600080fd5b61376486828701613614565b600060208284031215613a2757600080fd5b60006136df84846136b5565b600080600060608486031215613a4857600080fd5b6000613a5486866136b5565b935050602084013567ffffffffffffffff811115613a7157600080fd5b613a7d8682870161352f565b925050604084013567ffffffffffffffff811115613a9a57600080fd5b613764868287016134bf565b60008060408385031215613ab957600080fd5b6000613ac585856136b5565b925050602083013567ffffffffffffffff811115613ae257600080fd5b61371785828601613614565b600080600060608486031215613b0357600080fd5b6000613b0f86866136b5565b935050602084013567ffffffffffffffff811115613b2c57600080fd5b61375386828701613614565b613b4181614507565b82525050565b6000613b5282614503565b808452602084019350613b64836144f1565b60005b82811015613b9457613b7a868351613b38565b613b83826144f1565b602096909601959150600101613b67565b5093949350505050565b6000613ba982614503565b80845260208401935083602082028501613bc2856144f1565b60005b84811015613bf9578383038852613bdd838351613cb1565b9250613be8826144f1565b602098909801979150600101613bc5565b50909695505050505050565b6000613c1082614503565b808452602084019350613c22836144f1565b60005b82811015613b9457613c38868351613ca8565b613c41826144f1565b602096909601959150600101613c25565b6000613c5d82614503565b808452602084019350613c6f836144f1565b60005b82811015613b9457613c858683516141b3565b613c8e826144f1565b602096909601959150600101613c72565b613b4181614513565b613b4181613368565b6000613cbc82614503565b808452613cd081602086016020860161452a565b613cd981614556565b9093016020019392505050565b600081546001811660008114613d035760018114613d2157610896565b60028204607f16855260ff1982166020860152604085019250610896565b60028204808652602086019550613d37856144f7565b60005b82811015613d5657815488820152600190910190602001613d3a565b9096019695505050505050565b603281527f596f75722063616e6e6f74207769746864726177206d6f7265207468616e207960208201527f6f752068617665206465706f73697465642e0000000000000000000000000000604082015260600190565b601181527f4d616c666f726d656420696e707574732e000000000000000000000000000000602082015260400190565b603b81527f5468697320636f6e74726163742063616e6e6f7420686f6c6420746f6b656e2060208201527f62616c616e636573206f6e20697473206f776e20626568616c662e0000000000604082015260600190565b600e81527f496e76616c6964206669656c642e000000000000000000000000000000000000602082015260400190565b601481527f456e74727920616c726561647920657869737473000000000000000000000000602082015260400190565b602d81527f5468697320736e6f77666c616b652068617320616c726561647920736574207460208201527f686973207265736f6c7665722e00000000000000000000000000000000000000604082015260600190565b602b81527f54686520676976656e207265736f6c766572206973206e6f74206f6e2074686560208201527f2077686974656c6973742e000000000000000000000000000000000000000000604082015260600190565b602881527f5468697320736e6f77666c616b6520686173206e6f742073657420746869732060208201527f7265736f6c766572000000000000000000000000000000000000000000000000604082015260600190565b601481527f456e74727920646f6573206e6f74206578697374000000000000000000000000602082015260400190565b603281527f546865207472616e73616374696f6e2073656e64657220686173206e6f74206d60208201527f696e746564206120536e6f77666c616b652e0000000000000000000000000000604082015260600190565b601081527f46656520697320746f6f20686967682e00000000000000000000000000000000602082015260400190565b602281527f5265736f6c7665722068617320696e616465717561746520616c6c6f77616e6360208201527f652e000000000000000000000000000000000000000000000000000000000000604082015260600190565b603081527f596f75722062616c616e636520697320746f6f206c6f7720746f207472616e7360208201527f666572207468697320616d6f756e742e00000000000000000000000000000000604082015260600190565b603781527f54686973207265736f6c76657220686173206e6f74206265656e20736574206260208201527f79207468652066726f6d20746f6b656e686f6c6465722e000000000000000000604082015260600190565b602381527f5468697320746f6b656e20686173206e6f7420796574206265656e206d696e7460208201527f65642e0000000000000000000000000000000000000000000000000000000000604082015260600190565b9052565b613b4181614518565b6020810161318c8284613b38565b606081016141d88286613b38565b6141e56020830185613b38565b6136df6040830184613ca8565b608081016142008287613b38565b81810360208301526142128186613cb1565b905081810360408301526142268185613c52565b9050818103606083015261076e8184613b47565b604081016142488285613b38565b6133776020830184613ca8565b606081016142638286613b38565b6141e56020830185613ca8565b602080825281016133778184613b47565b604080825281016142928185613b47565b905081810360208301526136df8184613c05565b602080825281016133778184613b9e565b6020810161318c8284613c9f565b604081016142488285613ca8565b6020808252810161318c81613d63565b6020808252810161318c81613db9565b6020808252810161318c81613de9565b6020808252810161318c81613e3f565b6020808252810161318c81613e6f565b6020808252810161318c81613e9f565b6020808252810161318c81613ef5565b6020808252810161318c81613f4b565b6020808252810161318c81613fa1565b6020808252810161318c81613fd1565b6020808252810161318c81614027565b6020808252810161318c81614057565b6020808252810161318c816140ad565b6020808252810161318c81614103565b6020808252810161318c81614159565b604081016143d182856141af565b6133776020830184613b38565b6020810161318c82846141af565b604081016143fa82856141af565b81810360208301526136df8184613cb1565b6040810161441a82856141af565b81810360208301526136df8184613ce6565b6040810161443a82856141af565b61337760208301846141b3565b6020810161318c8284613ca8565b604081016143d18285613ca8565b60405181810167ffffffffffffffff8111828210171561448257600080fd5b604052919050565b600067ffffffffffffffff8211156144a157600080fd5b5060209081020190565b600067ffffffffffffffff8211156144c257600080fd5b5060200290565b600067ffffffffffffffff8211156144e057600080fd5b506020601f91909101601f19160190565b60200190565b60009081526020902090565b5190565b600160a060020a031690565b151590565b60ff1690565b82818337506000910152565b60005b8381101561454557818101518382015260200161452d565b83811115611f135750506000910152565b601f01601f1916905600a265627a7a723058208adad41f7ba8e147e1e8dd37d5c95365866746ed92e167f726cc78f4c1bb47196c6578706572696d656e74616cf50037",
  "source": "pragma solidity ^0.4.24;\npragma experimental ABIEncoderV2;\n\nimport \"./zeppelin/ownership/Ownable.sol\";\nimport \"./zeppelin/token/ERC20/ERC20.sol\";\nimport \"./zeppelin/math/SafeMath.sol\";\n\nimport \"./libraries/uint8Set.sol\";\nimport \"./libraries/stringSet.sol\";\nimport \"./libraries/addressSet.sol\";\n\n\ninterface ClientRaindrop {\n    function getUserByAddress(address _address) external view returns (string userName);\n}\n\n\ncontract Snowflake is Ownable {\n    using SafeMath for uint;\n    using uint8Set for uint8Set._uint8Set;\n    using stringSet for stringSet._stringSet;\n    using addressSet for addressSet._addressSet;\n\n    // hydro token wrapper variables\n    mapping (address => uint) public deposits;\n\n    // resolver list\n    addressSet._addressSet internal resolverWhitelist;\n    uint public resolverWhitelistFee;\n\n    // Token lookup mappings\n    uint public nextTokenId = 1;\n    mapping (uint => Identity) internal tokenDirectory;\n    mapping (address => uint) public ownerToToken;\n\n    // contract variables\n    address public clientRaindropAddress;\n    address public hydroTokenAddress;\n\n    stringSet._stringSet allowedNames;\n    string[6] nameOrder = [\"prefix\", \"givenName\", \"middleName\", \"surname\", \"suffix\", \"preferredName\"];\n    string[3] dateOrder = [\"day\", \"month\", \"year\"];\n\n    struct Identity {\n        address owner;\n        string hydroId;\n        mapping (uint8 => SnowflakeField) fields; // mapping of AllowedSnowflakeFields to SnowflakeFields\n        uint8Set._uint8Set fieldsAttestedTo;\n        mapping(address => Resolver) resolvers;\n        addressSet._addressSet resolversFor; // optional, set of third-party resolvers\n    }\n\n    struct SnowflakeField {\n        mapping (string => Entry) entries; // required, mapping of entry names to encrypted plaintext data.\n        stringSet._stringSet entriesAttestedTo; // required, entry names that the user has attested to\n    }\n\n    struct Entry {\n        bytes32 saltedHash; // data should be encoded as: keccak256(abi.encodePacked(data, salt))\n        uint blockNumber;\n    }\n\n    struct Resolver {\n        uint withdrawAllowance; // optional, allows resolvers to programatically extract hydro from users\n    }\n\n    enum AllowedSnowflakeFields { Name, DateOfBirth, Emails, PhoneNumbers, PhysicalAddresses }\n    mapping (uint8 => bool) public allowedFields;\n\n    constructor () public {\n        // initialize allowed snowflake fields\n        allowedFields[uint8(AllowedSnowflakeFields.Name)] = true;\n        allowedFields[uint8(AllowedSnowflakeFields.Emails)] = true;\n        allowedFields[uint8(AllowedSnowflakeFields.PhoneNumbers)] = true;\n        allowedFields[uint8(AllowedSnowflakeFields.PhysicalAddresses)] = true;\n        // initialize allowed entries in name\n        for (uint i; i < nameOrder.length; i++) {\n            allowedNames.insert(nameOrder[i]);\n        }\n    }\n\n    // enforces that the transaction sender has a token\n    modifier _hasToken(address _address, bool check) {\n        require(hasToken(_address) == check, \"The transaction sender has not minted a Snowflake.\");\n        _;\n    }\n\n    // checks whether the given address has a token\n    function hasToken(address _address) public view returns (bool) {\n        return ownerToToken[_address] != 0;\n    }\n\n    // enforces that the given tokenId exists\n    modifier _tokenExists(uint tokenId) {\n        require(tokenExists(tokenId), \"This token has not yet been minted.\");\n        _;\n    }\n\n    // checks whether the given tokenId exists\n    function tokenExists(uint tokenId) public view returns (bool) {\n        return tokenDirectory[tokenId].owner != address(0);\n    }\n    \n    // wrapper to ownerToToken that throws if the address doesn't own a token\n    function getTokenId(address _address) public view returns (uint tokenId) {\n        require(hasToken(_address));\n        return ownerToToken[_address];\n    }\n\n    // set the fee to become a resolver\n    function setResolverWhitelistFee(uint fee) public onlyOwner {\n        ERC20 hydro = ERC20(hydroTokenAddress);\n        require(fee <= (hydro.totalSupply() / 100 / 10), \"Fee is too high.\");\n        resolverWhitelistFee = fee;\n    }\n\n    // allows whitelisting of resolvers\n    function whitelistResolver(address resolver) public {\n        transferSnowflakeBalance(owner, resolverWhitelistFee);\n        resolverWhitelist.insert(resolver);\n        emit ResolverWhitelisted(resolver, msg.sender);\n    }\n\n    // set the raindrop and hydro token addresses\n    function setAddresses(address clientRaindrop, address hydroToken) public onlyOwner {\n        clientRaindropAddress = clientRaindrop;\n        hydroTokenAddress = hydroToken;\n    }\n\n    // token minter\n    function mintIdentityToken(bytes32[6] names, bytes32[3] dateOfBirth) public _hasToken(msg.sender, false)\n        returns(uint tokenId)\n    {\n        ClientRaindrop clientRaindrop = ClientRaindrop(clientRaindropAddress);\n        string memory _hydroId = clientRaindrop.getUserByAddress(msg.sender);\n\n        uint newTokenId = nextTokenId++;\n        Identity storage identity = tokenDirectory[newTokenId];\n\n        identity.owner = msg.sender;\n        identity.hydroId = _hydroId;\n\n        for (uint8 i; i < names.length; i++) {\n            if (names[i] != bytes32(0x0)) {\n                identity.fields[uint8(AllowedSnowflakeFields.Name)].entries[nameOrder[i]].saltedHash = names[i];\n                identity.fields[uint8(AllowedSnowflakeFields.Name)].entries[nameOrder[i]].blockNumber = block.number;\n                identity.fields[uint8(AllowedSnowflakeFields.Name)].entriesAttestedTo.insert(nameOrder[i]);\n                // putting this here creates some unnecessary checks, but it catches the case when all elements are 0x0\n                identity.fieldsAttestedTo.insert(uint8(AllowedSnowflakeFields.Name));\n            }\n        }\n\n        for (uint8 j; j < dateOfBirth.length; j++) {\n            if (dateOfBirth[j] != bytes32(0x0)) {\n                identity.fields[uint8(AllowedSnowflakeFields.DateOfBirth)]\n                    .entries[dateOrder[j]].saltedHash = dateOfBirth[j];\n                identity.fields[uint8(AllowedSnowflakeFields.DateOfBirth)]\n                    .entries[dateOrder[j]].blockNumber = block.number;\n                identity.fields[uint8(AllowedSnowflakeFields.DateOfBirth)].entriesAttestedTo.insert(dateOrder[j]);\n                // putting this here creates some unnecessary checks, but it catches the case when all elements are 0x0\n                identity.fieldsAttestedTo.insert(uint8(AllowedSnowflakeFields.DateOfBirth));\n            }\n        }\n\n        ownerToToken[msg.sender] = newTokenId;\n\n        emit SnowflakeMinted(newTokenId, msg.sender);\n\n        return newTokenId;\n    }\n\n    // wrappers that allow easy access to modify resolvers\n    function addResolvers(address[] resolvers, uint[] withdrawAllowances) public _hasToken(msg.sender, true) {\n        require(resolvers.length == withdrawAllowances.length, \"Malformed inputs.\");\n\n        Identity storage identity = tokenDirectory[ownerToToken[msg.sender]];\n\n        for (uint i; i < resolvers.length; i++) {\n            require(resolverWhitelist.contains(resolvers[i]), \"The given resolver is not on the whitelist.\");\n            require(!identity.resolversFor.contains(resolvers[i]), \"This snowflake has already set this resolver.\");\n            identity.resolversFor.insert(resolvers[i]);\n            identity.resolvers[resolvers[i]].withdrawAllowance = withdrawAllowances[i];\n        }\n\n        emit ResolversAdded(ownerToToken[msg.sender], resolvers, withdrawAllowances);\n    }\n\n    function changeResolverAllowances(address[] resolvers, uint[] withdrawAllowances)\n        public _hasToken(msg.sender, true)\n    {\n        require(resolvers.length == withdrawAllowances.length, \"Malformed inputs.\");\n\n        Identity storage identity = tokenDirectory[ownerToToken[msg.sender]];\n\n        for (uint i; i < resolvers.length; i++) {\n            require(identity.resolversFor.contains(resolvers[i]), \"This snowflake has not set this resolver\");\n            identity.resolvers[resolvers[i]].withdrawAllowance = withdrawAllowances[i];\n        }\n\n        emit ResolversAllowanceChanged(ownerToToken[msg.sender], resolvers, withdrawAllowances);\n    }\n\n    function removeResolvers(address[] resolvers) public _hasToken(msg.sender, true) {\n        Identity storage identity = tokenDirectory[ownerToToken[msg.sender]];\n\n        for (uint i; i < resolvers.length; i++) {\n            require(identity.resolversFor.contains(resolvers[i]), \"This snowflake has not set this resolver\");\n            identity.resolversFor.remove(resolvers[i]);\n            delete identity.resolvers[resolvers[i]];\n        }\n\n        emit ResolversRemoved(ownerToToken[msg.sender], resolvers);\n    }\n\n    // modify field entries\n    function addFieldEntries(uint8 field, string[] entries, bytes32[] saltedHashes) public {\n        require(entries.length == saltedHashes.length, \"Malformed inputs.\");\n        for (uint i; i < entries.length; i++) {\n            addFieldEntry(field, entries[i], saltedHashes[i]);\n        }\n    }\n\n    function addFieldEntry(uint8 field, string entry, bytes32 saltedHash) public _hasToken(msg.sender, true) {\n        require(allowedFields[field], \"Invalid field.\");\n        if (field == uint8(AllowedSnowflakeFields.Name)) {\n            require(allowedNames.contains(entry));\n        }\n\n        Identity storage identity = tokenDirectory[ownerToToken[msg.sender]];\n        require(!identity.fields[field].entriesAttestedTo.contains(entry), \"Entry already exists\");\n\n        identity.fields[field].entriesAttestedTo.insert(entry);\n        identity.fields[field].entries[entry].saltedHash = saltedHash;\n        identity.fields[field].entries[entry].blockNumber = block.number;\n\n        identity.fieldsAttestedTo.insert(field);\n    }\n\n    function changeFieldEntry(uint8 field, string entry, bytes32 saltedHash) public _hasToken(msg.sender, true) {\n        require(allowedFields[field], \"Invalid field.\");\n\n        Identity storage identity = tokenDirectory[ownerToToken[msg.sender]];\n        require(identity.fields[field].entriesAttestedTo.contains(entry), \"Entry does not exist\");\n        require(identity.fields[field].entries[entry].saltedHash != saltedHash);\n\n        identity.fields[field].entries[entry].saltedHash = saltedHash;\n        identity.fields[field].entries[entry].blockNumber = block.number;\n    }\n\n    function removeFieldEntry(uint8 field, string entry) public _hasToken(msg.sender, true) {\n        require(allowedFields[field], \"Invalid field.\");\n\n        Identity storage identity = tokenDirectory[ownerToToken[msg.sender]];\n        require(identity.fields[field].entriesAttestedTo.contains(entry), \"Entry does not exist\");\n\n        identity.fields[field].entriesAttestedTo.remove(entry);\n        delete identity.fields[field].entries[entry];\n        if (identity.fields[field].entriesAttestedTo.length() == 0) {\n            identity.fieldsAttestedTo.remove(field);\n        }\n    }\n\n    // check resolver membership\n    function hasResolver(uint tokenId, address resolver) public view _tokenExists(tokenId) returns (bool) {\n        Identity storage identity = tokenDirectory[tokenId];\n        return identity.resolversFor.contains(resolver);\n    }\n\n    // functions to check attestations\n    function hasAttested(uint tokenId, uint8 field) public view _tokenExists(tokenId) returns (bool) {\n        require(allowedFields[field], \"Invalid field.\");\n        Identity storage identity = tokenDirectory[tokenId];\n        return identity.fieldsAttestedTo.contains(field);\n    }\n\n    function hasAttested(uint tokenId, uint8 field, string entry) public view _tokenExists(tokenId) returns (bool) {\n        require(allowedFields[field], \"Invalid field.\");\n        Identity storage identity = tokenDirectory[tokenId];\n        return identity.fields[field].entriesAttestedTo.contains(entry);\n    }\n\n    // functions to read token values\n    function getDetails(uint tokenId) public view _tokenExists(tokenId) returns (\n        address owner,\n        string hydroId,\n        uint8[] fieldsAttestedTo,\n        address[] resolversFor\n    ) {\n        Identity storage identity = tokenDirectory[tokenId];\n        return (\n            identity.owner,\n            identity.hydroId,\n            identity.fieldsAttestedTo.members,\n            identity.resolversFor.members\n        );\n    }\n\n    function getDetails(uint tokenId, address resolver) public view _tokenExists(tokenId)\n        returns (uint withdrawAllowance)\n    {\n        Identity storage identity = tokenDirectory[tokenId];\n        require(identity.resolversFor.contains(resolver));\n\n        return identity.resolvers[resolver].withdrawAllowance;\n    }\n\n    function getDetails(uint tokenId, uint8 field) public view _tokenExists(tokenId) returns (\n        string[] entriesAttestedTo\n    ) {\n        Identity storage identity = tokenDirectory[tokenId];\n        require(identity.fieldsAttestedTo.contains(field));\n\n        return identity.fields[field].entriesAttestedTo.members;\n    }\n\n    function getDetails(uint tokenId, uint8 field, string entry) public view _tokenExists(tokenId) returns (\n        bytes32 saltedHash,\n        uint blockNumber\n    ) {\n        Identity storage identity = tokenDirectory[tokenId];\n        require(identity.fieldsAttestedTo.contains(field));\n        require(identity.fields[field].entriesAttestedTo.contains(entry));\n\n        return (identity.fields[field].entries[entry].saltedHash, identity.fields[field].entries[entry].blockNumber);\n    }\n\n    // functions that enable HYDRO functionality\n    function receiveApproval(address _sender, uint amount, address _tokenAddress, bytes) public {\n        require(msg.sender == _tokenAddress);\n        require(_tokenAddress == hydroTokenAddress);\n        ERC20 hydro = ERC20(_tokenAddress);\n        require(hydro.transferFrom(_sender, address(this), amount));\n        deposits[_sender] = deposits[_sender].add(amount);\n        emit SnowflakeDeposit(_sender, amount);\n    }\n\n    function transferSnowflakeBalance(address to, uint amount) public {\n        _transferSnowflakeBalance(msg.sender, to, amount);\n    }\n\n    function withdrawSnowflakeBalance(uint amount) public {\n        require(amount > 0);\n        require(deposits[msg.sender] >= amount, \"Your cannot withdraw more than you have deposited.\");\n        deposits[msg.sender] = deposits[msg.sender].sub(amount);\n        ERC20 hydro = ERC20(hydroTokenAddress);\n        require(hydro.transfer(msg.sender, amount));\n        emit SnowflakeWithdraw(msg.sender, amount);\n    }\n\n    // only callable from resolvers with withdraw allowances\n    function transferOnBehalfOf(address from, address to, uint amount) public _hasToken(from, true) {\n        Identity storage identity = tokenDirectory[ownerToToken[from]];\n        require(identity.resolversFor.contains(msg.sender), \"This resolver has not been set by the from tokenholder.\");\n        \n        if (identity.resolvers[msg.sender].withdrawAllowance < amount) {\n            emit InsufficientAllowance(\n                ownerToToken[from], msg.sender, identity.resolvers[msg.sender].withdrawAllowance, amount\n            );\n            require(false, \"Resolver has inadequate allowance.\");\n        }\n\n        identity.resolvers[msg.sender].withdrawAllowance = identity.resolvers[msg.sender].withdrawAllowance.sub(amount);\n        _transferSnowflakeBalance(from, to,  amount);\n    }\n\n    function _transferSnowflakeBalance(address from, address to, uint amount) internal {\n        require(to != address(this), \"This contract cannot hold token balances on its own behalf.\");\n        require(amount > 0);\n        require(deposits[from] >= amount, \"Your balance is too low to transfer this amount.\");\n        deposits[from] = deposits[from].sub(amount);\n        deposits[to] = deposits[to].add(amount);\n        emit SnowflakeTransfer(from, to, amount);\n    }\n\n    // events\n    event SnowflakeDeposit(address indexed depositor, uint amount);\n    event SnowflakeTransfer(address indexed from, address indexed to, uint amount);\n    event SnowflakeWithdraw(address indexed depositor, uint amount);\n\n    event SnowflakeMinted(uint tokenId, address minter);\n\n    event ResolverWhitelisted(address indexed resolver, address sponsor);\n\n    event ResolversAdded(uint indexed tokenId, address[] resolvers, uint[] withdrawAllowances);\n    event ResolversAllowanceChanged(uint indexed tokenId, address[] resolvers, uint[] withdrawAllowances);\n    event ResolversRemoved(uint indexed tokenId, address[] resolvers);\n\n    event InsufficientAllowance(uint indexed tokenId, address resolver, uint currentAllowance, uint requestedWithdraw);\n}",
  "sourcePath": "/Users/noahzinsmeister/Documents/github/smart-contracts/snowflake/contracts/Snowflake.sol",
  "compiler": {
    "name": "solc",
    "version": "0.4.24+commit.e67f0147.Emscripten.clang"
  },
  "schemaVersion": "2.0.0",
  "updatedAt": "2018-06-26T20:50:46.617Z"
}