{
  "contractName": "Snowflake",
  "abi": [
    {
      "constant": true,
      "inputs": [
        {
          "name": "",
          "type": "address"
        }
      ],
      "name": "ownerToToken",
      "outputs": [
        {
          "name": "",
          "type": "uint256"
        }
      ],
      "payable": false,
      "stateMutability": "view",
      "type": "function"
    },
    {
      "constant": true,
      "inputs": [],
      "name": "clientRaindropAddress",
      "outputs": [
        {
          "name": "",
          "type": "address"
        }
      ],
      "payable": false,
      "stateMutability": "view",
      "type": "function"
    },
    {
      "constant": true,
      "inputs": [],
      "name": "nextTokenId",
      "outputs": [
        {
          "name": "",
          "type": "uint256"
        }
      ],
      "payable": false,
      "stateMutability": "view",
      "type": "function"
    },
    {
      "constant": true,
      "inputs": [],
      "name": "hydroTokenAddress",
      "outputs": [
        {
          "name": "",
          "type": "address"
        }
      ],
      "payable": false,
      "stateMutability": "view",
      "type": "function"
    },
    {
      "constant": true,
      "inputs": [],
      "name": "owner",
      "outputs": [
        {
          "name": "",
          "type": "address"
        }
      ],
      "payable": false,
      "stateMutability": "view",
      "type": "function"
    },
    {
      "constant": true,
      "inputs": [],
      "name": "resolverWhitelistFee",
      "outputs": [
        {
          "name": "",
          "type": "uint256"
        }
      ],
      "payable": false,
      "stateMutability": "view",
      "type": "function"
    },
    {
      "constant": false,
      "inputs": [
        {
          "name": "newOwner",
          "type": "address"
        }
      ],
      "name": "transferOwnership",
      "outputs": [],
      "payable": false,
      "stateMutability": "nonpayable",
      "type": "function"
    },
    {
      "constant": true,
      "inputs": [
        {
          "name": "",
          "type": "address"
        }
      ],
      "name": "deposits",
      "outputs": [
        {
          "name": "",
          "type": "uint256"
        }
      ],
      "payable": false,
      "stateMutability": "view",
      "type": "function"
    },
    {
      "inputs": [],
      "payable": false,
      "stateMutability": "nonpayable",
      "type": "constructor"
    },
    {
      "anonymous": false,
      "inputs": [
        {
          "indexed": true,
          "name": "depositor",
          "type": "address"
        },
        {
          "indexed": false,
          "name": "amount",
          "type": "uint256"
        }
      ],
      "name": "SnowflakeDeposit",
      "type": "event"
    },
    {
      "anonymous": false,
      "inputs": [
        {
          "indexed": true,
          "name": "from",
          "type": "address"
        },
        {
          "indexed": true,
          "name": "to",
          "type": "address"
        },
        {
          "indexed": false,
          "name": "amount",
          "type": "uint256"
        }
      ],
      "name": "SnowflakeTransfer",
      "type": "event"
    },
    {
      "anonymous": false,
      "inputs": [
        {
          "indexed": true,
          "name": "depositor",
          "type": "address"
        },
        {
          "indexed": false,
          "name": "amount",
          "type": "uint256"
        }
      ],
      "name": "SnowflakeWithdraw",
      "type": "event"
    },
    {
      "anonymous": false,
      "inputs": [
        {
          "indexed": false,
          "name": "tokenId",
          "type": "uint256"
        },
        {
          "indexed": false,
          "name": "minter",
          "type": "address"
        }
      ],
      "name": "SnowflakeMinted",
      "type": "event"
    },
    {
      "anonymous": false,
      "inputs": [
        {
          "indexed": true,
          "name": "resolver",
          "type": "address"
        },
        {
          "indexed": false,
          "name": "sponsor",
          "type": "address"
        }
      ],
      "name": "ResolverWhitelisted",
      "type": "event"
    },
    {
      "anonymous": false,
      "inputs": [
        {
          "indexed": true,
          "name": "tokenId",
          "type": "uint256"
        },
        {
          "indexed": false,
          "name": "resolvers",
          "type": "address[]"
        },
        {
          "indexed": false,
          "name": "withdrawAllowances",
          "type": "uint256[]"
        }
      ],
      "name": "ResolversAdded",
      "type": "event"
    },
    {
      "anonymous": false,
      "inputs": [
        {
          "indexed": true,
          "name": "tokenId",
          "type": "uint256"
        },
        {
          "indexed": false,
          "name": "resolvers",
          "type": "address[]"
        },
        {
          "indexed": false,
          "name": "withdrawAllowances",
          "type": "uint256[]"
        }
      ],
      "name": "ResolversAllowanceChanged",
      "type": "event"
    },
    {
      "anonymous": false,
      "inputs": [
        {
          "indexed": true,
          "name": "tokenId",
          "type": "uint256"
        },
        {
          "indexed": false,
          "name": "resolvers",
          "type": "address[]"
        }
      ],
      "name": "ResolversRemoved",
      "type": "event"
    },
    {
      "anonymous": false,
      "inputs": [
        {
          "indexed": true,
          "name": "tokenId",
          "type": "uint256"
        },
        {
          "indexed": false,
          "name": "resolver",
          "type": "address"
        },
        {
          "indexed": false,
          "name": "currentAllowance",
          "type": "uint256"
        },
        {
          "indexed": false,
          "name": "requestedWithdraw",
          "type": "uint256"
        }
      ],
      "name": "InsufficientAllowance",
      "type": "event"
    },
    {
      "anonymous": false,
      "inputs": [
        {
          "indexed": true,
          "name": "previousOwner",
          "type": "address"
        },
        {
          "indexed": true,
          "name": "newOwner",
          "type": "address"
        }
      ],
      "name": "OwnershipTransferred",
      "type": "event"
    },
    {
      "constant": true,
      "inputs": [
        {
          "name": "_address",
          "type": "address"
        }
      ],
      "name": "hasToken",
      "outputs": [
        {
          "name": "",
          "type": "bool"
        }
      ],
      "payable": false,
      "stateMutability": "view",
      "type": "function"
    },
    {
      "constant": true,
      "inputs": [
        {
          "name": "tokenId",
          "type": "uint256"
        }
      ],
      "name": "tokenExists",
      "outputs": [
        {
          "name": "",
          "type": "bool"
        }
      ],
      "payable": false,
      "stateMutability": "view",
      "type": "function"
    },
    {
      "constant": true,
      "inputs": [
        {
          "name": "_address",
          "type": "address"
        }
      ],
      "name": "getTokenId",
      "outputs": [
        {
          "name": "tokenId",
          "type": "uint256"
        }
      ],
      "payable": false,
      "stateMutability": "view",
      "type": "function"
    },
    {
      "constant": false,
      "inputs": [
        {
          "name": "fee",
          "type": "uint256"
        }
      ],
      "name": "setResolverWhitelistFee",
      "outputs": [],
      "payable": false,
      "stateMutability": "nonpayable",
      "type": "function"
    },
    {
      "constant": false,
      "inputs": [
        {
          "name": "resolver",
          "type": "address"
        }
      ],
      "name": "whitelistResolver",
      "outputs": [],
      "payable": false,
      "stateMutability": "nonpayable",
      "type": "function"
    },
    {
      "constant": false,
      "inputs": [
        {
          "name": "clientRaindrop",
          "type": "address"
        },
        {
          "name": "hydroToken",
          "type": "address"
        }
      ],
      "name": "setAddresses",
      "outputs": [],
      "payable": false,
      "stateMutability": "nonpayable",
      "type": "function"
    },
    {
      "constant": false,
      "inputs": [
        {
          "name": "names",
          "type": "bytes32[6]"
        },
        {
          "name": "dateOfBirth",
          "type": "bytes32[3]"
        }
      ],
      "name": "mintIdentityToken",
      "outputs": [
        {
          "name": "tokenId",
          "type": "uint256"
        }
      ],
      "payable": false,
      "stateMutability": "nonpayable",
      "type": "function"
    },
    {
      "constant": false,
      "inputs": [
        {
          "name": "resolvers",
          "type": "address[]"
        },
        {
          "name": "withdrawAllowances",
          "type": "uint256[]"
        }
      ],
      "name": "addResolvers",
      "outputs": [],
      "payable": false,
      "stateMutability": "nonpayable",
      "type": "function"
    },
    {
      "constant": false,
      "inputs": [
        {
          "name": "resolvers",
          "type": "address[]"
        },
        {
          "name": "withdrawAllowances",
          "type": "uint256[]"
        }
      ],
      "name": "changeResolverAllowances",
      "outputs": [],
      "payable": false,
      "stateMutability": "nonpayable",
      "type": "function"
    },
    {
      "constant": false,
      "inputs": [
        {
          "name": "resolvers",
          "type": "address[]"
        }
      ],
      "name": "removeResolvers",
      "outputs": [],
      "payable": false,
      "stateMutability": "nonpayable",
      "type": "function"
    },
    {
      "constant": false,
      "inputs": [
        {
          "name": "field",
          "type": "uint8"
        },
        {
          "name": "entry",
          "type": "string"
        },
        {
          "name": "saltedHash",
          "type": "bytes32"
        }
      ],
      "name": "addFieldEntry",
      "outputs": [],
      "payable": false,
      "stateMutability": "nonpayable",
      "type": "function"
    },
    {
      "constant": false,
      "inputs": [
        {
          "name": "field",
          "type": "uint8"
        },
        {
          "name": "entry",
          "type": "string"
        }
      ],
      "name": "removeFieldEntry",
      "outputs": [],
      "payable": false,
      "stateMutability": "nonpayable",
      "type": "function"
    },
    {
      "constant": true,
      "inputs": [
        {
          "name": "tokenId",
          "type": "uint256"
        },
        {
          "name": "resolver",
          "type": "address"
        }
      ],
      "name": "hasResolver",
      "outputs": [
        {
          "name": "",
          "type": "bool"
        }
      ],
      "payable": false,
      "stateMutability": "view",
      "type": "function"
    },
    {
      "constant": true,
      "inputs": [
        {
          "name": "tokenId",
          "type": "uint256"
        },
        {
          "name": "field",
          "type": "uint8"
        }
      ],
      "name": "hasAttested",
      "outputs": [
        {
          "name": "",
          "type": "bool"
        }
      ],
      "payable": false,
      "stateMutability": "view",
      "type": "function"
    },
    {
      "constant": true,
      "inputs": [
        {
          "name": "tokenId",
          "type": "uint256"
        },
        {
          "name": "field",
          "type": "uint8"
        },
        {
          "name": "entry",
          "type": "string"
        }
      ],
      "name": "hasAttested",
      "outputs": [
        {
          "name": "",
          "type": "bool"
        }
      ],
      "payable": false,
      "stateMutability": "view",
      "type": "function"
    },
    {
      "constant": true,
      "inputs": [
        {
          "name": "tokenId",
          "type": "uint256"
        },
        {
          "name": "field",
          "type": "uint8"
        },
        {
          "name": "entryLookup",
          "type": "bytes32"
        }
      ],
      "name": "getDetails",
      "outputs": [
        {
          "name": "entryName",
          "type": "string"
        },
        {
          "name": "saltedHash",
          "type": "bytes32"
        },
        {
          "name": "blockNumber",
          "type": "uint256"
        }
      ],
      "payable": false,
      "stateMutability": "view",
      "type": "function"
    },
    {
      "constant": true,
      "inputs": [
        {
          "name": "tokenId",
          "type": "uint256"
        }
      ],
      "name": "getDetails",
      "outputs": [
        {
          "name": "owner",
          "type": "address"
        },
        {
          "name": "hydroId",
          "type": "string"
        },
        {
          "name": "fieldsAttestedTo",
          "type": "uint8[]"
        },
        {
          "name": "resolversFor",
          "type": "address[]"
        }
      ],
      "payable": false,
      "stateMutability": "view",
      "type": "function"
    },
    {
      "constant": true,
      "inputs": [
        {
          "name": "tokenId",
          "type": "uint256"
        },
        {
          "name": "field",
          "type": "uint8"
        },
        {
          "name": "entry",
          "type": "string"
        }
      ],
      "name": "getDetails",
      "outputs": [
        {
          "name": "entryName",
          "type": "string"
        },
        {
          "name": "saltedHash",
          "type": "bytes32"
        },
        {
          "name": "blockNumber",
          "type": "uint256"
        }
      ],
      "payable": false,
      "stateMutability": "view",
      "type": "function"
    },
    {
      "constant": true,
      "inputs": [
        {
          "name": "tokenId",
          "type": "uint256"
        },
        {
          "name": "field",
          "type": "uint8"
        }
      ],
      "name": "getDetails",
      "outputs": [
        {
          "name": "entriesAttestedTo",
          "type": "bytes32[]"
        }
      ],
      "payable": false,
      "stateMutability": "view",
      "type": "function"
    },
    {
      "constant": true,
      "inputs": [
        {
          "name": "tokenId",
          "type": "uint256"
        },
        {
          "name": "resolver",
          "type": "address"
        }
      ],
      "name": "getDetails",
      "outputs": [
        {
          "name": "withdrawAllowance",
          "type": "uint256"
        }
      ],
      "payable": false,
      "stateMutability": "view",
      "type": "function"
    },
    {
      "constant": false,
      "inputs": [
        {
          "name": "_sender",
          "type": "address"
        },
        {
          "name": "amount",
          "type": "uint256"
        },
        {
          "name": "_tokenAddress",
          "type": "address"
        },
        {
          "name": "",
          "type": "bytes"
        }
      ],
      "name": "receiveApproval",
      "outputs": [],
      "payable": false,
      "stateMutability": "nonpayable",
      "type": "function"
    },
    {
      "constant": false,
      "inputs": [
        {
          "name": "to",
          "type": "address"
        },
        {
          "name": "amount",
          "type": "uint256"
        }
      ],
      "name": "transferSnowflakeBalance",
      "outputs": [],
      "payable": false,
      "stateMutability": "nonpayable",
      "type": "function"
    },
    {
      "constant": false,
      "inputs": [
        {
          "name": "amount",
          "type": "uint256"
        }
      ],
      "name": "withdrawSnowflakeBalance",
      "outputs": [],
      "payable": false,
      "stateMutability": "nonpayable",
      "type": "function"
    },
    {
      "constant": false,
      "inputs": [
        {
          "name": "from",
          "type": "address"
        },
        {
          "name": "to",
          "type": "address"
        },
        {
          "name": "amount",
          "type": "uint256"
        }
      ],
      "name": "transferOnBehalfOf",
      "outputs": [],
      "payable": false,
      "stateMutability": "nonpayable",
      "type": "function"
    }
  ],
  "bytecode": "0x600160025560066101408181527f707265666978000000000000000000000000000000000000000000000000000061016052608090815260096101809081527f676976656e4e616d6500000000000000000000000000000000000000000000006101a05260a052600a6101c08181527f6d6964646c654e616d65000000000000000000000000000000000000000000006101e05260c05260076102009081527f7375726e616d65000000000000000000000000000000000000000000000000006102205260e0526102408381527f737566666978000000000000000000000000000000000000000000000000000061026052610100526102c0604052600d6102809081527f7072656665727265644e616d65000000000000000000000000000000000000006102a052610120526200013a92909190620005fb565b506040805160a0810182526003606082018181527f64617900000000000000000000000000000000000000000000000000000000006080840152825282518084018452600581527f6d6f6e74680000000000000000000000000000000000000000000000000000006020828101919091528084019190915283518085018552600481527f79656172000000000000000000000000000000000000000000000000000000009181019190915292820192909252620001fb916012919062000652565b503480156200020957600080fd5b5060008054600160a060020a0319163317815560176020527fd840e16649f6b9a295d95876f4633d3a6b10b55e8162971cf78afd886d5ec89b805460ff1990811660019081179092557fc52df653038b2ad477d8d97f1ddd63cfd138847b628ad8a7b89c109c3f8782ca80548216831790557fd8b2bced50346359af71f91110b86cdf684b6ab1c6ca64a7583c044d5c24de5c8054821683179055600483527f68052a315987b3c92fe6f7df77391bc5a825cabe4950d34f36f8f4e8a6abcb4d80549091169091179055805b6006821015620004645773__bytes32Set____________________________638ac6ba9a6010600a85600681106200030957fe5b0160405160200180828054600181600116156101000203166002900480156200036c5780601f10620003495761010080835404028352918201916200036c565b820191906000526020600020905b81548152906001019060200180831162000357575b50509150506040516020818303038152906040526040518082805190602001908083835b60208310620003b15780518252601f19909201916020918201910162000390565b6001836020036101000a03801982511681845116808217855250505050505090500191505060405180910390206040518363ffffffff167c01000000000000000000000000000000000000000000000000000000000281526004018083815260200182600019166000191681526020019250505060006040518083038186803b1580156200043e57600080fd5b505af415801562000453573d6000803e3d6000fd5b505060019093019250620002d59050565b6003811015620005f35773__bytes32Set____________________________638ac6ba9a6015601284600381106200049857fe5b016040516020018082805460018160011615610100020316600290048015620004fb5780601f10620004d8576101008083540402835291820191620004fb565b820191906000526020600020905b815481529060010190602001808311620004e6575b50509150506040516020818303038152906040526040518082805190602001908083835b60208310620005405780518252601f1990920191602091820191016200051f565b6001836020036101000a03801982511681845116808217855250505050505090500191505060405180910390206040518363ffffffff167c01000000000000000000000000000000000000000000000000000000000281526004018083815260200182600019166000191681526020019250505060006040518083038186803b158015620005cd57600080fd5b505af4158015620005e2573d6000803e3d6000fd5b505060019092019150620004649050565b5050620007ab565b826006810192821562000640579160200282015b828111156200064057825180516200062f91849160209091019062000697565b50916020019190600101906200060f565b506200064e92915062000718565b5090565b826003810192821562000640579160200282015b828111156200064057825180516200068691849160209091019062000697565b509160200191906001019062000666565b828054600181600116156101000203166002900490600052602060002090601f016020900481019282601f10620006da57805160ff19168380011785556200070a565b828001600101855582156200070a579182015b828111156200070a578251825591602001919060010190620006ed565b506200064e92915062000743565b6200074091905b808211156200064e57600062000736828262000760565b506001016200071f565b90565b6200074091905b808211156200064e57600081556001016200074a565b50805460018160011615610100020316600290046000825580601f10620007885750620007a8565b601f016020900490600052602060002090810190620007a8919062000743565b50565b61407780620007bb6000396000f30060806040526004361061017b5763ffffffff60e060020a600035041662923f9e81146101805780630ce5aeef146101ac57806311d5b826146101df5780631dfc99c4146102865780632bd78338146102b7578063484ca5a11461031a5780636be4d9b0146103385780636c92480a146103c857806375794a3c1461043657806375d7e4bd1461044b57806377f55933146104605780637ed553ff146104c357806383cf6ae5146104ed5780638a8d6679146105115780638d7601c0146105745780638da5cb5b146106025780638f4ffcb11461061757806390107afe146106875780639115abf4146106ae5780639bb0f599146106d2578063a861eae3146106f3578063b8a5c2a614610717578063b90813c91461076c578063b93a89f714610784578063c0928e2a146108b3578063d12a7b42146108cb578063d36031bd146108ec578063d57c198e1461094d578063ef1286b0146109b6578063f1537686146109cb578063f2fde38b146109ec578063fc7e286d14610a0d575b600080fd5b34801561018c57600080fd5b50610198600435610a2e565b604080519115158252519081900360200190f35b3480156101b857600080fd5b506101cd600160a060020a0360043516610a4b565b60408051918252519081900360200190f35b3480156101eb57600080fd5b5061020060043560ff60243516604435610a5d565b6040805160208082018590529181018390526060808252855190820152845190918291608083019187019080838360005b83811015610249578181015183820152602001610231565b50505050905090810190601f1680156102765780820380516001836020036101000a031916815260200191505b5094505050505060405180910390f35b34801561029257600080fd5b5061029b610cee565b60408051600160a060020a039092168252519081900360200190f35b3480156102c357600080fd5b50604080516020600460443581810135601f8101849004840285018401909552848452610198948235946024803560ff1695369594606494920191908190840183828082843750949750610cfd9650505050505050565b34801561032657600080fd5b5061019860043560ff60243516610f31565b34801561034457600080fd5b50604080516020600480358082013583810280860185019096528085526103c695369593946024949385019291829185019084908082843750506040805187358901803560208181028481018201909552818452989b9a9989019892975090820195509350839250850190849080828437509497506110a49650505050505050565b005b3480156103d457600080fd5b506103e660043560ff60243516611401565b60408051602080825283518183015283519192839290830191858101910280838360005b8381101561042257818101518382015260200161040a565b505050509050019250505060405180910390f35b34801561044257600080fd5b506101cd61158b565b34801561045757600080fd5b5061029b611591565b34801561046c57600080fd5b50604080516020600460443581810135601f8101849004840285018401909552848452610200948235946024803560ff16953695946064949201919081908401838280828437509497506115a09650505050505050565b3480156104cf57600080fd5b506103c6600160a060020a0360043581169060243516604435611681565b3480156104f957600080fd5b50610198600435600160a060020a036024351661196b565b34801561051d57600080fd5b5060408051602060046024803582810135601f81018590048502860185019096528585526103c695833560ff169536956044949193909101919081908401838280828437509497505093359450611a579350505050565b34801561058057600080fd5b50604080516020600480358082013583810280860185019096528085526103c695369593946024949385019291829185019084908082843750506040805187358901803560208181028481018201909552818452989b9a998901989297509082019550935083925085019084908082843750949750611f1a9650505050505050565b34801561060e57600080fd5b5061029b6123e7565b34801561062357600080fd5b50604080516020601f6064356004818101359283018490048402850184019095528184526103c694600160a060020a038135811695602480359660443590931695369560849492019181908401838280828437509497506123f69650505050505050565b34801561069357600080fd5b506103c6600160a060020a0360043581169060243516612553565b3480156106ba57600080fd5b506101cd600435600160a060020a03602435166125a5565b3480156106de57600080fd5b50610198600160a060020a03600435166126ed565b3480156106ff57600080fd5b506103c6600160a060020a036004351660243561270a565b34801561072357600080fd5b50604080516020600480358082013583810280860185019096528085526103c6953695939460249493850192918291850190849080828437509497506127199650505050505050565b34801561077857600080fd5b506103c6600435612a60565b34801561079057600080fd5b5061079c600435612b6f565b6040518085600160a060020a0316600160a060020a03168152602001806020018060200180602001848103845287818151815260200191508051906020019080838360005b838110156107f95781810151838201526020016107e1565b50505050905090810190601f1680156108265780820380516001836020036101000a031916815260200191505b508481038352865181528651602091820191808901910280838360005b8381101561085b578181015183820152602001610843565b50505050905001848103825285818151815260200191508051906020019060200280838360005b8381101561089a578181015183820152602001610882565b5050505090500197505050505050505060405180910390f35b3480156108bf57600080fd5b506103c6600435612d6d565b3480156108d757600080fd5b506103c6600160a060020a0360043516612f1a565b3480156108f857600080fd5b5060408051602060046024803582810135601f81018590048502860185019096528585526103c695833560ff169536956044949193909101919081908401838280828437509497506130079650505050505050565b34801561095957600080fd5b506040805160c08181019092526101cd91369160049160c49190839060069083908390808284375050604080516060818101909252949796958181019594509250600391508390839080828437509396506134e695505050505050565b3480156109c257600080fd5b506101cd613b8d565b3480156109d757600080fd5b506101cd600160a060020a0360043516613b93565b3480156109f857600080fd5b506103c6600160a060020a0360043516613bc5565b348015610a1957600080fd5b506101cd600160a060020a0360043516613c59565b600090815260036020526040902054600160a060020a0316151590565b60046020526000908152604090205481565b6060600080600086610a6e81610a2e565b1515610ac1576040805160e560020a62461bcd0281526020600482015260236024820152600080516020613fec833981519152604482015260e960020a6232b21702606482015290519081900360840190fd5b60008881526003602081815260409283902083517fcb5ce7e5000000000000000000000000000000000000000000000000000000008152928101600484015260ff8b166024840152925192945073__uint8Set______________________________9263cb5ce7e5926044808201939291829003018186803b158015610b4657600080fd5b505af4158015610b5a573d6000803e3d6000fd5b505050506040513d6020811015610b7057600080fd5b50511515610b7d57600080fd5b60ff87166000908152600283016020908152604091829020825160e060020a638a620f510281526001909101600482015260248101899052915173__bytes32Set____________________________92638a620f51926044808301939192829003018186803b158015610bef57600080fd5b505af4158015610c03573d6000803e3d6000fd5b505050506040513d6020811015610c1957600080fd5b50511515610c2657600080fd5b60ff871660009081526002838101602090815260408084208a855282529283902060018082015482850154835487516000199482161561010002949094011695909504601f8101859004850283018501909652858252919491939290918591830182828015610cd65780601f10610cab57610100808354040283529160200191610cd6565b820191906000526020600020905b815481529060010190602001808311610cb957829003601f168201915b50505050509250945094509450505093509350939050565b600554600160a060020a031681565b600080600085610d0c81610a2e565b1515610d5f576040805160e560020a62461bcd0281526020600482015260236024820152600080516020613fec833981519152604482015260e960020a6232b21702606482015290519081900360840190fd5b60ff808716600090815260176020526040902054161515610db8576040805160e560020a62461bcd02815260206004820152600e602482015260008051602061402c833981519152604482015290519081900360640190fd5b600360008881526020019081526020016000209250846040516020018082805190602001908083835b60208310610e005780518252601f199092019160209182019101610de1565b6001836020036101000a0380198251168184511680821785525050505050509050019150506040516020818303038152906040526040518082805190602001908083835b60208310610e635780518252601f199092019160209182019101610e44565b51815160209384036101000a60001901801990921691161790526040805192909401829003822060ff8d16600090815260028b01835285902060e060020a638a620f51028452600101600484015260248301819052935193975073__bytes32Set____________________________9550638a620f5194506044808301949193509091829003018186803b158015610efa57600080fd5b505af4158015610f0e573d6000803e3d6000fd5b505050506040513d6020811015610f2457600080fd5b5051979650505050505050565b60008083610f3e81610a2e565b1515610f91576040805160e560020a62461bcd0281526020600482015260236024820152600080516020613fec833981519152604482015260e960020a6232b21702606482015290519081900360840190fd5b60ff808516600090815260176020526040902054161515610fea576040805160e560020a62461bcd02815260206004820152600e602482015260008051602061402c833981519152604482015290519081900360640190fd5b60008581526003602081815260409283902083517fcb5ce7e5000000000000000000000000000000000000000000000000000000008152928101600484015260ff88166024840152925192945073__uint8Set______________________________9263cb5ce7e5926044808201939291829003018186803b15801561106f57600080fd5b505af4158015611083573d6000803e3d6000fd5b505050506040513d602081101561109957600080fd5b505195945050505050565b600080336001806110b4836126ed565b15151461110d576040805160e560020a62461bcd0281526020600482015260326024820152600080516020613fcc833981519152604482015260008051602061400c833981519152606482015290519081900360840190fd5b8451865114611166576040805160e560020a62461bcd02815260206004820152601160248201527f4d616c666f726d656420696e707574732e000000000000000000000000000000604482015290519081900360640190fd5b3360009081526004602090815260408083205483526003909152902093505b8551831015611318578360060173__addressSet____________________________63ee8a71a0909188868151811015156111bc57fe5b906020019060200201516040518363ffffffff1660e060020a0281526004018083815260200182600160a060020a0316600160a060020a031681526020019250505060206040518083038186803b15801561121657600080fd5b505af415801561122a573d6000803e3d6000fd5b505050506040513d602081101561124057600080fd5b505115156112be576040805160e560020a62461bcd02815260206004820152602860248201527f5468697320736e6f77666c616b6520686173206e6f742073657420746869732060448201527f7265736f6c766572000000000000000000000000000000000000000000000000606482015290519081900360840190fd5b84838151811015156112cc57fe5b9060200190602002015184600501600088868151811015156112ea57fe5b6020908102909101810151600160a060020a0316825281019190915260400160002055600190920191611185565b6004600033600160a060020a0316600160a060020a03168152602001908152602001600020547fc33cab09bfbf1d9c39c3e354adeee35a3fae2f50010437b42cdf8fc7d0bcdb288787604051808060200180602001838103835285818151815260200191508051906020019060200280838360005b838110156113a557818101518382015260200161138d565b50505050905001838103825284818151815260200191508051906020019060200280838360005b838110156113e45781810151838201526020016113cc565b5050505090500194505050505060405180910390a2505050505050565b606060008361140f81610a2e565b1515611462576040805160e560020a62461bcd0281526020600482015260236024820152600080516020613fec833981519152604482015260e960020a6232b21702606482015290519081900360840190fd5b60008581526003602081815260409283902083517fcb5ce7e5000000000000000000000000000000000000000000000000000000008152928101600484015260ff88166024840152925192945073__uint8Set______________________________9263cb5ce7e5926044808201939291829003018186803b1580156114e757600080fd5b505af41580156114fb573d6000803e3d6000fd5b505050506040513d602081101561151157600080fd5b5051151561151e57600080fd5b60ff841660009081526002830160209081526040918290206001018054835181840281018401909452808452909183018282801561157c57602002820191906000526020600020905b81548152600190910190602001808311611567575b50505050509250505092915050565b60025481565b600654600160a060020a031681565b60606000806116728686866040516020018082805190602001908083835b602083106115dd5780518252601f1990920191602091820191016115be565b6001836020036101000a0380198251168184511680821785525050505050509050019150506040516020818303038152906040526040518082805190602001908083835b602083106116405780518252601f199092019160209182019101611621565b6001836020036101000a0380198251168184511680821785525050505050509050019150506040518091039020610a5d565b92509250925093509350939050565b600083600180611690836126ed565b1515146116e9576040805160e560020a62461bcd0281526020600482015260326024820152600080516020613fcc833981519152604482015260008051602061400c833981519152606482015290519081900360840190fd5b600160a060020a0386166000908152600460208181526040808420548452600382529283902083517fee8a71a00000000000000000000000000000000000000000000000000000000081526006820193810193909352336024840152925192955073__addressSet____________________________9263ee8a71a0926044808201939291829003018186803b15801561178257600080fd5b505af4158015611796573d6000803e3d6000fd5b505050506040513d60208110156117ac57600080fd5b5051151561182a576040805160e560020a62461bcd02815260206004820152603760248201527f54686973207265736f6c76657220686173206e6f74206265656e20736574206260448201527f79207468652066726f6d20746f6b656e686f6c6465722e000000000000000000606482015290519081900360840190fd5b33600090815260058401602052604090205484111561192457600160a060020a0386166000908152600460209081526040808320543380855260058801845293829020548251948552928401929092528281018790525190917f0de6846b7f00dd0bd6435dd9ea3cccbc3d221113289f0af618977566dceb7a4c919081900360600190a26040805160e560020a62461bcd02815260206004820152602260248201527f5265736f6c7665722068617320696e616465717561746520616c6c6f77616e6360448201527f652e000000000000000000000000000000000000000000000000000000000000606482015290519081900360840190fd5b336000908152600584016020526040902054611946908563ffffffff613c6b16565b336000908152600585016020526040902055611963868686613c7d565b505050505050565b6000808361197881610a2e565b15156119cb576040805160e560020a62461bcd0281526020600482015260236024820152600080516020613fec833981519152604482015260e960020a6232b21702606482015290519081900360840190fd5b60008581526003602090815260409182902082517fee8a71a0000000000000000000000000000000000000000000000000000000008152600682016004820152600160a060020a0388166024820152925190945073__addressSet____________________________9263ee8a71a0926044808301939192829003018186803b15801561106f57600080fd5b60008033600180611a67836126ed565b151514611ac0576040805160e560020a62461bcd0281526020600482015260326024820152600080516020613fcc833981519152604482015260008051602061400c833981519152606482015290519081900360840190fd5b60ff808816600090815260176020526040902054161515611b19576040805160e560020a62461bcd02815260206004820152600e602482015260008051602061402c833981519152604482015290519081900360640190fd5b856040516020018082805190602001908083835b60208310611b4c5780518252601f199092019160209182019101611b2d565b6001836020036101000a0380198251168184511680821785525050505050509050019150506040516020818303038152906040526040518082805190602001908083835b60208310611baf5780518252601f199092019160209182019101611b90565b5181516020939093036101000a60001901801990911692169190911790526040519201829003909120965060009250611be6915050565b60ff168760ff161415611c86576040805160e060020a638a620f510281526010600482015260248101869052905173__bytes32Set____________________________91638a620f51916044808301926020929190829003018186803b158015611c4f57600080fd5b505af4158015611c63573d6000803e3d6000fd5b505050506040513d6020811015611c7957600080fd5b50511515611c8657600080fd5b3360009081526004602081815260408084205484526003825280842060ff8c16855260028101835293819020815160e060020a638a620f51028152600190910193810193909352602483018890525192955073__bytes32Set____________________________92638a620f51926044808201939291829003018186803b158015611d1057600080fd5b505af4158015611d24573d6000803e3d6000fd5b505050506040513d6020811015611d3a57600080fd5b505115611d91576040805160e560020a62461bcd02815260206004820152601460248201527f456e74727920616c726561647920657869737473000000000000000000000000604482015290519081900360640190fd5b60ff8716600090815260028401602052604080822081517f8ac6ba9a0000000000000000000000000000000000000000000000000000000081526001909101600482015260248101879052905173__bytes32Set____________________________92638ac6ba9a9260448082019391829003018186803b158015611e1557600080fd5b505af4158015611e29573d6000803e3d6000fd5b5050505060ff87166000908152600284016020908152604080832087845282529091208751611e5a92890190613e74565b5060ff87166000818152600285810160209081526040808420898552909152808320600181018a90554392019190915580517f3d61036200000000000000000000000000000000000000000000000000000000815260038701600482015260248101939093525173__uint8Set______________________________92633d610362926044808301939192829003018186803b158015611ef957600080fd5b505af4158015611f0d573d6000803e3d6000fd5b5050505050505050505050565b60008033600180611f2a836126ed565b151514611f83576040805160e560020a62461bcd0281526020600482015260326024820152600080516020613fcc833981519152604482015260008051602061400c833981519152606482015290519081900360840190fd5b8451865114611fdc576040805160e560020a62461bcd02815260206004820152601160248201527f4d616c666f726d656420696e707574732e000000000000000000000000000000604482015290519081900360640190fd5b3360009081526004602090815260408083205483526003909152902093505b855183101561235b57600773__addressSet____________________________63ee8a71a09091888681518110151561203057fe5b906020019060200201516040518363ffffffff1660e060020a0281526004018083815260200182600160a060020a0316600160a060020a031681526020019250505060206040518083038186803b15801561208a57600080fd5b505af415801561209e573d6000803e3d6000fd5b505050506040513d60208110156120b457600080fd5b50511515612132576040805160e560020a62461bcd02815260206004820152602b60248201527f54686520676976656e207265736f6c766572206973206e6f74206f6e2074686560448201527f2077686974656c6973742e000000000000000000000000000000000000000000606482015290519081900360840190fd5b8360060173__addressSet____________________________63ee8a71a09091888681518110151561216057fe5b906020019060200201516040518363ffffffff1660e060020a0281526004018083815260200182600160a060020a0316600160a060020a031681526020019250505060206040518083038186803b1580156121ba57600080fd5b505af41580156121ce573d6000803e3d6000fd5b505050506040513d60208110156121e457600080fd5b505115612261576040805160e560020a62461bcd02815260206004820152602d60248201527f5468697320736e6f77666c616b652068617320616c726561647920736574207460448201527f686973207265736f6c7665722e00000000000000000000000000000000000000606482015290519081900360840190fd5b8360060173__addressSet____________________________63e843cfc19091888681518110151561228f57fe5b906020019060200201516040518363ffffffff1660e060020a0281526004018083815260200182600160a060020a0316600160a060020a031681526020019250505060006040518083038186803b1580156122e957600080fd5b505af41580156122fd573d6000803e3d6000fd5b50505050848381518110151561230f57fe5b90602001906020020151846005016000888681518110151561232d57fe5b6020908102909101810151600160a060020a0316825281019190915260400160002055600190920191611ffb565b6004600033600160a060020a0316600160a060020a03168152602001908152602001600020547fb05b004198160bcf45725e8b02ca5815857479092d86dfdd30000fdca456c3e3878760405180806020018060200183810383528581815181526020019150805190602001906020028083836000838110156113a557818101518382015260200161138d565b600054600160a060020a031681565b600033600160a060020a0384161461240d57600080fd5b600654600160a060020a0384811691161461242757600080fd5b50604080517f23b872dd000000000000000000000000000000000000000000000000000000008152600160a060020a03868116600483015230602483015260448201869052915184928316916323b872dd9160648083019260209291908290030181600087803b15801561249a57600080fd5b505af11580156124ae573d6000803e3d6000fd5b505050506040513d60208110156124c457600080fd5b505115156124d157600080fd5b600160a060020a0385166000908152600160205260409020546124fa908563ffffffff613e6116565b600160a060020a038616600081815260016020908152604091829020939093558051878152905191927f88bc2daf60592362e3cd69736750ef477a015e69f1813bf532d990998220bd1392918290030190a25050505050565b600054600160a060020a0316331461256a57600080fd5b60058054600160a060020a0393841673ffffffffffffffffffffffffffffffffffffffff199182161790915560068054929093169116179055565b600080836125b281610a2e565b1515612605576040805160e560020a62461bcd0281526020600482015260236024820152600080516020613fec833981519152604482015260e960020a6232b21702606482015290519081900360840190fd5b60008581526003602090815260409182902082517fee8a71a0000000000000000000000000000000000000000000000000000000008152600682016004820152600160a060020a0388166024820152925190945073__addressSet____________________________9263ee8a71a0926044808301939192829003018186803b15801561269157600080fd5b505af41580156126a5573d6000803e3d6000fd5b505050506040513d60208110156126bb57600080fd5b505115156126c857600080fd5b600160a060020a03841660009081526005830160205260409020549250505092915050565b600160a060020a0316600090815260046020526040902054151590565b612715338383613c7d565b5050565b60008033600180612729836126ed565b151514612782576040805160e560020a62461bcd0281526020600482015260326024820152600080516020613fcc833981519152604482015260008051602061400c833981519152606482015290519081900360840190fd5b3360009081526004602090815260408083205483526003909152902093505b84518310156129be578360060173__addressSet____________________________63ee8a71a0909187868151811015156127d857fe5b906020019060200201516040518363ffffffff1660e060020a0281526004018083815260200182600160a060020a0316600160a060020a031681526020019250505060206040518083038186803b15801561283257600080fd5b505af4158015612846573d6000803e3d6000fd5b505050506040513d602081101561285c57600080fd5b505115156128da576040805160e560020a62461bcd02815260206004820152602860248201527f5468697320736e6f77666c616b6520686173206e6f742073657420746869732060448201527f7265736f6c766572000000000000000000000000000000000000000000000000606482015290519081900360840190fd5b8360060173__addressSet____________________________63b65fd2949091878681518110151561290857fe5b906020019060200201516040518363ffffffff1660e060020a0281526004018083815260200182600160a060020a0316600160a060020a031681526020019250505060006040518083038186803b15801561296257600080fd5b505af4158015612976573d6000803e3d6000fd5b50505050836005016000868581518110151561298e57fe5b6020908102909101810151600160a060020a031682528101919091526040016000908120556001909201916127a1565b6004600033600160a060020a0316600160a060020a03168152602001908152602001600020547f0b55ed42af131bb9d552979dde70c8d7174c9b3cc9c98d4a0f37a845a6fd4e3d866040518080602001828103825283818151815260200191508051906020019060200280838360005b83811015612a46578181015183820152602001612a2e565b505050509050019250505060405180910390a25050505050565b60008054600160a060020a03163314612a7857600080fd5b600660009054906101000a9004600160a060020a03169050600a606482600160a060020a03166318160ddd6040518163ffffffff1660e060020a028152600401602060405180830381600087803b158015612ad257600080fd5b505af1158015612ae6573d6000803e3d6000fd5b505050506040513d6020811015612afc57600080fd5b5051811515612b0757fe5b04811515612b1157fe5b04821115612b69576040805160e560020a62461bcd02815260206004820152601060248201527f46656520697320746f6f20686967682e00000000000000000000000000000000604482015290519081900360640190fd5b50600955565b60006060806060600085612b8281610a2e565b1515612bd5576040805160e560020a62461bcd0281526020600482015260236024820152600080516020613fec833981519152604482015260e960020a6232b21702606482015290519081900360840190fd5b6000878152600360208181526040928390208054600180830180548751600261010094831615949094026000190190911692909204601f8101869004860283018601909752868252929750600160a060020a0390911694919387019260068801928591830182828015612c895780601f10612c5e57610100808354040283529160200191612c89565b820191906000526020600020905b815481529060010190602001808311612c6c57829003601f168201915b5050505050925081805480602002602001604051908101604052809291908181526020018280548015612cf957602002820191906000526020600020906000905b825461010083900a900460ff16815260206001928301818104948501949093039092029101808411612cca5790505b5050505050915080805480602002602001604051908101604052809291908181526020018280548015612d5557602002820191906000526020600020905b8154600160a060020a03168152600190910190602001808311612d37575b50505050509050955095509550955050509193509193565b6000808211612d7b57600080fd5b33600090815260016020526040902054821115612e08576040805160e560020a62461bcd02815260206004820152603260248201527f596f75722063616e6e6f74207769746864726177206d6f7265207468616e207960448201527f6f752068617665206465706f73697465642e0000000000000000000000000000606482015290519081900360840190fd5b33600090815260016020526040902054612e28908363ffffffff613c6b16565b3360008181526001602090815260408083209490945560065484517fa9059cbb0000000000000000000000000000000000000000000000000000000081526004810194909452602484018790529351600160a060020a039094169450849363a9059cbb93604480820194918390030190829087803b158015612ea957600080fd5b505af1158015612ebd573d6000803e3d6000fd5b505050506040513d6020811015612ed357600080fd5b50511515612ee057600080fd5b60408051838152905133917fcce4937f7cb5adfa10d84738fe8c34b18bab1448271142eb72b11c93f8cb2d6f919081900360200190a25050565b600054600954612f3391600160a060020a03169061270a565b604080517fe843cfc100000000000000000000000000000000000000000000000000000000815260076004820152600160a060020a0383166024820152905173__addressSet____________________________9163e843cfc1916044808301926000929190829003018186803b158015612fad57600080fd5b505af4158015612fc1573d6000803e3d6000fd5b5050604080513381529051600160a060020a03851693507f226b9a42bf53928505b48f7cf4b29e4300ced15175effec574adcde11f1b7bb292509081900360200190a250565b60008033600180613017836126ed565b151514613070576040805160e560020a62461bcd0281526020600482015260326024820152600080516020613fcc833981519152604482015260008051602061400c833981519152606482015290519081900360840190fd5b60ff8087166000908152601760205260409020541615156130c9576040805160e560020a62461bcd02815260206004820152600e602482015260008051602061402c833981519152604482015290519081900360640190fd5b846040516020018082805190602001908083835b602083106130fc5780518252601f1990920191602091820191016130dd565b6001836020036101000a0380198251168184511680821785525050505050509050019150506040516020818303038152906040526040518082805190602001908083835b6020831061315f5780518252601f199092019160209182019101613140565b6001836020036101000a03801982511681845116808217855250505050505090500191505060405180910390209350600360006004600033600160a060020a0316600160a060020a0316815260200190815260200160002054815260200190815260200160002092508260020160008760ff1660ff16815260200190815260200160002060010173__bytes32Set____________________________638a620f519091866040518363ffffffff1660e060020a0281526004018083815260200182600019166000191681526020019250505060206040518083038186803b15801561324957600080fd5b505af415801561325d573d6000803e3d6000fd5b505050506040513d602081101561327357600080fd5b505115156132cb576040805160e560020a62461bcd02815260206004820152601460248201527f456e74727920646f6573206e6f74206578697374000000000000000000000000604482015290519081900360640190fd5b60ff8616600090815260028401602052604080822081517f36c26aef0000000000000000000000000000000000000000000000000000000081526001909101600482015260248101879052905173__bytes32Set____________________________926336c26aef9260448082019391829003018186803b15801561334f57600080fd5b505af4158015613363573d6000803e3d6000fd5b50505060ff871660009081526002850160209081526040808320888452909152812091506133918282613ef2565b5060006001828101829055600292830182905560ff89168252918501602090815260409182902082517fc17764bb00000000000000000000000000000000000000000000000000000000815293016004840152905173__bytes32Set____________________________9263c17764bb926024808301939192829003018186803b15801561341e57600080fd5b505af4158015613432573d6000803e3d6000fd5b505050506040513d602081101561344857600080fd5b5051151561196357604080517f07a929ec00000000000000000000000000000000000000000000000000000000815260038501600482015260ff88166024820152905173__uint8Set______________________________916307a929ec916044808301926000929190829003018186803b1580156134c657600080fd5b505af41580156134da573d6000803e3d6000fd5b50505050505050505050565b60008060608180808080803381806134fd836126ed565b151514613556576040805160e560020a62461bcd0281526020600482015260326024820152600080516020613fcc833981519152604482015260008051602061400c833981519152606482015290519081900360840190fd5b600554604080517f69c212f60000000000000000000000000000000000000000000000000000000081523360048201529051600160a060020a039092169b508b916369c212f69160248082019260009290919082900301818387803b1580156135be57600080fd5b505af11580156135d2573d6000803e3d6000fd5b505050506040513d6000823e601f3d908101601f1916820160405260208110156135fb57600080fd5b81019080805164010000000081111561361357600080fd5b8201602081018481111561362657600080fd5b815164010000000081118282018710171561364057600080fd5b5050929190505050985060026000815480929190600101919050559750600360008981526020019081526020016000209650338760000160006101000a815481600160a060020a030219169083600160a060020a03160217905550888760010190805190602001906136b3929190613e74565b506000808052600288016020526040902095505b60068510156138ef5760008d86600681106136de57fe5b602002015114156136ee576138e4565b600a85600681106136fb57fe5b0186600001600060106000018881548110151561371457fe5b600091825260208083209091015483528201929092526040019020815461374e929060026101006001831615026000190190911604613f39565b508c856006811061375b57fe5b60200201516010805488916000918990811061377357fe5b6000918252602080832090910154835282019290925260400181206001019190915560108054439289929091899081106137a957fe5b600091825260208083209091015483528201929092526040019020600201556010805473__bytes32Set____________________________91638ac6ba9a9160018a019190899081106137f857fe5b60009182526020822001546040805160e060020a63ffffffff87160281526004810194909452602484019190915251604480840193829003018186803b15801561384157600080fd5b505af4158015613855573d6000803e3d6000fd5b5050604080517f3d61036200000000000000000000000000000000000000000000000000000000815260038b016004820152600060248201819052915173__uint8Set______________________________9450633d610362935060448083019392829003018186803b1580156138cb57600080fd5b505af41580156138df573d6000803e3d6000fd5b505050505b6001909401936136c7565b60016000908152600288016020526040902093505b6003831015613b2e5760008c846003811061391b57fe5b6020020151141561392b57613b23565b6012836003811061393857fe5b0184600001600060156000018681548110151561395157fe5b600091825260208083209091015483528201929092526040019020815461398b929060026101006001831615026000190190911604613f39565b508b836003811061399857fe5b6020020151601580548691600091879081106139b057fe5b6000918252602080832090910154835282019290925260400181206001019190915560158054439287929091879081106139e657fe5b600091825260208083209091015483528201929092526040019020600201556015805473__bytes32Set____________________________91638ac6ba9a9160018801919087908110613a3557fe5b60009182526020822001546040805160e060020a63ffffffff87160281526004810194909452602484019190915251604480840193829003018186803b158015613a7e57600080fd5b505af4158015613a92573d6000803e3d6000fd5b5050604080517f3d61036200000000000000000000000000000000000000000000000000000000815260038b01600482015260016024820152905173__uint8Set______________________________9350633d61036292506044808301926000929190829003018186803b158015613b0a57600080fd5b505af4158015613b1e573d6000803e3d6000fd5b505050505b600190920191613904565b336000818152600460209081526040918290208b905581518b81529081019290925280517fa9083d86449ec8010364467bd0e3f4ec5d810f2f094659fee35706af9fef52dd9281900390910190a150959b9a5050505050505050505050565b60095481565b6000613b9e826126ed565b1515613ba957600080fd5b50600160a060020a031660009081526004602052604090205490565b600054600160a060020a03163314613bdc57600080fd5b600160a060020a0381161515613bf157600080fd5b60008054604051600160a060020a03808516939216917f8be0079c531659141344cd1fd0a4f28419497f9722a3daafe3b4186f6b6457e091a36000805473ffffffffffffffffffffffffffffffffffffffff1916600160a060020a0392909216919091179055565b60016020526000908152604090205481565b600082821115613c7757fe5b50900390565b600160a060020a038216301415613d04576040805160e560020a62461bcd02815260206004820152603b60248201527f5468697320636f6e74726163742063616e6e6f7420686f6c6420746f6b656e2060448201527f62616c616e636573206f6e20697473206f776e20626568616c662e0000000000606482015290519081900360840190fd5b60008111613d1157600080fd5b600160a060020a038316600090815260016020526040902054811115613da7576040805160e560020a62461bcd02815260206004820152603060248201527f596f75722062616c616e636520697320746f6f206c6f7720746f207472616e7360448201527f666572207468697320616d6f756e742e00000000000000000000000000000000606482015290519081900360840190fd5b600160a060020a038316600090815260016020526040902054613dd0908263ffffffff613c6b16565b600160a060020a038085166000908152600160205260408082209390935590841681522054613e05908263ffffffff613e6116565b600160a060020a0380841660008181526001602090815260409182902094909455805185815290519193928716927f9bd188aec8668fb7fd04179a5e2e425c7eae69ad3b0fcbe6d8aee4543ba961d392918290030190a3505050565b81810182811015613e6e57fe5b92915050565b828054600181600116156101000203166002900490600052602060002090601f016020900481019282601f10613eb557805160ff1916838001178555613ee2565b82800160010185558215613ee2579182015b82811115613ee2578251825591602001919060010190613ec7565b50613eee929150613fae565b5090565b50805460018160011615610100020316600290046000825580601f10613f185750613f36565b601f016020900490600052602060002090810190613f369190613fae565b50565b828054600181600116156101000203166002900490600052602060002090601f016020900481019282601f10613f725780548555613ee2565b82800160010185558215613ee257600052602060002091601f016020900482015b82811115613ee2578254825591600101919060010190613f93565b613fc891905b80821115613eee5760008155600101613fb4565b905600546865207472616e73616374696f6e2073656e64657220686173206e6f74206d5468697320746f6b656e20686173206e6f7420796574206265656e206d696e74696e746564206120536e6f77666c616b652e0000000000000000000000000000496e76616c6964206669656c642e000000000000000000000000000000000000a165627a7a72305820c99a649ef2c38af5c169f53d010bb6cda21a41284f37a36b7a3f2a1e5488441e0029",
  "source": "pragma solidity ^0.4.24;\n\nimport \"./zeppelin/ownership/Ownable.sol\";\nimport \"./zeppelin/token/ERC20/ERC20.sol\";\nimport \"./zeppelin/math/SafeMath.sol\";\n\nimport \"./libraries/uint8Set.sol\";\nimport \"./libraries/addressSet.sol\";\nimport \"./libraries/bytes32Set.sol\";\n\n\ninterface ClientRaindrop {\n    function getUserByAddress(address _address) external view returns (string userName);\n}\n\n\ncontract Snowflake is Ownable {\n    using SafeMath for uint;\n    using uint8Set for uint8Set._uint8Set;\n    using addressSet for addressSet._addressSet;\n    using bytes32Set for bytes32Set._bytes32Set;\n\n    // hydro token wrapper variable\n    mapping (address => uint) public deposits;\n\n    // token lookup mappings\n    uint public nextTokenId = 1;\n    mapping (uint => Identity) internal tokenDirectory;\n    mapping (address => uint) public ownerToToken;\n\n    // admin/contract variables\n    address public clientRaindropAddress;\n    address public hydroTokenAddress;\n\n    addressSet._addressSet internal resolverWhitelist;\n    uint public resolverWhitelistFee;\n\n    // name and date of birth restriction variables\n    string[6] nameOrder = [\"prefix\", \"givenName\", \"middleName\", \"surname\", \"suffix\", \"preferredName\"];\n    bytes32Set._bytes32Set allowedNames;\n    string[3] dateOrder = [\"day\", \"month\", \"year\"];\n    bytes32Set._bytes32Set allowedDates;\n\n    // identity structures\n    struct Identity {\n        address owner;\n        string hydroId;\n        mapping (uint8 => SnowflakeField) fields; // mapping of AllowedSnowflakeFields to SnowflakeFields\n        uint8Set._uint8Set fieldsAttestedTo;\n        mapping(address => Resolver) resolvers;\n        addressSet._addressSet resolversFor; // optional, set of third-party resolvers\n    }\n\n    struct SnowflakeField {\n        mapping (bytes32 => Entry) entries; // required, mapping of entry names to encrypted plaintext data.\n        bytes32Set._bytes32Set entriesAttestedTo; // required, entry names that the user has attested to\n    }\n\n    struct Entry {\n        string entryName;\n        bytes32 saltedHash; // data should be encoded as: keccak256(abi.encodePacked(data, salt))\n        uint blockNumber;\n    }\n\n    struct Resolver {\n        uint withdrawAllowance; // optional, allows resolvers to programatically extract hydro from users\n    }\n\n    // field restriction variables\n    enum AllowedSnowflakeFields { Name, DateOfBirth, Emails, PhoneNumbers, PhysicalAddresses }\n    mapping (uint8 => bool) internal allowedFields;\n\n    constructor () public {\n        // initialize allowed snowflake fields\n        allowedFields[uint8(AllowedSnowflakeFields.Name)] = true;\n        allowedFields[uint8(AllowedSnowflakeFields.Emails)] = true;\n        allowedFields[uint8(AllowedSnowflakeFields.PhoneNumbers)] = true;\n        allowedFields[uint8(AllowedSnowflakeFields.PhysicalAddresses)] = true;\n\n        // initialize allowed name entries\n        for (uint i; i < nameOrder.length; i++) {\n            allowedNames.insert(keccak256(abi.encodePacked(nameOrder[i])));\n        }\n\n        // initialize allowed date entries\n        for (uint j; j < dateOrder.length; j++) {\n            allowedDates.insert(keccak256(abi.encodePacked(dateOrder[j])));\n        }\n    }\n\n    // enforces that the transaction sender has a token\n    modifier _hasToken(address _address, bool check) {\n        require(hasToken(_address) == check, \"The transaction sender has not minted a Snowflake.\");\n        _;\n    }\n\n    // checks whether the given address has a token\n    function hasToken(address _address) public view returns (bool) {\n        return ownerToToken[_address] != 0;\n    }\n\n    // enforces that the given tokenId exists\n    modifier _tokenExists(uint tokenId) {\n        require(tokenExists(tokenId), \"This token has not yet been minted.\");\n        _;\n    }\n\n    // checks whether the given tokenId exists\n    function tokenExists(uint tokenId) public view returns (bool) {\n        return tokenDirectory[tokenId].owner != address(0);\n    }\n    \n    // wrapper to ownerToToken that throws if the address doesn't own a token\n    function getTokenId(address _address) public view returns (uint tokenId) {\n        require(hasToken(_address));\n        return ownerToToken[_address];\n    }\n\n    // set the fee to become a resolver\n    function setResolverWhitelistFee(uint fee) public onlyOwner {\n        ERC20 hydro = ERC20(hydroTokenAddress);\n        require(fee <= (hydro.totalSupply() / 100 / 10), \"Fee is too high.\");\n        resolverWhitelistFee = fee;\n    }\n\n    // allows whitelisting of resolvers\n    function whitelistResolver(address resolver) public {\n        transferSnowflakeBalance(owner, resolverWhitelistFee);\n        resolverWhitelist.insert(resolver);\n        emit ResolverWhitelisted(resolver, msg.sender);\n    }\n\n    // set the raindrop and hydro token addresses\n    function setAddresses(address clientRaindrop, address hydroToken) public onlyOwner {\n        clientRaindropAddress = clientRaindrop;\n        hydroTokenAddress = hydroToken;\n    }\n\n    // token minter\n    function mintIdentityToken(bytes32[6] names, bytes32[3] dateOfBirth) public _hasToken(msg.sender, false)\n        returns(uint tokenId)\n    {\n        ClientRaindrop clientRaindrop = ClientRaindrop(clientRaindropAddress);\n        string memory _hydroId = clientRaindrop.getUserByAddress(msg.sender);\n\n        uint newTokenId = nextTokenId++;\n        Identity storage identity = tokenDirectory[newTokenId];\n\n        identity.owner = msg.sender;\n        identity.hydroId = _hydroId;\n\n        SnowflakeField storage nameField = identity.fields[uint8(AllowedSnowflakeFields.Name)];\n        for (uint i; i < names.length; i++) {\n            if (names[i] == bytes32(0x0)) {\n                continue;\n            }\n            nameField.entries[allowedNames.members[i]].entryName = nameOrder[i];\n            nameField.entries[allowedNames.members[i]].saltedHash = names[i];\n            nameField.entries[allowedNames.members[i]].blockNumber = block.number;\n            nameField.entriesAttestedTo.insert(allowedNames.members[i]);\n            // putting this here creates some unnecessary checks, but it catches the case when all elements are 0x0\n            identity.fieldsAttestedTo.insert(uint8(AllowedSnowflakeFields.Name));\n        }\n\n        SnowflakeField storage dateField = identity.fields[uint8(AllowedSnowflakeFields.DateOfBirth)];\n        for (uint j; j < dateOfBirth.length; j++) {\n            if (dateOfBirth[j] == bytes32(0x0)) {\n                continue;\n            }\n            dateField.entries[allowedDates.members[j]].entryName = dateOrder[j];\n            dateField.entries[allowedDates.members[j]].saltedHash = dateOfBirth[j];\n            dateField.entries[allowedDates.members[j]].blockNumber = block.number;\n            dateField.entriesAttestedTo.insert(allowedDates.members[j]);\n            // putting this here creates some unnecessary checks, but it catches the case when all elements are 0x0\n            identity.fieldsAttestedTo.insert(uint8(AllowedSnowflakeFields.DateOfBirth));\n        }\n\n        ownerToToken[msg.sender] = newTokenId;\n        emit SnowflakeMinted(newTokenId, msg.sender);\n        return newTokenId;\n    }\n\n    // wrappers that allow easy access to modify resolvers\n    function addResolvers(address[] resolvers, uint[] withdrawAllowances) public _hasToken(msg.sender, true) {\n        require(resolvers.length == withdrawAllowances.length, \"Malformed inputs.\");\n\n        Identity storage identity = tokenDirectory[ownerToToken[msg.sender]];\n\n        for (uint i; i < resolvers.length; i++) {\n            require(resolverWhitelist.contains(resolvers[i]), \"The given resolver is not on the whitelist.\");\n            require(!identity.resolversFor.contains(resolvers[i]), \"This snowflake has already set this resolver.\");\n            identity.resolversFor.insert(resolvers[i]);\n            identity.resolvers[resolvers[i]].withdrawAllowance = withdrawAllowances[i];\n        }\n\n        emit ResolversAdded(ownerToToken[msg.sender], resolvers, withdrawAllowances);\n    }\n\n    function changeResolverAllowances(address[] resolvers, uint[] withdrawAllowances)\n        public _hasToken(msg.sender, true)\n    {\n        require(resolvers.length == withdrawAllowances.length, \"Malformed inputs.\");\n\n        Identity storage identity = tokenDirectory[ownerToToken[msg.sender]];\n\n        for (uint i; i < resolvers.length; i++) {\n            require(identity.resolversFor.contains(resolvers[i]), \"This snowflake has not set this resolver\");\n            identity.resolvers[resolvers[i]].withdrawAllowance = withdrawAllowances[i];\n        }\n\n        emit ResolversAllowanceChanged(ownerToToken[msg.sender], resolvers, withdrawAllowances);\n    }\n\n    function removeResolvers(address[] resolvers) public _hasToken(msg.sender, true) {\n        Identity storage identity = tokenDirectory[ownerToToken[msg.sender]];\n\n        for (uint i; i < resolvers.length; i++) {\n            require(identity.resolversFor.contains(resolvers[i]), \"This snowflake has not set this resolver\");\n            identity.resolversFor.remove(resolvers[i]);\n            delete identity.resolvers[resolvers[i]];\n        }\n\n        emit ResolversRemoved(ownerToToken[msg.sender], resolvers);\n    }\n\n    // add/remove field entries\n    function addFieldEntry(uint8 field, string entry, bytes32 saltedHash) public _hasToken(msg.sender, true) {\n        require(allowedFields[field], \"Invalid field.\");\n\n        bytes32 entryLookup = keccak256(abi.encodePacked(entry));\n        if (field == uint8(AllowedSnowflakeFields.Name)) {\n            require(allowedNames.contains(entryLookup));\n        }\n\n        Identity storage identity = tokenDirectory[ownerToToken[msg.sender]];\n        require(!identity.fields[field].entriesAttestedTo.contains(entryLookup), \"Entry already exists\");\n\n        identity.fields[field].entriesAttestedTo.insert(entryLookup);\n        identity.fields[field].entries[entryLookup].entryName = entry;\n        identity.fields[field].entries[entryLookup].saltedHash = saltedHash;\n        identity.fields[field].entries[entryLookup].blockNumber = block.number;\n\n        identity.fieldsAttestedTo.insert(field);\n    }\n\n    function removeFieldEntry(uint8 field, string entry) public _hasToken(msg.sender, true) {\n        require(allowedFields[field], \"Invalid field.\");\n\n        bytes32 entryLookup = keccak256(abi.encodePacked(entry));\n\n        Identity storage identity = tokenDirectory[ownerToToken[msg.sender]];\n        require(identity.fields[field].entriesAttestedTo.contains(entryLookup), \"Entry does not exist\");\n\n        identity.fields[field].entriesAttestedTo.remove(entryLookup);\n        delete identity.fields[field].entries[entryLookup];\n        if (identity.fields[field].entriesAttestedTo.length() == 0) {\n            identity.fieldsAttestedTo.remove(field);\n        }\n    }\n\n    // check resolver membership\n    function hasResolver(uint tokenId, address resolver) public view _tokenExists(tokenId) returns (bool) {\n        Identity storage identity = tokenDirectory[tokenId];\n        return identity.resolversFor.contains(resolver);\n    }\n\n    // functions to check attestations\n    function hasAttested(uint tokenId, uint8 field) public view _tokenExists(tokenId) returns (bool) {\n        require(allowedFields[field], \"Invalid field.\");\n        Identity storage identity = tokenDirectory[tokenId];\n        return identity.fieldsAttestedTo.contains(field);\n    }\n\n    function hasAttested(uint tokenId, uint8 field, string entry) public view _tokenExists(tokenId) returns (bool) {\n        require(allowedFields[field], \"Invalid field.\");\n        Identity storage identity = tokenDirectory[tokenId];\n        bytes32 entryLookup = keccak256(abi.encodePacked(entry));\n        return identity.fields[field].entriesAttestedTo.contains(entryLookup);\n    }\n\n    // functions to read token values\n    function getDetails(uint tokenId) public view _tokenExists(tokenId) returns (\n        address owner,\n        string hydroId,\n        uint8[] fieldsAttestedTo,\n        address[] resolversFor\n    ) {\n        Identity storage identity = tokenDirectory[tokenId];\n        return (\n            identity.owner,\n            identity.hydroId,\n            identity.fieldsAttestedTo.members,\n            identity.resolversFor.members\n        );\n    }\n\n    function getDetails(uint tokenId, address resolver) public view _tokenExists(tokenId)\n        returns (uint withdrawAllowance)\n    {\n        Identity storage identity = tokenDirectory[tokenId];\n        require(identity.resolversFor.contains(resolver));\n\n        return identity.resolvers[resolver].withdrawAllowance;\n    }\n\n    function getDetails(uint tokenId, uint8 field) public view _tokenExists(tokenId)\n        returns (bytes32[] entriesAttestedTo)\n    {\n        Identity storage identity = tokenDirectory[tokenId];\n        require(identity.fieldsAttestedTo.contains(field));\n\n        return identity.fields[field].entriesAttestedTo.members;\n    }\n\n    function getDetails(uint tokenId, uint8 field, string entry) public view\n        returns (string entryName, bytes32 saltedHash, uint blockNumber)\n    {\n        return getDetails(tokenId, field, keccak256(abi.encodePacked(entry)));\n    }\n\n    function getDetails(uint tokenId, uint8 field, bytes32 entryLookup) public view _tokenExists(tokenId)\n        returns (string entryName, bytes32 saltedHash, uint blockNumber)\n    {\n        Identity storage identity = tokenDirectory[tokenId];\n        require(identity.fieldsAttestedTo.contains(field));\n        require(identity.fields[field].entriesAttestedTo.contains(entryLookup));\n\n        return (\n            identity.fields[field].entries[entryLookup].entryName,\n            identity.fields[field].entries[entryLookup].saltedHash,\n            identity.fields[field].entries[entryLookup].blockNumber\n        );\n    }\n\n    // functions that enable HYDRO functionality\n    function receiveApproval(address _sender, uint amount, address _tokenAddress, bytes) public {\n        require(msg.sender == _tokenAddress);\n        require(_tokenAddress == hydroTokenAddress);\n        ERC20 hydro = ERC20(_tokenAddress);\n        require(hydro.transferFrom(_sender, address(this), amount));\n        deposits[_sender] = deposits[_sender].add(amount);\n        emit SnowflakeDeposit(_sender, amount);\n    }\n\n    function transferSnowflakeBalance(address to, uint amount) public {\n        _transferSnowflakeBalance(msg.sender, to, amount);\n    }\n\n    function withdrawSnowflakeBalance(uint amount) public {\n        require(amount > 0);\n        require(deposits[msg.sender] >= amount, \"Your cannot withdraw more than you have deposited.\");\n        deposits[msg.sender] = deposits[msg.sender].sub(amount);\n        ERC20 hydro = ERC20(hydroTokenAddress);\n        require(hydro.transfer(msg.sender, amount));\n        emit SnowflakeWithdraw(msg.sender, amount);\n    }\n\n    // only callable from resolvers with withdraw allowances\n    function transferOnBehalfOf(address from, address to, uint amount) public _hasToken(from, true) {\n        Identity storage identity = tokenDirectory[ownerToToken[from]];\n        require(identity.resolversFor.contains(msg.sender), \"This resolver has not been set by the from tokenholder.\");\n        \n        if (identity.resolvers[msg.sender].withdrawAllowance < amount) {\n            emit InsufficientAllowance(\n                ownerToToken[from], msg.sender, identity.resolvers[msg.sender].withdrawAllowance, amount\n            );\n            require(false, \"Resolver has inadequate allowance.\");\n        }\n\n        identity.resolvers[msg.sender].withdrawAllowance = identity.resolvers[msg.sender].withdrawAllowance.sub(amount);\n        _transferSnowflakeBalance(from, to,  amount);\n    }\n\n    function _transferSnowflakeBalance(address from, address to, uint amount) internal {\n        require(to != address(this), \"This contract cannot hold token balances on its own behalf.\");\n        require(amount > 0);\n        require(deposits[from] >= amount, \"Your balance is too low to transfer this amount.\");\n        deposits[from] = deposits[from].sub(amount);\n        deposits[to] = deposits[to].add(amount);\n        emit SnowflakeTransfer(from, to, amount);\n    }\n\n    // events\n    event SnowflakeDeposit(address indexed depositor, uint amount);\n    event SnowflakeTransfer(address indexed from, address indexed to, uint amount);\n    event SnowflakeWithdraw(address indexed depositor, uint amount);\n\n    event SnowflakeMinted(uint tokenId, address minter);\n\n    event ResolverWhitelisted(address indexed resolver, address sponsor);\n\n    event ResolversAdded(uint indexed tokenId, address[] resolvers, uint[] withdrawAllowances);\n    event ResolversAllowanceChanged(uint indexed tokenId, address[] resolvers, uint[] withdrawAllowances);\n    event ResolversRemoved(uint indexed tokenId, address[] resolvers);\n\n    event InsufficientAllowance(uint indexed tokenId, address resolver, uint currentAllowance, uint requestedWithdraw);\n}",
  "sourcePath": "/Users/noahzinsmeister/Documents/github/smart-contracts/snowflake/contracts/Snowflake.sol",
  "compiler": {
    "name": "solc",
    "version": "0.4.24+commit.e67f0147.Emscripten.clang"
  },
  "schemaVersion": "2.0.0",
  "updatedAt": "2018-06-27T18:31:46.477Z"
}