{
  "contractName": "SnowflakeResolver",
  "abi": [
    {
      "constant": true,
      "inputs": [],
      "name": "snowflakeDescription",
      "outputs": [
        {
          "name": "",
          "type": "string"
        }
      ],
      "payable": false,
      "stateMutability": "view",
      "type": "function"
    },
    {
      "constant": true,
      "inputs": [],
      "name": "snowflakeName",
      "outputs": [
        {
          "name": "",
          "type": "string"
        }
      ],
      "payable": false,
      "stateMutability": "view",
      "type": "function"
    },
    {
      "constant": true,
      "inputs": [],
      "name": "owner",
      "outputs": [
        {
          "name": "",
          "type": "address"
        }
      ],
      "payable": false,
      "stateMutability": "view",
      "type": "function"
    },
    {
      "constant": false,
      "inputs": [
        {
          "name": "newOwner",
          "type": "address"
        }
      ],
      "name": "transferOwnership",
      "outputs": [],
      "payable": false,
      "stateMutability": "nonpayable",
      "type": "function"
    },
    {
      "constant": true,
      "inputs": [],
      "name": "snowflakeAddress",
      "outputs": [
        {
          "name": "",
          "type": "address"
        }
      ],
      "payable": false,
      "stateMutability": "view",
      "type": "function"
    },
    {
      "anonymous": false,
      "inputs": [
        {
          "indexed": true,
          "name": "previousOwner",
          "type": "address"
        },
        {
          "indexed": true,
          "name": "newOwner",
          "type": "address"
        }
      ],
      "name": "OwnershipTransferred",
      "type": "event"
    },
    {
      "constant": false,
      "inputs": [
        {
          "name": "_address",
          "type": "address"
        }
      ],
      "name": "setSnowflakeAddress",
      "outputs": [],
      "payable": false,
      "stateMutability": "nonpayable",
      "type": "function"
    }
  ],
  "bytecode": "0x608060405260008054600160a060020a031916331790556103ae806100256000396000f3006080604052600436106100775763ffffffff7c010000000000000000000000000000000000000000000000000000000060003504166376acf1b6811461007c57806388cdab94146101065780638da5cb5b1461011b578063c979b05a1461014c578063f2fde38b1461016f578063f9f451b814610190575b600080fd5b34801561008857600080fd5b506100916101a5565b6040805160208082528351818301528351919283929083019185019080838360005b838110156100cb5781810151838201526020016100b3565b50505050905090810190601f1680156100f85780820380516001836020036101000a031916815260200191505b509250505060405180910390f35b34801561011257600080fd5b50610091610230565b34801561012757600080fd5b5061013061028a565b60408051600160a060020a039092168252519081900360200190f35b34801561015857600080fd5b5061016d600160a060020a0360043516610299565b005b34801561017b57600080fd5b5061016d600160a060020a03600435166102df565b34801561019c57600080fd5b50610130610373565b6002805460408051602060018416156101000260001901909316849004601f810184900484028201840190925281815292918301828280156102285780601f106101fd57610100808354040283529160200191610228565b820191906000526020600020905b81548152906001019060200180831161020b57829003601f168201915b505050505081565b60018054604080516020600284861615610100026000190190941693909304601f810184900484028201840190925281815292918301828280156102285780601f106101fd57610100808354040283529160200191610228565b600054600160a060020a031681565b600054600160a060020a031633146102b057600080fd5b6003805473ffffffffffffffffffffffffffffffffffffffff1916600160a060020a0392909216919091179055565b600054600160a060020a031633146102f657600080fd5b600160a060020a038116151561030b57600080fd5b60008054604051600160a060020a03808516939216917f8be0079c531659141344cd1fd0a4f28419497f9722a3daafe3b4186f6b6457e091a36000805473ffffffffffffffffffffffffffffffffffffffff1916600160a060020a0392909216919091179055565b600354600160a060020a0316815600a165627a7a723058208f25c8a2ec4ffd06d01deeca0781b13eab6cd2860eb562613ff80d1521c3726e0029",
  "source": "pragma solidity ^0.4.23;\n\nimport \"../zeppelin/ownership/Ownable.sol\";\n\n\ncontract SnowflakeResolver is Ownable {\n    string public snowflakeName;\n    string public snowflakeDescription;\n    address public snowflakeAddress;\n\n    function setSnowflakeAddress(address _address) public onlyOwner {\n        snowflakeAddress = _address;\n    }\n}\n",
  "sourcePath": "/Users/noahzinsmeister/Documents/github/smart-contracts/snowflake/contracts/resolvers/SnowflakeResolver.sol",
  "compiler": {
    "name": "solc",
    "version": "0.4.24+commit.e67f0147.Emscripten.clang"
  },
  "schemaVersion": "2.0.1",
  "updatedAt": "2018-07-10T18:56:11.575Z"
}