{
  "contractName": "Status",
  "abi": [
    {
      "constant": true,
      "inputs": [],
      "name": "snowflakeDescription",
      "outputs": [
        {
          "name": "",
          "type": "string"
        }
      ],
      "payable": false,
      "stateMutability": "view",
      "type": "function"
    },
    {
      "constant": true,
      "inputs": [],
      "name": "snowflakeName",
      "outputs": [
        {
          "name": "",
          "type": "string"
        }
      ],
      "payable": false,
      "stateMutability": "view",
      "type": "function"
    },
    {
      "constant": true,
      "inputs": [],
      "name": "owner",
      "outputs": [
        {
          "name": "",
          "type": "address"
        }
      ],
      "payable": false,
      "stateMutability": "view",
      "type": "function"
    },
    {
      "constant": true,
      "inputs": [],
      "name": "callOnRemoval",
      "outputs": [
        {
          "name": "",
          "type": "bool"
        }
      ],
      "payable": false,
      "stateMutability": "view",
      "type": "function"
    },
    {
      "constant": false,
      "inputs": [
        {
          "name": "_address",
          "type": "address"
        }
      ],
      "name": "setSnowflakeAddress",
      "outputs": [],
      "payable": false,
      "stateMutability": "nonpayable",
      "type": "function"
    },
    {
      "constant": true,
      "inputs": [],
      "name": "callOnSignUp",
      "outputs": [
        {
          "name": "",
          "type": "bool"
        }
      ],
      "payable": false,
      "stateMutability": "view",
      "type": "function"
    },
    {
      "constant": false,
      "inputs": [
        {
          "name": "newOwner",
          "type": "address"
        }
      ],
      "name": "transferOwnership",
      "outputs": [],
      "payable": false,
      "stateMutability": "nonpayable",
      "type": "function"
    },
    {
      "constant": true,
      "inputs": [],
      "name": "snowflakeAddress",
      "outputs": [
        {
          "name": "",
          "type": "address"
        }
      ],
      "payable": false,
      "stateMutability": "view",
      "type": "function"
    },
    {
      "inputs": [],
      "payable": false,
      "stateMutability": "nonpayable",
      "type": "constructor"
    },
    {
      "anonymous": false,
      "inputs": [
        {
          "indexed": false,
          "name": "hydroId",
          "type": "string"
        },
        {
          "indexed": false,
          "name": "status",
          "type": "string"
        }
      ],
      "name": "StatusUpdated",
      "type": "event"
    },
    {
      "anonymous": false,
      "inputs": [
        {
          "indexed": true,
          "name": "previousOwner",
          "type": "address"
        },
        {
          "indexed": true,
          "name": "newOwner",
          "type": "address"
        }
      ],
      "name": "OwnershipTransferred",
      "type": "event"
    },
    {
      "constant": false,
      "inputs": [
        {
          "name": "hydroId",
          "type": "string"
        },
        {
          "name": "allowance",
          "type": "uint256"
        }
      ],
      "name": "onSignUp",
      "outputs": [
        {
          "name": "",
          "type": "bool"
        }
      ],
      "payable": false,
      "stateMutability": "nonpayable",
      "type": "function"
    },
    {
      "constant": true,
      "inputs": [
        {
          "name": "hydroId",
          "type": "string"
        }
      ],
      "name": "getStatus",
      "outputs": [
        {
          "name": "",
          "type": "string"
        }
      ],
      "payable": false,
      "stateMutability": "view",
      "type": "function"
    },
    {
      "constant": false,
      "inputs": [
        {
          "name": "status",
          "type": "string"
        }
      ],
      "name": "setStatus",
      "outputs": [],
      "payable": false,
      "stateMutability": "nonpayable",
      "type": "function"
    }
  ],
  "bytecode": "0x670de0b6b3a764000060055560c0604052601460808190527f4d792066697273742073746174757320f09f988e00000000000000000000000060a09081526200004c916006919062000101565b503480156200005a57600080fd5b5060008054600160a060020a031916331790556040805180820190915260068082527f53746174757300000000000000000000000000000000000000000000000000006020909201918252620000b39160019162000101565b506040805180820190915260108082527f53657420796f7572207374617475732e000000000000000000000000000000006020909201918252620000fa9160029162000101565b50620001a6565b828054600181600116156101000203166002900490600052602060002090601f016020900481019282601f106200014457805160ff191683800117855562000174565b8280016001018555821562000174579182015b828111156200017457825182559160200191906001019062000157565b506200018292915062000186565b5090565b620001a391905b808211156200018257600081556001016200018d565b90565b610e2180620001b66000396000f3006080604052600436106100ae5763ffffffff7c010000000000000000000000000000000000000000000000000000000060003504166322b05ed281146100b357806376acf1b6146101815780637d2211d61461019657806388cdab94146101f15780638da5cb5b146102065780638f06492d14610237578063c979b05a14610260578063d42e87ed14610281578063f2fde38b14610296578063f9f451b8146102b7578063ff4cfa5e146102cc575b600080fd5b3480156100bf57600080fd5b506040805160206004803580820135601f810184900484028501840190955284845261010c9436949293602493928401919081908401838280828437509497506103279650505050505050565b6040805160208082528351818301528351919283929083019185019080838360005b8381101561014657818101518382015260200161012e565b50505050905090810190601f1680156101735780820380516001836020036101000a031916815260200191505b509250505060405180910390f35b34801561018d57600080fd5b5061010c61041b565b3480156101a257600080fd5b506040805160206004803580820135601f81018490048402850184019095528484526101ef9436949293602493928401919081908401838280828437509497506104a69650505050505050565b005b3480156101fd57600080fd5b5061010c610716565b34801561021257600080fd5b5061021b610770565b60408051600160a060020a039092168252519081900360200190f35b34801561024357600080fd5b5061024c61077f565b604080519115158252519081900360200190f35b34801561026c57600080fd5b506101ef600160a060020a03600435166107a1565b34801561028d57600080fd5b5061024c6107e7565b3480156102a257600080fd5b506101ef600160a060020a0360043516610808565b3480156102c357600080fd5b5061021b61089c565b3480156102d857600080fd5b506040805160206004803580820135601f810184900484028501840190955284845261024c94369492936024939284019190819084018382808284375094975050933594506108ab9350505050565b60606004826040518082805190602001908083835b6020831061035b5780518252601f19909201916020918201910161033c565b518151600019602094850361010090810a820192831692199390931691909117909252949092019687526040805197889003820188208054601f600260018316159098029095011695909504928301829004820288018201905281875292945092505083018282801561040f5780601f106103e45761010080835404028352916020019161040f565b820191906000526020600020905b8154815290600101906020018083116103f257829003601f168201915b50505050509050919050565b6002805460408051602060018416156101000260001901909316849004601f8101849004840282018401909252818152929183018282801561049e5780601f106104735761010080835404028352916020019161049e565b820191906000526020600020905b81548152906001019060200180831161048157829003601f168201915b505050505081565b600354604080517f99734fe40000000000000000000000000000000000000000000000000000000081523360048201529051600160a060020a039092169160609183916399734fe49160248082019260009290919082900301818387803b15801561051057600080fd5b505af1158015610524573d6000803e3d6000fd5b505050506040513d6000823e601f3d908101601f19168201604052602081101561054d57600080fd5b81019080805164010000000081111561056557600080fd5b8201602081018481111561057857600080fd5b815164010000000081118282018710171561059257600080fd5b50509291905050509050826004826040518082805190602001908083835b602083106105cf5780518252601f1990920191602091820191016105b0565b51815160209384036101000a600019018019909216911617905292019485525060405193849003810190932084516106109591949190910192509050610ce5565b507fb75b1fec1bc9156569ae9f72fb29c6e6727b297e191d358465fff4c09d8f7d268184604051808060200180602001838103835285818151815260200191508051906020019080838360005b8381101561067557818101518382015260200161065d565b50505050905090810190601f1680156106a25780820380516001836020036101000a031916815260200191505b50838103825284518152845160209182019186019080838360005b838110156106d55781810151838201526020016106bd565b50505050905090810190601f1680156107025780820380516001836020036101000a031916815260200191505b5094505050505060405180910390a1505050565b60018054604080516020600284861615610100026000190190941693909304601f8101849004840282018401909252818152929183018282801561049e5780601f106104735761010080835404028352916020019161049e565b600054600160a060020a031681565b6003547501000000000000000000000000000000000000000000900460ff1681565b600054600160a060020a031633146107b857600080fd5b6003805473ffffffffffffffffffffffffffffffffffffffff1916600160a060020a0392909216919091179055565b60035474010000000000000000000000000000000000000000900460ff1681565b600054600160a060020a0316331461081f57600080fd5b600160a060020a038116151561083457600080fd5b60008054604051600160a060020a03808516939216917f8be0079c531659141344cd1fd0a4f28419497f9722a3daafe3b4186f6b6457e091a36000805473ffffffffffffffffffffffffffffffffffffffff1916600160a060020a0392909216919091179055565b600354600160a060020a031681565b6003546000908190600160a060020a0316331461094f57604080517f08c379a000000000000000000000000000000000000000000000000000000000815260206004820152602160248201527f446964206e6f74206f726967696e6174652066726f6d20536e6f77666c616b6560448201527f2e00000000000000000000000000000000000000000000000000000000000000606482015290519081900360840190fd5b60055483146109bf57604080517f08c379a000000000000000000000000000000000000000000000000000000000815260206004820152601b60248201527f4d7573742073657420616e20616c6c6f77616e6365206f6620312e0000000000604482015290519081900360640190fd5b50600354600080546005546040517f698afd98000000000000000000000000000000000000000000000000000000008152600160a060020a0392831660248201819052604482018390526060600483019081528951606484015289519490961695869563698afd98958b959394839260849091019160208801918190849084905b83811015610a58578181015183820152602001610a40565b50505050905090810190601f168015610a855780820380516001836020036101000a031916815260200191505b50945050505050602060405180830381600087803b158015610aa657600080fd5b505af1158015610aba573d6000803e3d6000fd5b505050506040513d6020811015610ad057600080fd5b50511515610b3f57604080517f08c379a000000000000000000000000000000000000000000000000000000000815260206004820152601560248201527f436f756c64206e6f7420636861726765206665652e0000000000000000000000604482015290519081900360640190fd5b60066004856040518082805190602001908083835b60208310610b735780518252601f199092019160209182019101610b54565b6001836020036101000a03801982511681845116808217855250505050505090500191505090815260200160405180910390209080546001816001161561010002031660029004610bc5929190610d63565b507fb75b1fec1bc9156569ae9f72fb29c6e6727b297e191d358465fff4c09d8f7d26846006604051808060200180602001838103835285818151815260200191508051906020019080838360005b83811015610c2b578181015183820152602001610c13565b50505050905090810190601f168015610c585780820380516001836020036101000a031916815260200191505b50838103825284546002600019610100600184161502019091160480825260209091019085908015610ccb5780601f10610ca057610100808354040283529160200191610ccb565b820191906000526020600020905b815481529060010190602001808311610cae57829003601f168201915b505094505050505060405180910390a15060019392505050565b828054600181600116156101000203166002900490600052602060002090601f016020900481019282601f10610d2657805160ff1916838001178555610d53565b82800160010185558215610d53579182015b82811115610d53578251825591602001919060010190610d38565b50610d5f929150610dd8565b5090565b828054600181600116156101000203166002900490600052602060002090601f016020900481019282601f10610d9c5780548555610d53565b82800160010185558215610d5357600052602060002091601f016020900482015b82811115610d53578254825591600101919060010190610dbd565b610df291905b80821115610d5f5760008155600101610dde565b905600a165627a7a72305820114f2254fb6df42d8d6afdaeb8062c62889b258fdf5821183b165499241d1e510029",
  "source": "pragma solidity ^0.4.24;\n\nimport \"./SnowflakeResolver.sol\";\n\n\ncontract Snowflake {\n    function withdrawFrom(string hydroIdFrom, address to, uint amount) public returns (bool);\n    function getHydroId(address _address) public view returns (string hydroId);\n}\n\n\ncontract Status is SnowflakeResolver {\n    mapping (string => string) internal statuses;\n\n    uint signUpFee = 1000000000000000000;\n    string firstStatus = \"My first status 😎\";\n\n    constructor () public {\n        snowflakeName = \"Status\";\n        snowflakeDescription = \"Set your status.\";\n    }\n\n    // implement signup function\n    function onSignUp(string hydroId, uint allowance) public returns (bool) {\n        require(msg.sender == snowflakeAddress, \"Did not originate from Snowflake.\");\n        require(allowance == signUpFee, \"Must set an allowance of 1.\");\n        Snowflake snowflake = Snowflake(snowflakeAddress);\n        require(snowflake.withdrawFrom(hydroId, owner, signUpFee), \"Could not charge fee.\");\n        statuses[hydroId] = firstStatus;\n        emit StatusUpdated(hydroId, firstStatus);\n        return true;\n    }\n\n    function getStatus(string hydroId) public view returns (string) {\n        return statuses[hydroId];\n    }\n\n    // example function that calls withdraw on a linked hydroID\n    function setStatus(string status) public {\n        Snowflake snowflake = Snowflake(snowflakeAddress);\n        string memory hydroId = snowflake.getHydroId(msg.sender);\n        statuses[hydroId] = status;\n        emit StatusUpdated(hydroId, status);\n    }\n\n    event StatusUpdated(string hydroId, string status);\n}\n",
  "sourcePath": "/Users/noahzinsmeister/Documents/github/smart-contracts/snowflake/contracts/resolvers/Status.sol",
  "compiler": {
    "name": "solc",
    "version": "0.4.24+commit.e67f0147.Emscripten.clang"
  },
  "schemaVersion": "2.0.1",
  "updatedAt": "2018-08-21T17:36:39.727Z"
}