{
  "contractName": "Status",
  "abi": [
    {
      "constant": true,
      "inputs": [],
      "name": "snowflakeDescription",
      "outputs": [
        {
          "name": "",
          "type": "string"
        }
      ],
      "payable": false,
      "stateMutability": "view",
      "type": "function"
    },
    {
      "constant": true,
      "inputs": [],
      "name": "snowflakeName",
      "outputs": [
        {
          "name": "",
          "type": "string"
        }
      ],
      "payable": false,
      "stateMutability": "view",
      "type": "function"
    },
    {
      "constant": true,
      "inputs": [],
      "name": "owner",
      "outputs": [
        {
          "name": "",
          "type": "address"
        }
      ],
      "payable": false,
      "stateMutability": "view",
      "type": "function"
    },
    {
      "constant": false,
      "inputs": [
        {
          "name": "_address",
          "type": "address"
        }
      ],
      "name": "setSnowflakeAddress",
      "outputs": [],
      "payable": false,
      "stateMutability": "nonpayable",
      "type": "function"
    },
    {
      "constant": false,
      "inputs": [
        {
          "name": "newOwner",
          "type": "address"
        }
      ],
      "name": "transferOwnership",
      "outputs": [],
      "payable": false,
      "stateMutability": "nonpayable",
      "type": "function"
    },
    {
      "constant": true,
      "inputs": [],
      "name": "snowflakeAddress",
      "outputs": [
        {
          "name": "",
          "type": "address"
        }
      ],
      "payable": false,
      "stateMutability": "view",
      "type": "function"
    },
    {
      "inputs": [],
      "payable": false,
      "stateMutability": "nonpayable",
      "type": "constructor"
    },
    {
      "anonymous": false,
      "inputs": [
        {
          "indexed": false,
          "name": "hydroId",
          "type": "string"
        },
        {
          "indexed": false,
          "name": "status",
          "type": "string"
        }
      ],
      "name": "StatusUpdated",
      "type": "event"
    },
    {
      "anonymous": false,
      "inputs": [
        {
          "indexed": true,
          "name": "previousOwner",
          "type": "address"
        },
        {
          "indexed": true,
          "name": "newOwner",
          "type": "address"
        }
      ],
      "name": "OwnershipTransferred",
      "type": "event"
    },
    {
      "constant": false,
      "inputs": [
        {
          "name": "hydroId",
          "type": "string"
        },
        {
          "name": "allowance",
          "type": "uint256"
        }
      ],
      "name": "onSignUp",
      "outputs": [
        {
          "name": "",
          "type": "bool"
        }
      ],
      "payable": false,
      "stateMutability": "nonpayable",
      "type": "function"
    },
    {
      "constant": true,
      "inputs": [
        {
          "name": "hydroId",
          "type": "string"
        }
      ],
      "name": "getStatus",
      "outputs": [
        {
          "name": "",
          "type": "string"
        }
      ],
      "payable": false,
      "stateMutability": "view",
      "type": "function"
    },
    {
      "constant": false,
      "inputs": [
        {
          "name": "status",
          "type": "string"
        }
      ],
      "name": "setStatus",
      "outputs": [],
      "payable": false,
      "stateMutability": "nonpayable",
      "type": "function"
    }
  ],
  "bytecode": "0x670de0b6b3a764000060055560c0604052601460808190527f4d792066697273742073746174757320f09f988e00000000000000000000000060a090815261004a91600691906100f9565b5034801561005757600080fd5b5060008054600160a060020a031916331790556040805180820190915260068082527f537461747573000000000000000000000000000000000000000000000000000060209092019182526100ae916001916100f9565b506040805180820190915260108082527f53657420796f7572207374617475732e0000000000000000000000000000000060209092019182526100f3916002916100f9565b50610194565b828054600181600116156101000203166002900490600052602060002090601f016020900481019282601f1061013a57805160ff1916838001178555610167565b82800160010185558215610167579182015b8281111561016757825182559160200191906001019061014c565b50610173929150610177565b5090565b61019191905b80821115610173576000815560010161017d565b90565b610c32806101a36000396000f3006080604052600436106100985763ffffffff7c010000000000000000000000000000000000000000000000000000000060003504166322b05ed2811461009d57806376acf1b61461016b5780637d2211d61461018057806388cdab94146101db5780638da5cb5b146101f0578063c979b05a14610221578063f2fde38b14610242578063f9f451b814610263578063ff4cfa5e14610278575b600080fd5b3480156100a957600080fd5b506040805160206004803580820135601f81018490048402850184019095528484526100f69436949293602493928401919081908401838280828437509497506102e79650505050505050565b6040805160208082528351818301528351919283929083019185019080838360005b83811015610130578181015183820152602001610118565b50505050905090810190601f16801561015d5780820380516001836020036101000a031916815260200191505b509250505060405180910390f35b34801561017757600080fd5b506100f66103db565b34801561018c57600080fd5b506040805160206004803580820135601f81018490048402850184019095528484526101d99436949293602493928401919081908401838280828437509497506104669650505050505050565b005b3480156101e757600080fd5b506100f66106d6565b3480156101fc57600080fd5b50610205610730565b60408051600160a060020a039092168252519081900360200190f35b34801561022d57600080fd5b506101d9600160a060020a036004351661073f565b34801561024e57600080fd5b506101d9600160a060020a0360043516610785565b34801561026f57600080fd5b50610205610819565b34801561028457600080fd5b506040805160206004803580820135601f81018490048402850184019095528484526102d394369492936024939284019190819084018382808284375094975050933594506108289350505050565b604080519115158252519081900360200190f35b60606004826040518082805190602001908083835b6020831061031b5780518252601f1990920191602091820191016102fc565b518151600019602094850361010090810a820192831692199390931691909117909252949092019687526040805197889003820188208054601f60026001831615909802909501169590950492830182900482028801820190528187529294509250508301828280156103cf5780601f106103a4576101008083540402835291602001916103cf565b820191906000526020600020905b8154815290600101906020018083116103b257829003601f168201915b50505050509050919050565b6002805460408051602060018416156101000260001901909316849004601f8101849004840282018401909252818152929183018282801561045e5780601f106104335761010080835404028352916020019161045e565b820191906000526020600020905b81548152906001019060200180831161044157829003601f168201915b505050505081565b600354604080517f99734fe40000000000000000000000000000000000000000000000000000000081523360048201529051600160a060020a039092169160609183916399734fe49160248082019260009290919082900301818387803b1580156104d057600080fd5b505af11580156104e4573d6000803e3d6000fd5b505050506040513d6000823e601f3d908101601f19168201604052602081101561050d57600080fd5b81019080805164010000000081111561052557600080fd5b8201602081018481111561053857600080fd5b815164010000000081118282018710171561055257600080fd5b50509291905050509050826004826040518082805190602001908083835b6020831061058f5780518252601f199092019160209182019101610570565b51815160209384036101000a600019018019909216911617905292019485525060405193849003810190932084516105d09591949190910192509050610af6565b507fb75b1fec1bc9156569ae9f72fb29c6e6727b297e191d358465fff4c09d8f7d268184604051808060200180602001838103835285818151815260200191508051906020019080838360005b8381101561063557818101518382015260200161061d565b50505050905090810190601f1680156106625780820380516001836020036101000a031916815260200191505b50838103825284518152845160209182019186019080838360005b8381101561069557818101518382015260200161067d565b50505050905090810190601f1680156106c25780820380516001836020036101000a031916815260200191505b5094505050505060405180910390a1505050565b60018054604080516020600284861615610100026000190190941693909304601f8101849004840282018401909252818152929183018282801561045e5780601f106104335761010080835404028352916020019161045e565b600054600160a060020a031681565b600054600160a060020a0316331461075657600080fd5b6003805473ffffffffffffffffffffffffffffffffffffffff1916600160a060020a0392909216919091179055565b600054600160a060020a0316331461079c57600080fd5b600160a060020a03811615156107b157600080fd5b60008054604051600160a060020a03808516939216917f8be0079c531659141344cd1fd0a4f28419497f9722a3daafe3b4186f6b6457e091a36000805473ffffffffffffffffffffffffffffffffffffffff1916600160a060020a0392909216919091179055565b600354600160a060020a031681565b6003546000908190600160a060020a031633146108cc57604080517f08c379a000000000000000000000000000000000000000000000000000000000815260206004820152602160248201527f446964206e6f74206f726967696e6174652066726f6d20536e6f77666c616b6560448201527f2e00000000000000000000000000000000000000000000000000000000000000606482015290519081900360840190fd5b600554831461093c57604080517f08c379a000000000000000000000000000000000000000000000000000000000815260206004820152601b60248201527f4d7573742073657420616e20616c6c6f77616e6365206f6620312e0000000000604482015290519081900360640190fd5b506003546040518451600160a060020a0390921691600691600491879190819060208401908083835b602083106109845780518252601f199092019160209182019101610965565b6001836020036101000a038019825116818451168082178552505050505050905001915050908152602001604051809103902090805460018160011615610100020316600290046109d6929190610b74565b507fb75b1fec1bc9156569ae9f72fb29c6e6727b297e191d358465fff4c09d8f7d26846006604051808060200180602001838103835285818151815260200191508051906020019080838360005b83811015610a3c578181015183820152602001610a24565b50505050905090810190601f168015610a695780820380516001836020036101000a031916815260200191505b50838103825284546002600019610100600184161502019091160480825260209091019085908015610adc5780601f10610ab157610100808354040283529160200191610adc565b820191906000526020600020905b815481529060010190602001808311610abf57829003601f168201915b505094505050505060405180910390a15060019392505050565b828054600181600116156101000203166002900490600052602060002090601f016020900481019282601f10610b3757805160ff1916838001178555610b64565b82800160010185558215610b64579182015b82811115610b64578251825591602001919060010190610b49565b50610b70929150610be9565b5090565b828054600181600116156101000203166002900490600052602060002090601f016020900481019282601f10610bad5780548555610b64565b82800160010185558215610b6457600052602060002091601f016020900482015b82811115610b64578254825591600101919060010190610bce565b610c0391905b80821115610b705760008155600101610bef565b905600a165627a7a72305820ec28617d511c550dabbed03f01bbc0101cfdadb94e7effb0c2d6b78026d47c570029",
  "source": "pragma solidity ^0.4.24;\n\nimport \"./SnowflakeResolver.sol\";\n\n\ncontract Snowflake {\n    function withdrawFrom(string hydroIdFrom, address to, uint amount) public returns (bool);\n    function getHydroId(address _address) public view returns (string hydroId);\n}\n\n\ncontract Status is SnowflakeResolver {\n    mapping (string => string) internal statuses;\n\n    uint signUpFee = 1000000000000000000;\n    string firstStatus = \"My first status 😎\";\n\n    constructor () public {\n        snowflakeName = \"Status\";\n        snowflakeDescription = \"Set your status.\";\n    }\n\n    // implement signup function\n    function onSignUp(string hydroId, uint allowance) public returns (bool) {\n        require(msg.sender == snowflakeAddress, \"Did not originate from Snowflake.\");\n        require(allowance == signUpFee, \"Must set an allowance of 1.\");\n        Snowflake snowflake = Snowflake(snowflakeAddress);\n        // require(snowflake.withdrawFrom(hydroId, owner, signUpFee), \"Could not charge fee.\");\n        statuses[hydroId] = firstStatus;\n        emit StatusUpdated(hydroId, firstStatus);\n        return true;\n    }\n\n    function getStatus(string hydroId) public view returns (string) {\n        return statuses[hydroId];\n    }\n\n    // example function that calls withdraw on a linked hydroID\n    function setStatus(string status) public {\n        Snowflake snowflake = Snowflake(snowflakeAddress);\n        string memory hydroId = snowflake.getHydroId(msg.sender);\n        statuses[hydroId] = status;\n        emit StatusUpdated(hydroId, status);\n    }\n\n    event StatusUpdated(string hydroId, string status);\n}\n",
  "sourcePath": "/Users/noahzinsmeister/Documents/github/smart-contracts/snowflake/contracts/resolvers/Status.sol",
  "compiler": {
    "name": "solc",
    "version": "0.4.24+commit.e67f0147.Emscripten.clang"
  },
  "schemaVersion": "2.0.1",
  "updatedAt": "2018-08-10T20:30:24.272Z"
}