{
  "contractName": "stringSet",
  "abi": [
    {
      "constant": false,
      "inputs": [
        {
          "name": "self",
          "type": "stringSet._stringSet storage"
        },
        {
          "name": "other",
          "type": "string"
        }
      ],
      "name": "insert",
      "outputs": [],
      "payable": false,
      "stateMutability": "nonpayable",
      "type": "function"
    },
    {
      "constant": false,
      "inputs": [
        {
          "name": "self",
          "type": "stringSet._stringSet storage"
        },
        {
          "name": "other",
          "type": "string"
        }
      ],
      "name": "remove",
      "outputs": [],
      "payable": false,
      "stateMutability": "nonpayable",
      "type": "function"
    },
    {
      "constant": true,
      "inputs": [
        {
          "name": "self",
          "type": "stringSet._stringSet storage"
        },
        {
          "name": "other",
          "type": "string"
        }
      ],
      "name": "contains",
      "outputs": [
        {
          "name": "",
          "type": "bool"
        }
      ],
      "payable": false,
      "stateMutability": "view",
      "type": "function"
    },
    {
      "constant": true,
      "inputs": [
        {
          "name": "self",
          "type": "stringSet._stringSet storage"
        }
      ],
      "name": "length",
      "outputs": [
        {
          "name": "",
          "type": "uint256"
        }
      ],
      "payable": false,
      "stateMutability": "view",
      "type": "function"
    }
  ],
  "bytecode": "0x610685610030600b82828239805160001a6073146000811461002057610022565bfe5b5030600052607381538281f30073000000000000000000000000000000000000000030146080604052600436106100785763ffffffff7c01000000000000000000000000000000000000000000000000000000006000350416639b71f010811461007d578063d080be4f146100dd578063ea486c5314610142578063f0bb04e6146101a0575b600080fd5b81801561008957600080fd5b5060408051602060046024803582810135601f81018590048502860185019096528585526100db9583359536956044949193909101919081908401838280828437509497506101bd9650505050505050565b005b60408051602060046024803582810135601f810185900485028601850190965285855261012e9583359536956044949193909101919081908401838280828437509497506103f89650505050505050565b604080519115158252519081900360200190f35b81801561014e57600080fd5b5060408051602060046024803582810135601f81018590048502860185019096528585526100db9583359536956044949193909101919081908401838280828437509497506104689650505050505050565b6101ab600435610527565b60408051918252519081900360200190f35b600060606101cb84846103f8565b156103f25783600101836040518082805190602001908083835b602083106102045780518252601f1990920191602091820191016101e5565b51815160209384036101000a600019018019909216911617905292019485525060405193849003019092205493508591506001905061024282610527565b0381548110151561024f57fe5b600091825260209182902001805460408051601f60026000196101006001871615020190941693909304928301859004850281018501909152818152928301828280156102dd5780601f106102b2576101008083540402835291602001916102dd565b820191906000526020600020905b8154815290600101906020018083116102c057829003601f168201915b505050505090508084600001600184038154811015156102f957fe5b90600052602060002001908051906020019061031692919061052b565b5083546103278560001983016105a9565b508184600101826040518082805190602001908083835b6020831061035d5780518252601f19909201916020918201910161033e565b51815160209384036101000a600019018019909216911617905292019485525060405193849003810184209490945550508451600187019286929182918401908083835b602083106103c05780518252601f1990920191602091820191016103a1565b51815160209384036101000a600019018019909216911617905292019485525060405193849003019092206000905550505b50505050565b60008083600101836040518082805190602001908083835b6020831061042f5780518252601f199092019160209182019101610410565b51815160209384036101000a60001901801990921691161790529201948552506040519384900301909220549290921195945050505050565b61047282826103f8565b15156105235760001961048483610527565b1061048b57fe5b8154600181018084556000848152602090819020845192936104b29391019185019061052b565b50506104bd82610527565b82600101826040518082805190602001908083835b602083106104f15780518252601f1990920191602091820191016104d2565b51815160209384036101000a600019018019909216911617905292019485525060405193849003019092209290925550505b5050565b5490565b828054600181600116156101000203166002900490600052602060002090601f016020900481019282601f1061056c57805160ff1916838001178555610599565b82800160010185558215610599579182015b8281111561059957825182559160200191906001019061057e565b506105a59291506105d2565b5090565b8154818355818111156105cd576000838152602090206105cd9181019083016105ef565b505050565b6105ec91905b808211156105a557600081556001016105d8565b90565b6105ec91905b808211156105a55760006106098282610612565b506001016105f5565b50805460018160011615610100020316600290046000825580601f106106385750610656565b601f01602090049060005260206000209081019061065691906105d2565b505600a165627a7a7230582095c6e45188a5df64db0d9638afdb161cdfb0ba311a8ddd9048ce9a777f2b19ff0029",
  "source": "pragma solidity ^0.4.23;\n\n\nlibrary stringSet {\n    struct _stringSet {\n        string[] members;\n        mapping(string => uint) memberIndices;\n    }\n\n    function insert(_stringSet storage self, string other) public {\n        if (!contains(self, other)) {\n            assert(length(self) < 2**256-1);\n            self.members.push(other);\n            self.memberIndices[other] = length(self);\n        }\n    }\n\n    function remove(_stringSet storage self, string other) public {\n        if (contains(self, other)) {\n            uint replaceIndex = self.memberIndices[other];\n            string memory lastMember = self.members[length(self)-1];\n            // overwrite other with the last member and remove last member\n            self.members[replaceIndex-1] = lastMember;\n            self.members.length--;\n            // reflect this change in the indices\n            self.memberIndices[lastMember] = replaceIndex;\n            delete self.memberIndices[other];\n        }\n    }\n\n    function contains(_stringSet storage self, string other) public view returns (bool) {\n        return self.memberIndices[other] > 0;\n    }\n\n    function length(_stringSet storage self) public view returns (uint) {\n        return self.members.length;\n    }\n}\n",
  "sourcePath": "/Users/noahzinsmeister/Documents/github/smart-contracts/snowflake/contracts/libraries/stringSet.sol",
  "compiler": {
    "name": "solc",
    "version": "0.4.24+commit.e67f0147.Emscripten.clang"
  },
  "schemaVersion": "2.0.0",
  "updatedAt": "2018-06-26T20:50:46.591Z"
}